:100000000C94FB010C9418020C9418020C94A42478
:100010000C9418020C9418020C9418020C941802F8
:100020000C9418020C9418020C949D2C0C94712DB5
:100030000C94C7260C9418020C9418020C94180205
:100040000C9418020C9418020C9418020C941802C8
:100050000C9418020C946A270C9418020C94180241
:100060000C9418020C9418020C9418020C941802A8
:100070000C9418020C9418020C9418020C94180298
:100080000C9418020C9418020C9418020C94180288
:100090000C9418020C9418020C9418020C94180278
:1000A0000C9418020C9418020C94180217001500F6
:1000B00008001A0014000A000900070016000400D6
:1000C0000500190006001B001D002C41E300E000A4
:1000D0001F001E00510052004F00500000001C0085
:1000E00018000C00120013000B000D000E000F0092
:1000F00028001100100036003700E5002C42E20015
:100100002A0020002100040005000600070000006E
:100110002200210020001F001E00220221022002D6
:100120001F021E02670054005500560057002C4164
:10013000490029001F001E00510052004F005000CE
:1001400000002300240025002600270023022402AB
:10015000250226022702350089002F1230122D12A7
:100160002D00E2002A002000210004000500060006
:10017000070000003E003D003C003B003A00340018
:100180003312330031001F02C75CC65CC55CC35C20
:10019000C25C2D1249002B001F001E0051005200AE
:1001A0004F00500000003F0040004100420043006B
:1001B0005000510052004F002E00C85CC95C2F0057
:1001C000300031002C42E2002A002000210004000F
:1001D000050006000700000000000000000000000D
:1001E0002A2B280000000000000000000000000092
:1001F00000000029000000002C1E3420212224349D
:100200002627252E362D3738271E1F20212223246E
:1002100025263333362E37381F0405060708090A0A
:100220000B0C0D0E0F101112131415161718191AA6
:100230001B1C1D2F3130232D350405060708090A24
:100240000B0C0D0E0F101112131415161718191A86
:100250001B1C1D2F3130354C000000000000000039
:10026000000000000000000000000000000000008E
:100270000000000000000000000000007E0F00D41D
:10028000FFFFFFC700000078120363006F006F00DC
:100290006C00350033003600720000000A036D0068
:1002A0002E006B00690000000403090409025B00D2
:1002B000030100A0FA090400000103010100092163
:1002C0001101000122400007058103080001090413
:1002D0000100020300000009211101000122220097
:1002E000070582032000010705030320000109041C
:1002F00002000103000000092111010001227B001E
:1003000007058403200001120100020000000843D9
:100310004D37050100010200010660FF0961A101DE
:100320000962150026FF00952075088102096315F2
:100330000026FF00952075089102C005010902A161
:100340000185020901A100050919012908150025E7
:1003500001950875018102050109300931158125D2
:100360007F95027508810609381581257F950175ED
:10037000088106050C0A38021581257F950175084C
:100380008106C0C005010980A101850319012AB7B2
:1003900000150126B700950175108100C0050C09F4
:1003A00001A101850419012AA002150126A00295C8
:1003B0000175108100C005010906A101050719E0BA
:1003C00029E7150025019508750181029501750839
:1003D00081010507190029FF150026FF0095067504
:1003E00008810005081901290595057501910295F7
:1003F0000175039101C011241FBECFEFDAE0DEBF0B
:10040000CDBF12E0A0E0B1E0E2E3F0E602C005906B
:100410000D92AE30B107D9F723E0AEE0B2E001C0F3
:100420001D92A333B207E1F70E9461160C94EE2FE0
:100430000C940000A5E0B0E0E0E2F2E00C946F2F35
:100440006B837C838D838C819D81892B21F0CA01F4
:1004500089238F3F31F480E081702596E2E00C948F
:100460008B2F8B81F9CF4091230150912401609112
:10047000250170912601809127010E941A0288238C
:10048000A1F0109225010E9427278160782F909378
:10049000270180932601409123015091240160910E
:1004A0002501809127010E94250540911E01509150
:1004B0001F016091200170912101809122010E9411
:1004C0001A028823A1F0109220010E942727816040
:1004D000782F909322018093210140911E01509129
:1004E0001F0160912001809122010E942505409109
:1004F000190150911A0160911B0170911C018091AA
:100500001D010E941A028823A1F010921B010E9473
:1005100027278160782F90931D0180931C014091C3
:10052000190150911A0160911B0180911D010E94D7
:1005300025054091140150911501609116017091AB
:100540001701809118010E941A028823A1F01092CD
:1005500016010E9427278160782F909318018093BD
:10056000170140911401509115016091160180917D
:1005700018010E94250540910F01509110016091D2
:10058000110170911201809113010E941A028823B7
:10059000A1F0109211010E9427278160782F90937B
:1005A00013018093120140910F015091100160914D
:1005B0001101809113010E94250540910A0150917B
:1005C0000B0160910C0170910D0180910E010E9450
:1005D0001A028823A1F010920C010E942727816043
:1005E000782F90930E0180930D0140910A01509154
:1005F0000B0160910C0180910E010E942505409134
:1006000005015091060160910701709108018091E8
:1006100009010E941A028823A1F0109207010E948A
:1006200027278160782F90930901809308014091DA
:1006300005015091060160910701809109010E9416
:1006400025054091000150910101609102017091D6
:100650000301809104010E941A028823A1F01092E4
:1006600002010E9427278160782F909304018093D4
:1006700003014091000150910101609102018091BC
:1006800004010E942505089581112CC081E0662394
:10069000B1F0809320010E9427278160782F9093EA
:1006A00022018093210140911E0150911F01609110
:1006B0002001809122010E94250581E00895809308
:1006C00025010E9427278160782F9093270180932E
:1006D00026014091230150912401609125018091D0
:1006E0002701E9CF813041F5662399F08093160107
:1006F0000E9427278160782F90931801809317011B
:1007000040911401509115016091160180911801DA
:10071000D2CF80931B010E9427278160782F90936E
:100720001D0180931C014091190150911A016091A3
:100730001B0180911D01BFCF823049F581E0662306
:1007400099F080930C010E9427278160782F909365
:100750000E0180930D0140910A0150910B016091AF
:100760000C0180910E01A7CF809311010E942727D1
:100770008160782F909313018093120140910F01B3
:1007800050911001609111018091130194CF833039
:1007900009F093CF81E0662399F0809302010E94D3
:1007A00027278160782F9093040180930301409163
:1007B00000015091010160910201809104017BCF01
:1007C000809307010E9427278160782F9093090169
:1007D0008093080140910501509106016091070145
:1007E0008091090168CF83E0089581E0089581E058
:1007F00008950E94F703089508950E94FC03089548
:10080000A5E0B0E0E6E0F4E00C946E2F49835A8353
:100810003091150289819A81311119C0662399F0AE
:10082000222389F00E942F0A182F682F89819A812C
:100830000E940B0A69817A81812F0E9416212596D8
:10084000E3E00C948A2F0E941D0A182FF3CF0E9418
:100850002F0A69817A81F1CFFC01262F40815181D5
:100860006281738184810E940004089581E008956B
:10087000CF93DF93EC0160E00E942C04BE010E9444
:10088000FD03DF91CF910895E1E0F0E0DF0102C0C8
:10089000AA0FBB1F6A95E2F7BD01DF0102C0AA0FD4
:1008A000BB1F4A95E2F76A2B01C0EE0F2A95EAF7C3
:1008B000962F9823961302C08E2B0895E0958E23D1
:1008C0000895242F462F682F80912B020E94440404
:1008D0000E946B0908950E942B1208950E942E1207
:1008E000089508950E94FD080E9471042FEF84E38B
:1008F0009CE0215080409040E1F700C00000089546
:100900000E9472040E948E2708950E9472040E9421
:100910009F2708950F931F93CF93DF938C0161E07E
:100920000E942C04EC01B8010E94951B811106C0A5
:1009300080E0DF91CF911F910F910895B801CE0112
:100940000E94F9038823A1F3B801CE010E945C2222
:10095000882371F3B801CE010E949C1C882341F3C7
:10096000B801CE010E94CE21882311F3F8018281C3
:10097000882361F0CA35FDE5DF0701F158F4C115A0
:10098000ECE5DE0791F0CE3DDC4591F0C8010E9418
:10099000F503CFCFCC358DE5D80769F090F0C73A95
:1009A000DD45A1F70E948504C3CF0E948004C0CF1B
:1009B0000E94E80EF7CF0E94220EE8CF0E942C0E74
:1009C000E5CF0E94300EE2CF0E94A4260E940305CC
:1009D0000E94731908950E9407050E94A926089590
:1009E00008950E94F004089581E008950E94F4049F
:1009F00008950895CF93C82F0E94F1048C2F0E9470
:100A0000F604CF91089580E00E94FA0408950E94B0
:100A1000CA250E94FA040895CF930E94CA25C82FC0
:100A2000809110028C1779F0C09310020E94332736
:100A30006093110270931202809313029093140238
:100A40008C2F0E94FA04CF910895ABE0B0E0EBE266
:100A5000F5E00C946F2F4F83588769877A878B87CF
:100A600061110E946D0D1E821D8285E0FE01379688
:100A7000DE01119601900D928A95E1F78C819D819E
:100A8000892B61F449815A816B817C818D819E81A2
:100A90000E94960C2B96E2E00C948B2F89819A8110
:100AA00089238F3F79F3CE0101960E94360481118C
:100AB000E9CFF0CFFC01808191810E945C0A08950A
:100AC000A6E0B0E0E6E6F5E00C946D2F082F162FB7
:100AD0000E94E11929834B835C836D837E8300230D
:100AE00069F0312B4981532F6B817C818D819E81EF
:100AF0000E94FC192696E4E00C94892F109531236E
:100B0000F1CFCF93C82F8823C9F08238C9F40E944F
:100B1000CA2581FD13C089E30E94250D0E948E0D18
:100B20002FEF87EE93E0215080409040E1F700C026
:100B3000000089E30E942D0D0E948E0DCF91089533
:100B40008338A1F40E94CA2580FDF8CF83E50E9476
:100B5000250D0E948E0D2FEF81EE94E021508040F4
:100B60009040E1F700C0000083E5E4CF8438A1F4B1
:100B70000E94CA2582FDE2CF87E40E94250D0E94D3
:100B80008E0D2FEF81EE94E0215080409040E1F7F0
:100B900000C0000087E4CECF8CEF8C0F813A90F438
:100BA0006C2F80912801909129010E94352688237D
:100BB00029F08C2F0E942D0D0E948E0D8C2F0E94EB
:100BC000250DBACF80E28C0F883048F4C77081E0E1
:100BD00001C0880FCA95EAF70E94500DADCFEBE532
:100BE000EC0FE33040F4F0E0E055FE4F808190E000
:100BF0000E94F725A3CFE8E5EC0FE73150F4F0E0D1
:100C0000EE0FFF1FEE57FE4F808191810E940D264F
:100C100095CFC03F08F492CF8C2F0E94E5160E941A
:100C2000B8178CCF882309F455C0823879F40E9414
:100C3000CA2581FF4FC089E30E94250D0E948E0DB9
:100C400089E30E942D0D0E948E0D0895833859F47A
:100C50000E94CA2580FF3EC083E50E94250D0E94A8
:100C60008E0D83E5EECF843859F40E94CA2582FFA9
:100C700031C087E40E94250D0E948E0D87E4E1CFEC
:100C80009CEF980F913AE8F290E2980F983050F468
:100C9000877091E001C0990F8A95EAF7892F0E9429
:100CA000560DD1CF9BE5980F933028F490E080E06B
:100CB0000E94F725089598E5980F973128F490E061
:100CC00080E00E940D260895803F20F00E943F178B
:100CD0000E94B81708951F93CF93DF93182FEB014D
:100CE0000E948105209739F4812F0E941206DF911E
:100CF000CF911F9108958FE99FE00197F1F700C010
:100D000000002197EFCF70E060E0893311F460E5D7
:100D100070E00E946B060895882321F00E94500D18
:100D20000E948E0D0895882321F00E94560D0E9486
:100D30008E0D0895B0E0A0E0E0EAF6E00C94682F94
:100D40006C01D62FC72FFC011281F580F2949FE031
:100D5000F9220E94460DE82E8823B9F0E12E1123D6
:100D6000A1F08C2F807F803421F080E28D0F8830BD
:100D7000D0F080910B0382FF16C082E00E94F10D3B
:100D80000E94460D91E0E82EE926BC2EB2948FE039
:100D9000B822FBE0FB1508F468C0EB2DF0E0E05151
:100DA000F04D0C94522FE12CF0CF0C2F0F70C07F20
:100DB00011F00295007F112399F0002359F080E291
:100DC0008D0F883010F0D11107C0802F0E94500D78
:100DD0000E948E0D8D2F41C0802F0E94600DF8CF94
:100DE0008D2F0E941206002309F43FC080E28D0F70
:100DF000883010F0D11104C0802F0E94560D03C01E
:100E0000802F0E94660D0E948E0D2FC00C2F0F7038
:100E1000C07FC03211F00295007FDD2381F0D13018
:100E200009F465C0112309F46FC0FF2009F465C0FF
:100E3000F601858180FFCECF8F7085835EC0809163
:100E40000B0382FD34C0112359F0002329F0802FB9
:100E50000E94500D0E948E0D80E00E94810505C009
:100E600080E00E9412060111C7CF2B2D2850330BB2
:100E70002430310520F40E94CA250E94FA04EE2095
:100E800089F00E94420D80FD0DC0F60112820E9481
:100E90003C0D0E947F09C6010E94BD080E943C0DC6
:100EA0000E948B09CDB7DEB7E9E00C94842F1123A3
:100EB00089F0F11006C00E94700D802B0E948C06F4
:100EC000D4CF21E0F212F7CF0E94700D802B0E9448
:100ED000770DCBCFF11006C00E94840D802F0E94A9
:100EE0009306C3CF31E0F31609F4BFCFF5CF11233A
:100EF00031F085E08F1508F4B8CF802FDFCF94E074
:100F00009F1508F4B2CFEACFFF2041F3D93349F45B
:100F1000FFEF27EE33E0F15020403040E1F700C012
:100F200000008D2F0E941206A0CF8C2F86958695EB
:100F3000837069F0813009F098CF8D2F9C2F9370CA
:100F4000111102C090E080E00E940D268ECF8D2FFF
:100F50009C2F9370111102C090E080E00E94F72551
:100F600084CF8D2F112391F00E94E516ED2FE45FC1
:100F7000FF0BE530F10568F461E070E001C0660F39
:100F8000EA95EAF7812F0E9460056FCF0E943F1714
:100F9000EDCF0E94B81769CF8C2F837079F51111AE
:100FA00064CF4D2F429546954770440F440F8D2FC7
:100FB0008F70042E01C0880F0A94EAF72D2F20713C
:100FC000D4FF07C02FE030E001C0220F4A95EAF7B6
:100FD0002095C695C695C370822BC23049F058F44F
:100FE000C13019F00E94590940CF0E9453093DCFEA
:100FF0000E945F093ACF0E94500937CF869511238E
:1010000011F08C2F8170882309F42FCF4D2F42953A
:1010100046954770440F440F8D2F8F70042E01C0EA
:10102000880F0A94EAF72D2F2071D4FF07C02FE014
:1010300030E001C0220F4A95EAF72095C695C69583
:10104000C370822BC23049F058F4C13019F00E94AD
:10105000AA090BCF0E94A40908CF0E94B00905CFAE
:101060000E946B0902CFCF70112329F08C2F0E94B0
:101070007F098D2F23CF8D2F0E9493068C2F0E94E6
:101080008B09F3CED23F51F160F4D03FB9F0D13F9C
:1010900081F0112309F449C0F1109CCE8C2F8F717F
:1010A00021C0D33F11F1D43FA1F780910B0382FD02
:1010B00026C08C2F8F71112311F314C0112349F016
:1010C000F4E0FF1508F4D1CE8C2F8F710E9498099F
:1010D000CCCE25E02F1508F4C8CEF6CF8C2F8F711B
:1010E0001111CDCF0E947F09C0CE112329F08C2F82
:1010F0008F710E947609B9CE0E947209B6CE112373
:1011000049F0CF718C2F0E947F0963E08C2F0E94E1
:10111000D30DABCE81E00E94F10D31E03F1508F018
:10112000A4CE82E00E94F10DA0CEFF2059F0D93369
:1011300009F0F7CE8FEF97EEE3E081509040E0406A
:10114000E1F7EDCE8C2F8F719ACF0F931F93CF9332
:10115000DF93EC01688179818A810E94670A8C01A2
:101160000E94B6090E944F09B801CE010E949A065A
:10117000DF91CF911F910F910895CF93DF93EC01F1
:101180008B819C81892B29F08881998189238F3FCC
:1011900051F4DF91CF910895CE010E94A508CE01B0
:1011A0000E943804F6CFCE010E948A048111F4CF48
:1011B0000E94460D882369F38A81882351F3809128
:1011C0000B0382FFE6CF82E00E94F10DE2CF90E0B8
:1011D00080E00E94F72590E080E00E940D260E94AA
:1011E0006D0D0E948E0D0E94D4170E94B8170895AD
:1011F0000E94350D0E94E70808950E945D0D0E942F
:10120000F808089592959F70963091F058F4925F87
:101210009F70923058F4803F19F030F4883E30F4DB
:1012200081E008959A5FF4CF843FD1F380E0089580
:10123000883EB0F3813FD1F7F3CFFC0183819481E5
:10124000892B29F08081918189238F3F11F480E0DF
:101250000895808191810E945C0A0E94020908958C
:10126000A5E0B0E0E6E3F9E00C946F2F2596E2E00C
:101270000C948B2FA6E0B0E0E0E4F9E00C946F2F23
:101280002696E2E00C948B2F08950E94440908955D
:101290000E94450980932C020E94E7080895089552
:1012A0000E944809089590912C02892B0E944809B8
:1012B000089590912C0289230E94480908959091E5
:1012C0002C0289270E94480908950E944409089524
:1012D0000E94650908950E94680980932B020E946C
:1012E000E708089580E00E946B09089591E001C02D
:1012F000990F8A95EAF7892F0E946B09089521E0DA
:1013000030E001C0220F8A95EAF780912B02822BF0
:101310000E946B09089521E030E001C0220F8A95F8
:10132000EAF7209580912B0282230E946B09089591
:1013300021E030E001C0220F8A95EAF780912B026C
:1013400082270E946B09089590912B02892B0E949D
:101350006B09089590912B0289230E946B090895CF
:1013600090912B0289270E946B0908950895262FDA
:10137000277091E001C0990F2A95EAF723E076954E
:1013800067952A95E1F7FB01EE0FFF1FE60FF71FA8
:10139000E40FF51F50E040E0682F70E08191DF011D
:1013A00011979B01042E02C0369527950A94E2F707
:1013B000217021952827292328272C934F5F5F4FE1
:1013C0004330510559F70895A82FA77023E096954B
:1013D00087952A95E1F7FC01EE0FFF1FE80FF91F33
:1013E000E60FF71F50E040E080E0219130E00A2E48
:1013F00002C0369527950A94E2F721703327042E10
:1014000001C0220F0A94EAF7822B4F5F5F4F4330EF
:10141000510559F70895262F9A3070F4853060F4FD
:10142000682F70E085E0989F600D711D112446E1E2
:1014300052E0822F0E94B7090895292F9A3068F44C
:10144000853058F490E066E172E035E0239F800D2E
:10145000911D11240E94E409089580E00895CF921F
:10146000DF92FF920F931F93CF93DF936C01009154
:101470002B0280912C02082BC7E0D0E010E0FC2E5C
:10148000C8010C2E02C0959587950A94E2F780FD5D
:101490000CC02197A0F7F12C8F2DDF91CF911F91D8
:1014A0000F91FF90DF90CF900895B6018C2F0E948E
:1014B000C910019771F3F0CFCF93DF93EC010E9435
:1014C0002F0ABE010E94C910DF91CF9108951F938A
:1014D000CF93DF93EB0190911502992339F0CB0163
:1014E0000E945C0ADF91CF911F910895882369F0D3
:1014F000CB010E942F0A182F682FCE010E940B0AE1
:10150000BE01812F0E94C910EDCFCB010E941D0AA0
:10151000182FF6CF1F93CF93DF93C0912D0216E0C3
:1015200080912E028C1304C0DF91CF911F910895FA
:10153000D0E01C9FF0011D9FF00D1124E15DFD4FD7
:101540004081518162817381848195810E943A0931
:101550002196C770E5CF40915F0250916002609183
:1015600061027091620280916302909164020E9414
:101570003A0908951F93CF93DF9380916402807F8F
:1015800009F049C080916102882309F444C0809128
:101590002D02C0912E0260915F0270916002A091B5
:1015A0006202B0916302D62FD72316E0C81799F1D3
:1015B00090E0109711F0DF3F19F401968770F6CF95
:1015C000189F9001199F300D1124F901E15DFD4F25
:1015D00041814713F2CF40814613EFCF4281411141
:1015E000ECCF438154814A1B5B0B483C510528F7E3
:1015F000809164028F70806180936402F901EC5CD9
:10160000FD4F80818F70806180838FE592E00E9422
:10161000BD080E948A0ADF91CF911F910895A1E130
:10162000B0E0E5E1FBE00C94672F8C0185E0F80168
:10163000DE011D9601900D928A95E1F7F801E28096
:101640008FE5C82E82E0D82E60916202709163020D
:101650006115710509F44EC190915F0220916002FD
:10166000892F82238F3F09F445C140815181A38096
:10167000B480F0906102F501E61BF70BFF2009F43E
:10168000EAC080916402382F307FE83CF10508F011
:10169000A3C031116DC0FE2C251316C0941314C0C5
:1016A000E11012C08F708061809364020E94AB0AC7
:1016B000C6010E94BD0880916402F80185838F2DC8
:1016C0006196EAE00C94832FA114B10429F0842FD1
:1016D00085238F3F09F027C180E0F82FF170DF2EBE
:1016E00080FF3CC080912D0220912E0236E08213B3
:1016F00015C04D875E878D859E850E945C0A292FC7
:1017000022952F702230F0F0243018F59F70F1F000
:10171000F8019581907FD1F4D12C1EC090E0389FC4
:10172000F001399FF00D1124E15DFD4F61816513DA
:1017300006C06081641303C06281E6120FC0019687
:101740008770D5CF9F7011F0882331F3805E883089
:1017500018F3C8010E94BD08FD2CB1CFEE2009F49A
:10176000AECF80916402816080936402F12CA7CF98
:10177000251306C0941304C0F801EE2009F487C0B5
:10178000C8010E941D09882319F1EE2009F18091FA
:101790006402803270F020915F02309160023887DD
:1017A0002F831986BB86AA868C87CE0107960E9456
:1017B000BD0886E0F801AFE5B2E001900D928A9590
:1017C000E1F70E94BA0A0E94AB0AFF24F39477CF94
:1017D000C8010E94BD08F9CF311113C07A2DB98A12
:1017E000A88A6E2D89890E9430098FE592E00E94B7
:1017F000BD0886E0F60111928A95E9F70E94AB0ACE
:10180000B5CF25130FC094130DC0E1100BC0F80124
:101810008583C8010E94BD0886E0F60111928A9571
:10182000E9F74DCFC8010E941D09882389F2EE20F7
:1018300079F280916402803208F4BBCF20915F027C
:10184000309160023A8329831B82BD82AC828E83F1
:10185000CE010196ACCFE83CF10508F03EC0FE2C6D
:10186000EE2009F4B5CF25132AC0941328C0809127
:10187000640280FD1BC0982F907FC1F0F801858322
:10188000903F31F0982F907F905F8F70892B8583E8
:10189000C8010E94BD0886E0F801AFE5B2E0019002
:1018A0000D928A95E1F70E94AB0A09CF86E0F80114
:1018B000AFE5B2E001900D928A95E1F700CFC80143
:1018C0000E941D09811175CF80916402816080930F
:1018D0006402C8010E94BD08F2CE7A2DB98AA88A96
:1018E0006E2D89890E94300986E0F60111928A9551
:1018F000E9F7D9CFEE2009F46BCFC8010E941D098A
:10190000F82E882309F464CF86E0F801AFE5B2E051
:1019100001900D928A95E1F78FE592E00E945A05B9
:101920000E94BA0AC0CF81E08E25D7CEACE0B0E0ED
:10193000ECE9FCE00C946E2F4F83588769877A8717
:101940008B879C87CE0107960E940F0B882369F036
:101950008A859B85892B39F04F815885842F852373
:101960008F3F09F06BC016E05FC086E0FE0137963E
:10197000DE01119601900D928A95E1F78A859B858B
:10198000892B89F38F81988589238F3F61F320917B
:101990002E0230E0C90101968770992740912D02EF
:1019A0004817190671F40E94FD0810922E02109239
:1019B0002D0286E0EFE5F2E0DF011D928A95E9F75E
:1019C000D2CF96E0929FD001939FB00D1124A15DDC
:1019D000BD4FFE01319601900D929A95E1F78093EB
:1019E0002E020E948A0ABFCF819FC0011124815D0F
:1019F0009D4F0E940F0B8823E9F0E0912D021E9F5E
:101A0000F0011124E15DFD4F4081518162817381BC
:101A1000848195810E943A0980912D0290E001967F
:101A20008770992780932D0280912D0290912E022C
:101A30008913DACF2C96E3E00C948A2F69857A8596
:101A40008B859C850E943A098ECF682F8091280152
:101A5000909129010E946B260895682F809128019A
:101A6000909129010E946E260895809128019091FD
:101A700029010E947126089580916D0285958595B2
:101A80008595089580916D028770089590916D02FB
:101A9000977081E009F480E00895809178020895BC
:101AA00090917802892B8093780208958095909187
:101AB00078029823909378020895109278020895FE
:101AC00090917702892B8093770208958095909169
:101AD00077029823909377020895109277020895E1
:101AE00080916E02089508950E94730D089590915B
:101AF0000B0392FF08C090916E02981721F080931B
:101B00006E020E94740D089580916E02882329F060
:101B100010926E0280E00E94740D0895CF93DF93BF
:101B2000E0912801F0912901809178028083E09171
:101B30002801F0912901808190917702892B80837F
:101B400090916E02992381F0E0912801F091290192
:101B50008081892B808380912801909129010E94A6
:101B6000232681110E94840DC0912801D091290162
:101B700048E050E065E672E0CE010E94962F892B86
:101B800059F088E0FE01A5E6B2E001900D928A9539
:101B9000E1F7CE010E94DE25DF91CF9108950895EF
:101BA0000E94CF0D089590910B0392FF11C098E011
:101BB000899F90011124622B60936D020E947F091E
:101BC00080916D028595859585950E94D00D08952B
:101BD0000E947F09089510926D0280E00E94D00D4E
:101BE000089590916D028095892380936D02282F2E
:101BF000277091F4282F082E000C330B9217130630
:101C000059F090910B0392FF07C0859585958595B6
:101C10000E948B090E94EB0D089590910B0392FB9B
:101C2000222720F9281769F080FB92F990930B0383
:101C300080910A0390910B030E945F0E82E00E9444
:101C4000F10D089580910B0382FB882780F991E0C4
:101C500089270E940D0E089581E00E940D0E0895BF
:101C600080E00E940D0E08956FEF7FEF90E080E01E
:101C70000E94D82F089590E080E00E94B42F883E03
:101C80009E4F19F40E94301B089580E0089582E071
:101C900090E00E94AC2F089583E090E00E94AC2F6A
:101CA0000895CF9384E090E00E94AC2FC82F82E289
:101CB00090E00E94AC2F982F8C2FCF910895CF9356
:101CC000C92F682F84E090E00E94BA2F6C2F82E227
:101CD00090E00E94BA2FCF910895AB01BC018FE034
:101CE00090E00E94CC2F0895AB01BC0183E190E00D
:101CF0000E94CC2F089560E070E0CB010E94740E2A
:101D0000089560E070E0CB010E946D0E0E947B0E92
:101D1000089568EE7EEF90E080E00E94D82F60E0AA
:101D200082E090E00E94BA2F60E083E090E00E94A1
:101D3000BA2F10922C0260E084E090E00E94BA2F4B
:101D400064E082E290E00E94BA2F60E085E090E0DB
:101D50000E94BA2F60E086E090E00E94BA2F6FEFF9
:101D600087E090E00E94BA2F40E050E0BA0188E09E
:101D700090E00E94CC2F60E08DE090E00E94BA2FAE
:101D800040E050E0BA0188E190E00E94CC2F60E092
:101D900087E190E00E94BA2F40E050E0BA018CE168
:101DA00090E00E94CC2F70E060E080E290E00E9422
:101DB000D82F40E050E0BA0188E190E00E94CC2F9B
:101DC00080E00E94491B0E94781B0E94810E0895AA
:101DD0000E94890E0895682F8EE090E00E94BA2F2D
:101DE00008950E94332760938D0270938E02809332
:101DF0008F02909390026093890270938A0280937D
:101E00008B0290938C0208950E94332760938D0279
:101E100070938E0280938F0290939002609385025C
:101E200070938602809387029093880208950895A4
:101E300008950E94180F089508950E941C0F089598
:101E400083EF91E10E94C0250E94170F0E94190F95
:101E500008950E9416140895089508950E942C0F65
:101E60000E942D0F08950E940F120E94F9040895F8
:101E70000E941E270E94B3110E94881B0E943114E9
:101E80000E9438130E94330F0E94841C0E94D71EA8
:101E90000E943B140E944B190E941D0F0895AAE056
:101EA000B0E0E5E5FFE00C94672F0E9496138BE706
:101EB000A82E82E0B82E750110E0F70101917F0194
:101EC000812F0E9431121F5F1A3009F440C0081799
:101ED000A1F38091910281FD0E9437120E94290F87
:101EE000C82E10E0812F0E943112082FF501819138
:101EF0005F01081731F1D02ED826F12CEE24E3949F
:101F00008D2D8E21B1F0CC20A1F0FE821F8391E0B7
:101F1000802F8E2109F490E098870E942727816006
:101F2000782F9A8789874E815F8168858A850E948C
:101F30002505F394EE0CF5E0FF12E2CFF5013197A1
:101F400000831F5F1A3071F60E94F10E20C0081343
:101F5000C0CF0E9427278C018091790290917A024C
:101F600008171907A1F08FEF89838A831B820E94CB
:101F700027278160782F9D838C8349815A816B81CB
:101F80008D810E94250510937A02009379020E94A8
:101F900016140E946C1F81110E94040F0E941118D8
:101FA0000E9473190E940C052A96EAE00C94832F74
:101FB000CF93DF930E94CE10EC01811521E59207AB
:101FC00008F042C0811530E5930708F09FC0883EB5
:101FD000910530F5803E910508F094C0883A91054E
:101FE00088F4853A910508F086C08130910509F49E
:101FF00089C0009709F486C0049708F083C0D0E038
:10200000C0E080C08F3B9105D0F7C85AD0E0CC0F1C
:10201000DD1FCD54DE4F0990D881C02DD46472C02D
:10202000811540E2940750F4C11581E0D80708F00B
:1020300069C0C03FD10518F3D06564C081159044D4
:10204000F0F2DF70D06A5EC0811535E5930718F5B0
:10205000811544E5940708F085C0C11583E5D807CC
:1020600008F06CC0C11522E5D20708F462C0CE01A9
:102070008370992721E030E002C0220F331F8A9538
:10208000E2F7C695C69580E2C89FE0011124C22BF5
:10209000D32BDC6837C0811539E59307A8F4811587
:1020A00048E5940708F063C0C11586E5D80708F035
:1020B000A6CF8C2F0E947011C82FD0E0DC2FCC2728
:1020C000CC27DF71D0621EC081152AE5920708F483
:1020D00053C090568115904208F091CF8D2F8F718B
:1020E0000E94701190E0982F882788279F719C018B
:1020F0002C2BE901E7CFC55AD0E0CF51DE4FC88184
:10210000D0E0D064CE01DF91CF91089583709927FC
:1021100021E030E002C0220F331F8A95E2F7C69516
:10212000C69540E2C49FE0011124C22BD32BDD6889
:10213000E9CFDC2FCC27C16FD06AE4CFCE0183700A
:10214000992721E030E002C0220F331F8A95E2F781
:10215000C695C69540E2C49FE0011124C22BD32B43
:10216000DA68D0CFD82FCC27C46FD06ACBCFD82F86
:10217000CC27C06FD06AC6CF8F700E94701134E038
:10218000D695C7953A95E1F7CF709C2FEC01D069B1
:10219000B9CF0E9416210E94D80F08958238910568
:1021A000B9F1B0F48133910509F47DC048F4893266
:1021B000910509F46DC08A32910509F47BC0089538
:1021C0008533910509F45FC08933910509F10895BC
:1021D000833E9105D9F138F4803E910529F1823E84
:1021E000910579F10895863E9105D9F1873E9105D3
:1021F00009F43EC0843E910541F520910B0321FF77
:1022000024C080910A0384FD19C087EE90E00895F0
:1022100020910A03237009F05AC020910B0323FF79
:1022200014C089E290E0089520910A0320FD38C08F
:1022300030910B0330FF09C024FF43C090E080E0E1
:10224000089520910A0322FDF7CF089520910A03F3
:1022500022FD3AC030910B0330FD39C024FFF5CF89
:10226000EDCF20910A0323FFF0CF24FDE7CFCDCFA0
:1022700020910A0323FD2EC030910B0331FFEECFD6
:1022800084EE90E0089520910A0325FFDECFC9CFA8
:1022900020910A0325FD21C020910B0323FFD5CFF8
:1022A00089E390E0D2CF20910A0326FFCECF8AE2C5
:1022B00090E0089520910A0326FFC7CF81E390E0C4
:1022C000089583EE90E0089582EE90E0089580EE08
:1022D00090E0089586EE90E0089585E390E00895FB
:1022E00090910A0392FF06C0282F28712830F9F434
:1022F000877F846093FF06C0282F28712831F1F46E
:10230000877E846120910B0320FF06C0382F38712F
:102310003830D9F4877F816021FF06C0282F2871CB
:102320002831D1F4877E816194FD877E0895282F1E
:1023300024712430F9F68B7F8860DCCF282F24713C
:10234000243101F78B7E8861DDCF382F3171313038
:1023500019F78E7F8860E0CF282F2171213121F776
:102360008E7E8861E1CF10920603109207031092CF
:102370000803109209030895CF92DF92EF92FF9223
:102380006B017C010E94161481110EC00E9433273C
:10239000C61AD70AE80AF90AC0920603D0920703C0
:1023A000E0920803F0920903FF90EF90DF90CF9046
:1023B00008950F931F930E941614882329F00E94FA
:1023C00033271F910F9108950E9433270091060330
:1023D000109107032091080330910903600F711FCA
:1023E000821F931FEECF80E008950E94340E08955F
:1023F0000E9496138FE39CE90197F1F700C000005B
:102400000E94961380E00E94311280FF04C00E9457
:10241000F5110E948E2708950E94F81108950E94D8
:102420003B0E811102C00E94E80E0E94470E80936D
:1024300091020E94510E90930B0380930A030E9415
:102440000C120E944C0E0E94500980912B020E9497
:102450006809089508950E942A1208950E9433027F
:102460000895E82FF0E0E95EFC4F8081089508951B
:1024700080EA8A95F1F7089500C008950E94381205
:10248000089508950E9441120895A5E0B0E0EBE49C
:10249000F2E10C946B2F0E941614F82E6091210328
:1024A000882309F440C085E0E82E8E010F5F1F4F9E
:1024B000F8018E2D11928A95E9F7862F90E0B801E8
:1024C000895E9C4F0E9449148823B9F080910C03C7
:1024D00090E045E050E0B801895E9C4F0E94962F45
:1024E00021E020939202892B91F4F12C0E946E043A
:1024F0008F2D2596E6E00C94872F809192028823F9
:10250000A1F3F8011192EA94E9F710929202A091D6
:102510000C03B0E0A95EBC4F85E0F80101900D927C
:102520008A95E1F7E3CF70E0695E7C4F80910C0300
:1025300090E0895E9C4F0E94D0140E944212D8CF36
:10254000F894E82FE295EF70F0E031A1282F2F707A
:1025500081E090E001C0880F2A95EAF7982F9095C6
:10256000932391A392A1892B82A378940895CF936A
:10257000DF93CAE2D1E089918F3F11F00E94A0124F
:1025800081E0CF32D807B9F7CFE2D1E089918F3F10
:1025900011F00E94A01281E0C433D807B9F7DF918F
:1025A000CF910895B0E0A0E0E8EDF2E10C94692F3E
:1025B0007C01162F042FC62FD0E0C65DDE4F288188
:1025C0002F3F09F44CC0F894E22FE295EF70F0E051
:1025D00031A12F7081E090E001C0880F2A95EAF7C1
:1025E000932F982B91A392A18095892382A378940D
:1025F0000E943C128FE2C82E81E0D82EF701A7017D
:102600004B5F5F4FF12CE02EE094D6019D916D0160
:1026100081919F01215031099F3F31F1692F6295CE
:102620006F7070E0DB0190966C9170E09F7002C05B
:10263000759567959A95E2F760FD16C0802BD901D4
:102640008C93FF24F394E417F507F9F688818F3F04
:1026500011F00E94A0126F2D812F0E943E12CDB763
:10266000DEB7E8E00C94852F8E21D9018C93EBCF57
:10267000AAE0B0E0EEE3F3E10C946F2F8091340117
:10268000811130C085E0E8E7F1E0DE0116960190A7
:102690000D928A95E1F78E8180932F018F8180932F
:1026A00030018885809331018985809332018A8544
:1026B0008093330185E0EDE7F1E0DE0111960190B2
:1026C0000D928A95E1F7898180932A018A8180930E
:1026D0002B018B8180932C018C8180932D018D8126
:1026E00080932E018091340195E0811190E09093C8
:1026F000210385E0891B80930C030E94B7128AE0B6
:10270000E7E1F3E0DF01982F1D929A95E9F7EDE0FC
:10271000F3E0DF011D928A95E9F785E00E94D81366
:102720000E946B042A96E2E00C948B2FAAE0B0E0A2
:10273000ECE9F3E10C946B2F8E010F5F1F4F8AE0E1
:10274000F80111928A95E9F7F12CEE24E3944E2DCD
:102750006F2DC8010E94D212F394EE0CF5E0FF1227
:10276000F6CF4AE050E0B8018DE093E00E94962F4A
:1027700021E0009709F420E0892B41F08AE0F8017C
:10278000ADE0B3E001900D928A95E1F760912103ED
:1027900070E0695E7C4F45E08DE093E00E94D913C4
:1027A000182F0E944512812B2A96E6E00C94872F61
:1027B0000895CF92DF92EF92FF920F931F93CF93E2
:1027C0006C017B01042F222349F081E08093950264
:1027D0000E9427279093940280939302C0919502C0
:1027E000C1110AC0C0E08C2FCF911F910F91FF90B3
:1027F000EF90DF90CF900895809193029091940292
:102800000E943F27059770F310E0A801B601C701A9
:102810000E94962F892B41F0A801B601C7010E94A2
:10282000A32F10929502DFCFC0E0FBCF80919802DA
:10283000811107C00E941D2F882351F081E08093F1
:10284000980281E090919802913009F080E008951B
:1028500082E0809398020E94182FF3CF0E941614F2
:1028600008950E942E14809334010E941614811141
:102870000E947F1408950E941614811102C00E94C4
:102880008214089581E0909199029A3008F080E0D6
:1028900008950F931F93CF93DF93EC018B018091E9
:1028A00099028A30B8F4B801CE010E94CD14C82F25
:1028B000811122C0809199028F3FB9F40E9427278D
:1028C00090939702809396028C2FDF91CF911F9166
:1028D0000F91089580919602909197020E943F2750
:1028E000843F914000F7C0E0EFCF8F5F8093990263
:1028F0008A3020F7C1E0E8CF10929902E5CF0E941C
:102900005E2408950E9461240895B0E0A0E0EBE801
:10291000F4E10C946A2F7901C82F880FDD0B411563
:102920005105A9F0FE0193E0EE0FFF1F9A95E1F724
:10293000EB5CFE4F8181928186569D4F208130E075
:102940004217530708F49A01A9010E94A32FCE0150
:102950000E944A25D82E8823D1F001151105B9F01F
:1029600083E0CC0FDD1F8A95E1F7FE01EB5CFE4FA3
:10297000438150E00417150708F4A801CB5CDE4F33
:102980006C817D8166567D4FC7010E94A32F8D2DDE
:10299000CDB7DEB7E7E00C94862F0E94E9150895C5
:1029A0000E940A160895A4E0B0E0E9EDF4E10C9469
:1029B0006D2F6091B8027091B9028091BA02909126
:1029C000BB020E944E2711E0643671058105910516
:1029D00018F10E94D9116E5F7F4F8F4F9F4F69830F
:1029E0007A838B839C8310E000E030E020E044E0B9
:1029F00050E0BE016F5F7F4F84E00E948514182F66
:102A0000882351F00E9433276093B8027093B90273
:102A10008093BA029093BB02812F2496E4E00C9439
:102A2000892FA1E0B0E0E7E1F5E10C94642F762E68
:102A30004A015901680101E010E09E012F5F3F4FFC
:102A400050E040E070E060E00E948514182F882379
:102A500099F1F40160817181828193810E944E27F6
:102A6000643671058105910500F18701950150E0FB
:102A700040E070E060E0872D0E948514B82EB70119
:102A8000C6010E94851C11E09981981310E01B215A
:102A900039F00E943327F40160837183828393832A
:102AA000812F2196EDE00C94802FB701C6010E9482
:102AB000851C99818913D9CFA701B601C5010E9450
:102AC000A32FEECFA2E0B0E0E8E6F5E10C946B2F87
:102AD0000091E4011091E501095F1F4F82E0E82EAB
:102AE000F12C9E012F5F3F4F44EB52E063E082E008
:102AF0000E941115182F882321F0CE0101960E9403
:102B0000FC1F812F2296E6E00C94872FA5E0B0E011
:102B1000ECE8F5E10C94692F6B010091E401109150
:102B2000E5010F5F1F4F85E0E82EF12C9E012F5F1E
:102B30003F4F40EB52E061E080E00E941115882396
:102B400049F095E0FE013196ABEAB2E001900D92BA
:102B50009A95E1F795E0EBEAF2E0D60101900D924B
:102B60009A95E1F72596E8E00C94852FB0E0A0E077
:102B7000ECEBF5E10C94672F7C015B016A010E948C
:102B8000421401E010E0882311F00AE010E0C1E0F7
:102B9000D0E0B501C701F6010995811104C0219665
:102BA0000C171D072CF4CDB7DEB7EAE00C94832F89
:102BB000CC9F9001CD9F300D300D112490E080E02E
:102BC00045E34A95F1F70000019682179307C1F794
:102BD000E0CF0F931F93CF93DF93EC018B0146E877
:102BE00055E10E94B615811106C080E0DF91CF91BA
:102BF0001F910F91089542E655E1B801CE010E9460
:102C0000B615882391F343ED54E1B801CE010E943B
:102C1000B615ECCFA2E0B0E0E0E1F6E10C946D2F48
:102C20000091E4011091E501C801019625E0FB0146
:102C3000DC0101900D922A95E1F765E070E00E94B9
:102C4000851CF8018083CE0101960E94F11F8981C5
:102C50009A81F8019087878362E070E0CE01019647
:102C60000E94851CF8018683618572858385948521
:102C70000091A7021091A8022091A9023091AA0206
:102C8000601771078207930751F06093A702709352
:102C9000A8028093A9029093AA020E94BC112296D6
:102CA000E4E00C94892F0E9477290E94380F0E943B
:102CB000842908950E9489290E944F0F0E94A32908
:102CC00008950E94C0260E945D290E94200F0E9444
:102CD00053160E945A160E942E0FFBCF8091C202FB
:102CE00080FF0DC06091620170E0660F771F603851
:102CF000710570F56115710569F1862F089581FFE1
:102D000007C06091620184E0689FB0011124EFCF99
:102D10006091620182FD0AC08091C1028823A9F0FE
:102D20002091610160916201821710F088E0ECCF80
:102D3000869FC001112433E0880F991F3A95E1F76F
:102D4000622F70E00E943E2FD2CF68E070E0D5CFB6
:102D50008FE7089581E008958091C20280FF0CC042
:102D600060915E0170E07595679575956795611541
:102D7000710549F1862F089581FF06C060915E01BB
:102D800070E075956795F3CF60915E0182FD0BC091
:102D90009091C0029923A1F060915D0180915E0144
:102DA000961738F0682F70E06038710500F38FE7F0
:102DB0000895899FC001112470E00E943E2FF4CF36
:102DC00061E070E0D7CF81E00895803F31F40E9448
:102DD0006E1681958093C6020895813F19F40E9472
:102DE0006E16F8CF823F31F40E946E168195809363
:102DF000C5020895833F19F40E946E16F8CF893FEB
:102E000029F40E94AC168093C70208958A3F21F4EA
:102E10000E94AC168195F7CF8B3F31F40E94AC161F
:102E200081958093C80208958C3F19F40E94AC16D6
:102E3000F8CF9CE0980F953070F4845F990B21E0F7
:102E400030E001C0220F8A95EAF78091C402822BFC
:102E50008093C40208958D3F31F48091C202816055
:102E60008093C20208958E3F21F48091C202826055
:102E7000F7CF8F3FB9F78091C2028460F1CF4091C4
:102E8000C502803F59F48091C60287FF0DC01092A1
:102E9000C60241110BC01092C10208C0813F81F4EB
:102EA0008091C60218169CF3442381F08091C702DA
:102EB0009091C802892B09F05AC01092C00208955F
:102EC000823F49F447FFF0CF1092C5028091C602BD
:102ED0008111ECCFE0CF833F19F41416ACF3E4CFAB
:102EE0009091C702893F29F41916F4F61092C7028F
:102EF000DBCF8A3F19F497FFD7CFF8CF9091C80264
:102F00008B3F29F497FFD0CF1092C802CDCF8C3FD2
:102F100019F41916CCF3C8CF9CE0980F953090F4B3
:102F2000845F990B21E030E0B90102C0660F771F82
:102F30008A95E2F7CB0180959091C4028923809312
:102F4000C402B2CF8D3F31F48091C2028E7F809354
:102F5000C202AACF8E3F21F48091C2028D7FF7CFAB
:102F60008F3F09F0A1CF8091C2028B7FF0CF0895EF
:102F70000E9427279C019091C5028091C602982B40
:102F800021F03093BF022093BE029091C70280913E
:102F9000C802982B21F03093BD022093BC0283EC31
:102FA00092E00E94E925089586E0E3ECF2E0DF017B
:102FB0001D928A95E9F71092C1021092C0021092F8
:102FC000C2020895A6E0B0E0E8EEF7E10C946F2F9E
:102FD00086E0E3ECF2E0DE01119601900D928A9515
:102FE000E1F729813A814B815C816D817E8180E0AE
:102FF00090E02696E2E00C948B2FFC0182818111F7
:103000000EC0838181110BC08481811108C091E0C1
:103010008581811101C090E0892F8170089581E040
:10302000FCCFA6E0B0E0E7E1F8E10C946E2F86E07B
:10303000E3ECF2E0DE01119601900D928A95E1F742
:103040001092C5021092C6021092C7021092C802D6
:103050008B819C81892B89F08091BE029091BF0267
:103060000E943F27AC019091C1029923C9F1809140
:1030700063018417150608F440C08D819E81892B59
:1030800091F08091BC029091BD020E943F27AC015B
:103090009091C002992309F471C080915F01841757
:1030A000150608F479C0BE016F5F7F4F83EC92E094
:1030B0000E947826811105C083EC92E00E94FD17E2
:1030C00081110E94B81786E0FE013196A3ECB2E0B0
:1030D00001900D928A95E1F72696E3E00C948A2FF1
:1030E000209164018AE0289F90011124241735075C
:1030F00020F69F5F9093C10202C09F3FD1F71B81D2
:10310000112359F00E946E169FEF11160CF491E0F6
:10311000899F802D11248093C5021C81112359F0B1
:103120000E946E169FEF11160CF491E0899F802D7E
:1031300011248093C6023091C502332309F49DCF38
:103140002091C602222309F498CF45EB3403C00135
:103150001124992359F09093C50245EB2403900163
:103160001124332339F03093C60287CF81E0809356
:10317000C502F3CF81E08093C6027FCF209160012A
:103180008AE0289F900111242417350708F08BCF7F
:103190009F5F9093C00202C09F3FD1F71D81112312
:1031A00059F00E94AC169FEF11160CF491E0899F24
:1031B000802D11248093C7021E81112359F00E9493
:1031C000AC169FEF11160CF491E0899F802D11240D
:1031D0008093C8023091C702332309F464CF209151
:1031E000C802222309F45FCF45EB3403C001112448
:1031F000992359F09093C70245EB240390011124C1
:10320000332339F03093C8024ECF81E08093C70258
:10321000F3CF81E08093C80246CF08950895ACE0D3
:10322000B0E0E5E1F9E10C946F2F4F83588769878F
:103230007A878B879C8786E0FE013796DE011196A0
:1032400001900D928A95E1F729813A814B815C8149
:103250006D817E8180E090E02C96E2E00C948B2FD3
:10326000ACE0B0E0E6E3F9E10C946F2F0E940F1997
:1032700080E090E02C96E2E00C948B2F21E030E08F
:1032800001C0220F4A95EAF7662311F0822B0895B8
:10329000209582230895E091E601F091E7010995D8
:1032A0000E940D190E940E19089569EC72E08FECCE
:1032B00092E00E947826882321F08FEC92E00E9411
:1032C000E9251092D1021092D2021092D3021092EC
:1032D000D40286E0EFECF2E0A9ECB2E001900D92AE
:1032E0008A95E1F70895A2E1B0E0E9E7F9E10C94ED
:1032F0006F2FE091E801F091E9014091CF025091E8
:10330000D0026091D1027091D2028091D30290914B
:10331000D40209952093CF023093D0024093D1027A
:103320005093D2026093D3027093D40286E0EFEC04
:10333000F2E0DE011D9601900D928A95E1F786E09C
:10334000FE013D96DE01119601900D928A95E1F7FE
:1033500086E0FE013196DE01179601900D928A9566
:10336000E1F786E0FE013796AFECB2E001900D92F6
:103370008A95E1F74091CF025091D0026091D1023D
:103380007091D2028091D3029091D4020E943019A0
:103390002093CF023093D0024093D1025093D202B7
:1033A0006093D3027093D4020E94E217EFECF2E034
:1033B0008181832B81830E9455196296E2E00C94EF
:1033C0008B2FA6E0B0E0E7EEF9E10C946F2F86E0DA
:1033D000EFECF2E0DE01119601900D928A95E1F793
:1033E00029813A814B815C816D817E8180E090E012
:1033F0002696E2E00C948B2FA6E0B0E0E2E0FAE142
:103400000C946F2F49835A836B837C838D839E83B7
:1034100086E0FE013196AFECB2E001900D928A9504
:10342000E1F72696E2E00C948B2FFC01208131819C
:103430002038310534F02F573109318320838FE74D
:10344000089520388FEF380734F421583F4F3183E7
:10345000208380E80895822F118210820895A1E1CF
:10346000B0E0E5E3FAE10C946C2F4C87888B998BE4
:10347000152FF62E072FCE01079625E0FC0111929D
:103480002A95E9F72091DB022A3008F03FC00E941C
:10349000F31A892B09F060C01092DB028B8540E0A3
:1034A00087FD52C060E0812F0E943E19182F809145
:1034B000D9029091DA02009709F040C045E06F818F
:1034C00088850E940A1B2091D7023091D802820F72
:1034D000931F9093D8028093D70245E069858A852F
:1034E0000E940A1B2091D5023091D602820F931FB1
:1034F0009093D6028093D50287ED92E00E94151A30
:10350000F82E85ED92E00E94151A082F1D87FE8681
:103510000F8786E0FE013C96DE01119601900D9228
:103520008A95E1F729813A814B815C816D817E81A9
:1035300080E090E06196E5E00C94882F01979093ED
:10354000DA028093D902E2CF61E0812F0E943E1916
:10355000182F84E190E0F3CF8091DB028F5F80939E
:10356000DB02D4CF80916501909166012DE7AC011B
:10357000249FC001259F900D112408959C01893F2F
:10358000910538F481E090E09093660180936501A5
:103590000895EDE7F0E0BF010E942A2FA901481B22
:1035A000590BCA01BF010E942A2F709366016093D4
:1035B00065010895A4E0B0E0E0EEFAE10C946D2F0F
:1035C00089836A834B832C8304E610E024E030E097
:1035D000AE014F5F5F4F60E084E10E949423249628
:1035E000E4E00C94892F0F931F9304E610E025E08C
:1035F00030E0AC0164E084E10E94BB231F910F9195
:1036000008950E94AE2220E040E060E080E00E9449
:10361000DA1A0895681708F5861B682F21E0469F7F
:10362000A0011124649FF001659FF00D11244091C9
:10363000650150916601E49FC001E59F900DF49FE4
:10364000900D1124880F892F881F990B91952223A3
:1036500019F09195819591090895681B20E0DFCFBD
:1036600083E290E00E94AC2F823289F484E290E001
:103670000E94AC2F803159F485E290E00E94AC2F7B
:1036800091E0813009F090E0892F8170089580E009
:10369000FCCFCF93C82F6FEF811162E283E290E0FD
:1036A0000E94BA2F6FEFC11160E184E290E00E94A6
:1036B000BA2F6FEFC11161E085E290E00E94BA2F4E
:1036C000CF910895089586E290E00E94AC2F682F74
:1036D00070E090E080E008950895CF93C62F0E9497
:1036E0006C1B6C2F86E290E00E94BA2FCF91089558
:1036F00080E00E94491B60E070E0CB010E946D1BDE
:103700000E9490200E94732181E00E94491B08952D
:103710000E94621B0E94631B0E946C1B0E94301B54
:10372000811102C00E94781B0895CF93FB01C281D2
:10373000CC2309F19C0122513F452031310520F570
:1037400082510E948321C0E08C2FCF91089581E0A7
:103750000E947F0943E062E081E00E946104F3CFB0
:1037600081E00E948B0943E062E081E00E946104F5
:10377000EBCF82E0F6CF8031FFE59F0789F38131FF
:103780009F45B9F3C1E0E0CF8031EFE59E07F9F244
:1037900081319F45C9F682E0DBCF2FEFFC0120830A
:1037A0000895EF92FF920F931F93CF93DF93EC0155
:1037B000062FE881E150E33108F05DC0F0E0E4500D
:1037C000F04D0C94522F19828AE08A83602FCE012B
:1037D0000E943028CDB7DEB7E6E00C94872F8981B0
:1037E000823069F0833071F08130D9F40E94332740
:1037F0000E94582F6A837B838C839D83E7CF0E942E
:10380000631BF6CF7E0182E0E80EF11C10E0812FF1
:103810000E943112F70181937F011F5F1A30B9F7BF
:10382000D5CF602FCE010E94CD1BD0CF89818230B1
:10383000C1F76A817B818C819D810E94582F0E94F3
:103840006D1BC4CF4B816A8189810E9452209827C9
:10385000892798279D838C83B9CF2C813D8132277E
:10386000232732274B816A8189810E947420AECF41
:103870000E949020ABCF8FEF8883A8CF0E94242195
:103880008983A4CF0E9426219827892798279A8385
:1038900089839CCF6B8170E089819A81AE014C5FF6
:1038A0005F4F9827892798270E9429218FCF6B8106
:1038B00070E089819A81AE014C5F5F4F982789271C
:1038C00098270E944E2182CF0E9473217FCF0E94B1
:1038D0004020D6CF6B8170E089819A81AE014C5F28
:1038E0005F4F9827892798270E94CE206FCF6B8142
:1038F00070E089819A81AE014C5F5F4F98278927DC
:1039000098270E94F22062CF0895FC01680F791F6A
:103910008FEF91E36E177F0709F4089521918227B5
:1039200028E030E087FF06C0880F89272150310941
:10393000C9F7F0CF880FFACFCF93DF93EC01FB01EB
:103940008281882309F464C1C330FDE5DF07E0F517
:10395000CA3F9CE5D90730F49E0122503C452431F2
:103960003105D8F50E94510E90930B0380930A0302
:10397000C231ECE5DE0709F41FC108F06EC0C930A2
:103980008CE5D80709F4F2C008F03FC0C530ECE57B
:10399000DE0709F4DBC058F5C3308CE5D80709F41D
:1039A000CDC008F0CFC080910A038160C230DC45F1
:1039B00009F4AEC080910A0390910B030E945F0E40
:1039C0000E94FD0880E009C0C53AEDE5DE0751F22E
:1039D00038F4C1369DE5D90729F2DF91CF910895DA
:1039E0009E012D5A3D4523303105B8F7BBCF80915C
:1039F0000A038062C730FCE5DF0709F489C008F4D8
:103A0000B1C080910A03806483C0CD309CE5D907A2
:103A100009F4BAC070F480910A038E7FCB30FCE5C4
:103A2000DF0709F475C008F4A7C080910A038D7FF1
:103A30006FC0CF309CE5D90709F4B6C008F4A8C020
:103A4000C031FCE5DF0709F4B3C0C131DC4509F042
:103A5000B1CF80910A038F7B5BC0CF3F9CE5D90734
:103A600009F4B4C098F5CA3FFCE5DF0709F472C059
:103A7000B8F4C4319CE5D90709F4B6C008F4A2C073
:103A8000C531DC4509F096CF80910A0382FB992766
:103A900090F921E0922790FB82F990FB83F938C0DE
:103AA000CC3F8CE5D80709F477C008F457C0CD3F68
:103AB000ECE5DE0709F474C080910B038360CE3F10
:103AC000DC4509F077CF80930B0374CFC1368DE5C9
:103AD000D80709F496C068F4C130EDE5DE0709F4B3
:103AE0008CC008F477C0C230DD4509F063CF80E0B8
:103AF00085C0CD3A9DE5D907E9F068F490910A03B5
:103B0000892F8E7F90FF8160C53ADD4509F052CF45
:103B100080930A034FCFCE3A8DE5D80789F1CF3A8B
:103B2000DD4509F047CF90910B03892F877F93FFE5
:103B30008860C9CF80910B038860C5CF80910A034C
:103B40008260E6CF80910A038460E2CF80910A030D
:103B50008860DECF80910B038160B5CF80910B032D
:103B60008260B1CF80910A038061D2CF0E94FD08AC
:103B700080910A038068CCCF80910A038C60C8CF03
:103B800080910B03877F9FCF80910A038B7FC0CFEB
:103B900080910A03877FBCCF80910B038E7F93CFE8
:103BA00080910B038D7F8FCF80910A038F7EB0CFE2
:103BB00080910A038F7DACCF0E94FD0880910A039B
:103BC0008F77A6CF80910A03837FA2CF80910B03CA
:103BD0008C7F79CF80910B03982F909591708E7F79
:103BE000892B90FB81F96FCF0E94FD0890910A0309
:103BF000892F97FB87F980588BCF81E00E94EB0ECD
:103C0000D9CE90910A03892F8F7E94FF806180CF57
:103C100081E0E3CEB0E0A0E0E0E1FEE10C946A2FA9
:103C2000E82FF0E0E852FE4FD490282F26952695F5
:103C3000269530E0F901E858FD4F0491877010E0B7
:103C4000082E02C0159507950A94E2F70170112716
:103C5000F901E859FD4FE490F12C082E02C0F594CB
:103C6000E7940A94E2F791E0E922FF24F901E85A87
:103C7000FD4FC491D0E002C0D595C7958A95E2F773
:103C8000C170DD270115110519F081EE0E94810533
:103C9000E114F10419F086EE0E9481058D2D0E9439
:103CA0008306E114F10419F086EE0E941206011554
:103CB000110519F081EE0E941206CD2B19F08CE24D
:103CC0000E948306CDB7DEB7E7E00C94862FEF9213
:103CD000FF920F931F93CF93DF93EC01162F0AE00F
:103CE0008881882309F454C0813009F04EC089814D
:103CF000813099F47E0122E0E20EF11C8A810E945B
:103D00008306E7012196812F815050F3EFE9FFE010
:103D10003197F1F700C00000F7CF823041F47E0107
:103D200082E0E80EF11C8A810E948105EACF83308F
:103D300041F47E01E2E0EE0EF11C8A810E9412063F
:103D4000E0CF843011F02196DDCF2A81229690E0D9
:103D500080E0AE014F5F5F4F2053330B2A303105B7
:103D600048F0019778F2EFE9FFE03197F1F700C0F2
:103D70000000F7CF089FB001099F700D1124C90101
:103D8000860F971F2981EA01E4CF0E940A1EBACF4D
:103D9000CDB7DEB7E6E00C94872F8FE891E001976E
:103DA000F1F700C0000008950E9444030895B0E0B8
:103DB000A0E0EDEDFEE10C946A2F8091340192E0D9
:103DC000811190E09093E20282E0282F291B20933A
:103DD000E102909134018093E30290913401809349
:103DE000E0028091340181110CC087E98093690160
:103DF00086EC8093670184E980936A0186E680936C
:103E0000680109E611E0C7E6D1E06BE671E0AE01BA
:103E1000D80121E030E08D91E82FE295EF70F0E0DD
:103E2000D1A08F70790101C0EE0C8A95EAF79E2D22
:103E300090959D2191A382A18E2982A3FA0181915F
:103E4000AF01E82FE295EF70F0E0D1A08F7079011B
:103E500002C0EE0CFF1C8A95E2F79E2D90959D21E5
:103E600091A382A18E2982A36A177B07A1F60E94E3
:103E7000CD1E6091E30248EE52E0FA018E2F841BC2
:103E8000861728F0CDB7DEB7E7E00C94862FD8016F
:103E90002D918D01A22FA295AF70B0E090968C91DC
:103EA00090E02F7002C0959587952A95E2F7817072
:103EB0009991A92FA295AF70B0E090962C9130E027
:103EC0009F7002C0359527959A95E2F790E020FD06
:103ED00092E0892B8193D2CFCF92DF92FF920F9302
:103EE0001F93CF93DF9310E000E084E0C82ED12C25
:103EF0008091E302181748F0802FDF91CF911F9136
:103F00000F91FF90DF90CF900895C12FD0E0FE0178
:103F1000E759FE4F8081E82FE295EF70F0E0E0A1D5
:103F2000F0E08F7002C0F595E7958A95E2F7E170B1
:103F3000DE01A959BE4F4C91A42FA295AF70B0E0FD
:103F400090968C9190E04F7002C0959587954A9518
:103F5000E2F780FD44C080E08E2BDE01A851BD4F0A
:103F6000EC919E2F93709817C1F1EE0FEE0FE82B96
:103F7000EC93F090E202F10EEF70F0E0E251FE4FB0
:103F8000CC51DD4F80819881890F888320E0843077
:103F900064F0EF2DF0E0E452FD4F80818F5F80836D
:103FA00060E08F2D0E94D41E21E088818D3F64F453
:103FB000EF2DF0E0E452FD4F80818150808361E07D
:103FC0008F2D0E94D41E21E08881082E000C990BB1
:103FD000B6010E943E2F8883022B1F5F89CF82E0AB
:103FE000BBCF4091E30250E06091E20270E0645286
:103FF0007D4F0E94A32F0895B0E0A0E0E2E0F0E240
:104000000C94692F6C01D0E080E09091E002D91708
:1040100040F081110E94040FCDB7DEB7E8E00C94A8
:10402000852FF090E102FD0E0F2D10E004521D4F80
:10403000F601ED0FF11DC081F8019081C91BEC2E36
:104040001E1444F09C2FC7FD90E0C91BC1110DC088
:10405000DF5FDBCFEA94F80180818F5F808360E0CF
:104060008F2D0E94D41E81E0EBCFCF5FF8018081BD
:104070008150808361E08F2D0E94D41E81E0E6CFC5
:1040800084E0089550E0440F551F9AE0699F400D69
:10409000511D112494E6899F400D511D1124CA0120
:1040A000879608950F931F93CF93DF938430C8F4BE
:1040B0006A30B8F44530A8F40E9442208C010E9476
:1040C000AC2FC82FD0E0DC2FCC27C80101960E946E
:1040D000AC2F9E01282BC901DF91CF911F910F9129
:1040E000089590E080E0F8CF0F931F93CF93DF9374
:1040F000122F032F843078F46A3068F4453058F476
:104100000E944220EC01602F0E94BA2F612FCE0145
:1041100001960E94BA2FDF91CF911F910F910895C0
:10412000B0E0A0E0E6E9F0E20C94682F9CEAC92E2A
:1041300090E0D92ED0E0C0E07601B12C20C00E94E2
:10414000F30321E030E08C171D0641F03CF0F8014C
:10415000EE0FFF1FEE0DFF1D25913491402F6B2DAB
:104160008C2F0E9474200F5F1F4F0530110539F707
:104170008AE0E80EF11CB3948AE0B81619F010E05A
:1041800000E0DDCF219684E6C80ED11CC430D105F5
:1041900099F6CDB7DEB7E9E00C94842FEF92FF9249
:1041A0000F931F93CF93DF93EC018A017C01E60EFE
:1041B000F71ECE018796CE15DF0529F4CDB7DEB701
:1041C000E6E00C94872FC03921E0D20740F40E942A
:1041D000AC2FF80180830F5F1F4F2196EACFF801C3
:1041E0001082F9CFB0E0A0E0E8EFF0E20C94692F84
:1041F0007C016A018C01060F171FEC01CE01879626
:10420000C017D10729F4CDB7DEB7E8E00C94852FAD
:10421000C03921E0D20740F4FE01EE19FF09EC0D90
:10422000FD1D60810E94BA2F2196E8CF462F843071
:1042300040F47A3030F4653020F4672F0E94522029
:10424000089590E080E0089580E1089589E492E087
:104250000895EF92FF920F931F93CF93DF93EC019A
:104260008A017C01E60EF71ECE0189549E4FCE15C1
:10427000DF0529F4CDB7DEB7E6E00C94872FC9340B
:1042800022E0D20740F40E94AC2FF80180830F5F38
:104290001F4F2196E9CFF8011082F9CFB0E0A0E0DE
:1042A000E4E5F1E20C94692F7C016A018C01060FB0
:1042B000171FEC01CE0189549E4FC017D10729F476
:1042C000CDB7DEB7E8E00C94852FC93422E0D207E1
:1042D00040F4FE01EE19FF09EC0DFD1D60810E9406
:1042E000BA2F2196E7CFCF93DF93C7EBD1E060E001
:1042F000CE010E94BA2F2196C11584E0D807B9F7E4
:10430000DF91CF910895A4E0B0E0E9E8F1E20C94E8
:104310006A2FF82E8FE08F1548F18FEF93E00E94FF
:10432000AC2F811123C007EB11E0F11023C01982DB
:104330001A821B821C82DD24D39478018FEFE81A45
:10434000F80AC8010E94AC2F89831A82882371F071
:104350009FEF980F9330D8F48A83D9820E5F1F4F56
:10436000C7010E94AC2F8B83811112C02496E7E015
:104370000C94862F011584E01807C1F3C8010E9430
:10438000AC2F811101C0FA940F5F1F4FCECF870170
:1043900060E0CE0101960E94671ECFCFCF93DF93DE
:1043A000EB0186319C4511F50E944D0D9A819923B0
:1043B00099F08A7A91E009F490E09093EC028111EF
:1043C00009C089E20E94250D0E948E0D80E0DF91D8
:1043D000CF91089585E3F6CF8091EC02811104C05E
:1043E00089E20E942D0DF0CF85E3FBCF81E0EFCF76
:1043F0000F931F93CF93DF93C42FD22FFC018281A1
:104400008823C9F04093EF020E9427279093EE0281
:104410008093ED0280E28C0F883040F4C77081E019
:1044200001C0880FCA95EAF70E948C06DF91CF91F0
:104430001F910F9108951091EF02141332C08091D3
:10444000ED029091EE020E943F27883C910548F5CD
:10445000C0E2CD0F1D17B9F080E2810F883040F423
:10446000177081E001C0880F1A95EAF70E94930641
:10447000C83048F481E09D2F977001C0880F9A954D
:10448000EAF70E948C06802F0E948306C83070F6DF
:10449000D77081E001C0880FDA95EAF70E94930691
:1044A000C5CF80E28C0F883008F6C77081E001C06C
:1044B000880FCA95EAF7F2CF0F939C01CB01233FF7
:1044C0004CE5340759F1A8F4283DFCE53F0701F11C
:1044D000293D4CE53407D1F1273D3C4591F406E2F6
:1044E00021EE41EE67ED7CE50E94F82180E00F911E
:1044F0000895253FFCE53F07E9F0B0F0263F3C4535
:10450000F9F0FC018281882339F11092EF02EFCF9C
:1045100007E225EE45EE68ED7CE5E6CF06E221EE0A
:1045200040EE63EF7CE5E0CF07E225EE44EE64EF7A
:104530007CE5DACF06E221EE42EE65EF7CE5D4CFF2
:1045400007E225EE46EE66EF7CE5CECF08E221E0FD
:1045500045EE69ED7CE5C8CF81E0C9CF1092B90086
:104560008CE08093B8000895B0E0A0E0EAEBF2E2BE
:104570000C94662FB82EEB010E9427276C01EE24C5
:10458000E394F12CC431D10560F025E0E22EF12C4A
:10459000CF3FDC0731F0CE0164E170E00E942A2FAA
:1045A0007B0184EAA82E94E8992E1092BC00A09278
:1045B000BC000E9427278C018091BC0087FF0DC0A2
:1045C0008091B900887F8830F9F08091B900887FA8
:1045D0008031D1F00FEF1FEF08C0C8010E943F27C4
:1045E000E816F90648F70EEF1FEFCF3FDC07E9F2B8
:1045F000C6010E943F27C817D907B8F6C801CDB732
:10460000DEB7EBE00C94822FB092BB009092BC001E
:104610000E9427278C018091BC0087FF0AC08091EF
:10462000B900887F883111F08034A1F610E000E0F5
:10463000E5CFC8010E943F27E816F90660F7D3CFFF
:104640000F931F93CF93DF93EB018093BB0084E81C
:104650008093BC000E9427278C018091BC0087FFBB
:1046600011C02091B900287F81E090E0283211F438
:1046700090E080E0919581959109DF91CF911F9114
:104680000F910895CF3FDC0741F3C8010E943F27F7
:10469000C817D90710F78EEF9FEFEFCF0F931F9337
:1046A000CF93DF93EC0184EC8093BC000E9427271A
:1046B0008C018091BC0087FF08C08091BB0090E016
:1046C000DF91CF911F910F910895CF3FDC0789F3C0
:1046D000C8010E943F27C817D90758F78EEF9FEFF0
:1046E000EFCF0F931F93CF93DF93EC0184E8809378
:1046F000BC000E9427278C018091BC0087FF08C066
:104700008091BB0090E0DF91CF911F910F910895B0
:10471000CF3FDC0789F3C8010E943F27C817D9079C
:1047200058F78EEF9FEFEFCFB0E0A0E0EAE9F3E2B9
:104730000C94692FC62F6A017901B8010E94B42236
:1047400097FD0CC0B8018C2F0E942023E601EC0CD1
:10475000FD1CCE15DF0511F097FF08C024E920935A
:10476000BC00CDB7DEB7E8E00C94852FB801899185
:104770000E942023EECFB0E0A0E0E1ECF3E20C9445
:10478000692FF82EE62EEA016901B8010E94B422D1
:1047900097FD15C0B8018E2D0E94202397FD0FC0F4
:1047A000B8018F2D81600E94B422F12CE12C21E010
:1047B000C21AD108EC14FD04E0F497FF0DC024E9FF
:1047C0002093BC001816190614F490E080E0CDB7D1
:1047D000DEB7E8E00C94852FC8010E944E2397FDB8
:1047E00004C0FE01EE0DFF1D80832FEFE21AF20AD6
:1047F000E1CF97FDE4CFC8010E94712397FDDFCF81
:10480000CC0DDD1D8883DBCF8EE14A9B02C0815039
:10481000E1F74A9BFECF08955A9880E28A95F1F716
:104820005A9A0895FC013BE03A95F1F798E020E0B0
:1048300080E031E040E14A95F1F7880F4A9B02C0E1
:104840008160232742E04A95F1F7000040E14A9554
:10485000F1F7915079F790E19A95F1F799B132E03B
:104860003A95F1F7000040E14A95F1F792FB99275C
:1048700090F992272081920F90830895A1E0B0E0F3
:10488000E4E4F4E20C946B2F19828C017C01E60EB7
:10489000F11C0E151F0541F481E09981911180E012
:1048A0002196E6E00C94872F0E940424CE01019605
:1048B0000E941224F80181938F01EBCF529A5A9AE9
:1048C000089552985A9AEA9AE9E6F0E080818F7C3E
:1048D000808308956150770B91E001C0990F6A952C
:1048E000EAF720E031E0911108C0222391F05A9AB2
:1048F00080E28A95F1F75A980895492F482339F0B4
:104900005A9A232740E24A95F1F79695ECCF5A98A8
:10491000F9CF5A98EDCFFF920F931F93CF93DF9368
:10492000EC018C01060F111DC017D10729F4CDB77A
:10493000DEB7E5E00C94882FF9900E940C2468E023
:104940008F2D0E946A24F0CF1F920F920FB60F9204
:1049500011240F931F932F933F934F935F936F9364
:104960007F938F939F93AF93BF93EF93FF93CF93D7
:10497000DF930F92CDB7DEB719820E940424CE01D7
:1049800001960E941224082F069506950695282F59
:1049900022952570902F9570290F922F9370269550
:1049A0002695920F982797708981982B09F05CC003
:1049B000063008F059C080E18A95F1F75A9A529A68
:1049C00082E08A95F1F700C05A9888E0089F80013C
:1049D0001124D801AB5CBE4F1696ED91FC91179750
:1049E0003097A9F06091E4017091E50114962D9142
:1049F0003C911597260F371F11968D919C91129718
:104A0000680F791F13964C9113978C910995F801B3
:104A1000EB5CFE4F6381662351F02091E4013091FD
:104A2000E50184819581820F931F0E948B240E944F
:104A30000C2480E18A95F1F75A9852985A9A80E1AD
:104A40008A95F1F7F801EB5CFE4F6081662351F027
:104A50002091E4013091E50181819281820F931FC1
:104A60000E943E240E9404240F90DF91CF91FF9179
:104A7000EF91BF91AF919F918F917F916F915F91D6
:104A80004F913F912F911F910F910F900FBE0F905B
:104A90001F9018950F931F93CF93DF93EC01069708
:104AA0000CF04CC0F894529A5A9885E08A95F1F728
:104AB00000009C2F969595708C2F8570980F892FEC
:104AC00083709695969523E0CC0FDD1F2A95E1F72C
:104AD000980F8E01092B0E940C2400C068E0802FE3
:104AE0000E946A2480E18A95F1F752985A9A4A9B6B
:104AF0001EC087E090E04A991CC0FE01EB5CFE4FAF
:104B000063816623F9F02091E4013091E50184810D
:104B10009581820F931F0E943E24811113C0529AE7
:104B20005A9A7894DF91CF911F910F91089500C008
:104B3000DECF019729F4529A5A9A789480E0F2CF06
:104B400000C0D9CF0E94042480E28A95F1F75A98D8
:104B5000529A80E18A95F1F7CB5CDE4F688166233B
:104B600051F02091E4013091E50189819A81820F11
:104B7000931F0E948B240E940C24789481E0D2CF52
:104B800090930F0280930E0208959093F602809303
:104B9000F50208950E941614811103C08091F0025D
:104BA0000895E091F502F091F602309729F0019016
:104BB000F081E02D0995089580E00895E091F502D7
:104BC000F091F602309721F00280F381E02D0995F3
:104BD0000895E091F502F091F602309739F022E065
:104BE000DC012C930480F581E02D09950895209136
:104BF000F3023091F4022817390771F09093F40210
:104C00008093F302E091F502F091F602309721F0E3
:104C10000680F781E02D099508952091F1023091E9
:104C2000F2022817390771F09093F2028093F10293
:104C3000E091F502F091F602309721F00084F185C1
:104C4000E02D099508959C012E5F3F4FAC01485F10
:104C50005F4F80E02417350709F40895F901919119
:104C60009F019923B9F38F5FF5CF662349F0FC01CB
:104C7000329608962191261729F0E817F907D1F7FF
:104C800080E0089581E008959C01FC0132969FEF39
:104C900080E04191461751F09F3F19F4411101C046
:104CA000982F8F5F8630A9F79F3F09F40895290F49
:104CB000311D97FD3A95F90162830895FC01329602
:104CC00008962191261303C0DF0111971C92E81763
:104CD000F907B9F708950E94442608950E945E26B8
:104CE0000895029626E0FC0111922A95E9F70895AD
:104CF00046E050E00E94962F21E0892B09F420E045
:104D0000822F089508950E9482260895811106C079
:104D100081E08093F7020E948326089582E0F9CF14
:104D200083E08093F7020E94832608950E948626DE
:104D3000089581E08093F7020E94832608950E94DF
:104D400099260895089508950E94A3260895089528
:104D500008950E94A2260895CF930E94A7260E943C
:104D600096130E94A826C0E08C2F0E943112811158
:104D700005C0CF5FCA30C1F7CF91089581E0FCCF65
:104D800085B7806885BF85B7806885BF08951F9205
:104D90001FB61F9211248F939F93AF93BF9380915F
:104DA000F802811113C08091220390912303A091F6
:104DB0002403B09125034196A11DB11D80932203C8
:104DC00090932303A0932403B0932503BF91AF9145
:104DD0009F918F911F901FBE1F90189580912A035D
:104DE000843031F10E94E4041092F80288E190E0EE
:104DF00020E40FB6F894A895809360000FBE20932E
:104E0000600083B7817F846083BF83B7816083BF85
:104E10007894889583B78E7F83BF0FB6F894A89552
:104E200080916000886180936000109260000FBEE6
:104E300008950E94FD080E94EB04089582E084BD5D
:104E400093E095BD9AEF97BD80936E0008952FB7BC
:104E5000F8948091220390912303A0912403B091B0
:104E600025032FBF08952FB7F89460912203709106
:104E7000230380912403909125032FBF08959C0163
:104E80004FB7F8948091220390912303A0912403BB
:104E9000B09125034FBF821B930B0895CF92DF92F1
:104EA000EF92FF922FB7F894C0902203D090230383
:104EB000E0902403F09025032FBFA7019601261B45
:104EC000370B480B590BCA01B901FF90EF90DF90E7
:104ED000CF90089578941F921FB61F9211248F933C
:104EE0009F93AF93BF938091220390912303A0914E
:104EF0002403B09125030196A11DB11D80932203C7
:104F000090932303A0932403B0932503BF91AF9103
:104F10009F918F911F901FBE1F90189587E797E76D
:104F2000909301088093000888E19AE00FB6F89406
:104F3000A895809360000FBE90936000FFCF88E13A
:104F40009AE00FB6F894A895809360000FBE9093F6
:104F50006000FFCF80910403089508959C0184E0D0
:104F60008093E9009FEF8091E800915085FD06C095
:104F700085ED8A95F1F700009111F5CF8091E80059
:104F800085FF0CC050E040E066E070E0C9010E947F
:104F9000422A8091E8008E778093E8000895CF93AD
:104FA000DF93EC0181E08093E9008FEF9091E800BE
:104FB000815095FD06C095ED9A95F1F7000081119D
:104FC000F5CF8091E80085FF14C050E040E068E034
:104FD00070E0CE010E94422A8091E8008E77809393
:104FE000E80088E0FE01ACEFB2E001900D928A95F6
:104FF000E1F7DF91CF9108958093F9027093FB025E
:105000006093FA0280912A038430F9F48093E900D6
:105010008FEF9091E800815095FD06C095ED9A952F
:10502000F1F700008111F5CF8091E80085FF0DC0F8
:1050300050E040E063E070E089EF92E00E94422A95
:105040008091E8008E778093E8000895BC0184E0A9
:105050000E94FC270895BC0183E00E94FC2708956C
:10506000CF93FC01603221F580912A03843001F551
:10507000C091E900CF702091EC00922F917020FD3B
:1050800090E8C92B82E08093E9008091E80080FFDE
:105090000CC050E040E060E270E0CF010E94422A84
:1050A0008091E8008E778093E800CF70C093E9008C
:1050B000CF91089580912903811109C00E94212C6C
:1050C0000E947E2C8091E20084608093E20008952B
:1050D0001092290308950E9499260895609126034D
:1050E00081E0611101C080E00E94902608959091B6
:1050F0002A0381E0943009F080E0609126030E9449
:105100009626089542E061EC81E00E949D2B42E2E8
:1051100061EC84E00E949D2B42E261EC82E00E94FF
:105120009D2B42E260EC83E00E949D2B90912A032C
:1051300081E0943009F080E0609126030E94862689
:10514000089580912C03833009F463C030F48130DA
:10515000E1F1823009F4A0C008958A3009F48CC0CE
:105160008B3009F471C0893009F052C080912B0353
:10517000813209F04DC080912F0390913003009748
:1051800019F0029709F044C08091E800877F80936E
:10519000E8008091E80082FF37C09091F300809191
:1051A000F200029731F48091F100813011F08630E5
:1051B00021F48091F100809304038091E8008B77C3
:1051C0008093E8000E94D12B23C080912B03813A69
:1051D000F9F48091E800877F8093E80080912F03A5
:1051E00090913003892B61F468E08CEF92E070E0DD
:1051F0000E94E02A8091E8008B778093E800089570
:1052000060E090E080E0F3CF80912A038111C1CF6C
:10521000089580912B03813AD9F780912F039091C3
:105220003003892BA9F78091E800877F8093E800FD
:105230008091E80080FFFCCF809177018093F1009E
:105240008091E8008E77BCCF80912B03813201F7EB
:1052500080912F0390913003892BD1F68091E80043
:10526000877F8093E8000E94D12B80912D0380934B
:1052700077010E94FD08089580912B03813241F649
:105280008091E800877F8093E8000E94D12B809175
:105290002E0380930503089580912B03813A09F032
:1052A000B7CF8091E800877F8093E8008091E80085
:1052B00080FFFCCF80910503C1CF84B7877F84BF77
:1052C0000FB6F894A8958091600088618093600083
:1052D000109260000FBE80E890E00FB6F8948093C3
:1052E0006100909361000FBE0E949F2608950E9466
:1052F000212C0E947E2CE2EEF0E08081846080838D
:1053000078940E94FD2E08958BE691E00E94C525B9
:10531000089580912A03853031F480912A038530E5
:1053200019F00E94192708950E94EE268091280303
:10533000882399F30E94AC26882379F30E942C2AB3
:105340000E94FD08EACFA0E2B0E0E9EAF9E20C949D
:105350006F2F80912A03843009F583E08093E90060
:105360008091E80082FF1AC08091E80090E085FFFC
:1053700009C050E040E060E270E0CE0101960E947A
:10538000912A91E08091E8008B778093E80099233F
:1053900029F060E2CE0101960E94D11BA096E2E0C6
:1053A0000C948B2F0E94D5290895292F3327233061
:1053B000310521F168F42130310509F443C0223070
:1053C000310509F444C090E080E030E020E026C0E0
:1053D0002132310551F122323105A9F763307105CF
:1053E00090F7FB01EE0FFF1FEF5FFD4F2081318132
:1053F00062507E4FFB01808190E010C09927813080
:10540000910581F0009729F00297E9F6E8E8F2E0CB
:1054100002C0E8EAF2E0849190E09F01FA01318352
:1054200020830895ECE9F2E0F6CF6330710558F679
:10543000660F771FFB01E95FFD4F2081318189E015
:1054400090E0ECCF82E190E027E033E0E7CF8BE51E
:1054500090E02CEA32E0E2CF80E189BD82E189BDB3
:1054600009B400FEFDCF8091D8008F7D8093D800D5
:105470008091E00082608093E0008091E00081FDF7
:10548000FCCF0895AF92BF92CF92DF92FF920F931D
:105490001F93CF93DF936C01EB018A010E94F02BE5
:1054A000F82E811123C00115110539F0F801808112
:1054B0009181C81BD90BC80ED91EB12CA12C2097E5
:1054C000A9F08091E80085FD22C08091E8008E77E8
:1054D0008093E80001151105A1F0F8018081918108
:1054E000A80EB91EB182A08285E0F82E8F2DDF9123
:1054F000CF911F910F91FF90DF90CF90BF90AF9011
:1055000008950E94F02B8823D1F2F82EEFCFF601F8
:1055100081916F018093F1002197FFEFAF1ABF0ACD
:10552000CECFAF92BF92CF92DF92FF920F931F9395
:10553000CF93DF936C01EB018A010E94F02BF82ED0
:10554000811123C00115110539F0F8018081918185
:10555000C81BD90BC80ED91EB12CA12C2097A9F0BD
:105560008091E80085FD22C08091E8008B778093D0
:10557000E80001151105A1F0F80180819181A80EC4
:10558000B91EB182A08285E0F82E8F2DDF91CF91D8
:105590001F910F91FF90DF90CF90BF90AF90089533
:1055A0000E94F02B8823D1F2F82EEFCF8091F100EA
:1055B000F60181936F012197FFEFAF1ABF0ACECF9B
:1055C000FC01809131039091320386179707A0F078
:1055D0006115710529F49091E8009E779093E80099
:1055E00090E06115710551F4911108C08091E800B7
:1055F00082FF34C080E00895BC01F2CF80912A037D
:105600008823C1F18530C1F18091E80083FD30C06D
:105610008091E80082FDEACF8091E80080FFE1CF31
:105620008091F3002091F200382F6115710519F077
:105630002830310558F091E02830310509F090E02C
:105640002091E8002E772093E800CBCF81918093C2
:10565000F100615071092F5F3F4FE7CF80912A031E
:10566000882341F0853041F08091E80083FFBECF70
:1056700081E0089582E0089583E00895FC0180911F
:1056800031039091320386179707A0F061157105D9
:1056900029F48091E8008E778093E80090E061150E
:1056A000710551F4911108C08091E80082FF35C066
:1056B00080E00895BC01F2CF80912A038823C9F1CC
:1056C0008530C9F18091E80083FD31C08091E80008
:1056D00082FDEACF8091E80080FFE1CF8091F30066
:1056E0002091F200382F6115710519F0283031052D
:1056F00058F091E02830310509F090E08091E80001
:105700008E778093E800CBCF84918093F10031961F
:10571000615071092F5F3F4FE6CF80912A038823A4
:1057200041F0853041F08091E80083FFBDCF81E0FA
:10573000089582E0089583E00895982F973028F027
:105740008F708093E90081E008959093E900242F01
:10575000762F50E0981731F07091EC002091ED0019
:105760005091F00021FD02C09F5FE8CF3091EB0027
:105770003E7F3093EB003091ED003D7F3093ED00A4
:105780003091EB0031603093EB007093EC0020938C
:10579000ED005093F0002091EE0027FDE5CF80E072
:1057A000089580912B0387FF13C08091E80082FF4A
:1057B00006C08091E8008B778093E80004C0809158
:1057C0002A038111F2CF089580912A038823D9F307
:1057D0008091E80080FFF8CF8091E8008E77ECCFD1
:1057E0002091E4003091E50095E6A9012091EC00BC
:1057F000822F817020FF06C08091E80080FF06C0E4
:1058000080E008952091E80022FD1AC080912A03CB
:10581000882389F0853089F08091EB0085FD0FC0E9
:105820002091E4003091E50042175307F9F29150BE
:10583000E1F684E0089582E0089583E0089581E030
:1058400008950E94902C0E94982CE0EEF0E0808158
:1058500081608083E8EDF0E080818F77808319BCE0
:10586000A7EDB0E08C918E7F8C9380818F7E8083BA
:105870001092290308950F931F93CF93DF930E94F3
:10588000902C0E94982CC8EDD0E088818F77888377
:1058900088818068888388818F7D888319BC109275
:1058A0002A0310922603109228031092270300EE79
:1058B00010E0F80180818B7F8083888181608883FC
:1058C00042E060E080E00E949D2BE1EEF0E080810C
:1058D0008E7F8083E2EEF0E0808181608083808132
:1058E00088608083F80180818E7F808388818061D9
:1058F0008883DF91CF911F910F910895E8EDF0E03B
:1059000080818F7E8083E7EDF0E0808181608083FD
:1059100084E082BF81E0809329030E943B2C08959C
:10592000E8EDF0E080818E7F80831092E2000895A0
:105930001092DA001092E10008951F920F920FB6B4
:105940000F9211242F933F934F935F936F937F9305
:105950008F939F93AF93BF93EF93FF938091E10059
:1059600082FF0BC08091E20082FF07C08091E100BE
:105970008B7F8093E1000E94FC2E8091DA0080FFF3
:1059800019C08091D80080FF15C08091DA008E7F09
:105990008093DA008091D90080FF96C080E189BDB4
:1059A00082E189BD09B400FEFDCF81E080932A0326
:1059B0000E945A288091E10080FF19C08091E20086
:1059C00080FF15C08091E2008E7F8093E20080917D
:1059D000E20080618093E2008091D8008062809331
:1059E000D80019BC85E080932A030E946E2880911C
:1059F000E10084FF2BC08091E20084FF27C080E19A
:105A000089BD82E189BD89B5982F917080FFFBCF58
:105A10008091D8008F7D8093D8008091E1008F7EA7
:105A20008093E1008091E2008F7E8093E20080917C
:105A3000E20081608093E20080912603882309F4CC
:105A400049C084E080932A030E9477288091E10076
:105A500083FF29C08091E20083FF25C08091E1008F
:105A6000877F8093E10082E080932A0310922603CF
:105A70008091E1008E7F8093E1008091E2008E7F33
:105A80008093E2008091E20080618093E20042E036
:105A900060E080E00E949D2B8091F0008860809300
:105AA000F0000E946B28FF91EF91BF91AF919F9101
:105AB0008F917F916F915F914F913F912F910F90B7
:105AC0000FBE0F901F90189519BC10922A030E94C8
:105AD000682870CF8091E30087FD93E090932A03BC
