:100000000C943F020C945C020C945C020C94AF279D
:100010000C945C020C945C020C945C020C945C02E8
:100020000C945C020C945C020C94A82F0C947C3011
:100030000C94D2290C945C020C945C020C945C022B
:100040000C945C020C945C020C945C020C945C02B8
:100050000C945C020C94752A0C945C020C945C0267
:100060000C945C020C945C020C945C020C945C0298
:100070000C945C020C945C020C945C020C945C0288
:100080000C945C020C945C020C945C020C945C0278
:100090000C945C020C945C020C945C020C945C0268
:1000A0000C945C020C945C020C945C02170015002A
:1000B00008001A0014000A000900070016000400D6
:1000C0000500190006001B001D002C41E300E000A4
:1000D0001F001E00510052004F00500000001C0085
:1000E00018000C00120013000B000D000E000F0092
:1000F00028001100100036003700E5002C42E20015
:100100002A00F400F50052005100F900FA00000046
:100110002200210020001F001E00220221022002D6
:100120001F021E02670054005500560057002C4164
:10013000490029001F001E00510052004F005000CE
:1001400000002300240025002600270023022402AB
:10015000250226022702350089002F1230122D12A7
:100160002D00E2002A00F400F50052005100F900D1
:10017000FA0000003E003D003C003B003A00340025
:100180003312330031001F02C75CC65CC55CC35C20
:10019000C25C2D12E3002B001F001E005100520014
:1001A0004F00500000003F0040004100420043006B
:1001B0005000510052004F002E00C85CC95C2F0057
:1001C000300031002C42E2000350F400F5005200F0
:1001D0005100F900FA0000003E003D003C003B00E9
:1001E000C25C34003312330031001F02C75CC65CAE
:1001F000C55CC35CC25CF40049002B001F001E00FC
:10020000510052004F00500000003F0040004100EC
:1002100042004300F200F100F000F3002E00FB006A
:10022000FA00F900FC003100F500E2000050F40093
:10023000F50052005100F900FA00000000AE00AFD6
:1002400000DA0281FFD9F1DB20A4A62EAF00A0C006
:1002500000A1C800AED580A81FD300408D14200097
:1002600000000000000000002A2B28000000000011
:100270000000000000000000000000290000000055
:100280002C1E3420212224342627252E362D3738C3
:10029000271E1F202122232425263333362E3738CC
:1002A0001F0405060708090A0B0C0D0E0F1011128A
:1002B000131415161718191A1B1C1D2F3130232D56
:1002C000350405060708090A0B0C0D0E0F10111254
:1002D000131415161718191A1B1C1D2F3130354C05
:1002E000000000000000000000000000000000000E
:1002F00000000000000000000000000000000000FE
:10030000000000007E0F00D4FFFFFFC70000007850
:10031000120363006F006F006C003500330036007D
:10032000720000000A036D002E006B0069000000DF
:100330000403090409025B00030100A0FA09040098
:100340000001030101000921110100012240000701
:1003500005810308000109040100020300000009EF
:10036000211101000122220007058203200001075C
:100370000503032000010904020001030000000935
:100380002111010001227B000705840320000112D6
:1003900001000200000008434D3705010001020082
:1003A000010660FF0961A1010962150026FF0095A1
:1003B00020750881020963150026FF009520750845
:1003C0009102C005010902A10185020901A10005F0
:1003D00009190129081500250195087501810205F3
:1003E00001093009311581257F95027508810609BB
:1003F000381581257F950175088106050C0A38029C
:100400001581257F950175088106C0C00501098009
:10041000A101850319012AB700150126B70095012E
:1004200075108100C0050C0901A101850419012A7C
:10043000A002150126A002950175108100C00501DA
:100440000906A101050719E029E71500250195080E
:10045000750181029501750881010507190029FFC1
:10046000150026FF00950675088100050819012969
:1004700005950575019102950175039101C011243F
:100480001FBECFEFDAE0DEBFCDBF12E0A0E0B1E0EB
:10049000EAE3F6E602C005900D92A432B107D9F75F
:1004A00025E0A4E2B2E001C01D92A138B207E1F755
:1004B0000E9415170C94F2320C940000A5E0B0E0F5
:1004C000E4E6F2E00C9473326B837C838D838C8141
:1004D0009D81892B21F0CA0189238F3F31F480E06F
:1004E00081702596E2E00C948F328B81F9CF409198
:1004F0002301509124016091250170912601809182
:1005000027010E945E028823A1F0109225010E941B
:10051000322A8160782F90932701809326014091A1
:1005200023015091240160912501809127010E94AF
:100530006B0540911E0150911F0160912001709147
:100540002101809122010E945E028823A1F0109275
:1005500020010E94322A8160782F9093220180939B
:10056000210140911E0150911F0160912001809155
:1005700022010E946B054091190150911A0160916E
:100580001B0170911C0180911D010E945E02882355
:10059000A1F010921B010E94322A8160782F909363
:1005A0001D0180931C014091190150911A01609125
:1005B0001B0180911D010E946B0540911401509117
:1005C00015016091160170911701809118010E9428
:1005D0005E028823A1F0109216010E94322A8160E7
:1005E000782F909318018093170140911401509136
:1005F000150160911601809118010E946B054091D0
:100600000F015091100160911101709112018091C0
:1006100013010E945E028823A1F0109211010E9432
:10062000322A8160782F90931301809312014091B8
:100630000F015091100160911101809113010E94EE
:100640006B0540910A0150910B0160910C01709172
:100650000D0180910E010E945E028823A1F010928C
:100660000C010E94322A8160782F90930E018093B2
:100670000D0140910A0150910B0160910C01809194
:100680000E010E946B054091050150910601609199
:10069000070170910801809109010E945E02882380
:1006A000A1F0109207010E94322A8160782F909366
:1006B0000901809308014091050150910601609164
:1006C0000701809109010E946B0540910001509142
:1006D00001016091020170910301809104010E9467
:1006E0005E028823A1F0109202010E94322A8160EA
:1006F000782F909304018093030140910001509161
:10070000010160910201809104010E946B0508952E
:1007100081112CC081E06623B1F0809320010E94FA
:10072000322A8160782F9093220180932101409199
:100730001E0150911F0160912001809122010E94B1
:100740006B0581E00895809325010E94322A816023
:10075000782F909327018093260140912301509197
:1007600024016091250180912701E9CF813041F575
:10077000662399F0809316010E94322A8160782FB7
:100780009093180180931701409114015091150125
:100790006091160180911801D2CF80931B010E94B5
:1007A000322A8160782F90931D0180931C01409123
:1007B000190150911A0160911B0180911D01BFCF59
:1007C000823049F581E0662399F080930C010E9404
:1007D000322A8160782F90930E0180930D01409111
:1007E0000A0150910B0160910C0180910E01A7CF7D
:1007F000809311010E94322A8160782F9093130117
:100800008093120140910F015091100160911101EC
:100810008091130194CF833009F093CF81E0662358
:1008200099F0809302010E94322A8160782F909380
:1008300004018093030140910001509101016091F6
:100840000201809104017BCF809307010E94322A2C
:100850008160782F909309018093080140910501F0
:1008600050910601609107018091090168CF84E0F1
:10087000089581E0089581E008950E943B04089561
:1008800008950E9440040895A5E0B0E0EAE4F4E091
:100890000C94723249835A8330912B0289819A8158
:1008A000311119C0662399F0222389F00E94750A3C
:1008B000182F682F89819A810E94510A69817A8153
:1008C000812F0E94FC232596E3E00C948E320E9437
:1008D000630A182FF3CF0E94750A69817A81F1CFDC
:1008E000FC01262F408151816281738184810E94A5
:1008F0004404089581E00895CF93DF93EC0160E014
:100900000E947004BE010E944104DF91CF910895BE
:10091000E1E0F0E0DF0102C0AA0FBB1F6A95E2F739
:10092000BD01DF0102C0AA0FBB1F4A95E2F76A2B87
:1009300001C0EE0F2A95EAF7962F9823961302C06E
:100940008E2B0895E0958E230895242F462F682F2F
:10095000809141020E9488040E94B10908950E947A
:100960007E1208950E948112089508950E944309FD
:100970000E94B5042FEF84E39CE02150804090401A
:10098000E1F700C0000008950E94B6040E94992A71
:1009900008950E94B6040E94AA2A08950F931F93F7
:1009A000CF93DF938C0161E00E947004EC01B801E9
:1009B0000E94621C811106C080E0DF91CF911F91DF
:1009C0000F910895B801CE010E943D048823A1F340
:1009D000B801CE010E944225882371F3B801CE01EF
:1009E0000E94821F882341F3B801CE010E94B424E3
:1009F000882311F3F8018281882361F0CA35FDE56F
:100A0000DF0701F158F4C115ECE5DE0791F0CE3DAA
:100A1000DC4591F0C8010E943904CFCFCC358DE57B
:100A2000D80769F090F0C73ADD45A1F70E94C904E4
:100A3000C3CF0E94C404C0CF0E942E0FF7CF0E94E4
:100A4000680EE8CF0E94720EE5CF0E94760EE2CFCC
:100A50000E94AF290E9449050E94271F0E94271A61
:100A600008950E944D050E94B429089508950E949A
:100A70003605089581E008950E943A050895089585
:100A8000CF93C82F0E9437058C2F0E943C05CF9131
:100A9000089580E00E94400508950E94D5280E9494
:100AA00040050895CF930E94D528C82F8091260233
:100AB0008C1779F0C09326020E943E2A6093270289
:100AC000709328028093290290932A028C2F0E940F
:100AD0004005CF910895ABE0B0E0E1E7F5E00C947C
:100AE00073324F83588769877A878B8761110E9499
:100AF000B30D1E821D8285E0FE013796DE01119640
:100B000001900D928A95E1F78C819D81892B61F48A
:100B100049815A816B817C818D819E810E94DC0C90
:100B20002B96E2E00C948F3289819A8189238F3F42
:100B300079F3CE0101960E947A048111E9CFF0CFBA
:100B4000FC01808191810E94A20A0895A6E0B0E094
:100B5000ECEAF5E00C947132082F162F0E94AE1AC1
:100B600029834B835C836D837E83002369F0312B63
:100B70004981532F6B817C818D819E810E94C91A8E
:100B80002696E4E00C948D3210953123F1CFCF936B
:100B9000C82F8823C9F08238C9F40E94D52881FD66
:100BA00013C089E30E946B0D0E94D40D2FEF87EED6
:100BB00093E0215080409040E1F700C0000089E3BD
:100BC0000E94730D0E94D40DCF9108958338A1F433
:100BD0000E94D52880FDF8CF83E50E946B0D0E940E
:100BE000D40D2FEF81EE94E0215080409040E1F74A
:100BF00000C0000083E5E4CF8438A1F40E94D5282A
:100C000082FDE2CF87E40E946B0D0E94D40D2FEF8E
:100C100081EE94E0215080409040E1F700C0000058
:100C200087E4CECF8CEF8C0F813A90F46C2F8091BB
:100C30002801909129010E944029882329F08C2FB6
:100C40000E94730D0E94D40D8C2F0E946B0DBACFA1
:100C500080E28C0F883048F4C77081E001C0880FB3
:100C6000CA95EAF70E94960DADCFEBE5EC0FE330A5
:100C700040F4F0E0E154FE4F808190E00E940229B0
:100C8000A3CFE8E5EC0FE73150F4F0E0EE0FFF1FE3
:100C9000EF56FE4F808191810E94182995CFC03F69
:100CA00008F492CF8C2F0E9499170E946C188CCF59
:100CB000882309F455C0823879F40E94D52881FF31
:100CC0004FC089E30E946B0D0E94D40D89E30E94FE
:100CD000730D0E94D40D0895833859F40E94D528CD
:100CE00080FF3EC083E50E946B0D0E94D40D83E51A
:100CF000EECF843859F40E94D52882FF31C087E4B2
:100D00000E946B0D0E94D40D87E4E1CF9CEF980FF9
:100D1000913AE8F290E2980F983050F4877091E0A1
:100D200001C0990F8A95EAF7892F0E949C0DD1CFB7
:100D30009BE5980F933028F490E080E00E94022910
:100D4000089598E5980F973128F490E080E00E948C
:100D500018290895803F20F00E94F3170E946C1814
:100D600008951F93CF93DF93182FEB010E94C705BF
:100D7000209739F4812F0E945806DF91CF911F915F
:100D800008958FE99FE00197F1F700C000002197D7
:100D9000EFCF70E060E0893311F460E570E00E940D
:100DA000B1060895882321F00E94960D0E94D40D6B
:100DB0000895882321F00E949C0D0E94D40D08956F
:100DC000B0E0A0E0E6EEF6E00C946C326C01D62FB9
:100DD000C72FFC011281F580F2949FE0F9220E9456
:100DE0008C0DE82E8823B9F0E12E1123A1F08C2F71
:100DF000807F803421F080E28D0F8830D0F08091A8
:100E0000510382FF16C082E00E94370E0E948C0DB3
:100E100091E0E82EE926BC2EB2948FE0B822FBE0E8
:100E2000FB1508F468C0EB2DF0E0EC50FD4C0C9481
:100E30005632E12CF0CF0C2F0F70C07F11F00295CD
:100E4000007F112399F0002359F080E28D0F883044
:100E500010F0D11107C0802F0E94960D0E94D40D72
:100E60008D2F41C0802F0E94A60DF8CF8D2F0E949C
:100E70005806002309F43FC080E28D0F883010F03F
:100E8000D11104C0802F0E949C0D03C0802F0E94AE
:100E9000AC0D0E94D40D2FC00C2F0F70C07FC0323C
:100EA00011F00295007FDD2381F0D13009F465C097
:100EB000112309F46FC0FF2009F465C0F601858194
:100EC00080FFCECF8F7085835EC08091510382FDFD
:100ED00034C0112359F0002329F0802F0E94960D71
:100EE0000E94D40D80E00E94C70505C080E00E94EA
:100EF00058060111C7CF2B2D2850330B2430310554
:100F000020F40E94D5280E944005EE2089F00E941E
:100F1000880D80FD0DC0F60112820E94820D0E9494
:100F2000C509C6010E9403090E94820D0E94D109D1
:100F3000CDB7DEB7E9E00C948832112389F0F110C7
:100F400006C00E94B60D802B0E94D206D4CF21E0AD
:100F5000F212F7CF0E94B60D802B0E94BD0DCBCFB1
:100F6000F11006C00E94CA0D802F0E94D906C3CF7F
:100F700031E0F31609F4BFCFF5CF112331F085E04E
:100F80008F1508F4B8CF802FDFCF94E09F1508F4B9
:100F9000B2CFEACFFF2041F3D93349F4FFEF27EE78
:100FA00033E0F15020403040E1F700C000008D2FC9
:100FB0000E945806A0CF8C2F86958695837069F085
:100FC000813009F098CF8D2F9C2F9370111102C0A2
:100FD00090E080E00E9418298ECF8D2F9C2F937077
:100FE000111102C090E080E00E94022984CF8D2F71
:100FF000112391F00E949917ED2FE45FFF0BE5306C
:10100000F10568F461E070E001C0660FEA95EAF767
:10101000812F0E94A6056FCF0E94F317EDCF0E948B
:101020006C1869CF8C2F837079F5111164CF4D2F17
:10103000429546954770440F440F8D2F8F70042EB4
:1010400001C0880F0A94EAF72D2F2071D4FF07C042
:101050002FE030E001C0220F4A95EAF72095C695AF
:10106000C695C370822BC23049F058F4C13019F0D4
:101070000E949F0940CF0E9499093DCF0E94A50977
:101080003ACF0E94960937CF8695112311F08C2F05
:101090008170882309F42FCF4D2F429546954770D4
:1010A000440F440F8D2F8F70042E01C0880F0A94B7
:1010B000EAF72D2F2071D4FF07C02FE030E001C0E8
:1010C000220F4A95EAF72095C695C695C370822BE4
:1010D000C23049F058F4C13019F00E94F0090BCF2A
:1010E0000E94EA0908CF0E94F60905CF0E94B109C3
:1010F00002CFCF70112329F08C2F0E94C5098D2FAC
:1011000023CF8D2F0E94D9068C2F0E94D109F3CEB8
:10111000D23F51F160F4D03FB9F0D13F81F01123BB
:1011200009F449C0F1109CCE8C2F8F7121C0D33FA0
:1011300011F1D43FA1F78091510382FD26C08C2F7D
:101140008F71112311F314C0112349F0F4E0FF153E
:1011500008F4D1CE8C2F8F710E94DE09CCCE25E011
:101160002F1508F4C8CEF6CF8C2F8F711111CDCF6B
:101170000E94C509C0CE112329F08C2F8F710E94C7
:10118000BC09B9CE0E94B809B6CE112349F0CF717F
:101190008C2F0E94C50963E08C2F0E94190EABCEE4
:1011A00081E00E94370E31E03F1508F0A4CE82E0C6
:1011B0000E94370EA0CEFF2059F0D93309F0F7CEA8
:1011C0008FEF97EEE3E081509040E040E1F7EDCE05
:1011D0008C2F8F719ACF0F931F93CF93DF93EC01D6
:1011E000688179818A810E94AD0A8C010E94FC0984
:1011F0000E949509B801CE010E94E006DF91CF91CF
:101200001F910F910895CF93DF93EC018B819C8107
:10121000892B29F08881998189238F3F51F4DF91AF
:10122000CF910895CE010E94EB08CE010E947C046C
:10123000F6CFCE010E94CE048111F4CF0E948C0D16
:10124000882369F38A81882351F38091510382FFB7
:10125000E6CF82E00E94370EE2CF90E080E00E946D
:10126000022990E080E00E9418290E94B30D0E949C
:10127000D40D0E9488180E946C1808950E947B0D5E
:101280000E942D0908950E94A30D0E943E09089511
:1012900092959F70963091F058F4925F9F709230C3
:1012A00058F4803F19F030F4883E30F481E008951E
:1012B0009A5FF4CF843FD1F380E00895883EB0F385
:1012C000813FD1F7F3CFFC0183819481892B29F0F1
:1012D0008081918189238F3F11F480E0089580817E
:1012E00091810E94A20A0E9448090895A5E0B0E0F9
:1012F000ECE7F9E00C9473322596E2E00C948F321F
:10130000A6E0B0E0E6E8F9E00C9473322696E2E05D
:101310000C948F3208950E948A0908950E948B09C7
:10132000809342020E942D09089508950E948E091B
:10133000089590914202892B0E948E090895909100
:10134000420289230E948E090895909142028927C2
:101350000E948E0908950E948A0908950E94AB098F
:1013600008950E94AE09809341020E942D090895BC
:1013700080E00E94B109089591E001C0990F8A951B
:10138000EAF7892F0E94B109089521E030E001C0F9
:10139000220F8A95EAF780914102822B0E94B109BF
:1013A000089521E030E001C0220F8A95EAF72095E8
:1013B0008091410282230E94B109089521E030E02A
:1013C00001C0220F8A95EAF78091410282270E948C
:1013D000B109089590914102892B0E94B1090895A5
:1013E0009091410289230E94B10908959091410290
:1013F00089270E94B10908950895262F277091E04A
:1014000001C0990F2A95EAF723E0769567952A950A
:10141000E1F7FB01EE0FFF1FE60FF71FE40FF51FCB
:1014200050E040E0682F70E08191DF0111979B014F
:10143000042E02C0369527950A94E2F72170219573
:101440002827292328272C934F5F5F4F43305105CE
:1014500059F70895A82FA77023E0969587952A95A8
:10146000E1F7FC01EE0FFF1FE80FF91FE60FF71F72
:1014700050E040E080E0219130E00A2E02C0369535
:1014800027950A94E2F721703327042E01C0220F1A
:101490000A94EAF7822B4F5F5F4F4330510559F7AB
:1014A0000895262F9A3070F4853060F4682F70E02C
:1014B00085E0989F600D711D11244CE252E0822F4F
:1014C0000E94FD090895292F9A3068F4853058F458
:1014D00090E06CE272E035E0239F800D911D1124B5
:1014E0000E942A0A089580E00895CF92DF92FF9229
:1014F0000F931F93CF93DF936C0100914102809172
:101500004202082BC7E0D0E010E0FC2EC8010C2EF0
:1015100002C0959587950A94E2F780FD0CC021974B
:10152000A0F7F12C8F2DDF91CF911F910F91FF909C
:10153000DF90CF900895B6018C2F0E941C11019767
:1015400071F3F0CFCF93DF93EC010E94750ABE01D7
:101550000E941C11DF91CF9108951F93CF93DF93C9
:10156000EB0190912B02992339F0CB010E94A20A42
:10157000DF91CF911F910895882369F0CB010E94DC
:10158000750A182F682FCE010E94510ABE01812FC3
:101590000E941C11EDCFCB010E94630A182FF6CFD9
:1015A0001F93CF93DF93C091430216E080914402D2
:1015B0008C1304C0DF91CF911F910895D0E01C9F40
:1015C000F0011D9FF00D1124EB5BFD4F4081518117
:1015D00062817381848195810E9480092196C77000
:1015E000E5CF40917502509176026091770270913B
:1015F00078028091790290917A020E948009089580
:101600001F93CF93DF9380917A02807F09F049C0C6
:1016100080917702882309F444C080914302C091ED
:1016200044026091750270917602A0917802B091A7
:101630007902D62FD72316E0C81799F190E01097BA
:1016400011F0DF3F19F401968770F6CF189F9001D3
:10165000199F300D1124F901EB5BFD4F41814713B8
:10166000F2CF40814613EFCF42814111ECCF43814D
:1016700054814A1B5B0B483C510528F780917A0244
:101680008F70806180937A02F901E65BFD4F808163
:101690008F708061808385E792E00E9403090E9439
:1016A000D00ADF91CF911F910895A1E1B0E0EBE561
:1016B000FBE00C946B328C0185E0F801DE011D9695
:1016C00001900D928A95E1F7F801E28085E7C82E36
:1016D00082E0D82E609178027091790261157105CF
:1016E00009F44EC19091750220917602892F8223D0
:1016F0008F3F09F445C140815181A380B480F090AF
:101700007702F501E61BF70BFF2009F4EAC0809190
:101710007A02382F307FE83CF10508F0A3C0311180
:101720006DC0FE2C251316C0941314C0E11012C016
:101730008F70806180937A020E94F10AC6010E9434
:10174000030980917A02F80185838F2D6196EAE082
:101750000C948732A114B10429F0842F85238F3F84
:1017600009F027C180E0F82FF170DF2E80FF3CC028
:10177000809143022091440236E0821315C04D87C8
:101780005E878D859E850E94A20A292F22952F7043
:101790002230F0F0243018F59F70F1F0F8019581B7
:1017A000907FD1F4D12C1EC090E0389FF001399F7A
:1017B000F00D1124EB5BFD4F6181651306C0608164
:1017C000641303C06281E6120FC001968770D5CF03
:1017D0009F7011F0882331F3805E883018F3C801C0
:1017E0000E940309FD2CB1CFEE2009F4AECF809109
:1017F0007A02816080937A02F12CA7CF251306C06C
:10180000941304C0F801EE2009F487C0C8010E94B7
:101810006309882319F1EE2009F180917A02803260
:1018200070F0209175023091760238872F831986E7
:10183000BB86AA868C87CE0107960E94030986E0A4
:10184000F801A5E7B2E001900D928A95E1F70E94B8
:10185000000B0E94F10AFF24F39477CFC8010E9485
:101860000309F9CF311113C07A2DB98AA88A6E2DD8
:1018700089890E94760985E792E00E94030986E043
:10188000F60111928A95E9F70E94F10AB5CF251366
:101890000FC094130DC0E1100BC0F8018583C8017F
:1018A0000E94030986E0F60111928A95E9F74DCF6F
:1018B000C8010E946309882389F2EE2079F28091A1
:1018C0007A02803208F4BBCF209175023091760203
:1018D0003A8329831B82BD82AC828E83CE0101961E
:1018E000ACCFE83CF10508F03EC0FE2CEE2009F438
:1018F000B5CF25132AC0941328C080917A0280FDA9
:101900001BC0982F907FC1F0F8018583903F31F084
:10191000982F907F905F8F70892B8583C8010E94DC
:10192000030986E0F801A5E7B2E001900D928A95DF
:10193000E1F70E94F10A09CF86E0F801A5E7B2E0DD
:1019400001900D928A95E1F700CFC8010E946309CA
:10195000811175CF80917A02816080937A02C801EB
:101960000E940309F2CE7A2DB98AA88A6E2D898940
:101970000E94760986E0F60111928A95E9F7D9CF9F
:10198000EE2009F46BCFC8010E946309F82E88236A
:1019900009F464CF86E0F801A5E7B2E001900D926A
:1019A0008A95E1F785E792E00E94A0050E94000B6E
:1019B000C0CF81E08E25D7CEACE0B0E0E2EEFCE017
:1019C0000C9472324F83588769877A878B879C87FC
:1019D000CE0107960E94550B882369F08A859B8566
:1019E000892B39F04F815885842F85238F3F09F04B
:1019F0006BC016E05FC086E0FE013796DE011196EF
:101A000001900D928A95E1F78A859B85892B89F350
:101A10008F81988589238F3F61F32091440230E0C4
:101A2000C90101968770992740914302481719060A
:101A300071F40E944309109244021092430286E01E
:101A4000E5E7F2E0DF011D928A95E9F7D2CF96E053
:101A5000929FD001939FB00D1124AB5BBD4FFE014F
:101A6000319601900D929A95E1F7809344020E947D
:101A7000D00ABFCF819FC00111248B5B9D4F0E9474
:101A8000550B8823E9F0E09143021E9FF0011124D9
:101A9000EB5BFD4F4081518162817381848195812F
:101AA0000E9480098091430290E0019687709927F7
:101AB0008093430280914302909144028913DACFCC
:101AC0002C96E3E00C948E3269857A858B859C8513
:101AD0000E9480098ECF682F809128019091290162
:101AE0000E9476290895682F8091280190912901FC
:101AF0000E947929089580912801909129010E94DE
:101B00007C29089580918302859585958595089512
:101B1000809183028770089590918302977081E08D
:101B200009F480E0089580918E02089590918E02CC
:101B3000892B80938E020895809590918E02982330
:101B400090938E02089510928E02089590918D02C6
:101B5000892B80938D020895809590918D02982312
:101B600090938D02089510928D02089580918402C1
:101B7000089508950E94B90D08959091510392FF20
:101B800008C090918402981721F0809384020E94EB
:101B9000BA0D089580918402882329F0109284025E
:101BA00080E00E94BA0D0895CF93DF93E091280161
:101BB000F091290180918E028083E0912801F091BB
:101BC0002901808190918D02892B808390918402DC
:101BD000992381F0E0912801F09129018081892BDE
:101BE000808380912801909129010E942E298111E2
:101BF0000E94CA0DC0912801D091290148E050E00F
:101C00006BE772E0CE010E949A32892B59F088E08E
:101C1000FE01ABE7B2E001900D928A95E1F7CE01AB
:101C20000E94E928DF91CF91089508950E94150E32
:101C300008959091510392FF11C098E0899F9001FF
:101C40001124622B609383020E94C5098091830254
:101C50008595859585950E94160E08950E94C50963
:101C600008951092830280E00E94160E08959091CC
:101C700083028095892380938302282F277091F413
:101C8000282F082E000C330B9217130659F0909151
:101C9000510392FF07C08595859585950E94D109CE
:101CA0000E94310E08959091510392FB222720F952
:101CB000281769F080FB92F99093510380915003AB
:101CC000909151030E94A50E82E00E94370E089564
:101CD0008091510382FB882780F991E089270E9437
:101CE000530E089581E00E94530E089580E00E94F3
:101CF000530E08956FEF7FEF90E080E00E94DC329A
:101D0000089590E080E00E94B832883E9E4F19F41A
:101D10000E94FD1B089580E0089582E090E00E94FB
:101D2000B032089583E090E00E94B0320895CF93DE
:101D300084E090E00E94B032C82F82E290E00E94DE
:101D4000B032982F8C2FCF910895CF93C92F682F41
:101D500084E090E00E94BE326C2F82E290E00E940C
:101D6000BE32CF910895AB01BC018FE090E00E949C
:101D7000D0320895AB01BC0183E190E00E94D032E3
:101D8000089560E070E0CB010E94BA0E089560E013
:101D900070E0CB010E94B30E0E94C10E089568EE60
:101DA0007EEF90E080E00E94DC3260E082E090E034
:101DB0000E94BE3260E083E090E00E94BE3210924A
:101DC000420260E084E090E00E94BE3264E082E281
:101DD00090E00E94BE3260E085E090E00E94BE325A
:101DE00060E086E090E00E94BE326FEF87E090E016
:101DF0000E94BE3240E050E0BA0188E090E00E94CC
:101E0000D03260E08DE090E00E94BE3240E050E0D1
:101E1000BA0188E190E00E94D03260E087E190E072
:101E20000E94BE3240E050E0BA018CE190E00E9496
:101E3000D03270E060E080E290E00E94DC3240E06E
:101E400050E0BA0188E190E00E94D03280E00E9428
:101E5000161C0E94451C0E94C70E08950E94CF0EBA
:101E60000895682F8EE090E00E94BE3208950E948F
:101E70003E2A6093A3027093A4028093A5029093DC
:101E8000A60260939F027093A0028093A102909398
:101E9000A20208950E943E2A6093A3027093A402B6
:101EA0008093A5029093A60260939B0270939C027C
:101EB00080939D0290939E020895089508950E9434
:101EC0005E0F089508950E94620F089586E492E1DE
:101ED0000E94CB280E945D0F0E945F0F08950E9410
:101EE00069140895089508950E94720F0E94730F57
:101EF00008950E9462120E943F0508950E94292AB7
:101F00000E9406120E94551C0E9492140E948B137C
:101F10000E94790F0E94511D80E00E94AC1D0E941A
:101F2000BD210E949C140E94FF190E94630F089516
:101F3000AAE0B0E0EEE9FFE00C946B320E94E913F6
:101F400081E9A82E82E0B82E750110E0F701019119
:101F50007F01812F0E9484121F5F1A3009F441C053
:101F60000817A1F38091A70281FD0E948A120E94A6
:101F70006F0FC82E10E0812F0E948412082FF501E8
:101F800081915F01081731F1D02ED826F12CEE2473
:101F9000E3948D2D8E21B1F0CC20A1F0FE821F8321
:101FA00091E0802F8E2109F490E098870E94322AD8
:101FB0008160782F9A8789874E815F8168858A85BD
:101FC0000E946B05F394EE0CF5E0FF12E2CFF501F1
:101FD000319700831F5F1A3071F60E94370F11E0AE
:101FE00021C00813BFCF0E94322A8C0180918F023A
:101FF0009091900208171907A1F08FEF89838A83C7
:102000001B820E94322A8160782F9D838C834981B4
:102010005A816B818D810E946B0510939002009311
:102020008F0210E00E9469140E945222082F811131
:102030000E944A0F0E944A1F111101C001110E9403
:102040000B1E0E94C5180E94271A0E9452052A964C
:10205000EAE00C948732CF93DF930E942111EC01C8
:10206000811521E5920708F042C0811530E59307FC
:1020700008F09FC0883E910530F5803E910508F03C
:1020800094C0883A910588F4853A910508F086C095
:102090008130910509F489C0009709F486C004973E
:1020A00008F083C0D0E0C0E080C08F3B9105D0F73E
:1020B000C85AD0E0CC0FDD1FCE53DE4F0990D88137
:1020C000C02DD46472C0811540E2940750F4C1154C
:1020D00081E0D80708F069C0C03FD10518F3D0658A
:1020E00064C081159044F0F2DF70D06A5EC0811543
:1020F00035E5930718F5811544E5940708F085C088
:10210000C11583E5D80708F06CC0C11522E5D207D8
:1021100008F462C0CE018370992721E030E002C04C
:10212000220F331F8A95E2F7C695C69580E2C89FB5
:10213000E0011124C22BD32BDC6837C0811539E5AF
:102140009307A8F4811548E5940708F063C0C1150A
:1021500086E5D80708F0A6CF8C2F0E94C311C82FA0
:10216000D0E0DC2FCC27CC27DF71D0621EC08115D8
:102170002AE5920708F453C090568115904208F062
:1021800091CF8D2F8F710E94C31190E0982F8827D7
:1021900088279F719C012C2BE901E7CFC55AD0E01D
:1021A000C051DE4FC881D0E0D064CE01DF91CF9125
:1021B00008958370992721E030E002C0220F331F79
:1021C0008A95E2F7C695C69540E2C49FE0011124C6
:1021D000C22BD32BDD68E9CFDC2FCC27C16FD06AAF
:1021E000E4CFCE018370992721E030E002C0220FB6
:1021F000331F8A95E2F7C695C69540E2C49FE00179
:102200001124C22BD32BDA68D0CFD82FCC27C46FA0
:10221000D06ACBCFD82FCC27C06FD06AC6CF8F70F3
:102220000E94C31134E0D695C7953A95E1F7CF7077
:102230009C2FEC01D069B9CF0E94FC230E942B1087
:10224000089582389105B9F1B0F48133910509F40C
:102250007DC048F48932910509F46DC08A32910538
:1022600009F47BC008958533910509F45FC0893373
:10227000910509F10895833E9105D9F138F4803E26
:10228000910529F1823E910579F10895863E9105E7
:10229000D9F1873E910509F43EC0843E910541F590
:1022A0002091510321FF24C08091500384FD19C067
:1022B00087EE90E0089520915003237009F05AC0F2
:1022C0002091510323FF14C089E290E008952091EA
:1022D000500320FD38C03091510330FF09C024FF66
:1022E00043C090E080E008952091500322FDF7CF95
:1022F00008952091500322FD3AC03091510330FDE2
:1023000039C024FFF5CFEDCF2091500323FFF0CF4C
:1023100024FDE7CFCDCF2091500323FD2EC0309177
:10232000510331FFEECF84EE90E0089520915003E9
:1023300025FFDECFC9CF2091500325FD21C020917C
:10234000510323FFD5CF89E390E0D2CF20915003F2
:1023500026FFCECF8AE290E008952091500326FF19
:10236000C7CF81E390E0089583EE90E0089582EE78
:1023700090E0089580EE90E0089586EE90E0089554
:1023800085E390E008959091500392FF06C0282FB6
:1023900028712830F9F4877F846093FF06C0282FC6
:1023A00028712831F1F4877E84612091510320FF48
:1023B00006C0382F38713830D9F4877F816021FF0B
:1023C00006C0282F28712831D1F4877E816194FDC1
:1023D000877E0895282F24712430F9F68B7F88603A
:1023E000DCCF282F2471243101F78B7E8861DDCF6B
:1023F000382F3171313019F78E7F8860E0CF282F68
:102400002171213121F78E7E8861E1CF10924C033A
:1024100010924D0310924E0310924F030895CF92E5
:10242000DF92EF92FF926B017C010E94691481118F
:102430000EC00E943E2AC61AD70AE80AF90AC092BC
:102440004C03D0924D03E0924E03F0924F03FF9065
:10245000EF90DF90CF9008950F931F930E9469141F
:10246000882329F00E943E2A1F910F9108950E940F
:102470003E2A00914C0310914D0320914E03309160
:102480004F03600F711F821F931FEECF80E00895EE
:102490000E947A0E08950E94E9138FE39CE9019748
:1024A000F1F700C000000E94E91380E00E9484124E
:1024B00080FF04C00E9448120E94992A08950E9439
:1024C0004B1208950E94810E811102C00E942E0FAE
:1024D0000E948D0E8093A7020E94970E9093510345
:1024E000809350030E945F120E94920E0E949609F0
:1024F000809141020E94AE09089508950E947D12C4
:1025000008950E9477020895E82FF0E0E35AFC4F07
:1025100080810895089580EA8A95F1F7089500C0B2
:1025200008950E948B12089508950E9494120895B0
:10253000A5E0B0E0EEE9F2E10C946F320E9469147C
:10254000F82E60916703882309F440C085E0E82EE7
:102550008E010F5F1F4FF8018E2D11928A95E9F7BA
:10256000862F90E0B801835A9C4F0E94AA148823BA
:10257000B9F08091520390E045E050E0B801835AF1
:102580009C4F0E949A3221E02093A802892B91F45B
:10259000F12C0E94B2048F2D2596E6E00C948B322C
:1025A0008091A8028823A1F3F8011192EA94E9F737
:1025B0001092A802A0915203B0E0A35ABC4F85E04C
:1025C000F80101900D928A95E1F7E3CF70E0635A2C
:1025D0007C4F8091520390E0835A9C4F0E943115AA
:1025E0000E949512D8CFF894E82FE295EF70F0E0B2
:1025F00031A1282F2F7081E090E001C0880F2A952B
:10260000EAF7982F9095932391A392A1892B82A307
:1026100078940895CF93DF93CAE2D1E089918F3FF8
:1026200011F00E94F31281E0CF32D807B9F7CFE260
:10263000D1E089918F3F11F00E94F31281E0C43301
:10264000D807B9F7DF91CF910895B0E0A0E0EBE2B1
:10265000F3E10C946D327C01162F042FC62FD0E0CD
:10266000C65DDE4F28812F3F09F44CC0F894E22F5D
:10267000E295EF70F0E031A12F7081E090E001C0B1
:10268000880F2A95EAF7932F982B91A392A1809512
:10269000892382A378940E948F128FE2C82E81E052
:1026A000D82EF701A7014B5F5F4FF12CE02EE0948D
:1026B000D6019D916D0181919F01215031099F3F6C
:1026C00031F1692F62956F7070E0DB0190966C912B
:1026D00070E09F7002C0759567959A95E2F760FD6E
:1026E00016C0802BD9018C93FF24F394E417F507CF
:1026F000F9F688818F3F11F00E94F3126F2D812F20
:102700000E949112CDB7DEB7E8E00C9489328E2199
:10271000D9018C93EBCFAAE0B0E0E1E9F3E10C94AE
:10272000733280913401811130C085E0E7E8F1E037
:10273000DE01169601900D928A95E1F78E818093C5
:102740002F018F81809330018885809331018985A5
:10275000809332018A858093330185E0ECE8F1E0D3
:10276000DE01119601900D928A95E1F7898180939F
:102770002A018A8180932B018B8180932C018C818B
:1027800080932D018D8180932E018091340195E0FD
:10279000811190E09093670385E0891B8093520339
:1027A0000E940A138AE0EDE5F3E0DF01982F1D9205
:1027B0009A95E9F7E3E5F3E0DF011D928A95E9F7E1
:1027C00085E00E942B140E94AF042A96E2E00C944C
:1027D0008F32AAE0B0E0EFEEF3E10C946F328E019D
:1027E0000F5F1F4F8AE0F80111928A95E9F7F12CEB
:1027F000EE24E3944E2D6F2DC8010E942513F3940F
:10280000EE0CF5E0FF12F6CF4AE050E0B80183E5A8
:1028100093E00E949A3221E0009709F420E0892B8E
:1028200041F08AE0F801A3E5B3E001900D928A95AA
:10283000E1F76091670370E0635A7C4F45E083E500
:1028400093E00E942C14182F0E949812812B2A9634
:10285000E6E00C948B320895CF92DF92EF92FF92D4
:102860000F931F93CF936C017B01042F222349F018
:1028700081E08093AB020E94322A9093AA02809357
:10288000A902C091AB02C1110AC0C0E08C2FCF9148
:102890001F910F91FF90EF90DF90CF90089580915E
:1028A000A9029091AA020E944A2A059770F310E0AB
:1028B000A801B601C7010E949A32892B41F0A801F4
:1028C000B601C7010E94A7321092AB02DFCFC0E071
:1028D000FBCFCF93DF938091AE02811117C0C8EC7C
:1028E000D0E00E94283281110EC08FE39CE901974D
:1028F000F1F700C000002197A1F782E08093AE02BB
:102900000E94233203C081E08093AE0281E0909167
:10291000AE02913009F080E0DF91CF9108950E94DE
:10292000691408950E948F14809334010E946914E1
:1029300081110E94E01408950E946914811102C05F
:102940000E94E314089581E09091AF029A3008F05C
:1029500080E008950F931F93CF93DF93EC018B01D9
:102960008091AF028A30B8F4B801CE010E942E15D2
:10297000C82F811122C08091AF028F3FB9F40E940D
:10298000322A9093AD028093AC028C2FDF91CF91CD
:102990001F910F9108958091AC029091AD020E9419
:1029A0004A2A843F914000F7C0E0EFCF8F5F8093C9
:1029B000AF028A3020F7C1E0E8CF1092AF02E5CF36
:1029C0000E94692708950E946C270895B0E0A0E056
:1029D000ECEEF4E10C946E327901C82F880FDD0B18
:1029E00041155105A9F0FE0193E0EE0FFF1F9A95E6
:1029F000E1F7EB5CFE4F8181928180559D4F2081F4
:102A000030E04217530708F49A01A9010E94A73247
:102A1000CE010E945528D82E8823D1F0011511052A
:102A2000B9F083E0CC0FDD1F8A95E1F7FE01EB5C86
:102A3000FE4F438150E00417150708F4A801CB5C52
:102A4000DE4F6C817D8160557D4FC7010E94A732AA
:102A50008D2DCDB7DEB7E7E00C948A320E948C163C
:102A600008950E94B5160895A4E0B0E0EAE3F5E108
:102A70000C9471326091CF027091D0028091D1029A
:102A80009091D2020E94592A11E0643671058105A5
:102A9000910518F10E942C126E5F7F4F8F4F9F4F50
:102AA00069837A838B839C8310E000E030E020E030
:102AB00044E050E0BE016F5F7F4F84E00E94E61467
:102AC000182F882351F00E943E2A6093CF02709302
:102AD000D0028093D1029093D202812F2496E4E019
:102AE0000C948D32A1E0B0E0E8E7F5E10C94683297
:102AF000762E4A015901680101E010E09E012F5F26
:102B00003F4F50E040E070E060E00E94E614182F74
:102B1000882399F1F40160817181828193810E94FF
:102B2000592A643671058105910500F187019501E7
:102B300050E040E070E060E0872D0E94E614B82E7F
:102B4000B701C6010E94521D11E09981981310E04F
:102B50001B2139F00E943E2AF40160837183828335
:102B60009383812F2196EDE00C948432B701C60146
:102B70000E94521D99818913D9CFA701B601C501C1
:102B80000E94A732EECFA2E0B0E0E9ECF5E10C94B0
:102B90006F320091F3011091F401095F1F4F82E041
:102BA000E82EF12C9E012F5F3F4F4BEC52E063E08B
:102BB00082E00E947215182F882321F0CE01019621
:102BC0000E94E222812F2296E6E00C948B32A5E04F
:102BD000B0E0EDEEF5E10C946D326B010091F30184
:102BE0001091F4010F5F1F4F85E0E82EF12C9E013C
:102BF0002F5F3F4F47EC52E061E080E00E9472158A
:102C0000882349F095E0FE013196A2ECB2E00190F4
:102C10000D929A95E1F795E0E2ECF2E0D601019091
:102C20000D929A95E1F72596E8E00C948932B0E090
:102C3000A0E0EDE1F6E10C946B327C015B016A01EE
:102C40000E94A31401E010E0882311F00AE010E0D4
:102C5000C1E0D0E0B501C701F6010995811104C0BA
:102C600021960C171D072CF4CDB7DEB7EAE00C94C3
:102C70008732CC9F9001CD9F300D300D112490E014
:102C800080E045E34A95F1F700000196821793072B
:102C9000C1F7E0CFA1E0B0E0E0E5F6E10C947132DD
:102CA0000E94421F082F8983E091F301F091F40103
:102CB00015856091D3027091D4028091D5029091D4
:102CC000D6020E94592A643671058105910530F4B7
:102CD000812F90E011E008171906C9F010E000E01C
:102CE00030E020E041E050E0BE016F5F7F4F85E0C3
:102CF0000E94E614182F882351F00E943E2A609308
:102D0000D3027093D4028093D5029093D602812F80
:102D10002196E4E00C948D320F931F93CF93DF93B1
:102D2000EC018B0147EE55E10E941716811106C098
:102D300080E0DF91CF911F910F91089543EC55E111
:102D4000B801CE010E941716882391F344E355E1A0
:102D5000B801CE010E941716882351F34AE456E1C8
:102D6000B801CE010E941716E4CFA2E0B0E0EBEB71
:102D7000F6E10C946D320091F3011091F401C80159
:102D8000019625E0FB01DC0101900D922A95E1F707
:102D900065E070E00E94521DF8018083CE0101962B
:102DA0000E94D72289819A81F8019087878362E007
:102DB00070E0CE0101960E94521DF8018683618564
:102DC000728583859485C090BE02D090BF02E0904A
:102DD000C002F090C1026C157D058E059F0551F073
:102DE0006093BE027093BF028093C0029093C102B1
:102DF0000E940F12F8018585882331F00E940B1E76
:102E00002296E8E00C9489320E94271FF9CF0E9495
:102E1000822C0E947E0F0E948F2C08950E94942C79
:102E20000E94980F0E94AE2C08950E94CB290E9408
:102E3000682C0E94660F0E9407170E940E170E94BE
:102E4000740FFBCF8091DD0280FF0DC060916A019D
:102E500070E0660F771F6038710570F561157105B8
:102E600069F1862F089581FF07C060916A0184E0AF
:102E7000689FB0011124EFCF60916A0182FD0AC002
:102E80008091DC028823A9F02091690160916A0198
:102E9000821710F088E0ECCF869FC001112433E048
:102EA000880F991F3A95E1F7622F70E00E94423235
:102EB000D2CF68E070E0D5CF8FE7089581E0089524
:102EC0008091DD0280FF0CC06091660170E0759515
:102ED0006795759567956115710549F1862F089578
:102EE00081FF06C06091660170E075956795F3CF2C
:102EF0006091660182FD0BC09091DB029923A1F0E5
:102F00006091650180916601961738F0682F70E036
:102F10006038710500F38FE70895899FC00111247F
:102F200070E00E944232F4CF61E070E0D7CF81E0E0
:102F30000895803F31F40E94221781958093E10229
:102F40000895813F19F40E942217F8CF823F31F48F
:102F50000E94221781958093E0020895833F19F41F
:102F60000E942217F8CF893F29F40E9460178093AE
:102F7000E20208958A3F21F40E9460178195F7CFFD
:102F80008B3F31F40E94601781958093E30208958E
:102F90008C3F19F40E946017F8CF9CE0980F953091
:102FA00070F4845F990B21E030E001C0220F8A9514
:102FB000EAF78091DF02822B8093DF0208958D3F34
:102FC00031F48091DD0281608093DD0208958E3FAF
:102FD00021F48091DD028260F7CF8F3FB9F78091B5
:102FE000DD028460F1CF4091E002803F59F480918E
:102FF000E10287FF0DC01092E10241110BC0109257
:10300000DC0208C0813F81F48091E10218169CF334
:10301000442381F08091E2029091E302892B09F030
:103020005AC01092DB020895823F49F447FFF0CF67
:103030001092E0028091E1028111ECCFE0CF833F5A
:1030400019F41416ACF3E4CF9091E202893F29F40D
:103050001916F4F61092E202DBCF8A3F19F497FFBB
:10306000D7CFF8CF9091E3028B3F29F497FFD0CFD1
:103070001092E302CDCF8C3F19F41916CCF3C8CFD0
:103080009CE0980F953090F4845F990B21E030E03C
:10309000B90102C0660F771F8A95E2F7CB018095D0
:1030A0009091DF0289238093DF02B2CF8D3F31F40C
:1030B0008091DD028E7F8093DD02AACF8E3F21F4C6
:1030C0008091DD028D7FF7CF8F3F09F0A1CF8091F6
:1030D000DD028B7FF0CF08950E94322A9C019091EF
:1030E000E0028091E102982B21F03093DA022093E4
:1030F000D9029091E2028091E302982B21F0309363
:10310000D8022093D7028EED92E00E94F428089511
:1031100086E0EEEDF2E0DF011D928A95E9F710926C
:10312000DC021092DB021092DD020895A6E0B0E00E
:10313000ECE9F8E10C94733286E0EEEDF2E0DE01AA
:10314000119601900D928A95E1F729813A814B8180
:103150005C816D817E8180E090E02696E2E00C94B7
:103160008F32FC01828181110EC0838181110BC0DD
:103170008481811108C091E08581811101C090E0B6
:10318000892F8170089581E0FCCFA6E0B0E0EBECE0
:10319000F8E10C94723286E0EEEDF2E0DE01119679
:1031A00001900D928A95E1F71092E0021092E102EF
:1031B0001092E2021092E3028B819C81892B89F0AC
:1031C0008091D9029091DA020E944A2AAC01909132
:1031D000DC029923C9F180916B018417150608F46C
:1031E00040C08D819E81892B91F08091D702909172
:1031F000D8020E944A2AAC019091DB02992309F47B
:1032000071C0809167018417150608F479C0BE016A
:103210006F5F7F4F8EED92E00E948329811105C080
:103220008EED92E00E94B11881110E946C1886E028
:10323000FE013196AEEDB2E001900D928A95E1F774
:103240002696E3E00C948E3220916C018AE0289F50
:10325000900111242417350720F69F5F9093DC021C
:1032600002C09F3FD1F71B81112359F00E94221702
:103270009FEF11160CF491E0899F802D112480930B
:10328000E0021C81112359F00E9422179FEF1116B2
:103290000CF491E0899F802D11248093E1023091FC
:1032A000E002332309F49DCF2091E102222309F4A7
:1032B00098CF45EB3403C0011124992359F0909322
:1032C000E00245EB240390011124332339F03093BD
:1032D000E10287CF81E08093E002F3CF81E0809329
:1032E000E1027FCF209168018AE0289F900111249C
:1032F0002417350708F08BCF9F5F9093DB0202C045
:103300009F3FD1F71D81112359F00E9460179FEF55
:1033100011160CF491E0899F802D11248093E20214
:103320001E81112359F00E9460179FEF11160CF4B3
:1033300091E0899F802D11248093E3023091E20275
:10334000332309F464CF2091E302222309F45FCFF1
:1033500045EB3403C0011124992359F09093E20204
:1033600045EB240390011124332339F03093E30219
:103370004ECF81E08093E202F3CF81E08093E302BD
:1033800046CF08950895ACE0B0E0E9ECF9E10C9483
:1033900073324F83588769877A878B879C8786E04B
:1033A000FE013796DE01119601900D928A95E1F7A4
:1033B00029813A814B815C816D817E8180E090E042
:1033C0002C96E2E00C948F32ACE0B0E0EAEEF9E14A
:1033D0000C9473320E94C31980E090E02C96E2E0D6
:1033E0000C948F3221E030E001C0220F4A95EAF7B9
:1033F000662311F0822B0895209582230895E09191
:10340000F501F091F60109950E94C1190E94C219B7
:10341000089568EE72E08EEE92E00E948329882380
:1034200021F08EEE92E00E94F4281092F0021092A9
:10343000F1021092F2021092F30286E0EEEEF2E058
:10344000A8EEB2E001900D928A95E1F70895A2E10D
:10345000B0E0EDE2FAE10C9473326091E402709115
:10346000E5028091E6029091E7020E94592A672BBB
:10347000682B692B09F46EC00E943E2A6093E40217
:103480007093E5028093E6029093E702E091F701E2
:10349000F091F8014091EE025091EF026091F0023C
:1034A0007091F1028091F2029091F30209952093BC
:1034B000EE023093EF024093F0025093F1026093DA
:1034C000F2027093F30286E0EEEEF2E0DE011D966A
:1034D00001900D928A95E1F786E0FE013D96DE01AE
:1034E000119601900D928A95E1F786E0FE013196E2
:1034F000DE01179601900D928A95E1F786E0FE01B4
:103500003796AEEEB2E001900D928A95E1F74091C8
:10351000EE025091EF026091F0027091F102809101
:10352000F2029091F3020E94E4192093EE0230938C
:10353000EF024093F0025093F1026093F202709315
:10354000F3020E9496188091EF02832B8093EF0282
:103550000E94091A6296E2E00C948F32A6E0B0E075
:10356000E4EBFAE10C94733286E0EEEEF2E0DE0179
:10357000119601900D928A95E1F729813A814B814C
:103580005C816D817E8180E090E02696E2E00C9483
:103590008F32A6E0B0E0EFECFAE10C94733249838D
:1035A0005A836B837C838D839E8386E0FE013196F4
:1035B000AEEEB2E001900D928A95E1F72696E2E038
:1035C0000C948F32FC01208131812038310534F098
:1035D0002F573109318320838FE7089520388FEFEB
:1035E000380734F421583F4F3183208380E8089511
:1035F000822F118210820895A1E1B0E0E2E0FBE1A8
:103600000C9470324C87888B998B152FF62E072FD0
:10361000CE01079625E0FC0111922A95E9F7209149
:10362000FA022A3008F03FC00E94C01B892B09F023
:1036300060C01092FA028B8540E087FD52C060E0C6
:10364000812F0E94F219182F8091F8029091F902AF
:10365000009709F040C046E06F8188850E94D71B23
:103660002091F6023091F702820F931F9093F70298
:103670008093F60246E069858A850E94D71B2091D7
:10368000F4023091F502820F931F9093F50280931C
:10369000F40286EF92E00E94E21AF82E84EF92E0A4
:1036A0000E94E21A082F1D87FE860F8786E0FE0122
:1036B0003C96DE01119601900D928A95E1F72981E1
:1036C0003A814B815C816D817E8180E090E06196E2
:1036D000E5E00C948C3201979093F9028093F80204
:1036E000E2CF61E0812F0E94F219182F84E190E06F
:1036F000F3CF8091FA028F5F8093FA02D4CF80914A
:103700006D0190916E012DE7AC01249FC001259FB2
:10371000900D112408959C01893F910538F481E0B2
:1037200090E090936E0180936D010895EDE7F0E0D5
:10373000BF010E942E32A901481B590BCA01BF01CB
:103740000E942E3270936E0160936D010895A4E083
:10375000B0E0EDEAFBE10C94713289836A834B831C
:103760002C8304E610E024E030E0AE014F5F5F4FB1
:1037700060E084E10E949B262496E4E00C948D3264
:103780000F931F9304E610E025E030E0AC0164E005
:1037900084E10E94C2261F910F9108950E949425F2
:1037A00020E040E060E080E00E94A71B08956817D9
:1037B00008F5861B682F21E0469FA0011124649F15
:1037C000F001659FF00D112440916D0150916E0143
:1037D000E49FC001E59F900DF49F900D1124880F88
:1037E000892F881F990B9195222319F09195819526
:1037F00091090895681B20E0DFCF83E290E00E94EA
:10380000B032823289F484E290E00E94B032813199
:1038100059F485E290E00E94B03291E0833209F0E1
:1038200090E0892F8170089580E0FCCFCF93C82F5E
:103830006FEF811162E283E290E00E94BE326FEF8F
:10384000C11161E184E290E00E94BE326FEFC111CC
:1038500063E285E290E00E94BE32CF910895089520
:1038600086E290E00E94B032682F70E090E080E045
:1038700008950895CF93C62F0E94391C6C2F86E2BD
:1038800090E00E94BE32CF91089580E00E94161C05
:1038900060E070E0CB010E943A1C0E9476230E94F7
:1038A000592481E00E94161C08950E942F1C0E943A
:1038B000301C0E94391C0E94FD1B811102C00E9415
:1038C000451C0895CF93FB01C281CC2309F19C01D3
:1038D00022513F452031310520F582510E94692453
:1038E000C0E08C2FCF91089581E00E94C50943E08C
:1038F00062E081E00E94A504F3CF81E00E94D1093B
:1039000043E062E081E00E94A504EBCF82E0F6CFC5
:103910008031FFE59F0789F381319F45B9F3C1E00D
:10392000E0CF8031EFE59E07F9F281319F45C9F67E
:1039300082E0DBCF2FEFFC0120830895EF92FF920E
:103940000F931F93CF93DF93EC01062FE881E15093
:10395000E33108F05DC0F0E0E050FD4C0C945632CD
:1039600019828AE08A83602FCE010E943B2BCDB75B
:10397000DEB7E6E00C948B328981823069F08330C7
:1039800071F08130D9F40E943E2A0E945C326A8331
:103990007B838C839D83E7CF0E94301CF6CF7E0112
:1039A00082E0E80EF11C10E0812F0E948412F701E2
:1039B00081937F011F5F1A30B9F7D5CF602FCE01F9
:1039C0000E949A1CD0CF89818230C1F76A817B81A5
:1039D0008C819D810E945C320E943A1CC4CF4B8135
:1039E0006A8189810E9438239827892798279D8397
:1039F0008C83B9CF2C813D813227232732274B81FD
:103A00006A8189810E945A23AECF0E947623ABCF70
:103A10008FEF8883A8CF0E940A248983A4CF0E94B5
:103A20000C249827892798279A8389839CCF6B81B8
:103A300070E089819A81AE014C5F5F4F982789279A
:103A400098270E940F248FCF6B8170E089819A8123
:103A5000AE014C5F5F4F9827892798270E94342436
:103A600082CF0E9459247FCF0E942623D6CF6B811C
:103A700070E089819A81AE014C5F5F4F982789275A
:103A800098270E94B4236FCF6B8170E089819A815F
:103A9000AE014C5F5F4F9827892798270E94D82353
:103AA00062CF0895FC01680F791F8FEF91E36E17C5
:103AB0007F0709F408952191822728E030E087FFED
:103AC00006C0880F892721503109C9F7F0CF880F28
:103AD000FACFB0E0A0E0EFE6FDE10C946D326C01AE
:103AE0007B0164E670E088E70E949A25EC0197FD6F
:103AF00012C010E000E0F601E00FF11F849164E6CF
:103B000070E00E940626EC01892B29F40F5F1F4FFD
:103B10000E151F0581F70E940B27CE01CDB7DEB72A
:103B2000E8E00C94893208950E94931D0895E8E618
:103B3000F3E080E092E0DF019C011D9221503040D3
:103B4000E1F7F0936F05E0936E058FEF9FEF909391
:103B500021038093200308950E94931D0E94941DC9
:103B600080931C0380FD0FC080E880931B030E949C
:103B700094256DE070E083E592E00E94691D892B39
:103B800021F080E0089580E2F0CF80911C0363E093
:103B900070E081FD26C080E592E00E94691D892BBE
:103BA00081F76DE070E080E492E00E94691D892B4E
:103BB00041F70E943E2A605A75418F4F9F4F609394
:103BC0006A0570936B0580936C0590936D050E9458
:103BD000971D81E080931F0380931E0310921D03A5
:103BE00008958DE492E0D9CF20911B0336E0839FA6
:103BF000C0011124629F800D911D1124811522E0C6
:103C0000920714F090E080E088599C4F90936F05E4
:103C100080936E05089580911F03811103C08091E8
:103C20001E0308950E943E2A605A75418F4F9F4F90
:103C300060936A0570936B0580936C0590936D0596
:103C400080911E038111EBCF62E070E08EE392E081
:103C50000E94691D892B19F781E080931E03DFCF35
:103C60002F923F925F926F927F928F929F92AF922C
:103C7000BF92CF92DF92EF92FF920F931F93CF9359
:103C8000DF9380911F03882369F0209120033091F6
:103C900021032115310531F080911D0361E070E0B1
:103CA000882399F0DF91CF911F910F91FF90EF90B2
:103CB000DF90CF90BF90AF909F908F907F906F904C
:103CC0005F903F902F9008958F5F082F10E01B01A9
:103CD000082E02C0220C331C0A94E2F7A9014221EB
:103CE0005321452B89F390911C0390FD44C082958C
:103CF000880F8076809371019801369527953695C7
:103D0000279520937401815E809372011092750152
:103D100024E630E047E050E06FE671E088E70E947B
:103D20007A26892B09F0BECFA80125E0440F551F44
:103D30002A95E1F780911C0380FD2BC048595C4F08
:103D400004E610E020E230E060E488E70E949B2671
:103D5000892B09F0A7CF0E940B1EE101C095D095D9
:103D60008091200390912103C823D923D09321036C
:103D7000C093200397CF880F880F880F809371011D
:103D800010927401895F8093720183E080937501C2
:103D9000BFCFEBEFF2E080E2DF011D928A95E9F7F9
:103DA000A1E0B2E00DEF11E085E0C82E82E0D82E50
:103DB00097E0592E772473948D91E80129918E0113
:103DC000240F352F311D28593C4FE82FF0E0E550E6
:103DD000FD4F90E080E0652C681A872C082E01C00A
:103DE000880C0A94EAF77901A12CE701B9907E01C9
:103DF000B820662D6A196770962E062E000C770B78
:103E0000DB2D01C0DD0F9A94EAF771956195710978
:103E10006770772701C0B6946A95EAF7BD2A60817A
:103E2000962E9B289082A39468E0A612DECF01967E
:103E300031968830910579F6CA16DB0609F0BCCFB9
:103E400004E610E020E230E04BEF52E07DCF8091BD
:103E50001E0390911F03911103C091E089270895DB
:103E6000882369F062E070E08CE392E00E94691DB3
:103E7000892B19F080911E03089510921E038091E2
:103E80001E03EBCF80911E03089581E008950E94E8
:103E9000451F08950F931F9380911F03882379F185
:103EA00080916805909169050E944A2AC29760F046
:103EB0000E94322A909369058093680560E080E053
:103EC0000E94F41D0E94471F0E94301E80911E0315
:103ED0008823A9F00E943E2A00916A0510916B0583
:103EE00020916C0530916D05601B710B820B930B5B
:103EF0006F3F7F4F8F4F9F4710F40E94271F1F91E6
:103F00000F910895CF93DF93EC01FB018281882309
:103F100009F464C1C330FDE5DF07E0F5CA3F9CE565
:103F2000D90730F49E0122503C4524313105D8F5A3
:103F30000E94970E9093510380935003C231ECE599
:103F4000DE0709F41FC108F06EC0C9308CE5D80740
:103F500009F4F2C008F03FC0C530ECE5DE0709F413
:103F6000DBC058F5C3308CE5D80709F4CDC008F0A4
:103F7000CFC0809150038160C230DC4509F4AEC0EF
:103F800080915003909151030E94A50E0E94430915
:103F900080E009C0C53AEDE5DE0751F238F4C136DC
:103FA0009DE5D90729F2DF91CF9108959E012D5A01
:103FB0003D4523303105B8F7BBCF80915003806277
:103FC000C730FCE5DF0709F489C008F4B1C080916F
:103FD0005003806483C0CD309CE5D90709F4BAC092
:103FE00070F4809150038E7FCB30FCE5DF0709F43D
:103FF00075C008F4A7C0809150038D7F6FC0CF308B
:104000009CE5D90709F4B6C008F4A8C0C031FCE5A6
:10401000DF0709F4B3C0C131DC4509F0B1CF8091AD
:1040200050038F7B5BC0CF3F9CE5D90709F4B4C038
:1040300098F5CA3FFCE5DF0709F472C0B8F4C43153
:104040009CE5D90709F4B6C008F4A2C0C531DC4527
:1040500009F096CF8091500382FB992790F921E0D7
:10406000922790FB82F990FB83F938C0CC3F8CE516
:10407000D80709F477C008F457C0CD3FECE5DE0758
:1040800009F474C0809151038360CE3FDC4509F090
:1040900077CF8093510374CFC1368DE5D80709F4EB
:1040A00096C068F4C130EDE5DE0709F48CC008F471
:1040B00077C0C230DD4509F063CF80E085C0CD3ADE
:1040C0009DE5D907E9F068F490915003892F8E7F20
:1040D00090FF8160C53ADD4509F052CF80935003CF
:1040E0004FCFCE3A8DE5D80789F1CF3ADD4509F0BB
:1040F00047CF90915103892F877F93FF8860C9CF65
:10410000809151038860C5CF809150038260E6CFD3
:10411000809150038460E2CF809150038860DECFAD
:10412000809151038160B5CF809151038260B1CFFE
:10413000809150038061D2CF0E9443098091500347
:104140008068CCCF809150038C60C8CF80915103A0
:10415000877F9FCF809150038B7FC0CF809150038A
:10416000877FBCCF809151038E7F93CF8091510385
:104170008D7F8FCF809150038F7EB0CF8091500381
:104180008F7DACCF0E944309809150038F77A6CFDB
:1041900080915003837FA2CF809151038C7F79CF90
:1041A00080915103982F909591708E7F892B90FB71
:1041B00081F96FCF0E94430990915003892F97FB9B
:1041C00087F980588BCF81E00E94310FD9CE909132
:1041D0005003892F8F7E94FF806180CF81E0E3CEF2
:1041E000B0E0A0E0E6EFF0E20C946E32E82FF0E0F1
:1041F000E05AFD4FD490282F26952695269530E03D
:10420000F901E050FD4F0491877010E0082E02C0C4
:10421000159507950A94E2F701701127F901E0510D
:10422000FD4FE490F12C082E02C0F594E7940A9417
:10423000E2F791E0E922FF24F901E052FD4FC49139
:10424000D0E002C0D595C7958A95E2F7C170DD2709
:104250000115110519F081EE0E94C705E114F10462
:1042600019F086EE0E94C7058D2D0E94C906E11443
:10427000F10419F086EE0E9458060115110519F097
:1042800081EE0E945806CD2B19F08CE20E94C906DF
:10429000CDB7DEB7E7E00C948A32EF92FF920F932E
:1042A0001F93CF93DF93EC01162F0AE088818823B8
:1042B00009F454C0813009F04EC08981813099F4ED
:1042C0007E0122E0E20EF11C8A810E94C906E7010C
:1042D0002196812F815050F3EFE9FFE03197F1F7FC
:1042E00000C00000F7CF823041F47E0182E0E80E8A
:1042F000F11C8A810E94C705EACF833041F47E0118
:10430000E2E0EE0EF11C8A810E945806E0CF843074
:1043100011F02196DDCF2A81229690E080E0AE0157
:104320004F5F5F4F2053330B2A30310548F0019720
:1043300078F2EFE9FFE03197F1F700C00000F7CF26
:10434000089FB001099F700D1124C901860F971FA6
:104350002981EA01E4CF0E94F020BACFCDB7DEB7C1
:10436000E6E00C948B328FE891E00197F1F700C002
:10437000000008950E9488030895B0E0A0E0E3ECF7
:10438000F1E20C946E328091340192E0811190E060
:104390009093280382E0282F291B209327039091D4
:1043A00034018093290390913401809326038091F6
:1043B000340181110CC087E98093780186EC8093E9
:1043C000760184E98093790186E68093770108E796
:1043D00011E0C6E7D1E06AE771E0AE01D80121E063
:1043E00030E08D91E82FE295EF70F0E0D1A08F7072
:1043F000790101C0EE0C8A95EAF79E2D90959D21DA
:1044000091A382A18E2982A3FA018191AF01E82FA5
:10441000E295EF70F0E0D1A08F70790102C0EE0C50
:10442000FF1C8A95E2F79E2D90959D2191A382A174
:104430008E2982A36A177B07A1F60E94B32160919F
:1044400029034EE253E0FA018E2F841B861728F0D1
:10445000CDB7DEB7E7E00C948A32D8012D918D01FB
:10446000A22FA295AF70B0E090968C9190E02F7043
:1044700002C0959587952A95E2F781709991A92FA9
:10448000A295AF70B0E090962C9130E09F7002C082
:10449000359527959A95E2F790E020FD92E0892BDB
:1044A0008193D2CFCF92DF92FF920F931F93CF933E
:1044B000DF9310E000E084E0C82ED12C8091290326
:1044C000181748F0802FDF91CF911F910F91FF9027
:1044D000DF90CF900895C12FD0E0FE01E858FE4F45
:1044E0008081E82FE295EF70F0E0E0A1F0E08F70BE
:1044F00002C0F595E7958A95E2F7E170DE01AA58CA
:10450000BE4F4C91A42FA295AF70B0E090968C91C5
:1045100090E04F7002C0959587954A95E2F780FD2F
:1045200044C080E08E2BDE01A25DBC4FEC919E2F3B
:1045300093709817C1F1EE0FEE0FE82BEC93F0900B
:104540002803F10EEF70F0E0EB5FFD4FC65DDC4F2E
:1045500080819881890F888320E0843064F0EF2D7A
:10456000F0E0EE5DFC4F80818F5F808360E08F2DF7
:104570000E94BA2121E088818D3F64F4EF2DF0E0A4
:10458000EE5DFC4F80818150808361E08F2D0E9421
:10459000BA2121E08881082E000C990BB6010E94F7
:1045A00042328883022B1F5F89CF82E0BBCF4091CC
:1045B000290350E06091280370E06E5D7C4F0E94FB
:1045C000A7320895B0E0A0E0E8EEF2E20C946D327C
:1045D0006C01D0E080E090912603D91740F0811162
:1045E0000E944A0FCDB7DEB7E8E00C948932F09014
:1045F0002703FD0E0F2D10E00E5D1C4FF601ED0F91
:10460000F11DC081F8019081C91BEC2E1E1444F0ED
:104610009C2FC7FD90E0C91BC1110DC0DF5FDBCF30
:10462000EA94F80180818F5F808360E08F2D0E9483
:10463000BA2181E0EBCFCF5FF80180818150808388
:1046400061E08F2D0E94BA2181E0E6CF84E00895D9
:1046500050E0440F551F9AE0699F400D511D1124F1
:1046600094E6899F400D511D1124CA018796089533
:104670000F931F93CF93DF938430C8F46A30B8F45C
:104680004530A8F40E9428238C010E94B032C82F24
:10469000D0E0DC2FCC27C80101960E94B0329E01E9
:1046A000282BC901DF91CF911F910F91089590E0C0
:1046B00080E0F8CF0F931F93CF93DF93122F032F38
:1046C000843078F46A3068F4453058F40E94282326
:1046D000EC01602F0E94BE32612FCE0101960E9434
:1046E000BE32DF91CF911F910F910895B0E0A0E00D
:1046F000ECE7F3E20C946C329CEAC92E90E0D92EE0
:10470000D0E0C0E07601B12C20C00E94370421E047
:1047100030E08C171D0641F03CF0F801EE0FFF1F52
:10472000EE0DFF1D25913491402F6B2D8C2F0E9493
:104730005A230F5F1F4F0530110539F78AE0E80E45
:10474000F11CB3948AE0B81619F010E000E0DDCF58
:10475000219684E6C80ED11CC430D10599F6CDB798
:10476000DEB7E9E00C948832EF92FF920F931F932B
:10477000CF93DF93EC018A017C01E60EF71ECE0198
:104780008796CE15DF0529F4CDB7DEB7E6E00C94A9
:104790008B32C03921E0D20740F40E94B032F801D8
:1047A00080830F5F1F4F2196EACFF8011082F9CF67
:1047B000B0E0A0E0EEEDF3E20C946D327C016A0112
:1047C0008C01060F171FEC01CE018796C017D10789
:1047D00029F4CDB7DEB7E8E00C948932C03921E086
:1047E000D20740F4FE01EE19FF09EC0DFD1D6081BA
:1047F0000E94BE322196E8CF462F843040F47A30B2
:1048000030F4653020F4672F0E943823089590E03B
:1048100080E0089580E1089589E492E00895EF92A0
:10482000FF920F931F93CF93DF93EC018A017C01DA
:10483000E60EF71ECE0189549E4FCE15DF0529F4F2
:10484000CDB7DEB7E6E00C948B32C93422E0D20754
:1048500040F40E94B032F80180830F5F1F4F219611
:10486000E9CFF8011082F9CFB0E0A0E0EAE3F4E28A
:104870000C946D327C016A018C01060F171FEC014C
:10488000CE0189549E4FC017D10729F4CDB7DEB7AA
:10489000E8E00C948932C93422E0D20740F4FE01EA
:1048A000EE19FF09EC0DFD1D60810E94BE322196BC
:1048B000E7CFCF93DF93C7EBD1E060E0CE010E945A
:1048C000BE322196C11584E0D807B9F7DF91CF91A8
:1048D0000895A4E0B0E0EFE6F4E20C946E32F82E16
:1048E0008FE08F1548F18FEF93E00E94B032811175
:1048F00023C007EB11E0F11023C019821A821B823A
:104900001C82DD24D39478018FEFE81AF80AC801DD
:104910000E94B03289831A82882371F09FEF980F2A
:104920009330D8F48A83D9820E5F1F4FC7010E944B
:10493000B0328B83811112C02496E7E00C948A3246
:10494000011584E01807C1F3C8010E94B03281113B
:1049500001C0FA940F5F1F4FCECF870160E0CE01F8
:1049600001960E944D21CFCFCF93DF93EB0186318B
:104970009C4511F50E94930D9A81992399F08A7AAA
:1049800091E009F490E090933203811109C089E22B
:104990000E946B0D0E94D40D80E0DF91CF910895AD
:1049A00085E3F6CF80913203811104C089E20E9431
:1049B000730DF0CF85E3FBCF81E0EFCF0F931F9313
:1049C000CF93DF93C42FD22FFC0182818823C9F0BB
:1049D000409335030E94322A90933403809333032B
:1049E00080E28C0F883040F4C77081E001C0880FEE
:1049F000CA95EAF70E94D206DF91CF911F910F91DD
:104A0000089510913503141332C0809133039091AF
:104A100034030E944A2A883C910548F5C0E2CD0F34
:104A20001D17B9F080E2810F883040F4177081E0E3
:104A300001C0880F1A95EAF70E94D906C83048F4D9
:104A400081E09D2F977001C0880F9A95EAF70E9428
:104A5000D206802F0E94C906C83070F6D77081E058
:104A600001C0880FDA95EAF70E94D906C5CF80E227
:104A70008C0F883008F6C77081E001C0880FCA9596
:104A8000EAF7F2CF0F939C01CB01233F4CE53407AB
:104A900059F1A8F4283DFCE53F0701F1293D4CE51B
:104AA0003407D1F1273D3C4591F406E221EE41EE79
:104AB00067ED7CE50E94DE2480E00F910895253F9C
:104AC000FCE53F07E9F0B0F0263F3C45F9F0FC017A
:104AD0008281882339F110923503EFCF07E225EE6A
:104AE00045EE68ED7CE5E6CF06E221EE40EE63EFB1
:104AF0007CE5E0CF07E225EE44EE64EF7CE5DACF1B
:104B000006E221EE42EE65EF7CE5D4CF07E225EE2A
:104B100046EE66EF7CE5CECF08E221E045EE69ED9A
:104B20007CE5C8CF81E0C9CF1092B9008CE08093BA
:104B3000B8000895B0E0A0E0E0EAF5E20C946A3233
:104B4000B82EEB010E94322A6C01EE24E394F12C82
:104B5000C431D10560F025E0E22EF12CCF3FDC0717
:104B600031F0CE0164E170E00E942E327B0184EAD4
:104B7000A82E94E8992E1092BC00A092BC000E942E
:104B8000322A8C018091BC0087FF0DC08091B90052
:104B9000887F8830F9F08091B900887F8031D1F02A
:104BA0000FEF1FEF08C0C8010E944A2AE816F90655
:104BB00048F70EEF1FEFCF3FDC07E9F2C6010E9476
:104BC0004A2AC817D907B8F6C801CDB7DEB7EBE057
:104BD0000C948632B092BB009092BC000E94322AA4
:104BE0008C018091BC0087FF0AC08091B900887F4A
:104BF000883111F08034A1F610E000E0E5CFC80163
:104C00000E944A2AE816F90660F7D3CF0F931F9344
:104C1000CF93DF93EB018093BB0084E88093BC00CB
:104C20000E94322A8C018091BC0087FF11C0209124
:104C3000B900287F81E090E0283211F490E080E014
:104C4000919581959109DF91CF911F910F910895D1
:104C5000CF3FDC0741F3C8010E944A2AC817D90791
:104C600010F78EEF9FEFEFCF0F931F93CF93DF934C
:104C7000EC0184EC8093BC000E94322A8C0180916C
:104C8000BC0087FF08C08091BB0090E0DF91CF910E
:104C90001F910F910895CF3FDC0789F3C8010E944F
:104CA0004A2AC817D90758F78EEF9FEFEFCF0F9317
:104CB0001F93CF93DF93EC0184E88093BC000E94A4
:104CC000322A8C018091BC0087FF08C08091BB0014
:104CD00090E0DF91CF911F910F910895CF3FDC07B6
:104CE00089F3C8010E944A2AC817D90758F78EEFDE
:104CF0009FEFEFCFB0E0A0E0E0E8F6E20C946D3279
:104D00006B018A017901B9010E949A25E6010C0D17
:104D10001D1DC017D10711F097FF08C024E920938B
:104D2000BC00CDB7DEB7E8E00C948932B7018991B9
:104D30000E940626EECFB0E0A0E0E1EAF6E20C9495
:104D40006D32C62F6A017901B8010E949A2597FD3C
:104D50000CC0B8018C2F0E940626E601EC0CFD1C4D
:104D6000CE15DF0511F097FF08C024E92093BC00A1
:104D7000CDB7DEB7E8E00C948932B80189910E9482
:104D80000626EECFB0E0A0E0E8ECF6E20C946D323F
:104D9000F82EE62EEA016901B8010E949A2597FDD6
:104DA00015C0B8018E2D0E94062697FD0FC0B801D0
:104DB0008F2D81600E949A25F12CE12C21E0C21AEE
:104DC000D108EC14FD04E0F497FF0DC024E9209312
:104DD000BC001816190614F490E080E0CDB7DEB7D9
:104DE000E8E00C948932C8010E94342697FD04C083
:104DF000FE01EE0DFF1D80832FEFE21AF20AE1CFD4
:104E000097FDE4CFC8010E94572697FDDFCFCC0D58
:104E1000DD1D8883DBCF84E98093BC0008958EE19B
:104E20004A9B02C08150E1F74A9BFECF08955A98F1
:104E300080E28A95F1F75A9A0895FC013BE03A9591
:104E4000F1F798E020E080E031E040E14A95F1F7A9
:104E5000880F4A9B02C08160232742E04A95F1F700
:104E6000000040E14A95F1F7915079F790E19A9569
:104E7000F1F799B132E03A95F1F7000040E14A9537
:104E8000F1F792FB992790F992272081920F908356
:104E90000895A1E0B0E0EFE4F7E20C946F321982DC
:104EA0008C017C01E60EF11C0E151F0541F481E01A
:104EB0009981911180E02196E6E00C948B320E945A
:104EC0000F27CE0101960E941D27F80181938F01C3
:104ED000EBCF529A5A9A089552985A9AEA9AE9E66A
:104EE000F0E080818F7C808308956150770B91E0A2
:104EF00001C0990F6A95EAF720E031E0911108C0EE
:104F0000222391F05A9A80E28A95F1F75A980895EF
:104F1000492F482339F05A9A232740E24A95F1F75E
:104F20009695ECCF5A98F9CF5A98EDCFFF920F9300
:104F30001F93CF93DF93EC018C01060F111DC01757
:104F4000D10729F4CDB7DEB7E5E00C948C32F990A7
:104F50000E94172768E08F2D0E947527F0CF1F92BF
:104F60000F920FB60F9211240F931F932F933F931D
:104F70004F935F936F937F938F939F93AF93BF9361
:104F8000EF93FF93CF93DF930F92CDB7DEB71982E4
:104F90000E940F27CE0101960E941D27082F06951B
:104FA00006950695282F22952570902F9570290F2C
:104FB000922F937026952695920F98279770898146
:104FC000982B09F05CC0073008F059C080E18A9541
:104FD000F1F75A9A529A82E08A95F1F700C05A98EE
:104FE00088E0089F80011124D801AB5CBE4F169663
:104FF000ED91FC9117973097A9F06091F3017091B2
:10500000F40114962D913C911597260F371F119698
:105010008D919C911297680F791F13964C9113975D
:105020008C910995F801EB5CFE4F6381662351F08A
:105030002091F3013091F40184819581820F931FB7
:105040000E9496270E94172780E18A95F1F75A98C7
:1050500052985A9A80E18A95F1F7F801EB5CFE4F7D
:105060006081662351F02091F3013091F401818138
:105070009281820F931F0E9449270E940F270F9051
:10508000DF91CF91FF91EF91BF91AF919F918F9160
:105090007F916F915F914F913F912F911F910F9150
:1050A0000F900FBE0F901F9018950F931F93CF93E3
:1050B000DF93EC0107970CF04CC0F894529A5A9881
:1050C00085E08A95F1F700009C2F969595708C2FBE
:1050D0008570980F892F83709695969523E0CC0F55
:1050E000DD1F2A95E1F7980F8E01092B0E941727E3
:1050F00000C068E0802F0E94752780E18A95F1F753
:1051000052985A9A4A9B1EC087E090E04A991CC068
:10511000FE01EB5CFE4F63816623F9F02091F30101
:105120003091F40184819581820F931F0E94492759
:10513000811113C0529A5A9A7894DF91CF911F919E
:105140000F91089500C0DECF019729F4529A5A9A20
:10515000789480E0F2CF00C0D9CF0E940F2780E280
:105160008A95F1F75A98529A80E18A95F1F7CB5CCB
:10517000DE4F6881662351F02091F3013091F401F4
:1051800089819A81820F931F0E9496270E94172778
:10519000789481E0D2CF90932502809324020895E1
:1051A00090933C0380933B0308950E9469148111FE
:1051B00003C0809136030895E0913B03F0913C03D6
:1051C000309729F00190F081E02D0995089580E055
:1051D0000895E0913B03F0913C03309721F0028069
:1051E000F381E02D09950895E0913B03F0913C0394
:1051F000309739F022E0DC012C930480F581E02D1A
:10520000099508952091390330913A0328173907F9
:1052100071F090933A0380933903E0913B03F0914E
:105220003C03309721F00680F781E02D0995089521
:1052300020913703309138032817390771F0909384
:10524000380380933703E0913B03F0913C033097A0
:1052500021F00084F185E02D099508959C012E5FD1
:105260003F4FAC01485F5F4F80E02417350709F4DA
:105270000895F90191919F019923B9F38F5FF5CFBB
:10528000662349F0FC01329608962191261729F0F1
:10529000E817F907D1F780E0089581E008959C01AF
:1052A000FC0132969FEF80E04191461751F09F3FFD
:1052B00019F4411101C0982F8F5F8630A9F79F3FE5
:1052C00009F40895290F311D97FD3A95F90162837C
:1052D0000895FC01329608962191261303C0DF0140
:1052E00011971C92E817F907B9F708950E944F2902
:1052F00008950E9469290895029626E0FC01119202
:105300002A95E9F7089546E050E00E949A3221E09C
:10531000892B09F420E0822F089508950E948D2999
:105320000895811106C081E080933D030E948E297B
:10533000089582E0F9CF83E080933D030E948E2997
:1053400008950E949129089581E080933D030E9471
:105350008E2908950E94A4290895089508950E9411
:10536000AE290895089508950E94AD290895CF9318
:105370000E94B2290E94E9130E94B329C0E08C2F39
:105380000E948412811105C0CF5FCA30C1F7CF914E
:10539000089581E0FCCF85B7806885BF85B78068B8
:1053A00085BF08951F921FB61F9211248F939F935C
:1053B000AF93BF9380913E03811113C0809170051C
:1053C00090917105A0917205B09173054196A11D50
:1053D000B11D8093700590937105A0937205B093F1
:1053E0007305BF91AF919F918F911F901FBE1F902A
:1053F000189580917805843031F10E94280510922B
:105400003E0388E190E020E40FB6F894A8958093DD
:1054100060000FBE2093600083B7817F846083BFEC
:1054200083B7816083BF7894889583B78E7F83BF6D
:105430000FB6F894A8958091600088618093600011
:10544000109260000FBE08950E9443090E9431052A
:10545000089582E084BD93E095BD9AEF97BD809357
:105460006E0008952FB7F8948091700590917105A2
:10547000A0917205B09173052FBF08952FB7F894CE
:10548000609170057091710580917205909173051E
:105490002FBF08959C014FB7F894809170059091AB
:1054A0007105A0917205B09173054FBF821B930BDC
:1054B0000895CF92DF92EF92FF922FB7F894C090A9
:1054C0007005D0907105E0907205F09073052FBFC4
:1054D000A7019601261B370B480B590BCA01B901CE
:1054E000FF90EF90DF90CF90089578941F921FB6B1
:1054F0001F9211248F939F93AF93BF938091700558
:1055000090917105A0917205B09173050196A11D4E
:10551000B11D8093700590937105A0937205B093AF
:105520007305BF91AF919F918F911F901FBE1F90E8
:10553000189587E797E7909301088093000888E122
:105540009AE00FB6F894A895809360000FBE9093F0
:105550006000FFCF88E19AE00FB6F894A895809399
:1055600060000FBE90936000FFCF80914A030895C2
:1055700008959C0184E08093E9009FEF8091E8000A
:10558000915085FD06C085ED8A95F1F700009111D7
:10559000F5CF8091E80085FF0CC050E040E066E068
:1055A00070E0C9010E944D2D8091E8008E778093B4
:1055B000E8000895CF93DF93EC0181E08093E90048
:1055C0008FEF9091E800815095FD06C095ED9A957A
:1055D000F1F700008111F5CF8091E80085FF14C03C
:1055E00050E040E068E070E0CE010E944D2D8091D7
:1055F000E8008E778093E80088E0FE01A2E4B3E043
:1056000001900D928A95E1F7DF91CF9108958093F3
:105610003F03709341036093400380917805843089
:10562000F9F48093E9008FEF9091E800815095FDA7
:1056300006C095ED9A95F1F700008111F5CF8091A4
:10564000E80085FF0DC050E040E063E070E08FE3CC
:1056500093E00E944D2D8091E8008E778093E800C2
:105660000895BC0184E00E94072B0895BC0183E0EB
:105670000E94072B0895CF93FC01603221F58091A1
:105680007805843001F5C091E900CF702091EC00DD
:10569000922F917020FD90E8C92B82E08093E90061
:1056A0008091E80080FF0CC050E040E060E270E0D4
:1056B000CF010E944D2D8091E8008E778093E80005
:1056C000CF70C093E900CF91089580917705811143
:1056D00009C00E942C2F0E94892F8091E2008460D3
:1056E0008093E20008951092770508950E94A429FE
:1056F00008956091740581E0611101C080E00E940D
:105700009B2908959091780581E0943009F080E01C
:10571000609174050E94A129089542E061EC81E046
:105720000E94A82E42E261EC84E00E94A82E42E290
:1057300061EC82E00E94A82E42E260EC83E00E94CD
:10574000A82E9091780581E0943009F080E0609176
:1057500074050E949129089580917A05833009F497
:1057600063C030F48130E1F1823009F4A0C00895C3
:105770008A3009F48CC08B3009F471C0893009F08B
:1057800052C080917905813209F04DC080917D052C
:1057900090917E05009719F0029709F044C080911E
:1057A000E800877F8093E8008091E80082FF37C09F
:1057B0009091F3008091F200029731F48091F10012
:1057C000813011F0863021F48091F10080934A03FA
:1057D0008091E8008B778093E8000E94DC2E23C044
:1057E00080917905813AF9F48091E800877F809370
:1057F000E80080917D0590917E05892B61F468E039
:1058000082E493E070E00E94EB2D8091E8008B77BA
:105810008093E800089560E090E080E0F3CF80910D
:1058200078058111C1CF089580917905813AD9F722
:1058300080917D0590917E05892BA9F78091E800E4
:10584000877F8093E8008091E80080FFFCCF809103
:1058500086018093F1008091E8008E77BCCF809123
:105860007905813201F780917D0590917E05892B24
:10587000D1F68091E800877F8093E8000E94DC2EBB
:1058800080917B05809386010E9443090895809151
:105890007905813241F68091E800877F8093E800A6
:1058A0000E94DC2E80917C0580934B0308958091AB
:1058B0007905813A09F0B7CF8091E800877F80931E
:1058C000E8008091E80080FFFCCF80914B03C1CFBE
:1058D00084B7877F84BF0FB6F894A8958091600045
:1058E000886180936000109260000FBE80E890E0B5
:1058F0000FB6F89480936100909361000FBE0E94F0
:10590000AA2908950E942C2F0E94892FE2EEF0E030
:1059100080818460808378940E94083208958AE7A9
:1059200091E00E94D028089580917805853031F467
:1059300080917805853019F00E94242A08950E94EC
:10594000F92980917605882399F30E94B729882345
:1059500079F30E94372D0E944309EACFA0E2B0E01C
:10596000E4EBFCE20C94733280917805843009F505
:1059700083E08093E9008091E80082FF1AC0809163
:10598000E80090E085FF09C050E040E060E270E090
:10599000CE0101960E949C2D91E08091E8008B77CA
:1059A0008093E800992329F060E2CE0101960E94DD
:1059B0009E1CA096E2E00C948F320E94E02C089589
:1059C000292F33272330310521F168F421303105A7
:1059D00009F443C02230310509F444C090E080E06E
:1059E00030E020E026C02132310551F1223231056C
:1059F000A9F76330710590F7FB01EE0FFF1FE85E1A
:105A0000FD4F208131816B5E7D4FFB01808190E0F5
:105A100010C099278130910581F0009729F00297F5
:105A2000E9F6E0E1F3E002C0E0E3F3E0849190E026
:105A30009F01FA01318320830895E4E2F3E0F6CF79
:105A40006330710558F6660F771FFB01E25EFD4F6C
:105A50002081318189E090E0ECCF82E190E02FE875
:105A600033E0E7CF8BE590E024E333E0E2CF80E161
:105A700089BD82E189BD09B400FEFDCF8091D800C7
:105A80008F7D8093D8008091E00082608093E00059
:105A90008091E00081FDFCCF0895AF92BF92CF923C
:105AA000DF92FF920F931F93CF93DF936C01EB0173
:105AB0008A010E94FB2EF82E811123C001151105C9
:105AC00039F0F80180819181C81BD90BC80ED91E0D
:105AD000B12CA12C2097A9F08091E80085FD22C06F
