:100000000C9436020C947D020C947D020C94872291
:100010000C947D020C947D020C947D020C947D0264
:100020000C947D020C947D020C94242A0C94F62AE4
:100030000C9454250C947D020C947D020C947D024A
:100040000C947D020C947D020C947D020C947D0234
:100050000C947D020C94C9250C947D020C947D02B5
:100060000C947D020C947D020C947D020C947D0214
:100070000C947D020C947D020C947D020C947D0204
:100080000C947D020C947D020C947D020C947D02F4
:100090000C947D020C947D020C947D020C947D02E4
:1000A0000C947D020C947D020C947D021A051A05B5
:1000B0004C054C059905B705CB06CB06C2055B067A
:1000C0006C066C066B076B077D077D0774077D0761
:1000D0007D077D076B076B0779077D077D0779072C
:1000E000632B8A2B822C8A2B822CD62BF92B822CE9
:1000F000502C5F2C07634236B79BD8A71A39685635
:1001000018AEBAAB558C1D3CB7CC5763BD6DEDFD39
:10011000753EF6177231BF000000803F05A84CCD38
:10012000B2D44EB93836A9020C50B9918688083C31
:10013000A6AAAA2ABE000000803F170015000800EA
:100140001A0014000A000900070016000400050048
:10015000190006001B001D002C41E300E000000018
:1001600000001C0018000C00120013000B000D0012
:100170000E000F0028001100100036003700E500C7
:100180002C42E2002A000000000022002100200092
:100190001F001E002202210220021F021E02670011
:1001A00054005500560057002C414900290000001A
:1001B000000023002400250026002700230224023B
:1001C000250226022702350089002F1230122D1237
:1001D0002D00E2002A00000000003E003D003C002F
:1001E0003B003A0034003312330031001F02C85C78
:1001F000C75CC65CC45CC35C2D1249002B000000C8
:1002000000003F0040004100420043005000510008
:1002100052004F002E00C95CCA5C2F003000310034
:100220002C42E2002A000000000000047F3F1F640F
:100230003214643214783C1E1E140A05FFAA7F553E
:10024000400001010101010101010102020202025B
:10025000020202020303030303030303040404046E
:100260000404040505050505060606060607070736
:10027000070708080808090909090A0A0A0B0B0BED
:100280000C0C0C0D0D0D0E0E0E0F0F0F101011118A
:10029000111212131314141515161617171818190E
:1002A000191A1A1B1B1C1D1D1E1E1F202021222275
:1002B000232424252626272829292A2B2C2D2D2EB8
:1002C0002F30313232333435363738393A3B3C3DD2
:1002D0003E3F404142434445464748494A4C4D4EC3
:1002E0004F50515354555658595A5B5D5E5F616289
:1002F00064656668696B6C6D6F7072737577787A18
:100300007B7D7E8082838587888A8C8E8F91939572
:1003100096989A9C9EA0A2A3A5A7A9ABADAFB1B396
:10032000B5B7BABCBEC0C2C4C6C9CBCDCFD1D4D676
:10033000D8DBDDDFE2E4E7E9EBEEF0F3F5F8FAFD18
:10034000FF100363006F006F006C00350033003650
:100350000000000A036D002E006B0069000000041D
:1003600003090409023B00020100A0FA090400008D
:1003700001030101000921110100012240000705CC
:10038000810308000A09040100010300000009219B
:1003900011010001227B000705820320000A1201DF
:1003A000000200000008434D360501000102000173
:1003B00005010902A10185020901A1000509190130
:1003C00029081500250195087501810205010930EC
:1003D00009311581257F9502750881060938158137
:1003E000257F950175088106050C0A3802158125BF
:1003F0007F950175088106C0C005010980A10185AE
:100400000319012AB700150126B70095017510815F
:1004100000C0050C0901A101850419012AA00215DB
:100420000126A002950175108100C005010906A1F1
:1004300001050719E029E7150025019508750181D7
:10044000029501750881010507190029FF1500268D
:10045000FF00950675088100050819012905950515
:1004600075019102950175039101C00011241FBE11
:10047000CFEFDAE0DEBFCDBF04B603FE27C0809128
:10048000100390911103A0911203B09113038730D0
:10049000904BA740B04BD1F410921003109211036F
:1004A000109212031092130314BE84B7877F84BF87
:1004B0000FB6F894A89580916000886180936000E1
:1004C000109260000FBEE0E0F8E3099511E0A0E0B3
:1004D000B1E0EEEFF1E602C005900D92A23EB10749
:1004E000D9F723E0A2EEB1E001C01D92A031B2071E
:1004F000E1F70E948D150C94FD300C94000081E012
:10050000089581E008950C94810208950C94850269
:100510001F93CF93DF9300D000D01F92CDB7DEB7EB
:1005200049835A836B833091E40189819A81311127
:1005300014C0662359F0222349F00E941109182F94
:10054000682F89819A810E94B80803C00E94E4083C
:10055000182F69817A81812F04C00E941109698155
:100560007A810F900F900F900F900F90DF91CF91A5
:100570001F910C941E10FC01262F40815181628135
:10058000738184810C94880281E00895CF93DF9376
:10059000EC0160E00E94BB02BE01DF91CF910C94A0
:1005A00086020E9427110E9449030C9461110C9449
:1005B0005D1108950E9459070E94D9022FEF84E32C
:1005C0009CE0215080409040E1F700C000000C9476
:1005D000EF250F931F93CF93DF938C0161E00E946F
:1005E000BB02EC01B8010E948302882309F444C0D5
:1005F000B801CE010E942F208823F1F1B801CE016D
:100600000E9481208823C1F1B801CE010E94B3214C
:10061000882391F1B801CE010E94AA1E882361F1BE
:10062000F8018281882309F1CB358DE5D807C1F027
:1006300050F4C115FCE5DF0781F0CF3DDC45A9F49E
:100640000E94220E19C0CC35EDE5DE0761F0CD35F4
:10065000DD4559F40E94B30C08C00E94DA020CC0B8
:100660000E94BC0C02C00E94BF0CC801DF91CF9158
:100670001F910F910C947F0280E0DF91CF911F9129
:100680000F91089508950C94420381E008950C940D
:1006900045030895CF93C82F0E9443038C2F0E94D7
:1006A0004703CF910895CF93DF93CDB7DEB72B9754
:1006B0000FB6F894DEBF0FBECDBF4F835887698752
:1006C0007A878B8761110E94E20C9E012F5F3F4F5A
:1006D00086E0F90111928A95E9F785E0FE013796E7
:1006E000D90101900D928A95E1F789819A814C8117
:1006F0005D81452B31F09F3F31F491E08F3F19F43C
:1007000003C091E001C090E090FF09C049815A8187
:100710006B817C818D819E810E94E20B05C0C901A5
:100720000E94C4028111F2CF2B960FB6F894DEBF5F
:100730000FBECDBFDF91CF910895FC0180819181E3
:100740000E9453090895CF93882309F4A4C0C82FA9
:100750008238C1F40E940B2481FD9DC069E3809121
:100760000001909101010E94A5240E94070D2FEF26
:1007700081EE94E0215080409040E1F700C00000FD
:1007800069E319C0833801F50E940B2480FD83C002
:1007900063E580910001909101010E94A5240E94CF
:1007A000070D2FEF81EE94E0215080409040E1F75B
:1007B00000C0000063E580910001909101010E945A
:1007C000A724CF910C94070D8438C1F40E940B2408
:1007D00082FD61C067E480910001909101010E9457
:1007E000A5240E94070D2FEF81EE94E02150804058
:1007F0009040E1F700C0000067E4DDCF8CEF8C0F84
:10080000813AD0F46C2F80910001909101010E94F7
:100810006F24882349F06C2F809100019091010191
:100820000E94A7240E94070D6C2F809100019091D7
:1008300001010E94A524C5CF80E28C0F883048F4C6
:10084000C77081E001C0880FCA95EAF70E94C50C05
:10085000B8CFEBE5EC0FE33040F4F0E0E957FE4FA2
:10086000808190E0CF910C943724E8E5EC0FE731DC
:1008700050F4F0E0EE0FFF1FE75AFE4F80819181A8
:10088000CF910C944D24CD3E30F08C2F0E941A163F
:10089000CF910C94EC16CF910895882309F464C08D
:1008A000823879F40E940B2481FF5EC069E3809155
:1008B0000001909101010E94A5240E94070D69E3A7
:1008C00010C08338B1F40E940B2480FF4DC063E553
:1008D00080910001909101010E94A5240E94070DC2
:1008E00063E580910001909101010E94A7240C947E
:1008F000070D843879F40E940B2482FF35C067E429
:1009000080910001909101010E94A5240E94070D91
:1009100067E4E7CF9CEF980F913A10F4682FE1CF8E
:1009200090E2980F983050F4877091E001C0990FD1
:100930008A95EAF7892F0E94CB0CD9CF9BE5980FB7
:10094000933020F480E090E00C94372498E5980FE1
:10095000973120F480E090E00C944D248D3E20F0FF
:100960000E9475160C94EC1608951F93CF93DF9395
:10097000182FEB010E94A303209741F08FE99FE01D
:100980000197F1F700C000002197F6CF812FDF918A
:10099000CF911F910C944D04893319F060E070E001
:1009A00002C060E570E00C94B504882321F00E9439
:1009B000C50C0C94070D0895882321F00E94CB0CE0
:1009C0000C94070D0895CF92DF92EF92FF920F9350
:1009D0001F93CF93DF937C01D62FC72FFC01128189
:1009E000058102950F700E949A0C882399F01123BB
:1009F00089F08C2F807F803421F080E28D0F883049
:100A000048F082E00E94570D0E949A0C91E0D82E87
:100A1000D92601C0D12CCC2EC2948FE0C8228C2DB7
:100A200090E08C30910508F0B6C1FC01EA5AFF4F06
:100A30000C945B308C2F807FCF70882311F0C2958F
:100A4000C07F112399F0CC2309F491C180E28D0F6E
:100A5000883010F0D11104C08C2F0E94C50C03C047
:100A60008C2F0E94D50C0E94070D81C18D2F0E94F2
:100A70004D04CC2309F48FC180E28D0F883010F033
:100A8000D11104C08C2F0E94CB0C03C08C2F0E946C
:100A9000DB0C0E94070D7FC18C2F807FCF708032CE
:100AA00011F0C295C07FDD2319F0D130C9F022C00A
:100AB000112371F0002341F0013031F40E94E80C61
:100AC0008C2B0E94F00C67C10E94E80C8C2B1DC07F
:100AD000002319F0013009F45EC10E94FD0C25C00D
:100AE000112321F0063008F056C10EC0053008F081
:100AF00052C11BC0112361F0002331F0F701858141
:100B000080FF35C18F7085838C2F0E94D50443C12F
:100B1000002359F0D93309F03BC1FFEF07EE13E092
:100B2000F15000401040E1F731C18C2F0E94DC04ED
:100B300032C18C2F86958695837019F0813061F0D3
:100B40002AC1112321F08D2F9C2F937002C080E0C9
:100B500090E00E94372427C1112321F08D2F9C2F74
:100B6000937002C080E090E00E944D241CC18D2F44
:100B7000112319F00E941A1602C00E9475160E94D5
:100B8000EC1611C18C2F837009F047C0111107C1F9
:100B90002D2F229526952770220F220F6D2F6F7013
:100BA000862F90E0A0E0B0E0022E04C0880F991FCD
:100BB000AA1FBB1F0A94D2F7D4FF10C04FE050E029
:100BC00060E070E004C0440F551F661F771F2A9530
:100BD000D2F7409550956095709503C040E050E085
:100BE000BA01C695C695C3708A019B01082B192BC3
:100BF0002A2B3B2BC901B801C23049F058F4C1304F
:100C000019F00E94CE07CBC00E94BC07C8C00E944A
:100C1000E007C5C00E94BA07C2C0112319F08C2F8B
:100C2000817001C08695882309F4B9C02D2F2295C3
:100C300026952770220F220F6D2F6F70862F90E060
:100C4000A0E0B0E0022E04C0880F991FAA1FBB1FAE
:100C50000A94D2F7D4FF10C04FE050E060E070E09B
:100C600004C0440F551F661F771F2A95D2F7409581
:100C700050956095709503C040E050E0BA01C6956C
:100C8000C695C3708A019B01082B192B2A2B3B2B7D
:100C9000C901B801C23049F058F4C13019F00E94BE
:100CA00093087DC00E9481087AC00E94A50877C081
:100CB0000E94F40774C0CF70112339F08C2F0E946A
:100CC0001A088D2F0E94D5046AC08D2F0E94DC0463
:100CD0008C2F0E943B0863C0D23F01F128F4D03F23
:100CE00041F0D13FA1F03FC0D33FF9F0D43F39F1FB
:100CF0003AC0112341F0053008F04DC08C2F8F71A0
:100D00000E94600848C0063008F045C0F7CF1123A4
:100D100039F08C2F8F710E941A083DC01123C9F33E
:100D20008C2F8F710E943B0836C0112329F08C2F25
:100D30008F710E9405082FC00E9400082CC011234B
:100D400049F0CF718C2F0E941A0863E08C2F0E940B
:100D50003C0D21C081E00E94570D0230E0F082E09E
:100D60000E94570D18C0112331F0002391F28D2FEE
:100D70000E94A30310C0002399F2D93349F41FEF56
:100D800027EE33E0115020403040E1F700C0000072
:100D90008D2F0E944D0488EF8C0D843020F40E942A
:100DA0000B240E944A03DD20C9F00E94960C80FDAE
:100DB00015C0F70112820E94900C0E941A08C70108
:100DC0000E940F070E94900CDF91CF911F910F910D
:100DD000FF90EF90DF90CF900C943B08DF91CF9184
:100DE0001F910F91FF90EF90DF90CF9008950F9398
:100DF0001F93CF93DF93EC01688179818A810E94F0
:100E00005E098C010E94B7080E94A807B801CE01B4
:100E10000E94E304DF91CF911F910F910895CF932A
:100E2000DF93EC01988189812B813C81232B31F068
:100E30008F3F31F481E09F3F19F403C081E001C08E
:100E400080E080FD19C0CE010E94E90281110CC032
:100E50000E949A0C882381F08A81882369F082E0BD
:100E6000DF91CF910C94570DCE010E94F706CE0171
:100E7000DF91CF910C94C602DF91CF91089580E06D
:100E800090E00E94372480E090E00E944D240E9470
:100E9000E20C0E94E50C0E94070D0E941D180C94A4
:100EA000EC1680910001909101010E94A9240C94FC
:100EB0003F070E94D20C0C945107E92FE295EF7086
:100EC0004E2F50E0FA013297EE30F105B0F4EE59B2
:100ED000FF4F0C945B30803F91F018F4883E68F42B
:100EE0000EC0843F51F40BC0883E48F0813F29F486
:100EF00006C093FB882780F9089580E0089581E07B
:100F00000895FC01808191810E9453090E945D0730
:100F10000895CF93DF9300D000D01F92CDB7DEB7F6
:100F20000F900F900F900F900F90DF91CF91089539
:100F3000CF93DF9300D000D000D0CDB7DEB7269698
:100F40000FB6F894DEBF0FBECDBFDF91CF910895ED
:100F5000089508950C94A9070C94AA070E94AC0761
:100F6000609302027093030280930402909305023F
:100F70000C943F070C94AE070F931F93009102024D
:100F8000109103022091040230910502602B712B15
:100F9000822B932B1F910F910C94AE070F931F93ED
:100FA0000091020210910302209104023091050287
:100FB00060237123822393231F910F910C94AE071A
:100FC0000F931F93009102021091030220910402DB
:100FD0003091050260277127822793271F910F9177
:100FE0000C94AE070C94A9070E94F2076093FE01CF
:100FF0007093FF0180930002909301020C943F07CD
:1010000060E070E0CB010C94F4070F931F9341E074
:1010100050E060E070E08A019B0104C0000F111FE6
:10102000221F331F8A95D2F7C901B8011F910F9172
:101030000C94F4070F931F9341E050E060E070E0E0
:1010400004C0440F551F661F771F8A95D2F7809101
:10105000FE019091FF01A0910002B09101028A016E
:101060009B01082B192B2A2B3B2BC901B8011F917F
:101070000F910C94F4070F931F9341E050E060E050
:1010800070E004C0440F551F661F771F8A95D2F782
:1010900040955095609570958091FE019091FF016B
:1010A000A0910002B09101028A019B01082319233B
:1010B0002A233B23C901B8011F910F910C94F40717
:1010C0000F931F9341E050E060E070E004C0440FD4
:1010D000551F661F771F8A95D2F78091FE01909168
:1010E000FF01A0910002B09101028A019B01082733
:1010F00019272A273B27C901B8011F910F910C948A
:10110000F4070F931F930091FE011091FF012091AE
:10111000000230910102602B712B822B932B1F91C7
:101120000F910C94F4070F931F930091FE011091FF
:10113000FF0120910002309101026023712382237C
:1011400093231F910F910C94F4070F931F93009119
:10115000FE011091FF0120910002309101026027F1
:101160007127822793271F910F910C94F4070895FC
:1011700024E0929F900D1124890FE82FE695E695C3
:10118000E695877051E001C0550F8A95EAF785E032
:10119000E89FF0011124EB51FE4F20E030E070E0B9
:1011A0004081CB01022E02C0969587950A94E2F702
:1011B0008170819584278523842781932F5F3F4FFA
:1011C0002530310569F7089524E0929F900D112490
:1011D000890F682F669566956695982F977085E0BC
:1011E000689FB001112440E050E080E0FB01E40F73
:1011F000F51FEB51FE4F208130E0092E02C03695DD
:1012000027950A94E2F721703327042E01C0220F9C
:101210000A94EAF7822B4F5F5F4F4530510531F753
:101220000895BF92CF92DF92EF92FF920F931F9398
:10123000CF93DF938C01C090FE01D090FF01E0902E
:101240000002F09001028091020290910302A091AD
:101250000402B0910502C82AD92AEA2AFB2ACFE162
:10126000D0E0D701C6010C2E04C0B695A79597957E
:1012700087950A94D2F780FD04C0219790F7B12C8E
:1012800007C0BC2EB8018C2F0E9431100197A9F322
:101290008B2DDF91CF911F910F91FF90EF90DF90F9
:1012A000CF90BF900895CF93DF93EC010E94110976
:1012B000BE010E943110DF91CF9108951F93CF930B
:1012C000DF93EB019091E401992321F0CB010E947F
:1012D000530913C0882349F0CB010E941109182F2C
:1012E000682FCE010E94B80804C0CB010E94E40818
:1012F000182FBE01812F0E943110DF91CF911F91D5
:1013000008951F93CF93DF93C091060216E080915A
:101310000702C81799F0D0E01C9FF0011D9FF00D47
:101320001124E85FFD4F4081518162817381848186
:1013300095810E9498072196C770E9CFDF91CF91E0
:101340001F910895409138025091390260913A02FC
:1013500070913B0280913C0290913D020C94980761
:101360000F931F93CF93DF9380913D0282958F70EF
:1013700009F05DC080913A02882309F458C0809139
:101380000602109107026091380270913902C091F3
:101390003B02D0913C0291E06F3F09F090E0292F91
:1013A00006E0811709F443C0209721F07F3F21F028
:1013B00030E003C031E001C0322F90E030FD34C096
:1013C000089FF001099FF00D1124DF01A85FBD4FB8
:1013D00011963C911197371327C03C91361324C0C6
:1013E00012963C91129731111FC013964D915C914A
:1013F00014974C1B5D0B483C5105B0F480913D02A5
:101400008F70806180933D02E35FFD4F80818F701C
:101410008061808388E392E00E940F07DF91CF9183
:101420001F910F910C94810901968770BACFDF91BB
:10143000CF911F910F9108959F92AF92BF92CF923B
:10144000DF92EF92FF920F931F93CF93DF93CDB76D
:10145000DEB761970FB6F894DEBF0FBECDBF8C012B
:1014600085E0F801DE011D9601900D928A95E1F765
:10147000F801E280909138026091390220913B029C
:1014800030913C022115310531F06F3F31F481E09C
:101490009F3F19F403C081E001C080E0F82FF17094
:1014A0009F2E80FD3FC1F80140815181A380B4800F
:1014B00088E3C82E82E0D82EF0903A02F501E21BB4
:1014C000F30BFF2009F4D9C080913D02E83CF105FF
:1014D00008F095C0282F207F09F052C0561313C082
:1014E000491311C0FE2CE1100EC08F7080618093F3
:1014F0003D020E94A209C6010E940F0780913D0291
:10150000F80185834CC1AB2831F05F3F31F481E0B5
:101510004F3F19F403C081E001C080E080FD03C0AB
:1015200081E08E2502C080E090E0F82FF170FF2E60
:1015300080FF1CC0809106022091070236E08217CE
:1015400009F40BC190E0389FF001399FF00D112490
:10155000E85FFD4F6181561306C06081461303C0EA
:101560006281E61203C001968770E9CFFE2CEE205F
:1015700009F415C180913D02816080933D0254C001
:10158000561306C0491304C0E11002C0F80199C007
:10159000C8010E948107882361F1EE2051F120915A
:1015A0003D02822F82958F7090E0029774F08091B7
:1015B00038029091390298878F831986BB86AA8654
:1015C0002C87CE0107960E940F0786E0F801A8E35A
:1015D000B2E001900D928A95E1F70E94B0090E9455
:1015E000A2090AC0561711F1C8010E948107811192
:1015F0002CC0C8010E940F07FF24F394D0C0282FED
:10160000207F81F77A2DB98AA88A6E2D89890E9458
:10161000890788E392E00E940F0786E0F6011192A5
:101620008A95E9F70E94A209F12CB9C04913DCCFD1
:10163000E110DACFF8018583C8010E940F0786E028
:10164000F60111928A95E9F7AAC0EE2091F2209155
:101650003D02822F82958F7090E002970CF4B5CFF7
:1016600080913802909139029A8389831B82BD82CE
:10167000AC822E83CE010196A6CFE83CF10508F09E
:1016800044C0FE2CEE2009F4B4CF561330C04913E9
:101690002EC020913D0220FD21C0822F82958F70A7
:1016A000482F50E041155105C9F0F80125834F300E
:1016B000510541F08F5F982F9295907F822F8F7008
:1016C000892B8583C8010E940F0786E0F801A8E3F3
:1016D000B2E001900D928A95E1F73CC086E0F801F6
:1016E000A8E3B2E001900D928A95E1F758C0C801D5
:1016F0000E948107811169CF80913D0281608093B2
:101700003D02C8010E940F074AC07A2DB98AA88AF3
:101710006E2D89890E94890786E0F60111928A95CB
:10172000E9F718C0EE2009F464CFC8010E948107D0
:10173000F82E882309F45DCF86E0F801A8E3B2E033
:1017400001900D928A95E1F788E392E00E949D0353
:101750000E94B0090E94A20922C04D875E878D8534
:101760009E850E945309292F22952F70223028F43C
:101770009F7039F0811105C00BC0243028F49F7090
:1017800049F4805E883020F0C8010E940F079F2C2A
:10179000F92C05C0F8019581907F99F7F9CF8F2D2D
:1017A00061960FB6F894DEBF0FBECDBFDF91CF912B
:1017B0001F910F91FF90EF90DF90CF90BF90AF906F
:1017C0009F9008951F93CF93DF93CDB7DEB72C97EB
:1017D0000FB6F894DEBF0FBECDBF4F835887698721
:1017E0007A878B879C87CE0107960E941C0A8823E4
:1017F000D1F09F8188852A853B85232B31F08F3F4F
:1018000031F481E09F3F19F403C081E001C080E022
:1018100080FD47C04F81588569857A858B859C8579
:101820000E9498073EC086E0FE013796DE011196C1
:1018300001900D928A95E1F7FF81E8856A857B85A5
:101840006115710531F0EF3F31F481E0FF3F19F48C
:1018500003C081E001C080E080FD23C02091070229
:1018600030E0C9010196877099274091060250E047
:1018700084179507F1F1F983EA837D836C8396E001
:10188000929FD001939FB00D1124A85FBD4FFE0120
:10189000319601900D929A95E1F7809307020E948C
:1018A000810916E08091060290910702891771F173
:1018B000189FC0011124885F9D4F0E941C0A882335
:1018C00029F1E09106021E9FF0011124E85FFD4F0F
:1018D0004081518162817381848195810E94980742
:1018E0008091060290E00196877099278093060206
:1018F000D9CF0E9459071092070210920602E8E31E
:10190000F2E086E0DF011D928A95E9F72C960FB68A
:10191000F894DEBF0FBECDBFDF91CF911F91089528
:1019200080913E02859585958595089580913E022A
:101930008770089590913E02977081E009F480E0ED
:1019400008959091B20292FB222720F9281751F0B6
:1019500080FB92F99093B2028091B1029091B20211
:101960000C949E0D08958091B20282FB882780F925
:1019700091E089270C94A10C81E00C94A10C80E0EB
:101980000C94A10C80914A02089590914A02892BEF
:1019900080934A020895809590914A02892380930A
:1019A0004A02089510924A02089590914902892BA3
:1019B00080934902089580959091490289238093EC
:1019C000490208951092490208951092480208951C
:1019D00080913F02089508950C94EB0C0C94EC0C4C
:1019E0009091B20292FD08C090913F02981721F0A9
:1019F00080933F020C94EE0C089580913F0288235F
:101A000029F010923F0280E00C94EE0C0895E091D2
:101A10000001F091010180914A028083E091000170
:101A2000F0910101908180914902892B8083E0919E
:101A30000001F0910101908180914802892B8083FF
:101A400080913F02882381F0E0910001F091010133
:101A50009081892B808380910001909101010E94E7
:101A6000632481110E94FD0C80910001909101017D
:101A70000C941E240C94EB0C9091B20292FD10C0B9
:101A800098E0899F90011124262B20933E020E940A
:101A90001A0880913E028595859585950C943A0D9E
:101AA0000C941A0810923E0280E00C943A0D20919A
:101AB0003E028095822380933E02982F977041F4D6
:101AC00030E0482F082E000C550B2417350721F461
:101AD0009091B20292FF07C08595859585950E94E9
:101AE0003B080C94520D08956FEF7FEF80E090E07B
:101AF0000C94E73080E090E00E94C33021E0893E02
:101B00009E4F09F020E0822F089582E090E00C942F
:101B1000B53083E090E00C94B530CF9384E090E052
:101B20000E94B530C82F82E290E00E94B5302C2F81
:101B300030E0A901582BCA01CF910895CF93C92F46
:101B4000682F84E090E00E94C9306C2F82E290E020
:101B5000CF910C94C930AB01BC018FE090E00C94A4
:101B6000DB30AB01BC0183E190E00C94DB3060E042
:101B700070E0CB010C94B10D60E070E0CB010E94ED
:101B8000AB0D0C94B70D69EE7EEF80E090E00E9403
:101B9000E73060E082E090E00E94C93060E083E0DE
:101BA00090E00E94C930109202021092030210923B
:101BB00004021092050260E084E090E00E94C930C7
:101BC00060E082E290E00E94C93060E085E090E051
:101BD0000E94C93060E086E090E00E94C9306FEF5B
:101BE00087E090E00E94C93040E050E0BA0188E010
:101BF00090E00E94DB3060E08DE090E00E94C93010
:101C000040E050E0BA0188E190E00E94DB3060E003
:101C100087E190E00E94C93040E050E0BA018CE1D9
:101C200090E00E94DB3060E070E080E290E00E9493
:101C3000E73040E050E0BA0188E190E00E94DB30FC
:101C40000C94BC0D0C94C30D682F8EE090E00C94A6
:101C5000C9300E9492256093580270935902809374
:101C60005A0290935B0260935402709355028093E2
:101C7000560290935702089585B7806885BF85B74F
:101C8000806885BF08950C94541308950C94450EF4
:101C90000C94450E0C94480E0C94450E0C944C0E6E
:101CA0000C94450E0E943C0E8DE091E10E940026AE
:101CB0000E94500E0C944E0E0E94460E0C94450E3F
:101CC0000E947D250E94B0240E9411120E94A41F30
:101CD0000E94B81D0C944A0E9F92AF92BF92CF9271
:101CE000DF92EF92FF920F931F93CF93DF93CDB7C5
:101CF000DEB72A970FB6F894DEBF0FBECDBF0E94A5
:101D0000C91281110E94290E8CE4A82E82E0B82EFF
:101D100000E010E0902E802F0E944B11D82EF5018C
:101D2000C1905F01C826B1F40F5F1F4F0830110545
:101D300089F78FEF89838A831B820E9486258160C1
:101D4000782F9D838C8349815A816B818D810E947C
:101D500053032FC080915C0281FD0E945111E12C40
:101D6000FF24F3948C2D8F21F1F00E94430E8823E1
:101D700099F0EE829F82DF2081E009F480E088877D
:101D80000E9486258160782F9A8789874E815F819E
:101D900068858A850E945303F801E45BFD4F8081CA
:101DA000F826F08206C0E394FF0CF5E0EF12DACFDC
:101DB000BBCF0E94FC1D0E940A170E940B24909129
:101DC0004B028917B9F00E940B2480934B022A968C
:101DD0000FB6F894DEBF0FBECDBFDF91CF911F913C
:101DE0000F91FF90EF90DF90CF90BF90AF909F90BA
:101DF0000C944A032A960FB6F894DEBF0FBECDBFEF
:101E0000DF91CF911F910F91FF90EF90DF90CF90D6
:101E1000BF90AF909F900895CF93DF930E943610AC
:101E2000EC01811521E5920708F045C0811530E5E8
:101E3000930708F094C0883E910528F5803E9105EF
:101E400008F0F8C0883A910570F4853A910508F0D9
:101E50007CC08130910509F475C008F4E8C004978E
:101E600008F0E8C0E4C08F3B910508F0E0C0C85A14
:101E7000D0E0CC0FDD1FC657DE4F0990D881C02DB2
:101E8000CE019464D8C0811540E2940758F48115BE
:101E900051E0950708F0CEC08D3E910508F4C7C00B
:101EA0009065C9C0C11580E4D80708F4C0C0DF70D0
:101EB000CE01906AC0C0811525E59207A8F481156E
:101EC00034E5930708F095C0811543E5940708F0C1
:101ED0007BC0811552E5950708F061C0D82FCC274B
:101EE000CE01816F906AA7C0C11589E5D807A0F41B
:101EF000C11528E5D20708F082C0C11536E5D30721
:101F000008F095C08C2F0E94CA108F7190E0D82FD6
:101F1000CC27CE0190628FC0C1154AE5D40708F4E2
:101F200074C0CE0190568115904208F080C08D2F6C
:101F30008F710E94CA10DD27D0628F71AE01582BBD
:101F4000CA0179C081E090E076C0C55AD0E0C8549B
:101F5000DE4F8881C82FD0E0CE0190646CC074E061
:101F6000969587957A95E1F7282F23703C2F33704B
:101F700081E090E002C0880F991F3A95E2F79C68D3
:101F8000AC01522B9A019C2F9F709695969550E22A
:101F9000959FE0011124C9018C2B9D2B4CC08370AF
:101FA000992721E030E002C0220F331F8A95E2F723
:101FB0009C2F9695969580E2989FE0011124C22B64
:101FC000D32BCE019C6837C08370992721E030E085
:101FD00002C0220F331F8A95E2F79C2F96959695A3
:101FE00040E2949FE0011124C22BD32BCE019A68CA
:101FF00022C0D82FCC27CE01846F906A1CC0DC2F62
:10200000CC27CE01806F906A16C08C2F8F700E94F3
:10201000CA1094E0D695C7959A95E1F7CF70D0E0B5
:10202000DC2FCC27D0699E01282BC90104C080E099
:1020300090E001C0CE01DF91CF91089528E2829F08
:10204000C0011124FC0125E0729FE00DF11D112457
:10205000E60FF11DEE0FFF1FE65CFE4F8591949198
:1020600008950E941E100E940C0F08958238910559
:1020700069F1B0F48133910509F46DC048F48932F7
:10208000910509F463C08A32910509F469C0089585
:102090008533910509F455C089339105B9F0089548
:1020A000833E910569F138F4803E9105B1F0823E9E
:1020B000910509F10895863E9105A9F1873E9105A4
:1020C000B9F1843E910509F064C023C02091B102AA
:1020D00020FD4FC021FD4DC008958091B10280FDCB
:1020E00044C08091B20280FF44C08091B10284FD5F
:1020F00042C083EE4DC08091B10282FF38C0F5CF5F
:102100008091B10282FD33C08091B20280FD31C066
:10211000ECCF8091B20281FF32C08091B10284FD88
:102120002AC087EE35C08091B10283FF26C0F5CF6B
:102130008091B10283FD21C08091B20281FD1FC058
:10214000ECCF8091B10285FD1CC01DC08091B10211
:1021500085FD19C016C08091B10286FD16C017C05A
:102160008091B10286FD13C010C089E311C082EED8
:102170000FC080EE0DC080E00BC086EE09C084EE7B
:1021800007C089E205C085E303C08AE201C081E39C
:1021900090E008959091B10292FF0DC0282F287110
:1021A000283019F4877F846006C0282F24712430DA
:1021B00011F48B7F886093FF0DC0282F2871283180
:1021C00019F4877E846106C0282F2471243111F40C
:1021D0008B7E88612091B20220FF0DC0382F3871AC
:1021E000383019F4877F816006C0382F3171313063
:1021F00011F48E7F886021FF0DC0282F28712831AF
:1022000019F4877E816106C0282F2171213111F4D4
:102210008E7E886194FD877E089580E008950C94F9
:10222000740D0E94C9128FE39CE90197F1F700C079
:1022300000000E94C91280E00E944B1180FF04C080
:102240000E940F110C94EF2508950C9411110E9417
:102250007A0D811102C00E94220E0E94850D80938A
:102260005C020E948D0D9093B2028093B1020E9495
:1022700025110E94890D682F70E080E090E00E9497
:10228000BA076091FE017091FF0180910002909168
:1022900001020C94F207E82FF0E0E554FD4F808135
:1022A0000895089580EA8A95F1F7089500C0089589
:1022B0000C94521108950C945A110C945B110C94C7
:1022C0005A110C945F11F894E82FE295EF70F0E04A
:1022D00031A1282F2F7081E090E001C0880F2A954E
:1022E000EAF7982F9095932391A392A1892B82A32B
:1022F0007894089508950C947A110F931F93CF93B7
:10230000DF93C2E0D1E089918F3F11F00E94631109
:1023100081E0C730D807B9F7C7E0D1E00BE011E0A2
:1023200089918F3F11F00E9463110C171D07C1F7AF
:10233000DF91CF911F910F910895DF92EF92FF925D
:102340000F931F93CF93DF93062F10E00E5F1E4F66
:10235000E80128812F3F09F45CC0F62EE92ED82E23
:10236000F894E22FE295EF70F0E081A12F70C1E0C8
:10237000D0E0AE0102C0440F551F2A95E2F79A0142
:10238000842B81A382A12095282322A378940E94E4
:1023900056110F2C01C0CC0F0A94EAF73C2F6C2F7A
:1023A0006095A7E0B1E0ED2DFE2DAF014C5F5F4FD2
:1023B000E12C2D912F3FA9F0822F82958F7090E014
:1023C000EC0188A190E02F7002C0959587952A9521
:1023D000E2F780FD06C08081832B8083EE24E394A6
:1023E00003C08081862380833196E417F50709F7BF
:1023F000F80180818F3F11F00E9463116E2D8F2DA7
:10240000DF91CF911F910F91FF90EF90DF900C948F
:102410005811DF91CF911F910F91FF90EF90DF90B6
:102420000895CF93DF93CDB7DEB72D970FB6F8940D
:10243000DEBF0FBECDBF0E946E1380910F018111D0
:102440002FC0FE01319628E0DF011D922A95E9F7A1
:1024500025E3298324E32A8321E32B8327EF2C839D
:10246000CF01E7E0F1E09E01275F3F4FDC014D9196
:10247000CD014193A217B307C9F725E0E4E5F1E0E8
:10248000DE01199601900D922A95E1F7FC01A2E078
:10249000B1E0CE010E9621912D93E817F907D9F7F7
:1024A00080910F01811102C094E001C090E09093EF
:1024B000C40284E0891B8093C3020E947D11E3EB78
:1024C000F2E0ABEBB2E011921D9282E0EB3BF80739
:1024D000D1F784E00E941D130E94D1022D960FB601
:1024E000F894DEBF0FBECDBFDF91CF910C9478136F
:1024F0001F93CF93DF9300D000D0CDB7DEB70E94FB
:1025000054136091C402882371F119821A821B82CC
:102510001C82862F90E0BE016F5F7F4F85549D4FD8
:102520000E948613E091C3029E012B5F3F4FF0E0B3
:10253000E554FD4FDE011196882361F010E08D9186
:102540009081981711F0808311E03196A217B3079C
:10255000B1F706C011921D92A217B307D9F711E087
:102560000E94D7020DC070E065547D4F8091C30278
:1025700090E085549D4F0E9416140E947B1110E03C
:10258000812F0F900F900F900F90DF91CF911F919F
:102590000895EF92FF920F931F93CF93DF93CDB7E0
:1025A000DEB728970FB6F894DEBF0FBECDBF8E0101
:1025B0000F5F1F4F88E0F80111928A95E9F7F12C1F
:1025C0006F2DC8010E949D11F394F5E0FF12F8CF22
:1025D00048E050E0B80183EB92E00E949F307C011C
:1025E00021E0892B09F420E0E114F10441F088E0B6
:1025F000F801A3EBB2E001900D928A95E1F76091AA
:10260000C40270E065547D4F44E083EB92E00E9489
:102610001E13EF2819F40E94781202C081E090E0A6
:1026200028960FB6F894DEBF0FBECDBFDF91CF91D5
:102630001F910F91FF90EF9008950895FF920F93CF
:102640001F93CF93DF938C01F62ED72FC42F222315
:1026500049F081E080935F020E94862590935E029C
:1026600080935D0280915F028823C1F080915D02BA
:1026700090915E020E949E25059780F0EF2DFD2F20
:10268000D8014C2F50E0CD01801B910B841795078A
:102690001CF48D918193F7CF10925F02DF91CF915F
:1026A0001F910F91FF9008958091620281110DC0DA
:1026B0000E94BB2C811102C082E001C081E08093A6
:1026C0006202823011F40E94B62C81E09091620285
:1026D000913009F080E008950C9454130E946C131B
:1026E00080930F010E94541381110C94BE1308951E
:1026F0000E945413811102C00C94C013089581E00C
:10270000909163029A3008F080E008950F931F9330
:10271000CF93DF93EC018B01809163028A3038F410
:10272000B801CE010E94141481111DC00AC080910D
:102730006002909161020E949E25843F914080F743
:1027400015C0809163028F3F19F08F5F8093630201
:10275000809163028A3060F00E9486259093610226
:102760008093600203C01092630202C080E001C047
:1027700081E0DF91CF911F910F9108950C94412238
:102780000C944422EF92FF920F931F93CF93DF9309
:102790007901C82F880FDD0B41155105A9F08AE09A
:1027A0008C9FF0018D9FF00D1124E05FFE4F83811F
:1027B00094818C599D4F228130E04217530708F4D1
:1027C0009A01A9010E94AC30CE010E944E23892BB0
:1027D00009F50115110501F18AE08C9FF0018D9F2B
:1027E000F00D1124E05FFE4F458150E004171507FE
:1027F00008F4A8018AE08C9FF0018D9FF00D112450
:10280000E05FFE4F668177816C597D4FC7010E9462
:10281000AC3002C080E001C081E0DF91CF911F9118
:102820000F91FF90EF9008950C9437150C94531569
:102830000F931F93CF93DF9300D000D0CDB7DEB7B7
:102840006091790270917A0280917B0290917C0272
:102850000E94AD25643671058105910528F10E941D
:10286000D624DC01CB010296A11DB11D89839A8378
:10287000AB83BC8300E010E020E030E044E050E0B7
:10288000BE016F5F7F4F82E00E94C213182F882322
:1028900061F00E9492256093790270937A0280938E
:1028A0007B0290937C0201C011E0812F0F900F906A
:1028B0000F900F90DF91CF911F910F910895AF92DC
:1028C000BF92CF92DF92EF92FF920F931F93CF931D
:1028D000DF937C015B016A010E947F13811103C0B9
:1028E00001E010E002C00AE010E0C1E0D0E0F8949E
:1028F000B501C701F60109957894811115C021969B
:102900000C171D0794F0CC9F9001CD9F300D300D1A
:10291000112480E090E045E34A95F1F7000001962C
:1029200082179307C1F7E3CF81E0DF91CF911F9129
:102930000F91FF90EF90DF90CF90BF90AF900895F0
:10294000AF92BF92CF92DF92EF92FF920F931F93BD
:10295000CF93DF9300D000D01F92CDB7DEB75B01DD
:10296000E090BB01F090BC0101E010E09E012B5F04
:102970003F4F40E050E060E070E080E00E94C21312
:10298000182F882309F43EC067018FEFC81AD80AB0
:102990006091750270917602809177029091780231
:1029A0000E94AD25643671058105910518F104E09A
:1029B00010E09E012F5F3F4F40E050E060E070E08C
:1029C00081E00E94C213182F64E070E0C6010E94EB
:1029D000A51F91E02D81281390E0192351F10E9449
:1029E000922560937502709376028093770290939C
:1029F000780211C064E070E0C6010E94A51F9D81AD
:102A00008913D5CFF70181819281A381B481898314
:102A10009A83AB83BC83112361F089819A81AB8156
:102A2000BC818093710290937202A0937302B09361
:102A300074028091710290917202A0917302B09120
:102A40007402F50180839183A283B383812F0F9059
:102A50000F900F900F900F90DF91CF911F910F91DA
:102A6000FF90EF90DF90CF90BF90AF9008950F93BD
:102A70001F93CF93DF93EC018B0140EA54E10E9456
:102A80005F14882351F048E154E1B801CE01DF9191
:102A9000CF911F910F910C945F1480E0DF91CF9143
:102AA0001F910F9108950F931F93CF93DF93F89485
:102AB000C091BB01D091BC01CE01019624E0FB0185
:102AC000DC0101900D922A95E1F764E070E00E942C
:102AD000A51F88837894F8946D817E818F81988575
:102AE00000916D0210916E0220916F023091700280
:102AF000601771078207930751F060936D0270931E
:102B00006E0280936F02909370020E94B9247894B1
:102B1000DF91CF911F910F9108950E94FA240E9496
:102B200061270E947A270E948C270E945C0EFBCFAF
:102B30008091830280FF0BC06091330185E0689F24
:102B4000B001112475956795759567952BC081FF28
:102B500009C06091330185E0689FB001112475952B
:102B6000679520C082FF07C06091330185E0689FB0
:102B7000B001112417C0909182029923D1F0609185
:102B80003201961788F72091330185E0289F900144
:102B90001124929FA001939F500D112470E0CA014F
:102BA0000E9425306038710540F46115710519F4F3
:102BB00006C065E070E0862F08958FE7089581E0F4
:102BC00008958091830280FF08C060912F0170E01A
:102BD000759567957595679521C081FF06C06091D1
:102BE0002F0170E07595679519C082FF04C0609150
:102BF0002F0170E010C090918102992399F06091AB
:102C00002E019617A0F780912F01899FC0011124F2
:102C100070E00E9425306038710540F4611571053F
:102C200019F406C061E070E0862F08958FE70895DB
:102C300081E008958D3E21F40E949815819504C08D
:102C40008E3E29F40E9498158093870208958F3E46
:102C500021F40E949815819504C0803F29F40E94B8
:102C60009815809386020895893F19F40E94E11512
:102C700005C08A3F31F40E94E11581958093880256
:102C800008958B3F21F40E94E115819504C08C3F8B
:102C900029F40E94E1158093890208959FE0980F1E
:102CA000983078F421E030E0A90102C0440F551FAC
:102CB0009A95E2F7CA0190918502892B809385024B
:102CC00008958D3F21F48091830281600BC08E3F77
:102CD00021F480918302826005C08F3F29F48091A6
:102CE000830284608093830208958D3E39F490912D
:102CF000870297FF35C01092870259C08E3E29F493
:102D0000909187021916BCF32BC0909186028F3EDA
:102D100029F497FF25C01092860249C0803F19F41C
:102D20001916CCF31DC090918802893F29F4191619
:102D3000BCF4109288023BC08A3F19F497FF10C080
:102D4000F8CF8B3F39F49091890297FF09C0109218
:102D500089022DC08C3F21F4909189021916BCF391
:102D60009FE0980F983080F421E030E0A90102C084
:102D7000440F551F9A95E2F7CA01809590918502FC
:102D800089238093850213C08D3F21F480918302B3
:102D90008E7F0BC08E3F21F4809183028D7F05C012
:102DA0008F3F29F4809183028B7F809383028091EF
:102DB0008602811106C080918702811102C01092A3
:102DC000820280918802811106C08091890281115E
:102DD00002C01092810208950E94862520918602E9
:102DE000211104C020918702222321F090938002B8
:102DF00080937F0220918802211104C020918902D2
:102E0000222321F090937E0280937D0284E892E059
:102E10000C942924EF92FF920F931F93CF93DF938B
:102E200000D000D000D0CDB7DEB786E0E4E8F2E015
:102E3000DE01119601900D928A95E1F7E0908602ED
:102E4000F090870200918802109189021092860208
:102E5000109287021092880210928902E11003C03A
:102E6000FF2009F45DC080917F02909180020E9452
:102E70009E25AC0190918202992339F02091340172
:102E800030E02417350758F04BC0209135018AE017
:102E9000289F900111242417350718F041C09F3F47
:102EA00019F09F5F90938202EE2061F00E949815C6
:102EB0001E1414F09FEF01C091E0989F902D1124F3
:102EC00090938602FF2061F00E9498151F1414F061
:102ED0009FEF01C091E0989F902D1124909387025D
:102EE000309186023323E1F0209187022223C1F042
:102EF00045EB3403C0011124992319F09093860205
:102F000003C081E08093860235EB2303C0011124C6
:102F1000992319F09093870203C081E08093870280
:102F2000011103C0112309F45DC080917D029091CD
:102F30007E020E949E25AC0190918102992339F076
:102F40002091300130E02417350758F04BC0209114
:102F500031018AE0289F900111242417350718F0C9
:102F600041C09F3F19F09F5F90938102002361F061
:102F70000E94E115101614F09FEF01C091E0989F98
:102F8000902D112490938802112361F00E94E11585
:102F9000111614F09FEF01C091E0989F902D11241D
:102FA00090938902309188023323E1F020918902C5
:102FB0002223C1F045EB3403C0011124992319F0F9
:102FC0009093880203C081E08093880235EB23034D
:102FD000C0011124992319F09093890203C081E064
:102FE000809389028091860281110BC080918702B3
:102FF000811107C080918802811103C080918902EC
:1030000081110E94EC16EB82FC820D831E8386E008
:10301000FE013196A4E8B2E001900D928A95E1F7A5
:1030200026960FB6F894DEBF0FBECDBFDF91CF91CD
:103030001F910F91FF90EF900895E4E8F2E086E091
:10304000DF011D928A95E9F71092820210928102A7
:10305000109283020895EF92FF920F931F93CF93E4
:10306000DF938B01682F11110AC0442329F0E82F48
:10307000F0E0EF5BFD4F6491762F862F75C0212F16
:1030800030E0E82FF0E0442321F0EF5BFD4FE491C6
:10309000F0E046E0049FC0011124CFEFD0E0BE0174
:1030A0000E9411304BEA4603C001479F900D112446
:1030B000800F911D800F911D982F990F890FAE01E0
:1030C000421B530B4E9FD0014F9FB00D5E9FB00D22
:1030D00011249B2F189FA0011124452F55278E01E5
:1030E000041B150B0E9FA0010F9F500D1E9F500D2E
:1030F00011247E01E81AF108E29E8001E39E100D82
:10310000F29E100D1124212F3327C21BD30BCE9F0B
:103110009001CF9F300DDE9F300D1124623071057C
:10312000A9F048F46115710569F061307105C9F4C1
:103130008B2F752F0DC06430710581F058F066300B
:10314000710579F47E2F8B2F932F0DC0832F7B2F4A
:103150009E2F09C08E2F7B2F952F05C08E2F732F8A
:1031600002C07E2F852F692FDF91CF911F910F9184
:10317000FF90EF90089541E00E942B180895089564
:103180000E94BB180895CF93DF93762FE901682F33
:10319000842F0E94C018798368838A83DF91CF913E
:1031A00008958091C602282F269530E0211531051B
:1031B00019F48170826005C02532310524F08170D8
:1031C00088648093C602089588E090E00C94BD3036
:1031D000CF92DF92EF92FF926B017C010E94D11897
:1031E000B701A60188E090E0FF90EF90DF90CF90CC
:1031F0000C94DB30E6ECF2E083E0808311828FEF09
:1032000082838383148260817181828193810C9493
:10321000E8188091C60280FF02C08695089580E07C
:1032200008959091CA02933018F49F5F9093CA0258
:10323000882351F06091C6027091C7028091C80244
:103240009091C9020C94E818089581E00C9411192A
:103250009091CA02992319F091509093CA02882341
:1032600051F06091C6027091C7028091C80290919E
:10327000C9020C94E818089581E00C94281970E0B4
:103280000C94791F60913A018091C60280FF0AC0B8
:103290008091390123E0829FC001112485539D4F05
:1032A0000C943F1980913B0190913C01891780F764
:1032B000E82FF0E09F01220F331FE20FF31FE553C9
:1032C000FD4F1182108212828F5FF0CF9091C60263
:1032D00090FF16C090913B0120913C01921770F431
:1032E000E92FF0E0DF01AA0FBB1FEA0FFB1FE55338
:1032F000FD4F8183608342839F5FF0CF0C9442191E
:103300000895CF93DF9300D01F92CDB7DEB7909191
:10331000C60290FF0AC09E012F5F3F4F0E94C31854
:103320004B8169818A810E9466190F900F900F90DE
:10333000DF91CF910895CF93DF93EC016C8170E022
:1033400080E090E00E94122E20E030E04FE753E44E
:103350000E94352D2BED3FE049E450E40E943B2FC5
:103360000E94A82F0E94AF2D2BE43AE34EE25FE3C8
:103370000E94C82C20EF3BEF48ED52E40E943B2F07
:103380000E94E12D462FE6ECF2E0628181810E94ED
:1033900081198C818F5F8C83DF91CF910895CF93BA
:1033A000DF93EC01E6ECF2E0438162818C810E94C4
:1033B00081198C818F5F8C83DF91CF9108950F935A
:1033C0001F93CF93DF9300D01F92CDB7DEB78C0150
:1033D00080918A0281110AC09E012F5F3F4F4FEFFB
:1033E0006FEF0E94C3188A8180938A02F80184815A
:1033F000813051F028F0823061F440918A020AC095
:1034000080918A0240E007C060918A0240E080E03B
:1034100003C040E080E060E00E946619F80184810A
:1034200090E0019663E070E00E94253084830F9065
:103430000F900F90DF91CF911F910F910895AF9250
:10344000BF92CF92DF92EF92FF920F931F93CF9391
:10345000DF9300D01F92CDB7DEB7182FF62E042FC2
:10346000E22E9091C60290FF6DC0E92FE695AE2F37
:10347000B0E0A354BE4F8C91809396029E7F923011
:1034800061F49E012F5F3F4F812F0E94C3184B8133
:1034900069818A810E94661943C0823019F40091C3
:1034A000C9023EC0863019F41091C70239C0893074
:1034B000D9F38931A9F5E9518E2F8170D82EE6957F
:1034C000F0E0E45CFD4FA590B490C12CBB2460916A
:1034D0003D01C61618F52C2D30E0A29EC001A39E1A
:1034E000900DB29E900D112470E00E941130812F3A
:1034F000D11002C0860F01C0861B90913B01290F9D
:10350000311DA901440F551F240F351F25533D4F71
:10351000402F6F2D0E94C318C394D9CF0E94421927
:103520001093C702F092C8020093C902EE2051F036
:103530006091C6027091C7028091C8029091C90241
:103540000E94E8180F900F900F90DF91CF911F917C
:103550000F91FF90EF90DF90CF90BF90AF900895C4
:10356000E6ECF2E09181282F4381628188E0890FA7
:103570000C941F1A81E00C94B01AE6ECF2E09181F1
:10358000282F4381628188EF890F0C941F1A81E0F4
:103590000C94BD1AE6ECF2E0628128E0620F08F4B8
:1035A0006FEF282F438181810C941F1A81E00C94C6
:1035B000CA1AE6ECF2E0628128E0621B08F460E0DF
:1035C000282F438181810C941F1A81E00C94D91A11
:1035D000E6ECF2E0438128E0420F08F44FEF282F99
:1035E000628181810C941F1A81E00C94E81AE6EC48
:1035F000F2E0438128E0421B08F440E0282F62817A
:1036000081810C941F1A81E00C94F71A20E00C942D
:103610001F1AFF920F931F93CF93DF93EC01F12CAE
:103620000FEF10E060913D01F616F0F480913B0140
:103630002F2D30E0280F311DC901880F991F280F49
:10364000391F25533D4F70E0C8010E942530962F49
:103650008C814091C9026091C802F99E800D1124AD
:103660000E94C318F394DECF0E9442199A818C8184
:1036700090FF02C08F5F01C081508C83DF91CF919A
:103680001F910F91FF900895BF92CF92DF92EF921A
:10369000FF920F931F93CF93DF93FC01828180FFF2
:1036A00002C00FEF01C001E010E080913D0118174A
:1036B00008F040C080913B01C12ED12CE601C80F1B
:1036C000D11DCE01880F991FC80FD91FC553DD4FDB
:1036D000198218821A8234E0E32EF12CB12C8091E9
:1036E0008C028B0D813114F08F7005C087FF03C0F1
:1036F00090913D01890F082E000C990BC816D90630
:1037000091F48091C9028E9DA0018F9D500D1124CE
:1037100055954795559547959E016091C8028091B2
:10372000C7020E94C318B00EF1E0EF1AF108B9F613
:103730001F5FBBCF0E94421980918C02013031F48F
:10374000811102C080913D01815007C090E0019637
:1037500060913D0170E00E94253080938C02DF91E2
:10376000CF911F910F91FF90EF90DF90CF90BF907E
:103770000895CF9380913B0190913C01891770F49B
:10378000E82FF0E09F01220F331FE20FF31FE553F4
:10379000FD4F1182108212828F5FF0CFC0E06091E6
:1037A0003D01C617C0F5EC2FF0E070E0CF010E949C
:1037B000253020913B01820F20918B02022E000CBC
:1037C000330B90E0E217F307CCF020913801022E82
:1037D000000C330B2E173F078CF09C01220F331F78
:1037E000820F931F9C0125533D4F4091C902609168
:1037F000C8028091C7020E94C3180BC0FC01EE0FE3
:10380000FF1F8E0F9F1FFC01E553FD4F1182108299
:103810001282CF5FC4CF0E9442192091370180915C
:103820008B02820F80938B0290913801920F9093BC
:10383000380119165CF4082E000C990B40913D01DB
:1038400050E041505109841795071CF021952093B1
:103850003701CF9108958F929F92AF92BF92CF92EE
:10386000DF92EF92FF920F931F93CF93DF938C0120
:10387000FC014481C42FD0E09E01DE010E9469302A
:103880009B01AC010E947F306B017C01E0E2F0E023
:10389000EC1BFD0BA5E5B0E09B01AC010E947F3065
:1038A0004B015C019F01DF010E9461309B01AC0173
:1038B0000E948A309B01AC012C0D3D1D4E1D5F1DE9
:1038C000C501B4010E943930C22FD22F2A3228F408
:1038D000F3E02F9F900111240DC025E530E02C1B53
:1038E0003109C901880F991F280F391F37FF02C0FE
:1038F0002F5F3F4F35952795C22FC095F12C85E559
:10390000E82EED1A80913D01F816C8F4F1FC02C0D2
:103910008E2D01C08D2F90913B012F2D30E0290F6E
:10392000311DA901440F551F240F351F25533D4F4D
:103930004C2F6091C8020E94C318F394E3CF0E94F9
:103940004219F8018481811102C091E003C08032E4
:1039500019F49FEF9093360190913601890FF80189
:103960008483DF91CF911F910F91FF90EF90DF90B3
:10397000CF90BF90AF909F908F9008950F931F931B
:10398000CF93DF93EC0100E010E080913D01282F00
:1039900030E00217130724F590913B019801290F9D
:1039A000311DA901440F551F240F351F25533D4FCD
:1039B000869590E04C81081719071CF4442331F0D8
:1039C00002C0411103C04091C90201C040E06091B2
:1039D000C8028091C7020E94C3180F5F1F4FD5CF46
:1039E0000E9442198C8190E00196817099278C8306
:1039F000DF91CF911F910F910895E6ECF2E0808165
:103A00008E7F808360817181828193810E94E8181A
:103A1000109297022FEF80E792E021508040904073
:103A2000E1F700C000000C944219E6ECF2E080815E
:103A30008E7F8083109297022FEF80E792E02150D3
:103A400080409040E1F700C000000C9442191092B1
:103A500097028091940281110AC081E080939402C0
:103A60008091C6028170809393020C94151D089575
:103A70006091C602669570E04BE050E08EE391E005
:103A80000E949230892B19F481E0809397020E9462
:103A9000F12490938E0280938D0208959091C60236
:103AA00090FF35C09170811102C0926006C08532CE
:103AB00010F0986402C0880F982B9093C60266237A
:103AC00051F06091C6027091C7028091C802909136
:103AD000C9020E94E8186091C602669570E04BE04A
:103AE00050E08EE391E00E949230892B19F0109201
:103AF000970202C00E94381D81E08093900240919D
:103B0000C9026091C8028091C7020C94061B0895F7
:103B1000682F9091C602969581E0890F853208F052
:103B200081E00C944E1D81E00C94881D682F9091CB
:103B3000C60296958FEF890F09F484E20C944E1D0E
:103B400081E00C94961D61E00C944E1DE6ECF2E0D1
:103B500080818160808386950C94A31D8091C6022C
:103B600080FD0C94FD1C0C94A61D60E00C944E1D71
:103B70008091950281112EC00E947A0D811104C09E
:103B80000E94220E0E94FA180E94E4186093C60256
:103B90007093C7028093C8029093C9026E7F61F44C
:103BA0000E94FA180E94E4186093C6027093C7023C
:103BB0008093C8029093C9020E94D1181092970274
:103BC0008091C60280FF03C086950E94B51D81E0EA
:103BD000809395020895E6ECF2E080818160808315
:103BE00086950C94B51D10929402809193028111D8
:103BF0000E94EB1D0C94381D0F931F93CF93DF93FE
:103C000080919702882309F485C080919602E09103
:103C1000C602E695E81BE0938F02823049F4F0E09B
:103C2000E85CFD4FE491CE2FD0E00BE919E149C0EB
:103C3000863049F4F0E0EB5CFD4FE491CE2FD0E00C
:103C40000FEC19E13EC0893051F4E695F0E0EE5CEE
:103C5000FD4FE491CE2FD0E009E01BE132C08F3060
:103C600051F4E695F0E0E15DFD4FE491CE2FD0E018
:103C700004E41BE126C0853149F4F0E0E45DFD4F2A
:103C8000E491CE2FD0E009EB1BE11BC0883181F01D
:103C9000833239F4EAE2F2E0C591D4910FED19E1F3
:103CA00010C0843251F4C4EFD1E00EEB1CE109C026
:103CB000C8E2D0E00BE21CE104C0C0EDD7E00FEB9E
:103CC00018E180919002882361F0109290020E9486
:103CD000F12490938E0280938D02109292021092A2
:103CE00091020E94F124E0918D02F0918E028E1BD0
:103CF0009F0B8F3F9F4770F4EC0FFD1FF0938E02D8
:103D0000E0938D028DE892E0F801DF91CF911F9151
:103D10000F910994DF91CF911F910F9108958823FE
:103D200011F0FA0101C0FB010994CF93DF93C82F72
:103D3000D62F0E9409198C1740F00E9409198D177F
:103D400020F4DF91CF910C94931D8C2FDF91CF91B4
:103D50000C94A31D1F93CF93DF93FB0112811111CC
:103D6000C3C0EC010E94C20C8272CD3CFCE5DF07AF
:103D700009F49AC0A8F5C73CECE5DE0709F476C063
:103D8000A8F4C43C9CE5D90709F45FC028F4C33CFF
:103D9000DC4509F457C054C0C53C9CE5D90709F47B
:103DA00059C0C63CDC4509F45CC04AC0CA3CFCE5CD
:103DB000DF0709F46AC050F4C83CECE5DE0709F4FB
:103DC0005AC0C93CDC4509F45BC03AC0CB3C9CE519
:103DD000D90709F45FC0CC3CDC4509F460C030C0B1
:103DE000C23DFCE5DF0709F46FC088F4CF3C9CE5D9
:103DF000D90709F460C008F45CC0C03DFCE5DF07EA
:103E000009F45CC0C13DDC4509F45BC019C0C53D87
:103E10009CE5D90709F460C050F4C33DFCE5DF0719
:103E200009F455C0C43DDC4509F454C009C0C63D81
:103E30009CE5D90709F455C0CE35DD4509F454C0D9
:103E400011E052C00E94AE1D4FC040EA5DE163E93F
:103E50007DE104C043E95DE160EA7DE10E948F1EDF
:103E600043C047EC5AE16AEB7AE1F8CF4AEB5AE1FA
:103E700067EC7AE1F3CF45EE5AE166ED7AE1EECFF9
:103E800046ED5AE165EE7AE1E9CF43E05BE164EFAC
:103E90007AE1E4CF44EF5AE163E07BE1DFCF4CE32A
:103EA00059E165E279E1DACF45E259E16CE379E184
:103EB000D5CF81E017C065E082E010C068E086E001
:103EC0000DC06EE089E00AC064E18FE007C067E1E1
:103ED00085E104C088E106C062E289E10E94951E86
:103EE00003C083E20E94A31D812FDF91CF911F9118
:103EF0000895539A2BB1277F3BB138604FB7F894A0
:103F0000FC01CB01880F991F680F791F6E0F7F1F6F
:103F1000E617F70789F0819198E03BB9000000C0EF
:103F200087FF2BB9880F000000C000C000C02BB96C
:103F300000C09A9591F7ECCF4FBF8FE594E00197C1
:103F4000F1F700C0000008950895FC01680F791F83
:103F50008FEF91E3E617F70771F02191822728E0B0
:103F600030E087FF03C0880F892701C0880F2150E8
:103F70003109B9F7EFCF08950F931F93CF93DF93D4
:103F8000C42FD22FFC0182818823C9F040939A026A
:103F90000E948625909399028093980280E28C0F6C
:103FA000883008F057C0C77081E001C0880FCA95FB
:103FB000EAF7DF91CF911F910F910C94D504809176
:103FC0009A02481330C080919802909199020E9401
:103FD0009E25883C910538F510E21D0FCD17B9F0EC
:103FE00080E28C0F883040F4C77081E001C0880FF8
:103FF000CA95EAF70E94DC04183028F581E09D2F6D
:10400000977001C0880F9A95EAF70E94D504802F17
:104010000E94CC041830F0F4D77081E001C0880F02
:10402000DA95EAF70AC080E28C0F883098F4C770FE
:1040300081E001C0880FCA95EAF7DF91CF911F9107
:104040000F910C94DC04802FDF91CF911F910F9181
:104050000C94CC04DF91CF911F910F9108950F9391
:104060009C01CB01243F4CE5340731F188F4293D14
:10407000FCE53F07D9F02A3D4CE5340779F1283DAE
:104080003C45A9F506E221EE41EE68ED7CE52BC04A
:10409000263FFCE53F07E1F0A8F0273F3C4539F516
:1040A00007E225EE46EE67EF7CE51DC007E225EE50
:1040B00045EE69ED7CE517C006E221EE40EE64EFC7
:1040C0007CE511C007E225EE44EE65EF7CE50BC010
:1040D00006E221EE42EE66EF7CE505C008E221E053
:1040E00045EE6AED7CE50E94BC1F80E008C0FC0143
:1040F0008281882319F010929A0201C081E00F9109
:104100000895CF93DF93EC01FB018281882309F4AA
:1041100026C1C430FDE5DF0760F4CB3F9CE5D9073D
:1041200068F49E0122503C452431310508F018C145
:1041300005C0C236EDE5DE0709F012C10E948D0D03
:104140009093B2028093B102C031FCE5DF0709F41D
:10415000CAC008F041C0C8309CE5D90709F4A4C022
:10416000F0F4C430FCE5DF0709F48CC068F4C23019
:104170009CE5D90709F482C0C330DC4509F0E5C0ED
:104180008091B1028260DFC0C630FCE5DF0709F430
:1041900083C008F085C08091B1028860D4C0CC3063
:1041A0009CE5D90709F490C068F4CA30FCE5DF0744
:1041B00009F47EC008F084C00E9459078091B102C2
:1041C0008068C1C0CE309CE5D90709F481C008F0F1
:1041D00086C08091B10294C0CD3FFCE5DF0709F4B1
:1041E0007BC038F5C4319CE5D90709F49AC058F46E
:1041F000C231FCE5DF0709F47AC008F07EC0809187
:10420000B1028F7BA0C0CB3F9CE5D907F1F108F04C
:104210003FC0C531DC4509F098C08091B10282FBF6
:10422000222720F991E0922790FB82F990FB83F9F5
:104230008AC0C1308DE5D80709F467C050F4809179
:10424000B202CF3FECE5DE07C1F108F05BC08D7F25
:1042500065C0C3308DE5D80709F471C008F46DC09E
:10426000C236DD4509F071C08091B10284FB22277E
:1042700020F991E0922790FB84F965C08091B1020A
:10428000816061C08091B10216C08091B20216C0F7
:104290008091B202826042C08091B102806153C0BD
:1042A0008091B10280624FC08091B10280644BC0A6
:1042B0008091B1028860846046C0826081602EC0B7
:1042C0008091B1028E7F3FC08091B1028D7F3BC053
:1042D0008091B102877F37C08091B20214C0809173
:1042E000B1028F7E30C08091B1028F7D2CC00E94C0
:1042F00059078091B1028F7726C08091B102877FE4
:104300008B7F21C08D7F8E7F09C08091B202982F54
:10431000909591708E7F892B90FB81F98093B202EA
:1043200014C00E9459078091B10287FB222720F90F
:1043300091E0922790FB87F906C081E001C080E000
:104340000E94240E02C08093B1028091B10290912C
:10435000B2020E949E0D0E94590780E001C081E0D8
:10436000DF91CF910895CF93DF9386319C4541F53E
:10437000EB010E94C20C982F8A812091000130919C
:104380000101882379F09A7A81E009F480E0809332
:104390009B02911102C069E201C065E3C9010E945C
:1043A000A5240AC080919B02811102C069E201C06C
:1043B00065E3C9010E94A7240E94070D80E001C0A7
:1043C00081E0DF91CF9108958EE14A9B02C0815038
:1043D000E1F74A9BFECF08955A9880E28A95F1F75B
:1043E0005A9A0895FC012AE02A95F1F728E090E016
:1043F00080E031E040E14A95F1F7880F4A9B02C026
:104400008160932700C0000040E14A95F1F72150F8
:1044100089F720E12A95F1F729B100C0000030E1C9
:104420003A95F1F722FB222720F992272081920F5B
:1044300090830895EF92FF920F931F93CF93DF9392
:104440001F92CDB7DEB719828C017C01E60EF11CFC
:104450000E151F0551F00E94E421CE0101960E9425
:10446000F221F80181938F01F3CF81E099819111BD
:1044700080E00F90DF91CF911F910F91FF90EF900F
:104480000895529A5A9A089552985A9AEA9AE9E6E1
:10449000F0E080818F7C80830895615091E001C0BD
:1044A000990F6A95EAF720E031E0992361F0492FEE
:1044B000482319F05A9A232701C05A9840E24A9596
:1044C000F1F79695F2CF222311F05A9A01C05A982B
:1044D00080E28A95F1F75A980895FF920F931F93FF
:1044E000CF93DF93EC018C01060F111DC017D1078C
:1044F00041F0F9900E94EC2168E08F2D0E944D223E
:10450000F5CFDF91CF911F910F91FF9008951F92EA
:104510000F920FB60F921124EF92FF920F931F93F9
:104520002F933F934F935F936F937F938F939F93BB
:10453000AF93BF93EF93FF93CF93DF931F92CDB7CA
:10454000DEB719820E94E421CE0101960E94F22179
:10455000A82FA695A695A6959A2F969595702A2F81
:104560002570920F292F237096959695920F87703C
:1045700089137CC08981811179C0A43008F076C08C
:1045800080E18A95F1F75A9A529AB2E0BA95F1F71A
:1045900000C05A98EA2EF12CEAE0AE9FD001112417
:1045A000A05FBE4F1896ED91FC9119973097B1F02E
:1045B0006091BB017091BC0116962D913C911797AB
:1045C000260F371F13968D919C911497680F791FB2
:1045D00015964C91159712968C9109958AE08E9DAF
:1045E000F0018F9DF00D1124E05FFE4F6581662381
:1045F00051F08091BB019091BC0126813781820FDF
:10460000931F0E946D220E94EC21F0E1FA95F1F7D0
:104610005A9852985A9A80E18A95F1F78AE08E9DCD
:1046200080018F9D100D1124005F1E4FD80112963E
:104630006C911297662399F08091BB019091BC0117
:1046400013962D913C911497820F931F0E941A226A
:10465000D801ED91FC91811105C082E004C0D80120
:10466000ED91FC9188E080830E94E4210F90DF911E
:10467000CF91FF91EF91BF91AF919F918F917F91DA
:104680006F915F914F913F912F911F910F91FF90EB
:10469000EF900F900FBE0F901F9018950F931F93E0
:1046A000CF93DF93843091050CF0A9C02AE0289FB6
:1046B000F001299FF00D1124E05FFE4F2081318130
:1046C000232B09F49CC0EC01F894529A5A9885E087
:1046D0008A95F1F700008C2F869585709C2F957038
:1046E000890F982F9370869586958E0123E0000F91
:1046F000111F2A95E1F7890F082B0E94EC21A4E0F5
:10470000AA95F1F700C068E0802F0E944D22B0E129
:10471000BA95F1F752985A9A4A9902C000C0FCCF54
:1047200087E090E04A9B17C0019799F4529A5A9AF1
:104730008AE08C9FF0018D9FF00D1124E05FFE4F09
:104740000190F081E02D81E08083789481E090E019
:1047500058C000C0E7CF8AE08C9F80018D9F100D6C
:104760001124005F1E4FF80165816623B9F0809126
:10477000BB019091BC0126813781820F931F0E945B
:104780001A2281110BC0529A5A9AD801ED91FC91CC
:1047900082E08083789482E090E033C00E94E4213C
:1047A000B0E2BA95F1F75A98529AE0E1EA95F1F73A
:1047B0008AE08C9FF0018D9FF00D1124E05FFE4F89
:1047C0006281662351F08091BB019091BC012381ED
:1047D0003481820F931F0E946D220E94EC218AE097
:1047E0008C9FF0018D9FF00D1124E05FFE4F019032
:1047F000F081E02D1082789480E090E002C084E0A7
:1048000090E0DF91CF911F910F9108959093A202B4
:104810008093A10208950E945413811103C08091D6
:104820009C020895E091A102F091A202309721F03C
:104830000190F081E02D099480E00895E091A102BB
:10484000F091A202309721F00280F381E02D0994CB
:104850000895E091A102F091A202309739F022E090
:10486000DC012C930480F581E02D099408952091BA
:104870009F023091A0022817390771F09093A0028F
:1048800080939F02E091A102F091A202309721F063
:104890000680F781E02D0994089520919D023091C2
:1048A0009E022817390771F090939E0280939D0213
:1048B000E091A102F091A202309721F00084F185ED
:1048C000E02D09940895FC01329697E080E0915024
:1048D00029F021912223D9F38F5FF9CF0895662320
:1048E00049F0FC01329608962191621729F0E817E9
:1048F000F907D1F780E0089581E008959C01FC015B
:1049000032969FEF80E04191461789F09F3F19F45E
:10491000411101C0982F8F5F8630A9F79F3F39F072
:10492000F901E90FF11D97FDFA9562830895089545
:104930009C012A5F3F4FFC014281461301C0128255
:10494000019682179307B9F708950C947E240C946E
:104950009824029626E0FC0111922A95E9F7089521
:104960001092FB021092FC021092FD021092FE02C5
:104970000895CF92DF92EF92FF926B017C010E942B
:10498000541381110EC00E949225C61AD70AE80A54
:10499000F90AC092FB02D092FC02E092FD02F09272
:1049A000FE02FF90EF90DF90CF9008950F931F933A
:1049B0000E945413882321F01F910F910C9492258B
:1049C0000E9492250091FB021091FC022091FD02B1
:1049D0003091FE02600F711F821F931F1F910F9174
:1049E00008950E94541381110C9486250E94D624A8
:1049F000CB010895089508950C94FB240C94FB2496
:104A0000CF930E94FE240E94C9120E94FC24C0E0A1
:104A10008C2F0E944B11811104C0CF5FC830C1F7A9
:104A200001C081E0CF9108950C94FB240C941425CF
:104A300080910703843059F10E94162580E00E947E
:104A40004A030E94271D1092A30220E488E190E00F
:104A50000FB6F894A895809360000FBE2093600075
:104A600083B7817F846083BF83B7816083BF78947D
:104A7000889583B78E7F83BF0FB6F894A8958091F1
:104A80006000886180936000109260000FBE0895FE
:104A90000C94FB240E9459070E940B240E944A0395
:104AA0000E94F31D0C9448251F920F920FB60F928F
:104AB00011248F939F93AF93BF938091A302811191
:104AC00013C08091FF0290910003A0910103B09167
:104AD00002034196A11DB11D8093FF029093000334
:104AE000A0930103B0930203BF91AF919F918F9167
:104AF0000F900FBE0F901F90189582E084BD93E039
:104B000095BD9AEF97BD80936E0008952FB7F894E6
:104B10008091FF0290910003A0910103B0910203E4
:104B20002FBF08952FB7F8946091FF027091000392
:104B300080910103909102032FBF08959C014FB70C
:104B4000F8948091FF0290910003A0910103B0912D
:104B500002034FBF821B930B0895CF92DF92EF9217
:104B6000FF922FB7F894C090FF02D0900003E0901E
:104B70000103F09002032FBFA7019601261B370BFC
:104B8000480B590BCA01B901FF90EF90DF90CF900D
:104B9000089578941F920F920FB60F9211248F935D
:104BA0009F93AF93BF938091FF0290910003A091D8
:104BB0000103B09102030196A11DB11D8093FF0274
:104BC00090930003A0930103B0930203BF91AF91B0
:104BD0009F918F910F900FBE0F901F90189587E7B0
:104BE00097E790930108809300089AE088E10FB658
:104BF000F894A895809360000FBE90936000FFCF5B
:104C00009093E3018093E20108958091AF020895AB
:104C100090910703943031F58093A4027093A6021B
:104C20006093A50282E08093E9008FEF9091E80005
:104C3000815095FD06C095ED9A95F1F70000811120
:104C4000F5CF8091E80085FF0DC040E050E063E0C3
:104C500070E084EA92E00E9418288091E8008E7744
:104C60008093E8000895BC0184E00C940826BC0100
:104C700083E00C94082622E02093E9002FEF309186
:104C8000E800215035FD06C035ED3A95F1F70000FA
:104C90002111F5CF2091E80025FF0BC040E050E046
:104CA00066E070E00E9418288091E8008E7780937B
:104CB000E8000895CF93DF9321E02093E9002FEFE0
:104CC0003091E800215035FD06C035ED3A95F1F7F9
:104CD00000002111F5CF2091E80025FF14C0EC0160
:104CE00040E050E068E070E00E9418288091E80001
:104CF0008E778093E80088E0FE01A7EAB2E0019099
:104D00000D928A95E1F7DF91CF9108958091060386
:104D1000811109C00E94A9290E94062A8091E200FF
:104D200084608093E2000895109206030895089528
:104D30000895089542E061EC81E00E94222942E258
:104D400061EC82E00C94222980910903833009F4FC
:104D500060C030F4813071F0823009F499C0089558
:104D60008A3009F485C08B3009F46BC0893009F0B2
:104D7000A7C020C080910803813A09F0A1C08091AA
:104D8000E800877F8093E80080910C0390910D03E9
:104D9000892B21F468E087EA92E003C060E080E0BC
:104DA00090E070E00E9463288091E8008B77809308
:104DB000E800089580910803813209F081C0809154
:104DC0000C0390910D03029708F07AC08091E800DF
:104DD000877F8093E8008091E80082FD05C0809184
:104DE00007038111F8CF6CC02091F3008091F2008D
:104DF00090E0922B029729F48091F1008B7F813013
:104E000021F48091F1008093AF028091E8008B77CC
:104E100053C080910803813A09F052C080910C037D
:104E200090910D03892B09F04BC08091E800877F9A
:104E30008093E8008091E80080FFFCCF80915301CF
:104E400036C0809108038132D9F580910C0390918E
:104E50000D03892BA9F58091E800877F8093E800F6
:104E60000E94572980910A03809353010C9459079B
:104E700080910803813221F58091E800877F80933B
:104E8000E8000E94572980910B038093B002089597
:104E900080910803813AA1F48091E800877F809394
:104EA000E8008091E80080FFFCCF8091B002809301
:104EB000F1008091E8008E778093E8000C945729E8
:104EC000089584B7877F84BF0FB6F894A895809122
:104ED0006000886180936000109260000FBE90E0D7
:104EE00080E80FB6F89480936100909361000FBE44
:104EF0000C94520E0E94A9290E94062AE2EEF0E0CC
:104F000080818460808378940E949B2C0E94600E34
:104F100089E491E00C940624809107038530A9F47C
:104F200080910703853079F40E941825809105034C
:104F30008823B1F30E940025882391F30E94022860
:104F40000E945907EDCF0E944A250C946C0E0C94D8
:104F5000A927292F332723303105C9F060F42130E8
:104F6000310581F02230310509F044C08BE390E037
:104F700023E633E043C021323105E1F0223231052E
:104F800049F138C082E190E02EE933E037C099273B
:104F90008130910549F028F0029761F5E1E4F3E0F2
:104FA00005C0EFE5F3E002C0E3E5F3E0849190E0B3
:104FB0009F0124C06115710541F061307105D1F484
:104FC00089E090E02EE833E019C089E090E025E721
:104FD00033E014C06115710541F06130710551F481
:104FE0008BE790E020EB33E009C080E490E02BE217
:104FF00034E004C080E090E020E030E0FA0131834A
:105000002083089580E189BD82E189BD09B400FE55
:10501000FDCF8091D8008F7D8093D8008091E000F3
:1050200082608093E0008091E00081FDFCCF0895D4
:10503000CF92DF92EF92FF920F931F93CF93DF9364
:10504000EC018B017A010E947629811133C0E114B1
:10505000F10439F0F70180819181081B190BC80F09
:10506000D91FC12CD12C0115110519F18091E8002F
:1050700085FD16C08091E8008E778093E800E114EA
:10508000F10449F0F70180819181C80ED91ED182C7
:10509000C08285E00FC00E947629882321F30AC0D0
:1050A00089918093F10001501109FFEFCF1ADF0AB7
:1050B000DACF80E0DF91CF911F910F91FF90EF90B9
:1050C000DF90CF90089520910E0330910F032617A3
:1050D000370748F06115710539F42091E8002E7703
:1050E0002093E80001C0B901FC0120E061157105C1
:1050F00079F1809107038823F1F18530F1F18091F6
:10510000E80083FD3CC08091E80082FD2EC08091C4
:10511000E80080FFEBCF2091F3008091F20090E057
:10512000922B6115710551F08830910538F4219169
:105130002093F100615071090196F3CF21E00897A7
:1051400009F020E08091E8008E778093E800CECFD0
:105150002111CFCF0AC080910703882361F08530E9
:1051600061F08091E80083FD0AC08091E80082FF31
:10517000F2CF80E0089582E0089583E0089581E011
:10518000089520910E0330910F032617370748F03A
:105190006115710539F42091E8002E772093E8001D
:1051A00001C0B901FC0120E06115710591F1809108
:1051B0000703882309F440C0853009F43FC080917B
:1051C000E80083FD3DC08091E80082FD2FC0809102
:1051D000E80080FFE9CF2091F3008091F20090E099
:1051E000922B6115710559F08830910540F4249196
:1051F0002093F1003196615071090196F2CF21E0C0
:10520000089709F020E08091E8008E778093E8000D
:10521000CBCF2111CCCF0AC080910703882361F046
:10522000853061F08091E80083FD0AC08091E8003C
:1052300082FFF2CF80E0089582E0089583E0089530
:1052400081E00895982F973068F59093E9009817BA
:1052500039F07091EC002091ED005091F00003C006
:10526000242F762F50E021FD02C09F5FECCF3091BC
:10527000EB003E7F3093EB003091ED003D7F3093AB
:10528000ED003091EB0031603093EB007093EC0057
:105290002093ED005093F0002091EE0027FDE5CF24
:1052A00080E008958F708093E90081E008958091F7
:1052B000080387FF11C08091E80082FD05C080913E
:1052C00007038111F8CF11C08091E8008B770BC0E4
:1052D00080910703882349F08091E80080FFF8CF90
:1052E0008091E8008E778093E80008952091E40093
:1052F0003091E50095E64091EC00842F817040FFED
:1053000023C08091E80080FD1DC0809107038823A1
:1053100099F0853099F08091EB0085FD11C04091A6
:10532000E4005091E5002417350729F3915011F05E
:105330009A01E1CF84E0089582E0089583E0089522
:1053400081E0089580E008954091E80042FFDDCFBC
:1053500008950E94172A0E941F2AE0EEF0E0808143
:1053600081608083E8EDF0E080818F77808319BCD5
:10537000A7EDB0E08C918E7F8C9380818F7E8083AF
:105380001092060308950F931F93CF93DF930E940B
:10539000172A0E941F2AC8EDD0E088818F77888362
:1053A00088818068888388818F7D888319BC10926A
:1053B000070310920303109205031092040300EEFA
:1053C00010E0F80180818B7F8083888181608883F1
:1053D00042E060E080E00E942229E1EEF0E080817E
:1053E0008E7F8083E2EEF0E0808181608083808127
:1053F00088608083F80180818E7F808388818061CE
:105400008883DF91CF911F910F910895E8EDF0E02F
:1054100080818F7E8083E7EDF0E0808181608083F2
:1054200084E082BF81E0809306030C94C329E8EDF9
:10543000F0E080818E7F80831092E20008951092C8
:10544000DA001092E10008951F920F920FB60F92AA
:1054500011242F933F934F935F936F937F938F9379
:105460009F93AF93BF93EF93FF938091E10082FFEF
:105470000BC08091E20082FF07C08091E1008B7F2A
:105480008093E1000E949A2C8091DA0080FF1FC077
:105490008091D80080FF1BC08091DA008E7F8093BE
:1054A000DA008091D90080FF0DC080E189BD82E1E2
:1054B00089BD09B400FEFDCF81E0809307030E94FF
:1054C000862605C019BC109207030E94942680917D
:1054D000E10080FF19C08091E20080FF15C080913B
:1054E000E2008E7F8093E2008091E20080618093F1
:1054F000E2008091D80080628093D80019BC85E0DA
:10550000809307030E9498268091E10084FF30C0B9
:105510008091E20084FF2CC080E189BD82E189BDD9
:1055200009B400FEFDCF8091D8008F7D8093D80014
:105530008091E1008F7E8093E1008091E2008F7E78
:105540008093E2008091E20081608093E20080918C
:105550000303882311F084E007C08091E30087FDF6
:1055600002C081E001C083E0809307030E94992676
:105570008091E10083FF29C08091E20083FF25C074
:105580008091E100877F8093E10082E080930703B0
:10559000109203038091E1008E7F8093E10080915F
:1055A000E2008E7F8093E2008091E2008061809330
:1055B000E20042E060E080E00E9422298091F00059
:1055C00088608093F0000E949726FF91EF91BF9131
:1055D000AF919F918F917F916F915F914F913F918B
:1055E0002F910F900FBE0F901F9018951F920F9242
:1055F0000FB60F9211242F933F934F935F936F93A6
:105600007F938F939F93AF93BF93CF93DF93EF934A
:10561000FF93C091E900CF708091EC00D82FD1703A
:1056200080FDD0E81092E9008091F000877F8093A0
:10563000F00078940E943A2B1092E9008091F000DB
:1056400088608093F000CD2BCF70C093E900FF916C
:10565000EF91DF91CF91BF91AF919F918F917F910A
:105660006F915F914F913F912F910F900FBE0F90CF
:105670001F9018951F93CF93DF93CDB7DEB7AA97EE
:105680000FB6F894DEBF0FBECDBFE8E0F3E0809127
:10569000F100819323E0E031F207C9F70E94A426CC
:1056A0008091E80083FF2EC1809108039091090347
:1056B000492F50E04A30510508F024C1FA01E05961
:1056C000FF4F0C945B30803821F0823809F01AC10A
:1056D00008C08091040390910503992389F08260AA
:1056E0000FC080910C038F70873008F00BC180933E
:1056F000E9008091EB0085FB882780F91092E90092
:105700009091E800977F9093E8008093F1001092C9
:10571000F100D1C0282F2D7F09F0F4C0882319F0A3
:10572000823061F0EFC080910A03813009F0EAC055
:10573000933009F080E0809305032EC080910A0326
:1057400081112AC080910C038F702FEF280F263013
:1057500008F0D8C08093E9002091EB0020FF1CC026
:10576000933021F48091EB00806214C09091EB00A3
:1057700090619093EB0021E030E0A90102C0440F5A
:10578000551F8A95E2F74093EA001092EA00809153
:10579000EB0088608093EB001092E9008091E800B4
:1057A000877F8093E8000E945729ACC08111AAC06E
:1057B00010910A031F778091E3008078812B8093FA
:1057C000E3008091E800877F8093E8000E945729DA
:1057D0008091E80080FFFCCF8091E3008068809397
:1057E000E300111102C082E001C083E0809307034F
:1057F00089C08058823008F085C080910A0390915A
:105800000B038C3D53E0950779F583E08A838AE2A8
:1058100089834FB7F894DE01139620E03EE051E211
:10582000E32FF0E050935700E49120FF03C0E2958E
:10583000EF703F5FEF708E2F90E0EA3010F0C79668
:1058400001C0C0968D939D932F5F243149F74FBFC0
:105850008091E800877F8093E8006AE270E0CE01E3
:1058600001960E94632816C060910C0370910D038D
:10587000AE014F5F5F4F0E94A727BC01892B09F43F
:1058800041C09091E800977F9093E80089819A81C8
:105890000E94C1288091E8008B778093E80032C095
:1058A000803881F58091E800877F8093E8008091BF
:1058B00003038093F1008091E8008E7772CF81110D
:1058C00021C080910A0390910B0399270297D4F489
:1058D0008091E800877F8093E80080910A0380939D
:1058E00003030E94572980910303811106C0809110
:1058F000E30087FD02C081E001C084E080930703DC
:105900000E949A268091E80083FF0AC08091E800F7
:10591000877F8093E8008091EB0080628093EB00AA
:10592000AA960FB6F894DEBF0FBECDBFDF91CF9120
:105930001F9108950895CF93809107038823A1F0C4
:10594000C091E900CF709091EC00892F817090FD9B
:1059500080E8C82B1092E9008091E80083FD0E9446
:105960003A2BCF70C093E900CF9108950E94A929E6
:10597000109207030895E8EDF0E080818061808354
:105980008AE18A95F1F700C08091D900817008956D
:105990005058BB27AA270E94E02C0C948B2E0E9403
:1059A0007D2E38F00E94842E20F039F49F3F19F4A8
:1059B00026F40C94532E0EF4E095E7FB0C944D2E38
:1059C000E92F0E949C2E58F3BA17620773078407C9
:1059D000950720F079F4A6F50C94BE2E0EF4E09510
:1059E0000B2EBA2FA02D0B01B90190010C01CA0199
:1059F000A0011124FF27591B99F0593F50F4503E44
:105A000068F11A16F040A22F232F342F4427585F35
:105A1000F3CF469537952795A795F0405395C9F74D
:105A20007EF41F16BA0B620B730B840BBAF0915005
:105A3000A1F0FF0FBB1F661F771F881FC2F70EC0A4
:105A4000BA0F621F731F841F48F487957795679577
:105A5000B795F7959E3F08F0B0CF9395880F08F063
:105A60009927EE0F9795879508950E94492D0C94DC
:105A70008B2E0E94842E58F00E947D2E40F029F437
:105A80005F3F29F00C944D2E51110C94BF2E0C94B5
:105A9000532E0E949C2E68F39923B1F3552391F362
:105AA000951B550BBB27AA2762177307840738F08D
:105AB0009F5F5F4F220F331F441FAA1FA9F335D0EA
:105AC0000E2E3AF0E0E832D091505040E695001C9E
:105AD000CAF72BD0FE2F29D0660F771F881FBB1F58
