:100000000C94C2020C9409030C9409030C945A2614
:100010000C9409030C9409030C9409030C94090330
:100020000C9409030C9409030C94AB2E0C947D2FB3
:100030000C9427290C9409030C9409030C940903CC
:100040000C9409030C9409030C9409030C94090300
:100050000C9409030C949C290C9409030C94090337
:100060000C9409030C9409030C9409030C940903E0
:100070000C9409030C9409030C9409030C940903D0
:100080000C9409030C9409030C9409030C940903C0
:100090000C9409030C9409030C9409030C940903B0
:1000A0000C9409030C9409030C940903A606A606F4
:1000B000D806D80625074307260826084E07B607A0
:1000C000C707C707C608C608D808D808CF08D80881
:1000D000D808D808C608C608D408D808D808D4084C
:1000E0004D215021702181218921942197219A212C
:1000F0009D21E321E321A021A321A821B521C22133
:10010000C521C921D621EA2F113009311130093119
:100110005D3080300931D730E63007634236B79B17
:10012000D8A71A39685618AEBAAB558C1D3CB7CC57
:100130005763BD6DEDFD753EF6177231BF000000CF
:10014000803F05A84CCDB2D44EB93836A9020C5028
:10015000B9918688083CA6AAAA2ABE000000803F62
:100160001700150008001A0014000A000900070013
:10017000160004000500190006001B001D002C419C
:10018000E300E000000000001C0018000C0012005A
:1001900013000B000D000E000F00280011001000CE
:1001A00036003700E5002C42E2002A000000000083
:1001B0002200210020001F001E0022022102200236
:1001C0001F021E02670054005500560057002C41C4
:1001D000490029000000000023002400250026001B
:1001E0002700230224022502260227023500890067
:1001F0002F1230122D122D00E2002A000000000004
:100200003E003D003C003B003A0034003312330016
:1002100031001F02C75CC65CC55CC35CC25C2D12AA
:1002200049002B00000000003F0040004100420058
:1002300043005000510052004F002E00C85CC95CC2
:100240002F00300031002C42E2002A0000000000A4
:1002500000000000000000002A2B28000000000021
:100260000000000000000000000000290000000065
:100270002C1E3420212224342627252E362D3738D3
:10028000271E1F202122232425263333362E3738DC
:100290001F0405060708090A0B0C0D0E0F1011129A
:1002A000131415161718191A1B1C1D2F3130232D66
:1002B000350405060708090A0B0C0D0E0F10111264
:1002C000131415161718191A1B1C1D2F3130354C15
:1002D000000000000000000000000000000000001E
:1002E000000000000000000000000000000000000E
:1002F000000000007E0F00D4FFFFFFC70000007861
:1003000000047F3F1F643214643214783C1E1E14B4
:100310000A05FFAA7F554000010101010101010109
:1003200001020202020202020202030303030303A8
:100330000303040404040404040505050505060676
:100340000606060707070707080808080909090934
:100350000A0A0A0B0B0B0C0C0C0D0D0D0E0E0E0FDA
:100360000F0F10101111111212131314141515166A
:10037000161717181819191A1A1B1B1C1D1D1E1EDB
:100380001F2020212222232424252626272829292C
:100390002A2B2C2D2D2E2F30313232333435363757
:1003A00038393A3B3C3D3E3F404142434445464755
:1003B00048494A4C4D4E4F50515354555658595A2E
:1003C0005B5D5E5F616264656668696B6C6D6F70D2
:1003D00072737577787A7B7D7E8082838587888A41
:1003E0008C8E8F91939596989A9C9EA0A2A3A5A778
:1003F000A9ABADAFB1B3B5B7BABCBEC0C2C4C6C974
:10040000CBCDCFD1D4D6D8DBDDDFE2E4E7E9EBEE2C
:10041000F0F3F5F8FAFDFF100363006F006F006C56
:100420000035003300360000000A036D002E006B1B
:1004300000690000000403090409025B00030100D5
:10044000A0FA0904000001030101000921110100C3
:10045000012240000705810308000A090401000287
:10046000030000000921110100012222000705827A
:100470000320000107050303200001090402000115
:1004800003000000092111010001227B00070584FF
:100490000320000A1201000200000008434D360547
:1004A0000100010200010660FF0961A10109621556
:1004B0000026FF009520750881020963150026FFBC
:1004C00000952075089102C005010902A10185026D
:1004D0000901A10005091901290815002501950840
:1004E000750181020501093009311581257F9502C9
:1004F0007508810609381581257F950175088106E3
:10050000050C0A38021581257F950175088106C002
:10051000C005010980A101850319012AB700150151
:1005200026B700950175108100C0050C0901A101D5
:10053000850419012AA002150126A0029501751053
:100540008100C005010906A101050719E029E71589
:100550000025019508750181029501750881010545
:1005600007190029FF150026FF0095067508810070
:100570000508190129059505750191029501750375
:100580009101C00011241FBECFEFDAE0DEBFCDBF66
:1005900004B603FE27C08091100390911103A0912F
:1005A0001203B09113038730904BA740B04BD1F4A6
:1005B0001092100310921103109212031092130361
:1005C00014BE84B7877F84BF0FB6F894A895809136
:1005D0006000886180936000109260000FBEE0E0D0
:1005E000F8E3099511E0A0E0B1E0EAE1FBE602C022
:1005F00005900D92A23FB107D9F723E0A2EFB1E039
:1006000001C01D92A031B207E1F70E9409160C94B7
:100610008B350C94000081E0089581E008950C94DE
:100620000D0308950C9411031F93CF93DF9300D013
:1006300000D01F92CDB7DEB749835A836B833091C8
:10064000F40189819A81311114C0662359F0222363
:1006500049F00E94BE09182F682F89819A810E9453
:10066000650903C00E949109182F69817A81812F41
:1006700004C00E94BE0969817A810F900F900F908B
:100680000F900F90DF91CF911F910C94B522FC0138
:10069000262F408151816281738184810C941403DF
:1006A00081E00895CF93DF93EC0160E00E9447035F
:1006B000BE01DF91CF910C941203E1E0F0E0DF0185
:1006C00002C0AA0FBB1F6A95E2F7BD01DF0102C09D
:1006D000AA0FBB1F4A95E2F7AD01462B01C0EE0FF2
:1006E0002A95EAF7942F9823491302C08E2B089578
:1006F000E0958E230895242F462F682F80910402C1
:100700000E945D030C9422090E94AD110E94D50441
:100710000C94DD110C94D91108950E94B4080E9424
:100720008C032FEF84E39CE0215080409040E1F760
:1007300000C000000C94C2290F931F93CF93DF9346
:100740008C0161E00E944703EC01B8010E94A520E2
:10075000882309F44BC0B801CE010E940F038823FF
:1007600009F444C0B801CE010E9402248823F1F1AB
:10077000B801CE010E9454248823C1F1B801CE01F2
:100780000E948625882391F1B801CE010E944E1F58
:10079000882361F1F8018281882309F1CA358DE54A
:1007A000D807C1F050F4C115FCE5DF0781F0CE3D5C
:1007B000DC45A9F40E94B90E19C0CB35EDE5DE0782
:1007C00061F0CC35DD4559F40E944B0D08C00E9404
:1007D0008D030CC00E94540D02C00E94570DC80129
:1007E000DF91CF911F910F910C940B0380E0DF916B
:1007F000CF911F910F910895DF92EF92FF920F9387
:100800001F93CF93DF93E82FF0E0E05BFD4FD49090
:10081000282F26952695269530E0F901E051FD4FC9
:100820000491877010E0082E02C0159507950A9470
:10083000E2F701701127F901E052FD4FE490F12C2D
:10084000082E02C0F594E7940A94E2F791E0E922B9
:10085000FF24F901E053FD4FC491D0E002C0D595CB
:10086000C7958A95E2F7C170DD270115110519F0CA
:1008700081EE0E942F05E114F10419F086EE0E942A
:100880002F058D2D0E945806EF2819F086EE0E9444
:10089000D905012B19F081EE0E94D905CD2B51F01D
:1008A0008CE2DF91CF911F910F91FF90EF90DF903D
:1008B0000C945806DF91CF911F910F91FF90EF900C
:1008C000DF900895EF92FF920F931F93CF93DF93E2
:1008D000EC01162F0AE08881882309F455C0813085
:1008E00009F043C08981813041F47E0182E0E80E45
:1008F000F11C8A810E94580609C0823049F47E01A9
:10090000E2E0EE0EF11C8A810E942F05E7012FC064
:10091000833041F47E01F2E0EF0EF11C8A810E94E7
:10092000D905F4CF843011F0219621C02A81229676
:1009300080E090E030E0205331092A30310558F44E
:10094000089FA001099F500D1124C901840F951F14
:1009500021962881EFCF009751F0EFE9FFE0319722
:10096000F1F700C000000197F6CF0E94FC0321962A
:10097000812F882309F4AFCFEFE9FFE03197F1F73A
:1009800000C000008150F5CFDF91CF911F910F91F2
:10099000FF90EF90089560E00C94620408950C9429
:1009A000CE0481E008950C94D1040895CF93C82F0C
:1009B0000E94CF048C2F0E94D304CF910895CF932F
:1009C000DF93CDB7DEB72B970FB6F894DEBF0FBE1F
:1009D000CDBF4F83588769877A878B8761110E94C3
:1009E0007A0D9E012F5F3F4F86E0F90111928A95A3
:1009F000E9F785E0FE013796D90101900D928A95BD
:100A0000E1F789819A814C815D81452B31F09F3FCF
:100A100031F491E08F3F19F403C091E001C090E000
:100A200090FF09C049815A816B817C818D819E81B3
:100A30000E947A0C05C0C9010E9450038111F2CFB7
:100A40002B960FB6F894DEBF0FBECDBFDF91CF91CE
:100A50000895FC01808191810E94EB090895CF9354
:100A6000882309F4A4C0C82F8238C1F40E94DE276D
:100A700081FD9DC069E380910001909101010E9478
:100A800078280E949F0D2FEF81EE94E02150804046
:100A90009040E1F700C0000069E319C0833801F518
:100AA0000E94DE2780FD83C063E580910001909164
:100AB00001010E9478280E949F0D2FEF81EE94E0A3
:100AC000215080409040E1F700C0000063E5809134
:100AD0000001909101010E947A28CF910C949F0D02
:100AE0008438C1F40E94DE2782FD61C067E48091F2
:100AF0000001909101010E9478280E949F0D2FEF24
:100B000081EE94E0215080409040E1F700C0000069
:100B100067E4DDCF8CEF8C0F813AD0F46C2F80919D
:100B20000001909101010E944228882349F06C2F16
:100B300080910001909101010E947A280E949F0DEE
:100B40006C2F80910001909101010E947828C5CFFF
:100B500080E28C0F883048F4C77081E001C0880FB4
:100B6000CA95EAF70E945D0DB8CFEBE5EC0FE330D4
:100B700040F4F0E0E957FE4F808190E0CF910C9473
:100B80000A28E8E5EC0FE73150F4F0E0EE0FFF1F24
:100B9000E75AFE4F80819181CF910C942028C03F6D
:100BA00030F08C2F0E949616CF910C946817CF913D
:100BB0000895882309F464C0823879F40E94DE27FE
:100BC00081FF5EC069E380910001909101010E9464
:100BD00078280E949F0D69E310C08338B1F40E9409
:100BE000DE2780FF4DC063E58091000190910101F7
:100BF0000E9478280E949F0D63E5809100019091EA
:100C000001010E947A280C949F0D843879F40E9487
:100C1000DE2782FF35C067E48091000190910101D9
:100C20000E9478280E949F0D67E4E7CF9CEF980F01
:100C3000913A10F4682FE1CF90E2980F983050F479
:100C4000877091E001C0990F8A95EAF7892F0E9479
:100C5000630DD9CF9BE5980F933020F480E090E0AE
:100C60000C940A2898E5980F973120F480E090E0E2
:100C70000C942028803F20F00E94F1160C946817F5
:100C800008951F93CF93DF93182FEB010E942F0538
:100C9000209741F08FE99FE00197F1F700C0000035
:100CA0002197F6CF812FDF91CF911F910C94D90519
:100CB000893319F060E070E002C060E570E00C94E8
:100CC0004106882321F00E945D0D0C949F0D08952C
:100CD000882321F00E94630D0C949F0D0895CF92FC
:100CE000DF92EF92FF920F931F93CF93DF937C01DC
:100CF000062FC72FFC01D281158112951F700E940B
:100D0000320D882399F0DD2389F08C2F807F803489
:100D100021F080E2800F883048F082E00E94EF0DE1
:100D20000E94320D91E0D82ED92601C0D12CCC2EB4
:100D3000C2948FE0C8228C2D90E08C30910508F091
:100D400085C1FC01EA5AFF4F0C94E2348C2F807F5E
:100D5000CF70882311F0C295C07FDD2399F0CC239A
:100D600009F460C180E2800F883010F0011104C0E6
:100D70008C2F0E945D0D03C08C2F0E946D0D0E9470
:100D80009F0D50C1802F0E94D905CC2309F45EC16C
:100D900080E2800F883010F0011104C08C2F0E9477
:100DA000630D03C08C2F0E94730D0E949F0D4EC1D6
:100DB0008C2F807FCF70803211F0C295C07F0023CE
:100DC00019F00130C9F022C0DD2371F0112341F088
:100DD000113031F40E94800D8C2B0E94880D36C199
:100DE0000E94800D8C2B1DC0112319F0113009F4C5
:100DF0002DC10E94950D25C0DD2321F0163008F08D
:100E000025C10EC0153008F021C11BC0DD2361F0E3
:100E1000112331F0F701858180FF04C18F70858334
:100E20008C2F0E94610612C1112359F0093309F079
:100E30000AC1FFEF27EE83E0F15020408040E1F748
:100E400000C18C2F0E94680601C18C2F8695869563
:100E5000837019F0813061F0F9C0DD2321F0802F1B
:100E60009C2F937002C080E090E00E940A28F6C098
:100E7000DD2321F0802F9C2F937002C080E090E052
:100E80000E942028EBC0802FDD2319F00E949616C7
:100E900002C00E94F1160E946817E0C08C2F837078
:100EA00079F5D111D7C0402F429546954770440F30
:100EB000440F202F2F70042E01C0220F0A94EAF74E
:100EC00004FF08C08FE090E001C0880F4A95EAF760
:100ED000809501C080E0C695C695C370822BC23054
:100EE00049F058F4C13019F00E941609B3C00E94AD
:100EF0001109B0C00E941B09ADC00E940F09AAC011
:100F0000DD2319F08C2F817001C08695882309F4A8
:100F1000A1C0402F429546954770440F440F202FA3
:100F20002F70042E01C0220F0A94EAF704FF08C0B4
:100F30008FE090E001C0880F4A95EAF7809501C0E4
:100F400080E0C695C695C370822BC23049F058F434
:100F5000C13019F00E945A097DC00E9455097AC01B
:100F60000E945F0977C00E94220974C0CF70DD2300
:100F700039F08C2F0E943309802F0E9461066AC0CD
:100F8000802F0E9468068C2F0E943E0963C0023F9A
:100F900001F128F4003F41F0013FA1F03FC0033FC1
:100FA000F9F0043F39F13AC0DD2341F0153008F083
:100FB0004DC08C2F8F710E944A0948C0163008F02E
:100FC00045C0F7CFDD2339F08C2F8F710E94330994
:100FD0003DC0DD23C9F38C2F8F710E943E0936C0BE
:100FE000DD2329F08C2F8F710E942B092FC00E94C6
:100FF00028092CC0DD2349F0CF718C2F0E943309C2
:1010000063E08C2F0E94D40D21C081E00E94EF0D7F
:101010001230E0F082E00E94EF0D18C0DD2331F0C5
:10102000112391F2802F0E942F0510C0112399F2F5
:10103000093349F49FEFE7EEF3E09150E040F040D0
:10104000E1F700C00000802F0E94D90588EF8C0DC9
:10105000843020F40E94DE270E94D604DD20C9F0EF
:101060000E942E0D80FD15C0F70112820E94280DEE
:101070000E943309C7010E946A080E94280DDF916F
:10108000CF911F910F91FF90EF90DF90CF900C9434
:101090003E09DF91CF911F910F91FF90EF90DF906C
:1010A000CF9008950F931F93CF93DF93EC01688146
:1010B00079818A810E94F6098C010E9464090E944C
:1010C0000309B801CE010E946F06DF91CF911F91F5
:1010D0000F910895CF93DF93EC01988189812B8143
:1010E0003C81232B31F08F3F31F481E09F3F19F495
:1010F00003C081E001C080E080FD19C0CE010E94E4
:101100009C0381110CC00E94320D882381F08A81DA
:10111000882369F082E0DF91CF910C94EF0DCE012E
:101120000E945208CE01DF91CF910C945203DF91BF
:10113000CF91089580E090E00E940A2880E090E03E
:101140000E9420280E947A0D0E947D0D0E949F0D12
:101150000E9499180C9468178091000190910101E8
:101160000E947C280C949A080E946A0D0C94AC088A
:10117000E92FE295EF704E2F50E0FA013297EE30F2
:10118000F105B0F4EE59FF4F0C94E234803F91F03A
:1011900018F4883E68F40EC0843F51F40BC0883EBA
:1011A00048F0813F29F406C093FB882780F9089511
:1011B00080E0089581E00895FC01808191810E9482
:1011C000EB090E94B8080895CF93DF9300D000D0B8
:1011D0001F92CDB7DEB70F900F900F900F900F902A
:1011E000DF91CF910895CF93DF9300D000D000D04E
:1011F000CDB7DEB726960FB6F894DEBF0FBECDBFD3
:10120000DF91CF910895089508950C9404090C94EA
:1012100005090E940709809305020C949A080C9412
:10122000090990910502892B0C94090990910502F6
:1012300089230C9409099091050289270C940909C6
:101240000C9404090E942009809304020C949A08CB
:1012500080E00C94220991E001C0990F8A95EAF789
:10126000892F0C94220921E030E001C0220F8A95D9
:10127000EAF780910402822B0C94220921E030E0ED
:1012800001C0220F8A95EAF72095809104028223FB
:101290000C94220921E030E001C0220F8A95EAF780
:1012A0008091040282270C94220990910402892BD8
:1012B0000C9422099091040289230C9422099091A4
:1012C000040289270C942209089524E0929F900D2E
:1012D0001124890FE82FE695E695E695877051E091
:1012E00001C0550F8A95EAF783E0E89FF0011124C9
:1012F000EB50FE4F20E030E070E04081CB01022E49
:1013000002C0969587950A94E2F7817081958427AB
:101310008523842781932F5F3F4F2330310569F761
:10132000089524E0929F900D1124890F682F6695EF
:1013300066956695982F977083E0689FB001112499
:1013400040E050E080E0FB01E40FF51FEB50FE4F62
:10135000208130E0092E02C0369527950A94E2F7E5
:1013600021703327042E01C0220F0A94EAF7822B42
:101370004F5F5F4F4330510531F70895CF92DF92B1
:10138000FF920F931F93CF93DF936C0100910402A0
:1013900080910502082BC7E0D0E010E0C8010C2EB8
:1013A00002C0959587950A94E2F780FD04C02197C5
:1013B000A8F7F12C07C0FC2EB6018C2F0E94B710A5
:1013C0000197A9F38F2DDF91CF911F910F91FF907E
:1013D000DF90CF900895CF93DF93EC010E94BE0978
:1013E000BE010E94B710DF91CF9108951F93CF9354
:1013F000DF93EB019091F401992321F0CB010E943E
:10140000EB0913C0882349F0CB010E94BE09182FB5
:10141000682FCE010E94650904C0CB010E9491098A
:10142000182FBE01812F0E94B710DF91CF911F911D
:1014300008951F93CF93DF93C091060216E0809129
:101440000702C81799F0D0E01C9FF0011D9FF00D16
:101450001124E85FFD4F4081518162817381848155
:1014600095810E94F3082196C770E9CFDF91CF9153
:101470001F910895409138025091390260913A02CB
:1014800070913B0280913C0290913D020C94F308D4
:101490000F931F93CF93DF9380913D0282958F70BE
:1014A00009F05DC080913A02882309F458C0809108
:1014B0000602109107026091380270913902C091C2
:1014C0003B02D0913C0291E06F3F09F090E0292F60
:1014D00006E0811709F443C0209721F07F3F21F0F7
:1014E00030E003C031E001C0322F90E030FD34C065
:1014F000089FF001099FF00D1124DF01A85FBD4F87
:1015000011963C911197371327C03C91361324C094
:1015100012963C91129731111FC013964D915C9118
:1015200014974C1B5D0B483C5105B0F480913D0273
:101530008F70806180933D02E35FFD4F80818F70EB
:101540008061808388E392E00E946A08DF91CF91F6
:101550001F910F910C94190A01968770BACFDF91F1
:10156000CF911F910F9108959F92AF92BF92CF920A
:10157000DF92EF92FF920F931F93CF93DF93CDB73C
:10158000DEB761970FB6F894DEBF0FBECDBF8C01FA
:1015900085E0F801DE011D9601900D928A95E1F734
:1015A000F801E280909138026091390220913B026B
:1015B00030913C022115310531F06F3F31F481E06B
:1015C0009F3F19F403C081E001C080E0F82FF17063
:1015D0009F2E80FD3FC1F80140815181A380B480DE
:1015E00088E3C82E82E0D82EF0903A02F501E21B83
:1015F000F30BFF2009F4D9C080913D02E83CF105CE
:1016000008F095C0282F207F09F052C0561313C050
:10161000491311C0FE2CE1100EC08F7080618093C1
:101620003D020E943A0AC6010E946A0880913D026A
:10163000F80185834CC1AB2831F05F3F31F481E084
:101640004F3F19F403C081E001C080E080FD03C07A
:1016500081E08E2502C080E090E0F82FF170FF2E2F
:1016600080FF1CC0809106022091070236E082179D
:1016700009F40BC190E0389FF001399FF00D11245F
:10168000E85FFD4F6181561306C06081461303C0B9
:101690006281E61203C001968770E9CFFE2CEE202E
:1016A00009F415C180913D02816080933D0254C0D0
:1016B000561306C0491304C0E11002C0F80199C0D6
:1016C000C8010E94DC08882361F1EE2051F12091CD
:1016D0003D02822F82958F7090E0029774F0809186
:1016E00038029091390298878F831986BB86AA8623
:1016F0002C87CE0107960E946A0886E0F801A8E3CD
:10170000B2E001900D928A95E1F70E94480A0E948A
:101710003A0A0AC0561711F1C8010E94DC0881116B
:101720002CC0C8010E946A08FF24F394D0C0282F5F
:10173000207F81F77A2DB98AA88A6E2D89890E9427
:10174000E40888E392E00E946A0886E0F6011192BC
:101750008A95E9F70E943A0AF12CB9C04913DCCF07
:10176000E110DACFF8018583C8010E946A0886E09B
:10177000F60111928A95E9F7AAC0EE2091F2209124
:101780003D02822F82958F7090E002970CF4B5CFC6
:1017900080913802909139029A8389831B82BD829D
:1017A000AC822E83CE010196A6CFE83CF10508F06D
:1017B00044C0FE2CEE2009F4B4CF561330C04913B8
:1017C0002EC020913D0220FD21C0822F82958F7076
:1017D000482F50E041155105C9F0F80125834F30DD
:1017E000510541F08F5F982F9295907F822F8F70D7
:1017F000892B8583C8010E946A0886E0F801A8E366
:10180000B2E001900D928A95E1F73CC086E0F801C4
:10181000A8E3B2E001900D928A95E1F758C0C801A3
:101820000E94DC08811169CF80913D028160809324
:101830003D02C8010E946A084AC07A2DB98AA88A66
:101840006E2D89890E94E40886E0F60111928A953E
:10185000E9F718C0EE2009F464CFC8010E94DC0843
:10186000F82E882309F45DCF86E0F801A8E3B2E002
:1018700001900D928A95E1F788E392E00E94290594
:101880000E94480A0E943A0A22C04D875E878D85D1
:101890009E850E94EB09292F22952F70223028F473
:1018A0009F7039F0811105C00BC0243028F49F705F
:1018B00049F4805E883020F0C8010E946A089F2C9D
:1018C000F92C05C0F8019581907F99F7F9CF8F2DFC
:1018D00061960FB6F894DEBF0FBECDBFDF91CF91FA
:1018E0001F910F91FF90EF90DF90CF90BF90AF903E
:1018F0009F9008951F93CF93DF93CDB7DEB72C97BA
:101900000FB6F894DEBF0FBECDBF4F8358876987EF
:101910007A878B879C87CE0107960E94B40A88231A
:10192000D1F09F8188852A853B85232B31F08F3F1D
:1019300031F481E09F3F19F403C081E001C080E0F1
:1019400080FD47C04F81588569857A858B859C8548
:101950000E94F3083EC086E0FE013796DE01119634
:1019600001900D928A95E1F7FF81E8856A857B8574
:101970006115710531F0EF3F31F481E0FF3F19F45B
:1019800003C081E001C080E080FD23C020910702F8
:1019900030E0C9010196877099274091060250E016
:1019A00084179507F1F1F983EA837D836C8396E0D0
:1019B000929FD001939FB00D1124A85FBD4FFE01EF
:1019C000319601900D929A95E1F7809307020E945B
:1019D000190A16E08091060290910702891771F1A9
:1019E000189FC0011124885F9D4F0E94B40A88236C
:1019F00029F1E09106021E9FF0011124E85FFD4FDE
:101A00004081518162817381848195810E94F308B4
:101A10008091060290E001968770992780930602D4
:101A2000D9CF0E94B4081092070210920602E8E390
:101A3000F2E086E0DF011D928A95E9F72C960FB659
:101A4000F894DEBF0FBECDBFDF91CF911F910895F7
:101A500080913E02859585958595089580913E02F9
:101A60008770089590913E02977081E009F480E0BC
:101A700008959091B20292FB222720F9281751F085
:101A800080FB92F99093B2028091B1029091B202E0
:101A90000C94360E08958091B20282FB882780F95B
:101AA00091E089270C94390D81E00C94390D80E088
:101AB0000C94390D80914A02089590914A02892B25
:101AC00080934A020895809590914A0289238093D9
:101AD0004A02089510924A02089590914902892B72
:101AE00080934902089580959091490289238093BB
:101AF00049020895109249020895109248020895EB
:101B000080913F02089508950C94830D0C94840DE8
:101B10009091B20292FD08C090913F02981721F077
:101B200080933F020C94860D089580913F02882394
:101B300029F010923F0280E00C94860D0895E09108
:101B40000001F091010180914A028083E09100013F
:101B5000F0910101908180914902892B8083E0916D
:101B60000001F0910101908180914802892B8083CE
:101B700080913F02882381F0E0910001F091010102
:101B80009081892B808380910001909101010E94B6
:101B9000362881110E94950D8091000190910101DC
:101BA0000C94F1270C94830D9091B20292FD10C019
:101BB00098E0899F90011124262B20933E020E94D9
:101BC000330980913E028595859585950C94D20DBB
:101BD0000C94330910923E0280E00C94D20D2091B7
:101BE0003E028095822380933E02982F977041F4A5
:101BF00030E0482F082E000C550B2417350721F430
:101C00009091B20292FF07C08595859585950E94B7
:101C10003E090C94EA0D08956FEF7FEF80E090E0AD
:101C20000C94753580E090E00E945135893E9E4FBE
:101C300011F40C94482080E0089582E090E00C9428
:101C4000433583E090E00C944335CF9384E090E0FB
:101C50000E944335C82F82E290E00E9443352C2F2A
:101C600030E0A901582BCA01CF910895CF93C92F15
:101C7000682F84E090E00E9457356C2F82E290E05C
:101C8000CF910C945735AB01BC018FE090E00C94E0
:101C90006935AB01BC0183E190E00C94693560E0EB
:101CA00070E0CB010C94490E60E070E0CB010E9423
:101CB000430E0C944F0E69EE7EEF80E090E00E94A0
:101CC000753560E082E090E00E94573560E083E087
:101CD00090E00E9457351092050260E084E090E0A9
:101CE0000E94573560E082E290E00E94573560E044
:101CF00085E090E00E94573560E086E090E00E9429
:101D000057356FEF87E090E00E94573540E050E094
:101D1000BA0188E090E00E94693560E08DE090E0D3
:101D20000E94573540E050E0BA0188E190E00E94FF
:101D3000693560E087E190E00E94573540E050E06F
:101D4000BA018CE190E00E94693560E070E080E2C9
:101D500090E00E94753540E050E0BA0188E190E0E3
:101D60000E94693580E00E9461200E948D200C94C1
:101D7000540E0C945B0E682F8EE090E00C94573557
:101D80000E946529609358027093590280935A0209
:101D900090935B02609354027093550280935602B5
:101DA00090935702089585B7806885BF85B780688E
:101DB00085BF08950C94D01308950C94DC0E0C94F8
:101DC000DC0E0C94DF0E0C94DC0E0C94E30E0C94E1
:101DD000DC0E0E94D30E83E991E10E94D3290E9478
:101DE000E70E0C94E50E0E94DD0E0C94DC0E0E94B2
:101DF00050290E9483280E949C200E948D120E94DC
:101E000077230E945C1E0C94E10E9F92AF92BF92CA
:101E1000CF92DF92EF92FF920F931F93CF93DF93B6
:101E2000CDB7DEB72A970FB6F894DEBF0FBECDBF91
:101E30000E94451381110E94C00E8CE4A82E82E0FE
:101E4000B82E00E010E0902E802F0E94C711D82EEF
:101E5000F501C1905F01C826B1F40F5F1F4F083034
:101E6000110589F78FEF89838A831B820E94592984
:101E70008160782F9D838C8349815A816B818D810C
:101E80000E94DF042FC080915C0281FD0E94CD1171
:101E9000E12CFF24F3948C2D8F21F1F00E94DA0EB7
:101EA000882399F0EE829F82DF2081E009F480E0B0
:101EB00088870E9459298160782F9A8789874E8167
:101EC0005F8168858A850E94DF04F801E45BFD4F2D
:101ED0008081F826F08206C0E394FF0CF5E0EF1253
:101EE000DACFBBCF0E94A01E0E9486170E94DE2779
:101EF00090914B028917B9F00E94DE2780934B0224
:101F00002A960FB6F894DEBF0FBECDBFDF91CF91FA
:101F10001F910F91FF90EF90DF90CF90BF90AF9007
:101F20009F900C94D6042A960FB6F894DEBF0FBE8D
:101F3000CDBFDF91CF911F910F91FF90EF90DF9078
:101F4000CF90BF90AF909F900895CF93DF930E9462
:101F5000BC10EC01811521E5920708F045C0811500
:101F600030E5930708F094C0883E910528F5803E3F
:101F7000910508F0F8C0883A910570F4853A91050A
:101F800008F07CC08130910509F475C008F4E8C000
:101F9000049708F0E8C0E4C08F3B910508F0E0C06A
:101FA000C85AD0E0CC0FDD1FC657DE4F0990D8814C
:101FB000C02DCE019464D8C0811540E2940758F436
:101FC000811551E0950708F0CEC0803F910508F4D7
:101FD000C7C09065C9C0C11580E4D80708F4C0C067
:101FE000DF70CE01906AC0C0811525E59207A8F484
:101FF000811534E5930708F095C0811543E59407F2
:1020000008F07BC0811552E5950708F061C0D82F14
:10201000CC27CE01816F906AA7C0C11589E5D8078A
:10202000A0F4C11528E5D20708F082C0C11536E535
:10203000D30708F095C08C2F0E9450118F7190E04B
:10204000D82FCC27CE0190628FC0C1154AE5D407A6
:1020500008F474C0CE0190568115904208F080C0FB
:102060008D2F8F710E945011DD27D0628F71AE01CC
:10207000582BCA0179C081E090E076C0C55AD0E003
:10208000C854DE4F8881C82FD0E0CE0190646CC068
:1020900074E0969587957A95E1F7282F23703C2F69
:1020A000337081E090E002C0880F991F3A95E2F703
:1020B0009C68AC01522B9A019C2F9F709695969527
:1020C00050E2959FE0011124C9018C2B9D2B4CC03F
:1020D0008370992721E030E002C0220F331F8A95D8
:1020E000E2F79C2F9695969580E2989FE001112447
:1020F000C22BD32BCE019C6837C08370992721E077
:1021000030E002C0220F331F8A95E2F79C2F96958C
:10211000969540E2949FE0011124C22BD32BCE016F
:102120009A6822C0D82FCC27CE01846F906A1CC039
:10213000DC2FCC27CE01806F906A16C08C2F8F7059
:102140000E94501194E0D695C7959A95E1F7CF700B
:10215000D0E0DC2FCC27D0699E01282BC90104C018
:1021600080E090E001C0CE01DF91CF9108950E9400
:10217000B5220E94A50F08958238910569F1B0F447
:102180008133910509F46DC048F48932910509F451
:1021900063C08A32910509F469C0089585339105B9
:1021A00009F455C089339105B9F00895833E91052E
:1021B00069F138F4803E9105B1F0823E910509F154
:1021C0000895863E9105A9F1873E9105B9F1843EB7
:1021D000910509F064C023C02091B10220FD4FC0D9
:1021E00021FD4DC008958091B10280FD44C08091D1
:1021F000B20280FF44C08091B10284FD42C083EEF0
:102200004DC08091B10282FF38C0F5CF8091B102FC
:1022100082FD33C08091B20280FD31C0ECCF80914D
:10222000B20281FF32C08091B10284FD2AC087EEE4
:1022300035C08091B10283FF26C0F5CF8091B102F5
:1022400083FD21C08091B20281FD1FC0ECCF80913F
:10225000B10285FD1CC01DC08091B10285FD19C071
:1022600016C08091B10286FD16C017C08091B102E0
:1022700086FD13C010C089E311C082EE0FC080EE4E
:102280000DC080E00BC086EE09C084EE07C089E275
:1022900005C085E303C08AE201C081E390E00895B0
:1022A0009091B10292FF0DC0282F2871283019F4A7
:1022B000877F846006C0282F2471243011F48B7F1F
:1022C000886093FF0DC0282F2871283119F4877E6C
:1022D000846106C0282F2471243111F48B7E88611B
:1022E0002091B20220FF0DC0382F3871383019F418
:1022F000877F816006C0382F3171313011F48E7FB5
:10230000886021FF0DC0282F2871283119F4877E9D
:10231000816106C0282F2171213111F48E7E8861E0
:1023200094FD877E089580E008950C940C0E0E9421
:1023300045138FE39CE90197F1F700C000000E946C
:10234000451380E00E94C71180FF04C00E949511D0
:102350000C94C22908950C9497110E94120E8111B9
:1023600002C00E94B90E0E941D0E80935C020E9462
:10237000250E9093B2028093B1020E94AB110E948D
:10238000210E0E940F09809104020C942009E82F6D
:10239000F0E0E554FD4F80810895089580EA8A9524
:1023A000F1F7089500C008950C94CE1108950C948F
:1023B000D6110C94D7110C94D6110C94DB11F8940F
:1023C000E82FE295EF70F0E031A1282F2F7081E027
:1023D00090E001C0880F2A95EAF7982F90959323F3
:1023E00091A392A1892B82A37894089508950C94C7
:1023F000F6110F931F93CF93DF93C2E0D1E0899141
:102400008F3F11F00E94DF1181E0C730D807B9F784
:10241000C7E0D1E00BE011E089918F3F11F00E94FD
:10242000DF110C171D07C1F7DF91CF911F910F919D
:102430000895DF92EF92FF920F931F93CF93DF9354
:10244000062F10E00E5F1E4FE80128812F3F09F490
:102450005CC0F62EE92ED82EF894E22FE295EF70AC
:10246000F0E081A12F70C1E0D0E0AE0102C0440FC6
:10247000551F2A95E2F79A01842B81A382A120950A
:10248000282322A378940E94D2110F2C01C0CC0FD4
:102490000A94EAF73C2F6C2F6095A7E0B1E0ED2D90
:1024A000FE2DAF014C5F5F4FE12C2D912F3FA9F026
:1024B000822F82958F7090E0EC0188A190E02F70C0
:1024C00002C0959587952A95E2F780FD06C0808128
:1024D000832B8083EE24E39403C080818623808352
:1024E0003196E417F50709F7F80180818F3F11F065
:1024F0000E94DF116E2D8F2DDF91CF911F910F91D3
:10250000FF90EF90DF900C94D411DF91CF911F9149
:102510000F91FF90EF90DF900895CF93DF93CDB7A9
:10252000DEB72D970FB6F894DEBF0FBECDBF0E9469
:10253000EA1380910F0181112FC0FE01319628E02E
:10254000DF011D922A95E9F725E3298324E32A83F5
:1025500021E32B8327EF2C83CF01E7E0F1E09E01FD
:10256000275F3F4FDC014D91CD014193A217B30787
:10257000C9F725E0E4E5F1E0DE01199601900D923E
:102580002A95E1F7FC01A2E0B1E0CE010E9621917F
:102590002D93E817F907D9F780910F01811102C037
:1025A00094E001C090E09093C40284E0891B809382
:1025B000C3020E94F911E3EBF2E0ABEBB2E011923F
:1025C0001D9282E0EB3BF807D1F784E00E9499135B
:1025D0000E9484032D960FB6F894DEBF0FBECDBFC8
:1025E000DF91CF910C94F4131F93CF93DF9300D01E
:1025F00000D0CDB7DEB70E94D0136091C40288230B
:1026000071F119821A821B821C82862F90E0BE0112
:102610006F5F7F4F85549D4F0E940214E091C3026B
:102620009E012B5F3F4FF0E0E554FD4FDE01119618
:10263000882361F010E08D919081981711F08083CC
:1026400011E03196A217B307B1F706C011921D929F
:10265000A217B307D9F711E00E948A030DC070E0FA
:1026600065547D4F8091C30290E085549D4F0E9438
:1026700092140E94F71110E0812F0F900F900F908D
:102680000F90DF91CF911F910895EF92FF920F93DA
:102690001F93CF93DF93CDB7DEB728970FB6F8948B
:1026A000DEBF0FBECDBF8E010F5F1F4F88E0F80168
:1026B00011928A95E9F7F12C6F2DC8010E94191229
:1026C000F394F5E0FF12F8CF48E050E0B80183EB57
:1026D00092E00E942D357C0121E0892B09F420E055
:1026E000E114F10441F088E0F801A3EBB2E00190BD
:1026F0000D928A95E1F76091C40270E065547D4FB8
:1027000044E083EB92E00E949A13EF2819F40E94B0
:10271000F41202C081E090E028960FB6F894DEBF74
:102720000FBECDBFDF91CF911F910F91FF90EF9022
:1027300008950895FF920F931F93CF93DF938C0119
:10274000F62ED72FC42F222349F081E080935F0219
:102750000E94592990935E0280935D0280915F02EE
:102760008823C1F080915D0290915E020E947129E0
:10277000059780F0EF2DFD2FD8014C2F50E0CD01B3
:10278000801B910B841795071CF48D918193F7CFD3
:1027900010925F02DF91CF911F910F91FF900895EA
:1027A0008091620281110DC00E944231811102C0EC
:1027B00082E001C081E080936202823011F40E94C5
:1027C0003D3181E090916202913009F080E00895FE
:1027D0000C94D0130E94E81380930F010E94D01331
:1027E00081110C943A1408950E94D013811102C0F3
:1027F0000C943C14089581E0909163029A3008F0A3
:1028000080E008950F931F93CF93DF93EC018B012A
:10281000809163028A3038F4B801CE010E9490148E
:1028200081111DC00AC080916002909161020E94D6
:102830007129843F914080F715C0809163028F3FDA
:1028400019F08F5F80936302809163028A3060F099
:102850000E945929909361028093600203C01092F4
:10286000630202C080E001C081E0DF91CF911F913F
:102870000F9108950C9414260C941726EF92FF9252
:102880000F931F93CF93DF937901C82F880FDD0B30
:1028900041155105A9F08AE08C9FF0018D9FF00D44
:1028A0001124E05FFE4F838194818C599D4F2281DA
:1028B00030E04217530708F49A01A9010E943A3503
:1028C000CE010E942127892B09F50115110501F17F
:1028D0008AE08C9FF0018D9FF00D1124E05FFE4F88
:1028E000458150E00417150708F4A8018AE08C9F81
:1028F000F0018D9FF00D1124E05FFE4F668177811E
:102900006C597D4FC7010E943A3502C080E001C07A
:1029100081E0DF91CF911F910F91FF90EF9008958B
:102920000C94B3150C94CF150F931F93CF93DF9393
:1029300000D000D0CDB7DEB76091790270917A02F5
:1029400080917B0290917C020E94802964367105FF
:102950008105910528F10E94A928DC01CB0102968E
:10296000A11DB11D89839A83AB83BC8300E010E075
:1029700020E030E044E050E0BE016F5F7F4F82E036
:102980000E943E14182F882361F00E9465296093ED
:10299000790270937A0280937B0290937C0201C04B
:1029A00011E0812F0F900F900F900F90DF91CF913A
:1029B0001F910F910895AF92BF92CF92DF92EF9245
:1029C000FF920F931F93CF93DF937C015B016A010A
:1029D0000E94FB13811103C001E010E002C00AE075
:1029E00010E0C1E0D0E0F894B501C701F601099507
:1029F0007894811115C021960C171D0794F0CC9F77
:102A00009001CD9F300D300D112480E090E045E322
:102A10004A95F1F70000019682179307C1F7E3CFBB
:102A200081E0DF91CF911F910F91FF90EF90DF90A8
:102A3000CF90BF90AF900895AF92BF92CF92DF92A8
:102A4000EF92FF920F931F93CF93DF9300D000D0AC
:102A50001F92CDB7DEB75B01E090BB01F090BC01E7
:102A600001E010E09E012B5F3F4F40E050E060E04E
:102A700070E080E00E943E14182F882309F43EC0C5
:102A800067018FEFC81AD80A6091750270917602BB
:102A900080917702909178020E94802964367105B6
:102AA0008105910518F104E010E09E012F5F3F4F72
:102AB00040E050E060E070E081E00E943E14182F9A
:102AC00064E070E0C6010E94782391E02D81281314
:102AD00090E0192351F10E9465296093750270936B
:102AE0007602809377029093780211C064E070E0E0
:102AF000C6010E9478239D818913D5CFF70181817A
:102B00009281A381B48189839A83AB83BC8311238F
:102B100061F089819A81AB81BC818093710290932D
:102B20007202A0937302B09374028091710290912B
:102B30007202A0917302B0917402F50180839183B7
:102B4000A283B383812F0F900F900F900F900F905F
:102B5000DF91CF911F910F91FF90EF90DF90CF9079
:102B6000BF90AF9008950F931F93CF93DF93EC0125
:102B70008B014CE155E10E94DB14882351F044E9BC
:102B800054E1B801CE01DF91CF911F910F910C94C8
:102B9000DB1480E0DF91CF911F910F9108950F9387
:102BA0001F93CF93DF93F894C091BB01D091BC01E8
:102BB000CE01019624E0FB01DC0101900D922A95E3
:102BC000E1F764E070E00E94782388837894F894B9
:102BD0006D817E818F81988500916D0210916E02CA
:102BE00020916F023091700260177107820793077E
:102BF00051F060936D0270936E0280936F02909318
:102C000070020E948C287894DF91CF911F910F91D0
:102C100008950E94CD280E94672B0E94802B0E945D
:102C2000922B0E94F30EFBCF8091830280FF0BC09A
:102C30006091330185E0689FB00111247595679517
:102C4000759567952BC081FF09C06091330185E0C0
:102C5000689FB00111247595679520C082FF07C059
:102C60006091330185E0689FB001112417C09091F5
:102C700082029923D1F060913201961788F7209152
:102C8000330185E0289F90011124929FA001939F1A
:102C9000500D112470E0CA010E94AC3460387105F7
:102CA00040F46115710519F406C065E070E0862FE7
:102CB00008958FE7089581E008958091830280FF51
:102CC00008C060912F0170E07595679575956795BF
:102CD00021C081FF06C060912F0170E07595679556
:102CE00019C082FF04C060912F0170E010C0909164
:102CF0008102992399F060912E019617A0F7809197
:102D00002F01899FC001112470E00E94AC3460380B
:102D1000710540F46115710519F406C061E070E0B9
:102D2000862F08958FE7089581E00895803F21F46C
:102D30000E941416819504C0813F29F40E94141644
:102D4000809387020895823F21F40E941416819592
:102D500004C0833F29F40E941416809386020895CC
:102D6000893F19F40E945D1605C08A3F31F40E9424
:102D70005D1681958093880208958B3F21F40E940F
:102D80005D16819504C08C3F29F40E945D168093E6
:102D9000890208959CE0980F953078F421E030E0A6
:102DA000A90102C0440F551F9A95E2F7CA019091FC
:102DB0008502892B8093850208958D3F21F48091AF
:102DC000830281600BC08E3F21F480918302826078
:102DD00005C08F3F29F48091830284608093830231
:102DE0000895803F39F49091870297FF35C0109283
:102DF000870259C0813F29F4909187021916BCF3CC
:102E00002BC090918602823F29F497FF25C0109233
:102E1000860249C0833F19F41916CCF31DC0909166
:102E20008802893F29F41916BCF4109288023BC02D
:102E30008A3F19F497FF10C0F8CF8B3F39F4909177
:102E4000890297FF09C0109289022DC08C3F21F49E
:102E5000909189021916BCF39CE0980F953080F48C
:102E600021E030E0A90102C0440F551F9A95E2F716
:102E7000CA0180959091850289238093850213C0B1
:102E80008D3F21F4809183028E7F0BC08E3F21F411
:102E9000809183028D7F05C08F3F29F4809183024A
:102EA0008B7F8093830280918602811106C080917E
:102EB0008702811102C010928202809188028111E2
:102EC00006C080918902811102C01092810208958A
:102ED0000E94592920918602211104C02091870265
:102EE000222321F09093800280937F022091880218
:102EF000211104C020918902222321F090937E02A7
:102F000080937D0284E892E00C94FC27EF92FF927C
:102F10000F931F93CF93DF9300D000D000D0CDB795
:102F2000DEB786E0E4E8F2E0DE01119601900D9252
:102F30008A95E1F7E0908602F0908702009188027E
:102F400010918902109286021092870210928802D4
:102F500010928902E11003C0FF2009F45DC0809146
:102F60007F02909180020E947129AC0190918202AF
:102F7000992339F02091340130E02417350758F0B7
:102F80004BC0209135018AE0289F9001112424171D
:102F9000350718F041C09F3F19F09F5F9093820260
:102FA000EE2061F00E9414161E1414F09FEF01C071
:102FB00091E0989F902D112490938602FF2061F05C
:102FC0000E9414161F1414F09FEF01C091E0989F07
:102FD000902D112490938702309186023323E1F0E3
:102FE000209187022223C1F045EB3403C001112454
:102FF000992319F09093860203C081E080938602A2
:1030000035EB2303C0011124992319F09093870213
:1030100003C081E080938702011103C0112309F4EA
:103020005DC080917D0290917E020E947129AC0169
:1030300090918102992339F02091300130E02417DA
:10304000350758F04BC0209131018AE0289F90014C
:1030500011242417350718F041C09F3F19F09F5FD6
:1030600090938102002361F00E945D16101614F007
:103070009FEF01C091E0989F902D112490938802BA
:10308000112361F00E945D16111614F09FEF01C02C
:1030900091E0989F902D112490938902309188029D
:1030A0003323E1F0209189022223C1F045EB340360
:1030B000C0011124992319F09093880203C081E084
:1030C0008093880235EB2303C0011124992319F062
:1030D0009093890203C081E08093890280918602E7
:1030E00081110BC080918702811107C080918802F5
:1030F000811103C08091890281110E946817EB82BF
:10310000FC820D831E8386E0FE013196A4E8B2E0C6
:1031100001900D928A95E1F726960FB6F894DEBFDE
:103120000FBECDBFDF91CF911F910F91FF90EF9018
:103130000895E4E8F2E086E0DF011D928A95E9F760
:103140001092820210928102109283020895EF92EF
:10315000FF920F931F93CF93DF938B01682F111171
:103160000AC0442329F0E82FF0E0E95EFC4F6491A7
:10317000762F862F75C0212F30E0E82FF0E0442312
:1031800021F0E95EFC4FE491F0E046E0049FC001CD
:103190001124CFEFD0E0BE010E9498344BEA4603E1
:1031A000C001479F900D1124800F911D800F911D2C
:1031B000982F990F890FAE01421B530B4E9FD001E0
:1031C0004F9FB00D5E9FB00D11249B2F189FA00143
:1031D0001124452F55278E01041B150B0E9FA001AE
:1031E0000F9F500D1E9F500D11247E01E81AF1080B
:1031F000E29E8001E39E100DF29E100D1124212FFE
:103200003327C21BD30BCE9F9001CF9F300DDE9F83
:10321000300D112462307105A9F048F46115710573
:1032200069F061307105C9F48B2F752F0DC06430C2
:10323000710581F058F06630710579F47E2F8B2F7F
:10324000932F0DC0832F7B2F9E2F09C08E2F7B2F96
:10325000952F05C08E2F732F02C07E2F852F692FCB
:10326000DF91CF911F910F91FF90EF90089541E072
:103270000E94A718089508950E9437190895CF93C2
:10328000DF93762FE901682F842F0E943C19798300
:1032900068838A83DF91CF9108958091C602282F99
:1032A000269530E02115310519F48170826005C042
:1032B0002532310524F0817088648093C602089518
:1032C00088E090E00C944B35CF92DF92EF92FF9222
:1032D0006B017C010E944D19B701A60188E090E0C6
:1032E000FF90EF90DF90CF900C9469356091C6020B
:1032F0007091C7028091C8029091C9020C94641920
:10330000E6ECF2E083E0808311828FEF8283838397
:10331000148260817181828193810C9464198091FF
:10332000C60280FF02C08695089580E008959091BE
:10333000CA02933018F49F5F9093CA02882351F019
:103340006091C6027091C7028091C8029091C90233
:103350000C946419089581E00C9497199091CA0215
:10336000992319F091509093CA02882351F06091EB
:10337000C6027091C7028091C8029091C9020C9454
:103380006419089581E00C94AE198091CA020895E1
:103390008093CA02662351F06091C6027091C70201
:1033A0008091C8029091C9020C946419089560E05C
:1033B0000C94C8198091C70208958091C80208959D
:1033C0008091C902089570E00C941D2060913A012B
:1033D0008091C60280FF0AC08091390123E0829F5C
:1033E000C001112485539D4F0C94E31980913B013A
:1033F00090913C01891780F7E82FF0E09F01220FA0
:10340000331FE20FF31FE553FD4F1182108212822A
:103410008F5FF0CF9091C60290FF16C090913B0154
:1034200020913C01921770F4E92FF0E0DF01AA0F20
:10343000BB1FEA0FFB1FE553FD4F8183608342836F
:103440009F5FF0CF0C94E6190895CF93DF9300D0DF
:103450001F92CDB7DEB79091C60290FF0AC09E01C1
:103460002F5F3F4F0E943F194B8169818A810E94E3
:103470000A1A0F900F900F90DF91CF910895CF937C
:10348000DF93EC016C8170E080E090E00E94993263
:1034900020E030E04FE753E40E94BC312BED3FE0E9
:1034A00049E450E40E94C2330E942F340E94363215
:1034B0002BE43AE34EE25FE30E944F3120EF3BEF13
:1034C00048ED52E40E94C2330E946832462FE6EC77
:1034D000F2E0628181810E94251A8C818F5F8C834A
:1034E000DF91CF910895CF93DF93EC01E6ECF2E00A
:1034F000438162818C810E94251A8C818F5F8C832D
:10350000DF91CF9108950F931F93CF93DF9300D056
:103510001F92CDB7DEB78C0180918A0281110AC05B
:103520009E012F5F3F4F4FEF6FEF0E943F198A813F
:1035300080938A02F8018481813051F028F0823032
:1035400061F440918A020AC080918A0240E007C07B
:1035500060918A0240E080E003C040E080E060E0EB
:103560000E940A1AF801848190E0019663E070E0FD
:103570000E94AC3484830F900F900F90DF91CF9115
:103580001F910F910895AF92BF92CF92DF92EF9269
:10359000FF920F931F93CF93DF9300D01F92CDB76D
:1035A000DEB7182FF62E042FE22E9091C60290FF60
:1035B0006DC0E92FE695AE2FB0E0A354BE4F8C91BD
:1035C000809396029E7F923061F49E012F5F3F4F61
:1035D000812F0E943F194B8169818A810E940A1ABA
:1035E00043C0823019F40091C9023EC0863019F4FC
:1035F0001091C70239C08930D9F38931A9F5E95151
:103600008E2F8170D82EE695F0E0EE5EFC4FA590EF
:10361000B490C12CBB2460913D01C61618F52C2D29
:1036200030E0A29EC001A39E900DB29E900D112489
:1036300070E00E949834812FD11002C0860F01C023
:10364000861B90913B01290F311DA901440F551F85
:10365000240F351F25533D4F402F6F2D0E943F19DA
:10366000C394D9CF0E94E6191093C702F092C80202
:103670000093C902EE2051F06091C6027091C7021A
:103680008091C8029091C9020E9464190F900F9016
:103690000F90DF91CF911F910F91FF90EF90DF90EE
:1036A000CF90BF90AF900895E6ECF2E09181282F83
:1036B0004381628188E0890F0C94C31A81E00C94E5
:1036C000541BE6ECF2E09181282F4381628188EF60
:1036D000890F0C94C31A81E00C94611BE6ECF2E0B4
:1036E000628128E0620F08F46FEF282F4381818107
:1036F0000C94C31A81E00C946E1BE6ECF2E062813C
:1037000028E0621B08F460E0282F438181810C943B
:10371000C31A81E00C947D1BE6ECF2E0438128E0C3
:10372000420F08F44FEF282F628181810C94C31A55
:1037300081E00C948C1BE6ECF2E0438128E0421B14
:1037400008F440E0282F628181810C94C31A81E043
:103750000C949B1B20E00C94C31AFF920F931F93B1
:10376000CF93DF93EC01F12C0FEF10E060913D015E
:10377000F616F0F480913B012F2D30E0280F311D1B
:10378000C901880F991F280F391F25533D4F70E03D
:10379000C8010E94AC34962F8C814091C90260917F
:1037A000C802F99E800D11240E943F19F394DECFC8
:1037B0000E94E6199A818C8190FF02C08F5F01C040
:1037C00081508C83DF91CF911F910F91FF900895CD
:1037D000BF92CF92DF92EF92FF920F931F93CF93FE
:1037E000DF93FC01828180FF02C00FEF01C001E086
:1037F00010E080913D01181708F040C080913B0116
:10380000C12ED12CE601C80FD11DCE01880F991F02
:10381000C80FD91FC553DD4F198218821A8234E0B0
:10382000E32EF12CB12C80918C028B0D813114F0A0
:103830008F7005C087FF03C090913D01890F082E4E
:10384000000C990BC816D90691F48091C9028E9D7F
:10385000A0018F9D500D112455954795559547957D
:103860009E016091C8028091C7020E943F19B00E6C
:10387000F1E0EF1AF108B9F61F5FBBCF0E94E6191D
:1038800080918C02013031F4811102C080913D01A0
:10389000815007C090E0019660913D0170E00E9468
:1038A000AC3480938C02DF91CF911F910F91FF90E8
:1038B000EF90DF90CF90BF900895CF9380913B0120
:1038C00090913C01891770F4E82FF0E09F01220FDE
:1038D000331FE20FF31FE553FD4F11821082128256
:1038E0008F5FF0CFC0E060913D01C617C0F5EC2FAF
:1038F000F0E070E0CF010E94AC3420913B01820FD8
:1039000020918B02022E000C330B90E0E217F3079C
:10391000CCF020913801022E000C330B2E173F07FC
:103920008CF09C01220F331F820F931F9C012553A3
:103930003D4F4091C9026091C8028091C7020E9428
:103940003F190BC0FC01EE0FFF1F8E0F9F1FFC01E4
:10395000E553FD4F118210821282CF5FC4CF0E94C7
:10396000E6192091370180918B02820F80938B02A0
:1039700090913801920F9093380119165CF4082E3B
:10398000000C990B40913D0150E0415051098417C2
:1039900095071CF0219520933701CF9108958F92C0
:1039A0009F92AF92BF92CF92DF92EF92FF920F93CE
:1039B0001F93CF93DF938C01FC014481C42FD0E08F
:1039C0009E01DE010E94F7349B01AC010E940D357F
:1039D0006B017C01E0E2F0E0EC1BFD0BA5E5B0E043
:1039E0009B01AC010E940D354B015C019F01DF0181
:1039F0000E94EF349B01AC010E9418359B01AC0181
:103A00002C0D3D1D4E1D5F1DC501B4010E94C0342B
:103A1000C22FD22F2A3228F4F3E02F9F90011124D5
:103A20000DC025E530E02C1B3109C901880F991F15
:103A3000280F391F37FF02C02F5F3F4F359527955D
:103A4000C22FC095F12C85E5E82EED1A80913D013D
:103A5000F816C8F4F1FC02C08E2D01C08D2F909194
:103A60003B012F2D30E0290F311DA901440F551FB7
:103A7000240F351F25533D4F4C2F6091C8020E94E3
:103A80003F19F394E3CF0E94E619F8018481811174
:103A900002C091E003C0803219F49FEF9093360189
:103AA00090913601890FF8018483DF91CF911F91A6
:103AB0000F91FF90EF90DF90CF90BF90AF909F90CD
:103AC0008F9008950F931F93CF93DF93EC0100E045
:103AD00010E080913D01282F30E00217130724F5F4
:103AE00090913B019801290F311DA901440F551FE9
:103AF000240F351F25533D4F869590E04C810817C4
:103B000019071CF4442331F002C0411103C0409155
:103B1000C90201C040E06091C8028091C7020E94C2
:103B20003F190F5F1F4FD5CF0E94E6198C8190E09F
:103B30000196817099278C83DF91CF911F910F910E
:103B40000895E6ECF2E080818E7F80836081718150
:103B5000828193810E946419109297022FEF80E76F
:103B600092E0215080409040E1F700C000000C94AA
:103B7000E619E6ECF2E080818E7F80831092970256
:103B80002FEF80E792E0215080409040E1F700C0A5
:103B900000000C94E6191092970280919402811112
:103BA0000AC081E0809394028091C6028170809364
:103BB00093020C94B91D08956091C602669570E059
:103BC0004BE050E08EE391E00E942035892B19F400
:103BD00081E0809397020E94C42890938E02809384
:103BE0008D0208959091C60290FF35C091708111A9
:103BF00002C0926006C0853210F0986402C0880F3F
:103C0000982B9093C602662351F06091C602709182
:103C1000C7028091C8029091C9020E946419609104
:103C2000C602669570E04BE050E08EE391E00E94A2
:103C30002035892B19F01092970202C00E94DC1DDA
:103C400081E0809390024091C9026091C802809106
:103C5000C7020C94AA1B0895682F9091C6029695EE
:103C600081E0890F853208F081E00C94F21D81E03B
:103C70000C942C1E682F9091C60296958FEF890F99
:103C800009F484E20C94F21D81E00C943A1E61E088
:103C90000C94F21DE6ECF2E08081816080838695D1
:103CA0000C94471E8091C60280FD0C94A11D0C94BB
:103CB0004A1E60E00C94F21D8091950281112EC085
:103CC0000E94120E811104C00E94B90E0E94801938
:103CD0000E9460196093C6027093C7028093C80265
:103CE0009093C9026E7F61F40E9480190E9460194E
:103CF0006093C6027093C7028093C8029093C90272
:103D00000E944D19109297028091C60280FF03C055
:103D100086950E94591E81E0809395020895E6ECF5
:103D2000F2E080818160808386950C94591E109208
:103D300094028091930281110E948F1E0C94DC1DCD
:103D40000F931F93CF93DF9380919702882309F4F9
:103D500085C080919602E091C602E695E81BE0934B
:103D60008F02823049F4F0E0E25FFC4FE491CE2F05
:103D7000D0E00FE31AE149C0863049F4F0E0E55F96
:103D8000FC4FE491CE2FD0E003E71AE13EC089302A
:103D900051F4E695F0E0E85FFC4FE491CE2FD0E0DF
:103DA0000DEA1BE132C08F3051F4E695F0E0EB5F95
:103DB000FC4FE491CE2FD0E008EE1BE126C0853108
:103DC00049F4F0E0EE5FFC4FE491CE2FD0E00DE53A
:103DD0001CE11BC0883181F0833239F4E0E0F3E06C
:103DE000C591D49103E81AE110C0843251F4C4EFB4
:103DF000D1E002E61DE109C0C8E2D0E00FEC1CE111
:103E000004C0C0EDD7E00BE319E180919002882354
:103E100061F0109290020E94C42890938E028093C9
:103E20008D0210929202109291020E94C428E09199
:103E30008D02F0918E028E1B9F0B8F3F9F4770F477
:103E4000EC0FFD1FF0938E02E0938D028DE892E05F
:103E5000F801DF91CF911F910F910994DF91CF91DC
:103E60001F910F910895882311F0FA0101C0FB0101
:103E70000994CF93DF93C82FD62F0E948F198C17E8
:103E800040F00E948F198D1720F4DF91CF910C9490
:103E9000371E8C2FDF91CF910C94471E1F93CF9329
:103EA000DF93FB0112811111C3C0EC010E945A0D76
:103EB0008272CC3CFCE5DF0709F49AC0A8F5C63C49
:103EC000ECE5DE0709F476C0A8F4C33C9CE5D9070D
:103ED00009F45FC028F4C23CDC4509F457C054C063
:103EE000C43C9CE5D90709F459C0C53CDC4509F43C
:103EF0005CC04AC0C93CFCE5DF0709F46AC050F465
:103F0000C73CECE5DE0709F45AC0C83CDC4509F4BF
:103F10005BC03AC0CA3C9CE5D90709F45FC0CB3C02
:103F2000DC4509F460C030C0C13DFCE5DF0709F4A1
:103F30006FC088F4CE3C9CE5D90709F460C008F452
:103F40005CC0CF3CFCE5DF0709F45CC0C03DDC454C
:103F500009F45BC019C0C43D9CE5D90709F460C0F1
:103F600050F4C23DFCE5DF0709F455C0C33DDC4514
:103F700009F454C009C0C53D9CE5D90709F455C0F2
:103F8000CD35DD4509F454C011E052C00E94521EE7
:103F90004FC044E45EE167E37EE104C047E35EE1D5
:103FA00064E47EE10E94331F43C04BE65BE16EE5B3
:103FB0007BE1F8CF4EE55BE16BE67BE1F3CF49E8CF
:103FC0005BE16AE77BE1EECF4AE75BE169E87BE131
:103FD000E9CF47EA5BE168E97BE1E4CF48E95BE1EF
:103FE00067EA7BE1DFCF42EC59E16BEA79E1DACFB6
:103FF0004BEA59E162EC79E1D5CF81E017C065E089
:1040000082E010C068E086E00DC06EE089E00AC082
:1040100064E18FE007C067E185E104C088E106C084
:1040200062E289E10E94391F03C083E20E94471EB9
:10403000812FDF91CF911F910895539A2BB1277F44
:104040003BB138604FB7F894FC01CB01880F991F42
:10405000680F791F6E0F7F1FE617F70789F08191B0
:1040600098E03BB9000000C087FF2BB9880F000023
:1040700000C000C000C02BB900C09A9591F7ECCFEA
:104080004FBF8FE594E00197F1F700C0000008955D
:1040900083E290E00E944335823281F484E290E032
:1040A0000E944335873051F485E290E00E94433509
:1040B00091E0893209F090E0892F01C080E08170A1
:1040C0000895CF93C82F811102C06FEF01C062E243
:1040D00083E290E00E945735C11102C06FEF01C02A
:1040E00067E084E290E00E945735C11102C06FEF93
:1040F00001C069E285E290E0CF910C9457350895B4
:1041000086E290E00E944335682F70E080E090E006
:10411000089586E290E00C94573580E00E9461207B
:1041200060E070E0CB010E9489200E9430220E9452
:104130000F2381E00C9461200E947F200E94482080
:10414000811102C00C948D200895CF93FB01C28190
:10415000CC23E9F09C0122513F452031310520F468
:1041600082510E941F230CC08031FFE59F0751F44C
:1041700081E00E94330943E062E081E00E947B031A
:10418000C0E018C081319F45A9F482E0F2CF8031B0
:10419000EFE59E0711F481E004C081319F4549F4A9
:1041A00082E00E943E0943E062E081E00E947B03DE
:1041B00001C0C1E08C2FCF9108952FEFFC01208327
:1041C0000895CF93DF93EC018881813889F028F43A
:1041D0008038A1F40E94E01910C0823861F0833861
:1041E00069F40E94DA1989830E94DD198A8306C066
:1041F0000E948F1902C00E94C5198983DF91CF9157
:104200000895CF93DF93EC0188818138B1F058F4A1
:10421000803851F5D9810E94DD19C82F0E94DA1922
:104220004D2F6C2F1DC08238B1F08338E9F40E9405
:10423000E019482F6A81898113C089810E94591E23
:104240008981811104C0DF91CF910C94B91DDF9158
:10425000CF910C948F1E8981DF91CF910C94D71947
:10426000DF91CF910C94AA1BDF91CF910895EF922B
:10427000FF920F931F93CF93DF93EC01062F0196CC
:10428000E8814E2F50E0FA013197E331F10508F053
:104290009AC0E059FF4F0C94E234198289E056C06D
:1042A0008981823039F0833061F0813029F50E94B4
:1042B000652902C00E9480209A838B837C836D8352
:1042C00084C07E0182E0E80EF11C10E0812F0E9484
:1042D000C711F70181937F011F5F1830B9F775C0CF
:1042E0008981823049F46A817B818C819D810E9421
:1042F000E8340E94892069C0602FCE010E94DD2031
:1043000064C04B816A8189810E9402229C838D83D3
:104310005CC02C813D813227232732274B816A8163
:1043200089810E941B2251C00E9430224EC00E94EF
:1043300001214BC00E94E12048C00E94761945C06F
:104340000E94C22224C00E94C42299838A833DC055
:104350006B8170E089819A81AE014C5F5F4F982735
:10436000892798270E94C72230C06B8170E089811D
:104370009A81AE014C5F5F4F9827892798270E944A
:10438000EC2223C00E940F2320C00E94EF218983CA
:104390001CC06B8170E089819A81AE014C5F5F4FD8
:1043A0009827892798270E946F220FC06B8170E0A1
:1043B00089819A81AE014C5F5F4F982789279827A2
:1043C0000E94932202C08FEF8883602FCE01DF917D
:1043D000CF911F910F91FF90EF900C94582A84E099
:1043E000089550E0440F551F2AE0629F400D511D73
:1043F00011249A0160E5869F200D311D1124C90109
:10440000879608950F931F93CF93DF930E94F12116
:104410008C010E944335C82FD0E0DC2FCC27C80187
:1044200001960E9443359E01282BC901DF91CF914F
:104430001F910F9108950F931F93CF93DF93122F26
:10444000032F0E94F121EC01602F0E945735612F4C
:10445000CE010196DF91CF911F910F910C945735AA
:10446000AF92BF92CF92DF92EF92FF920F931F9382
:10447000CF93DF93A12CE12CF12CB12C00E010E0C4
:10448000C0E0D0E06701C00ED11EFE01EE0FFF1F9D
:10449000EC0DFD1DE05AFE4F259134914C2F6B2DF4
:1044A0008A2D0E941B222196C530D10571F7065F27
:1044B0001F4FB39488E0B812E3CF80E5E80EF11CFB
:1044C000A39484E0A812D9CFDF91CF911F910F91CF
:1044D000FF90EF90DF90CF90BF90AF900895EF9254
:1044E000FF920F931F93CF93DF93EA017A01E60EB9
:1044F000F71E8C01C8018796CE15DF0569F00034E0
:1045000021E0120720F40E944335888301C01882FD
:1045100021960F5F1F4FEECFDF91CF911F910F912B
:10452000FF90EF900895EF92FF920F931F93CF9318
:10453000DF93EA017A01E60EF71E8C01C801879627
:10454000CE15DF0559F0003421E0120718F4688118
:104550000E94573521960F5F1F4FF0CFDF91CF910B
:104560001F910F91FF90EF900895462F843038F4FB
:10457000783028F4653018F4672F0C94022280E01C
:1045800090E0089580E1089589E992E00895EF921E
:10459000FF920F931F93CF93DF93EA017A01E60E08
:1045A000F71E8C01C80189599E4FCE15DF0569F0B1
:1045B000093922E0120720F40E944335888301C0A4
:1045C000188221960F5F1F4FEDCFDF91CF911F9182
:1045D0000F91FF90EF900895EF92FF920F931F932A
:1045E000CF93DF93EA017A01E60EF71E8C01C80132
:1045F00089599E4FCE15DF0559F0093922E012077F
:1046000018F468810E94573521960F5F1F4FEFCF36
:10461000DF91CF911F910F91FF90EF900895CF936D
:10462000DF93C7E6D1E060E0CE010E9457352196C6
:10463000C11584E0D807B9F7DF91CF910895DF92D3
:10464000EF92FF920F931F93CF93DF9300D000D090
:10465000CDB7DEB7F82E8FE08F15E8F18FEF93E03E
:104660000E944335811137C007E611E0FF2069F051
:10467000011584E0180779F1C8010E9443358111C2
:1046800001C0FA940F5F1F4FF1CF19821A821B826B
:104690001C82DD24D39478018FEFE81AF80AC80150
:1046A0000E94433589831A828823A9F09FEF980FCF
:1046B000933058F48A83D9820E5F1F4FC7010E943E
:1046C00043358B83882339F07801CE0101960E940F
:1046D000CB048701E0CF0F900F900F900F90DF91E8
:1046E000CF911F910F91FF90EF90DF900895089563
:1046F000FC01680F791F8FEF91E3E617F70771F060
:104700002191822728E030E087FF03C0880F8927A6
:1047100001C0880F21503109B9F7EFCF08950F93E9
:104720001F93CF93DF93C42FD22FFC018281882364
:10473000C9F040939A020E9459299093990280935C
:10474000980280E28C0F883008F057C0C77081E073
:1047500001C0880FCA95EAF7DF91CF911F910F91A1
:104760000C94610680919A02481330C0809198029F
:10477000909199020E947129883C910538F510E2C8
:104780001D0FCD17B9F080E28C0F883040F4C77050
:1047900081E001C0880FCA95EAF70E9468061830C8
:1047A00028F581E09D2F977001C0880F9A95EAF750
:1047B0000E946106802F0E9458061830F0F4D770CE
:1047C00081E001C0880FDA95EAF70AC080E28C0F19
:1047D000883098F4C77081E001C0880FCA95EAF765
:1047E000DF91CF911F910F910C946806802FDF917C
:1047F000CF911F910F910C945806DF91CF911F918B
:104800000F9108950F939C01CB01233F4CE5340792
:1048100031F188F4283DFCE53F07D9F0293D4CE50E
:10482000340779F1273D3C45A9F506E221EE41EE3A
:1048300067ED7CE52BC0253FFCE53F07E1F0A8F0E4
:10484000263F3C4539F507E225EE46EE66EF7CE56E
:104850001DC007E225EE45EE68ED7CE517C006E2D7
:1048600021EE40EE63EF7CE511C007E225EE44EE59
:1048700064EF7CE50BC006E221EE42EE65EF7CE5DD
:1048800005C008E221E045EE69ED7CE50E948F233A
:1048900080E008C0FC018281882319F010929A02FE
:1048A00001C081E00F910895CF93DF93EC01FB01EC
:1048B0008281882309F426C1C330FDE5DF0760F457
:1048C000CA3F9CE5D90768F49E0122503C4524313B
:1048D000310508F018C105C0C136EDE5DE0709F065
:1048E00012C10E94250E9093B2028093B102C03192
:1048F000FCE5DF0709F4CAC008F041C0C8309CE5F8
:10490000D90709F4A4C0F0F4C430FCE5DF0709F4CA
:104910008CC068F4C2309CE5D90709F482C0C3306A
:10492000DC4509F0E5C08091B1028260DFC0C6308D
:10493000FCE5DF0709F483C008F085C08091B1026F
:104940008860D4C0CC309CE5D90709F490C068F4E5
:10495000CA30FCE5DF0709F47EC008F084C00E947D
:10496000B4088091B1028068C1C0CE309CE5D907FF
:1049700009F481C008F086C08091B10294C0CC3F98
:10498000FCE5DF0709F47BC038F5C4319CE5D907A5
:1049900009F49AC058F4C231FCE5DF0709F47AC083
:1049A00008F07EC08091B1028F7BA0C0CA3F9CE519
:1049B000D907F1F108F03FC0C531DC4509F098C0D6
:1049C0008091B10282FB222720F991E0922790FB8F
:1049D00082F990FB83F98AC0C1158DE5D80709F4E7
:1049E00067C050F48091B202CE3FECE5DE07C1F122
:1049F00008F05BC08D7F65C0C2308DE5D80709F433
:104A000071C008F46DC0C136DD4509F071C08091F8
:104A1000B10284FB222720F991E0922790FB84F9D0
:104A200065C08091B102816061C08091B10216C001
:104A30008091B20216C08091B202826042C0809121
:104A4000B102806153C08091B10280624FC08091F9
:104A5000B10280644BC08091B1028860846046C01E
:104A6000826081602EC08091B1028E7F3FC08091B4
:104A7000B1028D7F3BC08091B102877F37C08091AA
:104A8000B20214C08091B1028F7E30C08091B10219
:104A90008F7D2CC00E94B4088091B1028F7726C010
:104AA0008091B102877F8B7F21C08D7F8E7F09C06F
:104AB0008091B202982F909591708E7F892B90FBF8
:104AC00081F98093B20214C00E94B4088091B102AF
:104AD00087FB222720F991E0922790FB87F906C0F7
:104AE00081E001C080E00E94BB0E02C08093B10251
:104AF0008091B1029091B2020E94360E0E94B408D9
:104B000080E001C081E0DF91CF910895CF93DF93E2
:104B100086319C4541F5EB010E945A0D982F8A8100
:104B20002091000130910101882379F09A7A81E087
:104B300009F480E080939B02911102C069E201C0F8
:104B400065E3C9010E9478280AC080919B02811107
:104B500002C069E201C065E3C9010E947A280E948F
:104B60009F0D80E001C081E0DF91CF9108958EE13B
:104B70004A9B02C08150E1F74A9BFECF08955A98A4
:104B800080E28A95F1F75A9A0895FC012AE02A9565
:104B9000F1F728E090E080E031E040E14A95F1F75C
:104BA000880F4A9B02C08160932700C0000040E14B
:104BB0004A95F1F7215089F720E12A95F1F729B1BB
:104BC00000C0000030E13A95F1F722FB222720F9DE
:104BD00092272081920F90830895EF92FF920F9376
:104BE0001F93CF93DF931F92CDB7DEB719828C014D
:104BF0007C01E60EF11C0E151F0551F00E94B72531
:104C0000CE0101960E94C525F80181938F01F3CF53
:104C100081E09981911180E00F90DF91CF911F91F8
:104C20000F91FF90EF900895529A5A9A08955298D2
:104C30005A9AEA9AE9E6F0E080818F7C80830895B1
:104C4000615091E001C0990F6A95EAF720E031E0E8
:104C5000992361F0492F482319F05A9A232701C05C
:104C60005A9840E24A95F1F79695F2CF222311F037
:104C70005A9A01C05A9880E28A95F1F75A98089595
:104C8000FF920F931F93CF93DF93EC018C01060FDC
:104C9000111DC017D10741F0F9900E94BF2568E0AF
:104CA0008F2D0E942026F5CFDF91CF911F910F917C
:104CB000FF9008951F920F920FB60F921124EF925A
:104CC000FF920F931F932F933F934F935F936F9395
:104CD0007F938F939F93AF93BF93EF93FF93CF9364
:104CE000DF931F92CDB7DEB719820E94B725CE01A0
:104CF00001960E94C525A82FA695A695A6959A2F40
:104D0000969595702A2F2570920F292F23709695CE
:104D10009695920F877089137CC08981811179C023
:104D2000A43008F076C080E18A95F1F75A9A529A39
:104D3000B2E0BA95F1F700C05A98EA2EF12CEAE0F9
:104D4000AE9FD0011124A05FBE4F1896ED91FC914B
:104D500019973097B1F06091BB017091BC01169624
:104D60002D913C911797260F371F13968D919C918B
:104D70001497680F791F15964C91159712968C9180
:104D800009958AE08E9DF0018F9DF00D1124E05F62
:104D9000FE4F6581662351F08091BB019091BC016B
:104DA00026813781820F931F0E9440260E94BF25D3
:104DB000F0E1FA95F1F75A9852985A9A80E18A955B
:104DC000F1F78AE08E9D80018F9D100D1124005F08
:104DD0001E4FD80112966C911297662399F080911C
:104DE000BB019091BC0113962D913C911497820FB9
:104DF000931F0E94ED25D801ED91FC91811105C012
:104E000082E004C0D801ED91FC9188E080830E948B
:104E1000B7250F90DF91CF91FF91EF91BF91AF91A7
:104E20009F918F917F916F915F914F913F912F91C2
:104E30001F910F91FF90EF900F900FBE0F901F905A
:104E400018950F931F93CF93DF93843091050CF047
:104E5000A9C02AE0289FF001299FF00D1124E05FEE
:104E6000FE4F20813181232B09F49CC0EC01F89482
:104E7000529A5A9885E08A95F1F700008C2F869512
:104E800085709C2F9570890F982F937086958695C5
:104E90008E0123E0000F111F2A95E1F7890F082BDF
:104EA0000E94BF25A4E0AA95F1F700C068E0802F1A
:104EB0000E942026B0E1BA95F1F752985A9A4A9981
:104EC00002C000C0FCCF87E090E04A9B17C001976A
:104ED00099F4529A5A9A8AE08C9FF0018D9FF00DB6
:104EE0001124E05FFE4F0190F081E02D81E080838E
:104EF000789481E090E058C000C0E7CF8AE08C9FB2
:104F000080018D9F100D1124005F1E4FF8016581F7
:104F10006623B9F08091BB019091BC012681378155
:104F2000820F931F0E94ED2581110BC0529A5A9A4D
:104F3000D801ED91FC9182E08083789482E090E04A
:104F400033C00E94B725B0E2BA95F1F75A98529A49
:104F5000E0E1EA95F1F78AE08C9FF0018D9FF00D7A
:104F60001124E05FFE4F6281662351F08091BB0106
:104F70009091BC0123813481820F931F0E944026AF
:104F80000E94BF258AE08C9FF0018D9FF00D1124B7
:104F9000E05FFE4F0190F081E02D1082789480E078
:104FA00090E002C084E090E0DF91CF911F910F91DB
:104FB00008959093A2028093A10208950E94D013B5
:104FC000811103C080919C020895E091A102F091AB
:104FD000A202309721F00190F081E02D099480E049
:104FE0000895E091A102F091A202309721F0028091
:104FF000F381E02D09940895E091A102F091A202BD
:10500000309739F022E0DC012C930480F581E02D0B
:105010000994089520919F023091A0022817390722
:1050200071F09093A00280939F02E091A102F09111
:10503000A202309721F00680F781E02D09940895AF
:1050400020919D0230919E022817390771F09093AC
:105050009E0280939D02E091A102F091A2023097FE
:1050600021F00084F185E02D09940895FC01329629
:1050700097E080E0915029F021912223D9F38F5FAE
:10508000F9CF0895662349F0FC01329608962191E4
:10509000621729F0E817F907D1F780E0089581E059
:1050A00008959C01FC0132969FEF80E041914617E4
:1050B00089F09F3F19F4411101C0982F8F5F86300E
:1050C000A9F79F3F39F0F901E90FF11D97FDFA9516
:1050D0006283089508959C012A5F3F4FFC0142813D
:1050E000461301C01282019682179307B9F70895FB
:1050F0000C9451280C946B28029626E0FC01119226
:105100002A95E9F708951092FB021092FC02109282
:10511000FD021092FE020895CF92DF92EF92FF926D
:105120006B017C010E94D01381110EC00E94652981
:10513000C61AD70AE80AF90AC092FB02D092FC020A
:10514000E092FD02F092FE02FF90EF90DF90CF9090
:1051500008950F931F930E94D013882321F01F916D
:105160000F910C9465290E9465290091FB02109112
:10517000FC022091FD023091FE02600F711F821F20
:10518000931F1F910F9108950E94D01381110C94C9
:1051900059290E94A928CB010895089508950C94D7
:1051A000CE280C94CE28CF930E94D1280E9445137C
:1051B0000E94CF28C0E08C2F0E94C711811104C02B
:1051C000CF5FC830C1F701C081E0CF9108950C9442
:1051D000CE280C94E72880910703843059F10E946F
:1051E000E92880E00E94D6040E94CB1D1092A30201
:1051F00020E488E190E00FB6F894A89580936000D1
:105200000FBE2093600083B7817F846083BF83B724
:10521000816083BF7894889583B78E7F83BF0FB6F4
:10522000F894A89580916000886180936000109246
:1052300060000FBE08950C94CE280E94B4080E940E
:10524000DE270E94D6040E94971E0C941B291F92F1
:105250000F920FB60F9211248F939F93AF93BF932A
:105260008091A302811113C08091FF0290910003ED
:10527000A0910103B09102034196A11DB11D80933D
:10528000FF0290930003A0930103B0930203BF9128
:10529000AF919F918F910F900FBE0F901F90189517
:1052A00082E084BD93E095BD9AEF97BD80936E0038
:1052B00008952FB7F8948091FF0290910003A09178
:1052C0000103B09102032FBF08952FB7F8946091A6
:1052D000FF027091000380910103909102032FBFA0
:1052E00008959C014FB7F8948091FF0290910003BC
:1052F000A0910103B09102034FBF821B930B08954D
:10530000CF92DF92EF92FF922FB7F894C090FF02F6
:10531000D0900003E0900103F09002032FBFA7019B
:105320009601261B370B480B590BCA01B901FF9098
:10533000EF90DF90CF90089578941F920F920FB660
:105340000F9211248F939F93AF93BF938091FF028D
:1053500090910003A0910103B09102030196A11D59
:10536000B11D8093FF0290930003A0930103B093BB
:105370000203BF91AF919F918F910F900FBE0F903D
:105380001F90189587E797E790930108809300088E
:105390009AE088E10FB6F894A895809360000FBE5C
:1053A00090936000FFCF9093F3018093F2010895F2
:1053B0008091AF02089590910703943029F580936E
:1053C000A4027093A6026093A5029093E9008FEF68
:1053D0009091E800815095FD06C095ED9A95F1F702
:1053E00000008111F5CF8091E80085FF0DC040E0FD
:1053F00050E063E070E084EA92E00E94542C8091D7
:10540000E8008E778093E8000895BC0184E00C9456
:10541000DB29BC0183E00C94DB2924E02093E90024
:105420002FEF3091E800215035FD06C035ED3A955B
:10543000F1F700002111F5CF2091E80025FF0BC006
:1054400040E050E066E070E00E94542C8091E8005B
:105450008E778093E8000895CF93DF9321E0209327
:10546000E9002FEF3091E800215035FD06C035ED01
:105470003A95F1F700002111F5CF2091E80025FFC2
:1054800014C0EC0140E050E068E070E00E94542C51
:105490008091E8008E778093E80088E0FE01A7EA1B
:1054A000B2E001900D928A95E1F7DF91CF910895D6
:1054B000CF93603219F5209107032430F9F4C0919D
:1054C000E900CF703091EC00232F217030FD20E8EF
:1054D000C22B22E02093E9002091E80020FF0BC0BE
:1054E00040E050E060E270E00E94542C8091E800BF
:1054F0008E778093E800CF70C093E900CF91089534
:1055000080910603811109C00E94302E0E948D2EC9
:105510008091E20084608093E20008951092060377
:10552000089508950895089542E061EC81E00E9495
:10553000A92D42E261EC84E00E94A92D42E261ECD7
:1055400082E00E94A92D42E260EC83E00C94A92D38
:1055500080910903833009F462C030F4813071F026
:10556000823009F49BC008958A3009F487C08B30DB
:1055700009F46DC0893009F0A9C020C080910803EA
:10558000813A09F0A3C08091E800877F8093E8000A
:1055900080910C0390910D03892B21F468E087EA38
:1055A00092E003C060E080E090E070E00E94EA2CAE
:1055B0008091E8008B778093E8000895809108033C
:1055C000813209F083C080910C0390910D03009704
:1055D00019F0029709F07AC08091E800877F8093E4
:1055E000E8008091E80082FD05C0809107038111E9
:1055F000F8CF6CC02091F3008091F20090E0922BE4
:10560000029729F48091F1008B7F813021F4809101
:10561000F1008093AF028091E8008B7753C08091B6
:105620000803813A09F052C080910C0390910D0358
:10563000892B09F04BC08091E800877F8093E800B8
:105640008091E80080FFFCCF8091530136C08091AB
:1056500008038132D9F580910C0390910D03892BB9
:10566000A9F58091E800877F8093E8000E94DE2DF5
:1056700080910A03809353010C94B408809108032D
:10568000813221F58091E800877F8093E8000E94B5
:10569000DE2D80910B038093B00208958091080362
:1056A000813AA1F48091E800877F8093E80080919F
:1056B000E80080FFFCCF8091B0028093F1008091E0
:1056C000E8008E778093E8000C94DE2D089584B76F
:1056D000877F84BF0FB6F894A89580916000886199
:1056E00080936000109260000FBE90E080E80FB6DB
:1056F000F89480936100909361000FBE0C94E90EC2
:105700000E94302E0E948D2EE2EEF0E080818460B7
:10571000808378940E9422310E94F70E89E491E000
:105720000C94D927CF93DF93CDB7DEB7A0970FB6F0
:10573000F894DEBF0FBECDBF809107038530A9F47A
:1057400080910703853079F40E94EB28809105034E
:105750008823B1F30E94D328882391F30E943E2C22
:105760000E94B408EDCF0E941D290E94050F809170
:105770000703843011F583E08093E9008091E8000D
:1057800082FF1BC08091E80085FF0AC040E050E026
:1057900060E270E0CE0101960E949F2C91E001C072
:1057A00090E08091E8008B778093E800992329F0BE
:1057B00060E2CE0101960E943721A0960FB6F894C0
:1057C000DEBF0FBECDBFDF91CF9108950C94E82BC3
:1057D000292F332723303105C9F060F421303105FA
:1057E00081F02230310509F041C08BE590E029E3DA
:1057F00034E040C021323105E1F02232310531F18F
:1058000035C082E190E024E934E034C0992781304A
:10581000910549F028F0029749F5E7E1F4E005C069
:10582000E5E3F4E002C0E9E2F4E0849190E09F0156
:1058300021C063307105D0F4660F771FFB01E5517D
:10584000FE4F2081318189E090E014C06330710502
:1058500068F4FB01EE0FFF1FEB51FE4F20813181F9
:10586000FB01EE51FE4F808190E004C080E090E0AB
:1058700020E030E0FA0131832083089580E189BD82
:1058800082E189BD09B400FEFDCF8091D8008F7DF3
:105890008093D8008091E00082608093E000809146
:1058A000E00081FDFCCF0895CF92DF92EF92FF924E
:1058B0000F931F93CF93DF93EC018B017A010E942A
:1058C000FD2D811133C0E114F10439F0F70180811D
:1058D0009181081B190BC80FD91FC12CD12C0115A0
:1058E000110519F18091E80085FD16C08091E8004E
:1058F0008E778093E800E114F10449F0F70180818C
:105900009181C80ED91ED182C08285E00FC00E944D
:10591000FD2D882321F30AC089918093F100015065
:105920001109FFEFCF1ADF0ADACF80E0DF91CF91C4
:105930001F910F91FF90EF90DF90CF900895CF923D
:10594000DF92EF92FF920F931F93CF93DF93EC01BF
:105950008B017A010E94FD2D811133C0E114F10405
:1059600039F0F70180819181081B190BC80FD91FED
:10597000C12CD12C0115110519F18091E80085FD8C
:1059800016C08091E8008B778093E800E114F10461
:1059900049F0F70180819181C80ED91ED182C08261
:1059A00085E00FC00E94FD2D882321F30AC080915D
:1059B000F100899301501109FFEFCF1ADF0ADACF06
:1059C00080E0DF91CF911F910F91FF90EF90DF90DA
:1059D000CF90089520910E0330910F0326173707BB
:1059E00048F06115710539F42091E8002E77209375
:1059F000E80001C0B901FC0120E06115710579F1F1
:105A0000809107038823F1F18530F1F18091E8005E
:105A100083FD3CC08091E80082FD2EC08091E800AB
:105A200080FFEBCF2091F3008091F20090E0922B69
:105A30006115710551F08830910538F4219120935A
:105A4000F100615071090196F3CF21E0089709F048
:105A500020E08091E8008E778093E800CECF21117E
:105A6000CFCF0AC080910703882361F0853061F0B1
:105A70008091E80083FD0AC08091E80082FFF2CFA8
:105A800080E0089582E0089583E0089581E008951C
:105A900020910E0330910F032617370748F0611548
:105AA000710539F42091E8002E772093E80001C0B9
:105AB000B901FC0120E06115710591F180910703A6
:105AC000882309F440C0853009F43FC08091E80084
:105AD00083FD3DC08091E80082FD2FC08091E800E9
