:100000000C9436020C947D020C947D020C945022C8
:100010000C947D020C947D020C947D020C947D0264
:100020000C947D020C947D020C94942A0C94662B03
:100030000C9410250C947D020C947D020C947D028E
:100040000C947D020C947D020C947D020C947D0234
:100050000C947D020C9485250C947D020C947D02F9
:100060000C947D020C947D020C947D020C947D0214
:100070000C947D020C947D020C947D020C947D0204
:100080000C947D020C947D020C947D020C947D02F4
:100090000C947D020C947D020C947D020C947D02E4
:1000A0000C947D020C947D020C947D02F407F407FD
:1000B0002608260873089108850985099C08040903
:1000C000150915097509850985097E09250A250A75
:1000D000370A370A2E0A370A370A370A250A250A45
:1000E000330A370A370A330A4C1D4F1D6F1D801D16
:1000F000881D931DD91DD91DD91DD91DD91D961D2A
:10010000991D9E1DAB1DB81DBB1DBF1DCC1DD32B46
:10011000FA2BF22CFA2BF22C462C692CF22CC02C48
:10012000CF2C1700150008001A0014000A0009005F
:100130000700160004000500190006001B001D0042
:100140002C41E300E0001F001E0014001A0008000C
:10015000150000001C0018000C00120013000B001A
:100160000D000E000F0028001100100036003700AF
:10017000E5002C42E2002A00200021001C001800AB
:100180000C00120000002200210020001F001E00B1
:100190002202210220021F021E02670054005500A5
:1001A000560057002C41490029001F001E00140072
:1001B0001A00080015000000230024002500260076
:1001C0002700230224022502260227023500890087
:1001D0002F1230122D122D00E2002A0020002100E3
:1001E0001C0018000C00120000003E003D003C0006
:1001F0003B003A0034003312330031001F02C75C69
:10020000C65CC55CC35CC25C2D1249002B001F009C
:100210001E0014001A000800150000003F004000F6
:100220004100420043005000510052004F002E0098
:10023000C85CC95C2F00300031002C42E2002A006B
:10024000200021001C0018000C001200000000001B
:100250000000000000002A2B280000000000000021
:1002600000000000000000000029000000002C1E1B
:100270003420212224342627252E362D3738271ED8
:100280001F202122232425263333362E37381F04FE
:1002900005060708090A0B0C0D0E0F101112131496
:1002A00015161718191A1B1C1D2F3130232D350454
:1002B00005060708090A0B0C0D0E0F101112131476
:1002C00015161718191A1B1C1D2F3130354C00003C
:1002D000000000000000000000000000000000001E
:1002E000000000000000000000000000000000000E
:1002F00000007E0F00D4FFFFFFC70000007812034C
:1003000063006F006F006C00350033003600720030
:1003100000000A036D002E006B006900000004035A
:10032000090409025B00030100A0FA0904000001AE
:10033000030101000921110100012240000705818C
:100340000308000A0904010002030000000921114A
:100350000100012222000705820320000107050396
:10036000032000010904020001030000000921111B
:10037000010001227B000705840320000A1201000E
:100380000200000008434D3705010001020001068C
:1003900060FF0961A1010962150026FF0095207523
:1003A0000881020963150026FF0095207508910257
:1003B000C005010902A10185020901A10005091971
:1003C000012908150025019508750181020501091B
:1003D0003009311581257F95027508810609381588
:1003E00081257F950175088106050C0A3802158163
:1003F000257F950175088106C0C005010980A1010E
:10040000850319012AB700150126B700950175105B
:100410008100C0050C0901A101850419012AA0026F
:10042000150126A002950175108100C0050109067D
:10043000A101050719E029E71500250195087501B7
:1004400081029501750881010507190029FF150032
:1004500026FF0095067508810005081901290595F4
:100460000575019102950175039101C011241FBE0C
:10047000CFEFDAE0DEBFCDBF04B603FE27C0809128
:100480000A0390910B03A0910C03B0910D038730E8
:10049000904BA740B04BD1F410920A0310920B037B
:1004A00010920C0310920D0314BE84B7877F84BF93
:1004B0000FB6F894A89580916000886180936000E1
:1004C000109260000FBEE0E0F8E3099512E0A0E0B2
:1004D000B1E0EEE8FBE502C005900D92AC30B1074B
:1004E000D9F723E0ACE0B2E001C01D92AA30B20718
:1004F000E1F70E947E180C94C52D0C940000CF9358
:10050000DF9300D000D01F92CDB7DEB76B837C8322
:100510008D838C819D81892B31F05F3F31F481E0A7
:100520004F3F19F403C081E001C080E080FD02C0AC
:100530008B8102C080E090E081700F900F900F904F
:100540000F900F90DF91CF9108954091230150912A
:1005500024016091250170912601809127010E945C
:100560007F028823A1F0109225010E94422581601C
:10057000782F909327018093260140912301509179
:10058000240160912501809127010E94310640914C
:100590001E0150911F0160912001709121018091F5
:1005A00022010E947F028823A1F0109220010E9464
:1005B00042258160782F9093220180932101409100
:1005C0001E0150911F0160912001809122010E9423
:1005D00031064091190150911A0160911B017091EF
:1005E0001C0180911D010E947F028823A1F01092BE
:1005F0001B010E9442258160782F90931D018093FA
:100600001C014091190150911A0160911B018091C8
:100610001D010E9431064091140150911501609115
:10062000160170911701809118010E947F028823A2
:10063000A1F0109216010E9442258160782F9093BC
:100640001801809317014091140150911501609198
:100650001601809118010E94310640910F015091BE
:1006600010016091110170911201809113010E949B
:100670007F028823A1F0109211010E94422581601F
:10068000782F909313018093120140910F015091A4
:10069000100160911101809113010E943106409177
:1006A0000A0150910B0160910C0170910D01809134
:1006B0000E010E947F028823A1F010920C010E947B
:1006C00042258160782F90930E0180930D01409117
:1006D0000A0150910B0160910C0180910E010E9462
:1006E000310640910501509106016091070170911A
:1006F0000801809109010E947F028823A1F01092D5
:1007000007010E9442258160782F90930901809310
:100710000801409105015091060160910701809107
:1007200009010E9431064091000150910101609140
:10073000020170910301809104010E947F028823CD
:10074000A1F0109202010E9442258160782F9093BF
:1007500004018093030140910001509101016091D7
:100760000201809104010C9431060895811129C081
:1007700081E0662399F0809320010E9442258160E8
:10078000782F909322018093210140911E01509176
:100790001F01609120018091220192C08093250168
:1007A0000E9442258160782F909327018093260133
:1007B00040912301509124016091250180912701EE
:1007C0007FC0813041F5662399F0809316010E9425
:1007D00042258160782F90931801809317014091F2
:1007E000140150911501609116018091180168C0A3
:1007F00080931B010E9442258160782F90931D01F8
:1008000080931C014091190150911A0160911B01C4
:1008100080911D0155C0823049F581E0662399F031
:1008200080930C010E9442258160782F90930E01E5
:1008300080930D0140910A0150910B0160910C01D0
:1008400080910E013DC0809311010E94422581607C
:10085000782F909313018093120140910F015091D2
:10086000100160911101809113012AC0833051F56C
:1008700081E0662399F0809302010E944225816005
:10088000782F9093040180930301409100015091CF
:100890000101609102018091040112C0809307015F
:1008A0000E9442258160782F90930901809308016E
:1008B0004091050150910601609107018091090165
:1008C0000E94310681E0089581E0089581E0089555
:1008D0000C94660408950C946A041F93CF93DF93DD
:1008E00000D000D01F92CDB7DEB749835A836B8307
:1008F00030910E0289819A81311114C0662359F01A
:10090000222349F00E941D0B182F682F89819A819C
:100910000E94C40A03C00E94F00A182F69817A81DC
:10092000812F04C00E941D0B69817A810F900F9066
:100930000F900F900F90DF91CF911F910C94AB1EF1
:10094000FC01262F408151816281738184810C9446
:100950006D0481E00895CF93DF93EC0160E00E9485
:10096000A004BE01DF91CF910C946B04E1E0F0E0B4
:10097000DF0102C0AA0FBB1F6A95E2F7BD01DF01CC
:1009800002C0AA0FBB1F4A95E2F7AD01462B01C07A
:10099000EE0F2A95EAF7942F9823491302C08E2B65
:1009A0000895E0958E230895242F462F682F809177
:1009B00024020E94B6040C94810A0E94C2130E9471
:1009C00027060C94F0130C94EC1308950E94130A5C
:1009D0000E94E5042FEF84E39CE02150804090408A
:1009E000E1F700C000000C94AB250F931F93CF9349
:1009F000DF938C0161E00E94A004EC01B8010E9429
:100A0000FB1C882309F444C0B801CE010E9468048D
:100A10008823F1F1B801CE010E94F81F8823C1F1AB
:100A2000B801CE010E944A20882391F1B801CE017D
:100A30000E947C21882361F1F8018281882309F1D9
:100A4000CA358DE5D807C1F050F4C115FCE5DF07C4
:100A500081F0CE3DDC45A9F40E94A21019C0CB352F
:100A6000EDE5DE0761F0CC35DD4559F40E94270F36
:100A700008C00E94E6040CC00E94300F02C00E9411
:100A8000330FC801DF91CF911F910F910C94640433
:100A900080E0DF91CF911F910F910895DF92EF9247
:100AA000FF920F931F93CF93DF93E82FF0E0E25B69
:100AB000FD4FD490282F26952695269530E0F901F4
:100AC000E251FD4F0491877010E0082E02C0159589
:100AD00007950A94E2F701701127F901E252FD4FE0
:100AE000E490F12C082E02C0F594E7940A94E2F702
:100AF00091E0E922FF24F901E253FD4FC491D0E0D7
:100B000002C0D595C7958A95E2F7C170DD2701151A
:100B1000110519F081EE0E948106E114F10419F02B
:100B200086EE0E9481068D2D0E94AA07EF2819F0FB
:100B300086EE0E942B07012B19F081EE0E942B07F5
:100B4000CD2B51F08CE2DF91CF911F910F91FF904F
:100B5000EF90DF900C94AA07DF91CF911F910F9136
:100B6000FF90EF90DF900895EF92FF920F931F9305
:100B7000CF93DF93EC01162F0AE08881882309F4D4
:100B800055C0813009F043C08981813041F47E0134
:100B900082E0E80EF11C8A810E94AA0709C0823017
:100BA00049F47E01E2E0EE0EF11C8A810E9481068A
:100BB000E7012FC0833041F47E01F2E0EF0EF11C1B
:100BC0008A810E942B07F4CF843011F0219621C036
:100BD0002A81229680E090E030E0205331092A30CB
:100BE000310558F4089FA001099F500D1124C90137
:100BF000840F951F21962881EFCF009751F0EFE9E0
:100C0000FFE03197F1F700C000000197F6CF0E9496
:100C10004E052196812F882309F4AFCFEFE9FFE03D
:100C20003197F1F700C000008150F5CFDF91CF91EF
:100C30001F910F91FF90EF90089560E00C94B40520
:100C400008950C94200681E008950C9423060895DD
:100C5000CF93C82F0E9421068C2F0E942506CF918A
:100C60000895CF93DF93CDB7DEB72B970FB6F894E7
:100C7000DEBF0FBECDBF4F83588769877A878B87CA
:100C800061110E94560F9E012F5F3F4F86E0F901D0
:100C900011928A95E9F785E0FE013796D901019016
:100CA0000D928A95E1F789819A814C815D81452B6E
:100CB00031F09F3F31F491E08F3F19F403C091E090
:100CC00001C090E090FF09C049815A816B817C810D
:100CD0008D819E810E94560E05C0C9010E94A90403
:100CE0008111F2CF2B960FB6F894DEBF0FBECDBFA9
:100CF000DF91CF910895FC01808191810E944A0B80
:100D00000895CF93882309F4A4C0C82F8238C1F472
:100D10000E94D42381FD9DC069E3809128019091B8
:100D200029010E946E240E94880F2FEF81EE94E02B
:100D3000215080409040E1F700C0000069E319C0F5
:100D4000833801F50E94D42380FD83C063E5809140
:100D50002801909129010E946E240E94880F2FEF94
:100D600081EE94E0215080409040E1F700C0000007
:100D700063E580912801909129010E947024CF9110
:100D80000C94880F8438C1F40E94D42382FD61C082
:100D900067E480912801909129010E946E240E94AD
:100DA000880F2FEF81EE94E0215080409040E1F7D2
:100DB00000C0000067E4DDCF8CEF8C0F813AD0F4E7
:100DC0006C2F80912801909129010E94382488235A
:100DD00049F06C2F80912801909129010E94702484
:100DE0000E94880F6C2F80912801909129010E9408
:100DF0006E24C5CF80E28C0F883048F4C77081E044
:100E000001C0880FCA95EAF70E94390FB8CFEBE509
:100E1000EC0FE33040F4F0E0EA54FE4F808190E0C4
:100E2000CF910C940024E8E5EC0FE73150F4F0E0AA
:100E3000EE0FFF1FE857FE4F80819181CF910C94F8
:100E40001624C03F30F08C2F0E940B19CF910C94C8
:100E5000DD19CF910895882309F464C0823879F4AC
:100E60000E94D42381FF5EC069E3809128019091A4
:100E700029010E946E240E94880F69E310C0833804
:100E8000B1F40E94D42380FF4DC063E58091280116
:100E9000909129010E946E240E94880F63E5809141
:100EA0002801909129010E9470240C94880F8438A5
:100EB00079F40E94D42382FF35C067E48091280131
:100EC000909129010E946E240E94880F67E4E7CF69
:100ED0009CEF980F913A10F4682FE1CF90E2980FB1
:100EE000983050F4877091E001C0990F8A95EAF725
:100EF000892F0E943F0FD9CF9BE5980F933020F4A4
:100F000080E090E00C94002498E5980F973120F44D
:100F100080E090E00C941624803F20F00E94661937
:100F20000C94DD1908951F93CF93DF93182FEB01D5
:100F30000E948106209741F08FE99FE00197F1F729
:100F400000C000002197F6CF812FDF91CF911F9134
:100F50000C942B07893319F060E070E002C060E563
:100F600070E00C949307882321F00E94390F0C94B1
:100F7000880F0895882321F00E943F0F0C94880F5A
:100F80000895CF92DF92EF92FF920F931F93CF932A
:100F9000DF937C01062FC72FFC01D28115811295AA
:100FA0001F700E940E0F882399F0DD2389F08C2F8B
:100FB000807F803421F080E2800F883048F082E02A
:100FC0000E94D80F0E940E0F91E0D82ED92601C0A2
:100FD000D12CCC2EC2948FE0C8228C2D90E0FC0145
:100FE000EA5AFF4F0C944C2D8C2F807FCF708823B2
:100FF00011F0C295C07FDD2399F0CC2309F460C1C4
:1010000080E2800F883010F0011104C08C2F0E9404
:10101000390F03C08C2F0E94490F0E94880F50C1C6
:10102000802F0E942B07CC2309F46FC180E2800F30
:10103000883010F0011104C08C2F0E943F0F03C0B4
:101040008C2F0E944F0F0E94880F5FC18C2F807FD2
:10105000CF70803211F0C295C07F002319F00130AB
:10106000C9F022C0DD2371F0112341F0113031F4B9
:101070000E94690F8C2B0E94710F47C10E94690F5B
:101080008C2B1DC0112319F0113009F43EC10E94B0
:101090007E0F25C0DD2321F0163008F036C10EC0CA
:1010A000153008F032C11BC0DD2361F0112331F08F
:1010B000F701858180FF04C18F7085838C2F0E948A
:1010C000B30723C1112359F0093309F00AC1FFEF17
:1010D00027EE83E0F15020408040E1F700C18C2FE3
:1010E0000E94BA0712C18C2F86958695837019F0DD
:1010F000813061F00AC1DD2321F0802F9C2F937095
:1011000002C080E090E00E94002407C1DD2321F0AE
:10111000802F9C2F937002C080E090E00E941624E4
:10112000FCC0802FDD2319F00E940B1902C00E9421
:1011300066190E94DD19F1C08C2F837079F5D111E9
:10114000E8C0402F429546954770440F440F202F2A
:101150002F70042E01C0220F0A94EAF704FF08C082
:101160008FE090E001C0880F4A95EAF7809501C0B2
:1011700080E0C695C695C370822BC23049F058F402
:10118000C13019F00E94750AC4C00E94700AC1C023
:101190000E947A0ABEC00E946E0ABBC0DD2319F00D
:1011A0008C2F817001C08695882309F4B2C0402F2E
:1011B000429546954770440F440F202F2F70042E00
:1011C00001C0220F0A94EAF704FF08C08FE090E004
:1011D00001C0880F4A95EAF7809501C080E0C69566
:1011E000C695C370822BC23049F058F4C13019F053
:1011F0000E94B90A8EC00E94B40A8BC00E94BE0A27
:1012000088C00E94810A85C0CF70DD2339F08C2F01
:101210000E94920A802F0E94B3077BC0802F0E94F9
:10122000BA078C2F0E949D0A74C0023F01F128F476
:10123000003F41F0013FA1F03FC0033FF9F0043F00
:1012400039F13AC0DD2341F0153008F05EC08C2F33
:101250008F710E94A90A59C0163008F056C0F7CF06
:10126000DD2339F08C2F8F710E94920A4EC0DD234E
:10127000C9F38C2F8F710E949D0A47C0DD2329F08E
:101280008C2F8F710E948A0A40C00E94870A3DC03D
:10129000DD2349F0CF718C2F0E94920A63E08C2FDE
:1012A0000E94BD0F32C081E00E94D80F123068F159
:1012B00082E00E94D80F29C0DD2331F0112391F282
:1012C000802F0E94810621C0112399F2093349F42D
:1012D0009FEFE7EEF3E09150E040F040E1F700C00F
:1012E0000000802F0E942B0710C04C2F4F70602FE2
:1012F000C7010E94A4110E94780B0FC04C2F4F70A1
:10130000602FC7010E94A71108C088EF8C0D8430A0
:1013100020F40E94D4230E942806DD20C9F00E94F8
:101320000A0F80FD15C0F70112820E94040F0E946F
:10133000920AC7010E94C9090E94040FDF91CF9150
:101340001F910F91FF90EF90DF90CF900C949D0A2A
:10135000DF91CF911F910F91FF90EF90DF90CF9091
:1013600008950F931F93CF93DF93EC0168817981E8
:101370008A810E94550B8C010E94C30A0E94620A56
:10138000B801CE010E94C107DF91CF911F910F914B
:101390000895CF93DF93EC01988189812B813C8163
:1013A000232B31F08F3F31F481E09F3F19F403C0CC
:1013B00081E001C080E080FD19C0CE010E94F504EB
:1013C00081110CC00E940E0F882381F08A8188232E
:1013D00069F082E0DF91CF910C94D80FCE010E948A
:1013E000B109CE01DF91CF910C94AB04DF91CF9185
:1013F000089580E090E00E94002480E090E00E9448
:1014000016240E94560F0E94660F0E94880F0E94A9
:101410000E1B0C94DD1980912801909129010E94E6
:1014200072240C94F9090E94460F0C940B0AE92FC0
:10143000E295EF704E2F50E0FA013297EE30F10551
:10144000B0F4EA59FF4F0C944C2D803F91F018F402
:10145000883E68F40EC0843F51F40BC0883E48F0CB
:10146000813F29F406C093FB882780F9089580E026
:10147000089581E00895FC01808191810E944A0BCA
:101480000E94170A0895CF93DF9300D000D01F92D7
:10149000CDB7DEB70F900F900F900F900F90DF91A8
:1014A000CF910895CF93DF9300D000D000D0CDB777
:1014B000DEB726960FB6F894DEBF0FBECDBFDF9124
:1014C000CF910895089508950C94630A0C94640ACA
:1014D0000E94660A809325020C94F9090C94680A0C
:1014E00090912502892B0C94680A909125028923FA
:1014F0000C94680A9091250289270C94680A0C9430
:10150000630A0E947F0A809324020C94F90980E008
:101510000C94810A91E001C0990F8A95EAF7892F0E
:101520000C94810A21E030E001C0220F8A95EAF78D
:1015300080912402822B0C94810A21E030E001C0CA
:10154000220F8A95EAF720958091240282230C9439
:10155000810A21E030E001C0220F8A95EAF78091EC
:10156000240282270C94810A90912402892B0C94E6
:10157000810A9091240289230C94810A909124027B
:1015800089270C94810A089524E0929F900D1124DC
:10159000890FE82FE695E695E695877051E001C042
:1015A000550F8A95EAF783E0E89FF0011124E15F87
:1015B000FD4F20E030E070E04081CB01022E02C000
:1015C000969587950A94E2F7817081958427852303
:1015D000842781932F5F3F4F2330310569F70895AA
:1015E00024E0929F900D1124890F682F66956695CF
:1015F0006695982F977083E0689FB001112440E0B2
:1016000050E080E0FB01E40FF51FE15FFD4F20811A
:1016100030E0092E02C0369527950A94E2F7217032
:101620003327042E01C0220F0A94EAF7822B4F5F62
:101630005F4F4330510531F70895CF92DF92FF920B
:101640000F931F93CF93DF936C010091240280913D
:101650002502082BC7E0D0E010E0C8010C2E02C024
:10166000959587950A94E2F780FD04C02197A8F725
:10167000F12C07C0FC2EB6018C2F0E94CC120197D2
:10168000A9F38F2DDF91CF911F910F91FF90DF90E4
:10169000CF900895CF93DF93EC010E941D0BBE0104
:1016A0000E94CC12DF91CF9108951F93CF93DF93C7
:1016B000EB0190910E02992321F0CB010E944A0B7D
:1016C00013C0882349F0CB010E941D0B182F682FEF
:1016D000CE010E94C40A04C0CB010E94F00A182F58
:1016E000BE01812F0E94CC12DF91CF911F910895EE
:1016F000EF92FF920F931F93CF93DF938C01892B6F
:1017000009F46CC0F12CEE24E394E8012196F80171
:101710008491843740F4843008F051C0813081F0E6
:10172000823019F15BC0853709F444C0A8F19CE709
:10173000980F903708F052C08F770E942B0741C056
:101740000E5F1F4FFE01849190E2980F983050F485
:101750008770FE2D01C0FF0F8A95EAF78F2F0E9438
:10176000590F14C00E9481062DC00E5F1F4FFE014D
:10177000849190E2980F983060F48770FE2D01C03C
:10178000FF0F8A95EAF78F2F0E945F0F0E94880F44
:1017900019C00E942B0716C00E5F1F4FFE01C49197
:1017A000CC2381F08FE99FE00197F1F700C00000A2
:1017B000C150F6CF0E5F1F4FFE01F49003C00E9490
:1017C00081068E018F2D882309F49FCFEFE9FFE07A
:1017D0003197F1F700C000008150F5CFDF91CF9134
:1017E0001F910F91FF90EF9008951F93CF93DF9378
:1017F000C091260216E080912702C81799F0D0E028
:101800001C9FF0011D9FF00D1124E85DFD4F4081EC
:10181000518162817381848195810E94520A21964F
:10182000C770E9CFDF91CF911F9108954091580281
:101830005091590260915A0270915B0280915C0252
:1018400090915D020C94520A0F931F93CF93DF93F4
:1018500080915D0282958F7009F05DC080915A027F
:10186000882309F458C080912602109127026091C4
:10187000580270915902C0915B02D0915C0291E0D4
:101880006F3F09F090E0292F06E0811709F443C06B
:10189000209721F07F3F21F030E003C031E001C00C
:1018A000322F90E030FD34C0089FF001099FF00D09
:1018B0001124DF01A85DBD4F11963C91119737139C
:1018C00027C03C91361324C012963C9112973111D7
:1018D0001FC013964D915C9114974C1B5D0B483CB7
:1018E0005105B0F480915D028F70806180935D023C
:1018F000E35DFD4F80818F708061808388E592E099
:101900000E94C909DF91CF911F910F910C94F50BA3
:1019100001968770BACFDF91CF911F910F910895F3
:101920009F92AF92BF92CF92DF92EF92FF920F936E
:101930001F93CF93DF93CDB7DEB761970FB6F894BF
:10194000DEBF0FBECDBF8C0185E0F801DE011D9624
:1019500001900D928A95E1F7F801E280909158028A
:101960006091590220915B0230915C022115310592
:1019700031F06F3F31F481E09F3F19F403C081E003
:1019800001C080E0F82FF1709F2E80FD3FC1F8016B
:1019900040815181A380B48088E5C82E82E0D82E92
:1019A000F0905A02F501E21BF30BFF2009F4D9C0B5
:1019B00080915D02E83CF10508F095C0282F207F5A
:1019C00009F052C0561313C0491311C0FE2CE11088
:1019D0000EC08F70806180935D020E94160CC6015C
:1019E0000E94C90980915D02F80185834CC1AB2832
:1019F00031F05F3F31F481E04F3F19F403C081E0E3
:101A000001C080E080FD03C081E08E2502C080E03F
:101A100090E0F82FF170FF2E80FF1CC0809126020D
:101A20002091270236E0821709F40BC190E0389F1D
:101A3000F001399FF00D1124E85DFD4F61815613CF
:101A400006C06081461303C06281E61203C001969E
:101A50008770E9CFFE2CEE2009F415C180915D025C
:101A6000816080935D0254C0561306C0491304C0C0
:101A7000E11002C0F80199C0C8010E943B0A882306
:101A800061F1EE2051F120915D02822F82958F70DD
:101A900090E0029774F080915802909159029887D3
:101AA0008F831986BB86AA862C87CE0107960E9453
:101AB000C90986E0F801A8E5B2E001900D928A9587
:101AC000E1F70E94240C0E94160C0AC0561711F16F
:101AD000C8010E943B0A81112CC0C8010E94C9099B
:101AE000FF24F394D0C0282F207F81F77A2DB98A64
:101AF000A88A6E2D89890E94430A88E592E00E9497
:101B0000C90986E0F60111928A95E9F70E94160C40
:101B1000F12CB9C04913DCCFE110DACFF80185838D
:101B2000C8010E94C90986E0F60111928A95E9F779
:101B3000AAC0EE2091F220915D02822F82958F70D3
:101B400090E002970CF4B5CF809158029091590221
:101B50009A8389831B82BD82AC822E83CE0101963B
:101B6000A6CFE83CF10508F044C0FE2CEE2009F4B5
:101B7000B4CF561330C049132EC020915D0220FD12
:101B800021C0822F82958F70482F50E0411551055A
:101B9000C9F0F80125834F30510541F08F5F982F30
:101BA0009295907F822F8F70892B8583C8010E9428
:101BB000C90986E0F801A8E5B2E001900D928A9586
:101BC000E1F73CC086E0F801A8E5B2E001900D9293
:101BD0008A95E1F758C0C8010E943B0A811169CF7C
:101BE00080915D02816080935D02C8010E94C909F5
:101BF0004AC07A2DB98AA88A6E2D89890E94430A23
:101C000086E0F60111928A95E9F718C0EE2009F4F2
:101C100064CFC8010E943B0AF82E882309F45DCFE7
:101C200086E0F801A8E5B2E001900D928A95E1F70F
:101C300088E592E00E947B060E94240C0E94160C0C
:101C400022C04D875E878D859E850E944A0B292F75
:101C500022952F70223028F49F7039F0811105C031
:101C60000BC0243028F49F7049F4805E883020F047
:101C7000C8010E94C9099F2CF92C05C0F801958163
:101C8000907F99F7F9CF8F2D61960FB6F894DEBF4C
:101C90000FBECDBFDF91CF911F910F91FF90EF90BD
:101CA000DF90CF90BF90AF909F9008951F93CF93F8
:101CB000DF93CDB7DEB72C970FB6F894DEBF0FBE1B
:101CC000CDBF4F83588769877A878B879C87CE01E2
:101CD00007960E94900C8823D1F09F8188852A85E1
:101CE0003B85232B31F08F3F31F481E09F3F19F486
:101CF00003C081E001C080E080FD47C04F8158856E
:101D000069857A858B859C850E94520A3EC086E053
:101D1000FE013796DE01119601900D928A95E1F74A
:101D2000FF81E8856A857B856115710531F0EF3F9C
:101D300031F481E0FF3F19F403C081E001C080E08D
:101D400080FD23C02091270230E0C90101968770F1
:101D500099274091260250E084179507F1F1F98305
:101D6000EA837D836C8396E0929FD001939FB00DB0
:101D70001124A85DBD4FFE01319601900D929A95F8
:101D8000E1F7809327020E94F50B16E0809126026E
:101D900090912702891771F1189FC0011124885D65
:101DA0009D4F0E94900C882329F1E09126021E9FEE
:101DB000F0011124E85DFD4F408151816281738102
:101DC000848195810E94520A8091260290E00196BA
:101DD0008770992780932602D9CF0E94130A109208
:101DE000270210922602E8E5F2E086E0DF011D926C
:101DF0008A95E9F72C960FB6F894DEBF0FBECDBFDB
:101E0000DF91CF911F91089580915E028595859510
:101E10008595089580915E028770089590915E0285
:101E2000977081E009F480E008959091DD0292FBC3
:101E3000222720F9281751F080FB92F99093DD02B8
:101E40008091DC029091DD020C941F100895809126
:101E5000DD0282FB882780F991E089270C94150F19
:101E600081E00C94150F80E00C94150F80916A02AC
:101E7000089590916A02892B80936A020895809553
:101E800090916A02892380936A02089510926A02EF
:101E9000089590916902892B809369020895809535
:101EA00090916902892380936902089510926902D2
:101EB000089590916802892B809368020895809517
:101EC00090916802892380936802089510926802B5
:101ED000089580915F02089508950C946C0F0C94FE
:101EE0006D0F9091DD0292FD08C090915F029817EE
:101EF00021F080935F020C946F0F089580915F0230
:101F0000882329F010925F0280E00C946F0F0895EF
:101F1000E0912801F091290180916A028083E0918B
:101F20002801F0912901908180916902892B808399
:101F3000E0912801F0912901908180916802892B1C
:101F4000808380915F02882381F0E0912801F091E5
:101F500029019081892B808380912801909129010A
:101F60000E942C2481110E947E0F80912801909163
:101F700029010C94E7230C946C0F9091DD0292FDE3
:101F800010C098E0899F90011124262B20935E02B7
:101F90000E94920A80915E028595859585950C94A4
:101FA000BB0F0C94920A10925E0280E00C94BB0F5F
:101FB00020915E028095822380935E02982F977015
:101FC00041F430E0482F082E000C550B241735073C
:101FD00021F49091DD0292FF07C085958595859546
:101FE0000E949D0A0C94D30F08956FEF7FEF80E05D
:101FF00090E00C94AF2D80E090E00E948B2D893E04
:102000009E4F11F40C949E1C80E0089582E090E0B5
:102010000C94832D83E090E00C94832DCF9384E087
:1020200090E00E94832DC82F82E290E00E94832DD1
:102030002C2F30E0A901582BCA01CF910895CF93DE
:10204000C92F682F84E090E00E94912D6C2F82E2CE
:1020500090E0CF910C94912DAB01BC018FE090E00A
:102060000C94A32DAB01BC0183E190E00C94A32D53
:1020700060E070E0CB010C94321060E070E0CB01C6
:102080000E942C100C94381069EE7EEF80E090E0F6
:102090000E94AF2D60E082E090E00E94912D60E010
:1020A00083E090E00E94912D1092250260E084E090
:1020B00090E00E94912D60E082E290E00E94912DDC
:1020C00060E085E090E00E94912D60E086E090E085
:1020D0000E94912D6FEF87E090E00E94912D40E0EB
:1020E00050E0BA0188E090E00E94A32D60E08DE00E
:1020F00090E00E94912D40E050E0BA0188E190E02C
:102100000E94A32D60E087E190E00E94912D40E0C5
:1021100050E0BA018CE190E00E94A32D60E070E0F5
:1021200080E290E00E94AF2D40E050E0BA0188E1EB
:1021300090E00E94A32D80E00E94B71C0E94E31C47
:102140000C943D100C944410682F8EE090E00C9499
:10215000912D0E944E2560937E0270937F028093A2
:1021600080029093810260937A0270937B02809345
:102170007C0290937D0208950E944E2560937E021A
:1021800070937F0280938002909381026093760225
:10219000709377028093780290937902089585B7BF
:1021A000806885BF85B7806885BF08950C94E81561
:1021B00008950C94D8100C94D8100C94DB100C9447
:1021C000D8100C94DF100C94D8100E94CF1088EA1D
:1021D00093E10E94BC250E94E3100C94E1100E9440
:1021E000D9100C94D8100E9439250E9479240E949D
:1021F000F21C0E94A0140E946D1F0E941E1B0C94D2
:10220000DD109F92AF92BF92CF92DF92EF92FF923A
:102210000F931F93CF93DF93CDB7DEB72A970FB6F7
:10222000F894DEBF0FBECDBF0E945D1581110E94E4
:10223000A9108CE6A82E82E0B82E00E010E0902EC7
:10224000802F0E94DC13D82EF501C1905F01C826B3
:10225000B1F40F5F1F4F0A30110589F78FEF8983A3
:102260008A831B820E9442258160782F9D838C8304
:1022700049815A816B818D810E9431062FC08091E6
:10228000820281FD0E94E213E12CFF24F3948C2D45
:102290008F21F1F00E94D610882399F0EE829F8260
:1022A000DF2081E009F480E088870E944225816078
:1022B000782F9A8789874E815F8168858A850E94F9
:1022C0003106F801E459FD4F8081F826F08206C0FE
:1022D000E394FF0CF5E0EF12DACFBBCF0E949F1B17
:1022E00081110E94BC100E94FB190E94D42390917E
:1022F0006B028917B9F00E94D42380936B022A964F
:102300000FB6F894DEBF0FBECDBFDF91CF911F9106
:102310000F91FF90EF90DF90CF90BF90AF909F9084
:102320000C9428062A960FB6F894DEBF0FBECDBFD8
:10233000DF91CF911F910F91FF90EF90DF90CF90A1
:10234000BF90AF909F90089580E090E00895089529
:10235000880F991FFC01E250FD4F859194910895DB
:10236000CF93DF930E94D112EC01811520E59207F3
:1023700008F03FC0811540E4940708F0D2C0883EC1
:10238000910500F5803E910508F002C1883A91055B
:1023900070F4853A910508F0A6C08130910509F4E2
:1023A0009FC008F4F2C0049708F0F2C0EEC08F3B63
:1023B000910508F4A1C0803C910508F4E6C0805C5A
:1023C0009109A5C0811550E2950760F4C11581E01F
:1023D000D80708F0DDC0C03FD10508F4D6C0CE0153
:1023E0009065D7C0811520E3920708F093C09F70D5
:1023F0008EC0811545E5940708F046C0811554E567
:10240000950708F0A6C0C11582E5D80718F5C115D3
:1024100021E5D20708F088C0CE01F4E096958795B3
:10242000FA95E1F7282F23703C2F337081E090E07C
:1024300002C0880F991F3A95E2F79C68922B2C2FC7
:102440002F702695269540E2249F90011124822B1F
:10245000932B9FC09E01237033279C2F96959695B2
:10246000C115D34508F065C041E050E002C0440FFB
:10247000551F2A95E2F780E2989F90011124CA0126
:10248000822B932B9C6885C0811559E5950798F49C
:10249000C11588E5D80708F061C0C11526E5D20747
:1024A00008F073C08C2F0E9465138F7190E0982FF5
:1024B000882790626EC081154AE5940708F453C0DE
:1024C00090568115904208F060C08D2F8F710E9448
:1024D00065139E01332730628F71A901582B53C0B9
:1024E00081E090E056C0855AC82FD0E0C951DE4F38
:1024F000888190E090644DC0885AC82FD0E0CC0FFE
:10250000DD1FC754DE4F88819981946442C00E94C8
:10251000A8113FC09927D3FF02C0986C3AC0906CB5
:1025200038C09F70906A35C09C2F8827816F906A51
:1025300030C041E050E002C0440F551F2A95E2F739
:1025400080E2989F90011124CA01822B932B9A68F4
:1025500020C0982F8827846F906A1BC09C2F8827E3
:10256000806F906A16C08F700E9465139E0194E080
:10257000369527959A95E1F72F7030E0322F222774
:102580003069A901482BCA0104C080E090E001C075
:10259000CE01DF91CF9108950E94AB1E0E94B01131
:1025A00008958238910569F1B0F48133910509F4F9
:1025B0006DC048F48932910509F463C08A329105EF
:1025C00009F469C008958533910509F455C089332C
:1025D0009105B9F00895833E910569F138F4803E84
:1025E0009105B1F0823E910509F10895863E91056D
:1025F000A9F1873E9105B9F1843E910509F064C0C7
:1026000023C02091DC0220FD4FC021FD4DC0089564
:102610008091DC0280FD44C08091DD0280FF44C0D7
:102620008091DC0284FD42C083EE4DC08091DC02CB
:1026300082FF38C0F5CF8091DC0282FD33C08091EB
:10264000DD0280FD31C0ECCF8091DD0281FF32C020
:102650008091DC0284FD2AC087EE35C08091DC02C7
:1026600083FF26C0F5CF8091DC0283FD21C08091DD
:10267000DD0281FD1FC0ECCF8091DC0285FD1CC016
:102680001DC08091DC0285FD19C016C08091DC025E
:1026900086FD16C017C08091DC0286FD13C010C0F5
:1026A00089E311C082EE0FC080EE0DC080E00BC048
:1026B00086EE09C084EE07C089E205C085E303C049
:1026C0008AE201C081E390E008959091DC0292FFDC
:1026D0000DC0282F2871283019F4877F846006C028
:1026E000282F2471243011F48B7F886093FF0DC054
:1026F000282F2871283119F4877E846106C0282F7D
:102700002471243111F48B7E88612091DD0220FF39
:102710000DC0382F3871383019F4877F816006C0BA
:10272000382F3171313011F48E7F886021FF0DC058
:10273000282F2871283119F4877E816106C0282F3F
:102740002171213111F48E7E886194FD877E089578
:1027500080E008950C94F50F0E945D158FE39CE9CD
:102760000197F1F700C000000E945D1580E00E9413
:10277000DC1380FF04C00E94AA130C94AB250895BB
:102780000C94AC130E94FB0F811102C00E94A21096
:102790000E940610809382020E940E109093DD0228
:1027A0008093DC020E94C0130E940A100E946E0AED
:1027B000809124020C947F0AE82FF0E0E851FD4F4D
:1027C00080810895089580EA8A95F1F7089500C000
:1027D00008950C94E31308950C94A5020C94EB1344
:1027E0000C94EE13F894E82FE295EF70F0E031A12D
:1027F000282F2F7081E090E001C0880F2A95EAF71A
:10280000982F9095932391A392A1892B82A37894DA
:10281000089508950C9409140F931F93CF93DF9399
:10282000CAE2D1E089918F3F11F00E94F21381E05A
:10283000CF32D807B9F7CFE2D1E004E311E08991B4
:102840008F3F11F00E94F2130C171D07C1F7DF91A3
:10285000CF911F910F910895DF92EF92FF920F9306
:102860001F93CF93DF93062F10E0065D1E4FE80104
:1028700028812F3F09F45CC0F62EE92ED82EF8945B
:10288000E22FE295EF70F0E081A12F70C1E0D0E07F
:10289000AE0102C0440F551F2A95E2F79A01842B1E
:1028A00081A382A12095282322A378940E94E71374
:1028B0000F2C01C0CC0F0A94EAF73C2F6C2F6095C7
:1028C000AFE2B1E0ED2DFE2DAF014B5F5F4FE12C8C
:1028D0002D912F3FA9F0822F82958F7090E0EC010F
:1028E00088A190E02F7002C0959587952A95E2F710
:1028F00080FD06C08081832B8083EE24E39403C097
:102900008081862380833196E417F50709F7F80163
:1029100080818F3F11F00E94F2136E2D8F2DDF9179
:10292000CF911F910F91FF90EF90DF900C94E913DE
:10293000DF91CF911F910F91FF90EF90DF9008955D
:10294000CF93DF93CDB7DEB72F970FB6F894DEBFE6
:102950000FBECDBF0E9402168091390181112FC098
:10296000FE0131962AE0DF011D922A95E9F725E361
:10297000298324E32A8321E32B8327EF2C83CF01B0
:10298000EFE2F1E09E01255F3F4FDC014D91CD016B
:102990004193A217B307C9F725E0E3E8F1E0DE01B0
:1029A0001B9601900D922A95E1F7FC01AAE2B1E095
:1029B000CE01409621912D93E817F907D9F7809120
:1029C0003901811102C095E001C090E09093F302BB
:1029D00085E0891B8093F2020E940C14EEEDF2E078
:1029E000A8EEB2E011921D9282E0E83EF807D1F71E
:1029F00085E00E94B1150E94DD042F960FB6F89471
:102A0000DEBF0FBECDBFDF91CF910C940C160F939C
:102A10001F93CF93DF9300D000D01F92CDB7DEB7C6
:102A20000E94E8156091F302882379F18E010F5F0F
:102A30001F4F85E0F80111928A95E9F7862F90E003
:102A4000B80188519D4F0E941A16E091F2029E0132
:102A50002A5F3F4FF0E0E851FD4FD801882361F035
:102A600010E08D919081981711F0808311E03196DC
:102A7000A217B307B1F706C011921D92A217B307B0
:102A8000D9F711E00E94E3040DC070E068517D4F5A
:102A90008091F20290E088519D4F0E94AA160E94F8
:102AA0000A1410E0812F0F900F900F900F900F904D
:102AB000DF91CF911F910F910895EF92FF920F93A5
:102AC0001F93CF93DF93CDB7DEB72A970FB6F89455
:102AD000DEBF0FBECDBF8E010F5F1F4F8AE0F80132
:102AE00011928A95E9F7F12C6F2DC8010E942C14E0
:102AF000F394F5E0FF12F8CF4AE050E0B8018EED14
:102B000092E00E946D2D7C0121E0892B09F420E0E8
:102B1000E114F10441F08AE0F801AEEDB2E0019079
:102B20000D928A95E1F76091F30270E068517D4F54
:102B300045E08EED92E00E94B215EF2819F40E9454
:102B4000071502C081E090E02A960FB6F894DEBF28
:102B50000FBECDBFDF91CF911F910F91FF90EF90EE
:102B600008950895FF920F931F93CF93DF938C01E5
:102B7000F62ED72FC42F222349F081E080938502BF
:102B80000E94422590938402809383028091850263
:102B90008823C1F080918302909184020E945A257B
:102BA000059780F0EF2DFD2FD8014C2F50E0CD017F
:102BB000801B910B841795071CF48D918193F7CF9F
:102BC00010928502DF91CF911F910F91FF90089590
:102BD0008091880281110DC00E942B2D811102C0AD
:102BE00082E001C081E080938802823011F40E946B
:102BF000262D81E090918802913009F080E00895BF
:102C00000C94E8150E940016809339010E94E81583
:102C100081110C94521608950E94E815811102C08A
:102C20000C945416089581E0909189029A3008F02E
:102C300080E008950F931F93CF93DF93EC018B01F6
:102C4000809189028A3038F4B801CE010E94A8161A
:102C500081111DC00AC080918602909187020E9456
:102C60005A25843F914080F715C0809189028F3F9B
:102C700019F08F5F80938902809189028A3060F019
:102C80000E944225909387028093860203C010928F
:102C9000890202C080E001C081E0DF91CF911F91E5
:102CA0000F9108950C940A220C940D22EF92FF923A
:102CB0000F931F93CF93DF937901C82F880FDD0BFC
:102CC00041155105A9F08AE08C9FF0018D9FF00D10
:102CD0001124E65CFE4F8381948186579D4F2281AB
:102CE00030E04217530708F49A01A9010E947A2D97
:102CF000CE010E941723892B09F50115110501F159
:102D00008AE08C9FF0018D9FF00D1124E65CFE4F50
:102D1000458150E00417150708F4A8018AE08C9F4C
:102D2000F0018D9FF00D1124E65CFE4F66817781E6
:102D300066577D4FC7010E947A2D02C080E001C016
:102D400081E0DF91CF911F910F91FF90EF90089557
:102D50000C9407180C942B180F931F93CF93DF93A9
:102D600000D000D0CDB7DEB76091A8027091A90263
:102D70008091AA029091AB020E9469256436710588
:102D80008105910528F10E949F24DC01CB01029668
:102D9000A11DB11D89839A83AB83BC8300E010E041
:102DA00020E030E044E050E0BE016F5F7F4F84E000
:102DB0000E945616182F882361F00E944E256093BA
:102DC000A8027093A9028093AA029093AB0201C05B
:102DD00011E0812F0F900F900F900F90DF91CF9106
:102DE0001F910F9108957F928F929F92AF92BF9201
:102DF000CF92DF92EF92FF920F931F93CF93DF93C7
:102E00001F92CDB7DEB7762E4A015901680101E065
:102E100010E09E012F5F3F4F40E050E060E070E027
:102E20000E945616182F882379F1F4016081718170
:102E3000828193810E94692564367105810591051F
:102E4000E0F08701950140E050E060E070E0872D00
:102E50000E945616182FB701C6010E946E1F91E0FE
:102E60002981281390E01923A1F00E944E25F40136
:102E700060837183828393830CC0B701C6010E9473
:102E80006E1F99818913DDCFA701B601C5010E948C
:102E90007A2D812F0F90DF91CF911F910F91FF908D
:102EA000EF90DF90CF90BF90AF909F908F907F90EA
:102EB0000895EF92FF920F931F93CF93DF9300D06B
:102EC000CDB7DEB70091EA011091EB01095F1F4F0A
:102ED00082E0E82EF12C9E012F5F3F4F44EA52E042
:102EE00063E082E00E94F316182F882321F0CE01C0
:102EF00001960E944E1C812F0F900F90DF91CF9171
:102F00001F910F91FF90EF900895CF92DF92EF9273
:102F1000FF920F931F93CF93DF9300D000D01F92A7
:102F2000CDB7DEB76B010091EA011091EB010F5FA5
:102F30001F4F85E0E82EF12C9E012F5F3F4F40EAA6
:102F400052E061E080E00E94F316882349F095E0AA
:102F5000FE013196ABE9B2E001900D929A95E1F74E
:102F600095E0EBE9F2E0D60101900D929A95E1F738
:102F70000F900F900F900F900F90DF91CF911F91B6
:102F80000F91FF90EF90DF90CF900895AF92BF9296
:102F9000CF92DF92EF92FF920F931F93CF93DF9325
:102FA0007C015B016A010E941316811103C001E0DC
:102FB00010E002C00AE010E0C1E0D0E0F894B501F2
:102FC000C701F60109957894811115C021960C1757
:102FD0001D0794F0CC9F9001CD9F300D300D112432
:102FE00080E090E045E34A95F1F7000001968217F2
:102FF0009307C1F7E3CF81E0DF91CF911F910F914C
:10300000FF90EF90DF90CF90BF90AF9008950F9317
:103010001F93CF93DF93EC018B0145E857E10E94AA
:10302000C617882391F049E557E1B801CE010E9407
:10303000C617882351F04CEA56E1B801CE01DF9162
:10304000CF911F910F910C94C61780E0DF91CF9123
:103050001F910F9108950F931F93CF93DF9300D08B
:10306000CDB7DEB7F8940091EA011091EB01C801E9
:10307000019625E0FB01DC0101900D922A95E1F714
:1030800065E070E00E946E1FF80180837894F894E8
:10309000CE0101960E94431C89819A81F801908794
:1030A000878362E070E0CE0101960E946E1FF801F6
:1030B00086837894F89461857285838594850091E0
:1030C0009702109198022091990230919A0260170C
:1030D00071078207930751F06093970270939802EB
:1030E0008093990290939A020E94822478940F9080
:1030F0000F90DF91CF911F910F9108950E94BA24F4
:103100000E9450270E9469270E947B270E94EF108F
:10311000FBCF8091B20280FF0BC06091710185E00E
:10312000689FB001112475956795759567952BC0BB
:1031300081FF09C06091710185E0689FB001112491
:103140007595679520C082FF07C06091710185E089
:10315000689FB001112417C09091B1029923D1F05A
:1031600060917001961788F72091710185E0289F82
:1031700090011124929FA001939F500D112470E0A3
:10318000CA010E94382D6038710540F4611571053F
:1031900019F406C065E070E0862F08958FE7089562
:1031A00081E008958091B20280FF08C060916D01B6
:1031B00070E0759567957595679521C081FF06C08C
:1031C00060916D0170E07595679519C082FF04C02C
:1031D00060916D0170E010C09091B002992399F058
:1031E00060916C019617A0F780916D01899FC001D5
:1031F000112470E00E94382D6038710540F461158B
:10320000710519F406C061E070E0862F08958FE71C
:10321000089581E00895803F21F40E9489188195E6
:1032200004C0813F29F40E9489188093B602089552
:10323000823F21F40E948918819504C0833F29F4BC
:103240000E9489188093B5020895893F19F40E945D
:10325000D21805C08A3F31F40E94D218819580931C
:10326000B70208958B3F21F40E94D218819504C0C3
:103270008C3F29F40E94D2188093B80208959CE0F4
:10328000980F953078F421E030E0A90102C0440F96
:10329000551F9A95E2F7CA019091B402892B809349
:1032A000B40208958D3F21F48091B20281600BC079
:1032B0008E3F21F48091B202826005C08F3F29F4D5
:1032C0008091B20284608093B2020895803F39F405
:1032D0009091B60297FF35C01092B60259C0813F57
:1032E00029F49091B6021916BCF32BC09091B50247
:1032F000823F29F497FF25C01092B50249C0833F51
:1033000019F41916CCF31DC09091B702893F29F426
:103310001916BCF41092B7023BC08A3F19F497FF0C
:1033200010C0F8CF8B3F39F49091B80297FF09C0D5
:103330001092B8022DC08C3F21F49091B80219165A
:10334000BCF39CE0980F953080F421E030E0A901B7
:1033500002C0440F551F9A95E2F7CA0180959091DB
:10336000B40289238093B40213C08D3F21F480916D
:10337000B2028E7F0BC08E3F21F48091B2028D7F0E
:1033800005C08F3F29F48091B2028B7F8093B202F7
:103390008091B502811106C08091B602811102C0F0
:1033A0001092B1028091B702811106C08091B802DB
:1033B000811102C01092B00208950E94422520910E
:1033C000B502211104C02091B602222321F090936E
:1033D000AF028093AE022091B702211104C0209168
:1033E000B802222321F09093AD028093AC0283EBCC
:1033F00092E00C94F223EF92FF920F931F93CF93DE
:10340000DF9300D000D000D0CDB7DEB786E0E3EB8D
:10341000F2E0DE01119601900D928A95E1F7E090BD
:10342000B502F090B6020091B7021091B802109266
:10343000B5021092B6021092B7021092B802E110D3
:1034400003C0FF2009F45DC08091AE029091AF02ED
:103450000E945A25AC019091B102992339F0209134
:10346000720130E02417350758F04BC020917301EA
:103470008AE0289F900111242417350718F041C0D5
:103480009F3F19F09F5F9093B102EE2061F00E9480
:1034900089181E1414F09FEF01C091E0989F902DA1
:1034A00011249093B502FF2061F00E9489181F1427
:1034B00014F09FEF01C091E0989F902D11249093FC
:1034C000B6023091B5023323E1F02091B6022223F7
:1034D000C1F045EB3403C0011124992319F09093F6
:1034E000B50203C081E08093B50235EB2303C00130
:1034F0001124992319F09093B60203C081E08093C0
:10350000B602011103C0112309F45DC08091AC0221
:103510009091AD020E945A25AC019091B00299237E
:1035200039F020916E0130E02417350758F04BC078
:1035300020916F018AE0289F9001112424173507FC
:1035400018F041C09F3F19F09F5F9093B002002395
:1035500061F00E94D218101614F09FEF01C091E0A4
:10356000989F902D11249093B702112361F00E942F
:10357000D218111614F09FEF01C091E0989F902D82
:1035800011249093B8023091B7023323E1F02091D7
:10359000B8022223C1F045EB3403C0011124992362
:1035A00019F09093B70203C081E08093B70235EB26
:1035B0002303C0011124992319F09093B80203C08A
:1035C00081E08093B8028091B50281110BC0809197
:1035D000B602811107C08091B702811103C08091AA
:1035E000B80281110E94DD19EB82FC820D831E83DB
:1035F00086E0FE013196A3EBB2E001900D928A9530
:10360000E1F726960FB6F894DEBF0FBECDBFDF916F
:10361000CF911F910F91FF90EF900895E3EBF2E0AF
:1036200086E0DF011D928A95E9F71092B1021092AF
:10363000B0021092B20208950C94B603FF920F9359
:103640001F93CF93DF938091390181110CC087E9DB
:103650008093760186EC8093740184E980937701EE
:1036600086E680937501C1ECD2E026E731E044E7BD
:1036700051E061E070E0F2E0C33CDF0709F44CC0C8
:10368000F90101919F01A02FA295AF70B0E0919632
:10369000EC9191970F70CB01002E01C0880F0A9416
:1036A000EAF7982F90959E2391969C9391979296E6
:1036B0009C919297892B92968C939297FA011191F3
:1036C000AF01E12FE295EF70F0E0F1A01F70CB01A8
:1036D000012E01C0880F0A94EAF7982F90959F2138
:1036E00091A392A1892B82A390968C9190E002C025
:1036F000959587950A95E2F78170E0A1F0E002C008
:10370000F595E7951A95E2F7E0FD02C090E001C05B
:1037100092E0892B8993AFCF80913901811102C04A
:1037200092E001C090E09093BA0282E0891B8093FE
:10373000B902DF91CF911F910F91FF9008953F92B1
:103740004F925F926F927F928F929F92AF92BF92B1
:10375000CF92DF92EF92FF920F931F93CF93DF935D
:1037600081EC882E82E0982E96E7E92E91E0F92EE2
:1037700004E711E0CFEBD2E064015401412C312C7D
:1037800024E0622E712CD501ED915D014E2F440F86
:10379000440FF60141936F01D7012D917D01E22F76
:1037A000E295EF70F0E080A190E02F7002C0959557
:1037B00087952A95E2F781709927F80151918F0139
:1037C000E52FE295EF70F0E020A130E05F7002C0DD
:1037D000359527955A95E2F7F901E170FF2720FF0B
:1037E00002C0E2E0F0E0E82BF92BE42BD401ED93EA
:1037F0004D015090BA02540CEF70F0E0E451FE4FCE
:1038000090818881890F888384306CF0E52DF0E009
:10381000E554FD4F80818F5F808360E0852D0E949D
:103820001C1B21E001C020E088818D3F64F4E52D60
:10383000F0E0E554FD4F80818150808361E0852D6B
:103840000E941C1B21E08881082E000C990BB301FB
:103850000E94382D8993322A4394B2E04B1293CFC1
:10386000832DDF91CF911F910F91FF90EF90DF900B
:10387000CF90BF90AF909F908F907F906F905F9010
:103880004F903F900895E091BA02F0E0E554FD4F6B
:1038900020813181FC01318320830895CF92DF9212
:1038A000EF92FF920F931F93CF93DF936C01F12C54
:1038B00080E0D091B902DF0DF601C1916F010D2FAB
:1038C00010E005541D4FF8019081C91BEC2E1E1409
:1038D0005CF4EA94F80180818F5F808360E08D2F33
:1038E0000E941C1B81E0F3CF9C2FC7FD90E0C91BF9
:1038F000CC2359F0CF5FF80180818150808361E053
:103900008D2F0E941C1B81E0F3CFF394F2E0FF1295
:10391000D0CF882351F0DF91CF911F910F91FF906D
:10392000EF90DF90CF900C94BC10DF91CF911F915E
:103930000F91FF90EF90DF90CF90089583E290E099
:103940000E94832D823281F484E290E00E94832DD4
:10395000883051F485E290E00E94832D91E085301B
:1039600009F090E0892F01C080E081700895CF9325
:10397000C82F811102C06FEF01C062E283E290E0C4
:103980000E94912DC11102C06FEF01C068E084E276
:1039900090E00E94912DC11102C06FEF01C065E05F
:1039A00085E290E0CF910C94912D089586E290E00D
:1039B0000E94832D682F70E080E090E0089586E2F9
:1039C00090E00C94912D80E00E94B71C60E070E0C4
:1039D000CB010E94DF1C0E94261E0E94051F81E071
:1039E0000C94B71C0E94D51C0E949E1C811102C021
:1039F0000C94E31C0895CF93FB01C281CC23E9F022
:103A00009C0122513F452031310520F482510E9412
:103A1000151F0CC08031FFE59F0751F481E00E9423
:103A2000920A43E062E081E00E94D404C0E018C042
:103A300081319F45A9F482E0F2CF8031EFE59E0706
:103A400011F481E004C081319F4549F482E00E9475
:103A50009D0A43E062E081E00E94D40401C0C1E01D
:103A60008C2FCF9108952FEFFC0120830895EF92C2
:103A7000FF920F931F93CF93DF93EC01062FE88102
:103A80008E2F90E0FC013197E331F10508F091C0F1
:103A9000EC58FF4F0C944C2D198289E04DC0898160
:103AA000823039F0833061F0813029F50E944E2553
:103AB00002C00E94D61C9A838B837C836D837BC05B
:103AC0007E0182E0E80EF11C10E0812F0E94DC13E1
:103AD000F70181937F011F5F1A30B9F76CC08981AC
:103AE000823049F46A817B818C819D810E94522DB4
:103AF0000E94DF1C60C0602FCE010E94331D5BC09E
:103B00004B816A8189810E94F81D9C838D8353C0FB
:103B10002C813D813227232732274B816A8189817D
:103B20000E94111E48C00E94261E45C00E94B81E59
:103B300024C00E94BA1E99838A833DC06B8170E0C5
:103B400089819A81AE014C5F5F4F9827892798271A
:103B50000E94BD1E30C06B8170E089819A81AE01E8
:103B60004C5F5F4F9827892798270E94E21E23C049
:103B70000E94051F20C00E94E51D89831CC06B8127
:103B800070E089819A81AE014C5F5F4F9827892749
:103B900098270E94651E0FC06B8170E089819A8111
:103BA000AE014C5F5F4F9827892798270E94891E96
:103BB00002C08FEF8883602FCE01DF91CF911F91DC
:103BC0000F91FF90EF900C94412684E0089550E00F
:103BD000440F551F2AE0629F400D511D11249A0188
:103BE00064E6869F200D311D1124C9018796089532
:103BF0000F931F93CF93DF930E94E71D8C010E94C8
:103C0000832DC82FD0E0DC2FCC27C80101960E945D
:103C1000832D9E01282BC901DF91CF911F910F9118
:103C200008950F931F93CF93DF93122F032F0E94BA
:103C3000E71DEC01602F0E94912D612FCE010196AE
:103C4000DF91CF911F910F910C94912DAF92BF9264
:103C5000CF92DF92EF92FF920F931F93CF93DF9358
:103C6000A12CE12CF12CB12C00E010E0C0E0D0E060
:103C70006701C00ED11EFE01EE0FFF1FEC0DFD1DF2
:103C8000EE5DFE4F259134914C2F6B2D8A2D0E94B5
:103C9000111E2196C530D10571F7065F1F4FB394F1
:103CA0008AE0B812E3CF84E6E80EF11CA39484E026
:103CB000A812D9CFDF91CF911F910F91FF90EF9074
:103CC000DF90CF90BF90AF900895EF92FF920F9347
:103CD0001F93CF93DF93EA017A01E60EF71E8C0162
:103CE000C8018796CE15DF0569F0003921E012077B
:103CF00020F40E94832D888301C0188221960F5FD3
:103D00001F4FEECFDF91CF911F910F91FF90EF905A
:103D10000895EF92FF920F931F93CF93DF93EA01E1
:103D20007A01E60EF71E8C01C8018796CE15DF05D5
:103D300059F0003921E0120718F468810E94912D92
:103D400021960F5F1F4FF0CFDF91CF911F910F9101
:103D5000FF90EF900895462F843038F47A3028F49D
:103D6000653018F4672F0C94F81D80E090E00895FA
:103D700080E1089589E492E00895EF92FF920F9315
:103D80001F93CF93DF93EA017A01E60EF71E8C01B1
:103D9000C80189549E4FCE15DF0569F0093422E031
:103DA000120720F40E94832D888301C01882219677
:103DB0000F5F1F4FEDCFDF91CF911F910F91FF90BC
:103DC000EF900895EF92FF920F931F93CF93DF939D
:103DD000EA017A01E60EF71E8C01C80189549E4F54
:103DE000CE15DF0559F0093422E0120718F4688176
:103DF0000E94912D21960F5F1F4FEFCFDF91CF9142
:103E00001F910F91FF90EF900895CF93DF93C7EB31
:103E1000D1E060E0CE010E94912D2196C11584E091
:103E2000D807B9F7DF91CF910895DF92EF92FF9213
:103E30000F931F93CF93DF9300D000D0CDB7DEB7A1
:103E4000F82E8FE08F15E8F18FEF93E00E94832D1D
:103E5000811137C007EB11E0FF2069F0011584E004
:103E6000180779F1C8010E94832D811101C0FA94CD
:103E70000F5F1F4FF1CF19821A821B821C82DD2433
:103E8000D39478018FEFE81AF80AC8010E94832DB5
:103E900089831A828823A9F09FEF980F933058F4F2
:103EA0008A83D9820E5F1F4FC7010E94832D8B83A7
:103EB000882339F07801CE0101960E941D06870102
:103EC000E0CF0F900F900F900F90DF91CF911F9147
:103ED0000F91FF90EF90DF9008950895FC01680F17
:103EE000791F8FEF91E3E617F70771F02191822791
:103EF00028E030E087FF03C0880F892701C0880FC2
:103F000021503109B9F7EFCF08950F931F93CF9345
:103F1000DF93C42FD22FFC0182818823C9F0409304
:103F2000C5020E9442259093C4028093C30280E29E
:103F30008C0F883008F057C0C77081E001C0880F2F
:103F4000CA95EAF7DF91CF911F910F910C94B307B7
:103F50008091C502481330C08091C3029091C40281
:103F60000E945A25883C910538F510E21D0FCD17A7
:103F7000B9F080E28C0F883040F4C77081E001C056
:103F8000880FCA95EAF70E94BA07183028F581E031
:103F90009D2F977001C0880F9A95EAF70E94B3078A
:103FA000802F0E94AA071830F0F4D77081E001C07A
:103FB000880FDA95EAF70AC080E28C0F883098F40F
:103FC000C77081E001C0880FCA95EAF7DF91CF91F1
:103FD0001F910F910C94BA07802FDF91CF911F9101
:103FE0000F910C94AA07DF91CF911F910F91089523
:103FF0000F939C01CB01233F4CE5340731F188F44A
:10400000283DFCE53F07D9F0293D4CE5340779F11F
:10401000273D3C45A9F506E221EE41EE67ED7CE542
:104020002BC0253FFCE53F07E1F0A8F0263F3C45CB
:1040300039F507E225EE46EE66EF7CE51DC007E2A6
:1040400025EE45EE68ED7CE517C006E221EE40EE78
:1040500063EF7CE511C007E225EE44EE64EF7CE5FA
:104060000BC006E221EE42EE65EF7CE505C008E2FA
:1040700021E045EE69ED7CE50E94851F80E008C0E7
:10408000FC018281882319F01092C50201C081E0F1
:104090000F910895CF93DF93EC01FB018281882378
:1040A00009F426C1C330FDE5DF0760F4CA3F9CE593
:1040B000D90768F49E0122503C452431310508F0AF
:1040C00018C105C0C136EDE5DE0709F012C10E9436
:1040D0000E109093DD028093DC02C031FCE5DF0717
:1040E00009F4CAC008F041C0C8309CE5D90709F4FA
:1040F000A4C0F0F4C430FCE5DF0709F48CC068F418
:10410000C2309CE5D90709F482C0C330DC4509F010
:10411000E5C08091DC028260DFC0C630FCE5DF07CD
:1041200009F483C008F085C08091DC028860D4C0A7
:10413000CC309CE5D90709F490C068F4CA30FCE59E
:10414000DF0709F47EC008F084C00E94130A809142
:10415000DC028068C1C0CE309CE5D90709F481C07B
:1041600008F086C08091DC0294C0CC3FFCE5DF07FC
:1041700009F47BC038F5C4319CE5D90709F49AC02D
:1041800058F4C231FCE5DF0709F47AC008F07EC0BC
:104190008091DC028F7BA0C0CA3F9CE5D907F1F17A
:1041A00008F03FC0C531DC4509F098C08091DC02C1
:1041B00082FB222720F991E0922790FB82F990FB65
:1041C00083F98AC0C1158DE5D80709F467C050F49A
:1041D0008091DD02CE3FECE5DE07C1F108F05BC067
:1041E0008D7F65C0C2308DE5D80709F471C008F431
:1041F0006DC0C136DD4509F071C08091DC0284FBE1
:10420000222720F991E0922790FB84F965C08091E4
:10421000DC02816061C08091DC0216C08091DD0209
:1042200016C08091DD02826042C08091DC02806114
:1042300053C08091DC0280624FC08091DC028064B8
:104240004BC08091DC028860846046C082608160DF
:104250002EC08091DC028E7F3FC08091DC028D7F7A
:104260003BC08091DC02877F37C08091DD0214C0A3
:104270008091DC028F7E30C08091DC028F7D2CC06B
:104280000E94130A8091DC028F7726C08091DC02A5
:10429000877F8B7F21C08D7F8E7F09C08091DD025B
:1042A000982F909591708E7F892B90FB81F9809348
:1042B000DD0214C00E94130A8091DC0287FB2227D2
:1042C00020F991E0922790FB87F906C081E001C0B8
:1042D00080E00E94A41002C08093DC028091DC0286
:1042E0009091DD020E941F100E94130A80E001C01D
:1042F00081E0DF91CF910895CF93DF9386319C4584
:1043000041F5EB010E94360F982F8A8120912801F8
:1043100030912901882379F09A7A81E009F480E0CC
:104320008093C602911102C069E201C065E3C90130
:104330000E946E240AC08091C602811102C069E207
:1043400001C065E3C9010E9470240E94880F80E0CB
:1043500001C081E0DF91CF9108958EE14A9B02C0B8
:104360008150E1F74A9BFECF08955A9880E28A95E2
:10437000F1F75A9A0895FC012AE02A95F1F728E00E
:1043800090E080E031E040E14A95F1F7880F4A9BE8
:1043900002C08160932700C0000040E14A95F1F718
:1043A000215089F720E12A95F1F729B100C00000DA
:1043B00030E13A95F1F722FB222720F9922720815C
:1043C000920F90830895EF92FF920F931F93CF93D4
:1043D000DF931F92CDB7DEB719828C017C01E60E08
:1043E000F11C0E151F0551F00E94AD21CE01019662
:1043F0000E94BB21F80181938F01F3CF81E0998165
:10440000911180E00F90DF91CF911F910F91FF905C
:10441000EF900895529A5A9A089552985A9AEA9AA1
:10442000E9E6F0E080818F7C80830895615091E01F
:1044300001C0990F6A95EAF720E031E0992361F015
:10444000492F482319F05A9A232701C05A9840E26D
:104450004A95F1F79695F2CF222311F05A9A01C0AE
:104460005A9880E28A95F1F75A980895FF920F932F
:104470001F93CF93DF93EC018C01060F111DC01722
:10448000D10741F0F9900E94B52168E08F2D0E947C
:104490001622F5CFDF91CF911F910F91FF900895D4
:1044A0001F920F920FB60F921124EF92FF920F936B
:1044B0001F932F933F934F935F936F937F938F93AC
:1044C0009F93AF93BF93EF93FF93CF93DF931F928D
:1044D000CDB7DEB719820E94AD21CE0101960E94B0
:1044E000BB21A82FA695A695A6959A2F969595706F
:1044F0002A2F2570920F292F237096959695920F4B
:10450000877089137CC08981811179C0A63008F039
:1045100076C080E18A95F1F75A9A529AB2E0BA953C
:10452000F1F700C05A98EA2EF12CEAE0AE9FD001D4
:104530001124A65CBE4F1896ED91FC911997309707
:10454000B1F06091EA017091EB0116962D913C91CA
:104550001797260F371F13968D919C911497680F0C
:10456000791F15964C91159712968C9109958AE0B2
:104570008E9DF0018F9DF00D1124E65CFE4F65814C
:10458000662351F08091EA019091EB0126813781F9
:10459000820F931F0E9436220E94B521F0E1FA9506
:1045A000F1F75A9852985A9A80E18A95F1F78AE081
:1045B0008E9D80018F9D100D1124065C1E4FD80129
:1045C00012966C911297662399F08091EA0190916E
:1045D000EB0113962D913C911497820F931F0E942B
:1045E000E321D801ED91FC91811105C082E004C066
:1045F000D801ED91FC9188E080830E94AD210F905D
:10460000DF91CF91FF91EF91BF91AF919F918F91EA
:104610007F916F915F914F913F912F911F910F91DA
:10462000FF90EF900F900FBE0F901F9018950F9373
:104630001F93CF93DF93863091050CF0A9C02AE039
:10464000289FF001299FF00D1124E65CFE4F208188
:104650003181232B09F49CC0EC01F894529A5A98AA
:1046600085E08A95F1F700008C2F869585709C2F48
:104670009570890F982F9370869586958E0123E00B
:10468000000F111F2A95E1F7890F082B0E94B52111
:10469000A4E0AA95F1F700C068E0802F0E941622DE
:1046A000B0E1BA95F1F752985A9A4A9902C000C0FF
:1046B000FCCF87E090E04A9B17C0019799F4529A8B
:1046C0005A9A8AE08C9FF0018D9FF00D1124E65CD0
:1046D000FE4F0190F081E02D81E08083789481E0AD
:1046E00090E058C000C0E7CF8AE08C9F80018D9F8A
:1046F000100D1124065C1E4FF80165816623B9F088
:104700008091EA019091EB0126813781820F931FFE
:104710000E94E32181110BC0529A5A9AD801ED915F
:10472000FC9182E08083789482E090E033C00E9424
:10473000AD21B0E2BA95F1F75A98529AE0E1EA95C4
:10474000F1F78AE08C9FF0018D9FF00D1124E65C5B
:10475000FE4F6281662351F08091EA019091EB0156
:1047600023813481820F931F0E9436220E94B5213B
:104770008AE08C9FF0018D9FF00D1124E65CFE4FC6
:104780000190F081E02D1082789480E090E002C0EA
:1047900084E090E0DF91CF911F910F910895909365
:1047A000CD028093CC0208950E94E815811103C0C8
:1047B0008091C7020895E091CC02F091CD0230972C
:1047C00021F00190F081E02D099480E00895E091BE
:1047D000CC02F091CD02309721F00280F381E02DE0
:1047E00009940895E091CC02F091CD02309739F010
:1047F00022E0DC012C930480F581E02D09940895DA
:104800002091CA023091CB022817390771F090939A
:10481000CB028093CA02E091CC02F091CD02309796
:1048200021F00680F781E02D099408952091C802B7
:104830003091C9022817390771F09093C90280930B
:10484000C802E091CC02F091CD02309721F00084B3
:10485000F185E02D09940895FC01329697E080E0FF
:10486000915029F021912223D9F38F5FF9CF089538
:10487000662349F0FC01329608962191621729F0CF
:10488000E817F907D1F780E0089581E008959C01C9
:10489000FC0132969FEF80E04191461789F09F3FDF
:1048A00019F4411101C0982F8F5F8630A9F79F3FFF
:1048B00039F0F901E90FF11D97FDFA95628308952A
:1048C00008959C012A5F3F4FFC014281461301C0BD
:1048D0001282019682179307B9F708950C94472422
:1048E0000C946124029626E0FC0111922A95E9F7C6
:1048F00008951092F5021092F6021092F7021092AB
:10490000F8020895CF92DF92EF92FF926B017C0143
:104910000E94E81581110EC00E944E25C61AD70AC2
:10492000E80AF90AC092F502D092F602E092F70284
:10493000F092F802FF90EF90DF90CF9008950F93E0
:104940001F930E94E815882321F01F910F910C946A
:104950004E250E944E250091F5021091F6022091FD
:10496000F7023091F802600F711F821F931F1F9191
:104970000F910895089508950C94BB240C94BB24C2
:10498000CF930E94BE240E945D150E94BC24C0E00B
:104990008C2F0E94DC13811104C0CF5FCA30C1F795
:1049A00001C081E0CF9108950C94BB240C94D424D1
:1049B00080910103843049F10E94D62480E00E9456
:1049C00028061092CE0220E488E190E00FB6F89419
:1049D000A895809360000FBE2093600083B7817F0D
:1049E000846083BF83B7816083BF7894889583B7E1
:1049F0008E7F83BF0FB6F894A89580916000886180
:104A000080936000109260000FBE08950C94BB2448
:104A10000E94130A0E94D4230E9428060C940625A3
:104A20001F920F920FB60F9211248F939F93AF9303
:104A3000BF938091CE02811113C08091F9029091B1
:104A4000FA02A091FB02B091FC024196A11DB11D9A
:104A50008093F9029093FA02A093FB02B093FC02B8
:104A6000BF91AF919F918F910F900FBE0F901F90AC
:104A7000189582E084BD93E095BD9AEF97BD809331
:104A80006E0008952FB7F8948091F9029091FA0280
:104A9000A091FB02B091FC022FBF08952FB7F894AC
:104AA0006091F9027091FA028091FB029091FC02F0
:104AB0002FBF08959C014FB7F8948091F90290910F
:104AC000FA02A091FB02B091FC024FBF821B930B34
:104AD0000895CF92DF92EF92FF922FB7F894C09093
:104AE000F902D090FA02E090FB02F090FC022FBF96
:104AF000A7019601261B370B480B590BCA01B901B8
:104B0000FF90EF90DF90CF90089578941F920F92CE
:104B10000FB60F9211248F939F93AF93BF93809101
:104B2000F9029091FA02A091FB02B091FC02019669
:104B3000A11DB11D8093F9029093FA02A093FB028C
:104B4000B093FC02BF91AF919F918F910F900FBED8
:104B50000F901F90189587E797E79093010880932F
:104B600000089AE088E10FB6F894A8958093600059
:104B70000FBE90936000FFCF90930D0280930C02C4
:104B800008958091DA02089590910103943029F5F7
:104B90008093CF027093D1026093D0029093E9008A
:104BA0008FEF9091E800815095FD06C095ED9A95A4
:104BB000F1F700008111F5CF8091E80085FF0DC06D
:104BC00040E050E063E070E08FEC92E00E943D280E
:104BD0008091E8008E778093E8000895BC0184E01E
:104BE0000C94C425BC0183E00C94C42524E02093DC
:104BF000E9002FEF3091E800215035FD06C035ED7A
:104C00003A95F1F700002111F5CF2091E80025FF3A
:104C10000BC040E050E066E070E00E943D288091CB
:104C2000E8008E778093E8000895CF93DF9321E02A
:104C30002093E9002FEF3091E800215035FD06C0A8
:104C400035ED3A95F1F700002111F5CF2091E800FC
:104C500025FF14C0EC0140E050E068E070E00E94E5
:104C60003D288091E8008E778093E80088E0FE017F
:104C7000A2EDB2E001900D928A95E1F7DF91CF911C
:104C80000895CF93603219F5209101032430F9F48F
:104C9000C091E900CF703091EC00232F217030FDDE
:104CA00020E8C22B22E02093E9002091E80020FFB9
:104CB0000BC040E050E060E270E00E943D2880912F
:104CC000E8008E778093E800CF70C093E900CF9121
:104CD000089580910003811109C00E94192A0E9441
:104CE000762A8091E20084608093E2000895109219
:104CF0000003089508950895089542E061EC81E06D
:104D00000E94922942E261EC84E00E94922942E2F0
:104D100061EC82E00E94922942E260EC83E00C9414
:104D2000922980910303833009F462C030F481300A
:104D300071F0823009F49BC008958A3009F487C06D
:104D40008B3009F46DC0893009F0A9C020C0809172
:104D50000203813A09F0A3C08091E800877F809325
:104D6000E8008091060390910703892B21F468E005
:104D700082ED92E003C060E080E090E070E00E948D
:104D8000D3288091E8008B778093E8000895809184
:104D90000203813209F083C08091060390910703DA
:104DA000009719F0029709F07AC08091E800877F98
:104DB0008093E8008091E80082FD05C080910103A6
:104DC0008111F8CF6CC02091F3008091F20090E047
:104DD000922B029729F48091F1008B7F813021F48E
:104DE0008091F1008093DA028091E8008B7753C0C4
:104DF00080910203813A09F052C08091060390919C
:104E00000703892B09F04BC08091E800877F8093CE
:104E1000E8008091E80080FFFCCF8091820136C0DD
:104E2000809102038132D9F58091060390910703A6
:104E3000892BA9F58091E800877F8093E8000E9484
:104E4000C72980910403809382010C94130A8091F6
:104E50000203813221F58091E800877F8093E8008A
:104E60000E94C729809105038093DB0208958091F9
:104E70000203813AA1F48091E800877F8093E800E3
:104E80008091E80080FFFCCF8091DB028093F100ED
:104E90008091E8008E778093E8000C94C7290895EC
:104EA00084B7877F84BF0FB6F894A895809160007F
:104EB000886180936000109260000FBE90E080E8EF
:104EC0000FB6F89480936100909361000FBE0C942C
:104ED000E5100E94192A0E94762AE2EEF0E0808115
:104EE0008460808378940E940B2D0E94F31088E7E1
:104EF00091E00C94CF23CF93DF93CDB7DEB7A0978B
:104F00000FB6F894DEBF0FBECDBF80910103853090
:104F1000A9F480910103853079F40E94D82480910E
:104F2000FF028823B1F30E94C024882391F30E94DA
:104F300027280E94130AEDCF0E9408250E94011124
:104F400080910103843011F583E08093E900809122
:104F5000E80082FF1BC08091E80085FF0AC040E0A6
:104F600050E060E270E0CE0101960E94882891E056
:104F700001C090E08091E8008B778093E80099234E
:104F800029F060E2CE0101960E94371DA0960FB66F
:104F9000F894DEBF0FBECDBFDF91CF9108950C9482
:104FA000D127292F332723303105C9F060F4213070
:104FB000310581F02230310509F041C08BE590E0E8
:104FC00022E233E040C021323105E1F022323105E6
:104FD00031F135C082E190E02DE733E034C099270C
:104FE0008130910549F028F0029749F5EEEFF2E0A3
:104FF00005C0EEE1F3E002C0E2E1F3E0849190E06D
:105000009F0121C063307105D0F4660F771FFB014B
:10501000EB5FFD4F2081318189E090E014C0633067
:10502000710568F4FB01EE0FFF1FE150FE4F208178
:105030003181FB01E450FE4F808190E004C080E0AC
:1050400090E020E030E0FA0131832083089580E190
:1050500089BD82E189BD09B400FEFDCF8091D800F1
:105060008F7D8093D8008091E00082608093E00083
:105070008091E00081FDFCCF0895CF92DF92EF9206
:10508000FF920F931F93CF93DF93EC018B017A0173
:105090000E94E629811133C0E114F10439F0F701CF
:1050A00080819181081B190BC80FD91FC12CD12CED
:1050B0000115110519F18091E80085FD16C0809158
:1050C000E8008E778093E800E114F10449F0F701DD
:1050D00080819181C80ED91ED182C08285E00FC027
:1050E0000E94E629882321F30AC089918093F10068
:1050F00001501109FFEFCF1ADF0ADACF80E0DF910C
:10510000CF911F910F91FF90EF90DF90CF90089576
:10511000CF92DF92EF92FF920F931F93CF93DF9383
:10512000EC018B017A010E94E629811133C0E11460
:10513000F10439F0F70180819181081B190BC80F28
:10514000D91FC12CD12C0115110519F18091E8004E
:1051500085FD16C08091E8008B778093E800E1140C
:10516000F10449F0F70180819181C80ED91ED182E6
:10517000C08285E00FC00E94E629882321F30AC07F
:105180008091F100899301501109FFEFCF1ADF0AD6
:10519000DACF80E0DF91CF911F910F91FF90EF90D8
:1051A000DF90CF90089520910803309109032617CE
:1051B000370748F06115710539F42091E8002E7722
:1051C0002093E80001C0B901FC0120E061157105E0
:1051D00079F1809101038823F1F18530F1F180911B
:1051E000E80083FD3CC08091E80082FD2EC08091E4
:1051F000E80080FFEBCF2091F3008091F20090E077
:10520000922B6115710551F08830910538F4219188
:105210002093F100615071090196F3CF21E00897C6
:1052200009F020E08091E8008E778093E800CECFEF
:105230002111CFCF0AC080910103882361F085300E
:1052400061F08091E80083FD0AC08091E80082FF50
:10525000F2CF80E0089582E0089583E0089581E030
:10526000089520910803309109032617370748F065
:105270006115710539F42091E8002E772093E8003C
:1052800001C0B901FC0120E06115710591F1809127
:105290000103882309F440C0853009F43FC08091A0
:1052A000E80083FD3DC08091E80082FD2FC0809121
:1052B000E80080FFE9CF2091F3008091F20090E0B8
:1052C000922B6115710559F08830910540F42491B5
:1052D0002093F1003196615071090196F2CF21E0DF
:1052E000089709F020E08091E8008E778093E8002D
:1052F000CBCF2111CCCF0AC080910103882361F06C
:10530000853061F08091E80083FD0AC08091E8005B
:1053100082FFF2CF80E0089582E0089583E008954F
:1053200081E00895982F973068F59093E9009817D9
:1053300039F07091EC002091ED005091F00003C025
:10534000242F762F50E021FD02C09F5FECCF3091DB
:10535000EB003E7F3093EB003091ED003D7F3093CA
:10536000ED003091EB0031603093EB007093EC0076
:105370002093ED005093F0002091EE0027FDE5CF43
:1053800080E008958F708093E90081E00895809116
:10539000020387FF11C08091E80082FD05C0809163
:1053A00001038111F8CF11C08091E8008B770BC009
:1053B00080910103882349F08091E80080FFF8CFB5
:1053C0008091E8008E778093E80008952091E400B2
:1053D0003091E50095E64091EC00842F817040FF0C
:1053E00023C08091E80080FD1DC0809101038823C7
:1053F00099F0853099F08091EB0085FD11C04091C6
:10540000E4005091E5002417350729F3915011F07D
:105410009A01E1CF84E0089582E0089583E0089541
:1054200081E0089580E008954091E80042FFDDCFDB
:1054300008950E94872A0E948F2AE0EEF0E0808182
:1054400081608083E8EDF0E080818F77808319BCF4
:10545000A7EDB0E08C918E7F8C9380818F7E8083CE
:105460001092000308950F931F93CF93DF930E9430
:10547000872A0E948F2AC8EDD0E088818F778883A1
:1054800088818068888388818F7D888319BC109289
:1054900001031092FD021092FF021092FE0200EE34
:1054A00010E0F80180818B7F808388818160888310
:1054B00042E060E080E00E949229E1EEF0E080812D
:1054C0008E7F8083E2EEF0E0808181608083808146
:1054D00088608083F80180818E7F808388818061ED
:1054E0008883DF91CF911F910F910895E8EDF0E04F
:1054F00080818F7E8083E7EDF0E080818160808312
:1055000084E082BF81E0809300030C94332AE8EDAD
:10551000F0E080818E7F80831092E20008951092E7
:10552000DA001092E10008951F920F920FB60F92C9
:1055300011242F933F934F935F936F937F938F9398
:105540009F93AF93BF93EF93FF938091E10082FF0E
:105550000BC08091E20082FF07C08091E1008B7F49
:105560008093E1000E940A2D8091DA0080FF1FC025
:105570008091D80080FF1BC08091DA008E7F8093DD
:10558000DA008091D90080FF0DC080E189BD82E101
:1055900089BD09B400FEFDCF81E0809301030E9424
:1055A000692605C019BC109201030E9477268091DC
:1055B000E10080FF19C08091E20080FF15C080915A
:1055C000E2008E7F8093E2008091E2008061809310
:1055D000E2008091D80080628093D80019BC85E0F9
:1055E000809301030E947B268091E10084FF30C0FC
:1055F0008091E20084FF2CC080E189BD82E189BDF9
:1056000009B400FEFDCF8091D8008F7D8093D80033
:105610008091E1008F7E8093E1008091E2008F7E97
:105620008093E2008091E20081608093E2008091AB
:10563000FD02882311F084E007C08091E30087FD1C
:1056400002C081E001C083E0809301030E947C26B8
:105650008091E10083FF29C08091E20083FF25C093
:105660008091E100877F8093E10082E080930103D5
:105670001092FD028091E1008E7F8093E100809185
:10568000E2008E7F8093E2008091E200806180934F
:10569000E20042E060E080E00E9492298091F00008
:1056A00088608093F0000E947A26FF91EF91BF916D
:1056B000AF919F918F917F916F915F914F913F91AA
:1056C0002F910F900FBE0F901F9018951F920F9261
:1056D0000FB60F9211242F933F934F935F936F93C5
:1056E0007F938F939F93AF93BF93CF93DF93EF936A
:1056F000FF93C091E900CF708091EC00D82FD1705A
:1057000080FDD0E81092E9008091F000877F8093BF
:10571000F00078940E94AA2B1092E9008091F0008A
:1057200088608093F000CD2BCF70C093E900FF918B
:10573000EF91DF91CF91BF91AF919F918F917F9129
:105740006F915F914F913F912F910F900FBE0F90EE
:105750001F9018951F93CF93DF93CDB7DEB7AA970D
:105760000FB6F894DEBF0FBECDBFE2E0F3E080914C
:10577000F100819323E0EA30F207C9F70E949126F5
:105780008091E80083FF2EC1809102039091030372
:10579000492F50E04A30510508F024C1FA01E95779
:1057A000FF4F0C944C2D803821F0823809F01AC13B
:1057B00008C08091FE029091FF02992389F08260D7
:1057C0000FC0809106038F70873008F00BC1809363
:1057D000E9008091EB0085FB882780F91092E900B1
:1057E0009091E800977F9093E8008093F1001092E9
:1057F000F100D1C0282F2D7F09F0F4C0882319F0C3
:10580000823061F0EFC080910403813009F0EAC07A
:10581000933009F080E08093FF022EC08091040352
:1058200081112AC0809106038F702FEF280F263038
:1058300008F0D8C08093E9002091EB0020FF1CC045
:10584000933021F48091EB00806214C09091EB00C2
:1058500090619093EB0021E030E0A90102C0440F79
:10586000551F8A95E2F74093EA001092EA00809172
:10587000EB0088608093EB001092E9008091E800D3
:10588000877F8093E8000E94C729ACC08111AAC01D
:10589000109104031F778091E3008078812B80931F
:1058A000E3008091E800877F8093E8000E94C72989
:1058B0008091E80080FFFCCF8091E30080688093B6
:1058C000E300111102C082E001C083E08093010374
:1058D00089C08058823008F085C08091040390917F
:1058E00005038C3D53E0950779F583E08A838AE2CE
:1058F00089834FB7F894DE01139620E03EE051E231
:10590000E32FF0E050935700E49120FF03C0E295AD
:10591000EF703F5FEF708E2F90E0EA3010F0C79687
:1059200001C0C0968D939D932F5F243149F74FBFDF
:105930008091E800877F8093E8006AE270E0CE0102
:1059400001960E94D32816C0609106037091070348
:10595000AE014F5F5F4F0E94CF27BC01892B09F436
:1059600041C09091E800977F9093E80089819A81E7
:105970000E9431298091E8008B778093E80032C043
:10598000803881F58091E800877F8093E8008091DE
:10599000FD028093F1008091E8008E7772CF811133
:1059A00021C0809104039091050399270297D4F4B4
:1059B0008091E800877F8093E800809104038093C2
:1059C000FD020E94C7298091FD02811106C08091CD
:1059D000E30087FD02C081E001C084E08093010301
:1059E0000E947D268091E80083FF0AC08091E80034
:1059F000877F8093E8008091EB0080628093EB00CA
:105A0000AA960FB6F894DEBF0FBECDBFDF91CF913F
:105A10001F9108950895CF93809101038823A1F0E9
:105A2000C091E900CF709091EC00892F817090FDBA
:105A300080E8C82B1092E9008091E80083FD0E9465
:105A4000AA2BCF70C093E900CF9108950E94192A24
:105A5000109201030895E8EDF0E080818061808379
:105A60008AE18A95F1F700C08091D900817008958C
:105A700097FB072E16F4009407D077FD09D00E94FB
:105A8000592D07FC05D03EF4909581959F4F0895C0
:105A9000709561957F4F0895EE0FFF1F0590F4916B
:105AA000E02D099469279627692778278727782783
:105AB0000895AA1BBB1B51E107C0AA1FBB1FA61755
:105AC000B70710F0A61BB70B881F991F5A95A9F7A7
:105AD00080959095BC01CD010895FB01DC0104C0C7
