:100000000C9418020C945F020C945F020C9433223F
:100010000C945F020C945F020C945F020C945F02DC
:100020000C945F020C945F020C94772A0C94492B79
:100030000C94F3240C945F020C945F020C945F0206
:100040000C945F020C945F020C945F020C945F02AC
:100050000C945F020C9468250C945F020C945F0270
:100060000C945F020C945F020C945F020C945F028C
:100070000C945F020C945F020C945F020C945F027C
:100080000C945F020C945F020C945F020C945F026C
:100090000C945F020C945F020C945F020C945F025C
:1000A0000C945F020C945F020C945F02D607D60793
:1000B0000808080855087308670967097E08E608F4
:1000C000F708F7085709670967096009070A070A67
:1000D000190A190A100A190A190A190A070A070A35
:1000E000150A190A190A150A2F1D321D521D631D02
:1000F0006B1D761DBC1DBC1DBC1DBC1DBC1D791D12
:100100007C1D811D8E1D9B1D9E1DA21DAF1DB62B2E
:10011000DD2BD52CDD2BD52C292C4C2CD52CA32C30
:10012000B22C1700150008001A0014000A0009007C
:100130000700160004000500190006001B001D0042
:100140002C41E300E0001F001E001C0018000C0002
:10015000120013000B000D000E000F00280011000C
:10016000100036003700E5002C42E2002A00200093
:1001700021002200210020001F001E002202210277
:1001800020021F021E02670054005500560057004F
:100190002C41490029001F001E00230024002500D7
:1001A000260027002302240225022602270235000A
:1001B00089002F1230122D122D00E2002A0020009B
:1001C00021003E003D003C003B003A003400331269
:1001D000330031001F02C75CC65CC55CC35CC25CF7
:1001E0002D1249002B001F001E003F00400041005F
:1001F000420043005000510052004F002E00C85CE6
:10020000C95C2F00300031002C42E2002A0020009F
:10021000210000000000000000002A2B2800000040
:1002200000000000000000000000000000290000A5
:1002300000002C1E3420212224342627252E362D82
:100240003738271E1F202122232425263333362E1C
:1002500037381F0405060708090A0B0C0D0E0F108E
:100260001112131415161718191A1B1C1D2F3130D3
:10027000232D350405060708090A0B0C0D0E0F1077
:100280001112131415161718191A1B1C1D2F3130B3
:10029000354C0000000000000000000000000000DD
:1002A000000000000000000000000000000000004E
:1002B0000000000000007E0F00D4FFFFFFC7000019
:1002C0000078120363006F006F006C00350033008C
:1002D0003600720000000A036D002E006B006900FA
:1002E00000000403090409025B00030100A0FA09ED
:1002F0000400000103010100092111010001224055
:10030000000705810308000A090401000203000038
:1003100000092111010001222200070582032000AB
:100320000107050303200001090402000103000086
:1003300000092111010001227B0007058403200030
:100340000A1201000200000008434D3705010001B8
:100350000200010660FF0961A1010962150026FF84
:10036000009520750881020963150026FF0095207D
:1003700075089102C005010902A10185020901A1C8
:100380000005091901290815002501950875018145
:10039000020501093009311581257F950275088113
:1003A0000609381581257F950175088106050C0A17
:1003B00038021581257F950175088106C0C00501A9
:1003C0000980A101850319012AB700150126B7008C
:1003D000950175108100C0050C0901A10185041962
:1003E000012AA002150126A002950175108100C006
:1003F00005010906A101050719E029E715002501F6
:10040000950875018102950175088101050719009C
:1004100029FF150026FF00950675088100050819BB
:10042000012905950575019102950175039101C09A
:1004300011241FBECFEFDAE0DEBFCDBF04B603FE4E
:1004400027C08091FA029091FB02A091FC02B0912A
:10045000FD028730904BA740B04BD1F41092FA02C6
:100460001092FB021092FC021092FD0214BE84B79F
:10047000877F84BF0FB6F894A8958091600088614B
:1004800080936000109260000FBEE0E0F8E30995F1
:1004900012E0A0E0B1E0E4E5FBE502C005900D92BA
:1004A000AA30B107D9F722E0AAE0B2E001C01D925C
:1004B000AA3FB207E1F70E9461180C94A82D0C9492
:1004C0000000CF93DF9300D000D01F92CDB7DEB7EE
:1004D0006B837C838D838C819D81892B31F05F3F81
:1004E00031F481E04F3F19F403C081E001C080E0A6
:1004F00080FD02C08B8102C080E090E081700F908F
:100500000F900F900F900F90DF91CF910895409131
:100510002301509124016091250170912601809161
:1005200027010E9461028823A1F0109225010E94F8
:1005300025258160782F9093270180932601409193
:1005400023015091240160912501809127010E948F
:10055000130640911E0150911F016091200170917E
:100560002101809122010E9461028823A1F0109252
:1005700020010E9425258160782F9093220180938D
:10058000210140911E0150911F0160912001809135
:1005900022010E9413064091190150911A016091A5
:1005A0001B0170911C0180911D010E946102882332
:1005B000A1F010921B010E9425258160782F909355
:1005C0001D0180931C014091190150911A01609105
:1005D0001B0180911D010E9413064091140150914E
:1005E00015016091160170911701809118010E9408
:1005F00061028823A1F0109216010E9425258160D6
:10060000782F909318018093170140911401509115
:10061000150160911601809118010E941306409106
:100620000F015091100160911101709112018091A0
:1006300013010E9461028823A1F0109211010E940F
:1006400025258160782F90931301809312014091AA
:100650000F015091100160911101809113010E94CE
:10066000130640910A0150910B0160910C017091A9
:100670000D0180910E010E9461028823A1F0109269
:100680000C010E9425258160782F90930E018093A4
:100690000D0140910A0150910B0160910C01809174
:1006A0000E010E94130640910501509106016091D0
:1006B000070170910801809109010E94610288235D
:1006C000A1F0109207010E9425258160782F909358
:1006D0000901809308014091050150910601609144
:1006E0000701809109010E94130640910001509179
:1006F00001016091020170910301809104010E9447
:1007000061028823A1F0109202010E9425258160D8
:10071000782F909304018093030140910001509140
:10072000010160910201809104010C941306089567
:10073000811129C081E0662399F0809320010E94F5
:1007400025258160782F909322018093210140918B
:100750001E0150911F01609120018091220192C0E1
:10076000809325010E9425258160782F9093270191
:10077000809326014091230150912401609125012D
:10078000809127017FC0813041F5662399F08093E5
:1007900016010E9425258160782F9093180180937F
:1007A000170140911401509115016091160180913B
:1007B000180168C080931B010E9425258160782F55
:1007C00090931D0180931C014091190150911A01D1
:1007D00060911B0180911D0155C0823049F581E077
:1007E000662399F080930C010E9425258160782F63
:1007F00090930E0180930D0140910A0150910B01DD
:1008000060910C0180910E013DC0809311010E9406
:1008100025258160782F90931301809312014091D8
:100820000F015091100160911101809113012AC0B4
:10083000833051F581E0662399F0809302010E9494
:1008400025258160782F90930401809303014091C6
:10085000000150910101609102018091040112C0D8
:10086000809307010E9425258160782F90930901CC
:1008700080930801409105015091060160910701A4
:10088000809109010E94130681E0089581E0089596
:1008900081E008950C94480408950C944C041F932F
:1008A000CF93DF9300D000D01F92CDB7DEB749833E
:1008B0005A836B8330910C0289819A81311114C063
:1008C000662359F0222349F00E94FF0A182F682F4F
:1008D00089819A810E94A60A03C00E94D20A182F19
:1008E00069817A81812F04C00E94FF0A69817A811F
:1008F0000F900F900F900F900F90DF91CF911F915D
:100900000C948E1EFC01262F4081518162817381DF
:1009100084810C944F0481E00895CF93DF93EC0120
:1009200060E00E948204BE01DF91CF910C944D04DF
:10093000E1E0F0E0DF0102C0AA0FBB1F6A95E2F719
:10094000BD01DF0102C0AA0FBB1F4A95E2F7AD014E
:10095000462B01C0EE0F2A95EAF7942F98234913EE
:1009600002C08E2B0895E0958E230895242F462FE4
:10097000682F80911C020E9498040C94630A0E94C4
:10098000A4130E9409060C94D2130C94CE1308955C
:100990000E94F5090E94C7042FEF84E39CE02150D8
:1009A00080409040E1F700C000000C948E250F932A
:1009B0001F93CF93DF938C0161E00E948204EC01CE
:1009C000B8010E94DE1C882309F444C0B801CE019E
:1009D0000E944A048823F1F1B801CE010E94DB1F76
:1009E0008823C1F1B801CE010E942D20882391F106
:1009F000B801CE010E945F21882361F1F801828154
:100A0000882309F1CA358DE5D807C1F050F4C11526
:100A1000FCE5DF0781F0CE3DDC45A9F40E9484109F
:100A200019C0CB35EDE5DE0761F0CC35DD4559F475
:100A30000E94090F08C00E94C8040CC00E94120F37
:100A400002C00E94150FC801DF91CF911F910F9135
:100A50000C94460480E0DF91CF911F910F9108958F
:100A6000DF92EF92FF920F931F93CF93DF93E82FC4
:100A7000F0E0EE5EFD4FD490282F26952695269522
:100A800030E0F901EE54FD4F0491877010E0082E1C
:100A900002C0159507950A94E2F701701127F90134
:100AA000EE55FD4FE490F12C082E02C0F594E7942A
:100AB0000A94E2F791E0E922FF24F901EE56FD4F96
:100AC000C491D0E002C0D595C7958A95E2F7C17070
:100AD000DD270115110519F081EE0E946306E1146E
:100AE000F10419F086EE0E9463068D2D0E948C079A
:100AF000EF2819F086EE0E940D07012B19F081EE08
:100B00000E940D07CD2B51F08CE2DF91CF911F9108
:100B10000F91FF90EF90DF900C948C07DF91CF91B5
:100B20001F910F91FF90EF90DF900895EF92FF9249
:100B30000F931F93CF93DF93EC01162F0AE0888168
:100B4000882309F455C0813009F043C08981813080
:100B500041F47E0182E0E80EF11C8A810E948C073C
:100B600009C0823049F47E01E2E0EE0EF11C8A8178
:100B70000E946306E7012FC0833041F47E01F2E05A
:100B8000EF0EF11C8A810E940D07F4CF843011F022
:100B9000219621C02A81229680E090E030E0205307
:100BA00031092A30310558F4089FA001099F500DE2
:100BB0001124C901840F951F21962881EFCF00973A
:100BC00051F0EFE9FFE03197F1F700C00000019725
:100BD000F6CF0E9430052196812F882309F4AFCFEC
:100BE000EFE9FFE03197F1F700C000008150F5CF49
:100BF000DF91CF911F910F91FF90EF90089560E0EA
:100C00000C94960508950C94020681E008950C94C6
:100C100005060895CF93C82F0E9403068C2F0E94CB
:100C20000706CF910895CF93DF93CDB7DEB72B970B
:100C30000FB6F894DEBF0FBECDBF4F8358876987CC
:100C40007A878B8761110E94380F9E012F5F3F4F7B
:100C500086E0F90111928A95E9F785E0FE01379661
:100C6000D90101900D928A95E1F789819A814C8191
:100C70005D81452B31F09F3F31F491E08F3F19F4B6
:100C800003C091E001C090E090FF09C049815A8102
:100C90006B817C818D819E810E94380E05C0C901C7
:100CA0000E948B048111F2CF2B960FB6F894DEBF11
:100CB0000FBECDBFDF91CF910895FC01808191815E
:100CC0000E942C0B0895CF93882309F4A4C0C82F49
:100CD0008238C1F40E94B72381FD9DC069E38091F1
:100CE0002801909129010E9451240E946A0F2FEF40
:100CF00081EE94E0215080409040E1F700C0000078
:100D000069E319C0833801F50E94B72380FD83C0D1
:100D100063E580912801909129010E9451240E944D
:100D20006A0F2FEF81EE94E0215080409040E1F770
:100D300000C0000063E580912801909129010E9484
:100D40005324CF910C946A0F8438C1F40E94B723C6
:100D500082FD61C067E480912801909129010E9481
:100D600051240E946A0F2FEF81EE94E021508040C1
:100D70009040E1F700C0000067E4DDCF8CEF8C0FFE
:100D8000813AD0F46C2F80912801909129010E9422
:100D90001B24882349F06C2F809128019091290110
:100DA0000E9453240E946A0F6C2F80912801909119
:100DB00029010E945124C5CF80E28C0F883048F46D
:100DC000C77081E001C0880FCA95EAF70E941B0F27
:100DD000B8CFEBE5EC0FE33040F4F0E0EC54FE4F1D
:100DE000808190E0CF910C94E323E8E5EC0FE731AC
:100DF00050F4F0E0EE0FFF1FEA57FE4F8081918123
:100E0000CF910C94F923C03F30F08C2F0E94EE1844
:100E1000CF910C94C019CF910895882309F464C030
:100E2000823879F40E94B72381FF5EC069E3809124
:100E30002801909129010E9451240E946A0F69E3C0
:100E400010C08338B1F40E94B72380FF4DC063E522
:100E500080912801909129010E9451240E946A0FDB
:100E600063E580912801909129010E9453240C94FC
:100E70006A0F843879F40E94B72382FF35C067E493
:100E800080912801909129010E9451240E946A0FAB
:100E900067E4E7CF9CEF980F913A10F4682FE1CF09
:100EA00090E2980F983050F4877091E001C0990F4C
:100EB0008A95EAF7892F0E94210FD9CF9BE5980FD9
:100EC000933020F480E090E00C94E32398E5980FB1
:100ED000973120F480E090E00C94F923803F20F0DB
:100EE0000E9449190C94C01908951F93CF93DF9362
:100EF000182FEB010E946306209741F08FE99FE0D5
:100F00000197F1F700C000002197F6CF812FDF9104
:100F1000CF911F910C940D07893319F060E070E0B8
:100F200002C060E570E00C947507882321F00E94F0
:100F30001B0F0C946A0F0895882321F00E94210F43
:100F40000C946A0F0895CF92DF92EF92FF920F9365
:100F50001F93CF93DF937C01062FC72FFC01D28113
:100F6000158112951F700E94F00E882399F0DD23E1
:100F700089F08C2F807F803421F080E2800F8830D0
:100F800048F082E00E94BA0F0E94F00E91E0D82E45
:100F9000D92601C0D12CCC2EC2948FE0C8228C2D32
:100FA00090E0FC01EA5AFF4F0C942F2D8C2F807F8C
:100FB000CF70882311F0C295C07FDD2399F0CC2338
:100FC00009F460C180E2800F883010F0011104C084
:100FD0008C2F0E941B0F03C08C2F0E942B0F0E948E
:100FE0006A0F50C1802F0E940D07CC2309F46FC1F6
:100FF00080E2800F883010F0011104C08C2F0E9415
:10100000210F03C08C2F0E94310F0E946A0F5FC115
:101010008C2F807FCF70803211F0C295C07F00236B
:1010200019F00130C9F022C0DD2371F0112341F025
:10103000113031F40E944B0F8C2B0E94530F47C18B
:101040000E944B0F8C2B1DC0112319F0113009F495
:101050003EC10E94600F25C0DD2321F0163008F04C
:1010600036C10EC0153008F032C11BC0DD2361F05F
:10107000112331F0F701858180FF04C18F708583D2
:101080008C2F0E94950723C1112359F0093309F0D1
:101090000AC1FFEF27EE83E0F15020408040E1F7E6
:1010A00000C18C2F0E949C0712C18C2F86958695BB
:1010B000837019F0813061F00AC1DD2321F0802FA7
:1010C0009C2F937002C080E090E00E94E32307C150
:1010D000DD2321F0802F9C2F937002C080E090E0F0
:1010E0000E94F923FCC0802FDD2319F00E94EE1826
:1010F00002C00E9449190E94C019F1C08C2F837050
:1011000079F5D111E8C0402F429546954770440FBC
:10111000440F202F2F70042E01C0220F0A94EAF7EB
:1011200004FF08C08FE090E001C0880F4A95EAF7FD
:10113000809501C080E0C695C695C370822BC230F1
:1011400049F058F4C13019F00E94570AC4C00E94F7
:10115000520AC1C00E945C0ABEC00E94500ABBC0B5
:10116000DD2319F08C2F817001C08695882309F446
:10117000B2C0402F429546954770440F440F202F30
:101180002F70042E01C0220F0A94EAF704FF08C052
:101190008FE090E001C0880F4A95EAF7809501C082
:1011A00080E0C695C695C370822BC23049F058F4D2
:1011B000C13019F00E949B0A8EC00E94960A8BC013
:1011C0000E94A00A88C00E94630A85C0CF70DD23F8
:1011D00039F08C2F0E94740A802F0E9495077BC0E3
:1011E000802F0E949C078C2F0E947F0A74C0023FB0
:1011F00001F128F4003F41F0013FA1F03FC0033F5F
:10120000F9F0043F39F13AC0DD2341F0153008F020
:101210005EC08C2F8F710E948B0A59C0163008F067
:1012200056C0F7CFDD2339F08C2F8F710E94740ADE
:101230004EC0DD23C9F38C2F8F710E947F0A47C0F7
:10124000DD2329F08C2F8F710E946C0A40C00E9410
:10125000690A3DC0DD2349F0CF718C2F0E94740ACA
:1012600063E08C2F0E949F0F32C081E00E94BA0F72
:10127000123068F182E00E94BA0F29C0DD2331F0FC
:10128000112391F2802F0E94630621C0112399F24D
:10129000093349F49FEFE7EEF3E09150E040F0406E
:1012A000E1F700C00000802F0E940D0710C04C2FF6
:1012B0004F70602FC7010E9486110E945A0B0FC009
:1012C0004C2F4F70602FC7010E94891108C088EF12
:1012D0008C0D843020F40E94B7230E940A06DD2082
:1012E000C9F00E94EC0E80FD15C0F70112820E9429
:1012F000E60E0E94740AC7010E94AB090E94E60E26
:10130000DF91CF911F910F91FF90EF90DF90CF90E1
:101310000C947F0ADF91CF911F910F91FF90EF9076
:10132000DF90CF9008950F931F93CF93DF93EC013D
:10133000688179818A810E94370B8C010E94A50AFD
:101340000E94440AB801CE010E94A307DF91CF9109
:101350001F910F910895CF93DF93EC0198818981BC
:101360002B813C81232B31F08F3F31F481E09F3F73
:1013700019F403C081E001C080E080FD19C0CE01F6
:101380000E94D70481110CC00E94F00E882381F0C6
:101390008A81882369F082E0DF91CF910C94BA0FA3
:1013A000CE010E949309CE01DF91CF910C948D0460
:1013B000DF91CF91089580E090E00E94E32380E0E8
:1013C00090E00E94F9230E94380F0E94480F0E946B
:1013D0006A0F0E94F11A0C94C01980912801909113
:1013E00029010E9455240C94DB090E94280F0C94BB
:1013F000ED09E92FE295EF704E2F50E0FA01329798
:10140000EE30F105B0F4EA59FF4F0C942F2D803FD8
:1014100091F018F4883E68F40EC0843F51F40BC07C
:10142000883E48F0813F29F406C093FB882780F965
:10143000089580E0089581E00895FC018081918104
:101440000E942C0B0E94F9090895CF93DF9300D0DE
:1014500000D01F92CDB7DEB70F900F900F900F9076
:101460000F90DF91CF910895CF93DF9300D000D0FC
:1014700000D0CDB7DEB726960FB6F894DEBF0FBE0C
:10148000CDBFDF91CF910895089508950C94450A3A
:101490000C94460A0E94480A80931D020C94DB09B2
:1014A0000C944A0A90911D02892B0C944A0A90913F
:1014B0001D0289230C944A0A90911D0289270C94DD
:1014C0004A0A0C94450A0E94610A80931C020C94FB
:1014D000DB0980E00C94630A91E001C0990F8A95C2
:1014E000EAF7892F0C94630A21E030E001C0220F53
:1014F0008A95EAF780911C02822B0C94630A21E002
:1015000030E001C0220F8A95EAF7209580911C02F5
:1015100082230C94630A21E030E001C0220F8A95F7
:10152000EAF780911C0282270C94630A90911C02B6
:10153000892B0C94630A90911C0289230C94630AF2
:1015400090911C0289270C94630A089524E0929FCD
:10155000900D1124890FE82FE695E695E6958770A2
:1015600051E001C0550F8A95EAF783E0E89FF0014A
:101570001124E35FFD4F20E030E070E04081CB01BB
:10158000022E02C0969587950A94E2F781708195A4
:1015900084278523842781932F5F3F4F2330310594
:1015A00069F7089524E0929F900D1124890F682F08
:1015B000669566956695982F977083E0689FB00151
:1015C000112440E050E080E0FB01E40FF51FE35FF1
:1015D000FD4F208130E0092E02C0369527950A94F0
:1015E000E2F721703327042E01C0220F0A94EAF794
:1015F000822B4F5F5F4F4330510531F70895CF92F3
:10160000DF92FF920F931F93CF93DF936C010091B2
:101610001C0280911D02082BC7E0D0E010E0C80139
:101620000C2E02C0959587950A94E2F780FD04C0C0
:101630002197A8F7F12C07C0FC2EB6018C2F0E9431
:10164000AE120197A9F38F2DDF91CF911F910F91CA
:10165000FF90DF90CF900895CF93DF93EC010E942D
:10166000FF0ABE010E94AE12DF91CF9108951F9331
:10167000CF93DF93EB0190910C02992321F0CB01E2
:101680000E942C0B13C0882349F0CB010E94FF0A53
:10169000182F682FCE010E94A60A04C0CB010E9419
:1016A000D20A182FBE01812F0E94AE12DF91CF9176
:1016B0001F910895EF92FF920F931F93CF93DF93A3
:1016C0008C01892B09F46CC0F12CEE24E394E80121
:1016D0002196F8018491843740F4843008F051C099
:1016E000813081F0823019F15BC0853709F444C044
:1016F000A8F19CE7980F903708F052C08F770E94AE
:101700000D0741C00E5F1F4FFE01849190E2980FBC
:10171000983050F48770FE2D01C0FF0F8A95EAF7CC
:101720008F2F0E943B0F14C00E9463062DC00E5FD6
:101730001F4FFE01849190E2980F983060F48770FB
:10174000FE2D01C0FF0F8A95EAF78F2F0E94410FEF
:101750000E946A0F19C00E940D0716C00E5F1F4F2E
:10176000FE01C491CC2381F08FE99FE00197F1F74E
:1017700000C00000C150F6CF0E5F1F4FFE01F49075
:1017800003C00E9463068E018F2D882309F49FCF2A
:10179000EFE9FFE03197F1F700C000008150F5CF8D
:1017A000DF91CF911F910F91FF90EF9008951F93BC
:1017B000CF93DF93C0911E0216E080911F02C817DD
:1017C00099F0D0E01C9FF0011D9FF00D1124E05E08
:1017D000FD4F4081518162817381848195810E9496
:1017E000340A2196C770E9CFDF91CF911F910895F8
:1017F00040915002509151026091520270915302F7
:1018000080915402909155020C94340A0F931F93C7
:10181000CF93DF938091550282958F7009F05DC060
:1018200080915202882309F458C080911E021091C1
:101830001F026091500270915102C0915302D091E9
:10184000540291E06F3F09F090E0292F06E08117E4
:1018500009F443C0209721F07F3F21F030E003C01E
:1018600031E001C0322F90E030FD34C0089FF0011C
:10187000099FF00D1124DF01A05EBD4F11963C9130
:101880001197371327C03C91361324C012963C9110
:10189000129731111FC013964D915C9114974C1BF8
:1018A0005D0B483C5105B0F4809155028F7080610A
:1018B00080935502EB5DFD4F80818F708061808346
:1018C00080E592E00E94AB09DF91CF911F910F91CB
:1018D0000C94D70B01968770BACFDF91CF911F91EF
:1018E0000F9108959F92AF92BF92CF92DF92EF92A5
:1018F000FF920F931F93CF93DF93CDB7DEB761971E
:101900000FB6F894DEBF0FBECDBF8C0185E0F801A5
:10191000DE011D9601900D928A95E1F7F801E280B3
:1019200090915002609151022091530230915402E3
:101930002115310531F06F3F31F481E09F3F19F4FB
:1019400003C081E001C080E0F82FF1709F2E80FD80
:101950003FC1F80140815181A380B48080E5C82E49
:1019600082E0D82EF0905202F501E21BF30BFF202B
:1019700009F4D9C080915502E83CF10508F095C002
:10198000282F207F09F052C0561313C0491311C0ED
:10199000FE2CE1100EC08F708061809355020E9472
:1019A000F80BC6010E94AB0980915502F8018583AE
:1019B0004CC1AB2831F05F3F31F481E04F3F19F467
:1019C00003C081E001C080E080FD03C081E08E257E
:1019D00002C080E090E0F82FF170FF2E80FF1CC065
:1019E00080911E0220911F0236E0821709F40BC17C
:1019F00090E0389FF001399FF00D1124E05EFD4F1B
:101A00006181561306C06081461303C06281E612ED
:101A100003C001968770E9CFFE2CEE2009F415C1B2
:101A20008091550281608093550254C0561306C0C0
:101A3000491304C0E11002C0F80199C0C8010E9416
:101A40001D0A882361F1EE2051F120915502822F69
:101A500082958F7090E0029774F08091500290917F
:101A6000510298878F831986BB86AA862C87CE0160
:101A700007960E94AB0986E0F801A0E5B2E001906C
:101A80000D928A95E1F70E94060C0E94F80B0AC09D
:101A9000561711F1C8010E941D0A81112CC0C801FE
:101AA0000E94AB09FF24F394D0C0282F207F81F738
:101AB0007A2DB98AA88A6E2D89890E94250A80E527
:101AC00092E00E94AB0986E0F60111928A95E9F74F
:101AD0000E94F80BF12CB9C04913DCCFE110DACF2A
:101AE000F8018583C8010E94AB0986E0F6011192D6
:101AF0008A95E9F7AAC0EE2091F220915502822F33
:101B000082958F7090E002970CF4B5CF80915002CF
:101B1000909151029A8389831B82BD82AC822E836D
:101B2000CE010196A6CFE83CF10508F044C0FE2C9A
:101B3000EE2009F4B4CF561330C049132EC02091C3
:101B4000550220FD21C0822F82958F70482F50E0D2
:101B500041155105C9F0F80125834F30510541F079
:101B60008F5F982F9295907F822F8F70892B85831E
:101B7000C8010E94AB0986E0F801A0E5B2E001903F
:101B80000D928A95E1F73CC086E0F801A0E5B2E04D
:101B900001900D928A95E1F758C0C8010E941D0A74
:101BA000811169CF80915502816080935502C801EF
:101BB0000E94AB094AC07A2DB98AA88A6E2D8989FC
:101BC0000E94250A86E0F60111928A95E9F718C06D
:101BD000EE2009F464CFC8010E941D0AF82E882364
:101BE00009F45DCF86E0F801A0E5B2E001900D9226
:101BF0008A95E1F780E592E00E945D060E94060C5E
:101C00000E94F80B22C04D875E878D859E850E94BD
:101C10002C0B292F22952F70223028F49F7039F039
:101C2000811105C00BC0243028F49F7049F4805EF8
:101C3000883020F0C8010E94AB099F2CF92C05C008
:101C4000F8019581907F99F7F9CF8F2D61960FB6A6
:101C5000F894DEBF0FBECDBFDF91CF911F910F91E2
:101C6000FF90EF90DF90CF90BF90AF909F9008953E
:101C70001F93CF93DF93CDB7DEB72C970FB6F894B1
:101C8000DEBF0FBECDBF4F83588769877A878B87AA
:101C90009C87CE0107960E94720C8823D1F09F8109
:101CA00088852A853B85232B31F08F3F31F481E0F5
:101CB0009F3F19F403C081E001C080E080FD47C070
:101CC0004F81588569857A858B859C850E94340A69
:101CD0003EC086E0FE013796DE01119601900D921E
:101CE0008A95E1F7FF81E8856A857B856115710535
:101CF00031F0EF3F31F481E0FF3F19F403C081E0A0
:101D000001C080E080FD23C020911F0230E0C901A6
:101D100001968770992740911E0250E0841795071D
:101D2000F1F1F983EA837D836C8396E0929FD00181
:101D3000939FB00D1124A05EBD4FFE01319601901E
:101D40000D929A95E1F780931F020E94D70B16E03F
:101D500080911E0290911F02891771F1189FC00196
:101D60001124805E9D4F0E94720C882329F1E0911E
:101D70001E021E9FF0011124E05EFD4F4081518143
:101D800062817381848195810E94340A80911E0250
:101D900090E001968770992780931E02D9CF0E9408
:101DA000F50910921F0210921E02E0E5F2E086E0B3
:101DB000DF011D928A95E9F72C960FB6F894DEBFE5
:101DC0000FBECDBFDF91CF911F9108958091560234
:101DD000859585958595089580915602877008951B
:101DE00090915602977081E009F480E008959091F7
:101DF000D10292FB222720F9281751F080FB92F99B
:101E00009093D1028091D0029091D1020C94011054
:101E100008958091D10282FB882780F991E089277B
:101E20000C94F70E81E00C94F70E80E00C94F70E02
:101E300080916202089590916202892B80936202E0
:101E4000089580959091620289238093620208959B
:101E500010926202089590916102892B8093610231
:101E6000089580959091610289238093610208957D
:101E700010926102089590916002892B8093600214
:101E8000089580959091600289238093600208955F
:101E900010926002089580915702089508950C945D
:101EA0004E0F0C944F0F9091D10292FD08C090916B
:101EB0005702981721F0809357020C94510F089500
:101EC00080915702882329F01092570280E00C94E9
:101ED000510F0895E0912801F0912901809162024B
:101EE0008083E0912801F091290190818091610225
:101EF000892B8083E0912801F091290190818091C4
:101F00006002892B808380915702882381F0E091C1
:101F10002801F09129019081892B808380912801EB
:101F2000909129010E940F2481110E94600F8091DD
:101F30002801909129010C94CA230C944E0F909182
:101F4000D10292FD10C098E0899F90011124262BA8
:101F5000209356020E94740A8091560285958595B9
:101F600085950C949D0F0C94740A1092560280E093
:101F70000C949D0F209156028095822380935602E7
:101F8000982F977041F430E0482F082E000C550B25
:101F90002417350721F49091D10292FF07C085954F
:101FA000859585950E947F0A0C94B50F08956FEF73
:101FB0007FEF80E090E00C94922D80E090E00E9412
:101FC0006E2D893E9E4F11F40C94811C80E0089583
:101FD00082E090E00C94662D83E090E00C94662DF6
:101FE000CF9384E090E00E94662DC82F82E290E0BB
:101FF0000E94662D2C2F30E0A901582BCA01CF91E9
:102000000895CF93C92F682F84E090E00E94742D2B
:102010006C2F82E290E0CF910C94742DAB01BC0147
:102020008FE090E00C94862DAB01BC0183E190E041
:102030000C94862D60E070E0CB010C94141060E0ED
:1020400070E0CB010E940E100C941A1069EE7EEF26
:1020500080E090E00E94922D60E082E090E00E949B
:10206000742D60E083E090E00E94742D10921D02B8
:1020700060E084E090E00E94742D60E082E290E0F5
:102080000E94742D60E085E090E00E94742D60E075
:1020900086E090E00E94742D6FEF87E090E00E9450
:1020A000742D40E050E0BA0188E090E00E94862D57
:1020B00060E08DE090E00E94742D40E050E0BA01B5
:1020C00088E190E00E94862D60E087E190E00E9428
:1020D000742D40E050E0BA018CE190E00E94862D22
:1020E00060E070E080E290E00E94922D40E050E0DD
:1020F000BA0188E190E00E94862D80E00E949A1C3F
:102100000E94C61C0C941F100C942610682F8EE0A1
:1021100090E00C94742D0E943125609374027093AA
:1021200075028093760290937702609370027093A9
:102130007102809372029093730208950E94312578
:102140006093740270937502809376029093770285
:1021500060936C0270936D0280936E0290936F0295
:10216000089585B7806885BF85B7806885BF089565
:102170000C94C51508950C94BA100C94BA100C94D4
:10218000BD100C94BA100C94C1100C94BA100E949B
:10219000B1108AE893E10E949F250E94C5100C941B
:1021A000C3100E94BB100C94BA100E941C250E9400
:1021B0005C240E94D51C0E9482140E94501F0E9421
:1021C000011B0C94BF109F92AF92BF92CF92DF92EF
:1021D000EF92FF920F931F93CF93DF93CDB7DEB7AC
:1021E0002A970FB6F894DEBF0FBECDBF0E943A15F6
:1021F00081110E948B1084E6A82E82E0B82E00E0A8
:1022000010E0902E802F0E94BE13D82EF501C190B1
:102210005F01C826B1F40F5F1F4F0830110589F721
:102220008FEF89838A831B820E9425258160782F06
:102230009D838C8349815A816B818D810E94130615
:102240002FC08091780281FD0E94C413E12CFF24ED
:10225000F3948C2D8F21F1F00E94B810882399F00F
:10226000EE829F82DF2081E009F480E088870E946F
:1022700025258160782F9A8789874E815F816885BF
:102280008A850E941306F801EC59FD4F8081F826DB
:10229000F08206C0E394FF0CF5E0EF12DACFBBCF7B
:1022A0000E94821B81110E949E100E94DE190E94D2
:1022B000B723909163028917B9F00E94B7238093E6
:1022C00063022A960FB6F894DEBF0FBECDBFDF9132
:1022D000CF911F910F91FF90EF90DF90CF90BF9023
:1022E000AF909F900C940A062A960FB6F894DEBF22
:1022F0000FBECDBFDF91CF911F910F91FF90EF9057
:10230000DF90CF90BF90AF909F90089580E090E0D5
:1023100008950895880F991FFC01EE53FD4F859194
:1023200094910895CF93DF930E94B312EC0181152D
:1023300020E5920708F03FC0811540E4940708F0BB
:10234000D2C0883E910500F5803E910508F002C19B
:10235000883A910570F4853A910508F0A6C081305D
:10236000910509F49FC008F4F2C0049708F0F2C088
:10237000EEC08F3B910508F4A1C0803C910508F4A4
:10238000E6C0805C9109A5C0811550E2950760F414
:10239000C11581E0D80708F0DDC0C03FD10508F4C1
:1023A000D6C0CE019065D7C0811520E3920708F012
:1023B00093C09F708EC0811545E5940708F046C014
:1023C000811554E5950708F0A6C0C11582E5D80728
:1023D00018F5C11521E5D20708F088C0CE01F4E058
:1023E00096958795FA95E1F7282F23703C2F337047
:1023F00081E090E002C0880F991F3A95E2F79C684F
:10240000922B2C2F2F702695269540E2249F900129
:102410001124822B932B9FC09E01237033279C2F66
:1024200096959695C115D34508F065C041E050E0FA
:1024300002C0440F551F2A95E2F780E2989F900151
:102440001124CA01822B932B9C6885C0811559E504
:10245000950798F4C11588E5D80708F061C0C11543
:1024600026E5D20708F073C08C2F0E9447138F71A6
:1024700090E0982F882790626EC081154AE59407F6
:1024800008F453C090568115904208F060C08D2F1B
:102490008F710E9447139E01332730628F71A9010B
:1024A000582B53C081E090E056C0855AC82FD0E029
:1024B000CB51DE4F888190E090644DC0885AC82F80
:1024C000D0E0CC0FDD1FC954DE4F88819981946420
:1024D00042C00E948A113FC09927D3FF02C0986C66
:1024E0003AC0906C38C09F70906A35C09C2F882786
:1024F000816F906A30C041E050E002C0440F551F28
:102500002A95E2F780E2989F90011124CA01822B5C
:10251000932B9A6820C0982F8827846F906A1BC0DD
:102520009C2F8827806F906A16C08F700E94471377
:102530009E0194E0369527959A95E1F72F7030E04B
:10254000322F22273069A901482BCA0104C080E03C
:1025500090E001C0CE01DF91CF9108950E948E1EC0
:102560000E94921108958238910569F1B0F4813387
:10257000910509F46DC048F48932910509F463C0EE
:102580008A32910509F469C008958533910509F4EB
:1025900055C089339105B9F00895833E910569F1DD
:1025A00038F4803E9105B1F0823E910509F108951D
:1025B000863E9105A9F1873E9105B9F1843E9105CA
:1025C00009F064C023C02091D00220FD4FC021FD3E
:1025D0004DC008958091D00280FD44C08091D10209
:1025E00080FF44C08091D00284FD42C083EE4DC084
:1025F0008091D00282FF38C0F5CF8091D00282FD59
:1026000033C08091D10280FD31C0ECCF8091D102E6
:1026100081FF32C08091D00284FD2AC087EE35C090
:102620008091D00283FF26C0F5CF8091D00283FD38
:1026300021C08091D10281FD1FC0ECCF8091D002DA
:1026400085FD1CC01DC08091D00285FD19C016C03B
:102650008091D00286FD16C017C08091D00286FD01
:1026600013C010C089E311C082EE0FC080EE0DC010
:1026700080E00BC086EE09C084EE07C089E205C089
:1026800085E303C08AE201C081E390E00895909160
:10269000D00292FF0DC0282F2871283019F4877FAF
:1026A000846006C0282F2471243011F48B7F886049
:1026B00093FF0DC0282F2871283119F4877E84617B
:1026C00006C0282F2471243111F48B7E886120915B
:1026D000D10220FF0DC0382F3871383019F4877FB0
:1026E000816006C0382F3171313011F48E7F8860DF
:1026F00021FF0DC0282F2871283119F4877E8161B0
:1027000006C0282F2171213111F48E7E886194FD3D
:10271000877E089580E008950C94D70F0E943A15A3
:102720008FE39CE90197F1F700C000000E943A1581
:1027300080E00E94BE1380FF04C00E948C130C94A2
:102740008E2508950C948E130E94DD0F811102C016
:102750000E9484100E94E80F809378020E94F00F7C
:102760009093D1028093D0020E94A2130E94EC0F9A
:102770000E94500A80911C020C94610AE82FF0E03C
:10278000E652FD4F80810895089580EA8A95F1F719
:10279000089500C008950C94C51308950C94870201
:1027A0000C94CD130C94D013F894E82FE295EF70AD
:1027B000F0E031A1282F2F7081E090E001C0880F58
:1027C0002A95EAF7982F9095932391A392A1892BAC
:1027D00082A37894089508950C94EB130F931F939C
:1027E000CF93DF93CAE2D1E089918F3F11F00E942D
:1027F000D41381E0CF32D807B9F7CFE2D1E003E3B9
:1028000011E089918F3F11F00E94D4130C171D071E
:10281000C1F7DF91CF911F910F910895DF92EF9251
:10282000FF920F931F93CF93DF93062F10E0065D67
:102830001E4FE80128812F3F09F45CC0F62EE92ED7
:10284000D82EF894E22FE295EF70F0E081A12F707E
:10285000C1E0D0E0AE0102C0440F551F2A95E2F757
:102860009A01842B81A382A12095282322A3789406
:102870000E94C9130F2C01C0CC0F0A94EAF73C2F19
:102880006C2F6095AFE2B1E0ED2DFE2DAF014C5FF6
:102890005F4FE12C2D912F3FA9F0822F82958F70F1
:1028A00090E0EC0188A190E02F7002C0959587958B
:1028B0002A95E2F780FD06C08081832B8083EE2479
:1028C000E39403C08081862380833196E417F50763
:1028D00009F7F80180818F3F11F00E94D4136E2D0B
:1028E0008F2DDF91CF911F910F91FF90EF90DF908F
:1028F0000C94CB13DF91CF911F910F91FF90EF902C
:10290000DF900895CF93DF93CDB7DEB72D970FB645
:10291000F894DEBF0FBECDBF0E94DF158091370156
:1029200081112FC0FE01319628E0DF011D922A950A
:10293000E9F725E3298324E32A8321E32B8327EF87
:102940002C83CF01EFE2F1E09E01275F3F4FDC01D6
:102950004D91CD014193A217B307C9F725E0E1E8F6
:10296000F1E0DE01199601900D922A95E1F7FC0144
:10297000AAE2B1E0CE010E9621912D93E817F90756
:10298000D9F780913701811102C094E001C090E035
:102990009093E30284E0891B8093E2020E94EE138D
:1029A000E2EDF2E0AAEDB2E011921D9282E0EA3D82
:1029B000F807D1F784E00E948E150E94BF042D967F
:1029C0000FB6F894DEBF0FBECDBFDF91CF910C9450
:1029D000E9151F93CF93DF9300D000D0CDB7DEB7BA
:1029E0000E94C5156091E302882371F119821A8251
:1029F0001B821C82862F90E0BE016F5F7F4F865244
:102A00009D4F0E94F715E091E2029E012B5F3F4F20
:102A1000F0E0E652FD4FDE011196882361F010E0F0
:102A20008D919081981711F0808311E03196A21753
:102A3000B307B1F706C011921D92A217B307D9F7D9
:102A400011E00E94C5040DC070E066527D4F809178
:102A5000E20290E086529D4F0E9487160E94EC137E
:102A600010E0812F0F900F900F900F90DF91CF917A
:102A70001F910895EF92FF920F931F93CF93DF93CF
:102A8000CDB7DEB728970FB6F894DEBF0FBECDBF27
:102A90008E010F5F1F4F88E0F80111928A95E9F7C8
:102AA000F12C6F2DC8010E940E14F394F5E0FF1273
:102AB000F8CF48E050E0B80182ED92E00E94502D3E
:102AC0007C0121E0892B09F420E0E114F10441F0BC
:102AD00088E0F801A2EDB2E001900D928A95E1F74D
:102AE0006091E30270E066527D4F44E082ED92E037
:102AF0000E948F15EF2819F40E94E91402C081E0AA
:102B000090E028960FB6F894DEBF0FBECDBFDF91E0
:102B1000CF911F910F91FF90EF9008950895FF922C
:102B20000F931F93CF93DF938C01F62ED72FC42FD3
:102B3000222349F081E080937B020E942525909317
:102B40007A028093790280917B028823C1F0809180
:102B5000790290917A020E943D25059780F0EF2D31
:102B6000FD2FD8014C2F50E0CD01801B910B841715
:102B700095071CF48D918193F7CF10927B02DF9122
:102B8000CF911F910F91FF90089580917E02811146
:102B90000DC00E940E2D811102C082E001C081E0B3
:102BA00080937E02823011F40E94092D81E0909181
:102BB0007E02913009F080E008950C94C5150E94C2
:102BC000DD15809337010E94C51581110C942F16D5
:102BD00008950E94C515811102C00C943116089504
:102BE00081E090917F029A3008F080E008950F9381
:102BF0001F93CF93DF93EC018B0180917F028A308A
:102C000038F4B801CE010E94851681111DC00AC09A
:102C100080917C0290917D020E943D25843F9140ED
:102C200080F715C080917F028F3F19F08F5F8093EE
:102C30007F0280917F028A3060F00E942525909368
:102C40007D0280937C0203C010927F0202C080E06C
:102C500001C081E0DF91CF911F910F9108950C94F5
:102C6000ED210C94F021EF92FF920F931F93CF93DD
:102C7000DF937901C82F880FDD0B41155105A9F0AD
:102C80008AE08C9FF0018D9FF00D1124E85CFE4FCF
:102C90008381948180589D4F228130E042175307F1
:102CA00008F49A01A9010E945D2DCE010E94FA222A
:102CB000892B09F50115110501F18AE08C9FF001BE
:102CC0008D9FF00D1124E85CFE4F458150E0041704
:102CD000150708F4A8018AE08C9FF0018D9FF00D84
:102CE0001124E85CFE4F6681778160587D4FC701F3
:102CF0000E945D2D02C080E001C081E0DF91CF9194
:102D00001F910F91FF90EF9008950C94EA170C9487
:102D10000E180F931F93CF93DF9300D000D0CDB741
:102D2000DEB760919C0270919D0280919E0290910D
:102D30009F020E944C25643671058105910528F19A
:102D40000E948224DC01CB010296A11DB11D898362
:102D50009A83AB83BC8300E010E020E030E044E0E5
:102D600050E0BE016F5F7F4F84E00E943316182F42
:102D7000882361F00E94312560939C0270939D022C
:102D800080939E0290939F0201C011E0812F0F90CB
:102D90000F900F900F90DF91CF911F910F91089599
:102DA0007F928F929F92AF92BF92CF92DF92EF92DB
:102DB000FF920F931F93CF93DF931F92CDB7DEB790
:102DC000762E4A015901680101E010E09E012F5F53
:102DD0003F4F40E050E060E070E00E943316182F53
:102DE000882379F1F40160817181828193810E944D
:102DF0004C256436710581059105E0F08701950148
:102E000040E050E060E070E0872D0E943316182FFC
:102E1000B701C6010E94511F91E02981281390E05B
:102E20001923A1F00E943125F4016083718382830C
:102E300093830CC0B701C6010E94511F9981891369
:102E4000DDCFA701B601C5010E945D2D812F0F9036
:102E5000DF91CF911F910F91FF90EF90DF90CF9076
:102E6000BF90AF909F908F907F900895EF92FF92C8
:102E70000F931F93CF93DF9300D0CDB7DEB70091B0
:102E8000E8011091E9010A5F1F4F82E0E82EF12C62
:102E90009E012F5F3F4F48E952E063E082E00E94CD
:102EA000D016182F882321F0CE0101960E94311CE4
:102EB000812F0F900F90DF91CF911F910F91FF9075
:102EC000EF900895CF92DF92EF92FF920F931F93AE
:102ED000CF93DF9300D000D0CDB7DEB76B01009168
:102EE000E8011091E9010F5F1F4F84E0E82EF12CFB
:102EF0009E012F5F3F4F44E952E061E080E00E9475
:102F0000D016882361F049815A816B817C8140937E
:102F100090025093910260939202709393024091B9
:102F20009002509191026091920270919302F60189
:102F300040835183628373830F900F900F900F90A3
:102F4000DF91CF911F910F91FF90EF90DF90CF9085
:102F50000895AF92BF92CF92DF92EF92FF920F93BC
:102F60001F93CF93DF937C015B016A010E94F015F0
:102F7000811103C001E010E002C00AE010E0C1E0EE
:102F8000D0E0F894B501C701F60109957894811154
:102F900015C021960C171D0794F0CC9F9001CD9F72
:102FA000300D300D112480E090E045E34A95F1F7B3
:102FB0000000019682179307C1F7E3CF81E0DF910C
:102FC000CF911F910F91FF90EF90DF90CF90BF9026
:102FD000AF9008950F931F93CF93DF93EC018B0174
:102FE00042E657E10E94A917882391F046E357E192
:102FF000B801CE010E94A917882351F049E856E193
:10300000B801CE01DF91CF911F910F910C94A917B8
:1030100080E0DF91CF911F910F9108950F931F933F
:10302000CF93DF9300D0CDB7DEB7F8940091E801DD
:103030001091E901C801019624E0FB01DC01019037
:103040000D922A95E1F764E070E00E94511FF801AB
:1030500080837894F894CE0101960E94261C898181
:103060009A81F8019783868362E070E0CE01019631
:103070000E94511FF80185837894F89460857185CA
:103080008285938500918C0210918D0220918E0291
:1030900030918F02601771078207930751F0609398
:1030A0008C0270938D0280938E0290938F020E9407
:1030B000652478940F900F90DF91CF911F910F911D
:1030C00008950E949D240E9433270E944C270E944D
:1030D0005E270E94D110FBCF8091A60280FF0BC01B
:1030E00060916F0185E0689FB00111247595679527
:1030F000759567952BC081FF09C060916F0185E0D0
:10310000689FB00111247595679520C082FF07C0A4
:1031100060916F0185E0689FB001112417C0909104
:10312000A5029923D1F060916E01961788F720913E
:103130006F0185E0289F90011124929FA001939F29
:10314000500D112470E0CA010E941B2D60387105DA
:1031500040F46115710519F406C065E070E0862F32
:1031600008958FE7089581E008958091A60280FF79
:1031700008C060916B0170E07595679575956795CE
:1031800021C081FF06C060916B0170E07595679565
:1031900019C082FF04C060916B0170E010C0909173
:1031A000A402992399F060916A019617A0F7809183
:1031B0006B01899FC001112470E00E941B2D6038B3
:1031C000710540F46115710519F406C061E070E005
:1031D000862F08958FE7089581E00895803F21F4B8
:1031E0000E946C18819504C0813F29F40E946C18DC
:1031F0008093AA020895823F21F40E946C18819561
:1032000004C0833F29F40E946C188093A90208959A
:10321000893F19F40E94B51805C08A3F31F40E9415
:10322000B51881958093AB0208958B3F21F40E94DD
:10323000B518819504C08C3F29F40E94B51880937D
:10324000AC0208959CE0980F953078F421E030E0CE
:10325000A90102C0440F551F9A95E2F7CA01909147
:10326000A802892B8093A80208958D3F21F48091B4
:10327000A60281600BC08E3F21F48091A60282607D
:1032800005C08F3F29F48091A60284608093A60236
:103290000895803F39F49091AA0297FF35C01092AB
:1032A000AA0259C0813F29F49091AA021916BCF3D1
:1032B0002BC09091A902823F29F497FF25C010925C
:1032C000A90249C0833F19F41916CCF31DC090918F
:1032D000AB02893F29F41916BCF41092AB023BC033
:1032E0008A3F19F497FF10C0F8CF8B3F39F49091C3
:1032F000AC0297FF09C01092AC022DC08C3F21F4A4
:103300009091AC021916BCF39CE0980F953080F4B4
:1033100021E030E0A90102C0440F551F9A95E2F761
:10332000CA0180959091A80289238093A80213C0B6
:103330008D3F21F48091A6028E7F0BC08E3F21F439
:103340008091A6028D7F05C08F3F29F48091A6024F
:103350008B7F8093A6028091A902811106C0809183
:10336000AA02811102C01092A5028091AB028111C4
:1033700006C08091AC02811102C01092A40208958F
:103380000E9425252091A902211104C02091AA02A2
:10339000222321F09093A3028093A2022091AB02FA
:1033A000211104C02091AC02222321F09093A102AC
:1033B0008093A00287EA92E00C94D523EF92FF92CB
:1033C0000F931F93CF93DF9300D000D000D0CDB7E1
:1033D000DEB786E0E7EAF2E0DE01119601900D9299
:1033E0008A95E1F7E090A902F090AA020091AB0261
:1033F0001091AC021092A9021092AA021092AB0294
:103400001092AC02E11003C0FF2009F45DC080916E
:10341000A2029091A3020E943D25AC019091A502C9
:10342000992339F02091700130E02417350758F0C6
:103430004BC0209171018AE0289F9001112424172C
:10344000350718F041C09F3F19F09F5F9093A50288
:10345000EE2061F00E946C181E1414F09FEF01C062
:1034600091E0989F902D11249093A902FF2061F084
:103470000E946C181F1414F09FEF01C091E0989FF8
:10348000902D11249093AA023091A9023323E1F0E8
:103490002091AA022223C1F045EB3403C00111247C
:1034A000992319F09093A90203C081E08093A902A7
:1034B00035EB2303C0011124992319F09093AA023C
:1034C00003C081E08093AA02011103C0112309F413
:1034D0005DC08091A0029091A1020E943D25AC01A7
:1034E0009091A402992339F020916C0130E02417C7
:1034F000350758F04BC020916D018AE0289F90015C
:1035000011242417350718F041C09F3F19F09F5F21
:103510009093A402002361F00E94B518101614F0D5
:103520009FEF01C091E0989F902D11249093AB02E2
:10353000112361F00E94B518111614F09FEF01C01D
:1035400091E0989F902D11249093AC023091AB02A2
:103550003323E1F02091AC022223C1F045EB340388
:10356000C0011124992319F09093AB0203C081E0AC
:103570008093AB0235EB2303C0011124992319F08A
:103580009093AC0203C081E08093AC028091A902C9
:1035900081110BC08091AA02811107C08091AB02FA
:1035A000811103C08091AC0281110E94C019EB828D
:1035B000FC820D831E8386E0FE013196A7EAB2E00D
:1035C00001900D928A95E1F726960FB6F894DEBF2A
:1035D0000FBECDBFDF91CF911F910F91FF90EF9064
:1035E0000895E7EAF2E086E0DF011D928A95E9F7A7
:1035F0001092A5021092A4021092A60208950C94B3
:103600009803FF920F931F93CF93DF93809137011D
:1036100081110CC087E98093740186EC809372015C
:1036200084E98093750186E680937301C5EBD2E04F
:1036300024E731E042E751E061E070E0F2E0C73BAF
:10364000DF0709F44CC0F90101919F01A02FA29559
:10365000AF70B0E09196EC9191970F70CB01002E76
:1036600001C0880F0A94EAF7982F90959E239196AF
:103670009C93919792969C919297892B92968C937A
:103680009297FA011191AF01E12FE295EF70F0E00E
:10369000F1A01F70CB01012E01C0880F0A94EAF738
:1036A000982F90959F2191A392A1892B82A3909608
:1036B0008C9190E002C0959587950A95E2F781700C
:1036C000E0A1F0E002C0F595E7951A95E2F7E0FD7C
:1036D00002C090E001C092E0892B8993AFCF809126
:1036E0003701811102C092E001C090E09093AE02D8
:1036F00082E0891B8093AD02DF91CF911F910F91E2
:10370000FF9008953F924F925F926F927F928F92B7
:103710009F92AF92BF92CF92DF92EF92FF920F9360
:103720001F93CF93DF9385EB882E82E0982E94E74A
:10373000E92E91E0F92E02E711E0C3EBD2E064013B
:103740005401412C312C24E0622E712CD501ED91D5
:103750005D014E2F440F440FF60141936F01D701D5
:103760002D917D01E22FE295EF70F0E080A190E0D5
:103770002F7002C0959587952A95E2F78170992759
:10378000F80151918F01E52FE295EF70F0E020A153
:1037900030E05F7002C0359527955A95E2F7F90140
:1037A000E170FF2720FF02C0E2E0F0E0E82BF92BF8
:1037B000E42BD401ED934D015090AE02540CEF7008
:1037C000F0E0E651FE4F90818881890F8883843034
:1037D0006CF0E52DF0E0E155FD4F80818F5F808337
:1037E00060E0852D0E94FF1A21E001C020E0888161
:1037F0008D3F64F4E52DF0E0E155FD4F808181506F
:10380000808361E0852D0E94FF1A21E08881082EC7
:10381000000C990BB3010E941B2D8993322A43940B
:10382000B2E04B1293CF832DDF91CF911F910F9177
:10383000FF90EF90DF90CF90BF90AF909F908F90D0
:103840007F906F905F904F903F900895E091AE020F
:10385000F0E0E155FD4F20813181FC01318320836F
:103860000895CF92DF92EF92FF920F931F93CF9321
:10387000DF936C01F12C80E0D091AD02DF0DF601F9
:10388000C1916F010D2F10E001551D4FF80190817E
:10389000C91BEC2E1E145CF4EA94F80180818F5F42
:1038A000808360E08D2F0E94FF1A81E0F3CF9C2F70
:1038B000C7FD90E0C91BCC2359F0CF5FF801808190
:1038C0008150808361E08D2F0E94FF1A81E0F3CF49
:1038D000F394F2E0FF12D0CF882351F0DF91CF9123
:1038E0001F910F91FF90EF90DF90CF900C949E105E
:1038F000DF91CF911F910F91FF90EF90DF90CF90CC
:10390000089583E290E00E94662D823281F484E281
:1039100090E00E94662D883051F485E290E00E948C
:10392000662D91E0853009F090E0892F01C080E09C
:1039300081700895CF93C82F811102C06FEF01C02D
:1039400062E283E290E00E94742DC11102C06FEF29
:1039500001C068E084E290E00E94742DC11102C0B1
:103960006FEF01C065E085E290E0CF910C94742D7B
:10397000089586E290E00E94662D682F70E080E056
:1039800090E0089586E290E00C94742D80E00E940F
:103990009A1C60E070E0CB010E94C21C0E94091ECC
:1039A0000E94E81E81E00C949A1C0E94B81C0E94A0
:1039B000811C811102C00C94C61C0895CF93FB0199
:1039C000C281CC23E9F09C0122513F4520313105D1
:1039D00020F482510E94F81E0CC08031FFE59F0741
:1039E00051F481E00E94740A43E062E081E00E94A9
:1039F000B604C0E018C081319F45A9F482E0F2CF3F
:103A00008031EFE59E0711F481E004C081319F45CC
:103A100049F482E00E947F0A43E062E081E00E9474
:103A2000B60401C0C1E08C2FCF9108952FEFFC01A7
:103A300020830895EF92FF920F931F93CF93DF930C
:103A4000EC01062FE8818E2F90E0FC013197E331E5
:103A5000F10508F091C0EC58FF4F0C942F2D1982FE
:103A600089E04DC08981823039F0833061F0813046
:103A700029F50E94312502C00E94B91C9A838B83CC
:103A80007C836D837BC07E0182E0E80EF11C10E038
:103A9000812F0E94BE13F70181937F011F5F1830B1
:103AA000B9F76CC08981823049F46A817B818C814D
:103AB0009D810E94352D0E94C21C60C0602FCE01E6
:103AC0000E94161D5BC04B816A8189810E94DB1DAB
:103AD0009C838D8353C02C813D813227232732273D
:103AE0004B816A8189810E94F41D48C00E94091E91
:103AF00045C00E949B1E24C00E949D1E99838A83FC
:103B00003DC06B8170E089819A81AE014C5F5F4F4F
:103B10009827892798270E94A01E30C06B8170E0EB
:103B200089819A81AE014C5F5F4F9827892798273A
:103B30000E94C51E23C00E94E81E20C00E94C81D0E
:103B400089831CC06B8170E089819A81AE014C5FD2
:103B50005F4F9827892798270E94481E0FC06B81C6
:103B600070E089819A81AE014C5F5F4F9827892769
:103B700098270E946C1E02C08FEF8883602FCE01B1
:103B8000DF91CF911F910F91FF90EF900C9424261D
:103B900084E0089550E0440F551F2AE0629F400DD5
:103BA000511D11249A0160E5869F200D311D1124BD
:103BB000C901879608950F931F93CF93DF930E94B7
:103BC000CA1D8C010E94662DC82FD0E0DC2FCC27A7
:103BD000C80101960E94662D9E01282BC901DF9124
:103BE000CF911F910F9108950F931F93CF93DF9360
:103BF000122F032F0E94CA1DEC01602F0E94742D0A
:103C0000612FCE010196DF91CF911F910F910C94FE
:103C1000742DAF92BF92CF92DF92EF92FF920F93EB
:103C20001F93CF93DF93A12CE12CF12CB12C00E05A
:103C300010E0C0E0D0E06701C00ED11EFE01EE0F23
:103C4000FF1FEC0DFD1DEE5DFE4F259134914C2FB5
:103C50006B2D8A2D0E94F41D2196C530D10571F778
:103C6000065F1F4FB39488E0B812E3CF80E5E80EFB
:103C7000F11CA39484E0A812D9CFDF91CF911F91BA
:103C80000F91FF90EF90DF90CF90BF90AF9008958D
:103C9000EF92FF920F931F93CF93DF93EA017A0184
:103CA000E60EF71E8C01C8018796CE15DF0569F078
:103CB000003421E0120720F40E94662D888301C0A1
:103CC000188221960F5F1F4FEECFDF91CF911F918A
:103CD0000F91FF90EF900895EF92FF920F931F9333
:103CE000CF93DF93EA017A01E60EF71E8C01C8013B
:103CF0008796CE15DF0559F0003421E0120718F43D
:103D000068810E94742D21960F5F1F4FF0CFDF91C5
:103D1000CF911F910F91FF90EF900895462F84301F
:103D200038F4783028F4653018F4672F0C94DB1DD4
:103D300080E090E0089580E1089589E992E0089597
:103D4000EF92FF920F931F93CF93DF93EA017A01D3
:103D5000E60EF71E8C01C80189599E4FCE15DF056E
:103D600069F0093922E0120720F40E94662D888349
:103D700001C0188221960F5F1F4FEDCFDF91CF91C9
:103D80001F910F91FF90EF900895EF92FF920F9384
:103D90001F93CF93DF93EA017A01E60EF71E8C01A1
:103DA000C80189599E4FCE15DF0559F0093922E027
:103DB000120718F468810E94742D21960F5F1F4F1F
:103DC000EFCFDF91CF911F910F91FF90EF9008956A
:103DD000CF93DF93C7E6D1E060E0CE010E94742D5F
:103DE0002196C11584E0D807B9F7DF91CF910895E6
:103DF000DF92EF92FF920F931F93CF93DF9300D048
:103E000000D0CDB7DEB7F82E8FE08F15E8F18FEF39
:103E100093E00E94662D811137C007E611E0FF2074
:103E200069F0011584E0180779F1C8010E94662D38
:103E3000811101C0FA940F5F1F4FF1CF19821A82CE
:103E40001B821C82DD24D39478018FEFE81AF80AD4
:103E5000C8010E94662D89831A828823A9F09FEFEA
:103E6000980F933058F48A83D9820E5F1F4FC70191
:103E70000E94662D8B83882339F07801CE0101964C
:103E80000E94FF058701E0CF0F900F900F900F90D9
:103E9000DF91CF911F910F91FF90EF90DF900895E8
:103EA0000895FC01680F791F8FEF91E3E617F7077C
:103EB00071F02191822728E030E087FF03C0880F4E
:103EC000892701C0880F21503109B9F7EFCF089534
:103ED0000F931F93CF93DF93C42FD22FFC018281C6
:103EE0008823C9F04093B9020E9425259093B80217
:103EF0008093B70280E28C0F883008F057C0C770FB
:103F000081E001C0880FCA95EAF7DF91CF911F9138
:103F10000F910C9495078091B902481330C080919D
:103F2000B7029091B8020E943D25883C910538F572
:103F300010E21D0FCD17B9F080E28C0F883040F4ED
:103F4000C77081E001C0880FCA95EAF70E949C07FC
:103F5000183028F581E09D2F977001C0880F9A9541
:103F6000EAF70E949507802F0E948C071830F0F422
:103F7000D77081E001C0880FDA95EAF70AC080E2C5
:103F80008C0F883098F4C77081E001C0880FCA9503
:103F9000EAF7DF91CF911F910F910C949C07802F2E
:103FA000DF91CF911F910F910C948C07DF91CF91EE
:103FB0001F910F9108950F939C01CB01233F4CE576
:103FC000340731F188F4283DFCE53F07D9F0293D5D
:103FD0004CE5340779F1273D3C45A9F506E221EE91
:103FE00041EE67ED7CE52BC0253FFCE53F07E1F0A6
:103FF000A8F0263F3C4539F507E225EE46EE66EF90
:104000007CE51DC007E225EE45EE68ED7CE517C0B6
:1040100006E221EE40EE63EF7CE511C007E225EEFB
:1040200044EE64EF7CE50BC006E221EE42EE65EF64
:104030007CE505C008E221E045EE69ED7CE50E94E3
:10404000681F80E008C0FC018281882319F010926B
:10405000B90201C081E00F910895CF93DF93EC0185
:10406000FB018281882309F426C1C330FDE5DF0707
:1040700060F4CA3F9CE5D90768F49E0122503C4594
:104080002431310508F018C105C0C136EDE5DE0761
:1040900009F012C10E94F00F9093D1028093D002D8
:1040A000C031FCE5DF0709F4CAC008F041C0C830E0
:1040B0009CE5D90709F4A4C0F0F4C430FCE5DF079F
:1040C00009F48CC068F4C2309CE5D90709F482C0B9
:1040D000C330DC4509F0E5C08091D0028260DFC0CA
:1040E000C630FCE5DF0709F483C008F085C0809185
:1040F000D0028860D4C0CC309CE5D90709F490C0C8
:1041000068F4CA30FCE5DF0709F47EC008F084C01B
:104110000E94F5098091D0028068C1C0CE309CE534
:10412000D90709F481C008F086C08091D00294C0FC
:10413000CC3FFCE5DF0709F47BC038F5C4319CE5D2
:10414000D90709F49AC058F4C231FCE5DF0709F435
:104150007AC008F07EC08091D0028F7BA0C0CA3F99
:104160009CE5D907F1F108F03FC0C531DC4509F005
:1041700098C08091D00282FB222720F991E09227FB
:1041800090FB82F990FB83F98AC0C1158DE5D807B1
:1041900009F467C050F48091D102CE3FECE5DE0710
:1041A000C1F108F05BC08D7F65C0C2308DE5D807D6
:1041B00009F471C008F46DC0C136DD4509F071C065
:1041C0008091D00284FB222720F991E0922790FB76
:1041D00084F965C08091D002816061C08091D00275
:1041E00016C08091D10216C08091D102826042C077
:1041F0008091D002806153C08091D00280624FC014
:104200008091D00280644BC08091D002886084602D
:1042100046C0826081602EC08091D0028E7F3FC0F8
:104220008091D0028D7F3BC08091D002877F37C0C4
:104230008091D10214C08091D0028F7E30C08091D5
:10424000D0028F7D2CC00E94F5098091D0028F771B
:1042500026C08091D002877F8B7F21C08D7F8E7F8B
:1042600009C08091D102982F909591708E7F892BF3
:1042700090FB81F98093D10214C00E94F5098091CE
:10428000D00287FB222720F991E0922790FB87F943
:1042900006C081E001C080E00E94861002C08093C9
:1042A000D0028091D0029091D1020E9401100E9410
:1042B000F50980E001C081E0DF91CF910895CF93AF
:1042C000DF9386319C4541F5EB010E94180F982F32
:1042D0008A812091280130912901882379F09A7AE6
:1042E00081E009F480E08093BA02911102C069E292
:1042F00001C065E3C9010E9451240AC08091BA023D
:10430000811102C069E201C065E3C9010E94532422
:104310000E946A0F80E001C081E0DF91CF91089593
:104320008EE14A9B02C08150E1F74A9BFECF08957F
:104330005A9880E28A95F1F75A9A0895FC012AE08A
:104340002A95F1F728E090E080E031E040E14A95DD
:10435000F1F7880F4A9B02C08160932700C00000DC
:1043600040E14A95F1F7215089F720E12A95F1F7CC
:1043700029B100C0000030E13A95F1F722FB222775
:1043800020F992272081920F90830895EF92FF9257
:104390000F931F93CF93DF931F92CDB7DEB7198290
:1043A0008C017C01E60EF11C0E151F0551F00E94D8
:1043B0009021CE0101960E949E21F80181938F01E8
:1043C000F3CF81E09981911180E00F90DF91CF913F
:1043D0001F910F91FF90EF900895529A5A9A089565
:1043E00052985A9AEA9AE9E6F0E080818F7C8083BD
:1043F0000895615091E001C0990F6A95EAF720E0B5
:1044000031E0992361F0492F482319F05A9A232764
:1044100001C05A9840E24A95F1F79695F2CF2223CF
:1044200011F05A9A01C05A9880E28A95F1F75A9889
:104430000895FF920F931F93CF93DF93EC018C01AC
:10444000060F111DC017D10741F0F9900E94982165
:1044500068E08F2D0E94F921F5CFDF91CF911F9158
:104460000F91FF9008951F920F920FB60F92112493
:10447000EF92FF920F931F932F933F934F935F936E
:104480006F937F938F939F93AF93BF93EF93FF931C
:10449000CF93DF931F92CDB7DEB719820E94902190
:1044A000CE0101960E949E21A82FA695A695A695BD
:1044B0009A2F969595702A2F2570920F292F237089
:1044C00096959695920F877089137CC0898181118A
:1044D00079C0A63008F076C080E18A95F1F75A9A43
:1044E000529AB2E0BA95F1F700C05A98EA2EF12C30
:1044F000EAE0AE9FD0011124A85CBE4F1896ED9162
:10450000FC9119973097B1F06091E8017091E90141
:1045100016962D913C911797260F371F13968D9164
:104520009C911497680F791F15964C9115971296C8
:104530008C9109958AE08E9DF0018F9DF00D1124DC
:10454000E85CFE4F6581662351F08091E80190910F
:10455000E90126813781820F931F0E9419220E9450
:104560009821F0E1FA95F1F75A9852985A9A80E119
:104570008A95F1F78AE08E9D80018F9D100D1124A0
:10458000085C1E4FD80112966C911297662399F021
:104590008091E8019091E90113962D913C91149737
:1045A000820F931F0E94C621D801ED91FC918111C9
:1045B00005C082E004C0D801ED91FC9188E08083C1
:1045C0000E9490210F90DF91CF91FF91EF91BF91C9
:1045D000AF919F918F917F916F915F914F913F919B
:1045E0002F911F910F91FF90EF900F900FBE0F90A2
:1045F0001F9018950F931F93CF93DF9386309105EB
:104600000CF0A9C02AE0289FF001299FF00D112489
:10461000E85CFE4F20813181232B09F49CC0EC0122
:10462000F894529A5A9885E08A95F1F700008C2FF9
:10463000869585709C2F9570890F982F937086951D
:1046400086958E0123E0000F111F2A95E1F7890F4F
:10465000082B0E949821A4E0AA95F1F700C068E019
:10466000802F0E94F921B0E1BA95F1F752985A9A39
:104670004A9902C000C0FCCF87E090E04A9B17C077
:10468000019799F4529A5A9A8AE08C9FF0018D9F73
:10469000F00D1124E85CFE4F0190F081E02D81E0E7
:1046A0008083789481E090E058C000C0E7CF8AE032
:1046B0008C9F80018D9F100D1124085C1E4FF80106
:1046C00065816623B9F08091E8019091E901268126
:1046D0003781820F931F0E94C62181110BC0529A0D
:1046E0005A9AD801ED91FC9182E08083789482E01F
:1046F00090E033C00E949021B0E2BA95F1F75A9849
:10470000529AE0E1EA95F1F78AE08C9FF0018D9FE3
:10471000F00D1124E85CFE4F6281662351F0809118
:10472000E8019091E90123813481820F931F0E9457
:1047300019220E9498218AE08C9FF0018D9FF00D34
:104740001124E85CFE4F0190F081E02D10827894F6
:1047500080E090E002C084E090E0DF91CF911F9173
:104760000F9108959093C1028093C00208950E9412
:10477000C515811103C08091BB020895E091C0026C
:10478000F091C102309721F00190F081E02D099461
:1047900080E00895E091C002F091C102309721F0CD
:1047A0000280F381E02D09940895E091C002F09118
:1047B000C102309739F022E0DC012C930480F581AE
:1047C000E02D099408952091BE023091BF02281770
:1047D000390771F09093BF028093BE02E091C0024E
:1047E000F091C102309721F00680F781E02D099405
:1047F00008952091BC023091BD022817390771F04D
:104800009093BD028093BC02E091C002F091C1027E
:10481000309721F00084F185E02D09940895FC0182
:10482000329697E080E0915029F021912223D9F32C
:104830008F5FF9CF0895662349F0FC013296089600
:104840002191621729F0E817F907D1F780E0089560
:1048500081E008959C01FC0132969FEF80E0419138
:10486000461789F09F3F19F4411101C0982F8F5FBF
:104870008630A9F79F3F39F0F901E90FF11D97FD47
:10488000FA956283089508959C012A5F3F4FFC01C9
:104890004281461301C01282019682179307B9F72D
:1048A00008950C942A240C944424029626E0FC01DA
:1048B00011922A95E9F708951092E5021092E60206
:1048C0001092E7021092E8020895CF92DF92EF92E1
:1048D000FF926B017C010E94C51581110EC00E94E0
:1048E0003125C61AD70AE80AF90AC092E502D09221
:1048F000E602E092E702F092E802FF90EF90DF908C
:10490000CF9008950F931F930E94C515882321F01F
:104910001F910F910C9431250E9431250091E502E1
:104920001091E6022091E7023091E802600F711FBA
:10493000821F931F1F910F910895089508950C945D
:104940009E240C949E24CF930E94A1240E943A1589
:104950000E949F24C0E08C2F0E94BE13811104C0CE
:10496000CF5FC830C1F701C081E0CF9108950C94AA
:104970009E240C94B7248091F102843049F10E9466
:10498000B92480E00E940A061092C20220E488E165
:1049900090E00FB6F894A895809360000FBE209326
:1049A000600083B7817F846083BF83B7816083BFEA
:1049B0007894889583B78E7F83BF0FB6F894A895B7
:1049C00080916000886180936000109260000FBE4B
:1049D00008950C949E240E94F5090E94B7230E941A
:1049E0000A060C94E9241F920F920FB60F9211241D
:1049F0008F939F93AF93BF938091C202811113C095
:104A00008091E9029091EA02A091EB02B091EC0250
:104A10004196A11DB11D8093E9029093EA02A093F3
:104A2000EB02B093EC02BF91AF919F918F910F90E9
:104A30000FBE0F901F90189582E084BD93E095BD46
:104A40009AEF97BD80936E0008952FB7F8948091E8
:104A5000E9029091EA02A091EB02B091EC022FBF23
:104A600008952FB7F8946091E9027091EA0280915D
:104A7000EB029091EC022FBF08959C014FB7F89480
:104A80008091E9029091EA02A091EB02B091EC02D0
:104A90004FBF821B930B0895CF92DF92EF92FF924C
:104AA0002FB7F894C090E902D090EA02E090EB02B0
:104AB000F090EC022FBFA7019601261B370B480B85
:104AC000590BCA01B901FF90EF90DF90CF90089584
:104AD00078941F920F920FB60F9211248F939F9389
:104AE000AF93BF938091E9029091EA02A091EB020B
:104AF000B091EC020196A11DB11D8093E902909343
:104B0000EA02A093EB02B093EC02BF91AF919F91A8
:104B10008F910F900FBE0F901F90189587E797E722
:104B200090930108809300089AE088E10FB6F8940A
:104B3000A895809360000FBE90936000FFCF909384
:104B40000B0280930A0208958091CE0208959091FD
:104B5000F102943029F58093C3027093C5026093EB
:104B6000C4029093E9008FEF9091E800815095FD89
:104B700006C095ED9A95F1F700008111F5CF80916F
:104B8000E80085FF0DC040E050E063E070E083EC9A
:104B900092E00E9420288091E8008E778093E800C0
:104BA0000895BC0184E00C94A725BC0183E00C941B
:104BB000A72524E02093E9002FEF3091E800215051
:104BC00035FD06C035ED3A95F1F700002111F5CF1E
:104BD0002091E80025FF0BC040E050E066E070E067
:104BE0000E9420288091E8008E778093E800089545
:104BF000CF93DF9321E02093E9002FEF3091E8007D
:104C0000215035FD06C035ED3A95F1F70000211130
:104C1000F5CF2091E80025FF14C0EC0140E050E002
:104C200068E070E00E9420288091E8008E778093F1
:104C3000E80088E0FE01A6ECB2E001900D928A95B2
:104C4000E1F7DF91CF910895CF93603219F520916C
:104C5000F1022430F9F4C091E900CF703091EC00FA
:104C6000232F217030FD20E8C22B22E02093E900A1
:104C70002091E80020FF0BC040E050E060E270E0CF
:104C80000E9420288091E8008E778093E800CF7002
:104C9000C093E900CF9108958091F002811109C07D
:104CA0000E94FC290E94592A8091E200846080932E
:104CB000E20008951092F00208950895089508956D
:104CC00042E061EC81E00E94752942E261EC84E0FF
:104CD0000E94752942E261EC82E00E94752942E25D
:104CE00060EC83E00C9475298091F302833009F421
:104CF00062C030F4813071F0823009F49BC00895B5
:104D00008A3009F487C08B3009F46DC0893009F00E
:104D1000A9C020C08091F202813A09F0A3C080911D
:104D2000E800877F8093E8008091F6029091F70277
:104D3000892B21F468E086EC92E003C060E080E01B
:104D400090E070E00E94B6288091E8008B77809315
:104D5000E80008958091F202813209F083C08091C9
:104D6000F6029091F702009719F0029709F07AC0C5
:104D70008091E800877F8093E8008091E80082FDC1
:104D800005C08091F1028111F8CF6CC02091F30031
:104D90008091F20090E0922B029729F48091F1002B
:104DA0008B7F813021F48091F1008093CE0280913D
:104DB000E8008B7753C08091F202813A09F052C02B
:104DC0008091F6029091F702892B09F04BC08091F7
:104DD000E800877F8093E8008091E80080FFFCCFA7
:104DE0008091800136C08091F2028132D9F58091A4
:104DF000F6029091F702892BA9F58091E800877F50
:104E00008093E8000E94AA298091F4028093800197
:104E10000C94F5098091F202813221F58091E8002D
:104E2000877F8093E8000E94AA298091F5028093F1
:104E3000CF0208958091F202813AA1F48091E800B6
:104E4000877F8093E8008091E80080FFFCCF80910D
:104E5000CF028093F1008091E8008E778093E80084
:104E60000C94AA29089584B7877F84BF0FB6F8945D
:104E7000A895809160008861809360001092600026
:104E80000FBE90E080E80FB6F89480936100909395
:104E900061000FBE0C94C7100E94FC290E94592A81
:104EA000E2EEF0E080818460808378940E94EE2CB2
:104EB0000E94D51086E791E00C94B223CF93DF9344
:104EC000CDB7DEB7A0970FB6F894DEBF0FBECDBF4B
:104ED0008091F1028530A9F48091F102853079F456
:104EE0000E94BB248091EF028823B1F30E94A32487
:104EF000882391F30E940A280E94F509EDCF0E94B1
:104F0000EB240E94E3108091F102843011F583E0DC
:104F10008093E9008091E80082FF1BC08091E80047
:104F200085FF0AC040E050E060E270E0CE010196EB
:104F30000E946B2891E001C090E08091E8008B779F
:104F40008093E800992329F060E2CE0101960E9447
:104F50001A1DA0960FB6F894DEBF0FBECDBFDF912D
:104F6000CF9108950C94B427292F3327233031058E
:104F7000C9F060F42130310581F02230310509F0AB
:104F800041C08BE590E026EE32E040C02132310591
:104F9000E1F02232310531F135C082E190E021E4C7
:104FA00033E034C099278130910549F028F0029709
:104FB00049F5E2ECF2E005C0E2EEF2E002C0E6ED17
:104FC000F2E0849190E09F0121C063307105D0F43C
:104FD000660F771FFB01ED5FFD4F2081318189E076
:104FE00090E014C06330710568F4FB01EE0FFF1F01
:104FF000E350FE4F20813181FB01E650FE4F80815E
:1050000090E004C080E090E020E030E0FA013183DD
:105010002083089580E189BD82E189BD09B400FE45
:10502000FDCF8091D8008F7D8093D8008091E000E3
:1050300082608093E0008091E00081FDFCCF0895C4
:10504000CF92DF92EF92FF920F931F93CF93DF9354
:10505000EC018B017A010E94C929811133C0E1144E
:10506000F10439F0F70180819181081B190BC80FF9
:10507000D91FC12CD12C0115110519F18091E8001F
:1050800085FD16C08091E8008E778093E800E114DA
:10509000F10449F0F70180819181C80ED91ED182B7
:1050A000C08285E00FC00E94C929882321F30AC06D
:1050B00089918093F10001501109FFEFCF1ADF0AA7
:1050C000DACF80E0DF91CF911F910F91FF90EF90A9
:1050D000DF90CF900895CF92DF92EF92FF920F93DF
:1050E0001F93CF93DF93EC018B017A010E94C929B2
:1050F000811133C0E114F10439F0F701808191810D
:10510000081B190BC80FD91FC12CD12C0115110573
:1051100019F18091E80085FD16C08091E8008B7739
:105120008093E800E114F10449F0F7018081918156
:10513000C80ED91ED182C08285E00FC00E94C92945
:10514000882321F30AC08091F1008993015011094D
:10515000FFEFCF1ADF0ADACF80E0DF91CF911F9106
:105160000F91FF90EF90DF90CF9008952091F8027B
:105170003091F9022617370748F06115710539F4A7
:105180002091E8002E772093E80001C0B901FC01CE
:1051900020E06115710579F18091F1028823F1F128
:1051A0008530F1F18091E80083FD3CC08091E800FA
:1051B00082FD2EC08091E80080FFEBCF2091F300AC
:1051C0008091F20090E0922B6115710551F08830CA
:1051D000910538F421912093F100615071090196F5
:1051E000F3CF21E0089709F020E08091E8008E7766
:1051F0008093E800CECF2111CFCF0AC08091F10279
:10520000882361F0853061F08091E80083FD0AC059
:105210008091E80082FFF2CF80E0089582E0089557
:1052200083E0089581E008952091F8023091F90219
:105230002617370748F06115710539F42091E80009
:105240002E772093E80001C0B901FC0120E0611530
:10525000710591F18091F102882309F440C08530F5
:1052600009F43FC08091E80083FD3DC08091E800D3
:1052700082FD2FC08091E80080FFE9CF2091F300EC
:105280008091F20090E0922B6115710559F0883001
:10529000910540F424912093F100319661507109F9
:1052A0000196F2CF21E0089709F020E08091E80014
:1052B0008E778093E800CBCF2111CCCF0AC08091AC
:1052C000F102882361F0853061F08091E80083FD70
:1052D0000AC08091E80082FFF2CF80E0089582E06A
:1052E000089583E0089581E00895982F973068F538
:1052F0009093E900981739F07091EC002091ED003F
:105300005091F00003C0242F762F50E021FD02C001
:105310009F5FECCF3091EB003E7F3093EB003091FC
:10532000ED003D7F3093ED003091EB003160309324
:10533000EB007093EC002093ED005093F00020916F
:10534000EE0027FDE5CF80E008958F708093E9009F
:1053500081E008958091F20287FF11C08091E800FA
:1053600082FD05C08091F1028111F8CF11C08091BA
:10537000E8008B770BC08091F102882349F080917F
:10538000E80080FFF8CF8091E8008E778093E800F6
:1053900008952091E4003091E50095E64091EC00FD
:1053A000842F817040FF23C08091E80080FD1DC0E4
:1053B0008091F102882399F0853099F08091EB007B
:1053C00085FD11C04091E4005091E5002417350798
:1053D00029F3915011F09A01E1CF84E0089582E021
:1053E000089583E0089581E0089580E00895409154
:1053F000E80042FFDDCF08950E946A2A0E94722AC7
:10540000E0EEF0E0808181608083E8EDF0E0808173
:105410008F77808319BCA7EDB0E08C918E7F8C9341
:1054200080818F7E80831092F00208950F931F93E6
:10543000CF93DF930E946A2A0E94722AC8EDD0E0BF
:1054400088818F77888388818068888388818F7D31
:10545000888319BC1092F1021092ED021092EF02B3
:105460001092EE0200EE10E0F80180818B7F8083C5
:1054700088818160888342E060E080E00E94752935
:10548000E1EEF0E080818E7F8083E2EEF0E08081CB
:1054900081608083808188608083F80180818E7F35
:1054A0008083888180618883DF91CF911F910F91E4
:1054B0000895E8EDF0E080818F7E8083E7EDF0E0F5
:1054C00080818160808384E082BF81E08093F002EC
:1054D0000C94162AE8EDF0E080818E7F8083109294
:1054E000E20008951092DA001092E10008951F92F0
:1054F0000F920FB60F9211242F933F934F935F9308
:105500006F937F938F939F93AF93BF93EF93FF938B
:105510008091E10082FF0BC08091E20082FF07C012
:105520008091E1008B7F8093E1000E94ED2C8091BF
:10553000DA0080FF1FC08091D80080FF1BC08091DF
:10554000DA008E7F8093DA008091D90080FF0DC051
:1055500080E189BD82E189BD09B400FEFDCF81E013
:105560008093F1020E944C2605C019BC1092F102F2
:105570000E945A268091E10080FF19C08091E200CC
:1055800080FF15C08091E2008E7F8093E2008091C1
:10559000E20080618093E2008091D8008062809375
:1055A000D80019BC85E08093F1020E945E268091AC
:1055B000E10084FF30C08091E20084FF2CC080E1D4
:1055C00089BD82E189BD09B400FEFDCF8091D8007C
:1055D0008F7D8093D8008091E1008F7E8093E100E1
:1055E0008091E2008F7E8093E2008091E2008160F2
:1055F0008093E2008091ED02882311F084E007C0DF
:105600008091E30087FD02C081E001C083E08093C8
:10561000F1020E945F268091E10083FF29C0809102
:10562000E20083FF25C08091E100877F8093E10045
:1056300082E08093F1021092ED028091E1008E7F72
:105640008093E1008091E2008E7F8093E200809160
:10565000E20080618093E20042E060E080E00E942E
:1056600075298091F00088608093F0000E945D268B
:10567000FF91EF91BF91AF919F918F917F916F912A
:105680005F914F913F912F910F900FBE0F901F9000
:1056900018951F920F920FB60F9211242F933F93DC
:1056A0004F935F936F937F938F939F93AF93BF932A
:1056B000CF93DF93EF93FF93C091E900CF70809178
:1056C000EC00D82FD17080FDD0E81092E9008091D5
:1056D000F000877F8093F00078940E948D2B1092C9
:1056E000E9008091F00088608093F000CD2BCF70AE
:1056F000C093E900FF91EF91DF91CF91BF91AF91FE
:105700009F918F917F916F915F914F913F912F91D9
:105710000F900FBE0F901F9018951F93CF93DF939C
:10572000CDB7DEB7AA970FB6F894DEBF0FBECDBFD8
:10573000E2EFF2E08091F100819322E0EA3FF2078C
:10574000C9F70E9474268091E80083FF2EC18091E2
:10575000F2029091F302492F50E04A30510508F0CF
:1057600024C1FA01E957FF4F0C942F2D803821F006
:10577000823809F01AC108C08091EE029091EF02C0
:10578000992389F082600FC08091F6028F70873074
:1057900008F00BC18093E9008091EB0085FB88271E
:1057A00080F91092E9009091E800977F9093E800CB
:1057B0008093F1001092F100D1C0282F2D7F09F0C5
:1057C000F4C0882319F0823061F0EFC08091F402B8
:1057D000813009F0EAC0933009F080E08093EF0255
:1057E0002EC08091F40281112AC08091F6028F7040
:1057F0002FEF280F263008F0D8C08093E9002091C1
:10580000EB0020FF1CC0933021F48091EB008062FC
:1058100014C09091EB0090619093EB0021E030E098
:10582000A90102C0440F551F8A95E2F74093EA0090
:105830001092EA008091EB0088608093EB00109258
:10584000E9008091E800877F8093E8000E94AA2900
:10585000ACC08111AAC01091F4021F778091E300BF
:105860008078812B8093E3008091E800877F80938C
:10587000E8000E94AA298091E80080FFFCCF809177
:10588000E30080688093E300111102C082E001C050
:1058900083E08093F10289C08058823008F085C08F
:1058A0008091F4029091F5028C3D53E0950779F5D3
:1058B00083E08A838AE289834FB7F894DE011396E6
:1058C00020E03EE051E2E32FF0E050935700E491F6
:1058D00020FF03C0E295EF703F5FEF708E2F90E0E6
:1058E000EA3010F0C79601C0C0968D939D932F5F4C
:1058F000243149F74FBF8091E800877F8093E8000B
:105900006AE270E0CE0101960E94B62816C060914E
:10591000F6027091F702AE014F5F5F4F0E94B2270F
:10592000BC01892B09F441C09091E800977F9093C6
:10593000E80089819A810E9414298091E8008B7780
:105940008093E80032C0803881F58091E800877F3D
:105950008093E8008091ED028093F1008091E8004F
:105960008E7772CF811121C08091F4029091F5025F
:1059700099270297D4F48091E800877F8093E8000C
:105980008091F4028093ED020E94AA298091ED0299
:10599000811106C08091E30087FD02C081E001C053
:1059A00084E08093F1020E9460268091E80083FFEA
:1059B0000AC08091E800877F8093E8008091EB0027
:1059C00080628093EB00AA960FB6F894DEBF0FBEFC
:1059D000CDBFDF91CF911F9108950895CF9380910E
:1059E000F1028823A1F0C091E900CF709091EC0002
:1059F000892F817090FD80E8C82B1092E90080917A
:105A0000E80083FD0E948D2BCF70C093E900CF91F9
:105A100008950E94FC291092F1020895E8EDF0E04B
:105A20008081806180838AE18A95F1F700C080914E
:105A3000D9008170089597FB072E16F4009407D0C3
:105A400077FD09D00E943C2D07FC05D03EF49095CF
:105A500081959F4F0895709561957F4F0895EE0F42
:105A6000FF1F0590F491E02D099469279627692777
:105A70007827872778270895AA1BBB1B51E107C009
:105A8000AA1FBB1FA617B70710F0A61BB70B881FCE
:105A9000991F5A95A9F780959095BC01CD0108955D
:105AA000FB01DC0104C08D910190801921F441506B
:105AB0005040C8F7881B990B0895FB01DC0102C018
:105AC00001900D9241505040D8F70895F999FECFBA
:105AD00092BD81BDF89A992780B50895A8E1B0E0FC
