:100000000C943B020C9482020C9482020C945725AF
:100010000C9482020C9482020C9482020C94820250
:100020000C9482020C9482020C94F42C0C94C62D35
:100030000C9424280C9482020C9482020C94820268
:100040000C9482020C9482020C9482020C94820220
:100050000C9482020C9499280C9482020C948202D3
:100060000C9482020C9482020C9482020C94820200
:100070000C9482020C9482020C9482020C948202F0
:100080000C9482020C9482020C9482020C948202E0
:100090000C9482020C9482020C9482020C948202D0
:1000A0000C9482020C9482020C9482023E053E055E
:1000B00070057005BD05DB05FC06FC06E6057B0644
:1000C0008C068C06EC06FC06FC06F5069C079C07D5
:1000D000AE07AE07A507AE07AE07AE079C079C07A5
:1000E000AA07AE07AE07AA07332E5A2E522F5A2E52
:1000F000522FA62EC92E522F202F2F2F07634236A4
:10010000B79BD8A71A39685618AEBAAB558C1D3CA8
:10011000B7CC5763BD6DEDFD753EF6177231BF006C
:100120000000803F05A84CCDB2D44EB93836A902A4
:100130000C50B9918688083CA6AAAA2ABE000000E5
:10014000803F1700150008001A0014000A0009007B
:100150000700160004000500190006001B001D0022
:100160002C41E300E0001F001E001C0018000C00E2
:10017000120013000B000D000E000F0028001100EC
:10018000100036003700E5002C42E2002A00A800EB
:1001900021002200210020001F001E002202210257
:1001A00020021F021E02670054005500560057002F
:1001B0002C41490029001F001E00230024002500B7
:1001C00026002700230224022502260227023500EA
:1001D00089002F1230122D122D00E2002A0020007B
:1001E00021003E003D003C003B003A003400331249
:1001F000330031001F02C85CC75CC65CC45CC35CD2
:100200002D1249002B001F001E003F00400041003E
:10021000420043005000510052004F002E00C95CC4
:10022000CA5C2F00300031002C42E2002A0020007E
:10023000210000047F3F1F643214643214783C1E96
:100240001E140A05FFAA7F554000010101010101AA
:10025000010101020202020202020202030303037D
:10026000030303030404040404040405050505054D
:10027000060606060607070707070808080809090B
:1002800009090A0A0A0B0B0B0C0C0C0D0D0D0E0EB6
:100290000E0F0F0F10101111111212131314141549
:1002A0001516161717181819191A1A1B1B1C1D1DBD
:1002B0001E1E1F2020212222232424252626272813
:1002C00029292A2B2C2D2D2E2F3031323233343543
:1002D000363738393A3B3C3D3E3F40414243444546
:1002E000464748494A4C4D4E4F5051535455565825
:1002F000595A5B5D5E5F616264656668696B6C6DCF
:100300006F7072737577787A7B7D7E808283858744
:10031000888A8C8E8F91939596989A9C9EA0A2A382
:10032000A5A7A9ABADAFB1B3B5B7BABCBEC0C2C487
:10033000C6C9CBCDCFD1D4D6D8DBDDDFE2E4E7E947
:10034000EBEEF0F3F5F8FAFDFF120363006F006FB8
:10035000006C00350033003600720000000A036DA7
:10036000002E006B00690000000403090409023B31
:1003700000020100A0FA09040000010301010009C4
:1003800021110100012240000705810308000A092C
:100390000401000103000000092111010001227B7A
:1003A000000705820320000A120100020000000875
:1003B000434D370501000102000105010902A101B9
:1003C00085020901A1000509190129081500250167
:1003D0009508750181020501093009311581257FD4
:1003E00095027508810609381581257F95017508E4
:1003F0008106050C0A38021581257F950175088153
:1004000006C0C005010980A101850319012AB700B2
:10041000150126B700950175108100C0050C090172
:10042000A101850419012AA002150126A002950147
:1004300075108100C005010906A101050719E02911
:10044000E715002501950875018102950175088160
:10045000010507190029FF150026FF0095067508FC
:10046000810005081901290595057501910295017D
:1004700075039101C00011241FBECFEFDAE0DEBF8B
:10048000CDBF04B603FE27C080914D0390914E036B
:10049000A0914F03B09150038730904BA740B04BD1
:1004A000D1F410924D0310924E0310924F0310920C
:1004B000500314BE84B7877F84BF0FB6F894A89505
:1004C00080916000886180936000109260000FBE90
:1004D000E0E0F8E3099512E0A0E0B1E0EEE9F7E62C
:1004E00002C005900D92AA30B107D9F723E0AAE027
:1004F000B2E001C01D92AD34B207E1F70E94DB16F5
:100500000C94CD330C940000811106C0662311F0C9
:1005100080E519C08FE417C0813031F4662311F0F3
:100520008CE211C08AE20FC0823031F4662311F0F0
:1005300089EA09C08AEA07C0833039F4662311F0DA
:1005400082E501C081E50E94F40480E0089581E025
:10055000089581E008950C94A90208950C94AD02C9
:100560001F93CF93DF9300D000D01F92CDB7DEB79B
:1005700049835A836B8330910C0289819A813111AE
:1005800014C0662359F0222349F00E944209182F13
:10059000682F89819A810E94E90803C00E94150989
:1005A000182F69817A81812F04C00E9442096981D4
:1005B0007A810F900F900F900F900F90DF91CF9155
:1005C0001F910C94E50FFC01262F4081518162811F
:1005D000738184810C94B00281E00895CF93DF93FE
:1005E000EC0160E00E94E302BE01DF91CF910C9428
:1005F000AE020E9412120E9471030C944C120C94D1
:10060000481208950E948A070E9401032FEF84E395
:100610009CE0215080409040E1F700C000000C9425
:10062000BF280F931F93CF93DF938C0161E00E944B
:10063000E302EC01B8010E94AB02882309F444C034
:10064000B801CE010E94FF228823F1F1B801CE014A
:100650000E9451238823C1F1B801CE010E94832456
:10066000882391F1B801CE010E94F81F882361F11F
:10067000F8018281882309F1CB358DE5D807C1F0D7
:1006800050F4C115FCE5DF0781F0CF3DDC45A9F44E
:100690000E94DD0E19C0CC35EDE5DE0761F0CD35E9
:1006A000DD4559F40E94610D08C00E9402030CC090
:1006B0000E946A0D02C00E946D0DC801DF91CF91AA
:1006C0001F910F910C94A70280E0DF91CF911F91B1
:1006D0000F91089508950C946A0381E008950C9495
:1006E0006D030895CF93C82F0E946B038C2F0E9437
:1006F0006F03CF910895CF93DF93CDB7DEB72B97DC
:100700000FB6F894DEBF0FBECDBF4F835887698701
:100710007A878B8761110E94900D9E012F5F3F4F5A
:1007200086E0F90111928A95E9F785E0FE01379696
:10073000D90101900D928A95E1F789819A814C81C6
:100740005D81452B31F09F3F31F491E08F3F19F4EB
:1007500003C091E001C090E090FF09C049815A8137
:100760006B817C818D819E810E94900C05C0C901A6
:100770000E94EC028111F2CF2B960FB6F894DEBFE7
:100780000FBECDBFDF91CF910895FC018081918193
:100790000E9484090895CF93882309F4A4C0C82F28
:1007A0008238C1F40E94DB2681FD9DC069E38091FF
:1007B0000001909101010E9475270E94C20D2FEF48
:1007C00081EE94E0215080409040E1F700C00000AD
:1007D00069E319C0833801F50E94DB2680FD83C0E0
:1007E00063E580910001909101010E9475270E94AC
:1007F000C20D2FEF81EE94E0215080409040E1F750
:1008000000C0000063E580910001909101010E9409
:100810007727CF910C94C20D8438C1F40E94DB2657
:1008200082FD61C067E480910001909101010E9406
:1008300075270E94C20D2FEF81EE94E02150804079
:100840009040E1F700C0000067E4DDCF8CEF8C0F33
:10085000813AD0F46C2F80910001909101010E94A7
:100860003F27882349F06C2F80910001909101016E
:100870000E9477270E94C20D6C2F809100019091F9
:1008800001010E947527C5CF80E28C0F883048F4A3
:10089000C77081E001C0880FCA95EAF70E94730D06
:1008A000B8CFEBE5EC0FE33040F4F0E0E156FE4F5B
:1008B000808190E0CF910C940727E8E5EC0FE731B9
:1008C00050F4F0E0EE0FFF1FEF58FE4F8081918152
:1008D000CF910C941D27CD3E30F08C2F0E946817CD
:1008E000CF910C943A18CF910895882309F464C0ED
:1008F000823879F40E94DB2681FF5EC069E3809133
:100900000001909101010E9475270E94C20D69E3C8
:1009100010C08338B1F40E94DB2680FF4DC063E530
:1009200080910001909101010E9475270E94C20DE3
:1009300063E580910001909101010E9477270C945A
:10094000C20D843879F40E94DB2682FF35C067E44B
:1009500080910001909101010E9475270E94C20DB3
:1009600067E4E7CF9CEF980F913A10F4682FE1CF3E
:1009700090E2980F983050F4877091E001C0990F81
:100980008A95EAF7892F0E94790DD9CF9BE5980FB8
:10099000933020F480E090E00C94072798E5980FBE
:1009A000973120F480E090E00C941D278D3E20F0DC
:1009B0000E94C3170C943A1808951F93CF93DF93A6
:1009C000182FEB010E94CB03209741F08FE99FE0A5
:1009D0000197F1F700C000002197F6CF812FDF913A
:1009E000CF911F910C947504893319F060E070E089
:1009F00002C060E570E00C94DD04882321F00E94C1
:100A0000730D0C94C20D0895882321F00E94790D76
:100A10000C94C20D0895CF92DF92EF92FF920F9344
:100A20001F93CF93DF937C01062FC72FFC01D28148
:100A3000158112951F700E94480D882399F0DD23BF
:100A400089F08C2F807F803421F080E2800F883005
:100A500048F082E00E94120E0E94480D91E0D82ECC
:100A6000D92601C0D12CCC2EC2948FE0C8228C2D67
:100A700090E0FC01EA5AFF4F0C942B338C2F807FBF
:100A8000CF70882311F0C295C07FDD2399F0CC236D
:100A900009F48DC180E2800F883010F0011104C08C
:100AA0008C2F0E94730D03C08C2F0E94830D0E9417
:100AB000C20D7DC1802F0E947504CC2309F49CC116
:100AC00080E2800F883010F0011104C08C2F0E944A
:100AD000790D03C08C2F0E94890D0E94C20D8CC11C
:100AE0008C2F807FCF70803211F0C295C07F0023A1
:100AF00019F00130C9F022C0DD2371F0112341F05B
:100B0000113031F40E94A30D8C2B0E94AB0D74C1E7
:100B10000E94A30D8C2B1DC0112319F0113009F474
:100B20006BC10E94B80D25C0DD2321F0163008F0FE
:100B300063C10EC0153008F05FC11BC0DD2361F03A
:100B4000112331F0F701858180FF31C18F708583DA
:100B50008C2F0E94FD0450C1112359F0093309F074
:100B600037C1FFEF27EE83E0F15020408040E1F7EE
:100B70002DC18C2F0E9404053FC18C2F8695869530
:100B8000837019F0813061F037C1DD2321F0802FAF
:100B90009C2F937002C080E090E00E94072734C130
:100BA000DD2321F0802F9C2F937002C080E090E025
:100BB0000E941D2729C1802FDD2319F00E9468178C
:100BC00002C00E94C3170E943A181EC18C2F837066
:100BD00009F045C0D11114C1402F42954695477088
:100BE000440F440F602F6F70862F90E0A0E0B0E0BC
:100BF000042E04C0880F991FAA1FBB1F0A94D2F7A6
:100C000004FF10C00FE010E020E030E004C0000F4F
:100C1000111F221F331F4A95D2F70095109520957A
:100C2000309503C000E010E09801C695C695C370EA
:100C3000BC01CD01602B712B822B932BC23049F06C
:100C400058F4C13019F00E94FF07DAC00E94ED0786
:100C5000D7C00E941108D4C00E94EB07D1C0DD2389
:100C600019F08C2F817001C08695882309F4C8C0C3
:100C7000402F429546954770440F440F602F6F7088
:100C8000862F90E0A0E0B0E0042E04C0880F991FEA
:100C9000AA1FBB1F0A94D2F704FF10C00FE010E098
:100CA00020E030E004C0000F111F221F331F4A95BF
:100CB000D2F7009510952095309503C000E010E024
:100CC0009801C695C695C370BC01CD01602B712BF0
:100CD000822B932BC23049F058F4C13019F00E9496
:100CE000C4088EC00E94B2088BC00E94D60888C07B
:100CF0000E94250885C0CF70DD2339F08C2F0E941B
:100D00004B08802F0E94FD047BC0802F0E940405A9
:100D10008C2F0E946C0874C0023F01F128F4003F40
:100D200041F0013FA1F03FC0033FF9F0043F39F12A
:100D30003AC0DD2341F0153008F05EC08C2F8F7172
:100D40000E94910859C0163008F056C0F7CFDD2335
:100D500039F08C2F8F710E944B084EC0DD23C9F3F0
:100D60008C2F8F710E946C0847C0DD2329F08C2FD7
:100D70008F710E94360840C00E9431083DC0DD23BB
:100D800049F0CF718C2F0E944B0863E08C2F0E949A
:100D9000F70D32C081E00E94120E123068F182E03D
:100DA0000E94120E29C0DD2331F0112391F2802F11
:100DB0000E94CB0321C0112399F2093349F49FEF1C
:100DC000E7EEF3E09150E040F040E1F700C00000B2
:100DD000802F0E94750410C04C2F4F70602FC701E8
:100DE0000E94E10F0E94B2090FC04C2F4F70602F7C
:100DF000C7010E94E40F08C088EF8C0D843020F4F6
:100E00000E94DB260E947203DD20C9F00E94440D7F
:100E100080FD15C0F70112820E943E0D0E944B0812
:100E2000C7010E9440070E943E0DDF91CF911F91A4
:100E30000F91FF90EF90DF90CF900C946C08DF91B2
:100E4000CF911F910F91FF90EF90DF90CF90089579
:100E50000F931F93CF93DF93EC01688179818A818F
:100E60000E948F098C010E94E8080E94D907B801EE
:100E7000CE010E940B05DF91CF911F910F91089534
:100E8000CF93DF93EC01988189812B813C81232BC7
:100E900031F08F3F31F481E09F3F19F403C081E0CE
:100EA00001C080E080FD19C0CE010E9411038111B4
:100EB0000CC00E94480D882381F08A81882369F044
:100EC00082E0DF91CF910C94120ECE010E94280790
:100ED000CE01DF91CF910C94EE02DF91CF91089576
:100EE00080E090E00E94072780E090E00E941D27AC
:100EF0000E94900D0E94A00D0E94C20D0E946B19CD
:100F00000C943A1880910001909101010E94792778
:100F10000C9470070E94800D0C948207E92FE295D3
:100F2000EF704E2F50E0FA013297EE30F105B0F439
:100F3000EA59FF4F0C942B33803F91F018F4883E10
:100F400068F40EC0843F51F40BC0883E48F0813FE6
:100F500029F406C093FB882780F9089580E008955E
:100F600081E00895FC01808191810E9484090E94A2
:100F70008E070895CF93DF9300D000D01F92CDB796
:100F8000DEB70F900F900F900F900F90DF91CF91E1
:100F90000895CF93DF9300D000D000D0CDB7DEB757
:100FA00026960FB6F894DEBF0FBECDBFDF91CF916E
:100FB0000895089508950C94DA070C94DB070E94B5
:100FC000DD0760932A0270932B0280932C0290938A
:100FD0002D020C9470070C94DF070F931F93009160
:100FE0002A0210912B0220912C0230912D02602BAD
:100FF000712B822B932B1F910F910C94DF070F9372
:101000001F9300912A0210912B0220912C02309103
:101010002D0260237123822393231F910F910C943F
:10102000DF070F931F9300912A0210912B0220914A
:101030002C0230912D0260277127822793271F9160
:101040000F910C94DF070C94DA070E942308609339
:1010500026027093270280932802909329020C9411
:10106000700760E070E0CB010C9425080F931F938C
:1010700041E050E060E070E08A019B0104C0000F95
:10108000111F221F331F8A95D2F7C901B8011F9182
:101090000F910C9425080F931F9341E050E060E0FE
:1010A00070E004C0440F551F661F771F8A95D2F762
:1010B0008091260290912702A0912802B0912902E6
:1010C0008A019B01082B192B2A2B3B2BC901B80144
:1010D0001F910F910C9425080F931F9341E050E04E
:1010E00060E070E004C0440F551F661F771F8A95AB
:1010F000D2F7409550956095709580912602909119
:101100002702A0912802B09129028A019B0108239D
:1011100019232A233B23C901B8011F910F910C9475
:1011200025080F931F9341E050E060E070E004C099
:10113000440F551F661F771F8A95D2F780912602AC
:1011400090912702A0912802B09129028A019B0167
:10115000082719272A273B27C901B8011F910F919A
:101160000C9425080F931F930091260210912702DB
:101170002091280230912902602B712B822B932B16
:101180001F910F910C9425080F931F930091260235
:1011900010912702209128023091290260237123A7
:1011A000822393231F910F910C9425080F931F9373
:1011B00000912602109127022091280230912902E5
:1011C00060277127822793271F910F910C94250880
:1011D000089524E0929F900D1124890FE82FE69541
:1011E000E695E695877051E001C0550F8A95EAF7BC
:1011F00085E0E89FF0011124E35FFD4F20E030E03F
:1012000070E04081CB01022E02C0969587950A942A
:10121000E2F78170819584278523842781932F5F4E
:101220003F4F2530310569F7089524E0929F900DD6
:101230001124890F682F669566956695982F97708B
:1012400085E0689FB001112440E050E080E0FB01A0
:10125000E40FF51FE35FFD4F208130E0092E02C04F
:10126000369527950A94E2F721703327042E01C0A2
:10127000220F0A94EAF7822B4F5F5F4F45305105EA
:1012800031F70895BF92CF92DF92EF92FF920F93C2
:101290001F93CF93DF938C01C0902602D09027023A
:1012A000E0902802F090290280912A0290912B026E
:1012B000A0912C02B0912D02C82AD92AEA2AFB2A31
:1012C000CFE1D0E0D701C6010C2E04C0B695A7959A
:1012D000979587950A94D2F780FD04C0219790F7DF
:1012E000B12C07C0BC2EB8018C2F0E941C11019795
:1012F000A9F38B2DDF91CF911F910F91FF90EF906C
:10130000DF90CF90BF900895CF93DF93EC010E94C0
:101310004209BE010E941C11DF91CF9108951F93D5
:10132000CF93DF93EB0190910C02992321F0CB0135
:101330000E94840913C0882349F0CB010E9442090E
:10134000182F682FCE010E94E90804C0CB010E942B
:101350001509182FBE01812F0E941C11DF91CF911A
:101360001F910895EF92FF920F931F93CF93DF93F6
:101370008C01892B09F46CC0F12CEE24E394E80174
:101380002196F8018491843740F4843008F051C0EC
:10139000813081F0823019F15BC0853709F444C097
:1013A000A8F19CE7980F903708F052C08F770E9401
:1013B000750441C00E5F1F4FFE01849190E2980FAB
:1013C000983050F48770FE2D01C0FF0F8A95EAF720
:1013D0008F2F0E94930D14C00E94CB032DC00E5F6F
:1013E0001F4FFE01849190E2980F983060F487704F
:1013F000FE2D01C0FF0F8A95EAF78F2F0E94990DED
:101400000E94C20D19C00E94750416C00E5F1F4FC6
:10141000FE01C491CC2381F08FE99FE00197F1F7A1
:1014200000C00000C150F6CF0E5F1F4FFE01F490C8
:1014300003C00E94CB038E018F2D882309F49FCF18
:10144000EFE9FFE03197F1F700C000008150F5CFE0
:10145000DF91CF911F910F91FF90EF9008951F930F
:10146000CF93DF93C0912E0216E080912F02C81710
:1014700099F0D0E01C9FF0011D9FF00D1124E05D5C
:10148000FD4F4081518162817381848195810E94E9
:10149000C9072196C770E9CFDF91CF911F910895B9
:1014A000409160025091610260916202709163020A
:1014B00080916402909165020C94C9070F931F9369
:1014C000CF93DF938091650282958F7009F05DC0A4
:1014D00080916202882309F458C080912E021091F5
:1014E0002F026091600270916102C0916302D091FD
:1014F000640291E06F3F09F090E0292F06E0811728
:1015000009F443C0209721F07F3F21F030E003C071
:1015100031E001C0322F90E030FD34C0089FF0016F
:10152000099FF00D1124DF01A05DBD4F11963C9184
:101530001197371327C03C91361324C012963C9163
:10154000129731111FC013964D915C9114974C1B4B
:101550005D0B483C5105B0F4809165028F7080614D
:1015600080936502EB5CFD4F80818F70806180838A
:1015700080E692E00E944007DF91CF911F910F918A
:101580000C942F0A01968770BACFDF91CF911F91EB
:101590000F9108959F92AF92BF92CF92DF92EF92F8
:1015A000FF920F931F93CF93DF93CDB7DEB7619771
:1015B0000FB6F894DEBF0FBECDBF8C0185E0F801F9
:1015C000DE011D9601900D928A95E1F7F801E28007
:1015D00090916002609161022091630230916402F7
:1015E0002115310531F06F3F31F481E09F3F19F44F
:1015F00003C081E001C080E0F82FF1709F2E80FDD4
:101600003FC1F80140815181A380B48080E6C82E9B
:1016100082E0D82EF0906202F501E21BF30BFF206E
:1016200009F4D9C080916502E83CF10508F095C045
:10163000282F207F09F052C0561313C0491311C040
:10164000FE2CE1100EC08F708061809365020E94B5
:10165000500AC6010E94400780916502F801858307
:101660004CC1AB2831F05F3F31F481E04F3F19F4BA
:1016700003C081E001C080E080FD03C081E08E25D1
:1016800002C080E090E0F82FF170FF2E80FF1CC0B8
:1016900080912E0220912F0236E0821709F40BC1AF
:1016A00090E0389FF001399FF00D1124E05DFD4F6F
:1016B0006181561306C06081461303C06281E61241
:1016C00003C001968770E9CFFE2CEE2009F415C106
:1016D0008091650281608093650254C0561306C0F4
:1016E000491304C0E11002C0F80199C0C8010E946A
:1016F000B207882361F1EE2051F120916502822F1B
:1017000082958F7090E0029774F0809160029091C2
:10171000610298878F831986BB86AA862C87CE01A3
:1017200007960E94400786E0F801A0E6B2E001902B
:101730000D928A95E1F70E945E0A0E94500A0AC043
:10174000561711F1C8010E94B20781112CC0C801BF
:101750000E944007FF24F394D0C0282F207F81F7F8
:101760007A2DB98AA88A6E2D89890E94BA0780E6E7
:1017700092E00E94400786E0F60111928A95E9F70F
:101780000E94500AF12CB9C04913DCCFE110DACF26
:10179000F8018583C8010E94400786E0F601119296
:1017A0008A95E9F7AAC0EE2091F220916502822F76
:1017B00082958F7090E002970CF4B5CF8091600213
:1017C000909161029A8389831B82BD82AC822E83B1
:1017D000CE010196A6CFE83CF10508F044C0FE2CEE
:1017E000EE2009F4B4CF561330C049132EC0209117
:1017F000650220FD21C0822F82958F70482F50E016
:1018000041155105C9F0F80125834F30510541F0CC
:101810008F5F982F9295907F822F8F70892B858371
:10182000C8010E94400786E0F801A0E6B2E00190FE
:101830000D928A95E1F73CC086E0F801A0E6B2E09F
:1018400001900D928A95E1F758C0C8010E94B20735
:10185000811169CF80916502816080936502C80122
:101860000E9440074AC07A2DB98AA88A6E2D8989BC
:101870000E94BA0786E0F60111928A95E9F718C02E
:10188000EE2009F464CFC8010E94B207F82E882325
:1018900009F45DCF86E0F801A0E6B2E001900D9278
:1018A0008A95E1F780E692E00E94C5030E945E0AF5
:1018B0000E94500A22C04D875E878D859E850E94BA
:1018C0008409292F22952F70223028F49F7039F037
:1018D000811105C00BC0243028F49F7049F4805E4C
:1018E000883020F0C8010E9440079F2CF92C05C0C9
:1018F000F8019581907F99F7F9CF8F2D61960FB6FA
:10190000F894DEBF0FBECDBFDF91CF911F910F9135
:10191000FF90EF90DF90CF90BF90AF909F90089591
:101920001F93CF93DF93CDB7DEB72C970FB6F89404
:10193000DEBF0FBECDBF4F83588769877A878B87FD
:101940009C87CE0107960E94CA0A8823D1F09F8106
:1019500088852A853B85232B31F08F3F31F481E048
:101960009F3F19F403C081E001C080E080FD47C0C3
:101970004F81588569857A858B859C850E94C9072A
:101980003EC086E0FE013796DE01119601900D9271
:101990008A95E1F7FF81E8856A857B856115710588
:1019A00031F0EF3F31F481E0FF3F19F403C081E0F3
:1019B00001C080E080FD23C020912F0230E0C901EA
:1019C00001968770992740912E0250E08417950761
:1019D000F1F1F983EA837D836C8396E0929FD001D5
:1019E000939FB00D1124A05DBD4FFE013196019073
:1019F0000D929A95E1F780932F020E942F0A16E02C
:101A000080912E0290912F02891771F1189FC001C9
:101A10001124805D9D4F0E94CA0A882329F1E0911C
:101A20002E021E9FF0011124E05DFD4F4081518187
:101A300062817381848195810E94C90780912E0201
:101A400090E001968770992780932E02D9CF0E944B
:101A50008A0710922F0210922E02E0E6F2E086E052
:101A6000DF011D928A95E9F72C960FB6F894DEBF38
:101A70000FBECDBFDF91CF911F9108958091660277
:101A8000859585958595089580916602877008955E
:101A900090916602977081E009F480E0089590913A
:101AA000EF0292FB222720F9281751F080FB92F9D0
:101AB0009093EF028091EE029091EF020C94590EF8
:101AC00008958091EF0282FB882780F991E08927B1
:101AD0000C944F0D81E00C944F0D80E00C944F0D51
:101AE00080917202089590917202892B8093720204
:101AF00008958095909172028923809372020895CF
:101B000010927202089590917102892B8093710254
:101B100008958095909171028923809371020895B0
:101B200010927102089590917002892B8093700237
:101B30000895809590917002892380937002089592
:101B400010927002089580916702089508950C9490
:101B5000A60D0C94A70D9091EF0292FD08C09091F4
:101B60006702981721F0809367020C94A90D0895DD
:101B700080916702882329F01092670280E00C941C
:101B8000A90D0895E0910001F09101018091720288
:101B90008083E0910001F0910101908180917102B8
:101BA000892B8083E0910001F09101019081809167
:101BB0007002892B808380916702882381F0E091F5
:101BC0000001F09101019081892B808380910001B7
:101BD000909101010E94332781110E94B80D8091DC
:101BE0000001909101010C94EE260C94A60D9091A9
:101BF000EF0292FD10C098E0899F90011124262BDE
:101C0000209366020E944B08809166028595859517
:101C100085950C94F50D0C944B081092660280E0AB
:101C20000C94F50D209166028095822380936602C4
:101C3000982F977041F430E0482F082E000C550B78
:101C40002417350721F49091EF0292FF07C0859584
:101C5000859585950E946C080C940D0E08956FEF84
:101C60007FEF80E090E00C94B73380E090E00E943A
:101C7000933321E0893E9E4F09F020E0822F0895A2
:101C800082E090E00C94853383E090E00C948533FF
:101C9000CF9384E090E00E948533C82F82E290E0E9
:101CA0000E9485332C2F30E0A901582BCA01CF9117
:101CB0000895CF93C92F682F84E090E00E94993354
:101CC0006C2F82E290E0CF910C949933AB01BC0170
:101CD0008FE090E00C94AB33AB01BC0183E190E06A
:101CE0000C94AB3360E070E0CB010C946C0E60E0C0
:101CF00070E0CB010E94660E0C94720E69EE7EEFCE
:101D000080E090E00E94B73360E082E090E00E94C3
:101D1000993360E083E090E00E94993310922A02A8
:101D200010922B0210922C0210922D0260E084E09F
:101D300090E00E94993360E082E290E00E94993343
:101D400060E085E090E00E94993360E086E090E0FA
:101D50000E9499336FEF87E090E00E94993340E052
:101D600050E0BA0188E090E00E94AB3360E08DE083
:101D700090E00E94993340E050E0BA0188E190E0A1
:101D80000E94AB3360E087E190E00E94993340E02D
:101D900050E0BA018CE190E00E94AB3360E070E06B
:101DA00080E290E00E94B73340E050E0BA0188E161
:101DB00090E00E94AB330C94770E0C947E0E682F4B
:101DC0008EE090E00C9499330E9462286093840224
:101DD00070938502809386029093870260938002BD
:101DE00070938102809382029093830208950E94EF
:101DF0006228609384027093850280938602909398
:101E0000870260937C0270937D0280937E029093A0
:101E10007F02089585B7806885BF85B7806885BFD4
:101E200008950C943F1408950C94130F0C94130F01
:101E30000C94160F0C94130F0C941A0F0C94130F90
:101E40000E940A0F88EF91E10E94D0280E941E0F85
:101E50000C941C0F0E94140F0C94130F0E944D2819
:101E60000E9480270E94FC120E9474220E94061F7A
:101E70000E94F4200C94180F9F92AF92BF92CF92C1
:101E8000DF92EF92FF920F931F93CF93DF93CDB723
:101E9000DEB72A970FB6F894DEBF0FBECDBF0E9403
:101EA000B41381110E94E40E84E7A82E82E0B82EBC
:101EB00000E010E0902E802F0E943612D82EF501FF
:101EC000C1905F01C826B1F40F5F1F4F08301105A4
:101ED00089F78FEF89838A831B820E94562881604D
:101EE000782F9D838C8349815A816B818D810E94DB
:101EF0007B032FC08091880281FD0E943C12E12C5F
:101F0000FF24F3948C2D8F21F1F00E94110F882370
:101F100099F0EE829F82DF2081E009F480E08887DB
:101F20000E9456288160782F9A8789874E815F8129
:101F300068858A850E947B03F801EC58FD4F8081FB
:101F4000F826F08206C0E394FF0CF5E0EF12DACF3A
:101F5000BBCF0E944A1F0E94752181110E94F70E7B
:101F60000E9458180E94DB26909173028917B9F0DD
:101F70000E94DB26809373022A960FB6F894DEBF88
:101F80000FBECDBFDF91CF911F910F91FF90EF90CA
:101F9000DF90CF90BF90AF909F900C9472032A96E1
:101FA0000FB6F894DEBF0FBECDBFDF91CF911F916A
:101FB0000F91FF90EF90DF90CF90BF90AF909F90E8
:101FC000089580E090E00895089528E2829FC0017E
:101FD0001124FC0125E0729FE00DF11D1124E60F94
:101FE000F11DEE0FFF1FEE5BFE4F8591949108955A
:101FF000880F991FFC01EE5CFD4F85919491089527
:10200000CF93DF930E942111EC01811520E5920707
:1020100008F03FC0811540E4940708F0D2C0883E24
:10202000910500F5803E910508F002C1883A9105BE
:1020300070F4853A910508F0A6C08130910509F445
:102040009FC008F4F2C0049708F0F2C0EEC08F3BC6
:10205000910508F4A1C0803C910508F4E6C0805CBD
:102060009109A5C0811550E2950760F4C11581E082
:10207000D80708F0DDC0CD3ED10508F4D6C0CE01AA
:102080009065D7C0811520E3920708F093C09F7038
:102090008EC0811545E5940708F046C0811554E5CA
:1020A000950708F0A6C0C11582E5D80718F5C11537
:1020B00021E5D20708F088C0CE01F4E09695879517
:1020C000FA95E1F7282F23703C2F337081E090E0E0
:1020D00002C0880F991F3A95E2F79C68922B2C2F2B
:1020E0002F702695269540E2249F90011124822B83
:1020F000932B9FC09E01237033279C2F9695969516
:10210000C115D34508F065C041E050E002C0440F5E
:10211000551F2A95E2F780E2989F90011124CA0189
:10212000822B932B9C6885C0811559E5950798F4FF
:10213000C11588E5D80708F061C0C11526E5D207AA
:1021400008F073C08C2F0E94B5118F7190E0982F0A
:10215000882790626EC081154AE5940708F453C041
:1021600090568115904208F060C08D2F8F710E94AB
:10217000B5119E01332730628F71A901582B53C0CE
:1021800081E090E056C0855AC82FD0E0C053DE4FA2
:10219000888190E090644DC0885AC82FD0E0CC0F61
:1021A000DD1FCE55DE4F88819981946442C00E9424
:1021B000F80F3FC09927D3FF02C0986C3AC0906CCB
:1021C00038C09F70906A35C09C2F8827816F906AB5
:1021D00030C041E050E002C0440F551F2A95E2F79D
:1021E00080E2989F90011124CA01822B932B9A6858
:1021F00020C0982F8827846F906A1BC09C2F882747
:10220000806F906A16C08F700E94B5119E0194E095
:10221000369527959A95E1F72F7030E0322F2227D7
:102220003069A901482BCA0104C080E090E001C0D8
:10223000CE01DF91CF9108950E94E50F0E9400101A
:1022400008958238910569F1B0F48133910509F45C
:102250006DC048F48932910509F463C08A32910552
:1022600009F469C008958533910509F455C089338F
:102270009105B9F00895833E910569F138F4803EE7
:102280009105B1F0823E910509F10895863E9105D0
:10229000A9F1873E9105B9F1843E910509F064C02A
:1022A00023C02091EE0220FD4FC021FD4DC00895B6
:1022B0008091EE0280FD44C08091EF0280FF44C017
:1022C0008091EE0284FD42C083EE4DC08091EE020B
:1022D00082FF38C0F5CF8091EE0282FD33C080913D
:1022E000EF0280FD31C0ECCF8091EF0281FF32C060
:1022F0008091EE0284FD2AC087EE35C08091EE0207
:1023000083FF26C0F5CF8091EE0283FD21C080912E
:10231000EF0281FD1FC0ECCF8091EE0285FD1CC055
:102320001DC08091EE0285FD19C016C08091EE029D
:1023300086FD16C017C08091EE0286FD13C010C046
:1023400089E311C082EE0FC080EE0DC080E00BC0AB
:1023500086EE09C084EE07C089E205C085E303C0AC
:102360008AE201C081E390E008959091EE0292FF2D
:102370000DC0282F2871283019F4877F846006C08B
:10238000282F2471243011F48B7F886093FF0DC0B7
:10239000282F2871283119F4877E846106C0282FE0
:1023A0002471243111F48B7E88612091EF0220FF8B
:1023B0000DC0382F3871383019F4877F816006C01E
:1023C000382F3171313011F48E7F886021FF0DC0BC
:1023D000282F2871283119F4877E816106C0282FA3
:1023E0002171213111F48E7E886194FD877E0895DC
:1023F00080E008950C942F0E0E94B4138FE39CE9A3
:102400000197F1F700C000000E94B41380E00E9421
:10241000361280FF04C00E94FA110C94BF28089560
:102420000C94FC110E94350E811102C00E94DD0E39
:102430000E94400E809388020E94480E9093EF0203
:102440008093EE020E9410120E94440E682F70E0EA
:1024500080E090E00E94EB076091260270912702D5
:1024600080912802909129020C942308E82FF0E033
:10247000E850FD4F80810895089580EA8A95F1F72C
:10248000089500C008950C943D1208950C944512CF
:102490000C9446120C9445120C944A12F894E82FAE
:1024A000E295EF70F0E031A1282F2F7081E090E0ED
:1024B00001C0880F2A95EAF7982F9095932391A34E
:1024C00092A1892B82A37894089508950C946512A3
:1024D0000F931F93CF93DF93C2E0D1E089918F3F99
:1024E00011F00E944E1281E0C730D807B9F7C7E05B
:1024F000D1E00BE011E089918F3F11F00E944E1264
:102500000C171D07C1F7DF91CF911F910F9108950F
:10251000DF92EF92FF920F931F93CF93DF93062FDB
:1025200010E00E5F1E4FE80128812F3F09F45CC0C8
:10253000F62EE92ED82EF894E22FE295EF70F0E017
:1025400081A12F70C1E0D0E0AE0102C0440F551F41
:102550002A95E2F79A01842B81A382A12095282352
:1025600022A378940E9441120F2C01C0CC0F0A9430
:10257000EAF73C2F6C2F6095A7E0B1E0ED2DFE2D22
:10258000AF014C5F5F4FE12C2D912F3FA9F0822FBF
:1025900082958F7090E0EC0188A190E02F7002C0CE
:1025A000959587952A95E2F780FD06C08081832B5B
:1025B0008083EE24E39403C0808186238083319658
:1025C000E417F50709F7F80180818F3F11F00E94A9
:1025D0004E126E2D8F2DDF91CF911F910F91FF9095
:1025E000EF90DF900C944312DF91CF911F910F91E8
:1025F000FF90EF90DF900895CF93DF93CDB7DEB7D4
:102600002D970FB6F894DEBF0FBECDBF0E945914B0
:1026100080910F0181112FC0FE01319628E0DF016A
:102620001D922A95E9F725E3298324E32A8321E3F0
:102630002B8327EF2C83CF01E7E0F1E09E01275F9A
:102640003F4FDC014D91CD014193A217B307C9F76C
:1026500025E0ECE6F1E0DE01199601900D922A9555
:10266000E1F7FC01A2E0B1E0CE010E9621912D939D
:10267000E817F907D9F780910F01811102C094E0A2
:1026800001C090E09093010384E0891B80930003D4
:102690000E946812E0EFF2E0A8EFB2E011921D9202
:1026A00082E0E83FF807D1F784E00E9408140E9416
:1026B000F9022D960FB6F894DEBF0FBECDBFDF91A5
:1026C000CF910C9463141F93CF93DF9300D000D06D
:1026D000CDB7DEB70E943F1460910103882371F1EA
:1026E00019821A821B821C82862F90E0BE016F5FC6
:1026F0007F4F88509D4F0E947114E09100039E010E
:102700002B5F3F4FF0E0E850FD4FDE01119688232C
:1027100061F010E08D919081981711F0808311E0A5
:102720003196A217B307B1F706C011921D92A217F6
:10273000B307D9F711E00E94FF020DC070E06850A6
:102740007D4F8091000390E088509D4F0E940115BD
:102750000E94661210E0812F0F900F900F900F9043
:10276000DF91CF911F910895EF92FF920F931F93E6
:10277000CF93DF93CDB7DEB728970FB6F894DEBFBF
:102780000FBECDBF8E010F5F1F4F88E0F801119281
:102790008A95E9F7F12C6F2DC8010E948812F394F5
:1027A000F5E0FF12F8CF48E050E0B80180EF92E08A
:1027B0000E946F337C0121E0892B09F420E0E114B1
:1027C000F10441F088E0F801A0EFB2E001900D9231
:1027D0008A95E1F76091010370E068507D4F44E015
:1027E00080EF92E00E940914EF2819F40E9463130D
:1027F00002C081E090E028960FB6F894DEBF0FBECD
:10280000CDBFDF91CF911F910F91FF90EF90089571
:102810000895FF920F931F93CF93DF938C01F62EB1
:10282000D72FC42F222349F081E080938B020E948E
:10283000562890938A028093890280918B02882384
:10284000C1F08091890290918A020E946E280597BA
:1028500080F0EF2DFD2FD8014C2F50E0CD01801BD3
:10286000910B841795071CF48D918193F7CF1092EB
:102870008B02DF91CF911F910F91FF90089580916E
:102880008E0281110DC00E948B2F811102C082E047
:1028900001C081E080938E02823011F40E94862F65
:1028A00081E090918E02913009F080E008950C94BF
:1028B0003F140E94571480930F010E943F1481110E
:1028C0000C94A91408950E943F14811102C00C9425
:1028D000AB14089581E090918F029A3008F080E067
:1028E00008950F931F93CF93DF93EC018B01809199
:1028F0008F028A3038F4B801CE010E94FF14811192
:102900001DC00AC080918C0290918D020E946E2899
:10291000843F914080F715C080918F028F3F19F05E
:102920008F5F80938F0280918F028A3060F00E94C7
:10293000562890938D0280938C0203C010928F02D0
:1029400002C080E001C081E0DF91CF911F910F9123
:1029500008950C9411250C941425EF92FF920F9377
:102960001F93CF93DF937901C82F880FDD0B41159B
:102970005105A9F08AE08C9FF0018D9FF00D112484
:10298000E05FFE4F8381948180579D4F228130E02C
:102990004217530708F49A01A9010E947C33CE0123
:1029A0000E941E26892B09F50115110501F18AE007
:1029B0008C9FF0018D9FF00D1124E05FFE4F45814B
:1029C00050E00417150708F4A8018AE08C9FF00175
:1029D0008D9FF00D1124E05FFE4F66817781605777
:1029E0007D4FC7010E947C3302C080E001C081E0BE
:1029F000DF91CF911F910F91FF90EF9008950C946C
:102A000064160C9488160F931F93CF93DF9300D016
:102A100000D0CDB7DEB76091AC027091AD0280916D
:102A2000AE029091AF020E947D2864367105810547
:102A3000910528F10E94A627DC01CB010296A11D79
:102A4000B11D89839A83AB83BC8300E010E020E052
:102A500030E044E050E0BE016F5F7F4F84E00E94B1
:102A6000AD14182F882361F00E9462286093AC0295
:102A70007093AD028093AE029093AF0201C011E05B
:102A8000812F0F900F900F900F90DF91CF911F919A
:102A90000F9108957F928F929F92AF92BF92CF92A3
:102AA000DF92EF92FF920F931F93CF93DF931F92CA
:102AB000CDB7DEB7762E4A015901680101E010E07A
:102AC0009E012F5F3F4F40E050E060E070E00E94C9
:102AD000AD14182F882379F1F4016081718182810E
:102AE00093810E947D286436710581059105E0F08F
:102AF0008701950140E050E060E070E0872D0E9482
:102B0000AD14182FB701C6010E94752291E02981EA
:102B1000281390E01923A1F00E946228F401608339
:102B20007183828393830CC0B701C6010E94752212
:102B300099818913DDCFA701B601C5010E947C33BD
:102B4000812F0F90DF91CF911F910F91FF90EF9008
:102B5000DF90CF90BF90AF909F908F907F9008951F
:102B6000EF92FF920F931F93CF93DF9300D0CDB7D7
:102B7000DEB70091D3011091D4010A5F1F4F82E0AC
:102B8000E82EF12C9E012F5F3F4F48EA52E063E0B0
:102B900082E00E944A15182F882321F0CE01019669
:102BA0000E942422812F0F900F90DF91CF911F91CF
:102BB0000F91FF90EF900895CF92DF92EF92FF92E6
:102BC0000F931F93CF93DF9300D000D0CDB7DEB724
:102BD0006B010091D3011091D4010F5F1F4F84E06E
:102BE000E82EF12C9E012F5F3F4F44EA52E061E056
:102BF00080E00E944A15882361F049815A816B81E7
:102C00007C814093A0025093A1026093A202709332
:102C1000A3024091A0025091A1026091A202709182
:102C2000A302F60140835183628373830F900F9058
:102C30000F900F90DF91CF911F910F91FF90EF9028
:102C4000DF90CF900895AF92BF92CF92DF92EF9234
:102C5000FF920F931F93CF93DF937C015B016A0177
:102C60000E946A14811103C001E010E002C00AE072
:102C700010E0C1E0D0E0F894B501C701F601099574
:102C80007894811115C021960C171D0794F0CC9FE4
:102C90009001CD9F300D300D112480E090E045E390
:102CA0004A95F1F70000019682179307C1F7E3CF29
:102CB00081E0DF91CF911F910F91FF90EF90DF9016
:102CC000CF90BF90AF9008950F931F93CF93DF9352
:102CD000EC018B014CED55E10E942316882391F005
:102CE00040EB55E1B801CE010E942316882351F034
:102CF00043E055E1B801CE01DF91CF911F910F91D3
:102D00000C94231680E0DF91CF911F910F910895CD
:102D10000F931F93CF93DF9300D0CDB7DEB7F89416
:102D20000091D3011091D401C801019624E0FB0168
:102D3000DC0101900D922A95E1F764E070E00E94B9
:102D40007522F80180837894F894CE0101960E9450
:102D5000192289819A81F8019783868362E070E065
:102D6000CE0101960E947522F80185837894F8942B
:102D7000608571858285938500919C0210919D02EA
:102D800020919E0230919F0260177107820793077E
:102D900051F060939C0270939D0280939E029093E9
:102DA0009F020E94892778940F900F90DF91CF9116
:102DB0001F910F9108950E94CA270E94312A0E94F4
:102DC0004A2A0E945C2A0E942A0FFBCF8091B602F9
:102DD00080FF0BC06091470185E0689FB00111241E
:102DE00075956795759567952BC081FF09C06091B2
:102DF000470185E0689FB00111247595679520C053
:102E000082FF07C06091470185E0689FB0011124EF
:102E100017C09091B5029923D1F0609146019617A1
:102E200088F72091470185E0289F90011124929F07
:102E3000A001939F500D112470E0CA010E94F53249
:102E40006038710540F46115710519F406C065E03C
:102E500070E0862F08958FE7089581E008958091AE
:102E6000B60280FF08C06091430170E075956795D8
:102E70007595679521C081FF06C06091430170E0A0
:102E80007595679519C082FF04C06091430170E099
:102E900010C09091B402992399F060914201961765
:102EA000A0F780914301899FC001112470E00E9426
:102EB000F5326038710540F46115710519F406C0EA
:102EC00061E070E0862F08958FE7089581E008950E
:102ED0008D3E21F40E94E616819504C08E3E29F4B1
:102EE0000E94E6168093BA0208958F3E21F40E9454
:102EF000E616819504C0803F29F40E94E61680936F
:102F0000B9020895893F19F40E942F1705C08A3F1E
:102F100031F40E942F1781958093BB0208958B3F57
:102F200021F40E942F17819504C08C3F29F40E9440
:102F30002F178093BC0208959FE0980F983078F483
:102F400021E030E0A90102C0440F551F9A95E2F735
:102F5000CA019091B802892B8093B80208958D3FE1
:102F600021F48091B60281600BC08E3F21F48091E4
:102F7000B602826005C08F3F29F48091B60284605A
:102F80008093B60208958D3E39F49091BA0297FF6E
:102F900035C01092BA0259C08E3E29F49091BA02FF
:102FA0001916BCF32BC09091B9028F3E29F497FFFC
:102FB00025C01092B90249C0803F19F41916CCF30C
:102FC0001DC09091BB02893F29F41916BCF41092E0
:102FD000BB023BC08A3F19F497FF10C0F8CF8B3F6C
:102FE00039F49091BC0297FF09C01092BC022DC029
:102FF0008C3F21F49091BC021916BCF39FE0980F0E
:10300000983080F421E030E0A90102C0440F551F40
:103010009A95E2F7CA0180959091B802892380932E
:10302000B80213C08D3F21F48091B6028E7F0BC091
:103030008E3F21F48091B6028D7F05C08F3F29F429
:103040008091B6028B7F8093B6028091B902811184
:1030500006C08091BA02811102C01092B50280911F
:10306000BB02811106C08091BC02811102C0109286
:10307000B40208950E9456282091B902211104C07B
:103080002091BA02222321F09093B3028093B202DE
:103090002091BB02211104C02091BC02222321F007
:1030A0009093B1028093B00287EB92E00C94F926E2
:1030B000EF92FF920F931F93CF93DF9300D000D036
:1030C00000D0CDB7DEB786E0E7EBF2E0DE01119687
:1030D00001900D928A95E1F7E090B902F090BA0262
:1030E0000091BB021091BC021092B9021092BA0278
:1030F0001092BB021092BC02E11003C0FF2009F441
:103100005DC08091B2029091B3020E946E28AC0122
:103110009091B502992339F02091480130E02417AD
:10312000350758F04BC0209149018AE0289F900153
:1031300011242417350718F041C09F3F19F09F5FF5
:103140009093B502EE2061F00E94E6161E1414F072
:103150009FEF01C091E0989F902D11249093B902A8
:10316000FF2061F00E94E6161F1414F09FEF01C0CB
:1031700091E0989F902D11249093BA023091B9025A
:103180003323E1F02091BA022223C1F045EB34034E
:10319000C0011124992319F09093B90203C081E072
:1031A0008093B90235EB2303C0011124992319F050
:1031B0009093BA0203C081E08093BA02011103C068
:1031C000112309F45DC08091B0029091B1020E9478
:1031D0006E28AC019091B402992339F020914401FA
:1031E00030E02417350758F04BC0209145018AE0A4
:1031F000289F900111242417350718F041C09F3FE4
:1032000019F09F5F9093B402002361F00E942F1782
:10321000101614F09FEF01C091E0989F902D11249B
:103220009093BB02112361F00E942F17111614F026
:103230009FEF01C091E0989F902D11249093BC02C4
:103240003091BB023323E1F02091BC022223C1F074
:1032500045EB3403C0011124992319F09093BB026C
:1032600003C081E08093BB0235EB2303C00111242E
:10327000992319F09093BC0203C081E08093BC02B3
:103280008091B90281110BC08091BA02811107C0EF
:103290008091BB02811103C08091BC0281110E9408
:1032A0003A18EB82FC820D831E8386E0FE01319684
:1032B000A7EBB2E001900D928A95E1F726960FB642
:1032C000F894DEBF0FBECDBFDF91CF911F910F915C
:1032D000FF90EF900895E7EBF2E086E0DF011D92AA
:1032E0008A95E9F71092B5021092B4021092B602D4
:1032F0000895EF92FF920F931F93CF93DF938B016B
:10330000682F11110AC0442329F0E82FF0E0E75B91
:10331000FD4F6491762F862F75C0212F30E0E82F66
:10332000F0E0442321F0E75BFD4FE491F0E046E05C
:10333000049FC0011124CFEFD0E0BE010E94E13212
:103340004BEA4603C001479F900D1124800F911D49
:10335000800F911D982F990F890FAE01421B530BBF
:103360004E9FD0014F9FB00D5E9FB00D11249B2F3B
:10337000189FA0011124452F55278E01041B150B02
:103380000E9FA0010F9F500D1E9F500D11247E0116
:10339000E81AF108E29E8001E39E100DF29E100DE6
:1033A0001124212F3327C21BD30BCE9F9001CF9F17
:1033B000300DDE9F300D112462307105A9F048F404
:1033C0006115710569F061307105C9F48B2F752F96
:1033D0000DC06430710581F058F06630710579F4E4
:1033E0007E2F8B2F932F0DC0832F7B2F9E2F09C0F5
:1033F0008E2F7B2F952F05C08E2F732F02C07E2F0F
:10340000852F692FDF91CF911F910F91FF90EF9042
:10341000089541E00E947919089508950E94091ABB
:103420000895CF93DF93762FE901682F842F0E94B0
:103430000E1A798368838A83DF91CF9108958091F2
:103440000303282F269530E02115310519F48170EA
:10345000826005C02532310524F081708864809334
:103460000303089588E090E00C948D33CF92DF92AF
:10347000EF92FF926B017C010E941F1AB701A60117
:1034800088E090E0FF90EF90DF90CF900C94AB330A
:10349000E3E0F3E083E0808311828FEF8283838314
:1034A000148260817181828193810C94361A80919B
:1034B000030380FF02C08695089580E008959091EF
:1034C0000703933018F49F5F90930703882351F00C
:1034D00060910303709104038091050390910603AA
:1034E0000C94361A089581E00C945F1A90910703AA
:1034F000992319F0915090930703882351F060911C
:1035000003037091040380910503909106030C94CA
:10351000361A089581E00C94761A70E00C94C72056
:1035200060914E018091030380FF0AC080914D019C
:1035300023E0829FC0011124885F9C4F0C948D1A58
:1035400080914F0190915001891780F7E82FF0E0AA
:103550009F01220F331FE20FF31FE85FFC4F118220
:10356000108212828F5FF0CF9091030390FF16C0FC
:1035700090914F0120915001921770F4E92FF0E0E3
:10358000DF01AA0FBB1FEA0FFB1FE85FFC4F81831F
:10359000608342839F5FF0CF0C94901A0895CF937D
:1035A000DF9300D01F92CDB7DEB79091030390FF59
:1035B0000AC09E012F5F3F4F0E94111A4B81698103
:1035C0008A810E94B41A0F900F900F90DF91CF91D3
:1035D0000895CF93DF93EC016C8170E080E090E080
:1035E0000E94E23020E030E04FE753E40E940530D3
:1035F0002BED3FE049E450E40E940B320E94783208
:103600000E947F302BE43AE34EE25FE30E94982F62
:1036100020EF3BEF48ED52E40E940B320E94B130A4
:10362000462FE3E0F3E0628181810E94CF1A8C8112
:103630008F5F8C83DF91CF910895CF93DF93EC015F
:10364000E3E0F3E0438162818C810E94CF1A8C8198
:103650008F5F8C83DF91CF9108950F931F93CF934A
:10366000DF9300D01F92CDB7DEB78C018091BD02F1
:1036700081110AC09E012F5F3F4F4FEF6FEF0E94F5
:10368000111A8A818093BD02F8018481813051F042
:1036900028F0823061F44091BD020AC08091BD02E1
:1036A00040E007C06091BD0240E080E003C040E020
:1036B00080E060E00E94B41AF801848190E00196F5
:1036C00063E070E00E94F53284830F900F900F90BA
:1036D000DF91CF911F910F910895AF92BF92CF923A
:1036E000DF92EF92FF920F931F93CF93DF9300D05F
:1036F0001F92CDB7DEB7182FF62E042FE22E909131
:10370000030390FF6DC0E92FE695AE2FB0E0AB52FA
:10371000BE4F8C918093C9029E7F923061F49E01CE
:103720002F5F3F4F812F0E94111A4B8169818A813F
:103730000E94B41A43C0823019F4009106033EC0BF
:10374000863019F41091040339C08930D9F38931D6
:10375000A9F5E9518E2F8170D82EE695F0E0EC5B4B
:10376000FD4FA590B490C12CBB2460915101C616A9
:1037700018F52C2D30E0A29EC001A39E900DB29EA4
:10378000900D112470E00E94E132812FD11002C00F
:10379000860F01C0861B90914F01290F311DA90191
:1037A000440F551F240F351F285F3C4F402F6F2DAE
:1037B0000E94111AC394D9CF0E94901A1093040347
:1037C000F092050300930603EE2051F0609103038D
:1037D0007091040380910503909106030E94361AAC
:1037E0000F900F900F90DF91CF911F910F91FF904D
:1037F000EF90DF90CF90BF90AF900895E3E0F3E0BB
:103800009181282F4381628188E0890F0C946D1B80
:1038100081E00C94FE1BE3E0F3E09181282F4381CB
:10382000628188EF890F0C946D1B81E00C940B1C56
:10383000E3E0F3E0628128E0620F08F46FEF282FE5
:10384000438181810C946D1B81E00C94181CE3E092
:10385000F3E0628128E0621B08F460E0282F4381D6
:1038600081810C946D1B81E00C94271CE3E0F3E054
:10387000438128E0420F08F44FEF282F62818181B5
:103880000C946D1B81E00C94361CE3E0F3E0438163
:1038900028E0421B08F440E0282F628181810C94CB
:1038A0006D1B81E00C94451C20E00C946D1BFF9275
:1038B0000F931F93CF93DF93EC01F12C0FEF10E0E8
:1038C00060915101F616F0F480914F012F2D30E0F8
:1038D000280F311DC901880F991F280F391F285F34
:1038E0003C4F70E0C8010E94F532962F8C814091C8
:1038F000060360910503F99E800D11240E94111AA0
:10390000F394DECF0E94901A9A818C8190FF02C0BE
:103910008F5F01C081508C83DF91CF911F910F91F8
:10392000FF900895BF92CF92DF92EF92FF920F9394
:103930001F93CF93DF93FC01828180FF02C00FEFC2
:1039400001C001E010E080915101181708F040C05B
:1039500080914F01C12ED12CE601C80FD11DCE019F
:10396000880F991FC80FD91FC85FDC4F19821882B2
:103970001A8234E0E32EF12CB12C8091BF028B0D22
:10398000813114F08F7005C087FF03C09091510101
:10399000890F082E000C990BC816D90691F4809156
:1039A00006038E9DA0018F9D500D112455954795BE
:1039B000559547959E0160910503809104030E94EF
:1039C000111AB00EF1E0EF1AF108B9F61F5FBBCF84
:1039D0000E94901A8091BF02013031F4811102C01F
:1039E00080915101815007C090E001966091510192
:1039F00070E00E94F5328093BF02DF91CF911F915A
:103A00000F91FF90EF90DF90CF90BF900895CF93EC
:103A100080914F0190915001891770F4E82FF0E0E8
:103A20009F01220F331FE20FF31FE85FFC4F11824B
:103A3000108212828F5FF0CFC0E060915101C617F3
:103A4000C0F5EC2FF0E070E0CF010E94F53220913C
:103A50004F01820F2091BE02022E000C330B90E02A
:103A6000E217F307CCF020914C01022E000C330B2F
:103A70002E173F078CF09C01220F331F820F931FDC
:103A80009C01285F3C4F40910603609105038091A3
:103A900004030E94111A0BC0FC01EE0FFF1F8E0FD2
:103AA0009F1FFC01E85FFC4F118210821282CF5FE2
:103AB000C4CF0E94901A20914B018091BE02820FC8
:103AC0008093BE0290914C01920F90934C01191675
:103AD0005CF4082E000C990B4091510150E04150CC
:103AE0005109841795071CF0219520934B01CF9124
:103AF00008958F929F92AF92BF92CF92DF92EF92F2
:103B0000FF920F931F93CF93DF938C01FC014481AD
:103B1000C42FD0E09E01DE010E9439339B01AC012D
:103B20000E944F336B017C01E0E2F0E0EC1BFD0BE7
:103B3000A5E5B0E09B01AC010E944F334B015C0155
:103B40009F01DF010E9431339B01AC010E945A3377
:103B50009B01AC012C0D3D1D4E1D5F1DC501B40127
:103B60000E940933C22FD22F2A3228F4F3E02F9F6C
:103B7000900111240DC025E530E02C1B3109C9014D
:103B8000880F991F280F391F37FF02C02F5F3F4F43
:103B900035952795C22FC095F12C85E5E82EED1AB5
:103BA00080915101F816C8F4F1FC02C08E2D01C0BD
:103BB0008D2F90914F012F2D30E0290F311DA9013C
:103BC000440F551F240F351F285F3C4F4C2F609129
:103BD00005030E94111AF394E3CF0E94901AF80192
:103BE0008481811102C091E003C0803219F49FEFFB
:103BF00090934A0190914A01890FF8018483DF91E3
:103C0000CF911F910F91FF90EF90DF90CF90BF90D9
:103C1000AF909F908F9008950F931F93CF93DF9352
:103C2000EC0100E010E080915101282F30E00217F4
:103C3000130724F590914F019801290F311DA90117
:103C4000440F551F240F351F285F3C4F869590E089
:103C50004C81081719071CF4442331F002C04111AC
:103C600003C04091060301C040E0609105038091CC
:103C700004030E94111A0F5F1F4FD5CF0E94901AA4
:103C80008C8190E00196817099278C83DF91CF9190
:103C90001F910F910895E3E0F3E080818E7F808390
:103CA00060817181828193810E94361A1092CA02CA
:103CB0002FEF80E792E0215080409040E1F700C074
:103CC00000000C94901AE3E0F3E080818E7F808303
:103CD0001092CA022FEF80E792E02150804090407E
:103CE000E1F700C000000C94901A1092CA02809173
:103CF000C70281110AC081E08093C702809103034B
:103D000081708093C6020C94631E08956091030332
:103D1000669570E04BE050E082E591E00E946233EE
:103D2000892B19F481E08093CA020E94C1279093E5
:103D3000C1028093C00208959091030390FF35C0A3
:103D40009170811102C0926006C0853210F09864B3
:103D500002C0880F982B90930303662351F0609163
:103D600003037091040380910503909106030E9460
:103D7000361A60910303669570E04BE050E082E5EF
:103D800091E00E946233892B19F01092CA0202C09E
:103D90000E94861E81E08093C302409106036091D9
:103DA0000503809104030C94541C0895682F90918E
:103DB0000303969581E0890F853208F081E00C9429
:103DC0009C1E81E00C94D61E682F9091030396955B
:103DD0008FEF890F09F484E20C949C1E81E00C940F
:103DE000E41E61E00C949C1EE3E0F3E080818160BE
:103DF000808386950C94F11E8091030380FD0C94C2
:103E00004B1E0C94F41E60E00C949C1E8091C80222
:103E100081112EC00E94350E811104C00E94DD0E5A
:103E20000E94481A0E94321A60930303709304039D
:103E300080930503909306036E7F61F40E94481AF5
:103E40000E94321A60930303709304038093050366
:103E5000909306030E941F1A1092CA0280910303D6
:103E600080FF03C086950E94031F81E08093C802F3
:103E70000895E3E0F3E080818160808386950C946F
:103E8000031F1092C7028091C60281110E94391F40
:103E90000C94861E0F931F93CF93DF938091CA02D9
:103EA000882309F485C08091C902E0910303E69557
:103EB000E81BE093C202823049F4F0E0E05CFD4F81
:103EC000E491CE2FD0E009EE1AE149C0863049F4E2
:103ED000F0E0E35CFD4FE491CE2FD0E00DE11BE17B
:103EE0003EC0893051F4E695F0E0E65CFD4FE49188
:103EF000CE2FD0E007E51CE132C08F3051F4E695BB
:103F0000F0E0E95CFD4FE491CE2FD0E002E91CE146
:103F100026C0853149F4F0E0EC5CFD4FE491CE2FF2
:103F2000D0E007E01DE11BC0883181F0833239F415
:103F3000E2E3F2E0C591D4910DE21BE110C08432BE
:103F400051F4C4EFD1E00CE01EE109C0C8E2D0E0BA
:103F500009E71DE104C0C0EDD7E00DE01AE1809152
:103F6000C302882361F01092C3020E94C12790937C
:103F7000C1028093C0021092C5021092C4020E9436
:103F8000C127E091C002F091C1028E1B9F0B8F3FB1
:103F90009F4770F4EC0FFD1FF093C102E093C00245
:103FA00080EC92E0F801DF91CF911F910F9109947D
:103FB000DF91CF911F910F910895882311F0FA019D
:103FC00001C0FB010994CF93DF93C82FD62F0E9425
:103FD000571A8C1740F00E94571A8D1720F4DF9162
:103FE000CF910C94E11E8C2FDF91CF910C94F11E98
:103FF0001F93CF93DF93FB0112811111C3C0EC011A
:104000000E94700D8272CD3CFCE5DF0709F49AC076
:10401000A8F5C73CECE5DE0709F476C0A8F4C43C7B
:104020009CE5D90709F45FC028F4C33CDC4509F4DA
:1040300057C054C0C53C9CE5D90709F459C0C63CDB
:10404000DC4509F45CC04AC0CA3CFCE5DF0709F462
:104050006AC050F4C83CECE5DE0709F45AC0C93C1C
:10406000DC4509F45BC03AC0CB3C9CE5D90709F4B8
:104070005FC0CC3CDC4509F460C030C0C23DFCE50B
:10408000DF0709F46FC088F4CF3C9CE5D90709F439
:1040900060C008F45CC0C03DFCE5DF0709F45CC00B
:1040A000C13DDC4509F45BC019C0C53D9CE5D9079D
:1040B00009F460C050F4C33DFCE5DF0709F455C0C6
:1040C000C43DDC4509F454C009C0C63D9CE5D90790
:1040D00009F455C0CE35DD4509F454C011E052C095
:1040E0000E94FC1E4FC04EEE5EE161EE7EE104C018
:1040F00041EE5EE16EEE7EE10E94DD1F43C045E1D0
:104100005CE168E07CE1F8CF48E05CE165E17CE1FE
:10411000F3CF43E35CE164E27CE1EECF44E25CE1B7
:1041200063E37CE1E9CF41E55CE162E47CE1E4CF7B
:1041300042E45CE161E57CE1DFCF4AE85AE163E714
:104140007AE1DACF43E75AE16AE87AE1D5CF81E054
:1041500017C065E082E010C068E086E00DC06EE048
:1041600089E00AC064E18FE007C067E185E104C02F
:1041700088E106C062E289E10E94E31F03C083E296
:104180000E94F11E812FDF91CF911F910895539AC4
:104190002BB1277F3BB138604FB7F894FC01CB01BE
:1041A000880F991F680F791F6E0F7F1FE617F7079B
:1041B00089F0819198E03BB9000000C087FF2BB9DE
:1041C000880F000000C000C000C02BB900C09A9545
:1041D00091F7ECCF4FBF8FE594E00197F1F700C066
:1041E000000008950C948402FF920F931F93CF93C5
:1041F000DF9380910F0181110CC087E980935F01EB
:1042000086EC80935D0184E98093600186E680936B
:104210005E01C3EDD2E02FE531E04DE551E061E014
:1042200070E0F2E0C53DDF0709F44CC0F9010191EF
:104230009F01A02FA295AF70B0E09196EC9191975D
:104240000F70CB01002E01C0880F0A94EAF7982F57
:1042500090959E2391969C93919792969C9192977C
:10426000892B92968C939297FA011191AF01E12FCD
:10427000E295EF70F0E0F1A01F70CB01012E01C0BC
:10428000880F0A94EAF7982F90959F2191A392A105
:10429000892B82A390968C9190E002C0959587958A
:1042A0000A95E2F78170E0A1F0E002C0F595E7958C
:1042B0001A95E2F7E0FD02C090E001C092E0892B80
:1042C0008993AFCF80910F01811102C092E001C0AC
:1042D00090E09093CC0282E0891B8093CB02DF9127
:1042E000CF911F910F91FF9008953F924F925F924F
:1042F0006F927F928F929F92AF92BF92CF92DF92F6
:10430000EF92FF920F931F93CF93DF9383ED882E4D
:1043100082E0982E9FE5E92E91E0F92E0DE511E05F
:10432000C1EDD2E064015401412C312C24E0622E15
:10433000712CD501ED915D014E2F440F440FF60114
:1043400041936F01D7012D917D01E22FE295EF702E
:10435000F0E080A190E02F7002C0959587952A9596
:10436000E2F781709927F80151918F01E52FE295CD
:10437000EF70F0E020A130E05F7002C03595279526
:104380005A95E2F7F901E170FF2720FF02C0E2E051
:10439000F0E0E82BF92BE42BD401ED934D01509084
:1043A000CC02540CEF70F0E0E650FE4F9081888113
:1043B000890F888384306CF0E52DF0E0E353FD4FE6
:1043C00080818F5F808360E0852D0E94F22021E054
:1043D00001C020E088818D3F64F4E52DF0E0E353D7
:1043E000FD4F80818150808361E0852D0E94F22005
:1043F00021E08881082E000C990BB3010E94F53250
:104400008993322A4394B2E04B1293CF832DDF91EC
:10441000CF911F910F91FF90EF90DF90CF90BF90C1
:10442000AF909F908F907F906F905F904F903F9054
:104430000895E091CC02F0E0E353FD4F20813181FB
:10444000FC01318320830895CF92DF92EF92FF9297
:104450000F931F93CF93DF936C01F12C80E0D091E9
:10446000CB02DF0DF601C1916F010D2F10E0035358
:104470001D4FF8019081C91BEC2E1E145CF4EA94C8
:10448000F80180818F5F808360E08D2F0E94F22091
:1044900081E0F3CF9C2FC7FD90E0C91BCC2359F0DE
:1044A000CF5FF80180818150808361E08D2F0E9471
:1044B000F22081E0F3CFF394F2E0FF12D0CF882313
:1044C00051F0DF91CF911F910F91FF90EF90DF900E
:1044D000CF900C94F70EDF91CF911F910F91FF9029
:1044E000EF90DF90CF9008950895FC01680F791F39
:1044F0008FEF91E3E617F70771F02191822728E00B
:1045000030E087FF03C0880F892701C0880F215042
:104510003109B9F7EFCF08950F931F93CF93DF932E
:10452000C42FD22FFC0182818823C9F04093D70287
:104530000E9456289093D6028093D50280E28C0F79
:10454000883008F057C0C77081E001C0880FCA9555
:10455000EAF7DF91CF911F910F910C94FD048091A8
:10456000D702481330C08091D5029091D6020E94A4
:104570006E28883C910538F510E21D0FCD17B9F073
:1045800080E28C0F883040F4C77081E001C0880F52
:10459000CA95EAF70E940405183028F581E09D2F9E
:1045A000977001C0880F9A95EAF70E94FD04802F4A
:1045B0000E94F4041830F0F4D77081E001C0880F35
:1045C000DA95EAF70AC080E28C0F883098F4C77059
:1045D00081E001C0880FCA95EAF7DF91CF911F9162
:1045E0000F910C940405802FDF91CF911F910F91B3
:1045F0000C94F404DF91CF911F910F9108950F93C4
:104600009C01CB01243F4CE5340731F188F4293D6E
:10461000FCE53F07D9F02A3D4CE5340779F1283D08
:104620003C45A9F506E221EE41EE68ED7CE52BC0A4
:10463000263FFCE53F07E1F0A8F0273F3C4539F570
:1046400007E225EE46EE67EF7CE51DC007E225EEAA
:1046500045EE69ED7CE517C006E221EE40EE64EF21
:104660007CE511C007E225EE44EE65EF7CE50BC06A
:1046700006E221EE42EE66EF7CE505C008E221E0AD
:1046800045EE6AED7CE50E948C2280E008C0FC01CA
:104690008281882319F01092D70201C081E00F9126
:1046A0000895CF93DF93EC01FB018281882309F405
:1046B00026C1C430FDE5DF0760F4CB3F9CE5D90798
:1046C00068F49E0122503C452431310508F018C1A0
:1046D00005C0C236EDE5DE0709F012C10E94480EA2
:1046E0009093EF028093EE02C031FCE5DF0709F4FE
:1046F000CAC008F041C0C8309CE5D90709F4A4C07D
:10470000F0F4C430FCE5DF0709F48CC068F4C23073
:104710009CE5D90709F482C0C330DC4509F0E5C047
:104720008091EE028260DFC0C630FCE5DF0709F44D
:1047300083C008F085C08091EE028860D4C0CC3080
:104740009CE5D90709F490C068F4CA30FCE5DF079E
:1047500009F47EC008F084C00E948A078091EE02AE
:104760008068C1C0CE309CE5D90709F481C008F04B
:1047700086C08091EE0294C0CD3FFCE5DF0709F4CE
:104780007BC038F5C4319CE5D90709F49AC058F4C8
:10479000C231FCE5DF0709F47AC008F07EC08091E1
:1047A000EE028F7BA0C0CB3F9CE5D907F1F108F06A
:1047B0003FC0C531DC4509F098C08091EE0282FB14
:1047C000222720F991E0922790FB82F990FB83F950
:1047D0008AC0C1308DE5D80709F467C050F48091D4
:1047E000EF02CF3FECE5DE07C1F108F05BC08D7F43
:1047F00065C0C3308DE5D80709F471C008F46DC0F9
:10480000C236DD4509F071C08091EE0284FB22279B
:1048100020F991E0922790FB84F965C08091EE0227
:10482000816061C08091EE0216C08091EF0216C0D7
:104830008091EF02826042C08091EE02806153C09D
:104840008091EE0280624FC08091EE0280644BC086
:104850008091EE028860846046C0826081602EC0D4
:104860008091EE028E7F3FC08091EE028D7F3BC033
:104870008091EE02877F37C08091EF0214C0809153
:10488000EE028F7E30C08091EE028F7D2CC00E94A0
:104890008A078091EE028F7726C08091EE02877F93
:1048A0008B7F21C08D7F8E7F09C08091EF02982F72
:1048B000909591708E7F892B90FB81F98093EF0208
:1048C00014C00E948A078091EE0287FB222720F9FC
:1048D00091E0922790FB87F906C081E001C080E05B
:1048E0000E94DF0E02C08093EE028091EE02909152
:1048F000EF020E94590E0E948A0780E001C081E009
:10490000DF91CF910895CF93DF9386319C4541F598
:10491000EB010E94700D982F8A8120910001309147
:104920000101882379F09A7A81E009F480E080938C
:10493000D802911102C069E201C065E3C9010E9479
:1049400075270AC08091D802811102C069E201C0B6
:1049500065E3C9010E9477270E94C20D80E001C073
:1049600081E0DF91CF9108958EE14A9B02C0815092
:10497000E1F74A9BFECF08955A9880E28A95F1F7B5
:104980005A9A0895FC012AE02A95F1F728E090E070
:1049900080E031E040E14A95F1F7880F4A9B02C080
:1049A0008160932700C0000040E14A95F1F7215053
:1049B00089F720E12A95F1F729B100C0000030E124
:1049C0003A95F1F722FB222720F992272081920FB6
:1049D00090830895EF92FF920F931F93CF93DF93ED
:1049E0001F92CDB7DEB719828C017C01E60EF11C57
:1049F0000E151F0551F00E94B424CE0101960E94AD
:104A0000C224F80181938F01F3CF81E09981911144
:104A100080E00F90DF91CF911F910F91FF90EF9069
:104A20000895529A5A9A089552985A9AEA9AE9E63B
:104A3000F0E080818F7C80830895615091E001C017
:104A4000990F6A95EAF720E031E0992361F0492F48
:104A5000482319F05A9A232701C05A9840E24A95F0
:104A6000F1F79695F2CF222311F05A9A01C05A9885
:104A700080E28A95F1F75A980895FF920F931F9359
:104A8000CF93DF93EC018C01060F111DC017D107E6
:104A900041F0F9900E94BC2468E08F2D0E941D25F2
:104AA000F5CFDF91CF911F910F91FF9008951F9245
:104AB0000F920FB60F921124EF92FF920F931F9354
:104AC0002F933F934F935F936F937F938F939F9316
:104AD000AF93BF93EF93FF93CF93DF931F92CDB725
:104AE000DEB719820E94B424CE0101960E94C2242E
:104AF000A82FA695A695A6959A2F969595702A2FDC
:104B00002570920F292F237096959695920F877096
:104B100089137CC08981811179C0A63008F076C0E4
:104B200080E18A95F1F75A9A529AB2E0BA95F1F774
:104B300000C05A98EA2EF12CEAE0AE9FD001112471
:104B4000A05FBE4F1896ED91FC9119973097B1F088
:104B50006091D3017091D40116962D913C911797D5
:104B6000260F371F13968D919C911497680F791F0C
:104B700015964C91159712968C9109958AE08E9D09
:104B8000F0018F9DF00D1124E05FFE4F65816623DB
:104B900051F08091D3019091D40126813781820F09
:104BA000931F0E943D250E94BC24F0E1FA95F1F785
:104BB0005A9852985A9A80E18A95F1F78AE08E9D28
:104BC00080018F9D100D1124005F1E4FD801129699
:104BD0006C911297662399F08091D3019091D40142
:104BE00013962D913C911497820F931F0E94EA24F3
:104BF000D801ED91FC91811105C082E004C0D8017B
:104C0000ED91FC9188E080830E94B4240F90DF91A5
:104C1000CF91FF91EF91BF91AF919F918F917F9134
:104C20006F915F914F913F912F911F910F91FF9045
:104C3000EF900F900FBE0F901F9018950F931F933A
:104C4000CF93DF93863091050CF0A9C02AE0289F0E
:104C5000F001299FF00D1124E05FFE4F208131818A
:104C6000232B09F49CC0EC01F894529A5A9885E0E1
:104C70008A95F1F700008C2F869585709C2F957092
:104C8000890F982F9370869586958E0123E0000FEB
:104C9000111F2A95E1F7890F082B0E94BC24A4E07C
:104CA000AA95F1F700C068E0802F0E941D25B0E1B1
:104CB000BA95F1F752985A9A4A9902C000C0FCCFAF
:104CC00087E090E04A9B17C0019799F4529A5A9A4C
:104CD0008AE08C9FF0018D9FF00D1124E05FFE4F64
:104CE0000190F081E02D81E08083789481E090E074
:104CF00058C000C0E7CF8AE08C9F80018D9F100DC7
:104D00001124005F1E4FF80165816623B9F0809180
:104D1000D3019091D40126813781820F931F0E9485
:104D2000EA2481110BC0529A5A9AD801ED91FC9154
:104D300082E08083789482E090E033C00E94B424C3
:104D4000B0E2BA95F1F75A98529AE0E1EA95F1F794
:104D50008AE08C9FF0018D9FF00D1124E05FFE4FE3
:104D60006281662351F08091D3019091D401238117
:104D70003481820F931F0E943D250E94BC248AE04B
:104D80008C9FF0018D9FF00D1124E05FFE4F01908C
:104D9000F081E02D1082789480E090E002C084E001
:104DA00090E0DF91CF911F910F9108959093DF02D2
:104DB0008093DE0208950E943F14811103C0809108
:104DC000D9020895E091DE02F091DF02309721F0E0
:104DD0000190F081E02D099480E00895E091DE02D9
:104DE000F091DF02309721F00280F381E02D0994E9
:104DF0000895E091DE02F091DF02309739F022E071
:104E0000DC012C930480F581E02D09940895209114
:104E1000DC023091DD022817390771F09093DD0232
:104E20008093DC02E091DE02F091DF02309721F006
:104E30000680F781E02D099408952091DA023091DF
:104E4000DB022817390771F09093DB028093DA02B6
:104E5000E091DE02F091DF02309721F00084F185CD
:104E6000E02D09940895FC01329697E080E091507E
:104E700029F021912223D9F38F5FF9CF089566237A
:104E800049F0FC01329608962191621729F0E81743
:104E9000F907D1F780E0089581E008959C01FC01B5
:104EA00032969FEF80E04191461789F09F3F19F4B9
:104EB000411101C0982F8F5F8630A9F79F3F39F0CD
:104EC000F901E90FF11D97FDFA95628308950895A0
:104ED0009C012A5F3F4FFC014281461301C01282B0
:104EE000019682179307B9F708950C944E270C94F6
:104EF0006827029626E0FC0111922A95E9F70895A9
:104F0000109238031092390310923A0310923B0327
:104F10000895CF92DF92EF92FF926B017C010E9485
:104F20003F1481110EC00E946228C61AD70AE80AEF
:104F3000F90AC0923803D0923903E0923A03F09212
:104F40003B03FF90EF90DF90CF9008950F931F9356
:104F50000E943F14882321F01F910F910C94622826
:104F60000E946228009138031091390320913A037E
:104F700030913B03600F711F821F931F1F910F9190
:104F800008950E943F1481110C9456280E94A62770
:104F9000CB010895089508950C94CB270C94CB274A
:104FA000CF930E94CE270E94B4130E94CC27C0E06A
:104FB0008C2F0E943612811104C0CF5FC830C1F718
:104FC00001C081E0CF9108950C94CB270C94E42785
:104FD00080914403843059F10E94E62780E00E94CA
:104FE00072030E94751E1092E00220E488E190E0B6
:104FF0000FB6F894A895809360000FBE20936000D0
:1050000083B7817F846083BF83B7816083BF7894D7
:10501000889583B78E7F83BF0FB6F894A89580914B
:105020006000886180936000109260000FBE089558
:105030000C94CB270E948A070E94DB260E947203F1
:105040000E94411F0C9418281F920F920FB60F92C6
:1050500011248F939F93AF93BF938091E0028111AE
:1050600013C080913C0390913D03A0913E03B09109
:105070003F034196A11DB11D80933C0390933D03D6
:10508000A0933E03B0933F03BF91AF919F918F9147
:105090000F900FBE0F901F90189582E084BD93E093
:1050A00095BD9AEF97BD80936E0008952FB7F89441
:1050B00080913C0390913D03A0913E03B0913F034A
:1050C0002FBF08952FB7F89460913C0370913D0372
:1050D00080913E0390913F032FBF08959C014FB7ED
:1050E000F89480913C0390913D03A0913E03B091D0
:1050F0003F034FBF821B930B0895CF92DF92EF9235
:10510000FF922FB7F894C0903C03D0903D03E090FD
:105110003E03F0903F032FBFA7019601261B370BDC
:10512000480B590BCA01B901FF90EF90DF90CF9067
:10513000089578941F920F920FB60F9211248F93B7
:105140009F93AF93BF9380913C0390913D03A091B7
:105150003E03B0913F030196A11DB11D80933C0316
:1051600090933D03A0933E03B0933F03BF91AF9153
:105170009F918F910F900FBE0F901F90189587E70A
:1051800097E790930108809300089AE088E10FB6B2
:10519000F894A895809360000FBE90936000FFCFB5
:1051A00090930B0280930A0208958091EC02089577
:1051B00090914403943031F58093E1027093E302BF
:1051C0006093E20282E08093E9008FEF9091E80023
:1051D000815095FD06C095ED9A95F1F7000081117B
:1051E000F5CF8091E80085FF0DC040E050E063E01E
:1051F00070E081EE92E00E94E82A8091E8008E77CC
:105200008093E8000895BC0184E00C94D828BC0188
:1052100083E00C94D82822E02093E9002FEF30910E
:10522000E800215035FD06C035ED3A95F1F7000054
:105230002111F5CF2091E80025FF0BC040E050E0A0
:1052400066E070E00E94E82A8091E8008E77809303
:10525000E8000895CF93DF9321E02093E9002FEF3A
:105260003091E800215035FD06C035ED3A95F1F753
:1052700000002111F5CF2091E80025FF14C0EC01BA
:1052800040E050E068E070E00E94E82A8091E80089
:105290008E778093E80088E0FE01A4EEB2E00190F2
:1052A0000D928A95E1F7DF91CF91089580914303A4
:1052B000811109C00E94792C0E94D62C8091E200B5
:1052C00084608093E2000895109243030895089546
:1052D0000895089542E061EC81E00E94F22B42E2E1
:1052E00061EC82E00C94F22B80914603833009F448
:1052F00060C030F4813071F0823009F499C00895B3
:105300008A3009F485C08B3009F46BC0893009F00C
:10531000A7C020C080914503813A09F0A1C08091C7
:10532000E800877F8093E8008091490390914A03C9
:10533000892B21F468E084EE92E003C060E080E015
:1053400090E070E00E94332B8091E8008B7780938F
:10535000E800089580914503813209F081C0809171
:10536000490390914A03029708F07AC08091E800BF
:10537000877F8093E8008091E80082FD05C08091DE
:1053800044038111F8CF6CC02091F3008091F200AA
:1053900090E0922B029729F48091F1008B7F81306D
:1053A00021F48091F1008093EC028091E8008B77EA
:1053B00053C080914503813A09F052C0809149035E
:1053C00090914A03892B09F04BC08091E800877FB8
:1053D0008093E8008091E80080FFFCCF80916B0112
:1053E00036C0809145038132D9F58091490390916F
:1053F0004A03892BA9F58091E800877F8093E80014
:105400000E94272C8091470380936B010C948A079C
:1054100080914503813221F58091E800877F809358
:10542000E8000E94272C809148038093ED020895A4
:1054300080914503813AA1F48091E800877F8093B1
:10544000E8008091E80080FFFCCF8091ED0280931E
:10545000F1008091E8008E778093E8000C94272C6F
:10546000089584B7877F84BF0FB6F894A89580917C
:105470006000886180936000109260000FBE90E031
:1054800080E80FB6F89480936100909361000FBE9E
:105490000C94200F0E94792C0E94D62CE2EEF0E0B2
:1054A00080818460808378940E946B2F0E942E0FED
:1054B00081E691E00C94D626809144038530A9F4CE
:1054C00080914403853079F40E94E827809142035B
:1054D0008823B1F30E94D027882391F30E94D22A17
:1054E0000E948A07EDCF0E941A280C943C0F0C945E
:1054F000792A292F332723303105C9F060F4213070
:10550000310581F02230310509F044C08BE390E091
:105510002DE633E043C021323105E1F0223231057E
:1055200049F138C082E190E028EA33E037C099279A
:105530008130910549F028F0029761F5E9E4F3E044
:1055400005C0E9E6F3E002C0EDE5F3E0849190E008
:105550009F0124C06115710541F061307105D1F4DE
:1055600089E090E028E933E019C089E090E02FE776
:1055700033E014C06115710541F06130710551F4DB
:105580008BE790E02AEB33E009C080E490E025E36C
:1055900034E004C080E090E020E030E0FA013183A4
:1055A0002083089580E189BD82E189BD09B400FEB0
:1055B000FDCF8091D8008F7D8093D8008091E0004E
:1055C00082608093E0008091E00081FDFCCF08952F
:1055D000CF92DF92EF92FF920F931F93CF93DF93BF
:1055E000EC018B017A010E94462C811133C0E11439
:1055F000F10439F0F70180819181081B190BC80F64
:10560000D91FC12CD12C0115110519F18091E80089
:1056100085FD16C08091E8008E778093E800E11444
:10562000F10449F0F70180819181C80ED91ED18221
:10563000C08285E00FC00E94462C882321F30AC057
:1056400089918093F10001501109FFEFCF1ADF0A11
:10565000DACF80E0DF91CF911F910F91FF90EF9013
:10566000DF90CF90089520914B0330914C03261783
:10567000370748F06115710539F42091E8002E775D
:105680002093E80001C0B901FC0120E0611571051B
:1056900079F1809144038823F1F18530F1F1809113
:1056A000E80083FD3CC08091E80082FD2EC080911F
:1056B000E80080FFEBCF2091F3008091F20090E0B2
:1056C000922B6115710551F08830910538F42191C4
:1056D0002093F100615071090196F3CF21E0089702
:1056E00009F020E08091E8008E778093E800CECF2B
:1056F0002111CFCF0AC080914403882361F0853007
:1057000061F08091E80083FD0AC08091E80082FF8B
:10571000F2CF80E0089582E0089583E0089581E06B
:10572000089520914B0330914C032617370748F01A
:105730006115710539F42091E8002E772093E80077
:1057400001C0B901FC0120E06115710591F1809162
:105750004403882309F440C0853009F43FC0809198
:10576000E80083FD3DC08091E80082FD2FC080915C
:10577000E80080FFE9CF2091F3008091F20090E0F3
:10578000922B6115710559F08830910540F42491F0
:105790002093F1003196615071090196F2CF21E01A
:1057A000089709F020E08091E8008E778093E80068
:1057B000CBCF2111CCCF0AC080914403882361F064
:1057C000853061F08091E80083FD0AC08091E80097
:1057D00082FFF2CF80E0089582E0089583E008958B
:1057E00081E00895982F973068F59093E900981715
:1057F00039F07091EC002091ED005091F00003C061
:10580000242F762F50E021FD02C09F5FECCF309116
:10581000EB003E7F3093EB003091ED003D7F309305
:10582000ED003091EB0031603093EB007093EC00B1
:105830002093ED005093F0002091EE0027FDE5CF7E
:1058400080E008958F708093E90081E00895809151
:10585000450387FF11C08091E80082FD05C080915B
:1058600044038111F8CF11C08091E8008B770BC001
:1058700080914403882349F08091E80080FFF8CFAD
:105880008091E8008E778093E80008952091E400ED
:105890003091E50095E64091EC00842F817040FF47
:1058A00023C08091E80080FD1DC0809144038823BF
:1058B00099F0853099F08091EB0085FD11C0409101
:1058C000E4005091E5002417350729F3915011F0B9
:1058D0009A01E1CF84E0089582E0089583E008957D
:1058E00081E0089580E008954091E80042FFDDCF17
:1058F00008950E94E72C0E94EF2CE0EEF0E08081FA
:1059000081608083E8EDF0E080818F77808319BC2F
:10591000A7EDB0E08C918E7F8C9380818F7E808309
:105920001092430308950F931F93CF93DF930E9428
:10593000E72C0E94EF2CC8EDD0E088818F77888318
:1059400088818068888388818F7D888319BC1092C4
:10595000440310924003109242031092410300EE60
:1059600010E0F80180818B7F80838881816088834B
:1059700042E060E080E00E94F22BE1EEF0E0808106
:105980008E7F8083E2EEF0E0808181608083808181
:1059900088608083F80180818E7F80838881806128
:1059A0008883DF91CF911F910F910895E8EDF0E08A
:1059B00080818F7E8083E7EDF0E08081816080834D
:1059C00084E082BF81E0809343030C94932CE8ED44
:1059D000F0E080818E7F80831092E2000895109223
:1059E000DA001092E10008951F920F920FB60F9205
:1059F00011242F933F934F935F936F937F938F93D4
:105A00009F93AF93BF93EF93FF938091E10082FF49
:105A10000BC08091E20082FF07C08091E1008B7F84
:105A20008093E1000E946A2F8091DA0080FF1FC0FE
:105A30008091D80080FF1BC08091DA008E7F809318
:105A4000DA008091D90080FF0DC080E189BD82E13C
:105A500089BD09B400FEFDCF81E0809344030E941C
:105A6000562905C019BC109244030E9464298091F4
:105A7000E10080FF19C08091E20080FF15C0809195
:105A8000E2008E7F8093E2008091E200806180934B
:105A9000E2008091D80080628093D80019BC85E034
:105AA000809344030E9468298091E10084FF30C004
:105AB0008091E20084FF2CC080E189BD82E189BD34
:105AC00009B400FEFDCF8091D8008F7D8093D8006F
:105AD0008091E1008F7E8093E1008091E2008F7ED3
