:100000000C947D020C94C4020C94C4020C94D02570
:100010000C94C4020C94C4020C94C4020C94C40248
:100020000C94C4020C94C4020C94C12D0C94932E15
:100030000C948F280C94C4020C94C4020C94C40237
:100040000C94C4020C94C4020C94C4020C94C40218
:100050000C94C4020C9404290C94C4020C94C402A1
:100060000C94C4020C94C4020C94C4020C94C402F8
:100070000C94C4020C94C4020C94C4020C94C402E8
:100080000C94C4020C94C4020C94C4020C94C402D8
:100090000C94C4020C94C4020C94C4020C94C402C8
:1000A0000C94C4020C94C4020C94C4025506550668
:1000B00087068706BD07BD07BD07BD07D4063C07F9
:1000C0004D074D07AD07BD07BD07B60751085108DD
:1000D000630863085A0863086308630851085108F5
:1000E0005F08630863085F08C320C620E620F72086
:1000F000FF200A210D2110211321592159211621F8
:1001000019211E212B2138213B213F214C21002F79
:10011000272F1F30272F1F30732F962F1F30ED2FC3
:10012000FC2F07634236B79BD8A71A39685618AE1A
:10013000BAAB558C1D3CB7CC5763BD6DEDFD753E1C
:10014000F6177231BF000000803F05A84CCDB2D435
:100150004EB93836A9020C50B9918688083CA6AA37
:10016000AA2ABE000000803F1700150008001A00F0
:1001700014000A0009000700160004000500190019
:1001800006001B001D002C41E300E0001F001E00C4
:100190001C0018000C00120013000B000D000E00D4
:1001A0000F0028001100100036003700E5002C4237
:1001B000E2002A00A80021002200210020001F00E8
:1001C0001E002202210220021F021E0267005400AC
:1001D0005500560057002C41490029001F001E0001
:1001E00023002400250026002700230224022502E4
:1001F00026022702350089002F1230122D122D0001
:10020000E2002A00200021003E003D003C003B00AF
:100210003A0034003312330031001F02C75CC65C61
:10022000C55CC35CC25C2D1249002B001F001E0080
:100230003F00400041004200430050005100520086
:100240004F002E00C85CC95C2F00300031002C42EA
:10025000E2002A0020002100000000000000000051
:100260002A2B280000000000000000000000000011
:1002700000000029000000002C1E3420212224341C
:100280002627252E362D3738271E1F2021222324EE
:1002900025263333362E37381F0405060708090A8A
:1002A0000B0C0D0E0F101112131415161718191A26
:1002B0001B1C1D2F3130232D350405060708090AA4
:1002C0000B0C0D0E0F101112131415161718191A06
:1002D0001B1C1D2F3130354C0000000000000000B9
:1002E000000000000000000000000000000000000E
:1002F0000000000000000000000000007E0F00D49D
:10030000FFFFFFC70000007800047F3F1F64321426
:10031000643214783C1E1E140A05FFAA7F55400063
:1003200001010101010101010102020202020202B6
:100330000202030303030303030304040404040489
:10034000040505050505060606060607070707074F
:1003500008080808090909090A0A0A0B0B0B0C0C02
:100360000C0D0D0D0E0E0E0F0F0F1010111111129E
:100370001213131414151516161717181819191A1D
:100380001A1B1B1C1D1D1E1E1F2020212222232480
:1003900024252626272829292A2B2C2D2D2E2F30BF
:1003A000313232333435363738393A3B3C3D3E3FD3
:1003B000404142434445464748494A4C4D4E4F50C0
:1003C000515354555658595A5B5D5E5F616264657E
:1003D0006668696B6C6D6F7072737577787A7B7D08
:1003E0007E8082838587888A8C8E8F91939596985C
:1003F0009A9C9EA0A2A3A5A7A9ABADAFB1B3B5B778
:10040000BABCBEC0C2C4C6C9CBCDCFD1D4D6D8DB4E
:10041000DDDFE2E4E7E9EBEEF0F3F5F8FAFDFF12D9
:100420000363006F006F006C00350033003600720C
:100430000000000A036D002E006B0069000000043C
:1004400003090409024200020100A0FA09040000A5
:1004500001030101000921110100012240000705EB
:10046000810308000A0904010002030000000921B9
:100470001101000122220007058203200001070567
:1004800003032000011201000200000008434D3761
:10049000050100010200010660FF0961A101096276
:1004A000150026FF009520750881020963150026B6
:1004B000FF00952075089102C005010906A10105FC
:1004C0000719E029E71500250195087501810295B6
:1004D00001750881010507190029FF150026FF0095
:1004E000950675088100050819012905950575010E
:1004F0009102950175039101C00011241FBECFEF39
:10050000DAE0DEBFCDBF04B603FE27C08091C30290
:100510009091C402A091C502B091C6028730904B61
:10052000A740B04BD1F41092C3021092C4021092B3
:10053000C5021092C60214BE84B7877F84BF0FB66F
:10054000F894A89580916000886180936000109273
:1005500060000FBEE0E0F8E3099511E0A0E0B1E033
:10056000E6E4F9E602C005900D92A03AB107D9F78A
:1005700022E0A0EAB1E001C01D92A33CB207E1F77E
:100580000E9490160C94A1340C940000811106C0B6
:10059000662311F080E519C08FE417C0813031F473
:1005A000662311F08CE211C08AE20FC0823031F470
:1005B000662311F089EA09C08AEA07C0833039F45A
:1005C000662311F082E501C081E50E940B0680E000
:1005D000089581E0089581E008950C94EB02089558
:1005E0000C94EF021F93CF93DF9300D000D01F92A3
:1005F000CDB7DEB749835A836B833091A2018981DD
:100600009A81311114C0662359F0222349F00E94C7
:100610004909182F682F89819A810E94F00803C028
:100620000E941C09182F69817A81812F04C00E94C1
:10063000490969817A810F900F900F900F900F9068
:10064000DF91CF911F910C942B22FC01262F40812A
:1006500051816281738184810C94F20281E008955A
:10066000CF93DF93EC0160E00E942503BE01DF9190
:10067000CF910C94F002E1E0F0E0DF0102C0AA0F9C
:10068000BB1F6A95E2F7BD01DF0102C0AA0FBB1FC5
:100690004A95E2F7AD01462B01C0EE0F2A95EAF725
:1006A000942F9823491302C08E2B0895E0958E2332
:1006B0000895242F462F682F8091B2010E943B039A
:1006C0000C94AD080E94D1110E94B3040C94011245
:1006D0000C94FD1108950E943F080E946A032FEFB9
:1006E00084E39CE0215080409040E1F700C000008E
:1006F0000C942A290F931F93CF93DF938C0161E011
:100700000E942503EC01B8010E941B20882309F4F4
:100710004BC0B801CE010E94ED02882309F444C009
:10072000B801CE010E9478238823F1F1B801CE01EF
:100730000E94CA238823C1F1B801CE010E94FC2483
:10074000882391F1B801CE010E94421D882361F1F6
:10075000F8018281882309F1CA358DE5D807C1F0F7
:1007600050F4C115FCE5DF0781F0CE3DDC45A9F46E
:100770000E94CE0E19C0CB35EDE5DE0761F0CC3519
:10078000DD4559F40E94530D08C00E946B030CC054
:100790000E945C0D02C00E945F0DC801DF91CF91E5
:1007A0001F910F910C94E90280E0DF91CF911F918E
:1007B0000F910895DF92EF92FF920F931F93CF93C3
:1007C000DF93E82FF0E0E85AFD4FD490282F2695CC
:1007D0002695269530E0F901E850FD4F0491877089
:1007E00010E0082E02C0159507950A94E2F70170F3
:1007F0001127F901E851FD4FE490F12C082E02C0B9
:10080000F594E7940A94E2F791E0E922FF24F901D4
:10081000E852FD4FC491D0E002C0D595C7958A95A6
:10082000E2F7C170DD270115110519F081EE0E9474
:100830000D05E114F10419F086EE0E940D058D2DD1
:100840000E940B06EF2819F086EE0E949505012BF9
:1008500019F081EE0E949505CD2B51F08CE2DF91CD
:10086000CF911F910F91FF90EF90DF900C940B06AA
:10087000DF91CF911F910F91FF90EF90DF9008953E
:10088000EF92FF920F931F93CF93DF93EC01162FFC
:100890000AE08881882309F455C0813009F043C0FB
:1008A0008981813041F47E0182E0E80EF11C8A8169
:1008B0000E940B0609C0823049F47E01E2E0EE0E90
:1008C000F11C8A810E940D05E7012FC0833041F49D
:1008D0007E01F2E0EF0EF11C8A810E949505F4CFB3
:1008E000843011F0219621C02A81229680E090E088
:1008F00030E0205331092A30310558F4089FA00117
:10090000099F500D1124C901840F951F219628813C
:10091000EFCF009751F0EFE9FFE03197F1F700C01A
:1009200000000197F6CF0E94DA032196812F8823D9
:1009300009F4AFCFEFE9FFE03197F1F700C0000015
:100940008150F5CFDF91CF911F910F91FF90EF90E4
:10095000089560E00C94400408950C94AC0481E088
:1009600008950C94AF040895CF93C82F0E94AD044E
:100970008C2F0E94B104CF910895CF93DF93CDB710
:10098000DEB72B970FB6F894DEBF0FBECDBF4F83F7
:10099000588769877A878B8761110E94820D9E0133
:1009A0002F5F3F4F86E0F90111928A95E9F785E0C4
:1009B000FE013796D90101900D928A95E1F7898160
:1009C0009A814C815D81452B31F09F3F31F491E05C
:1009D0008F3F19F403C091E001C090E090FF09C07F
:1009E00049815A816B817C818D819E810E94820C1C
:1009F00005C0C9010E942E038111F2CF2B960FB6BC
:100A0000F894DEBF0FBECDBFDF91CF910895FC01FA
:100A1000808191810E9476090895CF93882309F4FB
:100A200082C0C82F8238C1F40E94542781FD7BC048
:100A300069E380910001909101010E94E0270E94EA
:100A4000B40D2FEF81EE94E0215080409040E1F70B
:100A500000C0000069E319C08338F1F40E945427F4
:100A600080FD61C063E580910001909101010E94C9
:100A7000E0270E94B40D2FEF81EE94E021508040DA
:100A80009040E1F700C0000063E580910001909183
:100A900001010E94E22744C08438C1F40E94542717
:100AA00082FD41C067E480910001909101010E94A4
:100AB000E0270E94B40D2FEF81EE94E0215080409A
:100AC0009040E1F700C0000067E4DFCF8CEF8C0FAF
:100AD000813AD0F46C2F80910001909101010E9425
:100AE000AA27882349F06C2F809100019091010181
:100AF0000E94E2270E94B40D6C2F8091000190911A
:100B000001010E94E0270CC080E28C0F883058F46D
:100B1000C77081E001C0880FCA95EAF70E94650D91
:100B2000CF910C94B40DCF910895882309F45BC044
:100B3000682F823879F40E94542781FF54C069E3FA
:100B400080910001909101010E94E0270E94B40D64
:100B500069E310C08338B1F40E94542780FF43C07A
:100B600063E580910001909101010E94E0270E94BD
:100B7000B40D63E580910001909101010E94E2278C
:100B80000C94B40D843879F40E94542782FF2BC052
:100B900067E480910001909101010E94E0270E948A
:100BA000B40D67E4E7CF8CEF860F813A18F380E24B
:100BB000860F883048F4677081E001C0880F6A951D
:100BC000EAF70E946B0DDCCF8BE5860F833020F4B3
:100BD00080E090E00C947227685A673120F480E03E
:100BE00090E00C94882708951F93CF93DF93182FDC
:100BF000EB010E940D05209741F08FE99FE00197DE
:100C0000F1F700C000002197F6CF812FDF91CF913F
:100C10001F910C949505893319F060E070E002C0D3
:100C200060E570E00C94F405882321F00E94650DC6
:100C30000C94B40D0895882321F00E946B0D0C9440
:100C4000B40D0895CF92DF92EF92FF920F931F930E
:100C5000CF93DF937C01062FC72FFC011281D58132
:100C6000D295DF700E943A0D882399F0112389F004
:100C70008C2F807F803421F080E2800F883048F014
:100C800082E00E94040E0E943A0D91E0D82ED926EF
:100C900001C0D12CCC2EC2948FE0C8228C2D90E0C4
:100CA000FC01EA5AFF4F0C94F8338C2F807FCF70F1
:100CB000882311F0C295C07F112399F0CC2309F449
:100CC00037C180E2800F883010F0011104C08C2FF2
:100CD0000E94650D03C08C2F0E94750D0E94B40DFB
:100CE00027C1802F0E949505CC2309F446C180E2DC
:100CF000800F883010F0011104C08C2F0E946B0D02
:100D000003C08C2F0E947B0D0E94B40D36C18C2F26
:100D1000807FCF70803211F0C295C07F002319F020
:100D20000130C9F022C0112371F0DD2341F0D13030
:100D300031F40E94950D8C2B0E949D0D1EC10E94C6
:100D4000950D8C2B1DC0DD2319F0D13009F415C190
:100D50000E94AA0D25C0112321F0D63008F00DC144
:100D60000EC0D53008F009C11BC0112361F0DD238E
:100D700031F0F701858180FFDBC08F7085838C2F78
:100D80000E941406FAC0DD2359F0093309F0E1C0CE
:100D9000FFEF27EE83E0F15020408040E1F7D7C01D
:100DA0008C2F0E941B06E9C08C2F837079F51111DE
:100DB000E8C0402F429546954770440F440F202FBE
:100DC0002F70042E01C0220F0A94EAF704FF08C016
:100DD0008FE090E001C0880F4A95EAF7809501C046
:100DE00080E0C695C695C370822BC23049F058F496
:100DF000C13019F00E94A108C4C00E949C08C1C063
:100E00000E94A608BEC00E949A08BBC0112319F018
:100E10008C2F817001C08695882309F4B2C0402FC1
:100E2000429546954770440F440F202F2F70042E93
:100E300001C0220F0A94EAF704FF08C08FE090E097
:100E400001C0880F4A95EAF7809501C080E0C695F9
:100E5000C695C370822BC23049F058F4C13019F0E6
:100E60000E94E5088EC00E94E0088BC00E94EA083C
:100E700088C00E94AD0885C0CF70112339F08C2F37
:100E80000E94BE08802F0E9414067BC0802F0E9403
:100E90001B068C2F0E94C90874C0023F01F128F480
:100EA000003F41F0013FA1F03FC0033FF9F0043F94
:100EB00039F13AC0112341F0D53008F05EC08C2FD3
:100EC0008F710E94D50859C0D63008F056C0F7CFB0
:100ED000112339F08C2F8F710E94BE084EC0112350
:100EE000C9F38C2F8F710E94C90847C0112329F0C4
:100EF0008C2F8F710E94B60840C00E94B3083DC07D
:100F0000112349F0CF718C2F0E94BE0863E08C2F13
:100F10000E94E90D32C081E00E94040ED23068F1D7
:100F200082E00E94040E29C0112331F0DD2391F2EA
:100F3000802F0E940D0521C0DD2399F2093349F469
:100F40009FEFE7EEF3E09150E040F040E1F700C0A2
:100F50000000802F0E94950510C04C2F4F70602F0D
:100F6000C7010E94D20F0E94A4090FC04C2F4F70DE
:100F7000602FC7010E94D50F08C088EF8C0D843008
:100F800020F40E9454270E94B404DD20C9F00E947E
:100F9000360D80FD15C0F70112820E94300D0E94AF
:100FA000BE08C7010E9401080E94300DDF91CF9159
:100FB0001F910F91FF90EF90DF90CF900C94C90894
:100FC000DF91CF911F910F91FF90EF90DF90CF9025
:100FD00008950F931F93CF93DF93EC01688179817C
:100FE0008A810E9481098C010E94EF080E948E086C
:100FF000B801CE010E942206DF91CF911F910F917F
:101000000895CF93DF93EC01988189812B813C81F6
:10101000232B31F08F3F31F481E09F3F19F403C05F
:1010200081E001C080E080FD19C0CE010E947A03FA
:1010300081110CC00E943A0D882381F08A81882397
:1010400069F082E0DF91CF910C94040ECE010E94F2
:10105000E907CE01DF91CF910C943003DF91CF915E
:1010600008950E94820D0E94920D0C94B40D8091FF
:101070000001909101010E94E4270C9431080E9424
:10108000720D0C943708E92FE295EF704E2F50E067
:10109000FA013297EE30F105B0F4EA59FF4F0C94A3
:1010A000F833803F91F018F4883E68F40EC0843F16
:1010B00051F40BC0883E48F0813F29F406C093FBF1
:1010C000882780F9089580E0089581E00895FC0163
:1010D000808191810E9476090E9443080895CF93F0
:1010E000DF9300D000D01F92CDB7DEB70F900F90E6
:1010F0000F900F900F90DF91CF910895CF93DF93D2
:1011000000D000D000D0CDB7DEB726960FB6F89449
:10111000DEBF0FBECDBFDF91CF9108950895089532
:101120000C948F080C9490080E9492088093B3014D
:101130000C9431080C9494089091B301892B0C9471
:1011400094089091B30189230C9494089091B30171
:1011500089270C9494080C948F080E94AB08809304
:10116000B2010C94310880E00C94AD0891E001C00C
:10117000990F8A95EAF7892F0C94AD0821E030E0A9
:1011800001C0220F8A95EAF78091B201822B0C945C
:10119000AD0821E030E001C0220F8A95EAF72095E2
:1011A0008091B20182230C94AD0821E030E001C0AF
:1011B000220F8A95EAF78091B20182270C94AD083C
:1011C0009091B201892B0C94AD089091B2018923C2
:1011D0000C94AD089091B20189270C94AD08089544
:1011E00024E0929F900D1124890FE82FE695E69553
:1011F000E695877051E001C0550F8A95EAF783E0C4
:10120000E89FF0011124ED55FE4F20E030E070E042
:101210004081CB01022E02C0969587950A94E2F791
:101220008170819584278523842781932F5F3F4F89
:101230002330310569F7089524E0929F900D112421
:10124000890F682F669566956695982F977083E04D
:10125000689FB001112440E050E080E0FB01E40F02
:10126000F51FED55FE4F208130E0092E02C0369566
:1012700027950A94E2F721703327042E01C0220F2C
:101280000A94EAF7822B4F5F5F4F4330510531F7E5
:101290000895CF92DF92FF920F931F93CF93DF9326
:1012A0006C010091B2018091B301082BC7E0D0E03E
:1012B00010E0C8010C2E02C0959587950A94E2F7BC
:1012C00080FD04C02197A8F7F12C07C0FC2EB601C1
:1012D0008C2F0E94DB100197A9F38F2DDF91CF9106
:1012E0001F910F91FF90DF90CF900895CF93DF93E0
:1012F000EC010E944909BE010E94DB10DF91CF91F1
:1013000008951F93CF93DF93EB019091A20199234E
:1013100021F0CB010E94760913C0882349F0CB014C
:101320000E944909182F682FCE010E94F00804C0BE
:10133000CB010E941C09182FBE01812F0E94DB10D7
:10134000DF91CF911F910895EF92FF920F931F931A
:10135000CF93DF938C01892B09F46CC0F12CEE2420
:10136000E394E8012196F8018491843740F48430B5
:1013700008F051C0813081F0823019F15BC08537AF
:1013800009F444C0A8F19CE7980F903708F052C0C8
:101390008F770E94950541C00E5F1F4FFE0184911B
:1013A00090E2980F983050F48770FE2D01C0FF0F27
:1013B0008A95EAF78F2F0E94850D14C00E940D05B3
:1013C0002DC00E5F1F4FFE01849190E2980F983060
:1013D00060F48770FE2D01C0FF0F8A95EAF78F2F0A
:1013E0000E948B0D0E94B40D19C00E94950516C075
:1013F0000E5F1F4FFE01C491CC2381F08FE99FE067
:101400000197F1F700C00000C150F6CF0E5F1F4FEB
:10141000FE01F49003C00E940D058E018F2D8823DC
:1014200009F49FCFEFE9FFE03197F1F700C000002A
:101430008150F5CFDF91CF911F910F91FF90EF90E9
:1014400008951F93CF93DF93C091B40116E080916C
:10145000B501C81799F0D0E01C9FF0011D9FF00D59
:101460001124EA54FE4F408151816281738184814D
:1014700095810E947E082196C770E9CFDF91CF91B8
:101480001F9108954091E6015091E7016091E801B4
:101490007091E9018091EA019091EB010C947E0832
:1014A0000F931F93CF93DF938091EB0182958F7001
:1014B00009F05DC08091E801882309F458C080914B
:1014C000B4011091B5016091E6017091E701C091FE
:1014D000E901D091EA0191E06F3F09F090E0292FF6
:1014E00006E0811709F443C0209721F07F3F21F0E7
:1014F00030E003C031E001C0322F90E030FD34C055
:10150000089FF001099FF00D1124DF01AA54BE4F7E
:1015100011963C911197371327C03C91361324C084
:1015200012963C91129731111FC013964D915C9108
:1015300014974C1B5D0B483C5105B0F48091EB01B6
:101540008F7080618093EB01E554FE4F80818F7036
:101550008061808386EE91E00E940108DF91CF9147
:101560001F910F910C94210A01968770BACFDF91D9
:10157000CF911F910F9108959F92AF92BF92CF92FA
:10158000DF92EF92FF920F931F93CF93DF93CDB72C
:10159000DEB761970FB6F894DEBF0FBECDBF8C01EA
:1015A00085E0F801DE011D9601900D928A95E1F724
:1015B000F801E2809091E6016091E7012091E90154
:1015C0003091EA012115310531F06F3F31F481E0AE
:1015D0009F3F19F403C081E001C080E0F82FF17053
:1015E0009F2E80FD3FC1F80140815181A380B480CE
:1015F00086EEC82E81E0D82EF090E801F501E21BBE
:10160000F30BFF2009F4D9C08091EB01E83CF10510
:1016100008F095C0282F207F09F052C0561313C040
:10162000491311C0FE2CE1100EC08F7080618093B1
:10163000EB010E94420AC6010E9401088091EB0161
:10164000F80185834CC1AB2831F05F3F31F481E074
:101650004F3F19F403C081E001C080E080FD03C06A
:1016600081E08E2502C080E090E0F82FF170FF2E1F
:1016700080FF1CC08091B4012091B50136E0821733
:1016800009F40BC190E0389FF001399FF00D11244F
:10169000EA54FE4F6181561306C06081461303C0B1
:1016A0006281E61203C001968770E9CFFE2CEE201E
:1016B00009F415C18091EB0181608093EB0154C066
:1016C000561306C0491304C0E11002C0F80199C0C6
:1016D000C8010E946708882361F1EE2051F1209132
:1016E000EB01822F82958F7090E0029774F08091C9
:1016F000E6019091E70198878F831986BB86AA86B9
:101700002C87CE0107960E94010886E0F801A6EE1C
:10171000B1E001900D928A95E1F70E94500A0E9473
:10172000420A0AC0561711F1C8010E9467088111C8
:101730002CC0C8010E940108FF24F394D0C0282FB8
:10174000207F81F77A2DB98AA88A6E2D89890E9417
:101750006F0886EE91E00E94010886E0F601119282
:101760008A95E9F70E94420AF12CB9C04913DCCFEF
:10177000E110DACFF8018583C8010E94010886E0F4
:10178000F60111928A95E9F7AAC0EE2091F2209114
:10179000EB01822F82958F7090E002970CF4B5CF09
:1017A0008091E6019091E7019A8389831B82BD8233
:1017B000AC822E83CE010196A6CFE83CF10508F05D
:1017C00044C0FE2CEE2009F4B4CF561330C04913A8
:1017D0002EC02091EB0120FD21C0822F82958F70B9
:1017E000482F50E041155105C9F0F80125834F30CD
:1017F000510541F08F5F982F9295907F822F8F70C7
:10180000892B8583C8010E94010886E0F801A6EEB5
:10181000B1E001900D928A95E1F73CC086E0F801B5
:10182000A6EEB1E001900D928A95E1F758C0C8018B
:101830000E946708811169CF8091EB0181608093DC
:10184000EB01C8010E9401084AC07A2DB98AA88A12
:101850006E2D89890E946F0886E0F60111928A95A3
:10186000E9F718C0EE2009F464CFC8010E946708A8
:10187000F82E882309F45DCF86E0F801A6EEB1E0EA
:1018800001900D928A95E1F786EE91E00E9407059E
:101890000E94500A0E94420A22C04D875E878D85B1
:1018A0009E850E947609292F22952F70223028F4D8
:1018B0009F7039F0811105C00BC0243028F49F704F
:1018C00049F4805E883020F0C8010E9401089F2CF6
:1018D000F92C05C0F8019581907F99F7F9CF8F2DEC
:1018E00061960FB6F894DEBF0FBECDBFDF91CF91EA
:1018F0001F910F91FF90EF90DF90CF90BF90AF902E
:101900009F9008951F93CF93DF93CDB7DEB72C97A9
:101910000FB6F894DEBF0FBECDBF4F8358876987DF
:101920007A878B879C87CE0107960E94BC0A882302
:10193000D1F09F8188852A853B85232B31F08F3F0D
:1019400031F481E09F3F19F403C081E001C080E0E1
:1019500080FD47C04F81588569857A858B859C8538
:101960000E947E083EC086E0FE013796DE01119699
:1019700001900D928A95E1F7FF81E8856A857B8564
:101980006115710531F0EF3F31F481E0FF3F19F44B
:1019900003C081E001C080E080FD23C02091B5013B
:1019A00030E0C9010196877099274091B40150E059
:1019B00084179507F1F1F983EA837D836C8396E0C0
:1019C000929FD001939FB00D1124AA54BE4FFE01E7
:1019D000319601900D929A95E1F78093B5010E949E
:1019E000210A16E08091B4019091B501891771F137
:1019F000189FC00111248A549E4F0E94BC0A88235C
:101A000029F1E091B4011E9FF0011124EA54FE4F28
:101A10004081518162817381848195810E947E0819
:101A20008091B40190E00196877099278093B4016A
:101A3000D9CF0E943F081092B5011092B401E6EE92
:101A4000F1E086E0DF011D928A95E9F72C960FB64A
:101A5000F894DEBF0FBECDBFDF91CF911F910895E7
:101A60008091EC0185958595859508958091EC018F
:101A7000877008959091EC01977081E009F480E0FF
:101A800008959091650292FB222720F9281751F0C2
:101A900080FB92F9909365028091640290916502B7
:101AA0000C944B0E08958091650282FB882780F983
:101AB00091E089270C94410D81E00C94410D80E068
:101AC0000C94410D8091F80108959091F801892BB3
:101AD0008093F801089580959091F801892380936F
:101AE000F80108951092F80108959091F701892B5B
:101AF0008093F701089580959091F7018923809351
:101B0000F70108951092F70108959091F601892B3D
:101B10008093F601089580959091F6018923809332
:101B2000F60108951092F60108958091ED0108954F
:101B300008950C94980D0C94990D9091650292FD66
:101B400008C09091ED01981721F08093ED010C945D
:101B50009B0D08958091ED01882329F01092ED01ED
:101B600080E00C949B0D0895E0910001F09101013B
:101B70008091F8018083E0910001F0910101908152
:101B80008091F701892B8083E0910001F0910101A0
:101B900090818091F601892B80838091ED018823CB
:101BA00081F0E0910001F09101019081892B808307
:101BB00080910001909101010E949E2781110E9455
:101BC000AA0D80910001909101010C9467270C945B
:101BD000980D9091650292FD10C098E0899F900148
:101BE0001124262B2093EC010E94BE088091EC0169
:101BF0008595859585950C94E70D0C94BE081092FB
:101C0000EC0180E00C94E70D2091EC01809582239B
:101C10008093EC01982F977041F430E0482F082E04
:101C2000000C550B2417350721F49091650292FFA3
:101C300007C08595859585950E94C9080C94FF0D70
:101C400008956FEF7FEF80E090E00C948B3480E09C
:101C500090E00E946734893E9E4F11F40C94BE1FA1
:101C600080E0089582E090E00C94593483E090E0A5
:101C70000C945934CF9384E090E00E945934C82FDB
:101C800082E290E00E9459342C2F30E0A901582BB9
:101C9000CA01CF910895CF93C92F682F84E090E0B7
:101CA0000E946D346C2F82E290E0CF910C946D34E1
:101CB000AB01BC018FE090E00C947F34AB01BC0120
:101CC00083E190E00C947F3460E070E0CB010C94F1
:101CD0005E0E60E070E0CB010E94580E0C94640E22
:101CE00069EE7EEF80E090E00E948B3460E082E05D
:101CF00090E00E946D3460E083E090E00E946D34DB
:101D00001092B30160E084E090E00E946D3460E0E6
:101D100082E290E00E946D3460E085E090E00E94F5
:101D20006D3460E086E090E00E946D346FEF87E0F4
:101D300090E00E946D3440E050E0BA0188E090E00D
:101D40000E947F3460E08DE090E00E946D3440E0BE
:101D500050E0BA0188E190E00E947F3460E087E1C2
:101D600090E00E946D3440E050E0BA018CE190E0D8
:101D70000E947F3460E070E080E290E00E948B344B
:101D800040E050E0BA0188E190E00E947F3480E0BA
:101D90000E94D71F0E9403200C94690E0C94700EB1
:101DA000682F8EE090E00C946D340E94CD286093F3
:101DB0000A0270930B0280930C0290930D026093C1
:101DC0000602709307028093080290930902089517
:101DD0000E94CD2860930A0270930B0280930C023C
:101DE00090930D02609302027093030280930402A9
:101DF00090930502089585B7806885BF85B7806890
:101E000085BF08950C94F41308950C94040F0C945A
:101E1000040F0C94070F0C94040F0C940B0F0C94EC
:101E2000040F0E94FB0E87EB91E10E943B290E9468
:101E30000F0F0C940D0F0E94050F0C94040F0E94BD
:101E4000B8280E94EB270E9412200E94B1120E9423
:101E5000ED220E94501C0E943E1E0C94090F9F927E
:101E6000AF92BF92CF92DF92EF92FF920F931F93A8
:101E7000CF93DF93CDB7DEB72A970FB6F894DEBFC6
:101E80000FBECDBF0E94691381110E94D50E8AEF4B
:101E9000A82E81E0B82E00E010E0902E802F0E9446
:101EA000EB11D82EF501C1905F01C826B1F40F5F88
:101EB0001F4F0830110589F78FEF89838A831B82B2
:101EC0000E94C1288160782F9D838C8349815A812B
:101ED0006B818D810E94BD042FC080910E0281FD17
:101EE0000E94F111E12CFF24F3948C2D8F21F1F04D
:101EF0000E94020F882399F0EE829F82DF2081E00A
:101F000009F480E088870E94C1288160782F9A8731
:101F100089874E815F8168858A850E94BD04F801AA
:101F2000E650FE4F8081F826F08206C0E394FF0C55
:101F3000F5E0EF12DACFBBCF0E94941C0E94BF1EC7
:101F400081110E94E80E0E9454279091F90189178F
:101F5000B9F00E9454278093F9012A960FB6F8949D
:101F6000DEBF0FBECDBFDF91CF911F910F91FF90CC
:101F7000EF90DF90CF90BF90AF909F900C94B404FF
:101F80002A960FB6F894DEBF0FBECDBFDF91CF917A
:101F90001F910F91FF90EF90DF90CF90BF90AF9087
:101FA0009F90089580E090E008950895880F991F0C
:101FB000FC01E85FFC4F859194910895CF93DF93E6
:101FC0000E94E010EC01811521E5920798F581153A
:101FD00040E5940708F085C0811550E29507F0F4BC
:101FE000C11581E0D80708F0E2C0C03ED10588F4F1
:101FF000C03CD10508F065C0C130D10509F45EC010
:1020000008F4D2C0CE010497813A910508F4CFC0FC
:10201000CBC0C83ED10508F4CAC0C6C0811520E4B3
:10202000920708F05BC0811540E3940708F04FC0A9
:102030009F704AC0811555E59507A0F4C11584E548
:10204000D80708F095C0C11523E5D20708F07BC07A
:10205000C11542E5D40708F061C09C2F8827816F25
:10206000906AA6C0811559E5950798F4C11588E5D1
:10207000D80708F082C0C11526E5D20708F094C041
:102080008C2F0E9474118F7190E0982F8827906296
:102090008FC081154AE5940708F474C090568115E5
:1020A000904208F081C08D2F8F710E9474119E01A3
:1020B000332730628F71A901582B74C081E090E002
:1020C00077C0CE01805C91090E94D60F71C099271C
:1020D000D3FF02C0986C6CC0906C6AC09F70906A0D
:1020E00067C0F4E096958795FA95E1F7282F23705D
:1020F0003C2F337081E090E002C0880F991F3A9521
:10210000E2F79C68922B2C2F2F702695269540E2A3
:10211000249F90011124822B932B4AC09E0123708F
:10212000332781E090E002C0880F991F2A95E2F7DB
:102130002C2F2695269550E2259F90011124822B65
:10214000932B9C6835C09E012370332781E090E07B
:1021500002C0880F991F2A95E2F72C2F2695269505
:1021600040E2249F90011124822B932B9A6820C077
:102170009C2F8827846F906A1BC09C2F8827806FB4
:10218000906A16C08F700E9474119E0194E036957B
:1021900027959A95E1F72F7030E0322F222730698A
:1021A000A901482BCA0104C080E090E001C0CE0123
:1021B000DF91CF9108950E942B220E94DE0F089597
:1021C0008238910569F1B0F48133910509F46DC04D
:1021D00048F48932910509F463C08A32910509F403
:1021E00069C008958533910509F455C08933910577
:1021F000B9F00895833E910569F138F4803E910568
:10220000B1F0823E910509F10895863E9105A9F14C
:10221000873E9105B9F1843E910509F064C023C061
:102220002091640220FD4FC021FD4DC00895809192
:10223000640280FD44C08091650280FF44C08091AB
:10224000640284FD42C083EE4DC08091640282FF2F
:1022500038C0F5CF8091640282FD33C08091650261
:1022600080FD31C0ECCF8091650281FF32C080914A
:10227000640284FD2AC087EE35C08091640283FF2A
:1022800026C0F5CF8091640283FD21C08091650254
:1022900081FD1FC0ECCF8091640285FD1CC01DC074
:1022A0008091640285FD19C016C08091640286FD8C
:1022B00016C017C08091640286FD13C010C089E368
:1022C00011C082EE0FC080EE0DC080E00BC086EE24
:1022D00009C084EE07C089E205C085E303C08AE235
:1022E00001C081E390E008959091640292FF0DC0D7
:1022F000282F2871283019F4877F846006C0282F82
:102300002471243011F48B7F886093FF0DC0282F37
:102310002871283119F4877E846106C0282F247122
:10232000243111F48B7E88612091650220FF0DC05D
:10233000382F3871383019F4877F816006C0382F04
:102340003171313011F48E7F886021FF0DC0282F4C
:102350002871283119F4877E816106C0282F2171E8
:10236000213111F48E7E886194FD877E089580E08E
:1023700008950C94210E0E9469138FE39CE9019744
:10238000F1F700C000000E94691380E00E94EB1189
:1023900080FF04C00E94B9110C942A2908950C945E
:1023A000BB110E94270E811102C00E94CE0E0E9416
:1023B000320E80930E020E943A0E90936502809333
:1023C00064020E94CF110E94360E0E949A088091EA
:1023D000B2010C94AB08E82FF0E0E259FD4F808188
:1023E0000895089580EA8A95F1F7089500C0089548
:1023F0000C94F21108950C94FA110C94FB110C94A6
:10240000FA110C94FF11F894E82FE295EF70F0E0C8
:1024100031A1282F2F7081E090E001C0880F2A950C
:10242000EAF7982F9095932391A392A1892B82A3E9
:102430007894089508950C941A120F931F93CF93D4
:10244000DF93C2E0D1E089918F3F11F00E94031227
:1024500081E0C730D807B9F7C7E0D1E00BE011E061
:1024600089918F3F11F00E9403120C171D07C1F7CD
:10247000DF91CF911F910F910895DF92EF92FF921C
:102480000F931F93CF93DF93062F10E00E5F1E4F25
:10249000E80128812F3F09F45CC0F62EE92ED82EE2
:1024A000F894E22FE295EF70F0E081A12F70C1E087
:1024B000D0E0AE0102C0440F551F2A95E2F79A0101
:1024C000842B81A382A12095282322A378940E94A3
:1024D000F6110F2C01C0CC0F0A94EAF73C2F6C2F99
:1024E0006095A7E0B1E0ED2DFE2DAF014C5F5F4F91
:1024F000E12C2D912F3FA9F0822F82958F7090E0D3
:10250000EC0188A190E02F7002C0959587952A95DF
:10251000E2F780FD06C08081832B8083EE24E39464
:1025200003C08081862380833196E417F50709F77D
:10253000F80180818F3F11F00E9403126E2D8F2DC4
:10254000DF91CF911F910F91FF90EF90DF900C944E
:10255000F811DF91CF911F910F91FF90EF90DF90D5
:102560000895CF93DF93CDB7DEB72D970FB6F894CC
:10257000DEBF0FBECDBF0E940E1480910F018111EE
:102580002FC0FE01319628E0DF011D922A95E9F760
:1025900025E3298324E32A8321E32B8327EF2C835C
:1025A000CF01E7E0F1E09E01275F3F4FDC014D9155
:1025B000CD014193A217B307C9F725E0E4E6F1E0A6
:1025C000DE01199601900D922A95E1F7FC01A2E037
:1025D000B1E0CE010E9621912D93E817F907D9F7B6
:1025E00080910F01811102C094E001C090E09093AE
:1025F000770284E0891B809376020E941D12E6E632
:10260000F2E0AEE6B2E011921D9282E0EE36F807FB
:10261000D1F784E00E94BD130E9462032D960FB68D
:10262000F894DEBF0FBECDBFDF91CF910C9418148C
:102630001F93CF93DF9300D000D0CDB7DEB70E94B9
:10264000F41360917702882371F119821A821B8238
:102650001C82862F90E0BE016F5F7F4F82599D4F95
:102660000E942614E09176029E012B5F3F4FF0E01E
:10267000E259FD4FDE011196882361F010E08D9143
:102680009081981711F0808311E03196A217B3075B
:10269000B1F706C011921D92A217B307D9F711E046
:1026A0000E9468030DC070E062597D4F80917602F0
:1026B00090E082599D4F0E94B6140E941B1210E0B8
:1026C000812F0F900F900F900F90DF91CF911F915E
:1026D0000895EF92FF920F931F93CF93DF93CDB79F
:1026E000DEB728970FB6F894DEBF0FBECDBF8E01C0
:1026F0000F5F1F4F88E0F80111928A95E9F7F12CDE
:102700006F2DC8010E943D12F394F5E0FF12F8CF3F
:1027100048E050E0B80186E692E00E9443347C0134
:1027200021E0892B09F420E0E114F10441F088E074
:10273000F801A6E6B2E001900D928A95E1F760916A
:10274000770270E062597D4F44E086E692E00E9495
:10275000BE13EF2819F40E94181302C081E090E024
:1027600028960FB6F894DEBF0FBECDBFDF91CF9194
:102770001F910F91FF90EF9008950895FF920F938E
:102780001F93CF93DF938C01F62ED72FC42F2223D4
:1027900049F081E0809311020E94C12890931002B9
:1027A00080930F02809111028823C1F080910F0263
:1027B000909110020E94D928059780F0EF2DFD2FEF
:1027C000D8014C2F50E0CD01801B910B8417950749
:1027D0001CF48D918193F7CF10921102DF91CF916C
:1027E0001F910F91FF9008958091140281110DC0E7
:1027F0000E945830811102C082E001C081E08093C4
:102800001402823011F40E94533081E0909114023E
:10281000913009F080E008950C94F4130E940C1498
:1028200080930F010E94F41381110C945E1408959B
:102830000E94F413811102C00C946014089581E089
:10284000909115029A3008F080E008950F931F933D
:10285000CF93DF93EC018B01809115028A3038F41D
:10286000B801CE010E94B41481111DC00AC080912C
:102870001202909113020E94D928843F914080F760
:1028800015C0809115028F3F19F08F5F809315025C
:10289000809115028A3060F00E94C1289093130243
:1028A0008093120203C01092150202C080E001C0A2
:1028B00081E0DF91CF911F910F9108950C948A25AB
:1028C0000C948D25EF92FF920F931F93CF93DF937C
:1028D0007901C82F880FDD0B41155105A9F08AE059
:1028E0008C9FF0018D9FF00D1124E05FFE4F8381DE
:1028F00094818A5E9D4F228130E04217530708F48D
:102900009A01A9010E945034CE010E949726892B7A
:1029100009F50115110501F18AE08C9FF0018D9FE9
:10292000F00D1124E05FFE4F458150E004171507BC
:1029300008F4A8018AE08C9FF0018D9FF00D11240E
:10294000E05FFE4F668177816A5E7D4FC7010E941E
:10295000503402C080E001C081E0DF91CF911F912F
:102960000F91FF90EF9008950C9419160C943D165A
:102970000F931F93CF93DF9300D000D0CDB7DEB776
:10298000609132027091330280913402909135024D
:102990000E94E828643671058105910528F10E949E
:1029A0001128DC01CB010296A11DB11D89839A83F8
:1029B000AB83BC8300E010E020E030E044E050E076
:1029C000BE016F5F7F4F84E00E946214182F88233E
:1029D00061F00E94CD28609332027093330280939D
:1029E00034029093350201C011E0812F0F900F90B7
:1029F0000F900F90DF91CF911F910F9108957F92CB
:102A00008F929F92AF92BF92CF92DF92EF92FF92FE
:102A10000F931F93CF93DF931F92CDB7DEB7762E20
:102A20004A015901680101E010E09E012F5F3F4F0C
:102A300040E050E060E070E00E946214182F8823AC
:102A400079F1F40160817181828193810E94E8288B
:102A50006436710581059105E0F08701950140E03C
:102A600050E060E070E0872D0E946214182FB701DB
:102A7000C6010E94EE2291E02981281390E01923DB
:102A8000A1F00E94CD28F401608371838283938337
:102A90000CC0B701C6010E94EE2299818913DDCFD7
:102AA000A701B601C5010E945034812F0F90DF911C
:102AB000CF911F910F91FF90EF90DF90CF90BF903B
:102AC000AF909F908F907F900895EF92FF920F9319
:102AD0001F93CF93DF9300D0CDB7DEB7009169018C
:102AE00010916A010A5F1F4F82E0E82EF12C9E01CF
:102AF0002F5F3F4F4EE252E063E082E00E94FF14FE
:102B0000182F882321F0CE0101960E946E1F812F7D
:102B10000F900F90DF91CF911F910F91FF90EF9049
:102B20000895CF92DF92EF92FF920F931F93CF936E
:102B3000DF9300D000D0CDB7DEB76B010091690103
:102B400010916A010F5F1F4F84E0E82EF12C9E0167
:102B50002F5F3F4F4AE252E061E080E00E94FF14A5
:102B6000882361F049815A816B817C8140932602E0
:102B70005093270260932802709329024091260205
:102B8000509127026091280270912902F60140833A
:102B90005183628373830F900F900F900F90DF919A
:102BA000CF911F910F91FF90EF90DF90CF900895FC
:102BB000AF92BF92CF92DF92EF92FF920F931F934B
:102BC000CF93DF937C015B016A010E941F14811186
:102BD00003C001E010E002C00AE010E0C1E0D0E074
:102BE000F894B501C701F60109957894811115C0D3
:102BF00021960C171D0794F0CC9F9001CD9F300DAE
:102C0000300D112480E090E045E34A95F1F7000093
:102C1000019682179307C1F7E3CF81E0DF91CF914F
:102C20001F910F91FF90EF90DF90CF90BF90AF90EA
:102C300008950F931F93CF93DF93EC018B0141E92C
:102C400055E10E94D815882391F045E655E1B80179
:102C5000CE010E94D815882351F048EB54E1B80109
:102C6000CE01DF91CF911F910F910C94D81580E088
:102C7000DF91CF911F910F9108950F931F93CF93E1
:102C8000DF9300D0CDB7DEB7F894009169011091C1
:102C90006A01C801019624E0FB01DC0101900D925C
:102CA0002A95E1F764E070E00E94EE22F80180834B
:102CB0007894F894CE0101960E94631F89819A81CD
:102CC000F8019783868362E070E0CE0101960E944E
:102CD000EE22F80185837894F89460857185828569
:102CE00093850091220210912302209124023091B9
:102CF0002502601771078207930751F06093220243
:102D00007093230280932402909325020E94F4275B
:102D100078940F900F90DF91CF911F910F910895AC
:102D20000E9435280E947A2A0E94932A0E94A52A8E
:102D30000E941B0FFBCFEF92FF920F931F93CF9335
:102D4000DF938B01682F11110AC0442329F0E82F6B
:102D5000F0E0E15EFC4F6491762F862F75C0212F45
:102D600030E0E82FF0E0442321F0E15EFC4FE491F5
:102D7000F0E046E0049FC0011124CFEFD0E0BE0197
:102D80000E94AE334BEA4603C001479F900D1124C9
:102D9000800F911D800F911D982F990F890FAE0103
:102DA000421B530B4E9FD0014F9FB00D5E9FB00D45
:102DB00011249B2F189FA0011124452F55278E0108
:102DC000041B150B0E9FA0010F9F500D1E9F500D51
:102DD00011247E01E81AF108E29E8001E39E100DA5
:102DE000F29E100D1124212F3327C21BD30BCE9F2F
:102DF0009001CF9F300DDE9F300D112462307105A0
:102E0000A9F048F46115710569F061307105C9F4E4
:102E10008B2F752F0DC06430710581F058F066302E
:102E2000710579F47E2F8B2F932F0DC0832F7B2F6D
:102E30009E2F09C08E2F7B2F952F05C08E2F732FAD
:102E400002C07E2F852F692FDF91CF911F910F91A7
:102E5000FF90EF90089541E00E949B160895089519
:102E60000E942B170895CF93DF93762FE901682FE7
:102E7000842F0E943017798368838A83DF91CF91F2
:102E8000089580917902282F269530E0211531058B
:102E900019F48170826005C02532310524F08170FB
:102EA000886480937902089588E090E00C946134FE
:102EB000CF92DF92EF92FF926B017C010E9441174B
:102EC000B701A60188E090E0FF90EF90DF90CF90EF
:102ED0000C947F346091790270917A0280917B0228
:102EE00090917C020C945817E9E7F2E083E080832C
:102EF00011828FEF8283838314826081718182814A
:102F000093810C9458178091790280FF02C08695B6
:102F1000089580E0089590917D02933018F49F5FAA
:102F200090937D02882351F06091790270917A022A
:102F300080917B0290917C020C945817089581E057
:102F40000C948B1790917D02992319F091509093D6
:102F50007D02882351F06091790270917A0280910C
:102F60007B0290917C020C945817089581E00C9498
:102F7000A21780917D02089580937D02662351F00F
:102F80006091790270917A0280917B0290917C022B
:102F90000C945817089560E00C94BC1780917A0245
:102FA000089580917B02089580917C02089570E0DD
:102FB0000C94111E609146018091790280FF0AC035
:102FC0008091450123E0829FC001112482589D4FCA
:102FD0000C94D7178091470190914801891780F789
:102FE000E82FF0E09F01220F331FE20FF31FE2589A
:102FF000FD4F1182108212828F5FF0CF9091790283
:1030000090FF16C09091470120914801921770F4EB
:10301000E92FF0E0DF01AA0FBB1FEA0FFB1FE25808
:10302000FD4F8183608342839F5FF0CF0C94DA175A
:103030000895CF93DF9300D01F92CDB7DEB7909164
:10304000790290FF0AC09E012F5F3F4F0E94331705
:103050004B8169818A810E94FE170F900F900F901B
:10306000DF91CF910895CF93DF93EC016C8170E0F5
:1030700080E090E00E94AF3120E030E04FE753E481
:103080000E94D2302BED3FE049E450E40E94D83258
:103090000E9445330E944C312BE43AE34EE25FE359
:1030A0000E94653020EF3BEF48ED52E40E94D83299
:1030B0000E947E31462FE9E7F2E0628181810E9421
:1030C00019188C818F5F8C83DF91CF910895CF93F6
:1030D000DF93EC01E9E7F2E0438162818C810E9499
:1030E00019188C818F5F8C83DF91CF9108950F9396
:1030F0001F93CF93DF9300D01F92CDB7DEB78C0123
:103100008091360281110AC09E012F5F3F4F4FEF21
:103110006FEF0E9433178A8180933602F801848111
:10312000813051F028F0823061F4409136020AC0BB
:103130008091360240E007C06091360240E080E0B6
:1031400003C040E080E060E00E94FE17F801848147
:1031500090E0019663E070E00E94C23384830F9098
:103160000F900F90DF91CF911F910F910895AF9223
:10317000BF92CF92DF92EF92FF920F931F93CF9364
:10318000DF9300D01F92CDB7DEB7182FF62E042F95
:10319000E22E9091790290FF6DC0E92FE695AE2F57
:1031A000B0E0A559BE4F8C91809342029E7F923031
:1031B00061F49E012F5F3F4F812F0E9433174B8197
:1031C00069818A810E94FE1743C0823019F4009100
:1031D0007C023EC0863019F410917A0239C08930E1
:1031E000D9F38931A9F5E9518E2F8170D82EE69552
:1031F000F0E0E65EFC4FA590B490C12CBB2460913A
:103200004901C61618F52C2D30E0A29EC001A39EE0
:10321000900DB29E900D112470E00E94AE33812F6C
:10322000D11002C0860F01C0861B90914701290F63
:10323000311DA901440F551F240F351F22583D4F42
:10324000402F6F2D0E943317C394D9CF0E94DA17F5
:1032500010937A02F0927B0200937C02EE2051F0F0
:103260006091790270917A0280917B0290917C0248
:103270000E9458170F900F900F90DF91CF911F91E0
:103280000F91FF90EF90DF90CF90BF90AF90089597
:10329000E9E7F2E09181282F4381628188E0890F7C
:1032A0000C94B71881E00C944819E9E7F2E0918199
:1032B000282F4381628188EF890F0C94B71881E031
:1032C0000C945519E9E7F2E0628128E0620F08F4F6
:1032D0006FEF282F438181810C94B71881E00C9403
:1032E0006219E9E7F2E0628128E0621B08F460E01D
:1032F000282F438181810C94B71881E00C947119B7
:10330000E9E7F2E0438128E0420F08F44FEF282F6D
:10331000628181810C94B71881E00C948019E9E7EF
:10332000F2E0438128E0421B08F440E0282F62814C
:1033300081810C94B71881E00C948F1920E00C94D3
:10334000B718FF920F931F93CF93DF93EC01F12CEB
:103350000FEF10E060914901F616F0F480914701FB
:103360002F2D30E0280F311DC901880F991F280F1C
:10337000391F22583D4F70E0C8010E94C233962F7A
:103380008C8140917C0260917B02F99E800D11241A
:103390000E943317F394DECF0E94DA179A818C8152
:1033A00090FF02C08F5F01C081508C83DF91CF916D
:1033B0001F910F91FF900895BF92CF92DF92EF92ED
:1033C000FF920F931F93CF93DF93FC01828180FFC5
:1033D00002C00FEF01C001E010E080914901181711
:1033E00008F040C080914701C12ED12CE601C80FE2
:1033F000D11DCE01880F991FC80FD91FC258DD4FAC
:10340000198218821A8234E0E32EF12CB12C8091BB
:1034100038028B0D813114F08F7005C087FF03C017
:1034200090914901890F082E000C990BC816D906F6
:1034300091F480917C028E9DA0018F9D500D1124EE
:1034400055954795559547959E0160917B028091D2
:103450007A020E943317B00EF1E0EF1AF108B9F6C4
:103460001F5FBBCF0E94DA1780913802013031F420
:10347000811102C080914901815007C090E00196FE
:103480006091490170E00E94C23380933802DF915D
:10349000CF911F910F91FF90EF90DF90CF90BF9051
:1034A0000895CF938091470190914801891770F456
:1034B000E82FF0E09F01220F331FE20FF31FE258C5
:1034C000FD4F1182108212828F5FF0CFC0E06091B9
:1034D0004901C617C0F5EC2FF0E070E0CF010E9463
:1034E000C23320914701820F20913702022E000C37
:1034F000330B90E0E217F307CCF020914401022E49
:10350000000C330B2E173F078CF09C01220F331F4A
:10351000820F931F9C0122583D4F40917C02609185
:103520007B0280917A020E9433170BC0FC01EE0FE0
:10353000FF1F8E0F9F1FFC01E258FD4F118210826A
:103540001282CF5FC4CF0E94DA172091430180918D
:103550003702820F8093370290914401920F90932B
:10356000440119165CF4082E000C990B4091490196
:1035700050E041505109841795071CF02195209384
:103580004301CF9108958F929F92AF92BF92CF92B5
:10359000DF92EF92FF920F931F93CF93DF938C01F3
:1035A000FC014481C42FD0E09E01DE010E940D3455
:1035B0009B01AC010E9423346B017C01E0E2F0E04E
:1035C000EC1BFD0BA5E5B0E09B01AC010E94233490
:1035D0004B015C019F01DF010E9405349B01AC019E
:1035E0000E942E349B01AC012C0D3D1D4E1D5F1D14
:1035F000C501B4010E94D633C22FD22F2A3228F43B
:10360000F3E02F9F900111240DC025E530E02C1B25
:103610003109C901880F991F280F391F37FF02C0D0
:103620002F5F3F4F35952795C22FC095F12C85E52B
:10363000E82EED1A80914901F816C8F4F1FC02C099
:103640008E2D01C08D2F909147012F2D30E0290F35
:10365000311DA901440F551F240F351F22583D4F1E
:103660004C2F60917B020E943317F394E3CF0E94AA
:10367000DA17F8018481811102C091E003C0803221
:1036800019F49FEF9093420190914201890FF80144
:103690008483DF91CF911F910F91FF90EF90DF9086
:1036A000CF90BF90AF909F908F9008950F931F93EE
:1036B000CF93DF93EC0100E010E080914901282FC7
:1036C00030E00217130724F5909147019801290F64
:1036D000311DA901440F551F240F351F22583D4F9E
:1036E000869590E04C81081719071CF4442331F0AB
:1036F00002C0411103C040917C0201C040E06091D2
:103700007B0280917A020E9433170F5F1F4FD5CF43
:103710000E94DA178C8190E00196817099278C8342
:10372000DF91CF911F910F910895E9E7F2E0808139
:103730008E7F808360817181828193810E9458177E
:10374000109243022FEF80E792E02150804090409A
:10375000E1F700C000000C94DA17E9E7F2E080819D
:103760008E7F8083109243022FEF80E792E02150FA
:1037700080409040E1F700C000000C94DA171092EE
:1037800043028091400281110AC081E0809340028F
:1037900080917902817080933F020C94AD1B089553
:1037A00060917902669570E04BE050E08AE491E028
:1037B0000E943634892B19F481E0809343020E94E1
:1037C0002C2890933A0280933902089590917902BF
:1037D00090FF35C09170811102C0926006C08532A1
:1037E00010F0986402C0880F982B9093790266239A
:1037F00051F06091790270917A0280917B029091F0
:103800007C020E94581760917902669570E04BE047
:1038100050E08AE491E00E943634892B19F010922E
:10382000430202C00E94D01B81E080933C02409181
:103830007C0260917B0280917A020C949E1908951B
:10384000682F90917902969581E0890F853208F072
:1038500081E00C94E61B81E00C94201C682F909171
:10386000790296958FEF890F09F484E20C94E61B98
:1038700081E00C942E1C61E00C94E61BE9E7F2E079
:1038800080818160808386950C943B1C80917902B5
:1038900080FD0C94951B0C943E1C60E00C94E61B80
:1038A0008091410281112EC00E94270E811104C017
:1038B0000E94CE0E0E9474170E94541760937902E2
:1038C00070937A0280937B0290937C026E7F61F406
:1038D0000E9474170E9454176093790270937A02C1
:1038E00080937B0290937C020E94411710924302C6
:1038F0008091790280FF03C086950E944D1C81E073
:10390000809341020895E9E7F2E08081816080833D
:1039100086950C944D1C1092400280913F028111BB
:103920000E94831C0C94D01B0F931F93CF93DF93A3
:1039300080914302882309F485C080914202E0917E
:103940007902E695E81BE0933B02823049F4F0E00F
:10395000EA5EFC4FE491CE2FD0E003E318E149C0CA
:10396000863049F4F0E0ED5EFC4FE491CE2FD0E0DC
:1039700007E618E13EC0893051F4E695F0E0E05FDB
:10398000FC4FE491CE2FD0E001EA19E132C08F3034
:1039900051F4E695F0E0E35FFC4FE491CE2FD0E0E8
:1039A0000CED19E126C0853149F4F0E0E65FFC4FEB
:1039B000E491CE2FD0E001E51AE11BC0883181F0FF
:1039C000833239F4E8E0F3E0C591D49107E718E1D8
:1039D00010C0843251F4C4EFD1E006E51BE109C008
:1039E000C8E2D0E003EC1AE104C0C0EDD7E00FE27A
:1039F00017E180913C02882361F010923C020E9402
:103A00002C2890933A028093390210923E02109231
:103A10003D020E942C28E0913902F0913A028E1B5F
:103A20009F0B8F3F9F4770F4EC0FFD1FF0933A02FE
:103A3000E093390289E392E0F801DF91CF911F9181
:103A40000F910994DF91CF911F910F9108958823D1
:103A500011F0FA0101C0FB010994CF93DF93C82F45
:103A6000D62F0E9483178C1740F00E9483178D1762
:103A700020F4DF91CF910C942B1C8C2FDF91CF91F0
:103A80000C943B1C1F93CF93DF93FB011281111108
:103A9000C3C0EC010E94620D8272CC3CFCE5DF07E2
:103AA00009F49AC0A8F5C63CECE5DE0709F476C037
:103AB000A8F4C33C9CE5D90709F45FC028F4C23CD4
:103AC000DC4509F457C054C0C43C9CE5D90709F44F
:103AD00059C0C53CDC4509F45CC04AC0C93CFCE5A2
:103AE000DF0709F46AC050F4C73CECE5DE0709F4CF
:103AF0005AC0C83CDC4509F45BC03AC0CA3C9CE5EE
:103B0000D90709F45FC0CB3CDC4509F460C030C084
:103B1000C13DFCE5DF0709F46FC088F4CE3C9CE5AD
:103B2000D90709F460C008F45CC0CF3CFCE5DF07AE
:103B300009F45CC0C03DDC4509F45BC019C0C43D5C
:103B40009CE5D90709F460C050F4C23DFCE5DF07ED
:103B500009F455C0C33DDC4509F454C009C0C53D56
:103B60009CE5D90709F455C0CD35DD4509F454C0AD
:103B700011E052C00E94461C4FC048E35CE16BE27A
:103B80007CE104C04BE25CE168E37CE10E94271D1C
:103B900043C04FE559E162E579E1F8CF42E559E1EB
:103BA0006FE579E1F3CF4DE759E16EE679E1EECFCC
:103BB0004EE659E16DE779E1E9CF4BE959E16CE86F
:103BC00079E1E4CF4CE859E16BE979E1DFCF46EBED
:103BD00057E16FE977E1DACF4FE957E166EB77E13B
:103BE000D5CF81E017C065E082E010C068E086E0D4
:103BF0000DC06EE089E00AC064E18FE007C067E1B4
:103C000085E104C088E106C062E289E10E942D1DC1
:103C100003C083E20E943B1C812FDF91CF911F9153
:103C20000895539A2BB1277F3BB138604FB7F89472
:103C3000FC01CB01880F991F680F791F6E0F7F1F42
:103C4000E617F70789F0819198E03BB9000000C0C2
:103C500087FF2BB9880F000000C000C000C02BB93F
:103C600000C09A9591F7ECCF4FBF8FE594E0019794
:103C7000F1F700C0000008950C94C602FF920F9364
:103C80001F93CF93DF9380910F0181110CC087E9BF
:103C90008093570186EC8093550184E98093580105
:103CA00086E680935601CCE4D2E027E531E045E595
:103CB00051E061E070E0F2E0CE34DF0709F44CC07F
:103CC000F90101919F01A02FA295AF70B0E09196EC
:103CD000EC9191970F70CB01002E01C0880F0A94D0
:103CE000EAF7982F90959E2391969C9391979296A0
:103CF0009C919297892B92968C939297FA011191AD
:103D0000AF01E12FE295EF70F0E0F1A01F70CB0161
:103D1000012E01C0880F0A94EAF7982F90959F21F1
:103D200091A392A1892B82A390968C9190E002C0DE
:103D3000959587950A95E2F78170E0A1F0E002C0C1
:103D4000F595E7951A95E2F7E0FD02C090E001C015
:103D500092E0892B8993AFCF80910F01811102C02E
:103D600092E001C090E09093450282E0891B80932D
:103D70004402DF91CF911F910F91FF9008953F92E0
:103D80004F925F926F927F928F929F92AF92BF926B
:103D9000CF92DF92EF92FF920F931F93CF93DF9317
:103DA0008CE4882E82E0982E97E5E92E91E0F92E9A
:103DB00005E511E0CAE4D2E064015401412C312C44
:103DC00024E0622E712CD501ED915D014E2F440F40
:103DD000440FF60141936F01D7012D917D01E22F30
:103DE000E295EF70F0E080A190E02F7002C0959511
:103DF00087952A95E2F781709927F80151918F01F3
:103E0000E52FE295EF70F0E020A130E05F7002C096
:103E1000359527955A95E2F7F901E170FF2720FFC4
:103E200002C0E2E0F0E0E82BF92BE42BD401ED93A3
:103E30004D0150904502540CEF70F0E0E057FE4FFA
:103E400090818881890F888384306CF0E52DF0E0C3
:103E5000EA5BFD4F80818F5F808360E0852D0E944B
:103E60003C1E21E001C020E088818D3F64F4E52DF7
:103E7000F0E0EA5BFD4F80818150808361E0852D19
:103E80000E943C1E21E08881082E000C990BB30192
:103E90000E94C2338993322A4394B2E04B1293CFEB
:103EA000832DDF91CF911F910F91FF90EF90DF90C5
:103EB000CF90BF90AF909F908F907F906F905F90CA
:103EC0004F903F900895E0914502F0E0EA5BFD4F8E
:103ED00020813181FC01318320830895CF92DF92CC
:103EE000EF92FF920F931F93CF93DF936C01F12C0E
:103EF00080E0D0914402DF0DF601C1916F010D2FDA
:103F000010E00A5B1D4FF8019081C91BEC2E1E14B6
:103F10005CF4EA94F80180818F5F808360E08D2FEC
:103F20000E943C1E81E0F3CF9C2FC7FD90E0C91B8F
:103F3000CC2359F0CF5FF80180818150808361E00C
:103F40008D2F0E943C1E81E0F3CFF394F2E0FF122C
:103F5000D0CF882351F0DF91CF911F910F91FF9027
:103F6000EF90DF90CF900C94E80EDF91CF911F91EE
:103F70000F91FF90EF90DF90CF90089583E290E053
:103F80000E945934823281F484E290E00E945934D4
:103F9000873051F485E290E00E94593491E08133FA
:103FA00009F090E0892F01C080E081700895CF93DF
:103FB000C82F811102C06FEF01C062E283E290E07E
:103FC0000E946D34C11102C06FEF01C067E084E24E
:103FD00090E00E946D34C11102C06FEF01C061E337
:103FE00085E290E0CF910C946D34089586E290E0E4
:103FF0000E945934682F70E080E090E0089586E2D6
:1040000090E00C946D3480E00E94D71F60E070E077
:10401000CB010E94FF1F0E94A6210E94852281E001
:104020000C94D71F0E94F51F0E94BE1F811102C071
:104030000C9403200895CF93FB01C281CC23E9F0B7
:104040009C0122513F452031310520F482510E94CC
:1040500095220CC08031FFE59F0751F481E00E945A
:10406000BE0843E062E081E00E945903C0E018C04E
:1040700081319F45A9F482E0F2CF8031EFE59E07C0
:1040800011F481E004C081319F4549F482E00E942F
:10409000C90843E062E081E00E94590301C0C1E029
:1040A0008C2FCF9108952FEFFC0120830895CF939B
:1040B000DF93EC018881813889F028F48038A1F4FD
:1040C0000E94D41710C0823861F0833869F40E94CE
:1040D000CE1789830E94D1178A8306C00E94831756
:1040E00002C00E94B9178983DF91CF910895CF93C1
:1040F000DF93EC0188818138B1F058F4803851F5B4
:10410000D9810E94D117C82F0E94CE174D2F6C2F36
:104110001DC08238B1F08338E9F40E94D417482FCB
:104120006A81898113C089810E944D1C8981811116
:1041300004C0DF91CF910C94AD1BDF91CF910C9413
:10414000831C8981DF91CF910C94CB17DF91CF91A4
:104150000C949E19DF91CF910895EF92FF920F93E7
:104160001F93CF93DF93EC01062F0196E8814E2F2A
:1041700050E0FA013197E331F10508F09AC0EC58AC
:10418000FF4F0C94F833198289E056C08981823040
:1041900039F0833061F0813029F50E94CD2802C0CA
:1041A0000E94F61F9A838B837C836D8384C07E017B
:1041B00082E0E80EF11C10E0812F0E94EB11F70164
:1041C00081937F011F5F1830B9F775C089818230F4
:1041D00049F46A817B818C819D810E94FE330E941B
:1041E000FF1F69C0602FCE010E94532064C04B8125
:1041F0006A8189810E9478219C838D835CC02C8197
:104200003D813227232732274B816A8189810E9491
:10421000912151C00E94A6214EC00E9477204BC020
:104220000E94572048C00E946A1745C00E94382249
:1042300024C00E943A2299838A833DC06B8170E03A
:1042400089819A81AE014C5F5F4F98278927982713
:104250000E943D2230C06B8170E089819A81AE015D
:104260004C5F5F4F9827892798270E94622223C0BE
:104270000E94852220C00E94652189831CC06B8119
:1042800070E089819A81AE014C5F5F4F9827892742
:1042900098270E94E5210FC06B8170E089819A8187
:1042A000AE014C5F5F4F9827892798270E9409220B
:1042B00002C08FEF8883602FCE01DF91CF911F91D5
:1042C0000F91FF90EF900C94722984E0089550E0D4
:1042D000440F551F2AE0629F400D511D11249A0181
:1042E00060E5869F200D311D1124C9018796089530
:1042F0000F931F93CF93DF930E9467218C010E943D
:104300005934C82FD0E0DC2FCC27C80101960E9479
:1043100059349E01282BC901DF91CF911F910F9134
:1043200008950F931F93CF93DF93122F032F0E94B3
:104330006721EC01602F0E946D34612FCE01019640
:10434000DF91CF911F910F910C946D34AF92BF927A
:10435000CF92DF92EF92FF920F931F93CF93DF9351
:10436000A12CE12CF12CB12C00E010E0C0E0D0E059
:104370006701C00ED11EFE01EE0FFF1FEC0DFD1DEB
:10438000E859FE4F259134914C2F6B2D8A2D0E94B8
:1043900091212196C530D10571F7065F1F4FB39467
:1043A00088E0B812E3CF80E5E80EF11CA39484E026
:1043B000A812D9CFDF91CF911F910F91FF90EF906D
:1043C000DF90CF90BF90AF900895EF92FF920F9340
:1043D0001F93CF93DF93EA017A01E60EF71E8C015B
:1043E000C8018796CE15DF0569F0003421E0120779
:1043F00020F40E945934888301C0188221960F5FEF
:104400001F4FEECFDF91CF911F910F91FF90EF9053
:104410000895EF92FF920F931F93CF93DF93EA01DA
:104420007A01E60EF71E8C01C8018796CE15DF05CE
:1044300059F0003421E0120718F468810E946D34AD
:1044400021960F5F1F4FF0CFDF91CF911F910F91FA
:10445000FF90EF900895462F843038F4783028F498
:10446000653018F4672F0C94782180E090E008956F
:1044700080E1089589E992E00895EF92FF920F9309
:104480001F93CF93DF93EA017A01E60EF71E8C01AA
:10449000C80189599E4FCE15DF0569F0093922E020
:1044A000120720F40E945934888301C01882219693
:1044B0000F5F1F4FEDCFDF91CF911F910F91FF90B5
:1044C000EF900895EF92FF920F931F93CF93DF9396
:1044D000EA017A01E60EF71E8C01C80189599E4F48
:1044E000CE15DF0559F0093922E0120718F468816A
:1044F0000E946D3421960F5F1F4FEFCFDF91CF9158
:104500001F910F91FF90EF900895CF93DF93C7E62F
:10451000D1E060E0CE010E946D342196C11584E0A7
:10452000D807B9F7DF91CF910895DF92EF92FF920C
:104530000F931F93CF93DF9300D000D0CDB7DEB79A
:10454000F82E8FE08F15E8F18FEF93E00E94593439
:10455000811137C007E611E0FF2069F0011584E002
:10456000180779F1C8010E945934811101C0FA94E9
:104570000F5F1F4FF1CF19821A821B821C82DD242C
:10458000D39478018FEFE81AF80AC8010E945934D1
:1045900089831A828823A9F09FEF980F933058F4EB
:1045A0008A83D9820E5F1F4FC7010E9459348B83C3
:1045B000882339F07801CE0101960E94A904870171
:1045C000E0CF0F900F900F900F90DF91CF911F9140
:1045D0000F91FF90EF90DF9008950895FC01680F10
:1045E000791F8FEF91E3E617F70771F0219182278A
:1045F00028E030E087FF03C0880F892701C0880FBB
:1046000021503109B9F7EFCF08950F931F93CF933E
:10461000DF93C42FD22FFC0182818823C9F04093FD
:1046200050020E94C12890934F0280934E0280E274
:104630008C0F883008F057C0C77081E001C0880F28
:10464000CA95EAF7DF91CF911F910F910C94140650
:1046500080915002481330C080914E0290914F02D9
:104660000E94D928883C910538F510E21D0FCD171E
:10467000B9F080E28C0F883040F4C77081E001C04F
:10468000880FCA95EAF70E941B06183028F581E0CA
:104690009D2F977001C0880F9A95EAF70E94140623
:1046A000802F0E940B061830F0F4D77081E001C013
:1046B000880FDA95EAF70AC080E28C0F883098F408
:1046C000C77081E001C0880FCA95EAF7DF91CF91EA
:1046D0001F910F910C941B06802FDF91CF911F919A
:1046E0000F910C940B06DF91CF911F910F910895BC
:1046F0000F939C01CB01233F4CE5340731F188F443
:10470000283DFCE53F07D9F0293D4CE5340779F118
:10471000273D3C45A9F506E221EE41EE67ED7CE53B
:104720002BC0253FFCE53F07E1F0A8F0263F3C45C4
:1047300039F507E225EE46EE66EF7CE51DC007E29F
:1047400025EE45EE68ED7CE517C006E221EE40EE71
:1047500063EF7CE511C007E225EE44EE64EF7CE5F3
:104760000BC006E221EE42EE65EF7CE505C008E2F3
:1047700021E045EE69ED7CE50E94052380E008C05C
:10478000FC018281882319F01092500201C081E05F
:104790000F910895CF93DF93EC01FB018281882371
:1047A00009F426C1C330FDE5DF0760F4CA3F9CE58C
:1047B000D90768F49E0122503C452431310508F0A8
:1047C00018C105C0C136EDE5DE0709F012C10E942F
:1047D0003A0E9093650280936402C031FCE5DF07D6
:1047E00009F4CAC008F041C0C8309CE5D90709F4F3
:1047F000A4C0F0F4C430FCE5DF0709F48CC068F411
:10480000C2309CE5D90709F482C0C330DC4509F009
:10481000E5C0809164028260DFC0C630FCE5DF073E
:1048200009F483C008F085C0809164028860D4C018
:10483000CC309CE5D90709F490C068F4CA30FCE597
:10484000DF0709F47EC008F084C00E943F08809111
:1048500064028068C1C0CE309CE5D90709F481C0EC
:1048600008F086C08091640294C0CC3FFCE5DF076D
:1048700009F47BC038F5C4319CE5D90709F49AC026
:1048800058F4C231FCE5DF0709F47AC008F07EC0B5
:10489000809164028F7BA0C0CA3F9CE5D907F1F1EB
:1048A00008F03FC0C531DC4509F098C08091640232
:1048B00082FB222720F991E0922790FB82F990FB5E
:1048C00083F98AC0C1158DE5D80709F467C050F493
:1048D00080916502CE3FECE5DE07C1F108F05BC0D8
:1048E0008D7F65C0C2308DE5D80709F471C008F42A
:1048F0006DC0C136DD4509F071C08091640284FB52
:10490000222720F991E0922790FB84F965C08091DD
:104910006402816061C08091640216C0809165026A
:1049200016C080916502826042C0809164028061FD
:1049300053C08091640280624FC0809164028064A1
:104940004BC0809164028860846046C08260816050
:104950002EC0809164028E7F3FC0809164028D7F63
:104960003BC080916402877F37C08091650214C08C
:10497000809164028F7E30C0809164028F7D2CC054
:104980000E943F08809164028F7726C08091640264
:10499000877F8B7F21C08D7F8E7F09C080916502CC
:1049A000982F909591708E7F892B90FB81F9809341
:1049B000650214C00E943F088091640287FB222791
:1049C00020F991E0922790FB87F906C081E001C0B1
:1049D00080E00E94D00E02C0809364028091640245
:1049E000909165020E944B0E0E943F0880E001C03A
:1049F00081E0DF91CF910895CF93DF9386319C457D
:104A000041F5EB010E94620D982F8A8120910001EF
:104A100030910101882379F09A7A81E009F480E0ED
:104A200080935102911102C069E201C065E3C9019E
:104A30000E94E0270AC080915102811102C069E200
:104A400001C065E3C9010E94E2270E94B40D80E025
:104A500001C081E0DF91CF9108958EE14A9B02C0B1
:104A60008150E1F74A9BFECF08955A9880E28A95DB
:104A7000F1F75A9A0895FC012AE02A95F1F728E007
:104A800090E080E031E040E14A95F1F7880F4A9BE1
:104A900002C08160932700C0000040E14A95F1F711
:104AA000215089F720E12A95F1F729B100C00000D3
:104AB00030E13A95F1F722FB222720F99227208155
:104AC000920F90830895EF92FF920F931F93CF93CD
:104AD000DF931F92CDB7DEB719828C017C01E60E01
:104AE000F11C0E151F0551F00E942D25CE010196D7
:104AF0000E943B25F80181938F01F3CF81E09981DA
:104B0000911180E00F90DF91CF911F910F91FF9055
:104B1000EF900895529A5A9A089552985A9AEA9A9A
:104B2000E9E6F0E080818F7C80830895615091E018
:104B300001C0990F6A95EAF720E031E0992361F00E
:104B4000492F482319F05A9A232701C05A9840E266
:104B50004A95F1F79695F2CF222311F05A9A01C0A7
:104B60005A9880E28A95F1F75A980895FF920F9328
:104B70001F93CF93DF93EC018C01060F111DC0171B
:104B8000D10741F0F9900E94352568E08F2D0E94F1
:104B90009625F5CFDF91CF911F910F91FF9008954A
:104BA0001F920F920FB60F921124EF92FF920F9364
:104BB0001F932F933F934F935F936F937F938F93A5
:104BC0009F93AF93BF93EF93FF93CF93DF931F9286
:104BD000CDB7DEB719820E942D25CE0101960E9425
:104BE0003B25A82FA695A695A6959A2F96959570E4
:104BF0002A2F2570920F292F237096959695920F44
:104C0000877089137CC08981811179C0A63008F032
:104C100076C080E18A95F1F75A9A529AB2E0BA9535
:104C2000F1F700C05A98EA2EF12CEAE0AE9FD001CD
:104C30001124A05FBE4F1896ED91FC911997309703
:104C4000B1F06091690170916A0116962D913C91C5
:104C50001797260F371F13968D919C911497680F05
:104C6000791F15964C91159712968C9109958AE0AB
:104C70008E9DF0018F9DF00D1124E05FFE4F658148
:104C8000662351F08091690190916A0126813781F4
:104C9000820F931F0E94B6250E943525F0E1FA95F8
:104CA000F1F75A9852985A9A80E18A95F1F78AE07A
:104CB0008E9D80018F9D100D1124005F1E4FD80125
:104CC00012966C911297662399F0809169019091E8
:104CD0006A0113962D913C911497820F931F0E94A5
:104CE0006325D801ED91FC91811105C082E004C0DB
:104CF000D801ED91FC9188E080830E942D250F90D2
:104D0000DF91CF91FF91EF91BF91AF919F918F91E3
:104D10007F916F915F914F913F912F911F910F91D3
:104D2000FF90EF900F900FBE0F901F9018950F936C
:104D30001F93CF93DF93863091050CF0A9C02AE032
:104D4000289FF001299FF00D1124E05FFE4F208184
:104D50003181232B09F49CC0EC01F894529A5A98A3
:104D600085E08A95F1F700008C2F869585709C2F41
:104D70009570890F982F9370869586958E0123E004
:104D8000000F111F2A95E1F7890F082B0E94352586
:104D9000A4E0AA95F1F700C068E0802F0E94962554
:104DA000B0E1BA95F1F752985A9A4A9902C000C0F8
:104DB000FCCF87E090E04A9B17C0019799F4529A84
:104DC0005A9A8AE08C9FF0018D9FF00D1124E05FCC
:104DD000FE4F0190F081E02D81E08083789481E0A6
:104DE00090E058C000C0E7CF8AE08C9F80018D9F83
:104DF000100D1124005F1E4FF80165816623B9F084
:104E00008091690190916A0126813781820F931FF9
:104E10000E94632581110BC0529A5A9AD801ED91D4
:104E2000FC9182E08083789482E090E033C00E941D
:104E30002D25B0E2BA95F1F75A98529AE0E1EA9539
:104E4000F1F78AE08C9FF0018D9FF00D1124E05F57
:104E5000FE4F6281662351F08091690190916A0151
:104E600023813481820F931F0E94B6250E9435252D
:104E70008AE08C9FF0018D9FF00D1124E05FFE4FC2
:104E80000190F081E02D1082789480E090E002C0E3
:104E900084E090E0DF91CF911F910F91089590935E
:104EA00058028093570208950E94F413811103C0A1
:104EB000809152020895E0915702F0915802309784
:104EC00021F00190F081E02D099480E00895E091B7
:104ED0005702F0915802309721F00280F381E02DC3
:104EE00009940895209155023091560228173907E8
:104EF00071F09093560280935502E0915702F09121
:104F00005802309721F00680F781E02D099408952A
:104F100020915302309154022817390771F0909371
:104F2000540280935302E0915702F0915802309757
:104F300021F00084F185E02D09940895FC0132965A
:104F400097E080E0915029F021912223D9F38F5FDF
:104F5000F9CF0895662349F0FC0132960896219115
:104F6000621729F0E817F907D1F780E0089581E08A
:104F700008959C01FC0132969FEF80E04191461715
:104F800089F09F3F19F4411101C0982F8F5F86303F
:104F9000A9F79F3F39F0F901E90FF11D97FDFA9547
:104FA0006283089508959C012A5F3F4FFC0142816E
:104FB000461301C01282019682179307B9F708952C
:104FC0000C94B9270C94D327029626E0FC01119289
:104FD0002A95E9F708951092AE021092AF0210924E
:104FE000B0021092B1020895CF92DF92EF92FF9239
:104FF0006B017C010E94F41381110EC00E94CD2828
:10500000C61AD70AE80AF90AC092AE02D092AF02D5
:10501000E092B002F092B102FF90EF90DF90CF905B
:1050200008950F931F930E94F413882321F01F917A
:105030000F910C94CD280E94CD280091AE021091C2
:10504000AF022091B0023091B102600F711F821F38
:10505000931F1F910F9108950E94F41381110C94D6
:10506000C1280E941128CB010895089508950C9439
:1050700036280C943628CF930E9439280E94691351
:105080000E943728C0E08C2F0E94EB11811104C0D0
:10509000CF5FC830C1F701C081E0CF9108950C9473
:1050A00036280C944F288091BA02843059F10E941E
:1050B000512880E00E94B4040E94BF1B1092590244
:1050C00020E488E190E00FB6F894A8958093600002
:1050D0000FBE2093600083B7817F846083BF83B756
:1050E000816083BF7894889583B78E7F83BF0FB626
:1050F000F894A89580916000886180936000109278
:1051000060000FBE08950C9436280E943F080E944C
:1051100054270E94B4040E948B1C0C9483281F9275
:105120000F920FB60F9211248F939F93AF93BF935B
:1051300080915902811113C08091B2029091B30203
:10514000A091B402B091B5024196A11DB11D80930A
:10515000B2029093B302A093B402B093B502BF9190
:10516000AF919F918F910F900FBE0F901F90189548
:1051700082E084BD93E095BD9AEF97BD80936E0069
:1051800008952FB7F8948091B2029091B302A09144
:10519000B402B091B5022FBF08952FB7F894609173
:1051A000B2027091B3028091B4029091B5022FBF08
:1051B00008959C014FB7F8948091B2029091B30288
:1051C000A091B402B091B5024FBF821B930B08951A
:1051D000CF92DF92EF92FF922FB7F894C090B20275
:1051E000D090B302E090B402F090B5022FBFA701B7
:1051F0009601261B370B480B590BCA01B901FF90CA
:10520000EF90DF90CF90089578941F920F920FB691
:105210000F9211248F939F93AF93BF938091B2020B
:105220009091B302A091B402B091B5020196A11D74
:10523000B11D8093B2029093B302A093B402B093D5
:10524000B502BF91AF919F918F910F900FBE0F90BC
:105250001F90189587E797E79093010880930008BF
:105260009AE088E10FB6F894A895809360000FBE8D
:1052700090936000FFCF9093A1018093A0010895C7
:105280008091620208950895CF93DF9321E02093E7
:10529000E9002FEF3091E800215035FD06C035EDD3
:1052A0003A95F1F700002111F5CF2091E80025FF94
:1052B00014C0EC0140E050E068E070E00E946A2B0E
:1052C0008091E8008E778093E80088E0FE01AAE5EF
:1052D000B2E001900D928A95E1F7DF91CF910895A8
:1052E00008950895CF93603219F52091BA022430C1
:1052F000F9F4C091E900CF703091EC00232F2170B8
:1053000030FD20E8C22B22E02093E9002091E80044
:1053100020FF0BC040E050E060E270E00E946A2B8A
:105320008091E8008E778093E800CF70C093E90009
:10533000CF9108958091B902811109C00E94462D34
:105340000E94A32D8091E20084608093E200089582
:105350001092B902089508950895089542E061EC0D
:1053600081E00E94BF2C42E261EC82E00E94BF2CEF
:1053700042E260EC83E00C94BF2C8091BC0283304D
:1053800009F460C030F4813071F0823009F499C0C2
:1053900008958A3009F485C08B3009F46BC08930D8
:1053A00009F0A7C020C08091BB02813A09F0A1C0DA
:1053B0008091E800877F8093E8008091BF02909100
:1053C000C002892B21F468E08AE592E003C060E026
:1053D00080E090E070E00E94002C8091E8008B77E4
:1053E0008093E80008958091BB02813209F081C06A
:1053F0008091BF029091C002892B09F07AC0809100
:10540000E800877F8093E8008091E80082FD05C076
:105410008091BA028111F8CF6CC02091F300809185
:10542000F20090E0922B029729F48091F1008B7F9B
:10543000813021F48091F100809362028091E80034
:105440008B7753C08091BB02813A09F052C08091A2
:10545000BF029091C002892B09F04BC08091E800F7
:10546000877F8093E8008091E80080FFFCCF8091E7
:10547000630136C08091BB028132D9F58091BF02B1
:105480009091C002892BA9F58091E800877F8093D5
:10549000E8000E94F42C8091BD02809363010C947B
:1054A0003F088091BB02813221F58091E800877F1F
:1054B0008093E8000E94F42C8091BE0280936302E6
:1054C00008958091BB02813AA1F48091E800877F22
:1054D0008093E8008091E80080FFFCCF8091630218
:1054E0008093F1008091E8008E778093E8000C941F
:1054F000F42C089584B7877F84BF0FB6F894A895DD
:1055000080916000886180936000109260000FBEFF
:1055100090E080E80FB6F89480936100909361006A
:105520000FBE0C94110F0E94462D0E94A32DE2EE97
:10553000F0E080818460808378940E9438300E94FB
:105540001F0F89E591E00C944F27CF93DF93CDB7E0
:10555000DEB7A0970FB6F894DEBF0FBECDBF809127
:10556000BA028530A9F48091BA02853079F40E949C
:1055700053288091B8028823B1F30E943B288823E6
:1055800091F30E94542B0E943F08EDCF0E94852882
:105590000E942F0F8091BA02843011F583E080932E
:1055A000E9008091E80082FF1BC08091E80085FF40
:1055B0000AC040E050E060E270E0CE0101960E9437
:1055C000B52B91E001C090E08091E8008B7780934B
:1055D000E800992329F060E2CE0101960E94AD20F7
:1055E000A0960FB6F894DEBF0FBECDBFDF91CF916E
:1055F00008950C94FB2A292F332723303105C9F055
:1056000060F42130310581F02230310509F044C0C9
:1056100082E490E023E434E043C021323105E1F03C
:105620002232310549F138C082E190E025E834E0CA
:1056300037C099278130910549F028F0029761F52C
:10564000EFE1F4E005C0EFE3F4E002C0E3E3F4E0EF
:10565000849190E09F0124C06115710541F0613093
:105660007105D1F489E090E02EE634E019C089E0BC
:1056700090E025E534E014C06115710541F061301A
:10568000710551F482E290E027E934E009C080E43A
:1056900090E029EB34E004C080E090E020E030E0CE
:1056A000FA0131832083089580E189BD82E189BDBB
:1056B00009B400FEFDCF8091D8008F7D8093D80083
:1056C0008091E00082608093E0008091E00081FDA5
:1056D000FCCF0895CF92DF92EF92FF920F931F932A
:1056E000CF93DF93EC018B017A010E94132D81117E
:1056F00033C0E114F10439F0F70180819181081B76
:10570000190BC80FD91FC12CD12C0115110519F186
:105710008091E80085FD16C08091E8008E77809327
:10572000E800E114F10449F0F70180819181C80E8D
:10573000D91ED182C08285E00FC00E94132D88231C
:1057400021F30AC089918093F10001501109FFEF04
:10575000CF1ADF0ADACF80E0DF91CF911F910F914E
:10576000FF90EF90DF90CF900895CF92DF92EF926D
:10577000FF920F931F93CF93DF93EC018B017A017C
:105780000E94132D811133C0E114F10439F0F701A7
:1057900080819181081B190BC80FD91FC12CD12CF6
:1057A0000115110519F18091E80085FD16C0809161
:1057B000E8008B778093E800E114F10449F0F701E9
:1057C00080819181C80ED91ED182C08285E00FC030
:1057D0000E94132D882321F30AC08091F100899340
:1057E00001501109FFEFCF1ADF0ADACF80E0DF9115
:1057F000CF911F910F91FF90EF90DF90CF90089580
:105800002091C1023091C2022617370748F0611576
:10581000710539F42091E8002E772093E80001C04B
:10582000B901FC0120E06115710579F18091BA029E
:105830008823F1F18530F1F18091E80083FD3CC0CF
:105840008091E80082FD2EC08091E80080FFEBCFC0
:105850002091F3008091F20090E0922B6115710588
:1058600051F08830910538F421912093F100615076
:1058700071090196F3CF21E0089709F020E08091AB
:10588000E8008E778093E800CECF2111CFCF0AC0F9
:105890008091BA02882361F0853061F08091E80040
:1058A00083FD0AC08091E80082FFF2CF80E0089576
:1058B00082E0089583E0089581E008952091C10277
:1058C0003091C2022617370748F06115710539F487
:1058D0002091E8002E772093E80001C0B901FC0177
:1058E00020E06115710591F18091BA02882309F4D5
:1058F00040C0853009F43FC08091E80083FD3DC081
:105900008091E80082FD2FC08091E80080FFE9CF00
:105910002091F3008091F20090E0922B61157105C7
:1059200059F08830910540F424912093F10031968C
:10593000615071090196F2CF21E0089709F020E04B
:105940008091E8008E778093E800CBCF2111CCCFF7
:105950000AC08091BA02882361F0853061F080919D
:10596000E80083FD0AC08091E80082FFF2CF80E06A
:10597000089582E0089583E0089581E00895982FC6
:10598000973068F59093E900981739F07091EC0022
:105990002091ED005091F00003C0242F762F50E0AD
:1059A00021FD02C09F5FECCF3091EB003E7F309332
:1059B000EB003091ED003D7F3093ED003091EB0036
:1059C00031603093EB007093EC002093ED00509326
:1059D000F0002091EE0027FDE5CF80E008958F7064
:1059E0008093E90081E008958091BB0287FF11C098
:1059F0008091E80082FD05C08091BA028111F8CF44
:105A000011C08091E8008B770BC08091BA02882387
:105A100049F08091E80080FFF8CF8091E8008E7710
:105A20008093E80008952091E4003091E50095E628
:105A30004091EC00842F817040FF23C08091E800EA
:105A400080FD1DC08091BA02882399F0853099F0BD
:105A50008091EB0085FD11C04091E4005091E5007C
:105A60002417350729F3915011F09A01E1CF84E012
:105A7000089582E0089583E0089581E0089580E02C
:105A800008954091E80042FFDDCF08950E94B42DB3
:105A90000E94BC2DE0EEF0E0808181608083E8ED23
:105AA000F0E080818F77808319BCA7EDB0E08C9106
:105AB0008E7F8C9380818F7E80831092B9020895AF
:105AC0000F931F93CF93DF930E94B42D0E94BC2DA0
:105AD000C8EDD0E088818F7788838881806888834B
