:100000000C948C010C94D3010C94D3010C94A21D7C
:100010000C94D3010C94D3010C94D3010C94D30110
:100020000C94D3010C94D3010C9432250C94042627
:100030000C9462200C94D3010C94D3010C94D30142
:100040000C94D3010C94D3010C94D3010C94D301E0
:100050000C94D3010C94D7200C94D3010C94D301AD
:100060000C94D3010C94D3010C94D3010C94D301C0
:100070000C94D3010C94D3010C94D3010C94D301B0
:100080000C94D3010C94D3010C94D3010C94D301A0
:100090000C94D3010C94D3010C94D3010C94D30190
:1000A0000C94D3010C94D3010C94D301F804F804FC
:1000B0002A052A0577059505B606B606A005350674
:1000C00046064606A606B606B606AF0664076407E9
:1000D000760776076D077607760776076407640765
:1000E000720776077607720771269826902798265A
:1000F0009027E426072790275E276D27140021000C
:1001000020001F001E000400130012000C00180045
:100110001D0028000F000E000D00E000E500370074
:10012000360010001A000800150017001C00160009
:10013000070009000A000B001B000600190005005B
:100140001100E3002C412C42E2002A001E00210095
:1001500020001F001E001E0227002600250024008C
:100160005700270226022502240229002D123012F0
:100170002F1289001F0020002100220023001F02EF
:10018000200221022202230256005500540067007B
:10019000350049002C412D00E2002A003A002100E0
:1001A00020001F001E001F024300420041004000CB
:1001B000C35C2E004F00520051002B003100300074
:1001C0002F00CA5C3B003C003D003E003F00310078
:1001D0003300331234005000C45CC65CC75CC85C9A
:1001E000C95C49002D122C42E2002A001203630070
:1001F0006F006F006C0035003300360072000000A5
:100200000A036D002E006B0069000000040309045E
:1002100009023B00020100A0FA09040000010301E9
:100220000100092111010001224000070581030896
:10023000000A090401000103000000092111010066
:1002400001227B000705820320000A120100020040
:10025000000008434D3705010001020001050109B6
:1002600002A10185020901A100050919012908154A
:100270000025019508750181020501093009311534
:1002800081257F95027508810609381581257F959E
:100290000175088106050C0A38021581257F950134
:1002A00075088106C0C005010980A10185031901F7
:1002B0002AB700150126B700950175108100C00509
:1002C0000C0901A101850419012AA002150126A02B
:1002D00002950175108100C005010906A1010507FD
:1002E00019E029E71500250195087501810295019E
:1002F000750881010507190029FF150026FF0095E3
:1003000006750881000508190129059505750191F3
:1003100002950175039101C011241FBECFEFDAE0F1
:10032000DEBFCDBF04B603FE27C08091D2029091FC
:10033000D302A091D402B091D5028730904BA74050
:10034000B04BD1F41092D2021092D3021092D40288
:100350001092D50214BE84B7877F84BF0FB6F8947D
:10036000A895809160008861809360001092600081
:100370000FBEE0E0F8E3099511E0A0E0B1E0ECEB9E
:10038000F0E502C005900D92A23DB107D9F722E039
:10039000A2EDB1E001C01D92A23DB207E1F70E94BB
:1003A0009F160C945C280C940000811106C06623F3
:1003B00011F082E507C081E505C0813041F4662374
:1003C00021F080E50E94AE0417C08FE4FBCF82309D
:1003D00041F4662319F087E591E00CC086E591E0D1
:1003E00009C0833049F4662319F089EF90E002C018
:1003F0008AEF90E00E945E0281E008959C013A95A8
:1004000021153F4130F5BC0166277270AC014427CD
:1004100054709C012227387094FF0FC090FF02C0D7
:1004200080E101C080E0672B09F08062452B09F074
:100430008064232B79F080680895892F8170672B61
:1004400009F08260452B09F08460232B19F0886045
:10045000089580E00895CF93DF93EC01805E9109C9
:10046000089710F0209731F4CE010E94FE010E94FF
:10047000B70405C0CE010E94FE010E942A078C2FFE
:10048000DF91CF910C948503CF93DF93EC010E9411
:100490002F04CE01805E9109089710F0209739F45F
:1004A000CE010E94FE01DF91CF910C94BE04CE01DB
:1004B0000E94FE01DF91CF910C943107CF93DF931F
:1004C000EC010E942B02CE01DF91CF910C944402EB
:1004D00081E0089581E008950C946A0208950C94D7
:1004E0006E021F93CF93DF9300D000D01F92CDB741
:1004F000DEB749835A836B833091D40189819A8115
:10050000311114C0662359F0222349F00E940A09D0
:10051000182F682F89819A810E94B10803C00E9418
:10052000DD08182F69817A81812F04C00E940A0991
:1005300069817A810F900F900F900F900F90DF914B
:10054000CF911F910C94A90FFC01262F408151815E
:100550006281738184810C94710281E00895CF934C
:10056000DF93EC0160E00E94A402BE01DF91CF9115
:100570000C946F020E94D6110E942B030C9410124F
:100580000C940C1208950E9452070E94C2022FEF91
:1005900084E39CE0215080409040E1F700C00000DF
:1005A0000C94FD200F931F93CF93DF938C0161E098
:1005B0000E94A402EC01B8010E946C028823F1F1B0
:1005C000B801CE010E944A1B8823C1F1B801CE01B7
:1005D0000E949C1B882391F1B801CE010E94CE1C81
:1005E000882361F1F8018281882309F1CB358DE5FB
:1005F000D807C1F050F4C115FCE5DF0781F0CF3D0D
:10060000DC45A9F40E94A50E19C0CC35EDE5DE0746
:1006100061F0CD35DD4559F40E94290D08C00E94D6
:10062000C3020CC00E94320D02C00E94350DC801E9
:10063000DF91CF911F910F910C94680280E0DF91C0
:10064000CF911F910F91089508950C94240381E098
:1006500008950C9427030895CF93C82F0E94250373
:100660008C2F0E942903CF910895CF93DF93CDB7AC
:10067000DEB72B970FB6F894DEBF0FBECDBF4F830A
:10068000588769877A878B8761110E94580D9E0170
:100690002F5F3F4F86E0F90111928A95E9F785E0D7
:1006A000FE013796D90101900D928A95E1F7898173
:1006B0009A814C815D81452B31F09F3F31F491E06F
:1006C0008F3F19F403C091E001C090E090FF09C092
:1006D00049815A816B817C818D819E810E94580C59
:1006E00005C0C9010E94AD028111F2CF2B960FB651
:1006F000F894DEBF0FBECDBFDF91CF910895FC010E
:10070000808191810E944C090895CF93882309F438
:10071000A4C0C82F8238C1F40E94261F81FD9DC04D
:1007200069E380910001909101010E94C01F0E9425
:100730008A0D2FEF81EE94E0215080409040E1F748
:1007400000C0000069E319C0833801F50E94261F2C
:1007500080FD83C063E580910001909101010E94BA
:10076000C01F0E948A0D2FEF81EE94E0215080403F
:100770009040E1F700C0000063E580910001909196
:1007800001010E94C21FCF910C948A0D8438C1F4DC
:100790000E94261F82FD61C067E480910001909154
:1007A00001010E94C01F0E948A0D2FEF81EE94E08C
:1007B000215080409040E1F700C0000067E4DDCFA9
:1007C0008CEF8C0F813AD0F46C2F809100019091C6
:1007D00001010E948A1F882349F06C2F809100013B
:1007E000909101010E94C21F0E948A0D6C2F80917E
:1007F0000001909101010E94C01FC5CF80E28C0FC3
:10080000883048F4C77081E001C0880FCA95EAF7C4
:100810000E943B0DB8CFEBE5EC0FE33040F4F0E085
:10082000E457FE4F808190E0CF910C94521FE8E591
:10083000EC0FE73150F4F0E0EE0FFF1FE25AFE4FED
:1008400080819181CF910C94681FCD3E30F08C2F28
:100850000E942C17CF910C94FE17CF9108958823F6
:1008600009F464C0823879F40E94261F81FF5EC0BB
:1008700069E380910001909101010E94C01F0E94D4
:100880008A0D69E310C08338B1F40E94261F80FFEF
:100890004DC063E580910001909101010E94C01F4D
:1008A0000E948A0D63E580910001909101010E94F0
:1008B000C21F0C948A0D843879F40E94261F82FF8F
:1008C00035C067E480910001909101010E94C01F32
:1008D0000E948A0D67E4E7CF9CEF980F913A10F4DD
:1008E000682FE1CF90E2980F983050F4877091E034
:1008F00001C0990F8A95EAF7892F0E94410DD9CF3F
:100900009BE5980F933020F480E090E00C94521F08
:1009100098E5980F973120F480E090E00C94681FE0
:100920008D3E20F00E9487170C94FE1708951F93A8
:10093000CF93DF93182FEB010E948503209741F09E
:100940008FE99FE00197F1F700C000002197F6CFF3
:10095000812FDF91CF911F910C942F04893319F0CF
:1009600060E070E002C060E570E00C9497048823BA
:1009700021F00E943B0D0C948A0D0895882321F0EC
:100980000E94410D0C948A0D0895CF92DF92EF9250
:10099000FF920F931F93CF93DF937C01062FC72FF6
:1009A000FC01D281158112951F700E94100D8823C1
:1009B00099F0DD2389F08C2F807F803421F080E254
:1009C000800F883048F082E00E94DA0D0E94100DFE
:1009D00091E0D82ED92601C0D12CCC2EC2948FE024
:1009E000C8228C2D90E0FC01EA5AFF4F0C94EA27B4
:1009F0008C2F807FCF70882311F0C295C07FDD23BC
:100A000099F0CC2309F48DC180E2800F883010F07A
:100A1000011104C08C2F0E943B0D03C08C2F0E943B
:100A20004B0D0E948A0D7DC1802F0E942F04CC2384
:100A300009F49CC180E2800F883010F0011104C0DD
:100A40008C2F0E94410D03C08C2F0E94510D0E94DB
:100A50008A0D8CC18C2F807FCF70803211F0C295AF
:100A6000C07F002319F00130C9F022C0DD2371F0EE
:100A7000112341F0113031F40E946B0D8C2B0E9438
:100A8000730D74C10E946B0D8C2B1DC0112319F0C6
:100A9000113009F46BC10E94800D25C0DD2321F0C7
:100AA000163008F063C10EC0153008F05FC11BC0DE
:100AB000DD2361F0112331F0F701858180FF31C121
:100AC0008F7085838C2F0E94B70450C1112359F079
:100AD000093309F037C1FFEF27EE83E0F1502040E2
:100AE0008040E1F72DC18C2F0E94BE043FC18C2FA6
:100AF00086958695837019F0813061F037C1DD23CA
:100B000021F0802F9C2F937002C080E090E00E9423
:100B1000521F34C1DD2321F0802F9C2F937002C01F
:100B200080E090E00E94681F29C1802FDD2319F02A
:100B30000E942C1702C00E9487170E94FE171EC138
:100B40008C2F837009F045C0D11114C1402F4295FC
:100B500046954770440F440F602F6F70862F90E0CA
:100B6000A0E0B0E0042E04C0880F991FAA1FBB1F8D
:100B70000A94D2F704FF10C00FE010E020E030E04C
:100B800004C0000F111F221F331F4A95D2F7009592
:100B900010952095309503C000E010E09801C695AF
:100BA000C695C370BC01CD01602B712B822B932B9A
:100BB000C23049F058F4C13019F00E94C707DAC0BA
:100BC0000E94B507D7C00E94D907D4C00E94B307BE
:100BD000D1C0DD2319F08C2F817001C08695882348
:100BE00009F4C8C0402F429546954770440F440F02
:100BF000602F6F70862F90E0A0E0B0E0042E04C05C
:100C0000880F991FAA1FBB1F0A94D2F704FF10C0B8
:100C10000FE010E020E030E004C0000F111F221FA1
:100C2000331F4A95D2F7009510952095309503C053
:100C300000E010E09801C695C695C370BC01CD01D7
:100C4000602B712B822B932BC23049F058F4C130AA
:100C500019F00E948C088EC00E947A088BC00E94F6
:100C60009E0888C00E94ED0785C0CF70DD2339F053
:100C70008C2F0E941308802F0E94B7047BC0802F06
:100C80000E94BE048C2F0E94340874C0023F01F100
:100C900028F4003F41F0013FA1F03FC0033FF9F0CD
:100CA000043F39F13AC0DD2341F0153008F05EC051
:100CB0008C2F8F710E94590859C0163008F056C009
:100CC000F7CFDD2339F08C2F8F710E9413084EC0AF
:100CD000DD23C9F38C2F8F710E94340847C0DD23B8
:100CE00029F08C2F8F710E94FE0740C00E94F907E7
:100CF0003DC0DD2349F0CF718C2F0E94130863E0C3
:100D00008C2F0E94BF0D32C081E00E94DA0D12309C
:100D100068F182E00E94DA0D29C0DD2331F0112351
:100D200091F2802F0E94850321C0112399F209338B
:100D300049F49FEFE7EEF3E09150E040F040E1F737
:100D400000C00000802F0E942F0410C04C2F4F7055
:100D5000602FC7010E94A50F0E947A090FC04C2F77
:100D60004F70602FC7010E94A80F08C088EF8C0D3C
:100D7000843020F40E94261F0E942C03DD20C9F03D
:100D80000E940C0D80FD15C0F70112820E94060D15
:100D90000E941308C7010E94FA060E94060DDF9107
:100DA000CF911F910F91FF90EF90DF90CF900C9417
:100DB0003408DF91CF911F910F91FF90EF90DF905A
:100DC000CF9008950F931F93CF93DF93EC01688129
:100DD00079818A810E9457098C010E94B0080E9483
:100DE000A107B801CE010E94C504DF91CF911F91E8
:100DF0000F910895CF93DF93EC01988189812B8126
:100E00003C81232B31F08F3F31F481E09F3F19F477
:100E100003C081E001C080E080FD19C0CE010E94C6
:100E2000D20281110CC00E94100D882381F08A81AA
:100E3000882369F082E0DF91CF910C94DA0DCE0126
:100E40000E94E206CE01DF91CF910C94AF02DF91B8
:100E5000CF910895882321F00E944B0D0C948A0DA8
:100E60000895882321F00E94510D0C948A0D089555
:100E700080E090E00E94521F80E090E00E94681F96
:100E80000E94580D0E94680D0E948A0D0E942F1921
:100E90000C94FE1780910001909101010E94C41FE3
:100EA0000C9438070E94480D0C944A07E92FE295EC
:100EB000EF704E2F50E0FA013297EE30F105B0F4AA
:100EC000EA59FF4F0C94EA27803F91F018F4883ECE
:100ED00068F40EC0843F51F40BC0883E48F0813F57
:100EE00029F406C093FB882780F9089580E00895CF
:100EF00081E00895FC01808191810E944C090E944B
:100F000056070895CF93DF9300D000D01F92CDB73E
:100F1000DEB70F900F900F900F900F90DF91CF9151
:100F20000895CF93DF9300D000D000D0CDB7DEB7C7
:100F300026960FB6F894DEBF0FBECDBFDF91CF91DE
:100F40000895089508950C94A2070C94A3070E9495
:100F5000A5076093F2017093F3018093F4019093DD
:100F6000F5010C9438070C94A7070F931F93009179
:100F7000F2011091F3012091F4013091F501602B01
:100F8000712B822B932B1F910F910C94A7070F931A
:100F90001F930091F2011091F3012091F40130911F
:100FA000F50160237123822393231F910F910C94E9
:100FB000A7070F931F930091F2011091F301209165
:100FC000F4013091F50160277127822793271F9143
:100FD0000F910C94A7070C94A2070E94EB07609353
:100FE000EE017093EF018093F0019093F1010C9466
:100FF000380760E070E0CB010C94ED070F931F936E
:1010000041E050E060E070E08A019B0104C0000F05
:10101000111F221F331F8A95D2F7C901B8011F91F2
:101020000F910C94ED070F931F9341E050E060E0A7
:1010300070E004C0440F551F661F771F8A95D2F7D2
:101040008091EE019091EF01A091F001B091F1013A
:101050008A019B01082B192B2A2B3B2BC901B801B4
:101060001F910F910C94ED070F931F9341E050E0F7
:1010700060E070E004C0440F551F661F771F8A951B
:10108000D2F740955095609570958091EE019091C2
:10109000EF01A091F001B091F1018A019B010823B9
:1010A00019232A233B23C901B8011F910F910C94E6
:1010B000ED070F931F9341E050E060E070E004C043
:1010C000440F551F661F771F8A95D2F78091EE0156
:1010D0009091EF01A091F001B091F1018A019B0183
:1010E000082719272A273B27C901B8011F910F910B
:1010F0000C94ED070F931F930091EE011091EF01F7
:101100002091F0013091F101602B712B822B932BF8
:101110001F910F910C94ED070F931F930091EE0117
:101120001091EF012091F0013091F10160237123C2
:10113000822393231F910F910C94ED070F931F931C
:101140000091EE011091EF012091F0013091F10139
:1011500060277127822793271F910F910C94ED0729
:10116000089524E0929F900D1124890FE82FE695B1
:10117000E695E695877051E001C0550F8A95EAF72C
:1011800085E0E89FF0011124EB52FE4F20E030E0B3
:1011900070E04081CB01022E02C0969587950A949B
:1011A000E2F78170819584278523842781932F5FBF
:1011B0003F4F2530310569F7089524E0929F900D47
:1011C0001124890F682F669566956695982F9770FC
:1011D00085E0689FB001112440E050E080E0FB0111
:1011E000E40FF51FEB52FE4F208130E0092E02C0C4
:1011F000369527950A94E2F721703327042E01C013
:10120000220F0A94EAF7822B4F5F5F4F453051055A
:1012100031F70895BF92CF92DF92EF92FF920F9332
:101220001F93CF93DF938C01C090EE01D090EF011C
:10123000E090F001F090F1018091F2019091F301C2
:10124000A091F401B091F501C82AD92AEA2AFB2A13
:10125000CFE1D0E0D701C6010C2E04C0B695A7950A
:10126000979587950A94D2F780FD04C0219790F74F
:10127000B12C07C0BC2EB8018C2F0E94E010019742
:10128000A9F38B2DDF91CF911F910F91FF90EF90DC
:10129000DF90CF90BF900895CF93DF93EC010E9431
:1012A0000A09BE010E94E010DF91CF9108951F93BB
:1012B000CF93DF93EB019091D401992321F0CB01DF
:1012C0000E944C0913C0882349F0CB010E940A09EF
:1012D000182F682FCE010E94B10804C0CB010E94D4
:1012E000DD08182FBE01812F0E94E010DF91CF9101
:1012F0001F910895EF92FF920F931F93CF93DF9367
:101300008C01892B09F46CC0F12CEE24E394E801E4
:101310002196F8018491843740F4843008F051C05C
:10132000813081F0823019F15BC0853709F444C007
:10133000A8F19CE7980F903708F052C08F770E9471
:101340002F0441C00E5F1F4FFE01849190E2980F61
:10135000983050F48770FE2D01C0FF0F8A95EAF790
:101360008F2F0E945B0D14C00E9485032DC00E5F5D
:101370001F4FFE01849190E2980F983060F48770BF
:10138000FE2D01C0FF0F8A95EAF78F2F0E94610D95
:101390000E948A0D19C00E942F0416C00E5F1F4FB5
:1013A000FE01C491CC2381F08FE99FE00197F1F712
:1013B00000C00000C150F6CF0E5F1F4FFE01F49039
:1013C00003C00E9485038E018F2D882309F49FCFCF
:1013D000EFE9FFE03197F1F700C000008150F5CF51
:1013E000DF91CF911F910F91FF90EF9008951F9380
:1013F000CF93DF93C091F60116E08091F701C817F3
:1014000099F0D0E01C9FF0011D9FF00D1124E850D1
:10141000FE4F4081518162817381848195810E9458
:1014200091072196C770E9CFDF91CF911F91089561
:10143000409128025091290260912A0270912B025A
:1014400080912C0290912D020C9491070F931F9381
:10145000CF93DF9380912D0282958F7009F05DC04C
:1014600080912A02882309F458C08091F6011091D6
:10147000F7016091280270912902C0912B02D0914E
:101480002C0291E06F3F09F090E0292F06E08117D0
:1014900009F443C0209721F07F3F21F030E003C0E2
:1014A00031E001C0322F90E030FD34C0089FF001E0
:1014B000099FF00D1124DF01A850BE4F11963C91F9
:1014C0001197371327C03C91361324C012963C91D4
:1014D000129731111FC013964D915C9114974C1BBC
:1014E0005D0B483C5105B0F480912D028F708061F6
:1014F00080932D02E350FE4F80818F708061808346
:1015000088E292E00E94FA06DF91CF911F910F913D
:101510000C94F70901968770BACFDF91CF911F9194
:101520000F9108959F92AF92BF92CF92DF92EF9268
:10153000FF920F931F93CF93DF93CDB7DEB76197E1
:101540000FB6F894DEBF0FBECDBF8C0185E0F80169
:10155000DE011D9601900D928A95E1F7F801E28077
:10156000909128026091290220912B0230912C0247
:101570002115310531F06F3F31F481E09F3F19F4BF
:1015800003C081E001C080E0F82FF1709F2E80FD44
:101590003FC1F80140815181A380B48088E2C82E08
:1015A00082E0D82EF0902A02F501E21BF30BFF2017
:1015B00009F4D9C080912D02E83CF10508F095C0EE
:1015C000282F207F09F052C0561313C0491311C0B1
:1015D000FE2CE1100EC08F70806180932D020E945E
:1015E000180AC6010E94FA0680912D02F80185832F
:1015F0004CC1AB2831F05F3F31F481E04F3F19F42B
:1016000003C081E001C080E080FD03C081E08E2541
:1016100002C080E090E0F82FF170FF2E80FF1CC028
:101620008091F6012091F70136E0821709F40BC191
:1016300090E0389FF001399FF00D1124E850FE4FE3
:101640006181561306C06081461303C06281E612B1
:1016500003C001968770E9CFFE2CEE2009F415C176
:1016600080912D02816080932D0254C0561306C0D4
:10167000491304C0E11002C0F80199C0C8010E94DA
:101680007A07882361F1EE2051F120912D02822FFB
:1016900082958F7090E0029774F08091280290916B
:1016A000290298878F831986BB86AA862C87CE014C
:1016B00007960E94FA0686E0F801A8E2B2E00190DF
:1016C0000D928A95E1F70E94260A0E94180A0AC024
:1016D000561711F1C8010E947A0781112CC0C80168
:1016E0000E94FA06FF24F394D0C0282F207F81F7B0
:1016F0007A2DB98AA88A6E2D89890E94820788E28C
:1017000092E00E94FA0686E0F60111928A95E9F7C6
:101710000E94180AF12CB9C04913DCCFE110DACFCE
:10172000F8018583C8010E94FA0686E0F60111924D
:101730008A95E9F7AAC0EE2091F220912D02822F1E
:1017400082958F7090E002970CF4B5CF80912802BB
:10175000909129029A8389831B82BD82AC822E8359
:10176000CE010196A6CFE83CF10508F044C0FE2C5E
:10177000EE2009F4B4CF561330C049132EC0209187
:101780002D0220FD21C0822F82958F70482F50E0BE
:1017900041155105C9F0F80125834F30510541F03D
:1017A0008F5F982F9295907F822F8F70892B8583E2
:1017B000C8010E94FA0686E0F801A8E2B2E00190B2
:1017C0000D928A95E1F73CC086E0F801A8E2B2E00C
:1017D00001900D928A95E1F758C0C8010E947A07DE
:1017E000811169CF80912D02816080932D02C80103
:1017F0000E94FA064AC07A2DB98AA88A6E2D898974
:101800000E94820786E0F60111928A95E9F718C0D6
:10181000EE2009F464CFC8010E947A07F82E8823CD
:1018200009F45DCF86E0F801A8E2B2E001900D92E4
:101830008A95E1F788E292E00E947F030E94260ADF
:101840000E94180A22C04D875E878D859E850E9462
:101850004C09292F22952F70223028F49F7039F0DF
:10186000811105C00BC0243028F49F7049F4805EBC
:10187000883020F0C8010E94FA069F2CF92C05C080
:10188000F8019581907F99F7F9CF8F2D61960FB66A
:10189000F894DEBF0FBECDBFDF91CF911F910F91A6
:1018A000FF90EF90DF90CF90BF90AF909F90089502
:1018B0001F93CF93DF93CDB7DEB72C970FB6F89475
:1018C000DEBF0FBECDBF4F83588769877A878B876E
:1018D0009C87CE0107960E94920A8823D1F09F81AF
:1018E00088852A853B85232B31F08F3F31F481E0B9
:1018F0009F3F19F403C081E001C080E080FD47C034
:101900004F81588569857A858B859C850E949107D2
:101910003EC086E0FE013796DE01119601900D92E1
:101920008A95E1F7FF81E8856A857B8561157105F8
:1019300031F0EF3F31F481E0FF3F19F403C081E063
:1019400001C080E080FD23C02091F70130E0C90193
:101950000196877099274091F60150E0841795070A
:10196000F1F1F983EA837D836C8396E0929FD00145
:10197000939FB00D1124A850BE4FFE0131960190E7
:101980000D929A95E1F78093F7010E94F70916E00E
:101990008091F6019091F701891771F1189FC001AC
:1019A000112488509E4F0E94920A882329F1E091C9
:1019B000F6011E9FF0011124E850FE4F4081518135
:1019C00062817381848195810E9491078091F601E3
:1019D00090E00196877099278093F601D9CF0E94F5
:1019E00052071092F7011092F601E8E2F2E086E069
:1019F000DF011D928A95E9F72C960FB6F894DEBFA9
:101A00000FBECDBFDF91CF911F91089580912E021F
:101A1000859585958595089580912E028770089506
:101A200090912E02977081E009F480E008959091E2
:101A3000A90292FB222720F9281751F080FB92F986
:101A40009093A9028091A8029091A9020C94210E72
:101A500008958091A90282FB882780F991E0892767
:101A60000C94170D81E00C94170D80E00C94170D69
:101A700080913A02089590913A02892B80933A021C
:101A80000895809590913A02892380933A020895AF
:101A900010923A02089590913902892B809339026D
:101AA0000895809590913902892380933902089591
:101AB00010923902089590913802892B8093380250
:101AC0000895809590913802892380933802089573
:101AD00010923802089580912F02089508950C9471
:101AE0006E0D0C946F0D9091A90292FD08C090911B
:101AF0002F02981721F080932F020C94710D0895F6
:101B000080912F02882329F010922F0280E00C94FC
:101B1000710D0895E0910001F091010180913A0268
:101B20008083E0910001F091010190818091390260
:101B3000892B8083E0910001F091010190818091D7
:101B40003802892B808380912F02882381F0E091D5
:101B50000001F09101019081892B80838091000127
:101B6000909101010E947E1F81110E94800D809141
:101B70000001909101010C94391F0C946E0D90910D
:101B8000A90292FD10C098E0899F90011124262B94
:101B900020932E020E94130880912E028595859530
:101BA00085950C94BD0D0C94130810922E0280E0C4
:101BB0000C94BD0D20912E028095822380932E02DD
:101BC000982F977041F430E0482F082E000C550BE9
:101BD0002417350721F49091A90292FF07C085953B
:101BE000859585950E9434080C94D50D08956FEF66
:101BF0007FEF80E090E00C94462880E090E00E9427
:101C0000222821E0893E9E4F09F020E0822F08958E
:101C100082E090E00C941A2883E090E00C941A285B
:101C2000CF9384E090E00E941A28C82F82E290E0CF
:101C30000E941A282C2F30E0A901582BCA01CF91FD
:101C40000895CF93C92F682F84E090E00E94282840
:101C50006C2F82E290E0CF910C942828AB01BC015C
:101C60008FE090E00C943A28AB01BC0183E190E056
:101C70000C943A2860E070E0CB010C94340E60E0E4
:101C800070E0CB010E942E0E0C943A0E69EE7EEFAE
:101C900080E090E00E94462860E082E090E00E94B0
:101CA000282860E083E090E00E9428281092F2014A
:101CB0001092F3011092F4011092F50160E084E0BB
:101CC00090E00E94282860E082E290E00E942828AC
:101CD00060E085E090E00E94282860E086E090E0E7
:101CE0000E9428286FEF87E090E00E94282840E0BB
:101CF00050E0BA0188E090E00E943A2860E08DE070
:101D000090E00E94282840E050E0BA0188E190E08D
:101D10000E943A2860E087E190E00E94282840E095
:101D200050E0BA018CE190E00E943A2860E070E057
:101D300080E290E00E94462840E050E0BA0188E14D
:101D400090E00E943A280C943F0E0C94460E682FA7
:101D50008EE090E00C9428280E94A02060934C0212
:101D600070934D0280934E0290934F02609348020D
:101D70007093490280934A0290934B0208950E9407
:101D8000A02060934C0270934D0280934E0290937A
:101D90004F026093440270934502809346029093F1
:101DA0004702089585B7806885BF85B7806885BF7D
:101DB00008950C94031408950C94DB0E0C94DB0E20
:101DC0000C94DE0E0C94DB0E0C94E20E0C94DB0EE5
:101DD0000E94D20E8CEB91E10E940E210E94E60E31
:101DE0000C94E40E0E94DC0E0C94DB0E0E948B20FF
:101DF0000E94CB1F0E94C0120E94BF1A0E943F196E
:101E00000C94E00E9F92AF92BF92CF92DF92EF922E
:101E1000FF920F931F93CF93DF93CDB7DEB72A972F
:101E20000FB6F894DEBF0FBECDBF0E9478138111AC
:101E30000E94AC0E8CE3A82E82E0B82E00E010E0E9
:101E4000902E802F0E94FA11D82EF501C1905F01CB
:101E5000C826B1F40F5F1F4F0830110589F78FEFC7
:101E600089838A831B820E9494208160782F9D83BE
:101E70008C8349815A816B818D810E9435032FC0EB
:101E80008091500281FD0E940012E12CFF24F39406
:101E90008C2D8F21F1F00E94D90E882399F0EE82CB
:101EA0009F82DF2081E009F480E088870E949420EF
:101EB0008160782F9A8789874E815F8168858A85BE
:101EC0000E943503F801E45CFD4F8081F826F08222
:101ED00006C0E394FF0CF5E0EF12DACFBBCF0E940F
:101EE000C01981110E94BF0E0E941C180E94261F5B
:101EF00090913B028917B9F00E94261F80933B0204
:101F00002A960FB6F894DEBF0FBECDBFDF91CF91FA
:101F10001F910F91FF90EF90DF90CF90BF90AF9007
:101F20009F900C942C032A960FB6F894DEBF0FBE38
:101F3000CDBFDF91CF911F910F91FF90EF90DF9078
:101F4000CF90BF90AF909F90089580E090E008956B
:101F5000089528E2829FC0011124FC0125E0729FB0
:101F6000E00DF11D1124E60FF11DEE0FFF1FE450EF
:101F7000FF4F859194910895880F991FFC01E451BA
:101F8000FE4F859194910895CF93DF930E94E510C1
:101F9000EC01811520E5920708F03FC0811540E46F
:101FA000940708F0D2C0883E910500F5803E910567
:101FB00008F002C1883A910570F4853A910508F05D
:101FC000A6C08130910509F49FC008F4F2C00497BF
:101FD00008F0F2C0EEC08F3B910508F4A1C0803C30
:101FE000910508F4E6C0805C9109A5C0811550E216
:101FF000950760F4C11581E0D80708F0DDC0CD3E3B
:10200000D10508F4D6C0CE019065D7C0811520E374
:10201000920708F093C09F708EC0811545E5940724
:1020200008F046C0811554E5950708F0A6C0C11513
:1020300082E5D80718F5C11521E5D20708F088C058
:10204000CE01F4E096958795FA95E1F7282F237055
:102050003C2F337081E090E002C0880F991F3A95C1
:10206000E2F79C68922B2C2F2F702695269540E244
:10207000249F90011124822B932B9FC09E012370DB
:1020800033279C2F96959695C115D34508F065C0CA
:1020900041E050E002C0440F551F2A95E2F780E26C
:1020A000989F90011124CA01822B932B9C6885C0B4
:1020B000811559E5950798F4C11588E5D80708F00A
:1020C00061C0C11526E5D20708F073C08C2F0E94AD
:1020D00079118F7190E0982F882790626EC08115DA
:1020E0004AE5940708F453C090568115904208F0D1
:1020F00060C08D2F8F710E9479119E01332730624D
:102100008F71A901582B53C081E090E056C0855AC9
:10211000C82FD0E0C354DE4F888190E090644DC05A
:10212000885AC82FD0E0CC0FDD1FC157DE4F888101
:102130009981946442C00E94BC0F3FC09927D3FF8D
:1021400002C0986C3AC0906C38C09F70906A35C0DD
:102150009C2F8827816F906A30C041E050E002C018
:10216000440F551F2A95E2F780E2989F90011124B1
:10217000CA01822B932B9A6820C0982F8827846FDE
:10218000906A1BC09C2F8827806F906A16C08F7042
:102190000E9479119E0194E0369527959A95E1F772
:1021A0002F7030E0322F22273069A901482BCA0155
:1021B00004C080E090E001C0CE01DF91CF9108958E
:1021C0000E94A90F0E94C40F08958238910569F1F9
:1021D000B0F48133910509F46DC048F4893291055A
:1021E00009F463C08A32910509F469C00895853302
:1021F000910509F455C089339105B9F00895833EDE
:10220000910569F138F4803E9105B1F0823E910567
:1022100009F10895863E9105A9F1873E9105B9F12E
:10222000843E910509F064C023C02091A80220FDDE
:102230004FC021FD4DC008958091A80280FD44C08B
:102240008091A90280FF44C08091A80284FD42C011
:1022500083EE4DC08091A80282FF38C0F5CF8091F7
:10226000A80282FD33C08091A90280FD31C0ECCF6D
:102270008091A90281FF32C08091A80284FD2AC00A
:1022800087EE35C08091A80283FF26C0F5CF8091EC
:10229000A80283FD21C08091A90281FD1FC0ECCF5F
:1022A0008091A80285FD1CC01DC08091A80285FDFB
:1022B00019C016C08091A80286FD16C017C0809173
:1022C000A80286FD13C010C089E311C082EE0FC0C2
:1022D00080EE0DC080E00BC086EE09C084EE07C022
:1022E00089E205C085E303C08AE201C081E390E092
:1022F00008959091A80292FF0DC0282F28712830D0
:1023000019F4877F846006C0282F2471243011F4CB
:102310008B7F886093FF0DC0282F2871283119F416
:10232000877E846106C0282F2471243111F48B7EAE
:1023300088612091A90220FF0DC0382F38713830F4
:1023400019F4877F816006C0382F3171313011F464
:102350008E7F886021FF0DC0282F2871283119F445
:10236000877E816106C0282F2171213111F48E7E74
:10237000886194FD877E089580E008950C94F70DA0
:102380000E9478138FE39CE90197F1F700C00000E9
:102390000E94781380E00E94FA1180FF04C00E941E
:1023A000BE110C94FD2008950C94C0110E94FD0DE7
:1023B000811102C00E94A50E0E94080E8093500257
:1023C0000E94100E9093A9028093A8020E94D4113B
:1023D0000E940C0E682F70E080E090E00E94B3072E
:1023E0006091EE017091EF018091F0019091F10107
:1023F0000C94EB07E82FF0E0EE54FD4F8081089538
:10240000089580EA8A95F1F7089500C008950C9424
:10241000011208950C9409120C940A120C940912DA
:102420000C940E12F894E82FE295EF70F0E031A1D1
:10243000282F2F7081E090E001C0880F2A95EAF7DD
:10244000982F9095932391A392A1892B82A378949E
:10245000089508950C9429120F931F93CF93DF933F
:10246000C2E0D1E089918F3F11F00E94121281E009
:10247000C730D807B9F7C7E0D1E00BE011E0899188
:102480008F3F11F00E9412120C171D07C1F7DF9148
:10249000CF911F910F910895DF92EF92FF920F93CA
:1024A0001F93CF93DF93062F10E00E5F1E4FE801BE
:1024B00028812F3F09F45CC0F62EE92ED82EF8941F
:1024C000E22FE295EF70F0E081A12F70C1E0D0E043
:1024D000AE0102C0440F551F2A95E2F79A01842BE2
:1024E00081A382A12095282322A378940E9405121B
:1024F0000F2C01C0CC0F0A94EAF73C2F6C2F60958B
:10250000A7E0B1E0ED2DFE2DAF014C5F5F4FE12C58
:102510002D912F3FA9F0822F82958F7090E0EC01D2
:1025200088A190E02F7002C0959587952A95E2F7D3
:1025300080FD06C08081832B8083EE24E39403C05A
:102540008081862380833196E417F50709F7F80127
:1025500080818F3F11F00E9412126E2D8F2DDF911E
:10256000CF911F910F91FF90EF90DF900C94071285
:10257000DF91CF911F910F91FF90EF90DF90089521
:10258000CF93DF93CDB7DEB72D970FB6F894DEBFAC
:102590000FBECDBF0E941D1480910F0181112FC06D
:1025A000FE01319628E0DF011D922A95E9F725E327
:1025B000298324E32A8321E32B8327EF2C83CF0174
:1025C000E7E0F1E09E01275F3F4FDC014D91CD0137
:1025D0004193A217B307C9F725E0E9E5F1E0DE0171
:1025E000199601900D922A95E1F7FC01A2E0B1E065
:1025F000CE010E9621912D93E817F907D9F7809116
:102600000F01811102C094E001C090E09093BB02E1
:1026100084E0891B8093BA020E942C12EAEAF2E05D
:10262000A2EBB2E011921D9282E0E23BF807D1F7F3
:1026300084E00E94CC130E94BA022D960FB6F89443
:10264000DEBF0FBECDBFDF91CF910C9427141F9337
:10265000CF93DF9300D000D0CDB7DEB70E94031434
:102660006091BB02882371F119821A821B821C823D
:10267000862F90E0BE016F5F7F4F8E549D4F0E946A
:102680003514E091BA029E012B5F3F4FF0E0EE540B
:10269000FD4FDE011196882361F010E08D9190814D
:1026A000981711F0808311E03196A217B307B1F7A4
:1026B00006C011921D92A217B307D9F711E00E942C
:1026C000C0020DC070E06E547D4F8091BA0290E060
:1026D0008E549D4F0E94C5140E942A1210E0812F33
:1026E0000F900F900F900F90DF91CF911F91089551
:1026F000EF92FF920F931F93CF93DF93CDB7DEB787
:1027000028970FB6F894DEBF0FBECDBF8E010F5FC6
:102710001F4F88E0F80111928A95E9F7F12C6F2D8F
:10272000C8010E944C12F394F5E0FF12F8CF48E084
:1027300050E0B8018AEA92E00E9404287C0121E07E
:10274000892B09F420E0E114F10441F088E0F8015C
:10275000AAEAB2E001900D928A95E1F76091BB027E
:1027600070E06E547D4F44E08AEA92E00E94CD13FF
:10277000EF2819F40E94271302C081E090E0289608
:102780000FB6F894DEBF0FBECDBFDF91CF911F9182
:102790000F91FF90EF9008950895FF920F931F936C
:1027A000CF93DF938C01F62ED72FC42F222349F02D
:1027B00081E0809353020E94942090935202809370
:1027C0005102809153028823C1F08091510290916F
:1027D00052020E94AC20059780F0EF2DFD2FD8010A
:1027E0004C2F50E0CD01801B910B841795071CF4F2
:1027F0008D918193F7CF10925302DF91CF911F916A
:102800000F91FF9008958091560281110DC00E9492
:10281000C927811102C082E001C081E08093560285
:10282000823011F40E94C42781E0909156029130C9
:1028300009F080E008950C9403140E941B14809307
:102840000F010E94031481110C946D1408950E94CD
:102850000314811102C00C946F14089581E09091CB
:1028600057029A3008F080E008950F931F93CF939A
:10287000DF93EC018B01809157028A3038F4B80164
:10288000CE010E94C31481111DC00AC08091540260
:10289000909155020E94AC20843F914080F715C072
:1028A000809157028F3F19F08F5F8093570280917C
:1028B00057028A3060F00E949420909355028093D2
:1028C000540203C01092570202C080E001C081E0B0
:1028D000DF91CF911F910F9108950C945C1D0C9482
:1028E0005F1DEF92FF920F931F93CF93DF937901B8
:1028F000C82F880FDD0B41155105A9F08AE08C9F88
:10290000F0018D9FF00D1124E05FFE4F83819481D3
:10291000885A9D4F228130E04217530708F49A01EC
:10292000A9010E941128CE010E94691E892B09F578
:102930000115110501F18AE08C9FF0018D9FF00DCA
:102940001124E05FFE4F458150E00417150708F49D
:10295000A8018AE08C9FF0018D9FF00D1124E05FAB
:10296000FE4F66817781685A7D4FC7010E9411280A
:1029700002C080E001C081E0DF91CF911F910F91F3
:10298000FF90EF9008950C9428160C944C160F931A
:102990001F93CF93DF9300D000D0CDB7DEB7609107
:1029A00074027091750280917602909177020E9474
:1029B000BB20643671058105910528F10E94F11F45
:1029C000DC01CB010296A11DB11D89839A83AB83E3
:1029D000BC8300E010E020E030E044E050E0BE01C5
:1029E0006F5F7F4F84E00E947114182F882361F07D
:1029F0000E94A02060937402709375028093760207
:102A00009093770201C011E0812F0F900F900F90EB
:102A10000F90DF91CF911F910F9108957F928F9228
:102A20009F92AF92BF92CF92DF92EF92FF920F935D
:102A30001F93CF93DF931F92CDB7DEB7762E4A0157
:102A40005901680101E010E09E012F5F3F4F40E017
:102A500050E060E070E00E947114182F882379F133
:102A6000F40160817181828193810E94BB20643670
:102A7000710581059105E0F08701950140E050E086
:102A800060E070E0872D0E947114182FB701C60115
:102A90000E94C01A91E02981281390E01923A1F027
:102AA0000E94A020F40160837183828393830CC011
:102AB000B701C6010E94C01A99818913DDCFA70111
:102AC000B601C5010E941128812F0F90DF91CF918F
:102AD0001F910F91FF90EF90DF90CF90BF90AF903C
:102AE0009F908F907F900895EF92FF920F931F9386
:102AF000CF93DF9300D0CDB7DEB70091C001109126
:102B0000C1010A5F1F4F82E0E82EF12C9E012F5F6A
:102B10003F4F40E752E063E082E00E940E15182F1D
:102B2000882321F0CE0101960E946F1A812F0F9009
:102B30000F90DF91CF911F910F91FF90EF9008952B
:102B4000CF92DF92EF92FF920F931F93CF93DF9379
:102B500000D000D0CDB7DEB76B010091C00110915D
:102B6000C1010F5F1F4F84E0E82EF12C9E012F5F03
:102B70003F4F4CE652E061E080E00E940E15882352
:102B800061F049815A816B817C8140936802509346
:102B9000690260936A0270936B02409168025091DF
:102BA000690260916A0270916B02F6014083518361
:102BB000628373830F900F900F900F90DF91CF91EE
:102BC0001F910F91FF90EF90DF90CF900895AF92FB
:102BD000BF92CF92DF92EF92FF920F931F93CF930A
:102BE000DF937C015B016A010E942E14811103C0F6
:102BF00001E010E002C00AE010E0C1E0D0E0F8948B
:102C0000B501C701F60109957894811115C0219687
:102C10000C171D0794F0CC9F9001CD9F300D300D07
:102C2000112480E090E045E34A95F1F70000019619
:102C300082179307C1F7E3CF81E0DF91CF911F9116
:102C40000F91FF90EF90DF90CF90BF90AF900895DD
:102C50000F931F93CF93DF93EC018B0140EA55E173
:102C60000E94E715882391F044E755E1B801CE01B1
:102C70000E94E715882351F047EC54E1B801CE01DA
:102C8000DF91CF911F910F910C94E71580E0DF91B8
:102C9000CF911F910F9108950F931F93CF93DF93BF
:102CA00000D0CDB7DEB7F8940091C0011091C101FA
:102CB000C801019624E0FB01DC0101900D922A95E8
:102CC000E1F764E070E00E94C01AF8018083789414
:102CD000F894CE0101960E94641A89819A81F801C4
:102CE0009783868362E070E0CE0101960E94C01A4D
:102CF000F80185837894F894608571858285938541
:102D00000091640210916502209166023091670281
:102D1000601771078207930751F060936402709304
:102D2000650280936602909367020E94D41F789494
:102D30000F900F90DF91CF911F910F9108950E94F6
:102D40000C200E946F220E9488220E949A220E94D8
:102D5000F20EFBCF80917E0280FF0BC06091470195
:102D600085E0689FB0011124759567957595679505
:102D70002BC081FF09C06091470185E0689FB001C9
:102D800011247595679520C082FF07C060914701A7
:102D900085E0689FB001112417C090917D029923AE
:102DA000D1F060914601961788F72091470185E0A0
:102DB000289F90011124929FA001939F500D1124F0
:102DC00070E0CA010E94D6276038710540F4611591
:102DD000710519F406C065E070E0862F08958FE74D
:102DE000089581E0089580917E0280FF08C060917F
:102DF000430170E0759567957595679521C081FFD2
:102E000006C06091430170E07595679519C082FF17
:102E100004C06091430170E010C090917C0299233E
:102E200099F0609142019617A0F780914301899F24
:102E3000C001112470E00E94D6276038710540F46B
:102E40006115710519F406C061E070E0862F0895E0
:102E50008FE7089581E008958D3E21F40E94AA161F
:102E6000819504C08E3E29F40E94AA1680938202A6
:102E700008958F3E21F40E94AA16819504C0803FD8
:102E800029F40E94AA16809381020895893F19F4BB
:102E90000E94F31605C08A3F31F40E94F316819513
:102EA0008093830208958B3F21F40E94F31681954D
:102EB00004C08C3F29F40E94F31680938402089585
:102EC0009FE0980F983078F421E030E0A90102C02B
:102ED000440F551F9A95E2F7CA0190918002892B01
:102EE0008093800208958D3F21F480917E0281605D
:102EF0000BC08E3F21F480917E02826005C08F3F1F
:102F000029F480917E02846080937E0208958D3E34
:102F100039F49091820297FF35C01092820259C015
:102F20008E3E29F4909182021916BCF32BC0909129
:102F300081028F3E29F497FF25C01092810249C07B
:102F4000803F19F41916CCF31DC090918302893F7C
:102F500029F41916BCF4109283023BC08A3F19F47D
:102F600097FF10C0F8CF8B3F39F49091840297FF00
:102F700009C0109284022DC08C3F21F490918402EC
:102F80001916BCF39FE0980F983080F421E030E0F0
:102F9000A90102C0440F551F9A95E2F7CA01809516
:102FA0009091800289238093800213C08D3F21F489
:102FB00080917E028E7F0BC08E3F21F480917E0235
:102FC0008D7F05C08F3F29F480917E028B7F809397
:102FD0007E0280918102811106C08091820281115E
:102FE00002C010927D0280918302811106C08091FF
:102FF0008402811102C010927C0208950E949420E4
:1030000020918102211104C020918202222321F00B
:1030100090937B0280937A0220918302211104C055
:1030200020918402222321F09093790280937802E8
:103030008FE792E00C94441FEF92FF920F931F933F
:10304000CF93DF9300D000D000D0CDB7DEB786E0BD
:10305000EFE7F2E0DE01119601900D928A95E1F71B
:10306000E0908102F090820200918302109184022C
:1030700010928102109282021092830210928402B6
:10308000E11003C0FF2009F45DC080917A029091A5
:103090007B020E94AC20AC0190917D02992339F013
:1030A0002091480130E02417350758F04BC020919B
:1030B00049018AE0289F900111242417350718F050
:1030C00041C09F3F19F09F5F90937D02EE2061F019
:1030D0000E94AA161E1414F09FEF01C091E0989F61
:1030E000902D112490938102FF2061F00E94AA1676
:1030F0001F1414F09FEF01C091E0989F902D1124B0
:1031000090938202309181023323E1F02091820278
:103110002223C1F045EB3403C0011124992319F097
:103120009093810203C081E08093810235EB2303F9
:10313000C0011124992319F09093820203C081E009
:1031400080938202011103C0112309F45DC08091B4
:103150007802909179020E94AC20AC0190917C029F
:10316000992339F02091440130E02417350758F0B5
:103170004BC0209145018AE0289F9001112424171B
:10318000350718F041C09F3F19F09F5F90937C0274
:10319000002361F00E94F316101614F09FEF01C097
:1031A00091E0989F902D112490938302112361F058
:1031B0000E94F316111614F09FEF01C091E0989F42
:1031C000902D112490938402309183023323E1F0F7
:1031D000209184022223C1F045EB3403C001112465
:1031E000992319F09093830203C081E080938302B6
:1031F00035EB2303C0011124992319F09093840225
:1032000003C081E0809384028091810281110BC010
:1032100080918202811107C080918302811103C0D5
:103220008091840281110E94FE17EB82FC820D8343
:103230001E8386E0FE013196AFE7B2E001900D9269
:103240008A95E1F726960FB6F894DEBF0FBECDBF84
:10325000DF91CF911F910F91FF90EF900895EFE7CD
:10326000F2E086E0DF011D928A95E9F710927D0277
:1032700010927C0210927E0208950C94D501FF9268
:103280000F931F93CF93DF9380910F0181110CC097
:1032900087E980934C0186EC80934A0184E980930E
:1032A0004D0186E680934B01CDE8D2E02CE431E07D
:1032B0004AE451E061E070E0F2E0CF38DF0709F462
:1032C0004CC0F90101919F01A02FA295AF70B0E011
:1032D0009196EC9191970F70CB01002E01C0880F51
:1032E0000A94EAF7982F90959E2391969C93919734
:1032F00092969C919297892B92968C939297FA0131
:103300001191AF01E12FE295EF70F0E0F1A01F7095
:10331000CB01012E01C0880F0A94EAF7982F9095EF
:103320009F2191A392A1892B82A390968C9190E0EA
:1033300002C0959587950A95E2F78170E0A1F0E0CB
:1033400002C0F595E7951A95E2F7E0FD02C090E01E
:1033500001C092E0892B8993AFCF80910F01811139
:1033600002C092E001C090E09093860282E0891B47
:1033700080938502DF91CF911F910F91FF90089567
:103380003F924F925F926F927F928F929F92AF92F5
:10339000BF92CF92DF92EF92FF920F931F93CF9342
:1033A000DF938DE8882E82E0982E9CE4E92E91E050
:1033B000F92E0AE411E0CBE8D2E064015401412C7B
:1033C000312C24E0622E712CD501ED915D014E2F40
:1033D000440F440FF60141936F01D7012D917D01F8
:1033E000E22FE295EF70F0E080A190E02F7002C034
:1033F000959587952A95E2F781709927F801519163
:103400008F01E52FE295EF70F0E020A130E05F70D2
:1034100002C0359527955A95E2F7F901E170FF272B
:1034200020FF02C0E2E0F0E0E82BF92BE42BD4010E
:10343000ED934D0150908602540CEF70F0E0EE5386
:10344000FE4F90818881890F888384306CF0E52D50
:10345000F0E0E957FD4F80818F5F808360E0852D2C
:103460000E943D1921E001C020E088818D3F64F475
:10347000E52DF0E0E957FD4F80818150808361E0C8
:10348000852D0E943D1921E08881082E000C990BA2
:10349000B3010E94D6278993322A4394B2E04B129B
:1034A00093CF832DDF91CF911F910F91FF90EF90DC
:1034B000DF90CF90BF90AF909F908F907F906F9054
:1034C0005F904F903F900895E0918602F0E0E957B9
:1034D000FD4F20813181FC01318320830895CF92FB
:1034E000DF92EF92FF920F931F93CF93DF936C01C4
:1034F000F12C80E0D0918502DF0DF601C1916F01C2
:103500000D2F10E009571D4FF8019081C91BEC2EBB
:103510001E145CF4EA94F80180818F5F808360E080
:103520008D2F0E943D1981E0F3CF9C2FC7FD90E0C5
:10353000C91BCC2359F0CF5FF80180818150808373
:1035400061E08D2F0E943D1981E0F3CFF394F2E00A
:10355000FF12D0CF882351F0DF91CF911F910F91AF
:10356000FF90EF90DF90CF900C94BF0EDF91CF9142
:103570001F910F91FF90EF90DF90CF9008950895E5
:10358000FC01680F791F8FEF91E3E617F70771F0E1
:103590002191822728E030E087FF03C0880F892728
:1035A00001C0880F21503109B9F7EFCF08950F936B
:1035B0001F93CF93DF93C42FD22FFC0182818823E6
:1035C000C9F0409391020E949420909390028093BE
:1035D0008F0280E28C0F883008F057C0C77081E0FE
:1035E00001C0880FCA95EAF7DF91CF911F910F9123
:1035F0000C94B70480919102481330C080918F02DF
:10360000909190020E94AC20883C910538F510E220
:103610001D0FCD17B9F080E28C0F883040F4C770D1
:1036200081E001C0880FCA95EAF70E94BE041830F5
:1036300028F581E09D2F977001C0880F9A95EAF7D1
:103640000E94B704802F0E94AE041830F0F4D770A7
:1036500081E001C0880FDA95EAF70AC080E28C0F9A
:10366000883098F4C77081E001C0880FCA95EAF7E6
:10367000DF91CF911F910F910C94BE04802FDF91A9
:10368000CF911F910F910C94AE04DF91CF911F91B8
:103690000F9108950F939C01CB01243F4CE5340713
:1036A00031F188F4293DFCE53F07D9F02A3D4CE58E
:1036B000340779F1283D3C45A9F506E221EE41EEBB
:1036C00068ED7CE52BC0263FFCE53F07E1F0A8F064
:1036D000273F3C4539F507E225EE46EE67EF7CE5EE
:1036E0001DC007E225EE45EE69ED7CE517C006E258
:1036F00021EE40EE64EF7CE511C007E225EE44EEDA
:1037000065EF7CE50BC006E221EE42EE66EF7CE55C
:1037100005C008E221E045EE6AED7CE50E94D71A7B
:1037200080E008C0FC018281882319F01092910288
:1037300001C081E00F910895CF93DF93EC01FB016D
:103740008281882309F426C1C430FDE5DF0760F4D7
:10375000CB3F9CE5D90768F49E0122503C452431BB
:10376000310508F018C105C0C236EDE5DE0709F0E5
:1037700012C10E94100E9093A9028093A802C0313A
:10378000FCE5DF0709F4CAC008F041C0C8309CE579
:10379000D90709F4A4C0F0F4C430FCE5DF0709F44C
:1037A0008CC068F4C2309CE5D90709F482C0C330EC
:1037B000DC4509F0E5C08091A8028260DFC0C63018
:1037C000FCE5DF0709F483C008F085C08091A802FA
:1037D0008860D4C0CC309CE5D90709F490C068F467
:1037E000CA30FCE5DF0709F47EC008F084C00E94FF
:1037F00052078091A8028068C1C0CE309CE5D907ED
:1038000009F481C008F086C08091A80294C0CD3F21
:10381000FCE5DF0709F47BC038F5C4319CE5D90726
:1038200009F49AC058F4C231FCE5DF0709F47AC004
:1038300008F07EC08091A8028F7BA0C0CB3F9CE5A2
:10384000D907F1F108F03FC0C531DC4509F098C057
:103850008091A80282FB222720F991E0922790FB19
:1038600082F990FB83F98AC0C1308DE5D80709F44D
:1038700067C050F48091A902CF3FECE5DE07C1F1AB
:1038800008F05BC08D7F65C0C3308DE5D80709F4B3
:1038900071C008F46DC0C236DD4509F071C0809179
:1038A000A80284FB222720F991E0922790FB84F95B
:1038B00065C08091A802816061C08091A80216C095
:1038C0008091A90216C08091A902826042C08091B5
:1038D000A802806153C08091A80280624FC080918D
:1038E000A80280644BC08091A8028860846046C0B2
:1038F000826081602EC08091A8028E7F3FC080913F
:10390000A8028D7F3BC08091A802877F37C080913D
:10391000A90214C08091A8028F7E30C08091A802B5
:103920008F7D2CC00E9452078091A8028F7726C0FD
:103930008091A802877F8B7F21C08D7F8E7F09C0F9
:103940008091A902982F909591708E7F892B90FB82
:1039500081F98093A90214C00E9452078091A802A5
:1039600087FB222720F991E0922790FB87F906C078
:1039700081E001C080E00E94A70E02C08093A802EF
:103980008091A8029091A9020E94210E0E945207E4
:1039900080E001C081E0DF91CF910895CF93DF9364
:1039A00086319C4541F5EB010E94380D982F8A81A4
:1039B0002091000130910101882379F09A7A81E009
:1039C00009F480E080939202911102C069E201C083
:1039D00065E3C9010E94C01F0AC080919202811153
:1039E00002C069E201C065E3C9010E94C21F0E94D2
:1039F0008A0D80E001C081E0DF91CF9108958EE1D2
:103A00004A9B02C08150E1F74A9BFECF08955A9825
:103A100080E28A95F1F75A9A0895FC012AE02A95E6
:103A2000F1F728E090E080E031E040E14A95F1F7DD
:103A3000880F4A9B02C08160932700C0000040E1CC
:103A40004A95F1F7215089F720E12A95F1F729B13C
:103A500000C0000030E13A95F1F722FB222720F95F
:103A600092272081920F90830895EF92FF920F93F7
:103A70001F93CF93DF931F92CDB7DEB719828C01CE
:103A80007C01E60EF11C0E151F0551F00E94FF1C73
:103A9000CE0101960E940D1DF80181938F01F3CF95
:103AA00081E09981911180E00F90DF91CF911F917A
:103AB0000F91FF90EF900895529A5A9A0895529854
:103AC0005A9AEA9AE9E6F0E080818F7C8083089533
:103AD000615091E001C0990F6A95EAF720E031E06A
:103AE000992361F0492F482319F05A9A232701C0DE
:103AF0005A9840E24A95F1F79695F2CF222311F0B9
:103B00005A9A01C05A9880E28A95F1F75A98089516
:103B1000FF920F931F93CF93DF93EC018C01060F5D
:103B2000111DC017D10741F0F9900E94071D68E0F0
:103B30008F2D0E94681DF5CFDF91CF911F910F91BE
:103B4000FF9008951F920F920FB60F921124EF92DB
:103B5000FF920F931F932F933F934F935F936F9316
:103B60007F938F939F93AF93BF93EF93FF93CF93E5
:103B7000DF931F92CDB7DEB719820E94FF1CCE01E2
:103B800001960E940D1DA82FA695A695A6959A2F81
:103B9000969595702A2F2570920F292F2370969550
:103BA0009695920F877089137CC08981811179C0A5
:103BB000A63008F076C080E18A95F1F75A9A529AB9
:103BC000B2E0BA95F1F700C05A98EA2EF12CEAE07B
:103BD000AE9FD0011124A05FBE4F1896ED91FC91CD
:103BE00019973097B1F06091C0017091C10116969C
:103BF0002D913C911797260F371F13968D919C910D
:103C00001497680F791F15964C91159712968C9101
:103C100009958AE08E9DF0018F9DF00D1124E05FE3
:103C2000FE4F6581662351F08091C0019091C101E2
:103C300026813781820F931F0E94881D0E94071DD5
:103C4000F0E1FA95F1F75A9852985A9A80E18A95DC
:103C5000F1F78AE08E9D80018F9D100D1124005F89
:103C60001E4FD80112966C911297662399F080919D
:103C7000C0019091C10113962D913C911497820F30
:103C8000931F0E94351DD801ED91FC91811105C053
:103C900082E004C0D801ED91FC9188E080830E940D
:103CA000FF1C0F90DF91CF91FF91EF91BF91AF91EA
:103CB0009F918F917F916F915F914F913F912F9144
:103CC0001F910F91FF90EF900F900FBE0F901F90DC
:103CD00018950F931F93CF93DF93863091050CF0C7
:103CE000A9C02AE0289FF001299FF00D1124E05F70
:103CF000FE4F20813181232B09F49CC0EC01F89404
:103D0000529A5A9885E08A95F1F700008C2F869593
:103D100085709C2F9570890F982F93708695869546
:103D20008E0123E0000F111F2A95E1F7890F082B60
:103D30000E94071DA4E0AA95F1F700C068E0802F5B
:103D40000E94681DB0E1BA95F1F752985A9A4A99C3
:103D500002C000C0FCCF87E090E04A9B17C00197EB
:103D600099F4529A5A9A8AE08C9FF0018D9FF00D37
:103D70001124E05FFE4F0190F081E02D81E080830F
:103D8000789481E090E058C000C0E7CF8AE08C9F33
:103D900080018D9F100D1124005F1E4FF801658179
:103DA0006623B9F08091C0019091C10126813781CD
:103DB000820F931F0E94351D81110BC0529A5A9A8F
:103DC000D801ED91FC9182E08083789482E090E0CC
:103DD00033C00E94FF1CB0E2BA95F1F75A98529A8C
:103DE000E0E1EA95F1F78AE08C9FF0018D9FF00DFC
:103DF0001124E05FFE4F6281662351F08091C00183
:103E00009091C10123813481820F931F0E94881DEC
:103E10000E94071D8AE08C9FF0018D9FF00D1124F8
:103E2000E05FFE4F0190F081E02D1082789480E0F9
:103E300090E002C084E090E0DF91CF911F910F915C
:103E40000895909399028093980208950E94031414
:103E5000811103C0809193020895E0919802F0913E
:103E60009902309721F00190F081E02D099480E0D3
:103E70000895E0919802F0919902309721F0028024
:103E8000F381E02D09940895E0919802F091990250
:103E9000309739F022E0DC012C930480F581E02D8D
:103EA00009940895209196023091970228173907B6
:103EB00071F09093970280939602E0919802F091AE
:103EC0009902309721F00680F781E02D099408953A
:103ED00020919402309195022817390771F0909340
:103EE000950280939402E0919802F09199023097A4
:103EF00021F00084F185E02D09940895FC013296AB
:103F000097E080E0915029F021912223D9F38F5F2F
:103F1000F9CF0895662349F0FC0132960896219165
:103F2000621729F0E817F907D1F780E0089581E0DA
:103F300008959C01FC0132969FEF80E04191461765
:103F400089F09F3F19F4411101C0982F8F5F86308F
:103F5000A9F79F3F39F0F901E90FF11D97FDFA9597
:103F60006283089508959C012A5F3F4FFC014281BE
:103F7000461301C01282019682179307B9F708957C
:103F80000C94991F0C94B31F029626E0FC01119229
:103F90002A95E9F708951092BD021092BE02109280
:103FA000BF021092C0020895CF92DF92EF92FF926B
:103FB0006B017C010E94031481110EC00E94A0209D
:103FC000C61AD70AE80AF90AC092BD02D092BE0208
:103FD000E092BF02F092C002FF90EF90DF90CF908E
:103FE00008950F931F930E940314882321F01F91BB
:103FF0000F910C94A0200E94A0200091BD0210916E
:10400000BE022091BF023091C002600F711F821F5B
:10401000931F1F910F910895089508950C940D20FA
:104020000C940D20CF930E9410200E9478130E94C0
:104030000E20C0E08C2F0E94FA11811104C0CF5FC6
:10404000C830C1F701C081E0CF9108950C940D20D4
:104050000C9426208091C902843049F10E942820C6
:1040600080E00E942C0310929A0220E488E190E004
:104070000FB6F894A895809360000FBE209360005F
:1040800083B7817F846083BF83B7816083BF789467
:10409000889583B78E7F83BF0FB6F894A8958091DB
:1040A0006000886180936000109260000FBE0895E8
:1040B0000C940D200E9452070E94261F0E942C0380
:1040C0000C9458201F920F920FB60F9211248F93C9
:1040D0009F93AF93BF9380919A02811113C08091F7
:1040E000C1029091C202A091C302B091C402419654
:1040F000A11DB11D8093C1029093C202A093C3027F
:10410000B093C402BF91AF919F918F910F900FBE5A
:104110000F901F90189582E084BD93E095BD9AEFB3
:1041200097BD80936E0008952FB7F8948091C102D7
:104130009091C202A091C302B091C4022FBF089512
:104140002FB7F8946091C1027091C2028091C302AE
:104150009091C4022FBF08959C014FB7F8948091AD
:10416000C1029091C202A091C302B091C4024FBF9C
:10417000821B930B0895CF92DF92EF92FF922FB79D
:10418000F894C090C102D090C202E090C302F090B7
:10419000C4022FBFA7019601261B370B480B590BF2
:1041A000CA01B901FF90EF90DF90CF900895789405
:1041B0001F920F920FB60F9211248F939F93AF937C
:1041C000BF938091C1029091C202A091C302B091AD
:1041D000C4020196A11DB11D8093C1029093C20239
:1041E000A093C302B093C402BF91AF919F918F91EE
:1041F0000F900FBE0F901F90189587E797E7909349
:104200000108809300089AE088E10FB6F894A89519
:10421000809360000FBE90936000FFCF9093D30116
:104220008093D20108958091A60208959091C902C9
:10423000943031F580939B0270939D0260939C02B1
:1042400082E08093E9008FEF9091E800815095FD26
:1042500006C095ED9A95F1F700008111F5CF809198
:10426000E80085FF0DC040E050E063E070E08BE9BE
:1042700092E00E9426238091E8008E778093E800E8
:104280000895BC0184E00C941621BC0183E00C94D9
:10429000162122E02093E9002FEF3091E800215011
:1042A00035FD06C035ED3A95F1F700002111F5CF47
:1042B0002091E80025FF0BC040E050E066E070E090
:1042C0000E9426238091E8008E778093E80008956D
:1042D000CF93DF9321E02093E9002FEF3091E800A6
:1042E000215035FD06C035ED3A95F1F7000021115A
:1042F000F5CF2091E80025FF14C0EC0140E050E02C
:1043000068E070E00E9426238091E8008E77809319
:10431000E80088E0FE01AEE9B2E001900D928A95D6
:10432000E1F7DF91CF9108958091C802811109C012
:104330000E94B7240E9414258091E200846080933B
:10434000E20008951092C80208950895089508950E
:1043500042E061EC81E00E94302442E261EC82E0C4
:104360000C9430248091CB02833009F460C030F487
:10437000813071F0823009F499C008958A3009F4CF
:1043800085C08B3009F46BC0893009F0A7C020C00C
:104390008091CA02813A09F0A1C08091E800877F2C
:1043A0008093E8008091CE029091CF02892B21F476
:1043B00068E08EE992E003C060E080E090E070E0A9
:1043C0000E9471238091E8008B778093E800089524
:1043D0008091CA02813209F081C08091CE02909111
:1043E000CF02029708F07AC08091E800877F80931F
:1043F000E8008091E80082FD05C08091C90281112A
:10440000F8CF6CC02091F3008091F20090E0922BE5
:10441000029729F48091F1008B7F813021F4809103
:10442000F1008093A6028091E8008B7753C08091C1
:10443000CA02813A09F052C08091CE029091CF0217
:10444000892B09F04BC08091E800877F8093E800BA
:104450008091E80080FFFCCF8091580136C08091A8
:10446000CA028132D9F58091CE029091CF02892B78
:10447000A9F58091E800877F8093E8000E94652479
:104480008091CC02809358010C9452078091CA020B
:10449000813221F58091E800877F8093E8000E94B7
:1044A00065248091CD028093A70208958091CA026D
:1044B000813AA1F48091E800877F8093E8008091A1
:1044C000E80080FFFCCF8091A7028093F1008091EB
:1044D000E8008E778093E8000C946524089584B7F3
:1044E000877F84BF0FB6F894A8958091600088619B
:1044F00080936000109260000FBE90E080E80FB6DD
:10450000F89480936100909361000FBE0C94E80EC4
:104510000E94B7240E941425E2EEF0E080818460BE
:10452000808378940E94A9270E94F60E8EE491E081
:104530000C94211F8091C9028530A9F48091C90291
:10454000853079F40E942A208091C7028823B1F334
:104550000E941220882391F30E9410230E94520788
:10456000EDCF0E945A200C94020F0C94B722292FF1
:10457000332723303105C9F060F42130310581F053
:104580002230310509F044C08BE390E020E132E0B5
:1045900043C021323105E1F02232310549F138C002
:1045A00082E190E02BE432E037C099278130910519
:1045B00049F028F0029761F5ECEEF1E005C0ECE07F
:1045C000F2E002C0E0E0F2E0849190E09F0124C0BC
:1045D0006115710541F061307105D1F489E090E019
:1045E0002BE332E019C089E090E022E232E014C00F
:1045F0006115710541F06130710551F48BE790E070
:104600002DE532E009C080E490E028ED32E004C0FE
:1046100080E090E020E030E0FA01318320830895CB
:1046200080E189BD82E189BD09B400FEFDCF8091A2
:10463000D8008F7D8093D8008091E00082608093C5
:10464000E0008091E00081FDFCCF0895CF92DF92E1
:10465000EF92FF920F931F93CF93DF93EC018B01A7
:104660007A010E948424811133C0E114F10439F0ED
:10467000F70180819181081B190BC80FD91FC12C2C
:10468000D12C0115110519F18091E80085FD16C0A6
:104690008091E8008E778093E800E114F10449F0FE
:1046A000F70180819181C80ED91ED182C08285E038
:1046B0000FC00E948424882321F30AC0899180932B
:1046C000F10001501109FFEFCF1ADF0ADACF80E0C5
:1046D000DF91CF911F910F91FF90EF90DF90CF90DE
:1046E00008952091D0023091D1022617370748F063
:1046F0006115710539F42091E8002E772093E800C8
:1047000001C0B901FC0120E06115710579F18091CA
:10471000C9028823F1F18530F1F18091E80083FD31
:104720003CC08091E80082FD2EC08091E80080FFAF
:10473000EBCF2091F3008091F20090E0922B611575
:10474000710551F08830910538F421912093F100E2
:10475000615071090196F3CF21E0089709F020E03C
:104760008091E8008E778093E800CECF2111CFCFE3
:104770000AC08091C902882361F0853061F0809180
:10478000E80083FD0AC08091E80082FFF2CF80E05C
:10479000089582E0089583E0089581E008952091CE
:1047A000D0023091D1022617370748F06115710504
:1047B00039F42091E8002E772093E80001C0B90178
:1047C000FC0120E06115710591F18091C9028823F7
:1047D00009F440C0853009F43FC08091E80083FDB2
:1047E0003DC08091E80082FD2FC08091E80080FFED
:1047F000E9CF2091F3008091F20090E0922B6115B7
:10480000710559F08830910540F424912093F1000E
:104810003196615071090196F2CF21E0089709F0B5
:1048200020E08091E8008E778093E800CBCF2111C3
:10483000CCCF0AC08091C902882361F0853061F035
:104840008091E80083FD0AC08091E80082FFF2CFEA
:1048500080E0089582E0089583E0089581E008955E
:10486000982F973068F59093E900981739F0709178
:10487000EC002091ED005091F00003C0242F762F22
:1048800050E021FD02C09F5FECCF3091EB003E7FF6
:104890003093EB003091ED003D7F3093ED0030918F
:1048A000EB0031603093EB007093EC002093ED004F
:1048B0005093F0002091EE0027FDE5CF80E00895B1
:1048C0008F708093E90081E008958091CA0287FF8C
:1048D00011C08091E80082FD05C08091C90281115C
:1048E000F8CF11C08091E8008B770BC08091C9028E
:1048F000882349F08091E80080FFF8CF8091E8009C
:104900008E778093E80008952091E4003091E500CF
:1049100095E64091EC00842F817040FF23C0809188
:10492000E80080FD1DC08091C902882399F0853080
:1049300099F08091EB0085FD11C04091E400509109
:10494000E5002417350729F3915011F09A01E1CFC2
:1049500084E0089582E0089583E0089581E0089559
:1049600080E008954091E80042FFDDCF08950E9465
:1049700025250E942D25E0EEF0E080818160808376
:10498000E8EDF0E080818F77808319BCA7EDB0E07F
:104990008C918E7F8C9380818F7E80831092C80251
:1049A00008950F931F93CF93DF930E9425250E94B4
:1049B0002D25C8EDD0E088818F7788838881806835
:1049C000888388818F7D888319BC1092C9021092D8
:1049D000C5021092C7021092C60200EE10E0F80164
:1049E00080818B7F808388818160888342E060E062
:1049F00080E00E943024E1EEF0E080818E7F8083B1
:104A0000E2EEF0E080818160808380818860808335
:104A1000F80180818E7F8083888180618883DF9127
:104A2000CF911F910F910895E8EDF0E080818F7E86
:104A30008083E7EDF0E080818160808384E082BF45
:104A400081E08093C8020C94D124E8EDF0E08081ED
:104A50008E7F80831092E20008951092DA00109207
:104A6000E10008951F920F920FB60F9211242F9319
:104A70003F934F935F936F937F938F939F93AF93E6
:104A8000BF93EF93FF938091E10082FF0BC0809171
:104A9000E20082FF07C08091E1008B7F8093E100FC
:104AA0000E94A8278091DA0080FF1FC08091D80063
:104AB00080FF1BC08091DA008E7F8093DA008091A6
:104AC000D90080FF0DC080E189BD82E189BD09B4B4
:104AD00000FEFDCF81E08093C9020E94942105C0B1
:104AE00019BC1092C9020E94A2218091E10080FFAE
:104AF00019C08091E20080FF15C08091E2008E7F96
:104B00008093E2008091E20080618093E2008091D6
:104B1000D80080628093D80019BC85E08093C902D8
:104B20000E94A6218091E10084FF30C08091E200C4
:104B300084FF2CC080E189BD82E189BD09B400FEFB
:104B4000FDCF8091D8008F7D8093D8008091E100C7
:104B50008F7E8093E1008091E2008F7E8093E2005F
:104B60008091E20081608093E2008091C5028823F9
:104B700011F084E007C08091E30087FD02C081E06E
:104B800001C083E08093C9020E94A7218091E100C7
:104B900083FF29C08091E20083FF25C08091E1005E
:104BA000877F8093E10082E08093C9021092C50262
:104BB0008091E1008E7F8093E1008091E2008E7F02
:104BC0008093E2008091E20080618093E20042E005
:104BD00060E080E00E9430248091F0008860809343
:104BE000F0000E94A521FF91EF91BF91AF919F919D
:104BF0008F917F916F915F914F913F912F910F9086
:104C00000FBE0F901F9018951F920F920FB60F9224
:104C100011242F933F934F935F936F937F938F93C1
:104C20009F93AF93BF93CF93DF93EF93FF93C09185
:104C3000E900CF708091EC00D82FD17080FDD0E8D2
:104C40001092E9008091F000877F8093F0007894C3
:104C50000E9448261092E9008091F00088608093BD
:104C6000F000CD2BCF70C093E900FF91EF91DF9161
:104C7000CF91BF91AF919F918F917F916F915F91F4
:104C80004F913F912F910F900FBE0F901F9018954D
:104C90001F93CF93DF93CDB7DEB7AA970FB6F894E3
:104CA000DEBF0FBECDBFEAECF2E08091F100819350
:104CB00022E0E23DF207C9F70E94B2218091E800AC
:104CC00083FF2EC18091CA029091CB02492F50E000
:104CD0004A30510508F024C1FA01EC58FF4F0C94FA
:104CE000EA27803821F0823809F01AC108C0809183
:104CF000C6029091C702992389F082600FC080910B
:104D0000CE028F70873008F00BC18093E90080914C
:104D1000EB0085FB882780F91092E9009091E8006C
:104D2000977F9093E8008093F1001092F100D1C03A
:104D3000282F2D7F09F0F4C0882319F0823061F00C
:104D4000EFC08091CC02813009F0EAC0933009F0C5
:104D500080E08093C7022EC08091CC0281112AC0CE
:104D60008091CE028F702FEF280F263008F0D8C028
:104D70008093E9002091EB0020FF1CC0933021F4C8
:104D80008091EB00806214C09091EB009061909351
:104D9000EB0021E030E0A90102C0440F551F8A95C5
:104DA000E2F74093EA001092EA008091EB008860FD
:104DB0008093EB001092E9008091E800877F809358
:104DC000E8000E946524ACC08111AAC01091CC02F9
:104DD0001F778091E3008078812B8093E30080919E
:104DE000E800877F8093E8000E9465248091E800B6
:104DF00080FFFCCF8091E30080688093E300111175
:104E000002C082E001C083E08093C90289C080585B
:104E1000823008F085C08091CC029091CD028C3D0B
:104E200053E0950779F583E08A838AE289834FB757
:104E3000F894DE01139620E03EE051E2E32FF0E02B
:104E400050935700E49120FF03C0E295EF703F5F5D
:104E5000EF708E2F90E0EA3010F0C79601C0C09638
:104E60008D939D932F5F243149F74FBF8091E800C8
:104E7000877F8093E8006AE270E0CE0101960E948D
:104E8000712316C06091CE027091CF02AE014F5FC8
:104E90005F4F0E94B522BC01892B09F441C090915B
:104EA000E800977F9093E80089819A810E94CF2340
:104EB0008091E8008B778093E80032C0803881F5DC
:104EC0008091E800877F8093E8008091C5028093FD
:104ED000F1008091E8008E7772CF811121C080911E
:104EE000CC029091CD0299270297D4F48091E800EA
:104EF000877F8093E8008091CC028093C5020E9456
:104F000065248091C502811106C08091E30087FD70
:104F100002C081E001C084E08093C9020E94A82100
:104F20008091E80083FF0AC08091E800877F80932A
:104F3000E8008091EB0080628093EB00AA960FB6A8
:104F4000F894DEBF0FBECDBFDF91CF911F910895C2
:104F50000895CF938091C9028823A1F0C091E90000
:104F6000CF709091EC00892F817090FD80E8C82B64
:104F70001092E9008091E80083FD0E944826CF70DE
:104F8000C093E900CF9108950E94B7241092C902FE
:104F90000895E8EDF0E08081806180838AE18A9560
:104FA000F1F700C08091D9008170089597FB072E1A
:104FB00016F4009407D077FD09D00E94F02707FC73
:104FC00005D03EF4909581959F4F08957095619519
:104FD0007F4F0895EE0FFF1F0590F491E02D099487
:104FE000AA1BBB1B51E107C0AA1FBB1FA617B7070F
:104FF00010F0A61BB70B881F991F5A95A9F780952B
:105000009095BC01CD010895FB01DC0104C08D9198
:105010000190801921F441505040C8F7881B990B2A
:105020000895FB01DC0102C001900D9241505040F7
:10503000D8F70895F999FECF92BD81BDF89A9927C6
:1050400080B50895A8E1B0E042E050E00C944E280D
:10505000262FF999FECF92BD81BDF89A019700B431
:10506000021639F01FBA20BD0FB6F894FA9AF99AD1
:105070000FBE08950396272F0E9429280E942828F2
:10508000252F0E942928242F0C9429280196272FA8
:105090000E9429280C942828DC01CB01FC01F999F5
:1050A000FECF06C0F2BDE1BDF89A319600B40D9274
:0C50B00041505040B8F70895F894FFCF2D
:1050BC003002323633F6F5353431F700000000019A
:1050CC00BC020000000100000000BC020000000453
:1050DC0001000000BC020000000105000000BC0241
:1050EC000000000206000000BC02040800000000E2
:1050FC0000002808641E140A321E66C694971321F9
:10510C00682149214521412101323633F6F5E2006F
:10511C00E900EA00B500B600B700CD008301CC0071
:10512C008A01920194012102230224022502260203
:10513C0027022A02B300B4006F007000818283E260
:10514C0000E900EA00B500B600B700CD008301CC41
:10515C00008A0192019401210223022402250226D5
:10516C000227022A02B300B4006F00700081828310
:10517C00580200FF0100010000FFFF0000010001C8
:02518C00FF0022
:00000001FF
