:100000000C94AC010C94C9010C94C9010C94431FCD
:100010000C94C9010C94C9010C94C9010C94C90138
:100020000C94C9010C94C9010C9409250C94DD258C
:100030000C94C01D0C94C9010C94C9010C94C90105
:100040000C94C9010C94C9010C94C9010C94C90108
:100050000C94C9010C94631E0C94C9010C94C90141
:100060000C94C9010C94C9010C94C9010C94C901E8
:100070000C94C9010C94C9010C94C9010C94C901D8
:100080000C94C9010C94C9010C94C9010C94C901C8
:100090000C94C9010C94C9010C94C9010C94C901B8
:1000A0000C94C9010C94C9010C94C90114001A00E4
:1000B00008001500170004001600070009000A00D8
:1000C0001D001B00060019000500E000E3002C00E5
:1000D000000000001C0018000C00120013000B00B0
:1000E0000D000E000F002800110010003600370030
:1000F000E500500051002A00000000000000000050
:10010000000000002A2B2800000000000000000072
:100110000000000000000029000000002C1E342018
:10012000212224342627252E362D3738271E1F203E
:100130002122232425263333362E37381F04050683
:100140000708090A0B0C0D0E0F10111213141516C7
:100150001718191A1B1C1D2F3130232D35040506C5
:100160000708090A0B0C0D0E0F10111213141516A7
:100170001718191A1B1C1D2F3130354C00000000B8
:10018000000000000000000000000000000000006F
:10019000000000000000000000000000000000005F
:1001A0007E0F00D4FFFFFFC700000078100363003C
:1001B0006F006F006C0035003300360000000A034A
:1001C0006D002E006B0069000000040309040902A1
:1001D0005B00030100A0FA09040000010301010013
:1001E00009211101000122440007058103080001D3
:1001F000090401000203000000092111010001228D
:1002000022000705820320000107050303200001E7
:10021000090402000103000000092111010001226C
:10022000B60007058403200001120100020000004F
:1002300008434D36050001010200010660FF096117
:10024000A1010962150026FF0095207508810209A9
:1002500063150026FF00952075089102C00501096D
:1002600002A10185020901A100050919012908154A
:100270000025019508750181020501093009311534
:1002800081257F95027508810609381581257F959E
:100290000175088106050C0A38021581257F950134
:1002A00075088106C0C005010980A10185031901F7
:1002B0002AB700150126B700950175108100C00509
:1002C0000C0901A101850419012AA002150126A02B
:1002D00002950175108100C005010906A10185067E
:1002E000050719E029E71500250195087501810228
:1002F0000507190029EF1500250195F07501810208
:1003000005081901290595057501910295017503E7
:100310009101C005010906A101050719E029E715AA
:100320000025019508750181029501750881010577
:1003300007190029FF150026FF00950675088100A2
:10034000050819012905150025019505750191027A
:10035000950175039101C00011241FBECFEFDAE0B3
:10036000DEBFCDBF11E0A0E0B1E0ECE7F1E502C0F7
:1003700005900D92AC3BB107D9F722E0ACEBB1E0B0
:1003800001C01D92A43FB207E1F70E94AC130C9488
:100390006A280C940000811112C0683080F4453046
:1003A00070F4E42FF0E085E0689FE00DF11D11246A
:1003B000EE0FFF1FE455FF4F85919491089581E062
:1003C00090E0089581E008950E94E201089581E09F
:1003D00008950E94E20108950E94E9010895089598
:1003E0000E94EF010895A6E0B0E0E9EFF1E00C947F
:1003F000C62749835A839E833091C30189819A819C
:1004000031111AC03E81332399F0222389F00E94D2
:100410005E07182F682F89819A810E943A076981A7
:100420007A81812F0E94670E2696E3E00C94E227E2
:100430000E944C07182FF3CF0E945E0769817A81D2
:10044000F1CFFC01262F408151816281738184812B
:1004500095810E94F3010895CF93DF93EC0161E051
:100460000E942102BE010E94E401DF91CF91089514
:10047000CF93DF93EC0160E00E942102BE010E9455
:10048000F001DF91CF91089508950E9436060E94F1
:1004900044022FEF84E39CE0215080409040E1F73C
:1004A00000C0000008950E9445020E94871E089522
:1004B0000E9445020E94981E08950F931F93CF93A8
:1004C000DF938C0161E00E942102EC01B8010E94DF
:1004D000A816811106C080E0DF91CF911F910F9186
:1004E0000895B801CE010E94EC018823A1F3B80160
:1004F000CE010E94741B882371F3B801CE010E94C3
:10050000A717882341F3B801CE010E94E61A882379
:1005100011F3B801CE010E94B81B8823E1F2F80163
:100520008581882361F0C330FCE7DF07E9F058F4E8
:10053000C115ECE7DE07A9F0C130DC47B9F0C8010E
:100540000E94E701C9CFCB358CE7D807A9F0CC359D
:10055000ECE7DE0771F0CA35DC4789F70E94B60B7D
:10056000EECF0E945302B7CF0E94BE0B0E945802EA
:10057000B2CF0E94AC0BE3CF0E94BA0BE0CF0E9437
:100580009D1D0E94E60208950E94EA020E94A21D9B
:100590000895089581E008950895CF93DF93D82FAB
:1005A0000E94CA02C82F882319F08D2F0E94CC0206
:1005B0008C2FDF91CF9108950895CF93C82F0E947B
:1005C000C9028C2F0E94CD02CF91089580E00E9435
:1005D000DD0208950E94061C0E94DD020895CF935B
:1005E0000E94061CC82F8091BE018C1779F0C09321
:1005F000BE010E942C1E6093BF017093C0018093C6
:10060000C1019093C2018C2F0E94DD02CF91089509
:10061000ADE0B0E0EEE0F3E00C94C72748875987DF
:100620006A877B878C879D8791110E94E40A1F82CD
:1006300086E0FE013896DE01119601900D928A95B2
:10064000E1F78D8181110DC029813A814B815C8157
:100650006D817E818F810E94170A2D96E2E00C94B5
:10066000E327CE0101960E942C028111EDCFF5CF38
:10067000FC012481213021F4808191810E948B072B
:100680000895662329F00E9443140E9416150895C8
:100690000E949D14FACFCF93C82F8823B9F08CEF16
:1006A0008C0F813AA8F46C2F809100019091010188
:1006B0000E94A01C882329F08C2F0E94A40A0E946B
:1006C0001D0B8C2F0E949C0A0E941D0BCF91089538
:1006D00080E28C0F883048F4C77081E001C0880F39
:1006E000CA95EAF70E94C70AEFCFEBE5EC0FE330BB
:1006F00040F4F0E0EB59FE4F808190E00E94421CF4
:10070000E5CFE8E5EC0FEB3150F4F0E0EE0FFF1F22
:10071000E15DFE4F808191810E94671CD7CF83E30A
:100720008C0F833198F661E08C2F0E944103CECF6D
:10073000882381F19CEF980F913A28F40E94A40A33
:100740000E941D0B089590E2980F983050F4877026
:1007500091E001C0990F8A95EAF7892F0E94CD0A8E
:10076000EFCF9BE5980F933028F490E080E00E9453
:10077000421C089598E5980F9B3128F490E080E0A2
:100780000E94671C089593E3980F933118F460E07A
:100790000E94410308951F93CF93DF93182FEB011D
:1007A0000E944B03209739F4812F0E949803DF9118
:1007B000CF911F9108958FE99FE00197F1F700C055
:1007C00000002197EFCF70E060E0893311F460E51D
:1007D00070E00E94CB030895882321F00E94C70A8D
:1007E0000E941D0B0895882321F00E94CD0A0E94CB
:1007F0001D0B0895B0E0A0E0E0E0F4E00C94C02709
:100800006C01D62FC72FFC011581068102950F7050
:100810000E94BD0AE82E8823E9F0E12E1123D1F0D1
:100820008C2F807F803451F080E28D0F8830F8F07B
:10083000011104C08C2F807E8032C9F08091D002DB
:1008400082FF15C082E00E94800B0E94BD0A91E0E9
:10085000E82EE926BC2EB2949FE0B922FBE0FB15FE
:10086000B8F1EB2DF0E0E459F74D0C94AA27E12CF8
:10087000F1CF0C2F0F70C07F11F00295007F112374
:1008800099F0002359F080E28D0F883010F0D111DB
:1008900007C0802F0E94C70A0E941D0B8D2F5AC0CF
:1008A000802F0E94D70AF8CF8D2F0E949803002333
:1008B00079F080E28D0F883010F0D11104C0802FC4
:1008C0000E94CD0A03C0802F0E94DD0A0E941D0BEA
:1008D000EB2DE850FF0B349720F40E94061C0E9479
:1008E000DD02EE2089F00E94B90A80FD0DC0F601FC
:1008F00015820E94B30A0E94AE06C6010E94FD0541
:100900000E94B30A0E94BA06CDB7DEB7E9E00C94A4
:10091000DC272C2F2F70F22EC07FC03219F0F294FA
:1009200080EFF822DD2341F0D130D1F1112309F419
:1009300044C00023F1F0B2CF8091D00282FD15C0F7
:10094000112359F0FF2029F08F2D0E94C70A0E9421
:100950001D0B80E00E944B03BBCF80E00E949803F8
:10096000FF2009F4B5CF8F2DABCF112369F0011112
:1009700004C08F2D0E94EC03ABCF013009F0A8CF4B
:100980008F2D0E94FB0AA4CF0111A2CF8F2D0E94B0
:10099000F3038F2D0E94070B8F2D0E94EB0A98CF37
:1009A000112321F0063008F093CFE3CF053008F093
:1009B0008FCF8F2D0E94F3038BCF0023D1F3D93338
:1009C00049F43FEF87EE93E0315080409040E1F7EB
:1009D00000C000008D2F0E9498037ACF8C2F86953F
:1009E0008695837069F0813009F072CF8D2F9C2F2E
:1009F0009370111102C080E090E00E94671C68CFE4
:100A00008D2F9C2F9370111102C080E090E00E9406
:100A1000421C5ECF612F8D2F0E94410359CF8C2F36
:100A2000837079F5111154CF4D2F4295469547703B
:100A3000440F440F8D2F8F70042E01C0880F0A942D
:100A4000EAF72D2F2071D4FF07C02FE030E001C05E
:100A5000220F4A95EAF72095C695C695C370822B5A
:100A6000C23049F058F4C13019F00E948A0630CFE4
:100A70000E9484062DCF0E9490062ACF0E948106F4
:100A800027CF8695112311F08C2F8170882309F4CC
:100A90001FCF4D2F429546954770440F440F8D2F21
:100AA0008F70042E01C0880F0A94EAF72D2F207151
:100AB000D4FF07C02FE030E001C0220F4A95EAF7CB
:100AC0002095C695C695C370822BC23049F058F464
:100AD000C13019F00E94D906FBCE0E94D306F8CE91
:100AE0000E94DF06F5CE0E949C06F2CECF70112345
:100AF00029F08C2F0E94AE068D2F3CCF8D2F0E94A7
:100B0000F3038C2F0E94BA06E3CED23F41F160F48A
:100B1000D03FB9F0D13F81F0112309F446C0011153
:100B2000BDCE8C2F8F711FC0D33F01F1D43FA1F7F1
:100B30008091D00282FD24C08C2F8F71112311F37C
:100B400012C0112341F0053008F0C2CE8C2F8F71F6
:100B50000E94C706BDCE063008F0BACEF7CF8C2F64
:100B60008F711111CFCF0E94AE06B2CE112329F0A2
:100B70008C2F8F710E94A506ABCE0E94A106A8CE35
:100B8000112349F0CF718C2F0E94AE0663E08C2FA9
:100B90000E94620B9DCE81E00E94800B023008F41F
:100BA00097CE82E00E94800B93CE002359F0D93378
:100BB00009F010CFEFEFF7EE23E0E150F0402040D6
:100BC000E1F706CF8C2F8F719DCF0F931F93CF939B
:100BD000DF93EC01688179818D810E9496078C01F9
:100BE0000E94E5060E948006B801CE010E94FA0329
:100BF000DF91CF911F910F910895CF93DF93EC0177
:100C00008C81882399F0CE010E945D02811111C070
:100C10000E94BD0A882351F08D81882339F080918C
:100C2000D00282FF03C082E00E94800BDF91CF914F
:100C30000895CE010E94E505CE010E943802F6CF4C
:100C400090E080E00E94421C90E080E00E94671CDF
:100C50000E94E40A0E941D0B0E9432150E94161584
:100C600008950E94AC0A0E94200608950E94D40AAA
:100C70000E943106089592959F70963091F058F435
:100C8000925F9F70923058F4803F19F030F4883EA4
:100C900030F481E008959A5FF4CF843FD1F380E08F
:100CA0000895883EB0F3813FD1F7F3CFFC01248152
:100CB000222339F0808191810E948B070E943B069C
:100CC000089580E00895A6E0B0E0E9E6F6E00C942F
:100CD000C7272696E2E00C94E327A7E0B0E0E3E71D
:100CE000F6E00C94C7272796E2E00C94E3270895DA
:100CF0000E94770608950E9478068093D401089593
:100D000008950E947B0608959091D401892B0E943A
:100D10007B0608959091D40189230E947B06089553
:100D20009091D40189270E947B0608950E9477063E
:100D300008950E94960608950E9499068093D30113
:100D4000089580E00E949C06089591E001C0990FEB
:100D50008A95EAF7892F0E949C06089521E030E0E9
:100D600001C0220F8A95EAF78091D301822B0E945D
:100D70009C06089521E030E001C0220F8A95EAF731
:100D800020958091D30182230E949C06089521E042
:100D900030E001C0220F8A95EAF78091D3018227C3
:100DA0000E949C0608959091D301892B0E949C0675
:100DB00008959091D30189230E949C0608959091F3
:100DC000D30189270E949C0608950895262F277035
:100DD00091E001C0990F2A95EAF723E0769567958F
:100DE0002A95E1F7FB01EE0FFF1FE60FF71FE40F57
:100DF000F51F50E040E0682F70E08191DF0111970E
:100E00009B01042E02C0369527950A94E2F72170C3
:100E100021952827292328272C934F5F5F4F4330A4
:100E2000510559F70895A82FA77023E09695879547
:100E30002A95E1F7FC01EE0FFF1FE80FF91FE60FFF
:100E4000F71F50E040E080E0219130E00A2E02C020
:100E5000369527950A94E2F721703327042E01C0B6
:100E6000220F0A94EAF7822B4F5F5F4F4330510500
:100E700059F70895262F983070F4853060F4682F64
:100E800070E085E0989F600D711D112444EC51E0E5
:100E9000822F0E94E6060895292F983068F4853045
:100EA00058F490E064EC71E035E0239F800D911DD3
:100EB00011240E941307089580E00895CF92DF92D5
:100EC000FF920F931F93CF93DF936C010091D30197
:100ED0008091D401082BC3E0D0E010E0FC2EC801C3
:100EE0000C2E02C0959587950A94E2F780FD0CC000
:100EF0002197A0F7F12C8F2DDF91CF911F910F91AA
:100F0000FF90DF90CF900895B6018C2F0E94730E52
:100F1000019771F3F0CFCF93DF93EC010E945E074E
:100F2000BE010E94730EDF91CF9108951F93CF935E
:100F3000DF93EB019091C301992339F0CB010E941B
:100F40008B07DF91CF911F910895882369F0CB0122
:100F50000E945E07182F682FCE010E943A07BE013B
:100F6000812F0E94730EEDCFCB010E944C07182FEA
:100F7000F6CFE1E0F0E0DF0102C0AA0FBB1F6A95E7
:100F8000E2F7BD01DF0102C0AA0FBB1F4A95E2F7DD
:100F90006A2B01C0EE0F2A95EAF7962F9823961335
:100FA00002C08E2B0895E0958E230895242F462F9E
:100FB000682F8091D3010E94B9070E949C06089572
:100FC0001F93CF93DF93C091D50117E08091D60195
:100FD0008C1304C0DF91CF911F910895D0E01C9F26
:100FE000F0011D9FF00D1124E952FE4F2081318147
:100FF000428153816481758186810E946D062196AC
:10100000C770E4CF20910F0230911002409111027D
:101010005091120260911302709114028091150296
:101020000E946D060895CF93DF9380911502807F13
:1010300009F04DC080911402882309F448C0E09162
:10104000D5015091D601C0911002D0910F0260914C
:1010500011027091120247E05E17C9F18E2F90E0E5
:10106000E49FF0011124E952FE4F2481222391F1E3
:10107000489FF001499FF00D1124DF01A952BE4F96
:1010800011962C9111972C1325C02C912D1322C051
:1010900015962C91159721111DC012962D913C91FA
:1010A000261B370B283C3105A8F4809115028F7060
:1010B000806180931502E352FE4F80818F708061C2
:1010C00080838FE092E00E94FD050E94E007DF919F
:1010D000CF910895FC013196E770BECF482F209143
:1010E000D5019091D60157E0291302C080E0089500
:1010F00030E0529FF001539FF00D1124E952FE4F52
:101100008181681306C08081481303C085818111E5
:10111000EECF2F5F3F4F2770E7CFA4E1B0E0E3E9C8
:10112000F8E00C94BD278C0186E0F801DE011F96E3
:1011300001900D928A95E1F7F8018481E5809FE0A6
:10114000A92E92E0B92E9091130291111FC088230D
:10115000D1F0EE20A9F0C8010E945606F82E88238F
:1011600079F087E0F801D50101900D928A95E1F7B9
:10117000C5010E9438030E9413080E9402085FC044
:10118000C8010E94FD05FF24F39459C0C080D1809E
:1011900082809380F090140220911102309112020B
:1011A000A401421B530BFF2009F4F9C0483C510530
:1011B00008F0A7C0882309F442C0909110028091E2
:1011C0001502282F207F09F05CC09D1116C0909158
:1011D0000F02C91212C0E1104EC08F70806180935F
:1011E00015020E9402088FE092E00E94FD058091A6
:1011F0001502F8018683F12C22C0E1103CC06D2D50
:101200008C2D0E946E086D2D8C2D0E946E08E82E8C
:101210008111F1CFCF86D88A8F8598890E948B075C
:10122000292F22952F70243078F49F702230A8F057
:101230009923B9F0F8019681907F99F4FE2C8F2DB7
:101240006496ECE00C94D9272A5F2F70223068F066
:10125000C8010E94FD05EF2CF1CF992311F08823DE
:1012600069F3805E883050F3F3CF803F38F3815FBD
:10127000833070F7E3CF809115028160809315026F
:10128000BACF9D1113C090910F02C9120FC0E11087
:101290000DC08683C8010E94FD0587E0F801AFE01C
:1012A000B2E001900D928A95E1F767CFC8010E94E4
:1012B0005606882309F464CFEE2009F461CF8091AB
:1012C0001502803288F020910F0230911002398788
:1012D00028879B868A86909113029C871D868E871D
:1012E000CE0108960E94FD0587E0F801AFE0B2E06C
:1012F00001900D928A95E1F70E9413080E9402085E
:1013000042CF90911502292F207FA1F4682D9A8A4F
:10131000898AA6017A899E2D0E9463068FE092E059
:101320000E94FD0587E0F50111928A95E9F70E9478
:10133000020861CF882309F482CF809110028D11B9
:1013400010C080910F02C8120CC0E1100AC0968331
:10135000C8010E94FD0587E0F50111928A95E9F721
:101360006ECFC8010E945606882309F409CFEE20EB
:1013700009F406CF80911502803208F4B5CF209190
:101380000F02309110023A8329839C828B829091C4
:1013900013029D831E828F83CE010196A3CF483C0A
:1013A0005105B8F5882309F4EECEFE2CEE2009F4A1
:1013B000E7CE809110028D111EC080910F02C812DD
:1013C0001AC08091150280FD0DC0982F907F51F0BA
:1013D0008683903F09F45ECF982F907F905F8F7047
:1013E000892B57CF87E0F801AFE0B2E001900D9272
:1013F0008A95E1F724CFC8010E945606811174CF67
:1014000080911502816080931502C8010E94FD053C
:1014100016CF682D9A8A898AA6017A899E2D0E9404
:10142000630687E0F50111928A95E9F7A6CEAEE052
:10143000B0E0EDE1FAE00C94C627288739874A87A7
:101440005B876C877D878E87CE0108960E948D080A
:101450008823B1F06C85662341F0288539854A855B
:101460005B857D858E850E946D0617E08091D50194
:101470009091D60189133DC02E96E3E00C94E227AB
:1014800087E0FE013896DE01119601900D928A9553
:10149000E1F78C85882349F32091D60130E0C9011A
:1014A0000196877099274091D5014817190699F040
:1014B00097E0929FD001939FB00D1124A952BE4F87
:1014C000FE01319601900D929A95E1F78093D60135
:1014D0000E94E007CACF0E9436061092D6011092F1
:1014E000D50187E0EFE0F2E0DF011D928A95E9F790
:1014F000BCCF819FC001112489529E4F0E948D084C
:10150000882309F4B9CFE091D5011E9FF001112481
:10151000E952FE4F2081318142815381648175817E
:1015200086810E946D068091D50190E001968770BA
:1015300099278093D5019ACF682F809100019091CF
:1015400001010E94201D0895682F80910001909153
:1015500001010E942E1D08958091000190910101CA
:101560000E943C1D08958091360286958695869549
:101570000895809136028770089590913602977091
:1015800081E009F480E0089580915A0208959091D5
:101590005A02892B80935A020895809590915A029D
:1015A000982390935A02089510925A0208959091A8
:1015B0005902892B80935902089580959091590280
:1015C000982390935902089510925902089508950E
:1015D0000E94E70A089590913702292F282331F0BD
:1015E00080958923809337020E94E80A0895089520
:1015F0000E94F70A089590913802292F282328176E
:1016000029F0982B909338020E94F80A089590913F
:101610003802292F282331F08095892380933802BE
:101620000E94F80A089580913802882329F01092C8
:10163000380280E00E94F80A0895CF93DF93E0918A
:101640000001F091010180915A028083E091000134
:10165000F0910101808190915902892B80839091B2
:101660003802992381F0E0910001F091010180811D
:10167000892B808380910001909101010E948C1C34
:1016800081110E94130BC0910001D091010140E231
:1016900050E066E172E0CE010E940228892B59F0E9
:1016A00080E2FE01A6E1B2E001900D928A95E1F799
:1016B000CE010E941A1CDF91CF91089508950E94D7
:1016C0005E0B08959091D00292FF11C098E0899F1F
:1016D00090011124622B609336020E94AE06809125
:1016E00036028695869586950E945F0B08950E9426
:1016F000AE0608951092360280E00E945F0B0895B6
:10170000909136028095892380933602282F277086
:1017100069F4891759F09091D00292FF07C086951D
:10172000869586950E94BA060E947A0B089590913C
:10173000D00292FB222720F9281769F080FB92F94A
:101740009093D0028091CF029091D0020E94E00B42
:1017500082E00E94800B08958091D00282FB88274E
:1017600080F991E089270E94970B089581E00E94FB
:10177000970B089580E00E94970B08956FEF7FEF1D
:1017800090E080E00E945428089590E080E00E945C
:101790002028863E9E4F19F40E944216089580E04C
:1017A000089582E090E00E941828089583E090E078
:1017B0000E941828089584E090E00E94202808954F
:1017C000BC0184E090E00E9454280895AB01BC0164
:1017D0008FE090E00E9448280895AB01BC0183E1AE
:1017E00090E00E944828089560E070E0CB010E94DC
:1017F000ED0B089560E070E0CB010E94E60B0E94C3
:10180000F40B0895A8E0B0E0E8E0FCE00C94C727F2
:1018100066EE7EEF90E080E00E94542860E082E077
:1018200090E00E94362860E083E090E00E94362835
:101830001092D40160E074E184E090E00E945428AA
:1018400060E086E090E00E9436286FEF87E090E04D
:101850000E94362840E050E0BA0188E090E00E9403
:10186000482860E084E290E00E94362860E087E14A
:1018700090E00E94362860E08CE090E00E943628DC
:1018800060E08DE090E00E94362819821A821B8267
:101890001C821D821E821F82188648E050E068E18B
:1018A00070E0CE0101960E94262840E050E0BA0187
:1018B00080E290E00E94482880E00E945B160E942F
:1018C0008A160E94FA0B2896E2E00C94E3270E9405
:1018D000020C0895682F8EE090E00E94362808954B
:1018E000A6E0B0E0E6E7FCE00C94C5270E94201ECD
:1018F0008C0180915B0290915C028017910781F0CE
:1019000019821A820E94201E682F49815A81792FDC
:1019100080E090E00E94080310935C0200935B0259
:101920002696E4E00C94E1270E948F0F60936902F1
:1019300070936A0280936B0290936C0260936502CD
:1019400070936602809367029093680208950895E9
:1019500008950E94A70C089508950E94AC0C089564
:1019600081E0089589EA9FE00E94B9130E94A80CC3
:101970000E94A90C08950E94A01108950895089549
:101980000E94BE0C0E94BF0C08950E94C80F0E94C6
:10199000DC0208950E94171E0E94690F0E949A1689
:1019A0000E94BB110E94FD100E94C50C0E948F175F
:1019B0000E94C5110E94AD0C0895A6E0B0E0E3EED0
:1019C000FCE00C94BE270E94B00C81110CC00E9458
:1019D000700C0E94A0110E9454150E94EF022696DE
:1019E000EBE00C94DA270E9420118DE5A82E82E00E
:1019F000B82E750110E0F70101917F01812F0E943F
:101A0000EB0F1F5F183009F441C00817A1F3809154
:101A10006D0281FD0E94F10F0E94BB0CC82E10E0E8
:101A200099249394812F0E94EB0F082FF501819147
:101A30005F01081729F1D02ED826F12CEE24E3946B
:101A40008D2D8E21A9F0CC2099F0F9821A830E9465
:101A5000201E9C838B839D8291E0802F8E2109F430
:101A600090E049815A816B817C818D810E940803BD
:101A7000F394EE0CF5E0FF12E3CFF501319700830C
:101A80001F5F183079F60E94940CA3CF0813BFCFC4
:101A90009ECF1F93CF93DF930E94780EEC01C11568
:101AA00080E5D807F0F5C11580E4D80708F09CC0A0
:101AB000C03ED10520F5CD3CD10508F082C0C83A22
:101AC000D10578F4C53AD10508F073C0C130D1050D
:101AD00019F1209709F1C430D105F0F4D0E0C0E04D
:101AE0001BC0C33CD105D0F7C85AD0E0CC0FDD1FD6
:101AF000C859DE4F0990D881C02DD4640DC0C115DE
:101B000080E2D80708F0D1C0C11581E0D80708F0FD
:101B10005AC0C83ED10510F7CE01DF91CF911F9179
:101B20000895C03682E5D80718F5C03482E5D80795
:101B300008F06BC0C03282E5D80708F05FC0C1155D
:101B400082E5D80708F497C02C2F2695269580E2C9
:101B5000289F900111248C2F8370C1E0D0E002C037
:101B6000CC0FDD1F8A95E2F7C22BD32BDD68D4CFD3
:101B7000C03A82E5D80760F4C03882E5D80708F497
:101B800059C0CF71D0E0DC2FCC27C46FD06AC4CF4E
:101B9000C03C82E5D80708F462C0C03E82E5D807A1
:101BA00008F09CCFDC2FCC27CC27DF71C06FD06A28
:101BB000B3CFC55AD0E0C256DE4FC881D0E0D06462
:101BC000ABCFD065A9CF8D2F0E941A0F182FCE0151
:101BD00099270E94780EC12FD0E0DC2FCC27CC278C
:101BE000DF71C82BD92B98CFCE0199270E94780E90
:101BF000CC27DF70C82BD92BD06A8ECFCF71D0E025
:101C0000DC2FCC27C16FD06A87CF2C2F2695269545
:101C1000277080E2289F900111248C2F8370C1E0EF
:101C2000D0E002C0CC0FDD1F8A95E2F7C22BD32B88
:101C3000DC6872CF2C2F26952695277080E2289F8E
:101C4000900111248C2F8370C1E0D0E002C0CC0F32
:101C5000DD1F8A95E2F7C22BD32BDA685DCF8C2F7C
:101C60008F710E941A0FC82FD0E0DC2FCC27CC2711
:101C7000DF71D06251CF8C2F8F710E941A0F55E007
:101C8000D695C7955A95E1F7CF70D0E0DC2FCC27D9
:101C9000282F30E084FF05C044E0220F331F4A950F
:101CA000E1F7C22BD32BD06937CF8D2F8F710E94D4
:101CB0001A0F182FCE0199270E94780EC12FD0E05D
:101CC000DC2FCC27CC27DF71C82BD92BD2CF462FC6
:101CD000783030F4653020F4672F0E94FE190895A3
:101CE00090E080E008950E94670E0E94490D0895DB
:101CF00082389105B9F1B0F48133910509F47DC0C2
:101D000048F48932910509F46DC08A32910509F4CD
:101D10007BC008958533910509F45FC0893391052F
:101D200009F10895833E9105D9F138F4803E91057B
:101D300029F1823E910579F10895863E9105D9F108
:101D4000873E910509F43EC0843E910541F52091FE
:101D5000D00221FF24C08091CF0284FD19C087EEFC
:101D600090E008952091CF02237009F05AC020918D
:101D7000D00223FF14C089E290E008952091CF02A1
:101D800020FD38C03091D00230FF09C024FF43C08D
:101D900090E080E008952091CF0222FDF7CF0895D2
:101DA0002091CF0222FD3AC03091D00230FD39C0DF
:101DB00024FFF5CFEDCF2091CF0223FFF0CF24FDFC
:101DC000E7CFCDCF2091CF0223FD2EC03091D0029E
:101DD00031FFEECF84EE90E008952091CF0225FFF1
:101DE000DECFC9CF2091CF0225FD21C02091D002A6
:101DF00023FFD5CF89E390E0D2CF2091CF0226FFF9
:101E0000CECF8AE290E008952091CF0226FFC7CF7F
:101E100081E390E0089583EE90E0089582EE90E0F3
:101E2000089580EE90E0089586EE90E0089585E3B1
:101E300090E008959091CF0292FF10C041E0282FCA
:101E40002471243009F040E031E0282F2871283037
:101E500009F030E0431711F02CE0822793FF10C007
:101E600041E0282F2471243109F040E031E0282F8F
:101E70002871283109F030E0431711F02CE0822757
:101E80003091D00230FF10C051E0282F2171213055
:101E900009F050E041E0282F2871283009F040E097
:101EA000541711F029E0822731FF10C041E0282F9C
:101EB0002171213109F040E031E0282F28712831CB
:101EC00009F030E0431711F029E0822794FD877E66
:101ED00008951092CB021092CC021092CD02109273
:101EE000CE020895CF92DF92EF92FF926B017C01B8
:101EF0000E94A01181110EC00E942C1EC61AD70A82
:101F0000E80AF90AC092CB02D092CC02E092CD024C
:101F1000F092CE02FF90EF90DF90CF9008950F9354
:101F20001F930E94A011882329F00E942C1E1F914C
:101F30000F9108950E942C1E0091CB021091CC02AB
:101F40002091CD023091CE02600F711F821F931F2E
:101F5000EECF80E008950E94BE0B08950E942011EC
:101F60002FEF86E791E0215080409040E1F700C0DC
:101F700000000E94201180E00E94EB0F80FF04C04F
:101F80000E94AB0F0E94871E08950E94AE0F089515
:101F90000E94C50B811102C00E94670C0E94D10BE8
:101FA00080936D020E94DB0B9093D0028093CF024E
:101FB0000E94C50F0E94D60B0E9481068091D3011A
:101FC0000E949906089508950E94E30F08950895C8
:101FD0000E94E70F0895E82FF0E0E652FD4F808160
:101FE0000895089580EA8A95F1F7089500C008954C
:101FF0000E94F20F089508950E94FB0F0895EF923A
:10200000FF921F93CF93DF9300D000D0CDB7DEB700
:102010000E94A011182F6091E202882309F447C0A2
:1020200019821A821B821C82862F90E09E012F5FEC
:102030003F4F7901B90186529D4F0E94D3118823E9
:10204000E9F08091D10290E044E050E0B70186527F
:102050009D4F0E94022821E020936E02892BC9F433
:1020600010E00E94E80F812F0F900F900F900F90BB
:10207000DF91CF911F91FF90EF90089580916E02B4
:10208000882371F384E0F70111928A95E9F71092A1
:102090006E02E091D102F0E0E652FD4F89819A8113
:1020A000AB81BC8180839183A283B383DACF70E05C
:1020B00066527D4F8091D10290E086529D4F0E94E2
:1020C0005A120E94FC0FCFCFF894E82FE295EF70E0
:1020D000F0E031A1282F2F7081E090E001C0880F3F
:1020E0002A95EAF7982F9095932391A392A1892B93
:1020F00082A378940895CF93DF93C1EAD1E08991C8
:102100008F3F11F00E94641081E0C63AD807B9F7FA
:1021100085E30E94641084E30E94641081E30E94BE
:10212000641087EF0E946410DF91CF910895B0E0B2
:10213000A0E0EDE9F0E10C94C1277C01162F042FFB
:10214000C62FD0E0CF55DE4F28812F3F09F44CC079
:10215000F894E22FE295EF70F0E031A12F7081E06A
:1021600090E001C0880F2A95EAF7932F982B91A34E
:1021700092A18095892382A378940E94F60F86EA23
:10218000C82E81E0D82EF701A7014C5F5F4FF12CDC
:10219000E02EE094D6019D916D0181919F01215027
:1021A00031099F3F31F1692F62956F7070E0DB015B
:1021B00090966C9170E09F7002C0759567959A95A6
:1021C000E2F760FD16C0802BD9018C93FF24F394B5
:1021D000E417F507F9F688818F3F11F00E9464102B
:1021E0006F2D812F0E94F80FCDB7DEB7E8E00C9479
:1021F000DD278E21D9018C93EBCF80910201809154
:10220000020194E0811190E09093E20284E0891B46
:102210008093D1020E947B1088E0EAEDF2E0DF01BA
:10222000982F1D929A95E9F7E2EDF2E0DF011D92F9
:102230008A95E9F784E00E9462110E94E40F0895F4
:10224000A8E0B0E0E6E2F1E10C94C3278E010F5F55
:102250001F4F88E0F80111928A95E9F7F12CEE24DE
:10226000E3944E2D6F2DC8010E949710F394EE0C4D
:10227000F5E0FF12F6CF48E050E0B80182ED92E0C1
:102280000E94022821E0009709F420E0892B41F008
:1022900088E0F801A2EDB2E001900D928A95E1F795
:1022A0006091E20270E066527D4F44E082ED92E080
:1022B0000E946311182F0E94FF0F812B2896E6E0E1
:1022C0000C94DF270895CF92DF92EF92FF920F9345
:1022D0001F93CF936C017B01042F222349F081E0EF
:1022E000809371020E94201E9093700280936F026F
:1022F000C0917102C1110AC0C0E08C2FCF911F9113
:102300000F91FF90EF90DF90CF90089580916F0232
:10231000909170020E94381E059770F310E0A8019A
:10232000B601C7010E940228892B41F0A801B6011D
:10233000C7010E940F2810927102DFCFC0E0FBCFCF
:1023400080917402811107C00E948927882351F06F
:1023500081E08093740281E090917402913009F0E1
:1023600080E0089582E0809374020E948427F3CF76
:102370000E94A01108950E94B811809302010E944A
:10238000A01181110E94091208950E94A0118111CB
:1023900002C00E940C12089581E0909175029A305B
:1023A00008F080E008950F931F93CF93DF93EC0123
:1023B0008B01809175028A30B8F4B801CE010E9479
:1023C0005712C82F811122C0809175028F3FB9F436
:1023D0000E94201E90937302809372028C2FDF91D3
:1023E000CF911F910F910895809172029091730285
:1023F0000E94381E843F914000F7C0E0EFCF8F5F0E
:10240000809375028A3020F7C1E0E8CF1092750200
:10241000E5CF0E94FD1E08950E94001F0895B0E0C0
:10242000A0E0E5E1F2E10C94C2277901C82F880F02
:10243000DD0B41155105A9F0FE0193E0EE0FFF1FE2
:102440009A95E1F7ED5FFE4F818192818A589D4F09
:10245000208130E04217530708F49A01A9010E9435
:102460000F28CE010E94E91FD82E8823D1F0011534
:102470001105B9F083E0CC0FDD1F8A95E1F7FE016D
:10248000ED5FFE4F438150E00417150708F4A801E3
:10249000CD5FDE4F6C817D816A587D4FC7010E9400
:1024A0000F288D2DCDB7DEB7E7E00C94DE270E9414
:1024B000511308950E9468130895A4E0B0E0E3E684
:1024C000F2E10C94C52760918B0270918C0280918F
:1024D0008D0290918E020E94471E11E064367105B4
:1024E0008105910518F10E948F0F6E5F7F4F8F4F0E
:1024F0009F4F69837A838B839C8310E000E030E0F8
:1025000020E044E050E0BE016F5F7F4F82E00E9418
:102510000F12182F882351F00E942C1E60938B02FB
:1025200070938C0280938D0290938E02812F24965B
:10253000E4E00C94E127B0E0A0E0E1EAF2E10C94E1
:10254000BF277C015B016A010E94CC1101E010E011
:10255000882311F00AE010E0C1E0D0E0B501C70126
:10256000F6010995811104C021960C171D072CF462
:10257000CDB7DEB7EAE00C94DB27CC9F9001CD9F6E
:10258000300D300D112490E080E045E34A95F1F7DD
:102590000000019682179307C1F7E0CFA5E0B0E0F5
:1025A000E4EDF2E10C94BF275B01E090AA01F0900A
:1025B000AB0101E010E09E012B5F3F4F50E040E097
:1025C00070E060E080E00E940F12182F882309F469
:1025D0004BC067018FEFC81AD80A609187027091CB
:1025E00088028091890290918A020E94471E643677
:1025F00071058105910580F104E010E09E012F5FD7
:102600003F4F50E040E070E060E081E00E940F1238
:10261000F82E64E070E0C6010E94901711E09D81E1
:10262000981310E01F2159F10E942C1E609387021D
:10263000709388028093890290938A0289819A819B
:10264000AB81BC818093830290938402A093850226
:10265000B093860211E013C064E070E0C6010E94EE
:1026600090179D818913C8CFF70181819281A38141
:10267000B48189839A83AB83BC831111DFCF8091AE
:10268000830290918402A0918502B0918602F501A7
:1026900080839183A283B383812F2596EAE00C94F3
:1026A000DB270F931F93CF93DF93EC018B014EEC4D
:1026B00052E10E949B12882331F04DE552E1B801AE
:1026C000CE010E949B12DF91CF911F910F9108952F
:1026D0000F931F93CF93DF93C091AA01D091AB01C9
:1026E000CE01019624E0FB01DC0101900D922A95B8
:1026F000E1F764E070E00E94901788836D817E812D
:102700008F81988500917F02109180022091810233
:1027100030918202601771078207930751F060932E
:102720007F027093800280938102909382020E94C4
:10273000720FDF91CF911F910F9108950E94DE21BA
:102740000E94CA0C0E94EB2108950E94F0210E9471
:10275000DD0C0E940A2208950E94B91D0E94C42126
:102760000E94B20C0E949E130E94A5130E94C00CEE
:10277000FBCF9093BD018093BC010895282F35EBCA
:102780002303C001112497FF04C080589109892FA9
:10279000089580589F4FFBCF8091950280FF0DC018
:1027A0006091200170E0660F771F6038710570F549
:1027B0006115710569F1862F089581FF07C0609149
:1027C000200184E0689FB0011124EFCF60912001C7
:1027D00082FD0AC0809194028823A9F020911F01F4
:1027E00060912001821710F088E0ECCF869FC00135
:1027F000112433E0880F991F3A95E1F7622F70E0BA
:102800000E949627D2CF68E070E0D5CF8FE7089579
:1028100081E008958091950280FF0CC060911C01B9
:1028200070E075956795759567956115710549F126
:10283000862F089581FF06C060911C0170E0759598
:102840006795F3CF60911C0182FD0BC090919302BC
:102850009923A1F060911B0180911C01961738F01B
:10286000682F70E06038710500F38FE70895899F45
:10287000C001112470E00E949627F4CF61E070E05F
:10288000D7CF81E008958D3C31F40E94CC1381951F
:102890008093990208958E3C19F40E94CC13F8CFCE
:1028A0008F3C31F40E94CC13819580939802089557
:1028B000803D19F40E94CC13F8CF893D29F40E9481
:1028C0000A1480939A0208958A3D21F40E940A1402
:1028D0008195F7CF8B3D31F40E940A148195809346
:1028E0009B0208958C3D19F40E940A14F8CF9FE2D0
:1028F000980F983070F4815D990B21E030E001C0B1
:10290000220F8A95EAF780919702822B8093970293
:1029100008958D3D31F480919502816080939502F8
:1029200008958E3D21F4809195028260F7CF8F3D0E
:10293000B9F7809195028460F1CF409198028D3C67
:1029400059F48091990287FF0DC0109299024111AC
:102950000BC01092940208C08E3C81F480919902C1
:1029600018169CF3442381F080919A0290919B0267
:10297000892B09F05AC01092930208958F3C49F4B4
:1029800047FFF0CF10929802809199028111ECCF0D
:10299000E0CF803D19F41416ACF3E4CF90919A0285
:1029A000893D29F41916F4F610929A02DBCF8A3D7C
:1029B00019F497FFD7CFF8CF90919B028B3D29F464
:1029C00097FFD0CF10929B02CDCF8C3D19F41916F2
:1029D000CCF3C8CF9FE2980F983090F4815D990BAB
:1029E00021E030E0B90102C0660F771F8A95E2F757
:1029F000CB01809590919702892380939702B2CF63
:102A00008D3D31F4809195028E7F80939502AACFFF
:102A10008E3D21F4809195028D7FF7CF8F3D09F097
:102A2000A1CF809195028B7FF0CF08950E94201E48
:102A30009C019091980280919902982B21F03093FB
:102A400092022093910290919A0280919B02982B7E
:102A500021F03093900220938F0286E992E00E9449
:102A6000341C089586E0E6E9F2E0DF011D928A95C4
:102A7000E9F7109294021092930210929502089531
:102A8000FC01828181110EC0838181110BC0848180
:102A9000811108C091E08581811101C090E0892FEA
:102AA0008170089581E0FCCFA6E0B0E0EAE5F5E1B1
:102AB0000C94C62786E0E6E9F2E0DE01119601906B
:102AC0000D928A95E1F71092980210929902109255
:102AD0009A0210929B028B819C81892B89F08091B4
:102AE0009102909192020E94381EAC019091940242
:102AF0009923C9F1809121018417150608F440C07B
:102B00008D819E81892B91F080918F02909190020E
:102B10000E94381EAC0190919302992309F46AC077
:102B200080911D018417150608F472C0BE016F5F05
:102B30007F4F86E992E00E944E1D811105C086E913
:102B400092E00E94401581110E94161586E0FE0158
:102B50003196A6E9B2E001900D928A95E1F72696AA
:102B6000E3E00C94E227209122018AE0289F900163
:102B700011242417350720F69F5F9093940202C01A
:102B80009F3FD1F71B81112359F00E94CC139FEF77
:102B900011160CF491E0899F802D112480939802E6
:102BA0001C81112359F00E94CC139FEF11160CF4D5
:102BB00091E0899F802D1124809399028091980241
:102BC000882309F49DCF10919902112309F498CF1D
:102BD0000E94BE13882351F080939802812F0E9497
:102BE000BE13882329F0809399028ACF81E0F4CF25
:102BF00081E0F9CF20911E018AE0289F90011124E5
:102C00002417350708F092CF9F5F9093930202C07C
:102C10009F3FD1F71D81112359F00E940A149FEFA5
:102C200011160CF491E0899F802D112480939A0253
:102C30001E81112359F00E940A149FEF11160CF403
:102C400091E0899F802D112480939B0280919A02AC
:102C5000882309F46BCF10919B02112309F466CFEE
:102C60000E94BE13882351F080939A02812F0E9404
:102C7000BE13882329F080939B0258CF81E0F4CFC4
:102C800081E0F9CF85E290E00E941828833289F430
:102C900086E290E00E941828893059F487E290E09B
:102CA0000E94182891E0843109F090E0892F81700A
:102CB000089580E0FCCFCF93C82F6FEF811163E2BE
:102CC00085E290E00E9436286FEFC11169E086E24C
:102CD00090E00E9436286FEFC11164E187E290E036
:102CE0000E943628CF910895089588E290E00E94CE
:102CF0001828682F70E090E080E008950895CF9341
:102D0000C62F0E947E166C2F88E290E00E94362823
:102D1000CF91089580E00E945B1660E070E0CB01E7
:102D20000E947F160E9496190E94591A81E00E9403
:102D30005B1608950E9474160E9475160E947E16F6
:102D40000E944216811102C00E948A1608950895B9
:102D50009C01FB018581882351F0A9015757403818
:102D6000510530F4822F0E94691A80E0089581E0B5
:102D700008952FEFFC01208308950E94B91608954D
:102D800080E00895B0E0A0E0E8ECF6E10C94C12703
:102D9000EC01E62E0E94C016811110C0E881E150BE
:102DA000E331B8F4F0E0E858F74D0C94AA27198203
:102DB0008CE08A836E2DCE010E94B820CDB7DEB79D
:102DC000E8E00C94DD2789818230C1F028F481305D
:102DD00061F08FEF8883EECF833099F08430C9F7AC
:102DE0001A821B821C821D82E5CF0E942C1E0E942B
:102DF000B0276A837B838C839D83DCCF0E9475160A
:102E0000F6CF8A81082F10E06E0193E0C90ED11C25
:102E10009CE1F92EF80E0830110560F6802F0E9413
:102E2000EB0FF60181936F010F5F1F4FF012F3CF8D
:102E3000C1CF8981823031F0853059F68A810E9474
:102E4000A716B8CF6A817B818C819D810E94B027B3
:102E50000E947F16AFCF4B816A8189810E945819E9
:102E60009827892798279D838C83A4CF2C813D8127
:102E70003227232732274B816A8189810E947A1960
:102E800099CF0E94961996CF6E2DCE010E94BD1645
:102E900091CF0E940A1A89838DCF0E940C1A98271D
:102EA000892798279A83898385CF6B8170E08981F0
:102EB0009A81AE014C5F5F4F9827892798270E941F
:102EC0000F1A78CF6B8170E089819A81AE014C5FD7
:102ED0005F4F9827892798270E94341A6BCF0E944A
:102EE000591A68CF0E944619D6CF6B8170E089814C
:102EF0009A81AE014C5F5F4F9827892798270E94DF
:102F0000B61958CF6B8170E089819A81AE014C5F10
:102F10005F4F9827892798270E94DA194BCF089589
:102F2000FC01680F791F8FEF91E36E177F0709F49B
:102F300008952191822728E030E087FF06C0880F9E
:102F4000892721503109C9F7F0CF880FFACFCF93E5
:102F5000DF93EC01FB018581882309F4D2C09E0137
:102F600030572332310508F0B2C00E94DB0B90933A
:102F7000D0028093CF02FE01E150F047E232F1052A
:102F800020F4E557F74D0C94AA278091CF02816079
:102F90008093CF0293C08091D00288608093D0024A
:102FA0008DC08091CF028260F3CF8091CF02846088
:102FB000EFCF8091CF028860EBCF8091D00281600B
:102FC000EDCF8091D0028260E9CF8091CF02806105
:102FD000DFCF8091CF028062DBCF8091CF0280640F
:102FE000D7CF0E9436068091CF028068D1CF8091E2
:102FF000CF028C60CDCF8091D0028360CFCF809103
:10300000CF028E7FC5CF8091D002877FC7CF8091BE
:10301000CF028D7FBDCF8091CF028B7FB9CF8091C2
:10302000CF02877FB5CF8091D0028E7FB7CF8091BE
:10303000D0028D7FB3CF8091CF028F7EA9CF8091B8
:10304000CF028F7DA5CF8091CF028F7BA1CF0E9431
:1030500036068091CF028F779BCF8091CF02837FFE
:1030600097CF8091D0028C7F99CF8091CF0282FB45
:10307000992790F921E0922790FB82F990FB83F940
:1030800087CF8091D002982F909591708E7F892B59
:1030900090FB81F983CF9091CF02892F8F7B96FF90
:1030A000806476CF0E9436069091CF02892F97FBDD
:1030B00087F980586DCF81E00E946A0C8091CF0221
:1030C0009091D0020E94E00B0E94360680E0DF91D2
:1030D000CF91089580E0F0CF9091CF02892F8F7E1D
:1030E00094FF806155CF9091CF02892F8E7F90FF02
:1030F00081604ECF9091D002892F877F93FF8860A7
:103100004DCF81E0E4CFB0E0A0E0E9E8F8E10C9435
:10311000C227E82FF0E0E450FF4FD490282F2695E7
:103120002695269530E0F901E456FE4F049187700C
:1031300010E0082E02C0159507950A94E2F7017079
:103140001127F901E457FE4FE490F12C082E02C03C
:10315000F594E7940A94E2F791E0E922FF24F9015B
:10316000E458FE4FC491D0E002C0D595C7958A952A
:10317000E2F7C170DD270115110519F081EE0E94FB
:103180004B03E114F10419F086EE0E944B038D2DE0
:103190000E94E303E114F10419F086EE0E94980303
:1031A0000115110519F081EE0E949803CD2B19F03D
:1031B0008CE20E94E303CDB7DEB7E7E00C94DE2794
:1031C000EF92FF920F931F93CF93DF93EC01162F93
:1031D0000AE08881882309F454C0813009F04EC088
:1031E0008981813099F47E0122E0E20EF11C8A810E
:1031F0000E94E303E7012196812F815050F3EFE90C
:10320000FFE03197F1F700C00000F7CF823041F4C2
:103210007E0182E0E80EF11C8A810E944B03EACF16
:10322000833041F47E01E2E0EE0EF11C8A810E94BF
:103230009803E0CF843011F02196DDCF2A812296C9
:1032400090E080E0AE014F5F5F4F2053330B2A3098
:10325000310548F0019778F2EFE9FFE03197F1F797
:1032600000C00000F7CF089FB001099F700D112426
:10327000C901860F971F2981EA01E4CF0E948318B4
:10328000BACFCDB7DEB7E6E00C94DF2784E008952F
:1032900050E0440F551F9AE0699F400D511D1124C5
:1032A00090E5899F400D511D1124CA01899608950A
:1032B0000F931F93CF93DF938430C8F46830B8F432
:1032C0004530A8F40E9448198C010E941828C82F84
:1032D000D0E0DC2FCC27C80101960E9418289E015F
:1032E000282BC901DF91CF911F910F91089590E094
:1032F00080E0F8CF0F931F93CF93DF93122F032F0C
:10330000843078F4683068F4453058F40E944819E5
:10331000EC01602F0E943628612FCE0101960E9499
:103320003628DF91CF911F910F9108951F93CF936E
:10333000DF93D0E0C0E011C0412F6C2F8D2F0E9491
:10334000CB019C01412F6C2F8D2F0E947A191F5F9A
:10335000153091F7CF5FC83011F010E0EDCFDF5F8F
:10336000D43041F7DF91CF911F910895EF92FF92F2
:103370000F931F93CF93DF93EC018A017C01E60E3C
:10338000F71ECE018996CE15DF0529F4CDB7DEB73D
:10339000E6E00C94DF27C03421E0D20740F40E941D
:1033A0001828F80180830F5F1F4F2196EACFF8019C
:1033B0001082F9CFB0E0A0E0E0EEF9E10C94C12773
:1033C0007C016A018C01060F171FEC01CE01899662
:1033D000C017D10729F4CDB7DEB7E8E00C94DD279C
:1033E000C03421E0D20740F4FE01EE19FF09EC0DD4
:1033F000FD1D60810E9436282196E8CF843038F484
:10340000683028F4453018F40E945819089590E067
:1034100080E0089580E1089587E992E00895EF92B1
:10342000FF920F931F93CF93DF93EC018A017C01EE
:10343000E60EF71ECE0187599E4FCE15DF0529F403
:10344000CDB7DEB7E6E00C94DF27C73922E0D2071C
:1034500040F40E941828F80180830F5F1F4F2196C7
:10346000E9CFF8011082F9CFB0E0A0E0EAE3FAE199
:103470000C94C1277C016A018C01060F171FEC0117
:10348000CE0187599E4FC017D10729F4CDB7DEB7BB
:10349000E8E00C94DD27C73922E0D20740F4FE01B2
:1034A000EE19FF09EC0DFD1D60810E943628219662
:1034B000E7CFCF93DF93C9E6D1E060E0CE010E9471
:1034C00036282196C11584E0D807B9F7DF91CF914E
:1034D0000895A8E0B0E0EFE6FAE10C94BF27F82EDB
:1034E0008FE08F1508F46EC08FEF93E00E941828CC
:1034F000811168C009E611E0F11035C0FE01319676
:103500006F0188E011928A95E9F77801FFEFEF1AD1
:10351000FF0AC8010E94182889831A82882309F4A7
:1035200051C08130D1F4580182E0A80EB11CC7010E
:103530000E9418288A83882309F444C09FEF980FBB
:103540009330F0F4780193E0E90EF11CC5010E947C
:1035500018288B838823B1F11C8260E0C6010E9489
:10356000E0188701D2CF011594E0190759F1C8017D
:103570000E941828811101C0FA940F5F1F4FBCCF21
:103580007501843051F702E010E07501EFEFEE1A9B
:10359000FE0AC5010E941828F601E00FF11F808382
:1035A000882381F08C3741F4E2E0F0E0EC0FFD1F5E
:1035B000E00FF11F1082D1CF0F5F1F4F570107306F
:1035C000110519F72896EAE00C94DB27CF93DF93D7
:1035D000EB0186319C4711F50E94C40A9D81992315
:1035E00099F08A7A91E009F490E090939C0281111D
:1035F00009C089E20E949C0A0E941D0B80E0DF91B5
:10360000CF91089585E3F6CF80919C02811104C08B
:1036100089E20E94A40AF0CF85E3FBCF81E0EFCFDF
:103620000F931F93CF93DF93C42FD22FFC0185817B
:103630008823C9F040939F020E94201E90939E020F
:1036400080939D0280E28C0F883040F4C77081E047
:1036500001C0880FCA95EAF70E94EC03DF91CF9171
:103660001F910F91089510919F02141332C0809101
:103670009D0290919E020E94381E883C910548F55B
:10368000C0E2CD0F1D17B9F080E2810F883040F401
:10369000177081E001C0880F1A95EAF70E94F303C2
:1036A000C83048F481E09D2F977001C0880F9A952B
:1036B000EAF70E94EC03802F0E94E303C83070F603
:1036C000D77081E001C0880FDA95EAF70E94F30312
:1036D000C5CF80E28C0F883008F6C77081E001C04A
:1036E000880FCA95EAF7F2CF0F93DB0188519C4708
:1036F00087309105A0F5FC01E355F74D0C94AA27FE
:1037000006E221EE41EE6AE17CE7CD010E94101B4A
:1037100080E00F91089507E225EE45EE6BE17CE72E
:10372000F4CF06E221EE40EE68E17CE7EECF07E25F
:1037300025EE44EE69E17CE7E8CF06E221EE42EEB9
:103740006CE17CE7E2CF07E225EE46EE6DE17CE737
:10375000DCCF08E221E045EE6EE17CE7D6CF15969E
:103760008C91882319F010929F02D3CF81E0D1CFA2
:103770001F93CF93DF9387372CE7920759F0C1E06F
:1037800088379C47E1F4FB01C581CC2371F10E948D
:10379000FB1B06C0FB01C581CC23B1F00E94F81BC6
:1037A0000E94AE060E94FE1BD82F0E94FB1BC82F52
:1037B0000E94F81B4D2F6C2F0E94D607C0E08C2F63
:1037C000DF91CF911F9108950E94F81B0E94BA06C5
:1037D0000E94FE1B182F0E94FB1BD82F0E94F81B73
:1037E000412F6D2F0E94D607EACF0E94FB1BEECF20
:1037F00080912501089580912401089580912301ED
:1038000008959093A6028093A50208950E94A011A6
:10381000811103C08091A0020895E091A502F0916A
:10382000A602309729F00190F081E02D09950895C6
:1038300080E00895E091A502F091A602309799F0FA
:1038400020912E01222359F02091CF0227FF07C09B
:10385000DC012C9111962C93119726E02C93028079
:10386000F381E02D09950895E091A502F091A6025B
:10387000309739F022E0DC012C930480F581E02DB3
:1038800009950895A3E0B0E0E8E4FCE10C94C727B3
:103890002091A3023091A40228173907A1F0909338
:1038A000A4028093A302E091A502F091A6023097B2
:1038B00051F023E029839B838A830680F781E02DE2
:1038C000CE01019609952396E2E00C94E327A3E04C
:1038D000B0E0EDE6FCE10C94C7272091A102309105
:1038E000A20228173907A1F09093A2028093A102A7
:1038F000E091A502F091A602309751F024E02983CF
:103900009B838A830680F781E02DCE01019609957D
:103910002396E2E00C94E327FC01329680912E017D
:10392000882321F08091CF029EE187FF96E080E01E
:10393000915008F4089521912223D1F38F5FF8CF9D
:10394000662301F120912E012223F1F02091CF0274
:1039500027FF1AC0462F4695469546954E3190F45E
:10396000677021E030E002C0220F331F6A95E2F752
:10397000840F911DFC01828190E02823392381E08E
:10398000232B69F480E00895FC013296089621917A
:10399000261721F0E817F907D1F7F4CF81E0089551
:1039A0009C01FC0132969FEF80E04191461751F057
:1039B0009F3F19F4411101C0982F8F5F8630A9F7FE
:1039C0009F3F09F40895290F311D97FD3A95F9019C
:1039D00062830895FC01329608962191261303C054
:1039E000DF0111971C92E817F907B9F70895E62F40
:1039F000E695E695E695EE3168F4E80FF92FF11DAE
:103A0000677021E030E001C0220F6A95EAF78281F9
:103A1000822B82830895E62FE695E695E695EE31B2
:103A200070F4E80FF92FF11D677021E030E001C05C
:103A3000220F6A95EAF72095828128232283089530
:103A400020912E01222339F02091CF0227FF03C0BD
:103A50000E94F71C08950E94D01C089520912E0109
:103A6000222339F02091CF0227FF03C00E940B1DB3
:103A700008950E94EA1C0895FC01329680912E015F
:103A8000882351F08091CF0287FF06C08EE1DF01CD
:103A90001D928A95E9F7089586E0F9CFDC01FB01D4
:103AA00011969C9111978181981322C012968C9146
:103AB0001297882319F0928189131AC013968C915A
:103AC0001397882319F09381891312C015968C914E
:103AD0001597882319F0958189130AC014969C9133
:103AE000992321F081E02481291303C080E001C0E3
:103AF00081E08170089508950E947B1D08958111D1
:103B000006C081E08093A7020E947C1D089582E098
:103B1000F9CF83E08093A7020E947C1D08950E9444
:103B20007F1D089581E08093A7020E947C1D089567
:103B30000E94921D0895089508950E949C1D089565
:103B4000089508950E949B1D0895CF930E94A01D83
:103B50000E9420110E94A11DC0E08C2F0E94EB0F3B
:103B6000811105C0CF5FC830C1F7CF91089581E0C2
:103B7000FCCF85B7806885BF85B7806885BF08950D
:103B80001F921FB61F9211248F939F93AF93BF93E1
:103B90008091A802811113C08091E3029091E40208
:103BA000A091E502B091E6024196A11DB11D80935E
:103BB000E3029093E402A093E502B093E602BF9182
:103BC000AF919F918F911F901FBE1F90189580916C
:103BD000EB02843031F10E94BF021092A80288E10A
:103BE00090E020E40FB6F894A895809360000FBE93
:103BF0002093600083B7817F846083BF83B7816037
:103C000083BF7894889583B78E7F83BF0FB6F8946F
:103C1000A895809160008861809360001092600098
:103C20000FBE08950E9436060E94C402089582E0E5
:103C300084BD93E095BD9AEF97BD80936E00089583
:103C40002FB7F8948091E3029091E402A091E502ED
:103C5000B091E6022FBF08952FB7F8946091E30268
:103C60007091E4028091E5029091E6022FBF0895E1
:103C70009C014FB7F8948091E3029091E402A091E7
:103C8000E502B091E6024FBF821B930B0895CF92DD
:103C9000DF92EF92FF922FB7F894C090E302D0909A
:103CA000E402E090E502F090E6022FBFA701960142
:103CB000261B370B480B590BCA01B901FF90EF9037
:103CC000DF90CF90089578941F921FB61F92112411
:103CD0008F939F93AF93BF938091E3029091E402FF
:103CE000A091E502B091E6020196A11DB11D80935D
:103CF000E3029093E402A093E502B093E602BF9141
:103D0000AF919F918F911F901FBE1F90189587E7CD
:103D100097E7909301088093000888E19AE00FB636
:103D2000F894A895809360000FBE90936000FFCF39
:103D300088E19AE00FB6F894A895809360000FBED2
:103D400090936000FFCF8EE14A9B02C08150E1F763
:103D50004A9BFECF08955A9880E28A95F1F75A9AC5
:103D60000895FC013BE03A95F1F798E020E080E00F
:103D700031E040E14A95F1F7880F4A9B02C081602B
:103D8000232742E04A95F1F7000040E14A95F1F718
:103D9000915079F790E19A95F1F799B132E03A951F
:103DA000F1F7000040E14A95F1F792FB992790F96D
:103DB00092272081920F90830895A1E0B0E0E3EE76
:103DC000FEE10C94C32719828C017C01E60EF11CE4
:103DD0000E151F0541F481E09981911180E0219633
:103DE000E6E00C94DF270E94A31ECE0101960E94FC
:103DF000B11EF80181938F01EBCF529A5A9A089520
:103E000052985A9AEA9AE9E6F0E080818F7C8083A2
:103E100008956150770B91E001C0990F6A95EAF718
:103E200020E031E0911108C0222391F05A9A80E2FB
:103E30008A95F1F75A980895492F482339F05A9AEC
:103E4000232740E24A95F1F79695ECCF5A98F9CF9F
:103E50005A98EDCFFF920F931F93CF93DF93EC010E
:103E60008C01060F111DC017D10729F4CDB7DEB79D
:103E7000E5E00C94E027F9900E94AB1E68E08F2DDE
:103E80000E94091FF0CF1F920F920FB60F921124BC
:103E90000F931F932F933F934F935F936F937F9352
:103EA0008F939F93AF93BF93EF93FF93CF93DF9342
:103EB0000F92CDB7DEB719820E94A31ECE010196E4
:103EC0000E94B11E082F069506950695282F22956B
:103ED0002570902F9570290F922F93702695269517
:103EE000920F982797708981982B09F05CC0043055
:103EF00008F059C080E18A95F1F75A9A529A82E007
:103F00008A95F1F700C05A9888E0089F8001112433
:103F1000D801AD5FBE4F1696ED91FC911797309783
:103F2000A9F06091AA017091AB0114962D913C917A
:103F30001597260F371F11968D919C911297680F38
:103F4000791F13964C9113978C910995F801ED5FA9
:103F5000FE4F6381662351F02091AA013091AB019D
:103F600084819581820F931F0E942A1F0E94AB1E9D
:103F700080E18A95F1F75A9852985A9A80E18A9589
:103F8000F1F7F801ED5FFE4F6081662351F020915B
:103F9000AA013091AB0181819281820F931F0E940F
:103FA000DD1E0E94A31E0F90DF91CF91FF91EF9134
:103FB000BF91AF919F918F917F916F915F914F9141
:103FC0003F912F911F910F910F900FBE0F901F9057
:103FD00018950F931F93CF93DF93EC0104970CF088
:103FE0004CC0F894529A5A9885E08A95F1F70000EF
:103FF0009C2F969595708C2F8570980F892F8370C4
:104000009695969523E0CC0FDD1F2A95E1F7980F42
:104010008E01092B0E94AB1E00C068E0802F0E9419
:10402000091F80E18A95F1F752985A9A4A9B1EC05F
:1040300087E090E04A991CC0FE01ED5FFE4F63816E
:104040006623F9F02091AA013091AB01848195811A
:10405000820F931F0E94DD1E811113C0529A5A9A3B
:104060007894DF91CF911F910F91089500C0DECF1A
:10407000019729F4529A5A9A789480E0F2CF00C0BE
:10408000D9CF0E94A31E80E28A95F1F75A98529ADE
:1040900080E18A95F1F7CD5FDE4F6881662351F0AC
:1040A0002091AA013091AB0189819A81820F931FDF
:1040B0000E942A1F0E94AB1E789481E0D2CF80918B
:1040C000C90208959B01BA019091EB029430E9F482
:1040D0008F708093E9009FEF8091E800915085FDFB
:1040E00006C085ED8A95F1F700009111F5CF80911A
:1040F000E80085FF0AC050E040E0C9010E94AE22FE
:104100008091E8008E778093E800089543E050E0C6
:10411000BC0184E00E946220089546E050E0BC01AA
:1041200084E00E9462200895CF93DF93EC01809198
:104130002E01811111C048E050E0BE0181E00E94D3
:10414000622080E2FE01A9EAB2E001900D928A9518
:10415000E1F7DF91CF9108958091CF0287FF05C0ED
:1041600040E284E050E0BE01EACF48E081E0FACFCF
:10417000603231F440E250E0BC0182E00E946220F3
:1041800008958091EA02811109C00E948D240E9445
:10419000EA248091E20084608093E2000895109206
:1041A000EA0208950E94921D08956091E70281E05D
:1041B000611101C080E00E94891D08959091EB0279
:1041C00081E0943009F080E06091E7020E948F1D49
:1041D000089542E061EC81E00E94092442E261EC32
:1041E00084E00E94092442E261EC82E00E940924FA
:1041F00042E260EC83E00E9409249091EB0281E0AE
:10420000943009F080E06091E7020E947F1D0895DC
:104210008091ED02833009F463C030F48130E1F124
:10422000823009F4A0C008958A3009F48CC08B3024
:1042300009F471C0893009F052C08091EC028132DA
:1042400009F04DC08091F0029091F102009719F0B1
:10425000029709F044C08091E800877F8093E800CE
:104260008091E80082FF37C09091F3008091F200C6
:10427000029731F48091F100813011F0863021F401
:104280008091F1008093C9028091E8008B77809340
:10429000E8000E943D2423C08091EC02813AF9F4A9
:1042A0008091E800877F8093E8008091F0029091F0
:1042B000F102892B61F460E289EA92E070E00E94E9
:1042C0004C238091E8008B778093E800089560E0AC
:1042D00090E080E0F3CF8091EB028111C1CF08958F
:1042E0008091EC02813AD9F78091F0029091F1022D
:1042F000892BA9F78091E800877F8093E80080915F
:10430000E80080FFFCCF80912E018093F100809126
:10431000E8008E77BCCF8091EC02813201F780916A
:10432000F0029091F102892BD1F68091E800877F0D
:104330008093E8000E943D248091EE0280932E013C
:104340000E94360608958091EC02813241F68091F8
:10435000E800877F8093E8000E943D248091EF026F
:104360008093CA0208958091EC02813A09F0B7CF98
:104370008091E800877F8093E8008091E80080FFCB
:10438000FCCF8091CA02C1CF84B7877F84BF0FB6AC
:10439000F894A895809160008861809360001092E5
:1043A00060000FBE80E890E00FB6F8948093610043
:1043B000909361000FBE0E94981D08950E948D2465
:1043C0000E94EA24E2EEF0E08081846080837894A9
:1043D0000E946927089586E291E00E94011C0895D9
:1043E0008091EB02853031F48091EB02853019F039
:1043F0000E94121E08950E94E71D8091E902882301
:1044000099F30E94A51D882379F30E9498220E94A7
:104410003606EACFA0E2B0E0E0E1F2E20C94C72772
:104420008091EB02843009F583E08093E90080916C
:10443000E80082FF1AC08091E80090E085FF09C083
:1044400050E040E060E270E0CE0101960E94FD2263
:1044500091E08091E8008B778093E800992329F020
:1044600060E2CE0101960E94C216A096E2E00C9492
:10447000E3279A014091F2025091F3020E944122F7
:104480000895492F55274330510521F168F44130F3
:10449000510509F443C04230510509F444C090E08D
:1044A00080E050E040E026C04132510551F14232F7
:1044B0005105A9F76330710590F7FB01EE0FFF1F5F
:1044C000E155FE4F4081518164557E4FFB01808153
:1044D00090E010C099278130910581F0009729F074
:1044E0000297E9F6ECEAF1E002C0EAECF1E084912F
:1044F00090E0AF01F901518340830895EEEBF1E0C4
:10450000F6CF6330710558F6660F771FFB01EB5449
:10451000FE4F4081518189E090E0ECCF82E190E054
:1045200049E252E0E7CF8BE590E04EEC51E0E2CF7C
:1045300080E189BD82E189BD09B400FEFDCF809193
:10454000D8008F7D8093D8008091E00082608093B6
:10455000E0008091E00081FDFCCF0895AF92BF9212
:10456000CF92DF92FF920F931F93CF93DF936C0153
:10457000EB018A010E945C24F82E811123C00115F1
:10458000110539F0F80180819181C81BD90BC80E43
:10459000D91EB12CA12C2097A9F08091E80085FDAF
:1045A00022C08091E8008E778093E8000115110504
:1045B000A1F0F80180819181A80EB91EB182A0827C
:1045C00085E0F82E8F2DDF91CF911F910F91FF90F5
:1045D000DF90CF90BF90AF9008950E945C24882315
:1045E000D1F2F82EEFCFF60181916F018093F100A7
:1045F0002197FFEFAF1ABF0ACECFAF92BF92CF92F3
:10460000DF92FF920F931F93CF93DF936C01EB0127
:104610008A010E945C24F82E811123C00115110526
:1046200039F0F80180819181C81BD90BC80ED91EC1
:10463000B12CA12C2097A9F08091E80085FD22C023
:104640008091E8008B778093E80001151105A1F0B7
:10465000F80180819181A80EB91EB182A08285E007
:10466000F82E8F2DDF91CF911F910F91FF90DF904A
:10467000CF90BF90AF9008950E945C248823D1F220
:10468000F82EEFCF8091F100F60181936F01219711
:10469000FFEFAF1ABF0ACECFFC018091F2029091DA
:1046A000F30286179707A0F06115710529F4909120
:1046B000E8009E779093E80090E06115710551F451
:1046C000911108C08091E80082FF34C080E0089515
:1046D000BC01F2CF8091EB028823C1F18530C1F19A
:1046E0008091E80083FD30C08091E80082FDEACF30
:1046F0008091E80080FFE1CF8091F3002091F200EB
:10470000382F6115710519F02830310558F091E006
:104710002830310509F090E02091E8002E772093B1
:10472000E800CBCF81918093F100615071092F5F38
:104730003F4FE7CF8091EB02882341F0853041F075
:104740008091E80083FFBECF81E0089582E0089564
:1047500083E00895FC018091F2029091F3028617A4
:104760009707A0F06115710529F48091E8008E7714
:104770008093E80090E06115710551F4911108C033
:104780008091E80082FF35C080E00895BC01F2CF3F
:104790008091EB028823C9F18530C9F18091E8004E
:1047A00083FD31C08091E80082FDEACF8091E8006E
:1047B00080FFE1CF8091F3002091F200382F611546
:1047C000710519F02830310558F091E02830310595
:1047D00009F090E08091E8008E778093E800CBCFDD
:1047E00084918093F1003196615071092F5F3F4FA2
:1047F000E6CF8091EB02882341F0853041F0809133
:10480000E80083FFBDCF81E0089582E0089583E052
:104810000895982F973028F08F708093E90081E0F9
:1048200008959093E900242F762F50E0981731F0E7
:104830007091EC002091ED005091F00021FD02C03C
:104840009F5FE8CF3091EB003E7F3093EB003091DB
:10485000ED003D7F3093ED003091EB0031603093FF
:10486000EB007093EC002093ED005093F00020914A
:10487000EE0027FDE5CF80E008958091EC0287FFF0
:1048800013C08091E80082FF06C08091E8008B771A
:104890008093E80004C08091EB028111F2CF08956B
:1048A0008091EB028823D9F38091E80080FFF8CF54
:1048B0008091E8008E77ECCF2091E4003091E50004
:1048C00095E6A9012091EC00822F817020FF06C09F
:1048D0008091E80080FF06C080E008952091E80004
:1048E00022FD1AC08091EB02882389F0853089F07F
:1048F0008091EB0085FD0FC02091E4003091E50030
:1049000042175307F9F29150E1F684E0089582E0EE
:10491000089583E0089581E008950E94FC240E9498
:104920000425E0EEF0E0808181608083E8EDF0E036
:1049300080818F77808319BCA7EDB0E08C918E7F4A
:104940008C9380818F7E80831092EA0208950F936A
:104950001F93CF93DF930E94FC240E940425C8ED8F
:10496000D0E088818F778883888180688883888178
:104970008F7D888319BC1092EB021092E70210928F
:10498000E9021092E80200EE10E0F80180818B7FCE
:10499000808388818160888342E060E080E00E94BB
:1049A0000924E1EEF0E080818E7F8083E2EEF0E08A
:1049B000808181608083808188608083F80180812C
:1049C0008E7F8083888180618883DF91CF911F9162
:1049D0000F910895E8EDF0E080818F7E8083E7ED10
:1049E000F0E080818160808384E082BF81E08093F9
:1049F000EA020E94A7240895E8EDF0E080818E7F0E
:104A000080831092E20008951092DA001092E10083
:104A100008951F920F920FB60F9211242F933F9378
:104A20004F935F936F937F938F939F93AF93BF93B6
:104A3000EF93FF938091E10082FF0BC08091E20031
:104A400082FF07C08091E1008B7F8093E1000E948C
:104A500068278091DA0080FF19C08091D80080FF1C
:104A600015C08091DA008E7F8093DA008091D900A2
:104A700080FF96C080E189BD82E189BD09B400FE56
:104A8000FDCF81E08093EB020E94C1208091E10084
:104A900080FF19C08091E20080FF15C08091E20084
:104AA0008E7F8093E2008091E20080618093E2003B
:104AB0008091D80080628093D80019BC85E08093F3
:104AC000EB020E94D5208091E10084FF2BC08091F1
:104AD000E20084FF27C080E189BD82E189BD89B5FC
:104AE000982F917080FFFBCF8091D8008F7D8093AD
:104AF000D8008091E1008F7E8093E1008091E200F8
:104B00008F7E8093E2008091E20081608093E200DA
:104B10008091E702882309F449C084E08093EB0286
:104B20000E94DE208091E10083FF29C08091E20095
:104B300083FF25C08091E100877F8093E10082E0C0
:104B40008093EB021092E7028091E1008E7F8093C8
:104B5000E1008091E2008E7F8093E2008091E2008C
:104B600080618093E20042E060E080E00E940924DE
:104B70008091F00088608093F0000E94D220FF9125
:104B8000EF91BF91AF919F918F917F916F915F91C5
:104B90004F913F912F910F900FBE0F901F9018953E
:104BA00019BC1092EB020E94CF2070CF8091E300DD
:104BB00087FD93E09093EB02B3CF1F920F920FB655
:104BC0000F9211242F933F934F935F936F937F9393
:104BD0008F939F93AF93BF93CF93DF93EF93FF9305
:104BE000D091E900DF708091EC00C82FC17080FD8A
:104BF000C0E81092E9008091F000877F8093F00078
:104C000078940E9421261092E9008091F00088603B
:104C10008093F000CD2BCF70C093E900FF91EF910E
:104C2000DF91CF91BF91AF919F918F917F916F91C4
:104C30005F914F913F912F910F900FBE0F901F905A
:104C40001895AAE2B0E0E7E2F6E20C94C6278CEEF3
:104C500092E02091F100FC012193CF01F2E0843F2A
:104C60009F07B9F70E9408218091E80083FF1EC1C9
:104C70008091EC029091ED029A3008F017C1E92F73
:104C8000F0E0EC54F74D0C94AA27803899F0823864
:104C900009F00CC18091F0028F70873008F006C1D6
:104CA0008093E9008091EB0085FB882780F91092C2
:104CB000E90006C08091E8029091E90291118260BA
:104CC0009091E800977F9093E8008093F100109214
:104CD000F1008091E8008E77E5C0882309F4D3C005
:104CE000823009F0E3C08091EE028111D6C080913C
:104CF000F0028F702FEF280F263008F0D7C0809376
:104D0000E9002091EB0020FFC8C0933031F480917E
:104D1000EB0080628093EB00C0C09091EB0090614B
:104D20009093EB0021E030E001C0220F8A95EAF772
:104D30002093EA001092EA008091EB008860EACFAD
:104D40008111B4C01091EE021F778091E30080784A
:104D5000812B8093E3008091E800877F8093E800B7
:104D60000E943D248091E80080FFFCCF8091E30009
:104D700080688093E30082E0111183E08093EB026E
:104D800095C08058823008F091C08091EE029091D9
:104D9000EF028C3D23E09207A1F583E08A838AE24B
:104DA00089834FB7F894DE01139620E03EE051E28C
:104DB000E32FF0E050935700E49120FF03C0E29509
:104DC000EF703F5FEF708E2F90E0EA30C0F0C79633
:104DD0008D939D932F5F243159F74FBF8091E80049
:104DE000877F8093E8006AE270E0CE0101960E941E
:104DF0004C238091E8008B778093E80057C0C096E1
:104E0000E7CF6091F0027091F102AE014F5F5F4F0A
:104E10000E943922BC01892B09F448C09091E80016
:104E2000977F9093E80089819A810E94AA23E1CF1D
:104E30008038E1F58091E800877F8093E8008091D9
:104E4000E7028093F10045CF811130C09091EE02CE
:104E5000923060F58091E800877F8093E80090931E
:104E6000E7020E943D248091E702882311F084E04C
:104E700005C08091E30087FDFACF81E08093EB02CB
:104E80000E94E92013C08091EE02813079F481E024
:104E9000933009F080E08093E9021092E90080915C
:104EA000E800877F8093E8000E943D248091E8001D
:104EB00083FF0AC08091E800877F8093E80080919B
:104EC000EB0080628093EB00AA96E3E00C94E2276B
:104ED0000895CF938091EB028823A1F0C091E9005F
:104EE000CF709091EC00892F817090FD80E8C82BE5
:104EF0001092E9008091E80083FD0E942126CF7086
:104F0000C093E900CF9108950E948D241092EB0286
:104F10000895E8EDF0E08081806180838AE18A95E0
:104F2000F1F700C08091D9008170089597FB072E9A
:104F300016F4009407D077FD09D00E94EE2707FCF5
:104F400005D03EF4909581959F4F08957095619599
:104F50007F4F0895EE0FFF1F0590F491E02D099407
:104F600069279627692778278727782708952F921A
:104F70003F924F925F926F927F928F929F92AF92E9
:104F8000BF92CF92DF92EF92FF920F931F93CF9336
:104F9000DF93CDB7DEB7CA1BDB0B0FB6F894DEBFCD
:104FA0000FBECDBF09942A88398848885F846E84F3
:104FB0007D848C849B84AA84B984C884DF80EE803D
:104FC000FD800C811B81AA81B981CE0FD11D0FB646
:104FD000F894DEBF0FBECDBFED010895AA1BBB1B29
:104FE00051E107C0AA1FBB1FA617B70710F0A61BE9
:104FF000B70B881F991F5A95A9F780959095BC010A
:10500000CD010895FB01DC0104C08D910190801950
:1050100021F441505040C8F7881B990B0895FB01BB
:10502000DC0102C001900D9241505040D8F7089524
:10503000F999FECF92BD81BDF89A992780B5089560
:10504000A8E1B0E042E050E00C945C28DC01A40F41
:10505000B51F4150504048F0CB01840F951F2E9151
:105060000E94372841505040D0F70895262FF999D3
:10507000FECF92BD81BDF89A019700B4021639F0B7
:105080001FBA20BD0FB6F894FA9AF99A0FBE089588
:105090000396272F0E9437280E943628252F0E942A
:1050A0003728242F0C9437280196272F0E94372861
:1050B0000C943628DC01CB01FC01F999FECF06C027
:1050C000F2BDE1BDF89A319600B40D9241505040C6
:1050D000B8F70895F894FFCF390439048904890496
:1050E000EE040A05680468040F0576058505850544
:1050F000D716E31619172B173617411744174417FD
:105100004417E916E91649174D17551762176F1717
:10511000721775178217FF1773180718D117D5174D
:105120000B18D9170F181B18E5176C18E9171F185B
:10513000ED1723184B18F11727185218F7172D18C9
:105140003518DD171318E1171718FB173118411818
:105150005B186A18CB1703187A18911B971B801BD2
:105160008B1B9D1BA31BA91B45266D2656276D2651
:0C5170005627A026C12656271827242702
:10517C0039020100000001000000000000000401E1
:10518C000000000405000000000000280850011E6B
:10519C000A14010302015F2094208D20862001E275
:1051AC0000E900EA00B500B600B700CD008301CCE1
:1051BC00008A019201940121022302240225022675
:1051CC000227022A02B300B4006F0070009F01CBCB
:1051DC00019F02A002818283E200E900EA00B5008F
:1051EC00B600B700CD008301CC008A019201940176
:1051FC002102230224022502260227022A02B300DE
:10520C00B4006F0070009F01CB019F02A00281824D
:10521C0083323633F6F5353431F776024422B61341
:0C522C00033B025D02E001F901190200E1
:00000001FF
