:100000000C948B020C94A8020C94A8020C94B825B2
:100010000C94A8020C94A8020C94A8020C94A802B8
:100020000C94A8020C94A8020C94B12D0C94852E6B
:100030000C94DB270C94A8020C94A8020C94A80240
:100040000C94A8020C94A8020C94A8020C94A80288
:100050000C94A8020C947E280C94A8020C94A8027C
:100060000C94A8020C94A8020C94A8020C94A80268
:100070000C94A8020C94A8020C94A8020C94A80258
:100080000C94A8020C94A8020C94A8020C94A80248
:100090000C94A8020C94A8020C94A8020C94A80238
:1000A0000C94A8020C94A8020C94A8020763423690
:1000B000B79BD8A71A39685618AEBAAB558C1D3CF9
:1000C000B7CC5763BD6DEDFD753EF6177231BF00BD
:1000D0000000803F05A84CCDB2D44EB93836A902F5
:1000E0000C50B9918688083CA6AAAA2ABE00000036
:1000F000803F1700150008001A0014000A000900CC
:100100000700160004000500190006001B001D0072
:100110002C41E300E000000000001C0018000C006F
:10012000120013000B000D000E000F00280011003C
:10013000100036003700E5002C42E2002A000000E3
:1001400000002200210020001F001E0022022102C8
:1001500020021F021E02670054005500560057007F
:100160002C41490029000000000023002400250044
:10017000260027002302240225022602270235003A
:1001800089002F1230122D122D00E2002A000000EB
:1001900000003E003D003C003B003A0034003312BA
:1001A000330031001F02C75CC65CC55CC35CC25C27
:1001B0002D1249002B00000000003F0040004100CC
:1001C000420043005000510052004F002E00C85C16
:1001D000C95C2F00300031002C42E2002A000000F0
:1001E000000000047F3F1F643214643214783C1E08
:1001F0001E140A05FFAA7F554000010101010101FB
:1002000001010102020202020202020203030303CD
:10021000030303030404040404040405050505059D
:10022000060606060607070707070808080809095B
:1002300009090A0A0A0B0B0B0C0C0C0D0D0D0E0E06
:100240000E0F0F0F10101111111212131314141599
:100250001516161717181819191A1A1B1B1C1D1D0D
:100260001E1E1F2020212222232424252626272863
:1002700029292A2B2C2D2D2E2F3031323233343593
:10028000363738393A3B3C3D3E3F40414243444596
:10029000464748494A4C4D4E4F5051535455565875
:1002A000595A5B5D5E5F616264656668696B6C6D1F
:1002B0006F7072737577787A7B7D7E808283858795
:1002C000888A8C8E8F91939596989A9C9EA0A2A3D3
:1002D000A5A7A9ABADAFB1B3B5B7BABCBEC0C2C4D8
:1002E000C6C9CBCDCFD1D4D6D8DBDDDFE2E4E7E998
:1002F000EBEEF0F3F5F8FAFDFF000000000000005F
:10030000002A2B2800000000000000000000000070
:100310000000000029000000002C1E3420212224AF
:10032000342627252E362D3738271E1F202122233D
:100330002425263333362E37381F040506070809CF
:100340000A0B0C0D0E0F1011121314151617181995
:100350001A1B1C1D2F3130232D35040506070809F3
:100360000A0B0C0D0E0F1011121314151617181975
:100370001A1B1C1D2F3130354C00000000000000FE
:10038000000000000000000000000000000000006D
:10039000000000000000000000000000007E0F00D0
:1003A000D4FFFFFFC700000078100363006F006FE9
:1003B000006C0035003300360000000A036D002E8B
:1003C000006B00690000000403090409025B0003DC
:1003D0000100A0FA09040000010301010009211134
:1003E0000100012240000705810308000109040102
:1003F0000002030000000921110100012222000770
:1004000005820320000107050303200001090402FF
:10041000000103000000092111010001227B0007F7
:100420000584032000011201000200000008434D72
:1004300036050100010200010660FF0961A1010902
:1004400062150026FF0095207508810209631500DA
:1004500026FF00952075089102C005010902A1013F
:1004600085020901A10005091901290815002501C6
:100470009508750181020501093009311581257F33
:1004800095027508810609381581257F9501750843
:100490008106050C0A38021581257F9501750881B2
:1004A00006C0C005010980A101850319012AB70012
:1004B000150126B700950175108100C0050C0901D2
:1004C000A101850419012AA002150126A0029501A7
:1004D00075108100C005010906A101050719E02971
:1004E000E7150025019508750181029501750881C0
:1004F000010507190029FF150026FF00950675085C
:1005000081000508190129059505750191029501DC
:1005100075039101C00011241FBECFEFDAE0DEBFEA
:10052000CDBF11E0A0E0B1E0E8EBF9E602C0059034
:100530000D92AA3EB107D9F723E0AAEEB1E001C0BF
:100540001D92A631B207E1F70E9493140C94B134C6
:100550000C94000083E0089581E0089581E00895FF
:100560000E94AE02089508950E94B3020895A5E086
:10057000B0E0EDEBF2E00C941E3449835A833091E5
:10058000F10189819A81311119C0662399F02223E2
:1005900089F00E94B008182F682F89819A810E94E3
:1005A0008C0869817A81812F0E9480232596E3E05F
:1005B0000C943A340E949E08182FF3CF0E94B00882
:1005C00069817A81F1CFFC01262F408151816281BE
:1005D000738184810E94B702089581E00895CF93CA
:1005E000DF93EC0160E00E94E302BE010E94B402CE
:1005F000DF91CF910895E1E0F0E0DF0102C0AA0FA2
:10060000BB1F6A95E2F7BD01DF0102C0AA0FBB1F45
:100610004A95E2F76A2B01C0EE0F2A95EAF7962F6A
:100620009823961302C08E2B0895E0958E2308958B
:10063000242F462F682F809101020E94FB020E9406
:10064000EC0708950E949D1008950E94A11008953E
:1006500008950E947E070E9428032FEF84E39CE008
:10066000215080409040E1F700C0000008950E94B2
:1006700029030E94A22808950E9429030E94B328FA
:1006800008950F931F93CF93DF938C0161E00E9435
:10069000E302EC01B8010E94031F811106C080E053
:1006A000DF91CF911F910F910895B801CE010E9463
:1006B000B0028823A1F3B801CE010E94C62488238A
:1006C00071F3B801CE010E947920882341F3B8016B
:1006D000CE010E943824882311F3B801CE010E9474
:1006E000AA1D8823E1F2F8018281882361F0CA35CE
:1006F000FDE5DF0701F158F4C115ECE5DE0791F0E7
:10070000CE3DDC4591F0C8010E94AC02C9CFCC358A
:100710008DE5D80769F090F0C73ADD45A1F70E9452
:100720003C03BDCF0E943703BACF0E94690DF7CFBB
:100730000E94A30CE8CF0E94AD0CE5CF0E94B10C43
:10074000E2CF0E94B8270E94C2030E94201C089595
:100750000E94C6030E94F71C0E94BD2708950895B9
:100760000E94AF03089581E008950E94B3030895A5
:100770000895CF93C82F0E94B0038C2F0E94B50319
:10078000CF91089580E00E94B90308950E94DE266B
:100790000E94B9030895CF930E94DE26C82F80914E
:1007A000EC018C1779F0C093EC010E94472860930C
:1007B000ED017093EE018093EF019093F0018C2F87
:1007C0000E94B903CF910895ABE0B0E0EAEEF3E008
:1007D0000C941F344F83588769877A878B87611100
:1007E0000E94EE0B1E821D8285E0FE013796DE011F
:1007F000119601900D928A95E1F78C819D81892B4C
:1008000061F449815A816B817C818D819E810E9436
:10081000170B2B96E2E00C943B3489819A81892353
:100820008F3F79F3CE0101960E94ED028111E9CF4D
:10083000F0CFFC01808191810E94DD080895CF9363
:10084000C82F8823C9F08238C9F40E94DE2681FDB2
:1008500013C089E30E94A60B0E940F0C2FEF87EEB6
:1008600093E0215080409040E1F700C0000089E310
:100870000E94AE0B0E940F0CCF9108958338A1F413
:100880000E94DE2680FDF8CF83E50E94A60B0E9421
:100890000F0C2FEF81EE94E0215080409040E1F763
:1008A00000C0000083E5E4CF8438A1F40E94DE2676
:1008B00082FDE2CF87E40E94A60B0E940F0C2FEF6F
:1008C00081EE94E0215080409040E1F700C00000AC
:1008D00087E4CECF8CEF8C0F813A90F46C2F80910F
:1008E0000001909101010E944927882329F08C2F53
:1008F0000E94AE0B0E940F0C8C2F0E94A60BBACF49
:1009000080E28C0F883048F4C77081E001C0880F06
:10091000CA95EAF70E94D10BADCFEBE5EC0FE330BF
:1009200040F4F0E0E158FE4F808190E00E940B27F8
:10093000A3CFE8E5EC0FE73150F4F0E0EE0FFF1F36
:10094000EF5AFE4F808191810E94212795CFC03FB1
:1009500008F492CF8C2F0E9417150E94EA158CCFB5
:10096000882309F455C0823879F40E94DE2681FF7D
:100970004FC089E30E94A60B0E940F0C89E30E94DE
:10098000AE0B0E940F0C0895833859F40E94DE26A6
:1009900080FF3EC083E50E94A60B0E940F0C83E5FA
:1009A000EECF843859F40E94DE2682FF31C087E4FE
:1009B0000E94A60B0E940F0C87E4E1CF9CEF980FDA
:1009C000913AE8F290E2980F983050F4877091E0F5
:1009D00001C0990F8A95EAF7892F0E94D70BD1CFD2
:1009E0009BE5980F933028F490E080E00E940B275D
:1009F000089598E5980F973128F490E080E00E94E0
:100A000021270895803F20F00E9471150E94EA1569
:100A100008951F93CF93DF93182FEB010E941F04BB
:100A2000209739F4812F0E94B004DF91CF911F915C
:100A300008958FE99FE00197F1F700C0000021972A
:100A4000EFCF70E060E0893311F460E570E00E9460
:100A500009050895882321F00E94D10B0E940F0CF4
:100A60000895882321F00E94D70B0E940F0C08954F
:100A7000B0E0A0E0EEE3F5E00C9418346C01D62F62
:100A8000C72FFC011281F580F2949FE0F9220E94A9
:100A9000C70BE82E8823B9F0E12E1123A1F08C2F8B
:100AA000807F803421F080E28D0F8830D0F08091FB
:100AB000BD0282FF16C082E00E94720C0E94C70B2A
:100AC00091E0E82EE926BC2EB2948FE0B822FBE03C
:100AD000FB1508F468C0EB2DF0E0ED54FB4C0C94D2
:100AE000D133E12CF0CF0C2F0F70C07F11F00295A5
:100AF000007F112399F0002359F080E28D0F883098
:100B000010F0D11107C0802F0E94D10B0E940F0C52
:100B10008D2F41C0802F0E94E10BF8CF8D2F0E94B6
:100B2000B004002309F43FC080E28D0F883010F03C
:100B3000D11104C0802F0E94D70B03C0802F0E94C8
:100B4000E70B0E940F0C2FC00C2F0F70C07FC0321C
:100B500011F00295007FDD2381F0D13009F463C0EC
:100B6000112309F46DC0FF2009F463C0F6018581EB
:100B700080FFCECF8F7085835CC08091BD0282FDE7
:100B800033C0112359F0002329F0802F0E94D10B8C
:100B90000E940F0C80E00E941F0405C080E00E94AC
:100BA000B0040111C7CFEB2DE850FF0B349720F4B0
:100BB0000E94DE260E94B903EE2089F00E94C30B3A
:100BC00080FD0DC0F60112820E94BD0B0E9400083C
:100BD000C6010E943E070E94BD0B0E940C08CDB7C3
:100BE000DEB7E9E00C943434112389F0F11006C02B
:100BF0000E94F10B802B0E942A05D5CF21E0F21232
:100C0000F7CF0E94F10B802B0E94F80BCCCFF11094
:100C100006C00E94050C802F0E943105C4CF31E030
:100C2000F31609F2F6CF112331F085E08F1508F4A1
:100C3000BACF802FE0CF94E09F1508F4B4CFEBCF6C
:100C4000FF2049F3D93349F4FFEF27EE33E0F150A9
:100C500020403040E1F700C000008D2F0E94B0041A
:100C6000A2CF8C2F86958695837069F0813009F02C
:100C70009ACF8D2F9C2F9370111102C090E080E0CD
:100C80000E94212790CF8D2F9C2F9370111102C0AD
:100C900090E080E00E940B2786CF8D2F112329F052
:100CA0000E9417150E94EA157ECF0E947115FACF97
:100CB0008C2F837079F5111176CF4D2F4295469583
:100CC0004770440F440F8D2F8F70042E01C0880F82
:100CD0000A94EAF72D2F2071D4FF07C02FE030E0EF
:100CE00001C0220F4A95EAF72095C695C695C370B4
:100CF000822BC23049F058F4C13019F00E94DA0753
:100D000052CF0E94D4074FCF0E94E0074CCF0E94E1
:100D1000D10749CF8695112311F08C2F817088233C
:100D200009F441CF4D2F429546954770440F440F2B
:100D30008D2F8F70042E01C0880F0A94EAF72D2F93
:100D40002071D4FF07C02FE030E001C0220F4A9588
:100D5000EAF72095C695C695C370822BC23049F03C
:100D600058F4C13019F00E942B081DCF0E942508AD
:100D70001ACF0E94310817CF0E94EC0714CFCF7012
:100D8000112329F08C2F0E9400088D2F34CF8D2F36
:100D90000E9431058C2F0E940C0805CFD23F51F1E3
:100DA00060F4D03FB9F0D13F81F0112309F449C07C
:100DB000F110AECE8C2F8F7121C0D33F11F1D43FF3
:100DC000A1F78091BD0282FD26C08C2F8F71112367
:100DD00011F314C0112349F084E08F1508F4E3CE19
:100DE0008C2F8F710E941908DECE95E09F1508F4B4
:100DF000DACEF6CF8C2F8F711111CDCF0E94000863
:100E0000D2CE112329F08C2F8F710E94F707CBCE01
:100E10000E94F307C8CE112349F0CF718C2F0E9496
:100E2000000863E08C2F0E94540CBDCE81E00E942C
:100E3000720CE1E0EF1508F0B6CE82E00E94720C71
:100E4000B2CEF110FFCE8C2F8F71A5CF0F931F93D1
:100E5000CF93DF93EC01688179818A810E94E80851
:100E60008C010E9437080E94D007B801CE010E9471
:100E70003805DF91CF911F910F910895CF93DF93A4
:100E8000EC018B819C81892B29F0888199818923B0
:100E90008F3F51F4DF91CF910895CE010E94260734
:100EA000CE010E94EF02F6CFCE010E9441038111D4
:100EB000F4CF0E94C70B882369F38A81882351F3FA
:100EC0008091BD0282FFE6CF82E00E94720CE2CFE9
:100ED00090E080E00E940B2790E080E00E942127B4
:100EE0000E94EE0B0E940F0C0E9406160E94EA154B
:100EF00008950E94B60B0E94680708950E94DE0BB9
:100F00000E947907089592959F70963091F058F459
:100F1000925F9F70923058F4803F19F030F4883E11
:100F200030F481E008959A5FF4CF843FD1F380E0FC
:100F30000895883EB0F3813FD1F7F3CFFC01838160
:100F40009481892B29F08081918189238F3F11F42D
:100F500080E00895808191810E94DD080E948307CE
:100F60000895A5E0B0E0E7EBF7E00C941F34259678
:100F7000E2E00C943B34A6E0B0E0E1ECF7E00C9446
:100F80001F342696E2E00C943B3408950E94C50776
:100F900008950E94C607809302020E946807089580
:100FA00008950E94C907089590910202892B0E941A
:100FB000C90708959091020289230E94C9070895E4
:100FC0009091020289270E94C90708950E94C507CF
:100FD00008950E94E60708950E94E90780930102A0
:100FE0000E946807089580E00E94EC07089591E050
:100FF00001C0990F8A95EAF7892F0E94EC0708959E
:1010000021E030E001C0220F8A95EAF780910102C9
:10101000822B0E94EC07089521E030E001C0220FEE
:101020008A95EAF720958091010282230E94EC07BD
:10103000089521E030E001C0220F8A95EAF78091FF
:10104000010282270E94EC07089590910102892BEA
:101050000E94EC0708959091010289230E94EC07F9
:1010600008959091010289270E94EC070895089540
:10107000262F277091E001C0990F2A95EAF723E007
:10108000769567952A95E1F7FB01EE0FFF1FE60FB6
:10109000F71FE40FF51F50E040E0682F70E08191EA
:1010A000DF0111979B01042E02C0369527950A9403
:1010B000E2F7217021952827292328272C934F5FB9
:1010C0005F4F4330510559F70895A82FA77023E0CB
:1010D000969587952A95E1F7FC01EE0FFF1FE80F23
:1010E000F91FE60FF71F50E040E080E0219130E06B
:1010F0000A2E02C0369527950A94E2F7217033270D
:10110000042E01C0220F0A94EAF7822B4F5F5F4F33
:101110004330510559F70895262F983070F48530E3
:1011200060F4682F70E085E0989F600D711D1124B8
:1011300042EF51E0822F0E9438080895292F9830FD
:1011400068F4853058F490E062EF71E035E0239F59
:10115000800D911D11240E946508089580E0089576
:10116000CF92DF92FF920F931F93CF93DF936C0187
:101170000091010280910202082BC7E0D0E010E04C
:10118000FC2EC8010C2E02C0959587950A94E2F7B3
:1011900080FD0CC02197A0F7F12C8F2DDF91CF910E
:1011A0001F910F91FF90DF90CF900895B6018C2F83
:1011B0000E94300F019771F3F0CFCF93DF93EC01D2
:1011C0000E94B008BE010E94300FDF91CF910895B8
:1011D0001F93CF93DF93EB019091F101992339F0A5
:1011E000CB010E94DD08DF91CF911F9108958823E4
:1011F00069F0CB010E94B008182F682FCE010E9421
:101200008C08BE01812F0E94300FEDCFCB010E94D0
:101210009E08182FF6CF1F93CF93DF93C091030240
:1012200016E0809104028C1304C0DF91CF911F91CE
:101230000895D0E01C9FF0011D9FF00D1124EB5F7D
:10124000FD4F4081518162817381848195810E942B
:10125000BB072196C770E5CF409135025091360209
:1012600060913702709138028091390290913A0270
:101270000E94BB0708951F93CF93DF9380913A029A
:10128000807F09F049C080913702882309F444C067
:1012900080910302C0910402609135027091360280
:1012A000A0913802B0913902D62FD72316E0C81783
:1012B00099F190E0109711F0DF3F19F401968770D3
:1012C000F6CF189F9001199F300D1124F901EB5FA3
:1012D000FD4F41814713F2CF40814613EFCF42814A
:1012E0004111ECCF438154814A1B5B0B483C5105B3
:1012F00028F780913A028F70806180933A02F90159
:10130000E65FFD4F80818F708061808385E392E08E
:101310000E943E070E940B09DF91CF911F91089513
:10132000A1E1B0E0E6E9F9E00C9417348C0185E026
:10133000F801DE011D9601900D928A95E1F7F80102
:10134000E28085E3C82E82E0D82E60913802709149
:1013500039026115710509F44EC190913502209151
:101360003602892F82238F3F09F445C14081518184
:10137000A380B480F0903702F501E61BF70BFF2045
:1013800009F4EAC080913A02382F307FE83CF10539
:1013900008F0A3C031116DC0FE2C251316C09413A4
:1013A00014C0E11012C08F70806180933A020E94D5
:1013B0002C09C6010E943E0780913A02F8018583FC
:1013C0008F2D6196EAE00C943334A114B10429F016
:1013D000842F85238F3F09F027C180E0F82FF1701B
:1013E000DF2E80FF3CC0809103022091040236E092
:1013F000821315C04D875E878D859E850E94DD080E
:10140000292F22952F702230F0F0243018F59F708C
:10141000F1F0F8019581907FD1F4D12C1EC090E0BD
:10142000389FF001399FF00D1124EB5FFD4F618172
:10143000651306C06081641303C06281E6120FC0A9
:1014400001968770D5CF9F7011F0882331F3805EAD
:10145000883018F3C8010E943E07FD2CB1CFEE2062
:1014600009F4AECF80913A02816080933A02F12C68
:10147000A7CF251306C0941304C0F801EE2009F489
:1014800087C0C8010E949E07882319F1EE2009F148
:1014900080913A02803270F020913502309136020C
:1014A00038872F831986BB86AA868C87CE0107963C
:1014B0000E943E0786E0F801A5E3B2E001900D929C
:1014C0008A95E1F70E943B090E942C09FF24F394BE
:1014D00077CFC8010E943E07F9CF311113C07A2D92
:1014E000B98AA88A6E2D89890E94B10785E392E0A6
:1014F0000E943E0786E0F60111928A95E9F70E9464
:101500002C09B5CF25130FC094130DC0E1100BC0EB
:10151000F8018583C8010E943E0786E0F60111921A
:101520008A95E9F74DCFC8010E949E07882389F26A
:10153000EE2079F280913A02803208F4BBCF2091FC
:101540003502309136023A8329831B82BD82AC82F8
:101550008E83CE010196ACCFE83CF10508F03EC089
:10156000FE2CEE2009F4B5CF25132AC0941328C011
:1015700080913A0280FD1BC0982F907FC1F0F80146
:101580008583903F31F0982F907F905F8F70892BEB
:101590008583C8010E943E0786E0F801A5E3B2E01A
:1015A00001900D928A95E1F70E942C0909CF86E0FF
:1015B000F801A5E3B2E001900D928A95E1F700CF22
:1015C000C8010E949E07811175CF80913A02816007
:1015D00080933A02C8010E943E07F2CE7A2DB98A62
:1015E000A88A6E2D89890E94B10786E0F6011192C2
:1015F0008A95E9F7D9CFEE2009F46BCFC8010E9494
:101600009E07F82E882309F464CF86E0F801A5E34D
:10161000B2E001900D928A95E1F785E392E00E9495
:1016200019040E943B09C0CF81E08E25D7CEACE0E3
:10163000B0E0EDE1FBE00C941E344F8358876987DE
:101640007A878B879C87CE0107960E949009882312
:1016500069F08A859B85892B39F04F815885842FC5
:1016600085238F3F09F06BC016E05FC086E0FE0166
:101670003796DE01119601900D928A95E1F78A85E1
:101680009B85892B89F38F81988589238F3F61F30F
:101690002091040230E0C90101968770992740919A
:1016A00003024817190671F40E947E071092040283
:1016B0001092030286E0E5E3F2E0DF011D928A95D5
:1016C000E9F7D2CF96E0929FD001939FB00D1124FD
:1016D000AB5FBD4FFE01319601900D929A95E1F7F7
:1016E000809304020E940B09BFCF819FC001112487
:1016F0008B5F9D4F0E9490098823E9F0E0910302DF
:101700001E9FF0011124EB5FFD4F408151816281EA
:101710007381848195810E94BB078091030290E0D0
:10172000019687709927809303028091030290911C
:1017300004028913DACF2C96E3E00C943A346985DD
:101740007A858B859C850E94BB078ECF682F809100
:101750000001909101010E947F270895682F8091D8
:101760000001909101010E9482270895809100015B
:10177000909101010E9485270895809143028595EB
:10178000859585950895809143028770089590917D
:101790004302977081E009F480E0089580914E0241
:1017A000089590914E02892B80934E020895809562
:1017B00090914E02982390934E02089510924E02FB
:1017C000089590914D02892B80934D020895809544
:1017D00090914D02982390934D02089510924D02DE
:1017E000089580914402089508950E94F40B08958D
:1017F0009091BD0292FF08C090914402981721F089
:10180000809344020E94F50B08958091440288233E
:1018100029F01092440280E00E94F50B0895CF93C6
:10182000DF93E0910001F091010180914E028083ED
:10183000E0910001F0910101808190914D02892B8E
:10184000808390914402992381F0E0910001F0910E
:1018500001018081892B8083809100019091010199
:101860000E94372781110E94050CC0910001D09180
:10187000010148E050E06BE372E0CE010E94533476
:10188000892B59F088E0FE01ABE3B2E001900D92A4
:101890008A95E1F7CE010E94F226DF91CF9108955B
:1018A00008950E94500C08959091BD0292FF11C0BE
:1018B00098E0899F90011124622B609343020E945B
:1018C0000008809143028595859585950E94510C6D
:1018D00008950E94000808951092430280E00E943B
:1018E000510C08959091430280958923809343027F
:1018F000282F277091F4282F082E000C330B9217F5
:10190000130659F09091BD0292FF07C08595859509
:1019100085950E940C080E946C0C08959091BD0260
:1019200092FB222720F9281769F080FB92F9909307
:10193000BD028091BC029091BD020E94E00C82E049
:101940000E94720C08958091BD0282FB882780F965
:1019500091E089270E948E0C089581E00E948E0CF0
:10196000089580E00E948E0C08956FEF7FEF90E065
:1019700080E00E949B34089590E080E00E947734DC
:10198000883E9E4F19F40E949E1E089580E008959F
:1019900082E090E00E946934089583E090E00E9424
:1019A00069340895CF9384E090E00E946934C82F91
:1019B00082E290E00E946934982F8C2FCF91089595
:1019C000CF93C92F682F84E090E00E947D346C2F64
:1019D00082E290E00E947D34CF910895AB01BC017A
:1019E0008FE090E00E948F340895AB01BC0183E149
:1019F00090E00E948F34089560E070E0CB010E9477
:101A0000F50C089560E070E0CB010E94EE0C0E949E
:101A1000FC0C089568EE7EEF90E080E00E949B341D
:101A200060E082E090E00E947D3460E083E090E03E
:101A30000E947D341092020260E084E090E00E94F7
:101A40007D3464E082E290E00E947D3460E085E0D5
:101A500090E00E947D3460E086E090E00E947D345A
:101A60006FEF87E090E00E947D3440E050E0BA01E3
:101A700088E090E00E948F3460E08DE090E00E946A
:101A80007D3440E050E0BA0188E190E00E948F345C
:101A900060E087E190E00E947D3440E050E0BA01D0
:101AA0008CE190E00E948F3470E060E080E290E092
:101AB0000E949B3440E050E0BA0188E190E00E942F
:101AC0008F3480E00E94B71E0E94E61E0E94020D25
:101AD00008950E940A0D0895682F8EE090E00E94FC
:101AE0007D3408950E94472860935D0270935E02E2
:101AF00080935F02909360026093590270935A0240
:101B000080935B0290935C020895089508950E946B
:101B1000860D089508950E948A0D089585E690E146
:101B20000E94D4260E94850D0E94870D08950E9470
:101B300087120895089508950E949A0D0E949B0DA2
:101B400008950E9481100E94B80308950E943228CF
:101B50000E941A100E94F61E0E94A2120E94B51145
:101B60000E94A10D0E9461200E94BB1C0E94AC1229
:101B70000E948B0D0895AAE0B0E0E1ECFDE00C942A
:101B800017340E94071281E5A82E82E0B82E750155
:101B900010E0F70101917F01812F0E94A4101F5FC7
:101BA000183009F440C00817A1F38091610281FD4B
:101BB0000E94AA100E94970DC82E10E0812F0E944B
:101BC000A410082FF50181915F01081731F1D02E83
:101BD000D826F12CEE24E3948D2D8E21B1F0CC206B
:101BE000A1F0FE821F8391E0802F8E2109F490E006
:101BF00098870E943B288160782F9A8789874E8139
:101C00005F8168858A850E94E403F394EE0CF5E019
:101C1000FF12E2CFF501319700831F5F183071F694
:101C20000E94720D20C00813C0CF0E943B288C0177
:101C300080914F029091500208171907A1F08FEF81
:101C400089838A831B820E943B288160782F9D8331
:101C50008C8349815A816B818D810E94E4031093AA
:101C6000500200934F020E9487120E94011D0E94A1
:101C700028160E94CB032A96EAE00C943334CF93C3
:101C8000DF930E94350FEC01811521E5920708F0E2
:101C900042C0811530E5930708F09FC0883E91054A
:101CA00030F5803E910508F094C0883A910588F49B
:101CB000853A910508F086C08130910509F489C004
:101CC000009709F486C0049708F083C0D0E0C0E014
:101CD00080C08F3B9105D0F7C85AD0E0CC0FDD1FF4
:101CE000CE57DE4F0990D881C02DD46472C08115C3
:101CF00040E2940750F4C11581E0D80708F069C0AC
:101D0000C03FD10518F3D06564C081159044F0F24E
:101D1000DF70D06A5EC0811535E5930718F581152F
:101D200044E5940708F085C0C11583E5D80708F09D
:101D30006CC0C11522E5D20708F462C0CE018370E1
:101D4000992721E030E002C0220F331F8A95E2F785
:101D5000C695C69580E2C89FE0011124C22BD32B03
:101D6000DC6837C0811539E59307A8F4811548E58B
:101D7000940708F063C0C11586E5D80708F0A6CF20
:101D80008C2F0E94D70FC82FD0E0DC2FCC27CC2778
:101D9000DF71D0621EC081152AE5920708F453C096
:101DA00090568115904208F091CF8D2F8F710E942F
:101DB000D70F90E0982F882788279F719C012C2BA4
:101DC000E901E7CFC55AD0E0C055DE4FC881D0E069
:101DD000D064CE01DF91CF9108958370992721E0DF
:101DE00030E002C0220F331F8A95E2F7C695C695F0
:101DF00040E2C49FE0011124C22BD32BDD68E9CF60
:101E0000DC2FCC27C16FD06AE4CFCE018370992735
:101E100021E030E002C0220F331F8A95E2F7C69519
:101E2000C69540E2C49FE0011124C22BD32BDA688F
:101E3000D0CFD82FCC27C46FD06ACBCFD82FCC2708
:101E4000C06FD06AC6CF8F700E94D70F34E0D6958E
:101E5000C7953A95E1F7CF709C2FEC01D069B9CFC7
:101E60000E9480230E943F0E089582389105B9F1A7
:101E7000B0F48133910509F47DC048F489329105AD
:101E800009F46DC08A32910509F47BC00895853349
:101E9000910509F45FC08933910509F10895833EE6
:101EA0009105D9F138F4803E910529F1823E9105E2
:101EB00079F10895863E9105D9F1873E910509F49F
:101EC0003EC0843E910541F52091BD0221FF24C012
:101ED0008091BC0284FD19C087EE90E008952091A6
:101EE000BC02237009F05AC02091BD0223FF14C028
:101EF00089E290E008952091BC0220FD38C0309125
:101F0000BD0230FF09C024FF43C090E080E0089587
:101F10002091BC0222FDF7CF08952091BC0222FD42
:101F20003AC03091BD0230FD39C024FFF5CFEDCF6E
:101F30002091BC0223FFF0CF24FDE7CFCDCF20912D
:101F4000BC0223FD2EC03091BD0231FFEECF84EEE6
:101F500090E008952091BC0225FFDECFC9CF2091EB
:101F6000BC0225FD21C02091BD0223FFD5CF89E30E
:101F700090E0D2CF2091BC0226FFCECF8AE290E043
:101F800008952091BC0226FFC7CF81E390E0089519
:101F900083EE90E0089582EE90E0089580EE90E068
:101FA000089586EE90E0089585E390E0089590917D
:101FB000BC0292FF06C0282F28712830F9F4877FD1
:101FC000846093FF06C0282F28712831F1F4877EA2
:101FD00084612091BD0220FF06C0382F387138304F
:101FE000D9F4877F816021FF06C0282F287128310E
:101FF000D1F4877E816194FD877E0895282F247116
:102000002430F9F68B7F8860DCCF282F24712431AF
:1020100001F78B7E8861DDCF382F3171313019F7B0
:102020008E7F8860E0CF282F2171213121F78E7EAD
:102030008861E1CF1092B8021092B9021092BA02F0
:102040001092BB020895CF92DF92EF92FF926B0144
:102050007C010E94871281110EC00E944728C61A77
:10206000D70AE80AF90AC092B802D092B902E092FF
:10207000BA02F092BB02FF90EF90DF90CF900895EC
:102080000F931F930E948712882329F00E944728EC
:102090001F910F9108950E9447280091B802109156
:1020A000B9022091BA023091BB02600F711F821FEA
:1020B000931FEECF0E948712882319F00E943B28BD
:1020C00008950E944010CB01089580E008950E9479
:1020D000B50C08950E9407128FE39CE90197F1F770
:1020E00000C000000E94071280E00E94A41080FF40
:1020F00004C00E9467100E94A22808950E946A10DE
:1021000008950E94BC0C811102C00E94690D0E94BA
:10211000C80C809361020E94D20C9093BD02809300
:10212000BC020E947E100E94CD0C0E94D1078091BB
:1021300001020E94E907089508950E949C100895E5
:1021400008950E94A0100895E82FF0E0E953FD4F94
:1021500080810895089580EA8A95F1F7089500C076
:1021600008950E94AB10089508950E94B410089538
:10217000EF92FF921F93CF93DF9300D000D0CDB7A3
:10218000DEB70E948712182F6091CF02882309F4CE
:1021900047C019821A821B821C82862F90E09E0102
:1021A0002F5F3F4F7901B90189539D4F0E94BA12A9
:1021B0008823E9F08091BE0290E044E050E0B7014E
:1021C00089539D4F0E94533421E020936202892B52
:1021D000C9F410E00E942503812F0F900F900F90FB
:1021E0000F90DF91CF911F91FF90EF900895809114
:1021F0006202882371F384E0F70111928A95E9F76E
:1022000010926202E091BE02F0E0E953FD4F898135
:102210009A81AB81BC8180839183A283B383DACF1F
:1022200070E069537D4F8091BE0290E089539D4FCD
:102230000E9441130E94B510CFCFF894E82FE29589
:10224000EF70F0E031A1282F2F7081E090E001C005
:10225000880F2A95EAF7982F9095932391A392A13E
:10226000892B82A378940895CF93DF93C2E0D1E0C5
:1022700089918F3F11F00E941D1181E0C730D8076E
:10228000B9F7C7E0D1E089918F3F11F00E941D118D
:1022900081E0CB30D807B9F7DF91CF910895B0E056
:1022A000A0E0E5E5F1E10C9419347C01162F042F30
:1022B000C62FD0E0CE5FDE4F28812F3F09F44CC0FF
:1022C000F894E22FE295EF70F0E031A12F7081E0F9
:1022D00090E001C0880F2A95EAF7932F982B91A3DD
:1022E00092A18095892382A378940E94AF1087E001
:1022F000C82E81E0D82EF701A7014C5F5F4FF12C6B
:10230000E02EE094D6019D916D0181919F012150B5
:1023100031099F3F31F1692F62956F7070E0DB01E9
:1023200090966C9170E09F7002C0759567959A9534
:10233000E2F760FD16C0802BD9018C93FF24F39443
:10234000E417F507F9F688818F3F11F00E941D11FF
:102350006F2D812F0E94B110CDB7DEB7E8E00C944D
:1023600035348E21D9018C93EBCFA5E0B0E0EBEBB7
:10237000F1E10C941F3480910B01811124C085E39D
:102380008093070184E38093080181E3809309012E
:1023900087EF80930A0185E0ECE4F1E0DE0111961D
:1023A00001900D928A95E1F78981809302018A81DB
:1023B000809303018B81809304018C8180930501BC
:1023C0008D818093060180910B0194E0811190E052
:1023D0009093CF0284E0891B8093BE020E94341147
:1023E00088E0E7ECF2E0DF01982F1D929A95E9F77B
:1023F000EFEBF2E0DF011D928A95E9F784E00E949D
:1024000049120E9422032596E2E00C943B34A8E096
:10241000B0E0EDE0F2E10C941B348E010F5F1F4F32
:1024200088E0F80111928A95E9F7F12CEE24E39403
:102430004E2D6F2DC8010E944F11F394EE0CF5E064
:10244000FF12F6CF48E050E0B8018FEB92E00E9417
:10245000533421E0009709F420E0892B41F088E013
:10246000F801AFEBB2E001900D928A95E1F760912F
:10247000CF0270E069537D4F44E08FEB92E00E9401
:102480004A12182F0E94B810812B2896E6E00C946F
:1024900037340895CF92DF92EF92FF920F931F93FC
:1024A000CF936C017B01042F222349F081E08093BC
:1024B00065020E943B289093640280936302C0915E
:1024C0006502C1110AC0C0E08C2FCF911F910F91FE
:1024D000FF90EF90DF90CF900895809163029091EC
:1024E00064020E945328059770F310E0A801B6011A
:1024F000C7010E945334892B41F0A801B601C701DE
:102500000E94603410926502DFCFC0E0FBCF809163
:102510006802811107C00E943130882351F081E0A8
:102520008093680281E090916802913009F080E028
:10253000089582E0809368020E942C30F3CF0E94BD
:10254000871208950E949F1280930B010E948712A8
:1025500081110E94F01208950E948712811102C019
:102560000E94F312089581E0909169029A3008F078
:1025700080E008950F931F93CF93DF93EC018B01BD
:10258000809169028A30B8F4B801CE010E943E13EE
:10259000C82F811122C0809169028F3FB9F40E9437
:1025A0003B2890936702809366028C2FDF91CF9136
:1025B0001F910F91089580916602909167020E9489
:1025C0005328843F914000F7C0E0EFCF8F5F8093A6
:1025D00069028A3020F7C1E0E8CF10926902E5CFA6
:1025E0000E94722508950E9475250895B0E0A0E02C
:1025F000ECEFF2E10C941A347901C82F880FDD0B4F
:1026000041155105A9F0FE0193E0EE0FFF1F9A95C9
:10261000E1F7E45FFE4F8181928186599D4F2081D1
:1026200030E04217530708F49A01A9010E94603470
:10263000CE010E945E26D82E8823D1F00115110507
:10264000B9F083E0CC0FDD1F8A95E1F7FE01E45F6E
:10265000FE4F438150E00417150708F4A801C45F3A
:10266000DE4F6C817D8166597D4FC7010E946034C9
:102670008D2DCDB7DEB7E7E00C9436340E943814C8
:1026800008950E944F140895A4E0B0E0EAE4F3E155
:102690000C941D3460917F027091800280918102C0
:1026A000909182020E94622811E0643671058105D2
:1026B000910518F10E9440106E5F7F4F8F4F9F4F22
:1026C00069837A838B839C8310E000E030E020E014
:1026D00044E050E0BE016F5F7F4F82E00E94F6123F
:1026E000182F882351F00E94472860937F0270932F
:1026F00080028093810290938202812F2496E4E0ED
:102700000C943934B0E0A0E0E8E8F3E10C9417341D
:102710007C015B016A010E94B31201E010E0882392
:1027200011F00AE010E0C1E0D0E0B501C701F60108
:102730000995811104C021960C171D072CF4CDB703
:10274000DEB7EAE00C943334CC9F9001CD9F300D7E
:10275000300D112490E080E045E34A95F1F7000048
:10276000019682179307C1F7E0CFA5E0B0E0EBEB4D
:10277000F3E10C9417345B01E090B301F090B401E5
:1027800001E010E09E012B5F3F4F50E040E070E021
:1027900060E080E00E94F612182F882309F44BC0F5
:1027A00067018FEFC81AD80A60917B0270917C0292
:1027B00080917D0290917E020E94622864367105AC
:1027C0008105910580F104E010E09E012F5F3F4FED
:1027D00050E040E070E060E081E00E94F612F82EE8
:1027E00064E070E0C6010E94622011E09D819813B0
:1027F00010E01F2159F10E94472860937B027093DB
:102800007C0280937D0290937E0289819A81AB81C4
:10281000BC818093770290937802A0937902B09361
:102820007A0211E013C064E070E0C6010E946220E9
:102830009D818913C8CFF70181819281A381B481E1
:1028400089839A83AB83BC831111DFCF8091770298
:1028500090917802A0917902B0917A02F50180837B
:102860009183A283B383812F2596EAE00C943334BD
:102870000F931F93CF93DF93EC018B0145EB53E153
:102880000E948213882331F044E453E1B801CE0161
:102890000E948213DF91CF911F910F9108950F93A2
:1028A0001F93CF93DF93C091B301D091B401CE01B8
:1028B000019624E0FB01DC0101900D922A95E1F7DD
:1028C00064E070E00E94622088836D817E818F8148
:1028D00098850091730210917402209175023091D5
:1028E0007602601771078207930751F060937302B5
:1028F0007093740280937502909376020E94231065
:10290000DF91CF911F910F9108950E948B2A0E9411
:10291000A60D0E94982A08950E949D2A0E94BB0D30
:102920000E94B72A08950E94D4270E94712A0E940B
:102930008E0D0E9485140E948C140E949C0DFBCF6A
:102940008091890280FF0DC06091290170E0660FBF
:10295000771F6038710570F56115710569F1862F73
:10296000089581FF07C06091290184E0689FB0014C
:102970001124EFCF6091290182FD0AC08091880265
:102980008823A9F02091280160912901821710F075
:1029900088E0ECCF869FC001112433E0880F991F97
:1029A0003A95E1F7622F70E00E949B33D2CF68E046
:1029B00070E0D5CF8FE7089581E008958091890276
:1029C00080FF0CC06091250170E075956795759545
:1029D00067956115710549F1862F089581FF06C03D
:1029E0006091250170E075956795F3CF60912501A1
:1029F00082FD0BC0909187029923A1F06091240180
:102A000080912501961738F0682F70E060387105C5
:102A100000F38FE70895899FC001112470E00E94A0
:102A20009B33F4CF61E070E0D7CF81E00895803F21
:102A300031F40E94A014819580938D020895813F06
:102A400019F40E94A014F8CF823F31F40E94A01420
:102A5000819580938C020895833F19F40E94A014FD
:102A6000F8CF893F29F40E94DE1480938E020895E6
:102A70008A3F21F40E94DE148195F7CF8B3F31F419
:102A80000E94DE14819580938F0208958C3F19F483
:102A90000E94DE14F8CF9CE0980F953070F4845FAC
:102AA000990B21E030E001C0220F8A95EAF780916E
:102AB0008B02822B80938B0208958D3F31F480919D
:102AC000890281608093890208958E3F21F480916C
:102AD00089028260F7CF8F3FB9F7809189028460C5
:102AE000F1CF40918C02803F59F480918D0287FF95
:102AF0000DC010928D0241110BC01092880208C0C7
:102B0000813F81F480918D0218169CF3442381F05B
:102B100080918E0290918F02892B09F05AC01092F9
:102B200087020895823F49F447FFF0CF10928C024C
:102B300080918D028111ECCFE0CF833F19F4141600
:102B4000ACF3E4CF90918E02893F29F41916F4F684
:102B500010928E02DBCF8A3F19F497FFD7CFF8CFC0
:102B600090918F028B3F29F497FFD0CF10928F0264
:102B7000CDCF8C3F19F41916CCF3C8CF9CE0980F39
:102B8000953090F4845F990B21E030E0B90102C0E8
:102B9000660F771F8A95E2F7CB01809590918B02A3
:102BA000892380938B02B2CF8D3F31F480918902CB
:102BB0008E7F80938902AACF8E3F21F48091890273
:102BC0008D7FF7CF8F3F09F0A1CF809189028B7F56
:102BD000F0CF08950E943B289C0190918C02809137
:102BE0008D02982B21F030938602209385029091DC
:102BF0008E0280918F02982B21F0309384022093D3
:102C000083028AE892E00E94FD26089586E0EAE8C1
:102C1000F2E0DF011D928A95E9F710928802109286
:102C20008702109289020895FC01828181110EC0F1
:102C3000838181110BC08481811108C091E085815D
:102C4000811101C090E0892F8170089581E0FCCF4F
:102C5000A6E0B0E0EEE2F6E10C941E3486E0EAE88D
:102C6000F2E0DE01119601900D928A95E1F7109243
:102C70008C0210928D0210928E0210928F028B8124
:102C80009C81892B89F080918502909186020E9417
:102C90005328AC01909188029923C9F180912A01AF
:102CA0008417150608F440C08D819E81892B91F010
:102CB00080918302909184020E945328AC019091EC
:102CC0008702992309F471C08091260184171506A3
:102CD00008F479C0BE016F5F7F4F8AE892E00E94DE
:102CE0008C27811105C08AE892E00E941416811198
:102CF0000E94EA1586E0FE013196AAE8B2E0019052
:102D00000D928A95E1F72696E3E00C943A342091EF
:102D10002B018AE0289F900111242417350720F603
:102D20009F5F9093880202C09F3FD1F71B811123C0
:102D300059F00E94A0149FEF11160CF491E0899FA6
:102D4000802D112480938C021C81112359F00E9444
:102D5000A0149FEF11160CF491E0899F802D11248F
:102D600080938D0230918C02332309F49DCF209102
:102D70008D02222309F498CF45EB3403C0011124BE
:102D8000992359F090938C0245EB24039001112470
:102D9000332339F030938D0287CF81E080938C020A
:102DA000F3CF81E080938D027FCF209127018AE0CD
:102DB000289F900111242417350708F08BCF9F5FBF
:102DC0009093870202C09F3FD1F71D81112359F0D4
:102DD0000E94DE149FEF11160CF491E0899F802D64
:102DE000112480938E021E81112359F00E94DE145B
:102DF0009FEF11160CF491E0899F802D1124809390
:102E00008F0230918E02332309F464CF20918F0218
:102E1000222309F45FCF45EB3403C0011124992329
:102E200059F090938E0245EB240390011124332333
:102E300039F030938F024ECF81E080938E02F3CF32
:102E400081E080938F0246CFEF92FF920F931F9302
:102E5000CF93DF93EB01E82FD1110EC0442321F073
:102E6000F0E0E750FE4FE4916E2F7E2F8E2FCDB70E
:102E7000DEB7E6E00C9437340D2F10E0282F30E059
:102E8000442329F027503E4FF901249130E0F6E029
:102E9000CF9FC0011124EFEFF0E0BF010E94873304
:102EA000AB018C2F90E0880F991FA5E5A49FB0017E
:102EB000A59F700D1124861B970B982F990F980FC3
:102EC000BF01601B710B629FD001639FB00D729FA9
:102ED000B00D11248B2F9D9FB0011124672F7727F0
:102EE000EF01C61BD70BBE01629FE001639FD00DAF
:102EF000729FD00D11247F01E91AF108E09EB00104
:102F0000E19E700DF09E700D1124672F7727E61B50
:102F1000F70BE29F8001E39F100DF29F100D11242B
:102F2000E12F722F4230510599F048F441155105B7
:102F300069F04130510581F0EB2F8D2F07C04430EF
:102F4000510569F080F046305105B1F76E2F8FCFF3
:102F5000E22F7B2F812FFACFE22F7D2FF7CFEB2FA0
:102F6000822F712FF3CF7B2F822FED2FEFCF41E0F8
:102F70000E942417089508950E94B7170895CF93CB
:102F8000DF93762FE901682F842F0E94BC17798385
:102F900068838A83DF91CF9108958091D002982F22
:102FA0009E7F29F4817082608093D00208958A34D4
:102FB000E8F381708864F8CF88E090E00E94713473
:102FC0000895CF92DF92EF92FF926B017C010E94F5
:102FD000CD17B701A60188E090E00E948F34FF90E2
:102FE000EF90DF90CF9008956091D0027091D10260
:102FF0008091D2029091D3020E94E1170895E0EDF2
:10300000F2E083E0808311828FEF828383831482D6
:1030100060817181828193810E94E117089580917E
:10302000D00280FF02C08695089580E008959091B7
:10303000D402933018F49F5F9093D402882351F008
:103040006091D0027091D1028091D2029091D3020E
:103050000E94E117089581E00E9417180895909149
:10306000D402992319F091509093D402882351F0FF
:103070006091D0027091D1028091D2029091D302DE
:103080000E94E117089581E00E942F180895809111
:10309000D40208958093D402662351F06091D00247
:1030A0007091D1028091D2029091D3020E94E117D7
:1030B000089560E00E944A1808958091D102089511
:1030C0008091D20208958091D302089570E00E9409
:1030D000721E0895609130018091D00280FF0BC074
:1030E00080912F0123E0829FC00111248B529D4FBC
:1030F0000E9466180895809131019091320123E079
:10310000829FF0011124EB52FD4F891748F711827D
:10311000108212828F5F3396F8CF9091D00290FF89
:103120000EC0909131012091320133E0939FF00164
:103130001124EB52FD4F921718F00E946A1808955F
:103140008183608342839F5F3396F5CFA3E0B0E035
:10315000ECEAF8E10C941F349091D00290FF0AC081
:103160009E012F5F3F4F0E94BF174B8169818A816B
:103170000E948D182396E2E00C943B34CF93DF93AA
:10318000EC016C8170E090E080E00E94883120E0EA
:1031900030E04FE753E40E94AB302BED3FE049E4D1
:1031A00050E40E94B1320E941E330E9425312BE46C
:1031B0003AE34EE25FE30E943E3020EF3BEF48ED02
:1031C00052E40E94B1320E945731462FE0EDF2E006
:1031D000628181810E94A6188C818F5F8C83DF9130
:1031E000CF910895CF93DF93EC01E0EDF2E04381BE
:1031F00062818C810E94A6188C818F5F8C83DF9105
:10320000CF910895A3E0B0E0E8E0F9E10C941D341B
:103210008C018091900281110AC09E012F5F3F4F67
:103220004FEF6FEF0E94BF178A8180939002F801E1
:103230006481613069F08091900240E0662361F022
:1032400040E0623011F44091900280E060E004C000
:103250006091900240E080E00E948D18F801848126
:1032600090E0019663E070E00E949B338483239694
:10327000E4E00C943934A3E0B0E0E1E4F9E10C942B
:103280001834082FD62EE42EC22E9091D00290FF33
:1032900029C0E92FE695AE2FB0E0AB54BE4F8C911C
:1032A00080939C029E7F923009F59E012F5F3F4FD5
:1032B000802F0E94BF174B8169818A810E948D18DF
:1032C0000093D102D092D202E092D302CC2051F0EE
:1032D0006091D0027091D1028091D2029091D3027C
:1032E0000E94E1172396E9E00C943434823019F4FB
:1032F000E090D302E5CF863019F40091D102E0CFFF
:103300008930D9F38931E1F6E9516E2F6170B62E1B
:10331000E695F0E0EC50FE4F1491F12C60913301F2
:10332000F61618F00E946A18CBCFF19EC001112446
:1033300070E00E948733802FB11014C0860F209157
:103340003101622F6F0D7727771F9B01220F331FEB
:10335000260F371F2B523D4F4E2D6D2D0E94BF174C
:10336000F394DCCF861BEBCFE0EDF2E09181282FC8
:103370004381628188E0890F0E943B19089581E0B2
:103380000E94B4190895E0EDF2E09181282F438165
:10339000628188EF890F0E943B19089581E00E94A5
:1033A000C3190895E0EDF2E0628128E0620F08F4AD
:1033B0006FEF282F438181810E943B19089581E09E
:1033C0000E94D2190895E0EDF2E0628128E0621BCC
:1033D00008F460E0282F438181810E943B19089501
:1033E00081E00E94E3190895E0EDF2E0438128E0D6
:1033F000420F08F44FEF282F628181810E943B1910
:10340000089581E00E94F4190895E0EDF2E043810F
:1034100028E0421B08F440E0282F628181810E944D
:103420003B19089581E00E94051A089520E00E944A
:103430003B190895EF92FF921F93CF93DF93EC0116
:1034400010E0EE24EA94F12C60913301161770F02D
:103450000E946A189A818C8190FF27C08F5F8C83AD
:10346000DF91CF911F91FF90EF900895209131014E
:10347000422F410F5527551FCA019A01220F331FB2
:10348000280F391F2B523D4F70E0C7010E949B331C
:10349000962F8C814091D3026091D202199F800DAA
:1034A00011240E94BF171F5FCFCF8150D8CFB0E04B
:1034B000A0E0EDE5FAE10C941834FC0182810FEFF5
:1034C00080FF01E010E080913301181798F00E940E
:1034D0006A1880919202013009F04CC0811102C03B
:1034E00080913301815080939202CDB7DEB7E9E03D
:1034F0000C943434C0913101C12ED12CCC0DDD2D72
:10350000D11DCE01880F991FC80FD91FCB52DD4F97
:10351000198218821A8234E0E32EF12CB12C8091AA
:1035200092028B0D813104F18F70082E000C990BE3
:10353000C816D90691F48091D3028E9DA0018F9D6B
:10354000500D112455954795559547959E016091CD
:10355000D2028091D1020E94BF17B00EF1E0EF1AA3
:10356000F108E9F61F5FAFCF87FFDFCF90913301FE
:10357000890FDBCF90E001966091330170E00E94EB
:103580009B33B1CF0F931F93CF93DF938091310182
:103590009091320123E0829FF0011124EB52FD4F04
:1035A000891740F1C0E0D3E060913301C61740F1C4
:1035B0000E946A1820912D0180919102820F8093C0
:1035C000910290912E01920F90932E01191654F4AE
:1035D000082E000C990B409133014150550B841774
:1035E00095071CF0219520932D01DF91CF911F911C
:1035F0000F9108951182108212828F5F3396D0CF7F
:103600000C2F10E070E0C8010E949B332091310123
:10361000820F482F50E020919102022E000C330BB4
:1036200002171307BCF020912E01022E000C330B61
:10363000201731077CF08D9F900111242B523D4FB4
:103640004091D3026091D2028091D1020E94BF17B3
:10365000CF5FAACFFA01EE0FFF1FE40FF51FEB5269
:10366000FD4F118210821282F3CFB0E0A0E0EBE3B5
:10367000FBE10C941534EC014C81042F10E098010F
:10368000D8010E94E6339B01AC010E94FC334B0140
:103690005C01E0E2F0E0E01BF10BA5E5B0E0AC017D
:1036A0009B010E94FC336B017C019F01DF010E94A2
:1036B000DE339B01AC010E9407349B01AC01280D55
:1036C000391D4A1D5B1DC701B6010E94AF33F22EA2
:1036D000822F90E039E23F1520F143E0249F9001D2
:1036E000112435952795122F109500E085E5E82ED9
:1036F000EF1880913301081718F10E946A189C8115
:1037000081E0992319F0903219F48FEF80932C0106
:1037100080912C01890F8C83CDB7DEB7ECE00C943F
:10372000313425E530E0B901681B790B9B01220F8C
:10373000331F260F371F37FFD4CF2F5F3F4FD1CF17
:103740008E2D01FD8F2D20913101622F600F772783
:10375000771F9B01220F331F260F371F2B523D4F20
:10376000412F6091D2020E94BF170F5FC2CF0F930B
:103770001F93CF93DF93EC0110E000E090913301B1
:103780009017110609F06CF40E946A188C8190E081
:103790000196817099278C83DF91CF911F910F91B2
:1037A000089520913101A801420F511D9A01220F65
:1037B000331F240F351F2B523D4F4C816091D20295
:1037C0008091D10296959017110651F04CF0442348
:1037D00049F04091D3020E94BF170F5F1F4FCECF19
:1037E0004423B9F340E0F7CFE0EDF2E080818E7F33
:1037F000808360817181828193810E94E1171092A0
:103800009D022FEF80E792E0215080409040E1F749
:1038100000C000000E946A180895E0EDF2E0808187
:103820008E7F808310929D022FEF80E792E02150DF
:1038300080409040E1F700C000000E946A1808959F
:1038400010929D0280919A0281110AC081E08093BA
:103850009A028091D0028170809399020E940D1C7F
:1038600008956091D002669570E04BE050E084E3EB
:1038700091E00E944634892B19F481E080939D02E7
:103880000E945A109093940280939302089590910D
:10389000D00290FF2BC09170811129C0926090934B
:1038A000D002662351F06091D0027091D1028091D4
:1038B000D2029091D3020E94E1176091D0026695E6
:1038C00070E04BE050E084E391E00E944634892BA5
:1038D000A9F010929D0281E0809396024091D3025C
:1038E0006091D2028091D1020E94161A0895853209
:1038F00010F09864D4CF880F982BD1CF0E94311C40
:10390000EACF682F9091D002969581E0890F853299
:1039100008F081E00E94471C089581E00E94811C0C
:103920000895682F9091D00296958FEF890F09F432
:1039300084E20E94471C089581E00E94911C089532
:1039400061E00E94471C0895E0EDF2E08081816013
:10395000808386950E94A01C08958091D00280FFEC
:1039600003C00E94F41B08950E94A41C089560E007
:103970000E94471C089580919B0281112EC00E94D5
:10398000BC0C811104C00E94690D0E94FF170E94A7
:10399000DC176093D0027093D1028093D20290938F
:1039A000D3026E7F61F40E94FF170E94DC176093C0
:1039B000D0027093D1028093D2029093D3020E94DE
:1039C000CD1710929D028091D00280FF03C0869592
:1039D0000E94B71C81E080939B020895E0EDF2E025
:1039E00080818160808386950E94B71C0895109223
:1039F0009A028091990281110E94EE1C0E94311C52
:103A000008950F931F93CF93DF9380919D02882396
:103A1000B9F180919C02E091D002E695E81BE09319
:103A20009502823091F5F0E0E051FE4FE491CE2F07
:103A3000D0E00EEB18E180919602882361F010929D
:103A400096020E945A1090939402809393021092CF
:103A50009802109297020E945A10E0919302F091FE
:103A600094028E1B9F0B8F3F9F4750F4EC0FFD1F5E
:103A7000F0939402E093930283E992E0F8010995B0
:103A8000DF91CF911F910F910895863049F4F0E0B6
:103A9000E351FE4FE491CE2FD0E002EF18E1CBCFFF
:103AA000893051F4E695F0E0E651FE4FE491CE2FD7
:103AB000D0E00AE11AE1BFCF8F3051F4E695F0E093
:103AC000E951FE4FE491CE2FD0E007E51AE1B3CFE4
:103AD000853149F4F0E0EC51FE4FE491CE2FD0E077
:103AE00002EC1AE1A8CFC8E2D0E005E31BE188317F
:103AF00009F4A1CF833239F4E2EEF1E0C591D4911B
:103B000002E019E198CFC4EFD1E007EB1BE184326A
:103B100009F491CFC0EDD7E00BEB17E18CCFFA01A0
:103B2000811101C0FB0109950895CF93DF93C82F40
:103B3000D62F0E940F188C1748F00E940F188D176F
:103B400028F40E948D1CDF91CF9108958C2F0E9444
:103B5000A01CF9CF1F93CF93DF93EC01FB011281DF
:103B600011117EC00E94CE0B8272CC3CFCE5DF07B7
:103B700009F49CC008F041C0C63CECE5DE0709F43E
:103B800081C0D8F4C33C9CE5D90709F471C030F476
:103B9000C23CDC4509F469C011E062C0C43C9CE54C
:103BA000D90709F46AC04EEC59E16FEB79E1C53CE5
:103BB000DC4591F70E948F1D53C0C93CFCE5DF072F
:103BC00009F46AC068F4C73CECE5DE0709F45FC09D
:103BD0004FED59E160EF79E1C83CDC4559F3DCCFAA
:103BE000CA3C9CE5D90709F45CC043E458E16BE2A8
:103BF00078E1CB3CDC45F1F2CFCFC13DFCE5DF07FE
:103C000009F465C098F4CE3C9CE5D90709F457C087
:103C100008F451C0CF3CFCE5DF0709F455C0C03DB6
:103C2000DC4509F0B9CF6EE089E04BC0C43D9CE5AE
:103C3000D90709F452C058F4C23DFCE5DF0709F486
:103C400049C0C33DDC4509F0A7CF88E135C0C53D7B
:103C50009CE5D90709F444C0CD35DD4509F09CCF7A
:103C6000812FDF91CF911F9108950E94AD1CF8CF55
:103C70004CE95CE16DE87CE19DCF4DE85CE16CE9ED
:103C80007CE198CF4FEB59E16EEC79E193CF40EFB7
:103C900059E16FED79E18ECF42E15AE161E07AE1DD
:103CA00089CF41E05AE162E17AE184CF4BE258E109
:103CB00063E478E17FCF81E00E94A01CD1CF65E072
:103CC00082E00E94951DCCCF68E086E0FACF64E1E7
:103CD0008FE0F7CF67E185E1F4CF62E289E1F1CFD0
:103CE00083E2EACF539A4BB1477F5BB15860EFB79D
:103CF000F8949B01220F331F260F371F280F391FFF
:103D00002817390741F4EFBF8FE594E00197F1F7E9
:103D100000C000000895DC016D91CD0178E05BB931
:103D2000000000C067FF4BB9660F000000C000C074
:103D300000C04BB900C07A9591F7E2CF83E290E0E2
:103D40000E946934823289F484E290E00E946934EE
:103D5000803159F485E290E00E94693491E081302D
:103D600009F090E0892F8170089580E0FCCFCF9317
:103D7000C82F6FEF811162E283E290E00E947D34F0
:103D80006FEFC11160E184E290E00E947D346FEF3B
:103D9000C11161E085E290E00E947D34CF910895E9
:103DA000089586E290E00E946934682F70E090E008
:103DB00080E008950895CF93C62F0E94DA1E6C2FDD
:103DC00086E290E00E947D34CF91089580E00E94C9
:103DD000B71E60E070E0CB010E94DB1E0E94FA2259
:103DE0000E94DD2381E00E94B71E08950E94D01E2C
:103DF0000E94D11E0E94DA1E0E949E1E811102C0E6
:103E00000E94E61E0895CF93FB01C281CC2309F1E5
:103E10009C0122513F452031310520F582510E94FD
:103E2000ED23C0E08C2FCF91089581E00E9400081F
:103E300043E062E081E00E941803F3CF81E00E943A
:103E40000C0843E062E081E00E941803EBCF82E0BF
:103E5000F6CF8031FFE59F0789F381319F45B9F3A4
:103E6000C1E0E0CF8031EFE59E07F9F281319F4557
:103E7000C9F682E0DBCF2FEFFC0120830895CF93BA
:103E8000DF93EC0188818138E9F028F4803871F003
:103E9000DF91CF9108958238C9F08338C9F70E9425
:103EA0005D1889830E9460188A83F2CF0E9463188C
:103EB0002FEF829FC00111246FEF70E00E948733C3
:103EC0006983E6CF0E940F188983E2CF0E944718CA
:103ED000FBCFCF93DF93EC018881813821F128F467
:103EE000803869F0DF91CF910895823841F18338AD
:103EF000C9F70E946318482F6A81898111C089819E
:103F00002FEF829FC00111246FEF70E00E94873372
:103F1000D62F0E946018C82F0E945D184D2F6C2F5D
:103F20000E94161ADFCF89810E94B71C89818111F6
:103F300003C00E940D1CD6CF0E94EE1CD3CF8981F6
:103F40000E945918CFCFEF92FF920F931F93CF93F8
:103F5000DF93EC01062FDC01ED91CD01E150E3315F
:103F600008F0ACC0F0E0E154FB4C0C94D133198262
:103F70008AE08A83602FCE010E944429CDB7DEB744
:103F8000E6E00C9437348981823069F0833071F037
:103F90008130D9F40E9447280E94D7336A837B83FB
:103FA0008C839D83E7CF0E94D11EF6CF7E01B2E0C5
:103FB000EB0EF11C10E0812F0E94A410F7018193F9
:103FC0007F011F5F1830B9F7D5CF602FCE010E9457
:103FD0003B1FD0CF89818230C1F76A817B818C8180
:103FE0009D810E94D7330E94DB1EC4CF4B816A8122
:103FF00089810E94BC229827892798279D838C83DA
:10400000B9CF2C813D813227232732274B816A810A
:1040100089810E94DE22AECF0E94FA22ABCF0E949D
:10402000691FA8CF0E943F1FA5CF0E94F417A2CFFF
:104030000E948E2389839ECF0E94902398278927F0
:1040400098279A83898396CF6B8170E089819A81C2
:10405000AE014C5F5F4F9827892798270E949323D2
:1040600089CF6B8170E089819A81AE014C5F5F4F8F
:104070009827892798270E94B8237CCF0E94DD23A8
:1040800079CF0E94AA22D6CF6B8170E089819A8174
:10409000AE014C5F5F4F9827892798270E943823ED
:1040A00069CF6B8170E089819A81AE014C5F5F4F6F
:1040B0009827892798270E945C235CCF8FEF8883FD
:1040C00059CF0895FC01680F791F8FEF91E36E17A8
:1040D0007F0709F408952191822728E030E087FFC7
:1040E00006C0880F892721503109C9F7F0CF880F02
:1040F000FACFCF93DF93EC01FB018281882309F48F
:1041000064C1C330FDE5DF07E0F5CA3F9CE5D90790
:1041100030F49E0122503C4524313105D8F50E94EF
:10412000D20C9093BD028093BC02C231ECE5DE0755
:1041300009F41FC108F06EC0C9308CE5D80709F436
:10414000F2C008F03FC0C530ECE5DE0709F4DBC083
:1041500058F5C3308CE5D80709F4CDC008F0CFC0BE
:104160008091BC028160C230DC4509F4AEC0809110
:10417000BC029091BD020E94E00C0E947E0780E08C
:1041800009C0C53AEDE5DE0751F238F4C1369DE5C8
:10419000D90729F2DF91CF9108959E012D5A3D450F
:1041A00023303105B8F7BBCF8091BC028062C730A5
:1041B000FCE5DF0709F489C008F4B1C08091BC02B6
:1041C000806483C0CD309CE5D90709F4BAC070F48F
:1041D0008091BC028E7FCB30FCE5DF0709F475C00F
:1041E00008F4A7C08091BC028D7F6FC0CF309CE5E2
:1041F000D90709F4B6C008F4A8C0C031FCE5DF0750
:1042000009F4B3C0C131DC4509F0B1CF8091BC02E3
:104210008F7B5BC0CF3F9CE5D90709F4B4C098F50C
:10422000CA3FFCE5DF0709F472C0B8F4C4319CE56D
:10423000D90709F4B6C008F4A2C0C531DC4509F0BD
:1042400096CF8091BC0282FB992790F921E09227BA
:1042500090FB82F990FB83F938C0CC3F8CE5D807FE
:1042600009F477C008F457C0CD3FECE5DE0709F448
:1042700074C08091BD028360CE3FDC4509F077CFEA
:104280008093BD0274CFC1368DE5D80709F496C07E
:1042900068F4C130EDE5DE0709F48CC008F477C09E
:1042A000C230DD4509F063CF80E085C0CD3A9DE5A1
:1042B000D907E9F068F49091BC02892F8E7F90FFB6
:1042C0008160C53ADD4509F052CF8093BC024FCFE3
:1042D000CE3A8DE5D80789F1CF3ADD4509F047CFD1
:1042E0009091BD02892F877F93FF8860C9CF80910D
:1042F000BD028860C5CF8091BC028260E6CF80910C
:10430000BC028460E2CF8091BC028860DECF8091E5
:10431000BD028160B5CF8091BD028260B1CF809136
:10432000BC028061D2CF0E947E078091BC0280686F
:10433000CCCF8091BC028C60C8CF8091BD02877FBA
:104340009FCF8091BC028B7FC0CF8091BC02877FC2
:10435000BCCF8091BD028E7F93CF8091BD028D7FB7
:104360008FCF8091BC028F7EB0CF8091BC028F7DB9
:10437000ACCF0E947E078091BC028F77A6CF809140
:10438000BC02837FA2CF8091BD028C7F79CF8091C8
:10439000BD02982F909591708E7F892B90FB81F9AB
:1043A0006FCF0E947E079091BC02892F97FB87F9FF
:1043B00080588BCF81E00E946C0DD9CE9091BC02C9
:1043C000892F8F7E94FF806180CF81E0E3CEB0E0C3
:1043D000A0E0EDEEF1E20C941A34E82FF0E0E750A3
:1043E000FD4FD490282F26952695269530E0F9018B
:1043F000E756FC4F0491877010E0082E02C0159517
:1044000007950A94E2F701701127F901E757FC4F6D
:10441000E490F12C082E02C0F594E7940A94E2F798
:1044200091E0E922FF24F901E758FC4FC491D0E064
:1044300002C0D595C7958A95E2F7C170DD270115B1
:10444000110519F081EE0E941F04E114F10419F026
:1044500086EE0E941F048D2D0E942105E114F104B7
:1044600019F086EE0E94B0040115110519F081EED5
:104470000E94B004CD2B19F08CE20E942105CDB72B
:10448000DEB7E7E00C943634EF92FF920F931F9360
:10449000CF93DF93EC01162F0AE08881882309F47B
:1044A00054C0813009F04EC08981813099F47E0179
:1044B00022E0E20EF11C8A810E942105E70121968B
:1044C000812F815050F3EFE9FFE03197F1F700C001
:1044D0000000F7CF823041F47E0182E0E80EF11C4B
:1044E0008A810E941F04EACF833041F47E01E2E01A
:1044F000EE0EF11C8A810E94B004E0CF843011F0EE
:104500002196DDCF2A81229690E080E0AE014F5FB8
:104510005F4F2053330B2A30310548F0019778F272
:10452000EFE9FFE03197F1F700C00000F7CF089FF7
:10453000B001099F700D1124C901860F971F2981B1
:10454000EA01E4CF0E94E721BACFCDB7DEB7E6E0BB
:104550000C94373484E0089550E0440F551F9AE0DE
:10456000699F400D511D112490E5899F400D511DFB
:104570001124CA01879608950F931F93CF93DF9359
:104580008430C8F46830B8F44530A8F40E94AC22F6
:104590008C010E946934C82FD0E0DC2FCC27C801E1
:1045A00001960E9469349E01282BC901DF91CF91A9
:1045B0001F910F91089590E080E0F8CF0F931F9323
:1045C000CF93DF93122F032F843078F4683068F490
:1045D000453058F40E94AC22EC01602F0E947D34DB
:1045E000612FCE0101960E947D34DF91CF911F9102
:1045F0000F910895B0E0A0E0E0E0F3E20C941834ED
:1046000092EFC92E90E0D92ED0E0C0E07601B12C17
:1046100020C00E94AA0221E030E08C171D0641F064
:104620003CF0F801EE0FFF1FEE0DFF1D25913491B8
:10463000402F6B2D8C2F0E94DE220F5F1F4F053005
:10464000110539F78AE0E80EF11CB39488E0B8163A
:1046500019F010E000E0DDCF219680E5C80ED11CF6
:10466000C430D10599F6CDB7DEB7E9E00C94343407
:10467000EF92FF920F931F93CF93DF93EC018A0188
:104680007C01E60EF71ECE018796CE15DF0529F4D4
:10469000CDB7DEB7E6E00C943734C03421E0D20762
:1046A00040F40E946934F80180830F5F1F4F219608
:1046B000EACFF8011082F9CFB0E0A0E0E2E6F3E241
:1046C0000C9419347C016A018C01060F171FEC0150
:1046D000CE018796C017D10729F4CDB7DEB7E8E041
:1046E0000C943534C03421E0D20740F4FE01EE19B9
:1046F000FF09EC0DFD1D60810E947D342196E8CFFD
:10470000462F843040F4783030F4653020F4672F41
:104710000E94BC22089590E080E0089580E1089511
:1047200089E992E00895EF92FF920F931F93CF9340
:10473000DF93EC018A017C01E60EF71ECE01895958
:104740009E4FCE15DF0529F4CDB7DEB7E6E00C9419
:104750003734C93922E0D20740F40E946934F801A5
:1047600080830F5F1F4F2196E9CFF8011082F9CFA8
:10477000B0E0A0E0EEEBF3E20C9419347C016A01A6
:104780008C01060F171FEC01CE0189599E4FC017EF
:10479000D10729F4CDB7DEB7E8E00C943534C93938
:1047A00022E0D20740F4FE01EE19FF09EC0DFD1DD9
:1047B00060810E947D342196E7CFCF93DF93C7E6D7
:1047C000D1E060E0CE010E947D342196C11584E0E5
:1047D000D807B9F7DF91CF910895A4E0B0E0E3EFF7
:1047E000F3E20C941A34F82E8FE08F1548F18FEF16
:1047F00093E00E946934811123C007E611E0F110B3
:1048000023C019821A821B821C82DD24D394780172
:104810008FEFE81AF80AC8010E94693489831A8266
:10482000882371F09FEF980F9330D8F48A83D98250
:104830000E5F1F4FC7010E9469348B83811112C024
:104840002496E7E00C943634011584E01807C1F390
:10485000C8010E946934811101C0FA940F5F1F4F93
:10486000CECF870160E0CE0101960E944422CFCFD7
:10487000CF93DF93EB0186319C4511F50E94CE0B5F
:104880009A81992399F08A7A91E009F490E09093C3
:104890009E02811109C089E20E94A60B0E940F0CA2
:1048A00080E0DF91CF91089585E3F6CF80919E025D
:1048B000811104C089E20E94AE0BF0CF85E3FBCFEB
:1048C00081E0EFCF0F931F93CF93DF93C42FD22FAD
:1048D000FC0182818823C9F04093A1020E943B28F9
:1048E0009093A00280939F0280E28C0F883040F466
:1048F000C77081E001C0880FCA95EAF70E942A05B7
:10490000DF91CF911F910F9108951091A10214137F
:1049100032C080919F029091A0020E945328883C4F
:10492000910548F5C0E2CD0F1D17B9F080E2810F67
:10493000883040F4177081E001C0880F1A95EAF7BB
:104940000E943105C83048F481E09D2F977001C066
:10495000880F9A95EAF70E942A05802F0E94210568
:10496000C83070F6D77081E001C0880FDA95EAF799
:104970000E943105C5CF80E28C0F883008F6C770E1
:1049800081E001C0880FCA95EAF7F2CF0F939C012E
:10499000CB01233F4CE5340759F1A8F4283DFCE551
:1049A0003F0701F1293D4CE53407D1F1273D3C4556
:1049B00091F406E221EE41EE67ED7CE50E9462246F
:1049C00080E00F910895253FFCE53F07E9F0B0F046
:1049D000263F3C45F9F0FC018281882339F1109291
:1049E000A102EFCF07E225EE45EE68ED7CE5E6CFCC
:1049F00006E221EE40EE63EF7CE5E0CF07E225EE34
:104A000044EE64EF7CE5DACF06E221EE42EE65EF9C
:104A10007CE5D4CF07E225EE46EE66EF7CE5CECF0F
:104A200008E221E045EE69ED7CE5C8CF81E0C9CF21
:104A30008EE14A9B02C08150E1F74A9BFECF089568
:104A40005A9880E28A95F1F75A9A0895FC013BE062
:104A50003A95F1F798E020E080E031E040E14A95B6
:104A6000F1F7880F4A9B02C08160232742E04A95F4
:104A7000F1F7000040E14A95F1F7915079F790E1A4
:104A80009A95F1F799B132E03A95F1F7000040E1DB
:104A90004A95F1F792FB992790F992272081920F7E
:104AA00090830895A1E0B0E0E8E5F5E20C941B34B2
:104AB00019828C017C01E60EF11C0E151F0541F4D4
:104AC00081E09981911180E02196E6E00C943734E1
:104AD0000E941825CE0101960E942625F801819397
:104AE0008F01EBCF529A5A9A089552985A9AEA9A9D
:104AF000E9E6F0E080818F7C808308956150770B38
:104B000091E001C0990F6A95EAF720E031E0911138
:104B100008C0222391F05A9A80E28A95F1F75A98B8
:104B20000895492F482339F05A9A232740E24A959D
:104B3000F1F79695ECCF5A98F9CF5A98EDCFFF92AE
:104B40000F931F93CF93DF93EC018C01060F111D80
:104B5000C017D10729F4CDB7DEB7E5E00C9438349F
:104B6000F9900E94202568E08F2D0E947E25F0CFCD
:104B70001F920F920FB60F9211240F931F932F9332
:104B80003F934F935F936F937F938F939F93AF93D5
:104B9000BF93EF93FF93CF93DF930F92CDB7DEB721
:104BA00019820E941825CE0101960E942625082F01
:104BB000069506950695282F22952570902F9570BD
:104BC000290F922F937026952695920F982797700C
:104BD0008981982B09F05CC0043008F059C080E14D
:104BE0008A95F1F75A9A529A82E08A95F1F700C0B5
:104BF0005A9888E0089F80011124D801A45FBE4F15
:104C00001696ED91FC9117973097A9F06091B3013A
:104C10007091B40114962D913C911597260F371F72
:104C200011968D919C911297680F791F13964C9154
:104C300013978C910995F801E45FFE4F6381662319
:104C400051F02091B3013091B40184819581820F9C
:104C5000931F0E949F250E94202580E18A95F1F7ED
:104C60005A9852985A9A80E18A95F1F7F801E45FD0
:104C7000FE4F6081662351F02091B3013091B40161
:104C800081819281820F931F0E9452250E941825D4
:104C90000F90DF91CF91FF91EF91BF91AF919F91D5
:104CA0008F917F916F915F914F913F912F911F91C4
:104CB0000F910F900FBE0F901F9018950F931F9399
:104CC000CF93DF93EC0104970CF04CC0F894529A08
:104CD0005A9885E08A95F1F700009C2F969595707B
:104CE0008C2F8570980F892F83709695969523E069
:104CF000CC0FDD1F2A95E1F7980F8E01092B0E943A
:104D0000202500C068E0802F0E947E2580E18A95E2
:104D1000F1F752985A9A4A9B1EC087E090E04A9950
:104D20001CC0FE01E45FFE4F63816623F9F0209111
:104D3000B3013091B40184819581820F931F0E9449
:104D40005225811113C0529A5A9A7894DF91CF91CB
:104D50001F910F91089500C0DECF019729F4529A58
:104D60005A9A789480E0F2CF00C0D9CF0E941825DB
:104D700080E28A95F1F75A98529A80E18A95F1F784
:104D8000C45FDE4F6881662351F02091B3013091FA
:104D9000B40189819A81820F931F0E949F250E94EE
:104DA0002025789481E0D2CF9093EB018093EA01A3
:104DB00008959093A8028093A70208950E948712F5
:104DC000811103C08091A2020895E091A702F091A1
:104DD000A802309729F00190F081E02D09950895FF
:104DE00080E00895E091A702F091A802309721F0A9
:104DF0000280F381E02D09950895E091A702F091DA
:104E0000A802309739F022E0DC012C930480F58170
:104E1000E02D099508952091A5023091A60228174A
:104E2000390771F09093A6028093A502E091A70242
:104E3000F091A802309721F00680F781E02D0995C6
:104E400008952091A3023091A4022817390771F028
:104E50009093A4028093A302E091A702F091A8028C
:104E6000309721F00084F185E02D099508959C018B
:104E70002E5F3F4FAC01485F5F4F80E0241735073E
:104E800009F40895F90191919F019923B9F38F5F76
:104E9000F5CF662349F0FC0132960896219126173A
:104EA00029F0E817F907D1F780E0089581E0089527
:104EB0009C01FC0132969FEF80E04191461751F032
:104EC0009F3F19F4411101C0982F8F5F8630A9F7D9
:104ED0009F3F09F40895290F311D97FD3A95F90177
:104EE00062830895FC01329608962191261303C02F
:104EF000DF0111971C92E817F907B9F708950E948E
:104F0000582708950E9472270895029626E0FC0112
:104F100011922A95E9F7089546E050E00E94533433
:104F200021E0892B09F420E0822F089508950E9442
:104F300096270895811106C081E08093A9020E94FE
:104F40009727089582E0F9CF83E08093A9020E9419
:104F5000972708950E949A27089581E08093A902D7
:104F60000E94972708950E94AD27089508950895F7
:104F70000E94B7270895089508950E94B6270895BE
:104F8000CF930E94BB270E9407120E94BC27C0E05B
:104F90008C2F0E94A410811105C0CF5FC830C1F7CB
:104FA000CF91089581E0FCCF85B7806885BF85B734
:104FB000806885BF08951F921FB61F9211248F939A
:104FC0009F93AF93BF938091AA02811113C08091E8
:104FD000050390910603A0910703B0910803419641
:104FE000A11DB11D8093050390930603A0930703B1
:104FF000B0930803BF91AF919F918F911F901FBEF7
:105000001F90189580910D03843031F10E94A10307
:105010001092AA0288E190E020E40FB6F894A895D7
:10502000809360000FBE2093600083B7817F84600F
:1050300083BF83B7816083BF7894889583B78E7F61
:1050400083BF0FB6F894A895809160008861809323
:105050006000109260000FBE08950E947E070E94BB
:10506000A803089582E084BD93E095BD9AEF97BDB3
:1050700080936E0008952FB7F89480910503909166
:105080000603A0910703B09108032FBF08952FB71F
:10509000F894609105037091060380910703909145
:1050A00008032FBF08959C014FB7F8948091050322
:1050B00090910603A0910703B09108034FBF821B94
:1050C000930B0895CF92DF92EF92FF922FB7F8944F
:1050D000C0900503D0900603E0900703F09008030A
:1050E0002FBFA7019601261B370B480B590BCA018E
:1050F000B901FF90EF90DF90CF90089578941F92C0
:105100001FB61F9211248F939F93AF93BF938091EB
:10511000050390910603A0910703B091080301963F
:10512000A11DB11D8093050390930603A09307036F
:10513000B0930803BF91AF919F918F911F901FBEB5
:105140001F90189587E797E79093010880930008D0
:1051500088E19AE00FB6F894A895809360000FBE9E
:1051600090936000FFCF88E19AE00FB6F894A8957D
:10517000809360000FBE90936000FFCF8091B602D5
:10518000089508959C0184E08093E9009FEF809149
:10519000E800915085FD06C085ED8A95F1F7000085
:1051A0009111F5CF8091E80085FF0CC050E040E000
:1051B00066E070E0C9010E94562B8091E8008E776E
:1051C0008093E8000895CF93DF93EC0181E0809312
:1051D000E9008FEF9091E800815095FD06C095EDB4
:1051E0009A95F1F700008111F5CF8091E80085FFD5
:1051F00014C050E040E068E070E0CE010E94562B01
:105200008091E8008E778093E80088E0FE01AEEAA6
:10521000B2E001900D928A95E1F7DF91CF91089568
:105220008093AB027093AD026093AC0280910D034A
:105230008430F9F48093E9008FEF9091E800815079
:1052400095FD06C095ED9A95F1F700008111F5CF17
:105250008091E80085FF0DC050E040E063E070E021
:105260008BEA92E00E94562B8091E8008E77809323
:10527000E8000895BC0184E00E9410290895BC0153
:1052800083E00E9410290895CF93FC01603221F53C
:1052900080910D03843001F5C091E900CF70209119
:1052A000EC00922F917020FD90E8C92B82E0809352
:1052B000E9008091E80080FF0CC050E040E060E22F
:1052C00070E0CF010E94562B8091E8008E7780938A
:1052D000E800CF70C093E900CF91089580910C034E
:1052E000811109C00E94352D0E94922D8091E2000B
:1052F00084608093E200089510920C0308950E9448
:10530000AD2708956091090381E0611101C080E03B
:105310000E94A427089590910D0381E0943009F034
:1053200080E0609109030E94AA27089542E061ECA1
:1053300081E00E94B12C42E261EC84E00E94B12C39
:1053400042E261EC82E00E94B12C42E260EC83E038
:105350000E94B12C90910D0381E0943009F080E01F
:10536000609109030E949A27089580910F0383306A
:1053700009F463C030F48130E1F1823009F4A0C057
:1053800008958A3009F48CC08B3009F471C08930DB
:1053900009F052C080910E03813209F04DC0809116
:1053A000120390911303009719F0029709F044C07B
:1053B0008091E800877F8093E8008091E80082FF79
:1053C00037C09091F3008091F200029731F4809100
:1053D000F100813011F0863021F48091F10080934A
:1053E000B6028091E8008B778093E8000E94E52C5C
:1053F00023C080910E03813AF9F48091E800877F01
:105400008093E8008091120390911303892B61F43B
:1054100068E08EEA92E070E00E94F42B8091E80050
:105420008B778093E800089560E090E080E0F3CF10
:1054300080910D038111C1CF089580910E03813AAF
:10544000D9F78091120390911303892BA9F78091CA
:10545000E800877F8093E8008091E80080FFFCCF20
:1054600080914B018093F1008091E8008E77BCCF52
:1054700080910E03813201F7809112039091130302
:10548000892BD1F68091E800877F8093E8000E9405
:10549000E52C8091100380934B010E947E070895B4
:1054A00080910E03813241F68091E800877F8093DE
:1054B000E8000E94E52C809111038093B7020895C3
:1054C00080910E03813A09F0B7CF8091E800877F81
:1054D0008093E8008091E80080FFFCCF8091B702C4
:1054E000C1CF84B7877F84BF0FB6F894A895809109
:1054F0006000886180936000109260000FBE80E8B9
:1055000090E00FB6F89480936100909361000FBE15
:105510000E94B32708950E94352D0E94922DE2EE3D
:10552000F0E080818460808378940E941130089537
:105530008FE391E00E94D926089580910D03853074
:1055400031F480910D03853019F00E942D280895C3
:105550000E94022880910B03882399F30E94C027A0
:10556000882379F30E94402B0E947E07EACFA0E2B5
:10557000B0E0EDEBFAE20C941F3480910D0384301F
:1055800009F583E08093E9008091E80082FF1AC06A
:105590008091E80090E085FF09C050E040E060E2C3
:1055A00070E0CE0101960E94A52B91E08091E80069
:1055B0008B778093E800992329F060E2CE01019671
:1055C0000E94A31FA096E2E00C943B340E94E92ABB
:1055D0000895292F33272330310521F168F4213034
:1055E000310509F443C02230310509F444C090E08C
:1055F00080E030E020E026C02132310551F1223236
:105600003105A9F76330710590F7FB01EE0FFF1F1D
:10561000E352FE4F2081318166527E4FFB01808133
:1056200090E010C099278130910581F0009729F012
:105630000297E9F6E9EAF3E002C0E7ECF3E08491CF
:1056400090E09F01FA01318320830895EBEBF3E0B2
:10565000F6CF6330710558F6660F771FFB01ED51E9
:10566000FE4F2081318189E090E0ECCF82E190E033
:1056700026E234E0E7CF8BE590E02BEC33E0E2CF9D
:1056800080E189BD82E189BD09B400FEFDCF809132
:10569000D8008F7D8093D8008091E0008260809355
:1056A000E0008091E00081FDFCCF0895AF92BF92B1
:1056B000CF92DF92FF920F931F93CF93DF936C01F2
:1056C000EB018A010E94042DF82E811123C00115DF
:1056D000110539F0F80180819181C81BD90BC80EE2
:1056E000D91EB12CA12C2097A9F08091E80085FD4E
:1056F00022C08091E8008E778093E80001151105A3
:10570000A1F0F80180819181A80EB91EB182A0821A
:1057100085E0F82E8F2DDF91CF911F910F91FF9093
:10572000DF90CF90BF90AF9008950E94042D882302
:10573000D1F2F82EEFCFF60181916F018093F10045
:105740002197FFEFAF1ABF0ACECFAF92BF92CF9291
:10575000DF92FF920F931F93CF93DF936C01EB01C6
:105760008A010E94042DF82E811123C00115110514
:1057700039F0F80180819181C81BD90BC80ED91E60
:10578000B12CA12C2097A9F08091E80085FD22C0C2
:105790008091E8008B778093E80001151105A1F056
:1057A000F80180819181A80EB91EB182A08285E0A6
:1057B000F82E8F2DDF91CF911F910F91FF90DF90E9
:1057C000CF90BF90AF9008950E94042D8823D1F20E
:1057D000F82EEFCF8091F100F60181936F012197B0
:1057E000FFEFAF1ABF0ACECFFC0180911403909156
:1057F000150386179707A0F06115710529F490919C
:10580000E8009E779093E80090E06115710551F4EF
:10581000911108C08091E80082FF34C080E00895B3
:10582000BC01F2CF80910D038823C1F18530C1F115
:105830008091E80083FD30C08091E80082FDEACFCE
:105840008091E80080FFE1CF8091F3002091F20089
:10585000382F6115710519F02830310558F091E0A5
:105860002830310509F090E02091E8002E77209350
:10587000E800CBCF81918093F100615071092F5FD7
:105880003F4FE7CF80910D03882341F0853041F0F1
:105890008091E80083FFBECF81E0089582E0089503
:1058A00083E00895FC0180911403909115038617FD
:1058B0009707A0F06115710529F48091E8008E77B3
:1058C0008093E80090E06115710551F4911108C0D2
:1058D0008091E80082FF35C080E00895BC01F2CFDE
:1058E00080910D038823C9F18530C9F18091E800CA
:1058F00083FD31C08091E80082FDEACF8091E8000D
:1059000080FFE1CF8091F3002091F200382F6115E4
:10591000710519F02830310558F091E02830310533
:1059200009F090E08091E8008E778093E800CBCF7B
:1059300084918093F1003196615071092F5F3F4F40
:10594000E6CF80910D03882341F0853041F08091AE
:10595000E80083FFBDCF81E0089582E0089583E0F1
:105960000895982F973028F08F708093E90081E098
:1059700008959093E900242F762F50E0981731F086
:105980007091EC002091ED005091F00021FD02C0DB
:105990009F5FE8CF3091EB003E7F3093EB0030917A
:1059A000ED003D7F3093ED003091EB00316030939E
:1059B000EB007093EC002093ED005093F0002091E9
:1059C000EE0027FDE5CF80E0089580910E0387FF6C
:1059D00013C08091E80082FF06C08091E8008B77B9
:1059E0008093E80004C080910D038111F2CF0895E7
:1059F00080910D038823D9F38091E80080FFF8CFD0
:105A00008091E8008E77ECCF2091E4003091E500A2
:105A100095E6A9012091EC00822F817020FF06C03D
:105A20008091E80080FF06C080E008952091E800A2
:105A300022FD1AC080910D03882389F0853089F0FA
:105A40008091EB0085FD0FC02091E4003091E500CE
:105A500042175307F9F29150E1F684E0089582E08D
:105A6000089583E0089581E008950E94A42D0E9486
:105A7000AC2DE0EEF0E0808181608083E8EDF0E025
:105A800080818F77808319BCA7EDB0E08C918E7FE9
:105A90008C9380818F7E808310920C0308950F93E6
:105AA0001F93CF93DF930E94A42D0E94AC2DC8EDCD
:105AB000D0E088818F778883888180688883888117
:105AC0008F7D888319BC10920D03109209031092E8
:105AD0000B0310920A0300EE10E0F80180818B7F27
